{
	"data": {
		"bytecode": {
			"linkReferences": {},
			"object": "60a06040523073ffffffffffffffffffffffffffffffffffffffff1660809073ffffffffffffffffffffffffffffffffffffffff16815250348015610042575f80fd5b50608051612cd661005b5f395f610f570152612cd65ff3fe608060405234801561000f575f80fd5b50600436106101c2575f3560e01c80638da5cb5b116100f7578063cf6eefb711610095578063d99401071161006f578063d9940107146104a8578063dd717b40146104c4578063f5b541a6146104e0578063fbac3951146104fe576101c2565b8063cf6eefb714610463578063d547741f14610482578063d602b9fd1461049e576101c2565b8063a1eda53c116100d1578063a1eda53c146103fe578063a217fddf1461041d578063cc8463c81461043b578063cefc142914610459576101c2565b80638da5cb5b146103805780639086afa11461039e57806391d14854146103ce576101c2565b8063248a9ca311610164578063634e93da1161013e578063634e93da1461030c5780636486b78114610328578063649a5ec71461034657806384ef8ffc14610362576101c2565b8063248a9ca3146102a45780632f2ff15d146102d457806336568abe146102f0576101c2565b80630aa6220b116101a05780630aa6220b146102325780630add1f7d1461023c5780630b6c83731461025857806314edeec614610288576101c2565b806301ffc9a7146101c6578063022d63fb146101f657806306fdde0314610214575b5f80fd5b6101e060048036038101906101db9190612084565b61052e565b6040516101ed91906120c9565b60405180910390f35b6101fe6105a7565b60405161020b9190612102565b60405180910390f35b61021c6105b1565b60405161022991906121a5565b60405180910390f35b61023a61064a565b005b61025660048036038101906102519190612230565b610661565b005b610272600480360381019061026d9190612285565b610698565b60405161027f91906120c9565b60405180910390f35b6102a2600480360381019061029d9190612311565b6106f3565b005b6102be60048036038101906102b9919061238f565b610825565b6040516102cb91906123c9565b60405180910390f35b6102ee60048036038101906102e991906123e2565b61084f565b005b61030a600480360381019061030591906123e2565b610898565b005b61032660048036038101906103219190612285565b6109b7565b005b6103306109d0565b60405161033d919061247b565b60405180910390f35b610360600480360381019061035b91906124be565b610a00565b005b61036a610a19565b60405161037791906124f8565b60405180910390f35b610388610a4f565b60405161039591906124f8565b60405180910390f35b6103b860048036038101906103b39190612285565b610a5d565b6040516103c591906120c9565b60405180910390f35b6103e860048036038101906103e391906123e2565b610b06565b6040516103f591906120c9565b60405180910390f35b610406610b77565b604051610414929190612511565b60405180910390f35b610425610be5565b60405161043291906123c9565b60405180910390f35b610443610beb565b6040516104509190612102565b60405180910390f35b610461610c69565b005b61046b610cfe565b604051610479929190612538565b60405180910390f35b61049c600480360381019061049791906123e2565b610d4d565b005b6104a6610d96565b005b6104c260048036038101906104bd9190612311565b610dad565b005b6104de60048036038101906104d99190612581565b610f55565b005b6104e8611192565b6040516104f591906123c9565b60405180910390f35b61051860048036038101906105139190612285565b6111b6565b60405161052591906120c9565b60405180910390f35b5f7f31498786000000000000000000000000000000000000000000000000000000007bffffffffffffffffffffffffffffffffffffffffffffffffffffffff1916827bffffffffffffffffffffffffffffffffffffffffffffffffffffffff191614806105a0575061059f826112c0565b5b9050919050565b5f62069780905090565b60606105bb611339565b60020180546105c9906125f5565b80601f01602080910402602001604051908101604052809291908181526020018280546105f5906125f5565b80156106405780601f1061061757610100808354040283529160200191610640565b820191905f5260205f20905b81548152906001019060200180831161062357829003601f168201915b5050505050905090565b5f801b61065681611360565b61065e611374565b50565b7f4f50455241544f5200000000000000000000000000000000000000000000000061068b81611360565b61069482611380565b5050565b5f6106a1611339565b6001015f8373ffffffffffffffffffffffffffffffffffffffff1673ffffffffffffffffffffffffffffffffffffffff1681526020019081526020015f205f9054906101000a900460ff169050919050565b7f4f50455241544f5200000000000000000000000000000000000000000000000061071d81611360565b5f610726611339565b90505f5b8484905081101561081e576001826001015f87878581811061074f5761074e612625565b5b90506020020160208101906107649190612285565b73ffffffffffffffffffffffffffffffffffffffff1673ffffffffffffffffffffffffffffffffffffffff1681526020019081526020015f205f6101000a81548160ff0219169083151502179055507fe195c9fe4a65c54ea36d99055c62d29b7eb7ae93c2302230768051410763aeea8585838181106107e7576107e6612625565b5b90506020020160208101906107fc9190612285565b60405161080991906124f8565b60405180910390a1808060010191505061072a565b5050505050565b5f8061082f611462565b9050805f015f8481526020019081526020015f2060010154915050919050565b5f801b820361088a576040517f3fc3c27a00000000000000000000000000000000000000000000000000000000815260040160405180910390fd5b6108948282611489565b5050565b5f6108a16114ab565b90505f801b831480156108e657506108b7610a19565b73ffffffffffffffffffffffffffffffffffffffff168273ffffffffffffffffffffffffffffffffffffffff16145b156109a8575f806108f5610cfe565b915091505f73ffffffffffffffffffffffffffffffffffffffff168273ffffffffffffffffffffffffffffffffffffffff1614158061093a5750610938816114d2565b155b8061094b5750610949816114e6565b155b1561098d57806040517f19ca5ebb0000000000000000000000000000000000000000000000000000000081526004016109849190612102565b60405180910390fd5b825f0160146101000a81549065ffffffffffff021916905550505b6109b283836114f9565b505050565b5f801b6109c381611360565b6109cc82611574565b5050565b5f6109d9611339565b5f015f9054906101000a900473ffffffffffffffffffffffffffffffffffffffff16905090565b5f801b610a0c81611360565b610a15826115ee565b5050565b5f80610a236114ab565b9050806001015f9054906101000a900473ffffffffffffffffffffffffffffffffffffffff1691505090565b5f610a58610a19565b905090565b5f610a66611339565b5f015f9054906101000a900473ffffffffffffffffffffffffffffffffffffffff1673ffffffffffffffffffffffffffffffffffffffff1663df592f7d836040518263ffffffff1660e01b8152600401610ac091906124f8565b602060405180830381865afa158015610adb573d5f803e3d5ffd5b505050506040513d601f19601f82011682018060405250810190610aff919061267c565b9050919050565b5f80610b10611462565b9050805f015f8581526020019081526020015f205f015f8473ffffffffffffffffffffffffffffffffffffffff1673ffffffffffffffffffffffffffffffffffffffff1681526020019081526020015f205f9054906101000a900460ff1691505092915050565b5f805f610b826114ab565b905080600101601a9054906101000a900465ffffffffffff169150610ba6826114d2565b8015610bb85750610bb6826114e6565b155b610bc3575f80610bdc565b8060010160149054906101000a900465ffffffffffff16825b92509250509091565b5f801b81565b5f80610bf56114ab565b90505f81600101601a9054906101000a900465ffffffffffff169050610c1a816114d2565b8015610c2b5750610c2a816114e6565b5b610c4a57815f01601a9054906101000a900465ffffffffffff16610c62565b8160010160149054906101000a900465ffffffffffff165b9250505090565b5f610c72610cfe565b5090508073ffffffffffffffffffffffffffffffffffffffff16610c94611654565b73ffffffffffffffffffffffffffffffffffffffff1614610cf357610cb7611654565b6040517fc22c8022000000000000000000000000000000000000000000000000000000008152600401610cea91906124f8565b60405180910390fd5b610cfb61165b565b50565b5f805f610d096114ab565b9050805f015f9054906101000a900473ffffffffffffffffffffffffffffffffffffffff16815f0160149054906101000a900465ffffffffffff1692509250509091565b5f801b8203610d88576040517f3fc3c27a00000000000000000000000000000000000000000000000000000000815260040160405180910390fd5b610d928282611734565b5050565b5f801b610da281611360565b610daa611756565b50565b7f4f50455241544f52000000000000000000000000000000000000000000000000610dd781611360565b5f610de0611339565b90505f8484905090505f5b81811015610f4d575f868683818110610e0757610e06612625565b5b9050602002016020810190610e1c9190612285565b905060011515846001015f8373ffffffffffffffffffffffffffffffffffffffff1673ffffffffffffffffffffffffffffffffffffffff1681526020019081526020015f205f9054906101000a900460ff16151514610eb257806040517fb895965c000000000000000000000000000000000000000000000000000000008152600401610ea991906124f8565b60405180910390fd5b5f846001015f8373ffffffffffffffffffffffffffffffffffffffff1673ffffffffffffffffffffffffffffffffffffffff1681526020019081526020015f205f6101000a81548160ff0219169083151502179055507fcdabb021e917f9d861cb523bbce1b91834fdd7e51a00cc016b762f94a322017a81604051610f3791906124f8565b60405180910390a1508080600101915050610deb565b505050505050565b7f000000000000000000000000000000000000000000000000000000000000000073ffffffffffffffffffffffffffffffffffffffff163073ffffffffffffffffffffffffffffffffffffffff1603610fda576040517f4f0898d200000000000000000000000000000000000000000000000000000000815260040160405180910390fd5b5f610fe3611762565b90505f815f0160089054906101000a900460ff161590505f825f015f9054906101000a900467ffffffffffffffff1690505f808267ffffffffffffffff1614801561102b5750825b90505f60018367ffffffffffffffff1614801561105e57505f3073ffffffffffffffffffffffffffffffffffffffff163b145b90508115801561106c575080155b156110a3576040517ff92ee8a900000000000000000000000000000000000000000000000000000000815260040160405180910390fd5b6001855f015f6101000a81548167ffffffffffffffff021916908367ffffffffffffffff16021790555083156110f0576001855f0160086101000a81548160ff0219169083151502179055505b61111e86608001602081019061110691906124be565b8760400160208101906111199190612285565b611789565b6111308661112b9061287c565b61179f565b831561118a575f855f0160086101000a81548160ff0219169083151502179055507fc7f505b2f371ae2175ee4913f4499e1f2633a7b5936321eed1cdaeb6115181d2600160405161118191906128da565b60405180910390a15b505050505050565b7f4f50455241544f5200000000000000000000000000000000000000000000000081565b5f806111c0611339565b9050805f015f9054906101000a900473ffffffffffffffffffffffffffffffffffffffff1673ffffffffffffffffffffffffffffffffffffffff1663df592f7d846040518263ffffffff1660e01b815260040161121d91906124f8565b602060405180830381865afa158015611238573d5f803e3d5ffd5b505050506040513d601f19601f8201168201806040525081019061125c919061267c565b1561126b5760019150506112bb565b806001015f8473ffffffffffffffffffffffffffffffffffffffff1673ffffffffffffffffffffffffffffffffffffffff1681526020019081526020015f205f9054906101000a900460ff169150505b919050565b5f7f7965db0b000000000000000000000000000000000000000000000000000000007bffffffffffffffffffffffffffffffffffffffffffffffffffffffff1916827bffffffffffffffffffffffffffffffffffffffffffffffffffffffff191614806113325750611331826117ea565b5b9050919050565b5f7f95688183686c3ec8efadb488883ac1d27f5a2b91d991ab031b02fd896646bd00905090565b6113718161136c611654565b611853565b50565b61137e5f806118a4565b565b5f611389611339565b90505f8273ffffffffffffffffffffffffffffffffffffffff163b036113e657816040517f247e97010000000000000000000000000000000000000000000000000000000081526004016113dd91906124f8565b60405180910390fd5b81815f015f6101000a81548173ffffffffffffffffffffffffffffffffffffffff021916908373ffffffffffffffffffffffffffffffffffffffff1602179055507fe9879a7c24d6235bc5aa529b1d5484fe820b8e4ae0e4d26da7825ea718e1b0dc82604051611456919061247b565b60405180910390a15050565b5f7f02dd7bc7dec4dceedda775e58dd541e08a116c6c53815c0bd028192f7b626800905090565b61149282610825565b61149b81611360565b6114a583836119a8565b50505050565b5f7feef3dac4538c82c8ace4063ab0acd2d15cdb5883aa1dff7c2673abb3d8698400905090565b5f808265ffffffffffff1614159050919050565b5f428265ffffffffffff16109050919050565b611501611654565b73ffffffffffffffffffffffffffffffffffffffff168173ffffffffffffffffffffffffffffffffffffffff1614611565576040517f6697b23200000000000000000000000000000000000000000000000000000000815260040160405180910390fd5b61156f8282611a7f565b505050565b5f61157d610beb565b61158642611b0d565b6115909190612920565b905061159c8282611b66565b8173ffffffffffffffffffffffffffffffffffffffff167f3377dc44241e779dd06afab5b788a35ca5f3b778836e2990bdb26a2a4b2e5ed6826040516115e29190612102565b60405180910390a25050565b5f6115f882611c25565b61160142611b0d565b61160b9190612920565b905061161782826118a4565b7ff1038c18cf84a56e432fdbfaf746924b7ea511dfe03a6506a0ceba4888788d9b8282604051611648929190612511565b60405180910390a15050565b5f33905090565b5f6116646114ab565b90505f80611670610cfe565b9150915061167d816114d2565b158061168f575061168d816114e6565b155b156116d157806040517f19ca5ebb0000000000000000000000000000000000000000000000000000000081526004016116c89190612102565b60405180910390fd5b6116e45f801b6116df610a19565b611a7f565b506116f15f801b836119a8565b50825f015f6101000a81549073ffffffffffffffffffffffffffffffffffffffff0219169055825f0160146101000a81549065ffffffffffff0219169055505050565b61173d82610825565b61174681611360565b6117508383611a7f565b50505050565b6117605f80611b66565b565b5f7ff0c57e16840df040f15088dc2f81fe391c3923bec73e23a9662efc9c229c6a00905090565b611791611c83565b61179b8282611cc3565b5050565b6117ac8160200151611380565b6117b8815f0151611d7e565b6117e67f4f50455241544f5200000000000000000000000000000000000000000000000082606001516119a8565b5050565b5f7f01ffc9a7000000000000000000000000000000000000000000000000000000007bffffffffffffffffffffffffffffffffffffffffffffffffffffffff1916827bffffffffffffffffffffffffffffffffffffffffffffffffffffffff1916149050919050565b61185d8282610b06565b6118a05780826040517fe2517d3f000000000000000000000000000000000000000000000000000000008152600401611897929190612959565b60405180910390fd5b5050565b5f6118ad6114ab565b90505f81600101601a9054906101000a900465ffffffffffff1690506118d2816114d2565b15611954576118e0816114e6565b15611926578160010160149054906101000a900465ffffffffffff16825f01601a6101000a81548165ffffffffffff021916908365ffffffffffff160217905550611953565b7f2b1fa2edafe6f7b9e97c1a9e0c3660e645beb2dcaa2d45bdbf9beaf5472e1ec560405160405180910390a15b5b838260010160146101000a81548165ffffffffffff021916908365ffffffffffff1602179055508282600101601a6101000a81548165ffffffffffff021916908365ffffffffffff16021790555050505050565b5f806119b26114ab565b90505f801b8403611a6c575f73ffffffffffffffffffffffffffffffffffffffff166119dc610a19565b73ffffffffffffffffffffffffffffffffffffffff1614611a29576040517f3fc3c27a00000000000000000000000000000000000000000000000000000000815260040160405180910390fd5b82816001015f6101000a81548173ffffffffffffffffffffffffffffffffffffffff021916908373ffffffffffffffffffffffffffffffffffffffff1602179055505b611a768484611dd6565b91505092915050565b5f80611a896114ab565b90505f801b84148015611ace5750611a9f610a19565b73ffffffffffffffffffffffffffffffffffffffff168373ffffffffffffffffffffffffffffffffffffffff16145b15611afa57806001015f6101000a81549073ffffffffffffffffffffffffffffffffffffffff02191690555b611b048484611ece565b91505092915050565b5f65ffffffffffff8016821115611b5e576030826040517f6dfcc650000000000000000000000000000000000000000000000000000000008152600401611b559291906129dd565b60405180910390fd5b819050919050565b5f611b6f6114ab565b90505f611b7a610cfe565b91505083825f015f6101000a81548173ffffffffffffffffffffffffffffffffffffffff021916908373ffffffffffffffffffffffffffffffffffffffff16021790555082825f0160146101000a81548165ffffffffffff021916908365ffffffffffff160217905550611bed816114d2565b15611c1f577f8886ebfc4259abdbc16601dd8fb5678e54878f47b3c34836cfc51154a960510960405160405180910390a15b50505050565b5f80611c2f610beb565b90508065ffffffffffff168365ffffffffffff1611611c59578281611c549190612a04565b611c7b565b611c7a8365ffffffffffff16611c6d6105a7565b65ffffffffffff16611fc6565b5b915050919050565b611c8b611fdc565b611cc1576040517fd7e6bcf800000000000000000000000000000000000000000000000000000000815260040160405180910390fd5b565b611ccb611c83565b5f611cd46114ab565b90505f73ffffffffffffffffffffffffffffffffffffffff168273ffffffffffffffffffffffffffffffffffffffff1603611d46575f6040517fc22c8022000000000000000000000000000000000000000000000000000000008152600401611d3d91906124f8565b60405180910390fd5b82815f01601a6101000a81548165ffffffffffff021916908365ffffffffffff160217905550611d785f801b836119a8565b50505050565b5f611d87611339565b905081816002019081611d9a9190612bd1565b507f1099e0381cc51a0e48f876169bdb9db942eb13641fd572c175c9c457c8861b1382604051611dca91906121a5565b60405180910390a15050565b5f80611de0611462565b9050611dec8484610b06565b611ec3576001815f015f8681526020019081526020015f205f015f8573ffffffffffffffffffffffffffffffffffffffff1673ffffffffffffffffffffffffffffffffffffffff1681526020019081526020015f205f6101000a81548160ff021916908315150217905550611e5f611654565b73ffffffffffffffffffffffffffffffffffffffff168373ffffffffffffffffffffffffffffffffffffffff16857f2f8788117e7eff1d82e926ec794901d17c78024a50270940304540a733656f0d60405160405180910390a46001915050611ec8565b5f9150505b92915050565b5f80611ed8611462565b9050611ee48484610b06565b15611fbb575f815f015f8681526020019081526020015f205f015f8573ffffffffffffffffffffffffffffffffffffffff1673ffffffffffffffffffffffffffffffffffffffff1681526020019081526020015f205f6101000a81548160ff021916908315150217905550611f57611654565b73ffffffffffffffffffffffffffffffffffffffff168373ffffffffffffffffffffffffffffffffffffffff16857ff6391f5c32d9c69d2a47ea670b442974b53935d1edc7fd64eb21e047a839171b60405160405180910390a46001915050611fc0565b5f9150505b92915050565b5f611fd48284108484611ffa565b905092915050565b5f611fe5611762565b5f0160089054906101000a900460ff16905090565b5f61200484612013565b82841802821890509392505050565b5f8115159050919050565b5f604051905090565b5f80fd5b5f80fd5b5f7fffffffff0000000000000000000000000000000000000000000000000000000082169050919050565b6120638161202f565b811461206d575f80fd5b50565b5f8135905061207e8161205a565b92915050565b5f6020828403121561209957612098612027565b5b5f6120a684828501612070565b91505092915050565b5f8115159050919050565b6120c3816120af565b82525050565b5f6020820190506120dc5f8301846120ba565b92915050565b5f65ffffffffffff82169050919050565b6120fc816120e2565b82525050565b5f6020820190506121155f8301846120f3565b92915050565b5f81519050919050565b5f82825260208201905092915050565b5f5b83811015612152578082015181840152602081019050612137565b5f8484015250505050565b5f601f19601f8301169050919050565b5f6121778261211b565b6121818185612125565b9350612191818560208601612135565b61219a8161215d565b840191505092915050565b5f6020820190508181035f8301526121bd818461216d565b905092915050565b5f73ffffffffffffffffffffffffffffffffffffffff82169050919050565b5f6121ee826121c5565b9050919050565b5f6121ff826121e4565b9050919050565b61220f816121f5565b8114612219575f80fd5b50565b5f8135905061222a81612206565b92915050565b5f6020828403121561224557612244612027565b5b5f6122528482850161221c565b91505092915050565b612264816121e4565b811461226e575f80fd5b50565b5f8135905061227f8161225b565b92915050565b5f6020828403121561229a57612299612027565b5b5f6122a784828501612271565b91505092915050565b5f80fd5b5f80fd5b5f80fd5b5f8083601f8401126122d1576122d06122b0565b5b8235905067ffffffffffffffff8111156122ee576122ed6122b4565b5b60208301915083602082028301111561230a576123096122b8565b5b9250929050565b5f806020838503121561232757612326612027565b5b5f83013567ffffffffffffffff8111156123445761234361202b565b5b612350858286016122bc565b92509250509250929050565b5f819050919050565b61236e8161235c565b8114612378575f80fd5b50565b5f8135905061238981612365565b92915050565b5f602082840312156123a4576123a3612027565b5b5f6123b18482850161237b565b91505092915050565b6123c38161235c565b82525050565b5f6020820190506123dc5f8301846123ba565b92915050565b5f80604083850312156123f8576123f7612027565b5b5f6124058582860161237b565b925050602061241685828601612271565b9150509250929050565b5f819050919050565b5f61244361243e612439846121c5565b612420565b6121c5565b9050919050565b5f61245482612429565b9050919050565b5f6124658261244a565b9050919050565b6124758161245b565b82525050565b5f60208201905061248e5f83018461246c565b92915050565b61249d816120e2565b81146124a7575f80fd5b50565b5f813590506124b881612494565b92915050565b5f602082840312156124d3576124d2612027565b5b5f6124e0848285016124aa565b91505092915050565b6124f2816121e4565b82525050565b5f60208201905061250b5f8301846124e9565b92915050565b5f6040820190506125245f8301856120f3565b61253160208301846120f3565b9392505050565b5f60408201905061254b5f8301856124e9565b61255860208301846120f3565b9392505050565b5f80fd5b5f60a082840312156125785761257761255f565b5b81905092915050565b5f6020828403121561259657612595612027565b5b5f82013567ffffffffffffffff8111156125b3576125b261202b565b5b6125bf84828501612563565b91505092915050565b7f4e487b71000000000000000000000000000000000000000000000000000000005f52602260045260245ffd5b5f600282049050600182168061260c57607f821691505b60208210810361261f5761261e6125c8565b5b50919050565b7f4e487b71000000000000000000000000000000000000000000000000000000005f52603260045260245ffd5b61265b816120af565b8114612665575f80fd5b50565b5f8151905061267681612652565b92915050565b5f6020828403121561269157612690612027565b5b5f61269e84828501612668565b91505092915050565b5f80fd5b7f4e487b71000000000000000000000000000000000000000000000000000000005f52604160045260245ffd5b6126e18261215d565b810181811067ffffffffffffffff82111715612700576126ff6126ab565b5b80604052505050565b5f61271261201e565b905061271e82826126d8565b919050565b5f80fd5b5f80fd5b5f67ffffffffffffffff821115612745576127446126ab565b5b61274e8261215d565b9050602081019050919050565b828183375f83830152505050565b5f61277b6127768461272b565b612709565b90508281526020810184848401111561279757612796612727565b5b6127a284828561275b565b509392505050565b5f82601f8301126127be576127bd6122b0565b5b81356127ce848260208601612769565b91505092915050565b5f60a082840312156127ec576127eb6126a7565b5b6127f660a0612709565b90505f82013567ffffffffffffffff81111561281557612814612723565b5b612821848285016127aa565b5f8301525060206128348482850161221c565b602083015250604061284884828501612271565b604083015250606061285c84828501612271565b6060830152506080612870848285016124aa565b60808301525092915050565b5f61288736836127d7565b9050919050565b5f819050919050565b5f67ffffffffffffffff82169050919050565b5f6128c46128bf6128ba8461288e565b612420565b612897565b9050919050565b6128d4816128aa565b82525050565b5f6020820190506128ed5f8301846128cb565b92915050565b7f4e487b71000000000000000000000000000000000000000000000000000000005f52601160045260245ffd5b5f61292a826120e2565b9150612935836120e2565b9250828201905065ffffffffffff811115612953576129526128f3565b5b92915050565b5f60408201905061296c5f8301856124e9565b61297960208301846123ba565b9392505050565b5f819050919050565b5f60ff82169050919050565b5f6129af6129aa6129a584612980565b612420565b612989565b9050919050565b6129bf81612995565b82525050565b5f819050919050565b6129d7816129c5565b82525050565b5f6040820190506129f05f8301856129b6565b6129fd60208301846129ce565b9392505050565b5f612a0e826120e2565b9150612a19836120e2565b9250828203905065ffffffffffff811115612a3757612a366128f3565b5b92915050565b5f819050815f5260205f209050919050565b5f6020601f8301049050919050565b5f82821b905092915050565b5f60088302612a997fffffffffffffffffffffffffffffffffffffffffffffffffffffffffffffffff82612a5e565b612aa38683612a5e565b95508019841693508086168417925050509392505050565b5f612ad5612ad0612acb846129c5565b612420565b6129c5565b9050919050565b5f819050919050565b612aee83612abb565b612b02612afa82612adc565b848454612a6a565b825550505050565b5f90565b612b16612b0a565b612b21818484612ae5565b505050565b5b81811015612b4457612b395f82612b0e565b600181019050612b27565b5050565b601f821115612b8957612b5a81612a3d565b612b6384612a4f565b81016020851015612b72578190505b612b86612b7e85612a4f565b830182612b26565b50505b505050565b5f82821c905092915050565b5f612ba95f1984600802612b8e565b1980831691505092915050565b5f612bc18383612b9a565b9150826002028217905092915050565b612bda8261211b565b67ffffffffffffffff811115612bf357612bf26126ab565b5b612bfd82546125f5565b612c08828285612b48565b5f60209050601f831160018114612c39575f8415612c27578287015190505b612c318582612bb6565b865550612c98565b601f198416612c4786612a3d565b5f5b82811015612c6e57848901518255600182019150602085019450602081019050612c49565b86831015612c8b5784890151612c87601f891682612b9a565b8355505b6001600288020188555050505b50505050505056fea2646970667358221220c4ce5aa54ccf791f5985244ced1d415fff00bacbf51ee26aa3ac5f9a3b3f59ae64736f6c63430008160033",
			"opcodes": "PUSH1 0xA0 PUSH1 0x40 MSTORE ADDRESS PUSH20 0xFFFFFFFFFFFFFFFFFFFFFFFFFFFFFFFFFFFFFFFF AND PUSH1 0x80 SWAP1 PUSH20 0xFFFFFFFFFFFFFFFFFFFFFFFFFFFFFFFFFFFFFFFF AND DUP2 MSTORE POP CALLVALUE DUP1 ISZERO PUSH2 0x42 JUMPI PUSH0 DUP1 REVERT JUMPDEST POP PUSH1 0x80 MLOAD PUSH2 0x2CD6 PUSH2 0x5B PUSH0 CODECOPY PUSH0 PUSH2 0xF57 ADD MSTORE PUSH2 0x2CD6 PUSH0 RETURN INVALID PUSH1 0x80 PUSH1 0x40 MSTORE CALLVALUE DUP1 ISZERO PUSH2 0xF JUMPI PUSH0 DUP1 REVERT JUMPDEST POP PUSH1 0x4 CALLDATASIZE LT PUSH2 0x1C2 JUMPI PUSH0 CALLDATALOAD PUSH1 0xE0 SHR DUP1 PUSH4 0x8DA5CB5B GT PUSH2 0xF7 JUMPI DUP1 PUSH4 0xCF6EEFB7 GT PUSH2 0x95 JUMPI DUP1 PUSH4 0xD9940107 GT PUSH2 0x6F JUMPI DUP1 PUSH4 0xD9940107 EQ PUSH2 0x4A8 JUMPI DUP1 PUSH4 0xDD717B40 EQ PUSH2 0x4C4 JUMPI DUP1 PUSH4 0xF5B541A6 EQ PUSH2 0x4E0 JUMPI DUP1 PUSH4 0xFBAC3951 EQ PUSH2 0x4FE JUMPI PUSH2 0x1C2 JUMP JUMPDEST DUP1 PUSH4 0xCF6EEFB7 EQ PUSH2 0x463 JUMPI DUP1 PUSH4 0xD547741F EQ PUSH2 0x482 JUMPI DUP1 PUSH4 0xD602B9FD EQ PUSH2 0x49E JUMPI PUSH2 0x1C2 JUMP JUMPDEST DUP1 PUSH4 0xA1EDA53C GT PUSH2 0xD1 JUMPI DUP1 PUSH4 0xA1EDA53C EQ PUSH2 0x3FE JUMPI DUP1 PUSH4 0xA217FDDF EQ PUSH2 0x41D JUMPI DUP1 PUSH4 0xCC8463C8 EQ PUSH2 0x43B JUMPI DUP1 PUSH4 0xCEFC1429 EQ PUSH2 0x459 JUMPI PUSH2 0x1C2 JUMP JUMPDEST DUP1 PUSH4 0x8DA5CB5B EQ PUSH2 0x380 JUMPI DUP1 PUSH4 0x9086AFA1 EQ PUSH2 0x39E JUMPI DUP1 PUSH4 0x91D14854 EQ PUSH2 0x3CE JUMPI PUSH2 0x1C2 JUMP JUMPDEST DUP1 PUSH4 0x248A9CA3 GT PUSH2 0x164 JUMPI DUP1 PUSH4 0x634E93DA GT PUSH2 0x13E JUMPI DUP1 PUSH4 0x634E93DA EQ PUSH2 0x30C JUMPI DUP1 PUSH4 0x6486B781 EQ PUSH2 0x328 JUMPI DUP1 PUSH4 0x649A5EC7 EQ PUSH2 0x346 JUMPI DUP1 PUSH4 0x84EF8FFC EQ PUSH2 0x362 JUMPI PUSH2 0x1C2 JUMP JUMPDEST DUP1 PUSH4 0x248A9CA3 EQ PUSH2 0x2A4 JUMPI DUP1 PUSH4 0x2F2FF15D EQ PUSH2 0x2D4 JUMPI DUP1 PUSH4 0x36568ABE EQ PUSH2 0x2F0 JUMPI PUSH2 0x1C2 JUMP JUMPDEST DUP1 PUSH4 0xAA6220B GT PUSH2 0x1A0 JUMPI DUP1 PUSH4 0xAA6220B EQ PUSH2 0x232 JUMPI DUP1 PUSH4 0xADD1F7D EQ PUSH2 0x23C JUMPI DUP1 PUSH4 0xB6C8373 EQ PUSH2 0x258 JUMPI DUP1 PUSH4 0x14EDEEC6 EQ PUSH2 0x288 JUMPI PUSH2 0x1C2 JUMP JUMPDEST DUP1 PUSH4 0x1FFC9A7 EQ PUSH2 0x1C6 JUMPI DUP1 PUSH4 0x22D63FB EQ PUSH2 0x1F6 JUMPI DUP1 PUSH4 0x6FDDE03 EQ PUSH2 0x214 JUMPI JUMPDEST PUSH0 DUP1 REVERT JUMPDEST PUSH2 0x1E0 PUSH1 0x4 DUP1 CALLDATASIZE SUB DUP2 ADD SWAP1 PUSH2 0x1DB SWAP2 SWAP1 PUSH2 0x2084 JUMP JUMPDEST PUSH2 0x52E JUMP JUMPDEST PUSH1 0x40 MLOAD PUSH2 0x1ED SWAP2 SWAP1 PUSH2 0x20C9 JUMP JUMPDEST PUSH1 0x40 MLOAD DUP1 SWAP2 SUB SWAP1 RETURN JUMPDEST PUSH2 0x1FE PUSH2 0x5A7 JUMP JUMPDEST PUSH1 0x40 MLOAD PUSH2 0x20B SWAP2 SWAP1 PUSH2 0x2102 JUMP JUMPDEST PUSH1 0x40 MLOAD DUP1 SWAP2 SUB SWAP1 RETURN JUMPDEST PUSH2 0x21C PUSH2 0x5B1 JUMP JUMPDEST PUSH1 0x40 MLOAD PUSH2 0x229 SWAP2 SWAP1 PUSH2 0x21A5 JUMP JUMPDEST PUSH1 0x40 MLOAD DUP1 SWAP2 SUB SWAP1 RETURN JUMPDEST PUSH2 0x23A PUSH2 0x64A JUMP JUMPDEST STOP JUMPDEST PUSH2 0x256 PUSH1 0x4 DUP1 CALLDATASIZE SUB DUP2 ADD SWAP1 PUSH2 0x251 SWAP2 SWAP1 PUSH2 0x2230 JUMP JUMPDEST PUSH2 0x661 JUMP JUMPDEST STOP JUMPDEST PUSH2 0x272 PUSH1 0x4 DUP1 CALLDATASIZE SUB DUP2 ADD SWAP1 PUSH2 0x26D SWAP2 SWAP1 PUSH2 0x2285 JUMP JUMPDEST PUSH2 0x698 JUMP JUMPDEST PUSH1 0x40 MLOAD PUSH2 0x27F SWAP2 SWAP1 PUSH2 0x20C9 JUMP JUMPDEST PUSH1 0x40 MLOAD DUP1 SWAP2 SUB SWAP1 RETURN JUMPDEST PUSH2 0x2A2 PUSH1 0x4 DUP1 CALLDATASIZE SUB DUP2 ADD SWAP1 PUSH2 0x29D SWAP2 SWAP1 PUSH2 0x2311 JUMP JUMPDEST PUSH2 0x6F3 JUMP JUMPDEST STOP JUMPDEST PUSH2 0x2BE PUSH1 0x4 DUP1 CALLDATASIZE SUB DUP2 ADD SWAP1 PUSH2 0x2B9 SWAP2 SWAP1 PUSH2 0x238F JUMP JUMPDEST PUSH2 0x825 JUMP JUMPDEST PUSH1 0x40 MLOAD PUSH2 0x2CB SWAP2 SWAP1 PUSH2 0x23C9 JUMP JUMPDEST PUSH1 0x40 MLOAD DUP1 SWAP2 SUB SWAP1 RETURN JUMPDEST PUSH2 0x2EE PUSH1 0x4 DUP1 CALLDATASIZE SUB DUP2 ADD SWAP1 PUSH2 0x2E9 SWAP2 SWAP1 PUSH2 0x23E2 JUMP JUMPDEST PUSH2 0x84F JUMP JUMPDEST STOP JUMPDEST PUSH2 0x30A PUSH1 0x4 DUP1 CALLDATASIZE SUB DUP2 ADD SWAP1 PUSH2 0x305 SWAP2 SWAP1 PUSH2 0x23E2 JUMP JUMPDEST PUSH2 0x898 JUMP JUMPDEST STOP JUMPDEST PUSH2 0x326 PUSH1 0x4 DUP1 CALLDATASIZE SUB DUP2 ADD SWAP1 PUSH2 0x321 SWAP2 SWAP1 PUSH2 0x2285 JUMP JUMPDEST PUSH2 0x9B7 JUMP JUMPDEST STOP JUMPDEST PUSH2 0x330 PUSH2 0x9D0 JUMP JUMPDEST PUSH1 0x40 MLOAD PUSH2 0x33D SWAP2 SWAP1 PUSH2 0x247B JUMP JUMPDEST PUSH1 0x40 MLOAD DUP1 SWAP2 SUB SWAP1 RETURN JUMPDEST PUSH2 0x360 PUSH1 0x4 DUP1 CALLDATASIZE SUB DUP2 ADD SWAP1 PUSH2 0x35B SWAP2 SWAP1 PUSH2 0x24BE JUMP JUMPDEST PUSH2 0xA00 JUMP JUMPDEST STOP JUMPDEST PUSH2 0x36A PUSH2 0xA19 JUMP JUMPDEST PUSH1 0x40 MLOAD PUSH2 0x377 SWAP2 SWAP1 PUSH2 0x24F8 JUMP JUMPDEST PUSH1 0x40 MLOAD DUP1 SWAP2 SUB SWAP1 RETURN JUMPDEST PUSH2 0x388 PUSH2 0xA4F JUMP JUMPDEST PUSH1 0x40 MLOAD PUSH2 0x395 SWAP2 SWAP1 PUSH2 0x24F8 JUMP JUMPDEST PUSH1 0x40 MLOAD DUP1 SWAP2 SUB SWAP1 RETURN JUMPDEST PUSH2 0x3B8 PUSH1 0x4 DUP1 CALLDATASIZE SUB DUP2 ADD SWAP1 PUSH2 0x3B3 SWAP2 SWAP1 PUSH2 0x2285 JUMP JUMPDEST PUSH2 0xA5D JUMP JUMPDEST PUSH1 0x40 MLOAD PUSH2 0x3C5 SWAP2 SWAP1 PUSH2 0x20C9 JUMP JUMPDEST PUSH1 0x40 MLOAD DUP1 SWAP2 SUB SWAP1 RETURN JUMPDEST PUSH2 0x3E8 PUSH1 0x4 DUP1 CALLDATASIZE SUB DUP2 ADD SWAP1 PUSH2 0x3E3 SWAP2 SWAP1 PUSH2 0x23E2 JUMP JUMPDEST PUSH2 0xB06 JUMP JUMPDEST PUSH1 0x40 MLOAD PUSH2 0x3F5 SWAP2 SWAP1 PUSH2 0x20C9 JUMP JUMPDEST PUSH1 0x40 MLOAD DUP1 SWAP2 SUB SWAP1 RETURN JUMPDEST PUSH2 0x406 PUSH2 0xB77 JUMP JUMPDEST PUSH1 0x40 MLOAD PUSH2 0x414 SWAP3 SWAP2 SWAP1 PUSH2 0x2511 JUMP JUMPDEST PUSH1 0x40 MLOAD DUP1 SWAP2 SUB SWAP1 RETURN JUMPDEST PUSH2 0x425 PUSH2 0xBE5 JUMP JUMPDEST PUSH1 0x40 MLOAD PUSH2 0x432 SWAP2 SWAP1 PUSH2 0x23C9 JUMP JUMPDEST PUSH1 0x40 MLOAD DUP1 SWAP2 SUB SWAP1 RETURN JUMPDEST PUSH2 0x443 PUSH2 0xBEB JUMP JUMPDEST PUSH1 0x40 MLOAD PUSH2 0x450 SWAP2 SWAP1 PUSH2 0x2102 JUMP JUMPDEST PUSH1 0x40 MLOAD DUP1 SWAP2 SUB SWAP1 RETURN JUMPDEST PUSH2 0x461 PUSH2 0xC69 JUMP JUMPDEST STOP JUMPDEST PUSH2 0x46B PUSH2 0xCFE JUMP JUMPDEST PUSH1 0x40 MLOAD PUSH2 0x479 SWAP3 SWAP2 SWAP1 PUSH2 0x2538 JUMP JUMPDEST PUSH1 0x40 MLOAD DUP1 SWAP2 SUB SWAP1 RETURN JUMPDEST PUSH2 0x49C PUSH1 0x4 DUP1 CALLDATASIZE SUB DUP2 ADD SWAP1 PUSH2 0x497 SWAP2 SWAP1 PUSH2 0x23E2 JUMP JUMPDEST PUSH2 0xD4D JUMP JUMPDEST STOP JUMPDEST PUSH2 0x4A6 PUSH2 0xD96 JUMP JUMPDEST STOP JUMPDEST PUSH2 0x4C2 PUSH1 0x4 DUP1 CALLDATASIZE SUB DUP2 ADD SWAP1 PUSH2 0x4BD SWAP2 SWAP1 PUSH2 0x2311 JUMP JUMPDEST PUSH2 0xDAD JUMP JUMPDEST STOP JUMPDEST PUSH2 0x4DE PUSH1 0x4 DUP1 CALLDATASIZE SUB DUP2 ADD SWAP1 PUSH2 0x4D9 SWAP2 SWAP1 PUSH2 0x2581 JUMP JUMPDEST PUSH2 0xF55 JUMP JUMPDEST STOP JUMPDEST PUSH2 0x4E8 PUSH2 0x1192 JUMP JUMPDEST PUSH1 0x40 MLOAD PUSH2 0x4F5 SWAP2 SWAP1 PUSH2 0x23C9 JUMP JUMPDEST PUSH1 0x40 MLOAD DUP1 SWAP2 SUB SWAP1 RETURN JUMPDEST PUSH2 0x518 PUSH1 0x4 DUP1 CALLDATASIZE SUB DUP2 ADD SWAP1 PUSH2 0x513 SWAP2 SWAP1 PUSH2 0x2285 JUMP JUMPDEST PUSH2 0x11B6 JUMP JUMPDEST PUSH1 0x40 MLOAD PUSH2 0x525 SWAP2 SWAP1 PUSH2 0x20C9 JUMP JUMPDEST PUSH1 0x40 MLOAD DUP1 SWAP2 SUB SWAP1 RETURN JUMPDEST PUSH0 PUSH32 0x3149878600000000000000000000000000000000000000000000000000000000 PUSH28 0xFFFFFFFFFFFFFFFFFFFFFFFFFFFFFFFFFFFFFFFFFFFFFFFFFFFFFFFF NOT AND DUP3 PUSH28 0xFFFFFFFFFFFFFFFFFFFFFFFFFFFFFFFFFFFFFFFFFFFFFFFFFFFFFFFF NOT AND EQ DUP1 PUSH2 0x5A0 JUMPI POP PUSH2 0x59F DUP3 PUSH2 0x12C0 JUMP JUMPDEST JUMPDEST SWAP1 POP SWAP2 SWAP1 POP JUMP JUMPDEST PUSH0 PUSH3 0x69780 SWAP1 POP SWAP1 JUMP JUMPDEST PUSH1 0x60 PUSH2 0x5BB PUSH2 0x1339 JUMP JUMPDEST PUSH1 0x2 ADD DUP1 SLOAD PUSH2 0x5C9 SWAP1 PUSH2 0x25F5 JUMP JUMPDEST DUP1 PUSH1 0x1F ADD PUSH1 0x20 DUP1 SWAP2 DIV MUL PUSH1 0x20 ADD PUSH1 0x40 MLOAD SWAP1 DUP2 ADD PUSH1 0x40 MSTORE DUP1 SWAP3 SWAP2 SWAP1 DUP2 DUP2 MSTORE PUSH1 0x20 ADD DUP3 DUP1 SLOAD PUSH2 0x5F5 SWAP1 PUSH2 0x25F5 JUMP JUMPDEST DUP1 ISZERO PUSH2 0x640 JUMPI DUP1 PUSH1 0x1F LT PUSH2 0x617 JUMPI PUSH2 0x100 DUP1 DUP4 SLOAD DIV MUL DUP4 MSTORE SWAP2 PUSH1 0x20 ADD SWAP2 PUSH2 0x640 JUMP JUMPDEST DUP3 ADD SWAP2 SWAP1 PUSH0 MSTORE PUSH1 0x20 PUSH0 KECCAK256 SWAP1 JUMPDEST DUP2 SLOAD DUP2 MSTORE SWAP1 PUSH1 0x1 ADD SWAP1 PUSH1 0x20 ADD DUP1 DUP4 GT PUSH2 0x623 JUMPI DUP3 SWAP1 SUB PUSH1 0x1F AND DUP3 ADD SWAP2 JUMPDEST POP POP POP POP POP SWAP1 POP SWAP1 JUMP JUMPDEST PUSH0 DUP1 SHL PUSH2 0x656 DUP2 PUSH2 0x1360 JUMP JUMPDEST PUSH2 0x65E PUSH2 0x1374 JUMP JUMPDEST POP JUMP JUMPDEST PUSH32 0x4F50455241544F52000000000000000000000000000000000000000000000000 PUSH2 0x68B DUP2 PUSH2 0x1360 JUMP JUMPDEST PUSH2 0x694 DUP3 PUSH2 0x1380 JUMP JUMPDEST POP POP JUMP JUMPDEST PUSH0 PUSH2 0x6A1 PUSH2 0x1339 JUMP JUMPDEST PUSH1 0x1 ADD PUSH0 DUP4 PUSH20 0xFFFFFFFFFFFFFFFFFFFFFFFFFFFFFFFFFFFFFFFF AND PUSH20 0xFFFFFFFFFFFFFFFFFFFFFFFFFFFFFFFFFFFFFFFF AND DUP2 MSTORE PUSH1 0x20 ADD SWAP1 DUP2 MSTORE PUSH1 0x20 ADD PUSH0 KECCAK256 PUSH0 SWAP1 SLOAD SWAP1 PUSH2 0x100 EXP SWAP1 DIV PUSH1 0xFF AND SWAP1 POP SWAP2 SWAP1 POP JUMP JUMPDEST PUSH32 0x4F50455241544F52000000000000000000000000000000000000000000000000 PUSH2 0x71D DUP2 PUSH2 0x1360 JUMP JUMPDEST PUSH0 PUSH2 0x726 PUSH2 0x1339 JUMP JUMPDEST SWAP1 POP PUSH0 JUMPDEST DUP5 DUP5 SWAP1 POP DUP2 LT ISZERO PUSH2 0x81E JUMPI PUSH1 0x1 DUP3 PUSH1 0x1 ADD PUSH0 DUP8 DUP8 DUP6 DUP2 DUP2 LT PUSH2 0x74F JUMPI PUSH2 0x74E PUSH2 0x2625 JUMP JUMPDEST JUMPDEST SWAP1 POP PUSH1 0x20 MUL ADD PUSH1 0x20 DUP2 ADD SWAP1 PUSH2 0x764 SWAP2 SWAP1 PUSH2 0x2285 JUMP JUMPDEST PUSH20 0xFFFFFFFFFFFFFFFFFFFFFFFFFFFFFFFFFFFFFFFF AND PUSH20 0xFFFFFFFFFFFFFFFFFFFFFFFFFFFFFFFFFFFFFFFF AND DUP2 MSTORE PUSH1 0x20 ADD SWAP1 DUP2 MSTORE PUSH1 0x20 ADD PUSH0 KECCAK256 PUSH0 PUSH2 0x100 EXP DUP2 SLOAD DUP2 PUSH1 0xFF MUL NOT AND SWAP1 DUP4 ISZERO ISZERO MUL OR SWAP1 SSTORE POP PUSH32 0xE195C9FE4A65C54EA36D99055C62D29B7EB7AE93C2302230768051410763AEEA DUP6 DUP6 DUP4 DUP2 DUP2 LT PUSH2 0x7E7 JUMPI PUSH2 0x7E6 PUSH2 0x2625 JUMP JUMPDEST JUMPDEST SWAP1 POP PUSH1 0x20 MUL ADD PUSH1 0x20 DUP2 ADD SWAP1 PUSH2 0x7FC SWAP2 SWAP1 PUSH2 0x2285 JUMP JUMPDEST PUSH1 0x40 MLOAD PUSH2 0x809 SWAP2 SWAP1 PUSH2 0x24F8 JUMP JUMPDEST PUSH1 0x40 MLOAD DUP1 SWAP2 SUB SWAP1 LOG1 DUP1 DUP1 PUSH1 0x1 ADD SWAP2 POP POP PUSH2 0x72A JUMP JUMPDEST POP POP POP POP POP JUMP JUMPDEST PUSH0 DUP1 PUSH2 0x82F PUSH2 0x1462 JUMP JUMPDEST SWAP1 POP DUP1 PUSH0 ADD PUSH0 DUP5 DUP2 MSTORE PUSH1 0x20 ADD SWAP1 DUP2 MSTORE PUSH1 0x20 ADD PUSH0 KECCAK256 PUSH1 0x1 ADD SLOAD SWAP2 POP POP SWAP2 SWAP1 POP JUMP JUMPDEST PUSH0 DUP1 SHL DUP3 SUB PUSH2 0x88A JUMPI PUSH1 0x40 MLOAD PUSH32 0x3FC3C27A00000000000000000000000000000000000000000000000000000000 DUP2 MSTORE PUSH1 0x4 ADD PUSH1 0x40 MLOAD DUP1 SWAP2 SUB SWAP1 REVERT JUMPDEST PUSH2 0x894 DUP3 DUP3 PUSH2 0x1489 JUMP JUMPDEST POP POP JUMP JUMPDEST PUSH0 PUSH2 0x8A1 PUSH2 0x14AB JUMP JUMPDEST SWAP1 POP PUSH0 DUP1 SHL DUP4 EQ DUP1 ISZERO PUSH2 0x8E6 JUMPI POP PUSH2 0x8B7 PUSH2 0xA19 JUMP JUMPDEST PUSH20 0xFFFFFFFFFFFFFFFFFFFFFFFFFFFFFFFFFFFFFFFF AND DUP3 PUSH20 0xFFFFFFFFFFFFFFFFFFFFFFFFFFFFFFFFFFFFFFFF AND EQ JUMPDEST ISZERO PUSH2 0x9A8 JUMPI PUSH0 DUP1 PUSH2 0x8F5 PUSH2 0xCFE JUMP JUMPDEST SWAP2 POP SWAP2 POP PUSH0 PUSH20 0xFFFFFFFFFFFFFFFFFFFFFFFFFFFFFFFFFFFFFFFF AND DUP3 PUSH20 0xFFFFFFFFFFFFFFFFFFFFFFFFFFFFFFFFFFFFFFFF AND EQ ISZERO DUP1 PUSH2 0x93A JUMPI POP PUSH2 0x938 DUP2 PUSH2 0x14D2 JUMP JUMPDEST ISZERO JUMPDEST DUP1 PUSH2 0x94B JUMPI POP PUSH2 0x949 DUP2 PUSH2 0x14E6 JUMP JUMPDEST ISZERO JUMPDEST ISZERO PUSH2 0x98D JUMPI DUP1 PUSH1 0x40 MLOAD PUSH32 0x19CA5EBB00000000000000000000000000000000000000000000000000000000 DUP2 MSTORE PUSH1 0x4 ADD PUSH2 0x984 SWAP2 SWAP1 PUSH2 0x2102 JUMP JUMPDEST PUSH1 0x40 MLOAD DUP1 SWAP2 SUB SWAP1 REVERT JUMPDEST DUP3 PUSH0 ADD PUSH1 0x14 PUSH2 0x100 EXP DUP2 SLOAD SWAP1 PUSH6 0xFFFFFFFFFFFF MUL NOT AND SWAP1 SSTORE POP POP JUMPDEST PUSH2 0x9B2 DUP4 DUP4 PUSH2 0x14F9 JUMP JUMPDEST POP POP POP JUMP JUMPDEST PUSH0 DUP1 SHL PUSH2 0x9C3 DUP2 PUSH2 0x1360 JUMP JUMPDEST PUSH2 0x9CC DUP3 PUSH2 0x1574 JUMP JUMPDEST POP POP JUMP JUMPDEST PUSH0 PUSH2 0x9D9 PUSH2 0x1339 JUMP JUMPDEST PUSH0 ADD PUSH0 SWAP1 SLOAD SWAP1 PUSH2 0x100 EXP SWAP1 DIV PUSH20 0xFFFFFFFFFFFFFFFFFFFFFFFFFFFFFFFFFFFFFFFF AND SWAP1 POP SWAP1 JUMP JUMPDEST PUSH0 DUP1 SHL PUSH2 0xA0C DUP2 PUSH2 0x1360 JUMP JUMPDEST PUSH2 0xA15 DUP3 PUSH2 0x15EE JUMP JUMPDEST POP POP JUMP JUMPDEST PUSH0 DUP1 PUSH2 0xA23 PUSH2 0x14AB JUMP JUMPDEST SWAP1 POP DUP1 PUSH1 0x1 ADD PUSH0 SWAP1 SLOAD SWAP1 PUSH2 0x100 EXP SWAP1 DIV PUSH20 0xFFFFFFFFFFFFFFFFFFFFFFFFFFFFFFFFFFFFFFFF AND SWAP2 POP POP SWAP1 JUMP JUMPDEST PUSH0 PUSH2 0xA58 PUSH2 0xA19 JUMP JUMPDEST SWAP1 POP SWAP1 JUMP JUMPDEST PUSH0 PUSH2 0xA66 PUSH2 0x1339 JUMP JUMPDEST PUSH0 ADD PUSH0 SWAP1 SLOAD SWAP1 PUSH2 0x100 EXP SWAP1 DIV PUSH20 0xFFFFFFFFFFFFFFFFFFFFFFFFFFFFFFFFFFFFFFFF AND PUSH20 0xFFFFFFFFFFFFFFFFFFFFFFFFFFFFFFFFFFFFFFFF AND PUSH4 0xDF592F7D DUP4 PUSH1 0x40 MLOAD DUP3 PUSH4 0xFFFFFFFF AND PUSH1 0xE0 SHL DUP2 MSTORE PUSH1 0x4 ADD PUSH2 0xAC0 SWAP2 SWAP1 PUSH2 0x24F8 JUMP JUMPDEST PUSH1 0x20 PUSH1 0x40 MLOAD DUP1 DUP4 SUB DUP2 DUP7 GAS STATICCALL ISZERO DUP1 ISZERO PUSH2 0xADB JUMPI RETURNDATASIZE PUSH0 DUP1 RETURNDATACOPY RETURNDATASIZE PUSH0 REVERT JUMPDEST POP POP POP POP PUSH1 0x40 MLOAD RETURNDATASIZE PUSH1 0x1F NOT PUSH1 0x1F DUP3 ADD AND DUP3 ADD DUP1 PUSH1 0x40 MSTORE POP DUP2 ADD SWAP1 PUSH2 0xAFF SWAP2 SWAP1 PUSH2 0x267C JUMP JUMPDEST SWAP1 POP SWAP2 SWAP1 POP JUMP JUMPDEST PUSH0 DUP1 PUSH2 0xB10 PUSH2 0x1462 JUMP JUMPDEST SWAP1 POP DUP1 PUSH0 ADD PUSH0 DUP6 DUP2 MSTORE PUSH1 0x20 ADD SWAP1 DUP2 MSTORE PUSH1 0x20 ADD PUSH0 KECCAK256 PUSH0 ADD PUSH0 DUP5 PUSH20 0xFFFFFFFFFFFFFFFFFFFFFFFFFFFFFFFFFFFFFFFF AND PUSH20 0xFFFFFFFFFFFFFFFFFFFFFFFFFFFFFFFFFFFFFFFF AND DUP2 MSTORE PUSH1 0x20 ADD SWAP1 DUP2 MSTORE PUSH1 0x20 ADD PUSH0 KECCAK256 PUSH0 SWAP1 SLOAD SWAP1 PUSH2 0x100 EXP SWAP1 DIV PUSH1 0xFF AND SWAP2 POP POP SWAP3 SWAP2 POP POP JUMP JUMPDEST PUSH0 DUP1 PUSH0 PUSH2 0xB82 PUSH2 0x14AB JUMP JUMPDEST SWAP1 POP DUP1 PUSH1 0x1 ADD PUSH1 0x1A SWAP1 SLOAD SWAP1 PUSH2 0x100 EXP SWAP1 DIV PUSH6 0xFFFFFFFFFFFF AND SWAP2 POP PUSH2 0xBA6 DUP3 PUSH2 0x14D2 JUMP JUMPDEST DUP1 ISZERO PUSH2 0xBB8 JUMPI POP PUSH2 0xBB6 DUP3 PUSH2 0x14E6 JUMP JUMPDEST ISZERO JUMPDEST PUSH2 0xBC3 JUMPI PUSH0 DUP1 PUSH2 0xBDC JUMP JUMPDEST DUP1 PUSH1 0x1 ADD PUSH1 0x14 SWAP1 SLOAD SWAP1 PUSH2 0x100 EXP SWAP1 DIV PUSH6 0xFFFFFFFFFFFF AND DUP3 JUMPDEST SWAP3 POP SWAP3 POP POP SWAP1 SWAP2 JUMP JUMPDEST PUSH0 DUP1 SHL DUP2 JUMP JUMPDEST PUSH0 DUP1 PUSH2 0xBF5 PUSH2 0x14AB JUMP JUMPDEST SWAP1 POP PUSH0 DUP2 PUSH1 0x1 ADD PUSH1 0x1A SWAP1 SLOAD SWAP1 PUSH2 0x100 EXP SWAP1 DIV PUSH6 0xFFFFFFFFFFFF AND SWAP1 POP PUSH2 0xC1A DUP2 PUSH2 0x14D2 JUMP JUMPDEST DUP1 ISZERO PUSH2 0xC2B JUMPI POP PUSH2 0xC2A DUP2 PUSH2 0x14E6 JUMP JUMPDEST JUMPDEST PUSH2 0xC4A JUMPI DUP2 PUSH0 ADD PUSH1 0x1A SWAP1 SLOAD SWAP1 PUSH2 0x100 EXP SWAP1 DIV PUSH6 0xFFFFFFFFFFFF AND PUSH2 0xC62 JUMP JUMPDEST DUP2 PUSH1 0x1 ADD PUSH1 0x14 SWAP1 SLOAD SWAP1 PUSH2 0x100 EXP SWAP1 DIV PUSH6 0xFFFFFFFFFFFF AND JUMPDEST SWAP3 POP POP POP SWAP1 JUMP JUMPDEST PUSH0 PUSH2 0xC72 PUSH2 0xCFE JUMP JUMPDEST POP SWAP1 POP DUP1 PUSH20 0xFFFFFFFFFFFFFFFFFFFFFFFFFFFFFFFFFFFFFFFF AND PUSH2 0xC94 PUSH2 0x1654 JUMP JUMPDEST PUSH20 0xFFFFFFFFFFFFFFFFFFFFFFFFFFFFFFFFFFFFFFFF AND EQ PUSH2 0xCF3 JUMPI PUSH2 0xCB7 PUSH2 0x1654 JUMP JUMPDEST PUSH1 0x40 MLOAD PUSH32 0xC22C802200000000000000000000000000000000000000000000000000000000 DUP2 MSTORE PUSH1 0x4 ADD PUSH2 0xCEA SWAP2 SWAP1 PUSH2 0x24F8 JUMP JUMPDEST PUSH1 0x40 MLOAD DUP1 SWAP2 SUB SWAP1 REVERT JUMPDEST PUSH2 0xCFB PUSH2 0x165B JUMP JUMPDEST POP JUMP JUMPDEST PUSH0 DUP1 PUSH0 PUSH2 0xD09 PUSH2 0x14AB JUMP JUMPDEST SWAP1 POP DUP1 PUSH0 ADD PUSH0 SWAP1 SLOAD SWAP1 PUSH2 0x100 EXP SWAP1 DIV PUSH20 0xFFFFFFFFFFFFFFFFFFFFFFFFFFFFFFFFFFFFFFFF AND DUP2 PUSH0 ADD PUSH1 0x14 SWAP1 SLOAD SWAP1 PUSH2 0x100 EXP SWAP1 DIV PUSH6 0xFFFFFFFFFFFF AND SWAP3 POP SWAP3 POP POP SWAP1 SWAP2 JUMP JUMPDEST PUSH0 DUP1 SHL DUP3 SUB PUSH2 0xD88 JUMPI PUSH1 0x40 MLOAD PUSH32 0x3FC3C27A00000000000000000000000000000000000000000000000000000000 DUP2 MSTORE PUSH1 0x4 ADD PUSH1 0x40 MLOAD DUP1 SWAP2 SUB SWAP1 REVERT JUMPDEST PUSH2 0xD92 DUP3 DUP3 PUSH2 0x1734 JUMP JUMPDEST POP POP JUMP JUMPDEST PUSH0 DUP1 SHL PUSH2 0xDA2 DUP2 PUSH2 0x1360 JUMP JUMPDEST PUSH2 0xDAA PUSH2 0x1756 JUMP JUMPDEST POP JUMP JUMPDEST PUSH32 0x4F50455241544F52000000000000000000000000000000000000000000000000 PUSH2 0xDD7 DUP2 PUSH2 0x1360 JUMP JUMPDEST PUSH0 PUSH2 0xDE0 PUSH2 0x1339 JUMP JUMPDEST SWAP1 POP PUSH0 DUP5 DUP5 SWAP1 POP SWAP1 POP PUSH0 JUMPDEST DUP2 DUP2 LT ISZERO PUSH2 0xF4D JUMPI PUSH0 DUP7 DUP7 DUP4 DUP2 DUP2 LT PUSH2 0xE07 JUMPI PUSH2 0xE06 PUSH2 0x2625 JUMP JUMPDEST JUMPDEST SWAP1 POP PUSH1 0x20 MUL ADD PUSH1 0x20 DUP2 ADD SWAP1 PUSH2 0xE1C SWAP2 SWAP1 PUSH2 0x2285 JUMP JUMPDEST SWAP1 POP PUSH1 0x1 ISZERO ISZERO DUP5 PUSH1 0x1 ADD PUSH0 DUP4 PUSH20 0xFFFFFFFFFFFFFFFFFFFFFFFFFFFFFFFFFFFFFFFF AND PUSH20 0xFFFFFFFFFFFFFFFFFFFFFFFFFFFFFFFFFFFFFFFF AND DUP2 MSTORE PUSH1 0x20 ADD SWAP1 DUP2 MSTORE PUSH1 0x20 ADD PUSH0 KECCAK256 PUSH0 SWAP1 SLOAD SWAP1 PUSH2 0x100 EXP SWAP1 DIV PUSH1 0xFF AND ISZERO ISZERO EQ PUSH2 0xEB2 JUMPI DUP1 PUSH1 0x40 MLOAD PUSH32 0xB895965C00000000000000000000000000000000000000000000000000000000 DUP2 MSTORE PUSH1 0x4 ADD PUSH2 0xEA9 SWAP2 SWAP1 PUSH2 0x24F8 JUMP JUMPDEST PUSH1 0x40 MLOAD DUP1 SWAP2 SUB SWAP1 REVERT JUMPDEST PUSH0 DUP5 PUSH1 0x1 ADD PUSH0 DUP4 PUSH20 0xFFFFFFFFFFFFFFFFFFFFFFFFFFFFFFFFFFFFFFFF AND PUSH20 0xFFFFFFFFFFFFFFFFFFFFFFFFFFFFFFFFFFFFFFFF AND DUP2 MSTORE PUSH1 0x20 ADD SWAP1 DUP2 MSTORE PUSH1 0x20 ADD PUSH0 KECCAK256 PUSH0 PUSH2 0x100 EXP DUP2 SLOAD DUP2 PUSH1 0xFF MUL NOT AND SWAP1 DUP4 ISZERO ISZERO MUL OR SWAP1 SSTORE POP PUSH32 0xCDABB021E917F9D861CB523BBCE1B91834FDD7E51A00CC016B762F94A322017A DUP2 PUSH1 0x40 MLOAD PUSH2 0xF37 SWAP2 SWAP1 PUSH2 0x24F8 JUMP JUMPDEST PUSH1 0x40 MLOAD DUP1 SWAP2 SUB SWAP1 LOG1 POP DUP1 DUP1 PUSH1 0x1 ADD SWAP2 POP POP PUSH2 0xDEB JUMP JUMPDEST POP POP POP POP POP POP JUMP JUMPDEST PUSH32 0x0 PUSH20 0xFFFFFFFFFFFFFFFFFFFFFFFFFFFFFFFFFFFFFFFF AND ADDRESS PUSH20 0xFFFFFFFFFFFFFFFFFFFFFFFFFFFFFFFFFFFFFFFF AND SUB PUSH2 0xFDA JUMPI PUSH1 0x40 MLOAD PUSH32 0x4F0898D200000000000000000000000000000000000000000000000000000000 DUP2 MSTORE PUSH1 0x4 ADD PUSH1 0x40 MLOAD DUP1 SWAP2 SUB SWAP1 REVERT JUMPDEST PUSH0 PUSH2 0xFE3 PUSH2 0x1762 JUMP JUMPDEST SWAP1 POP PUSH0 DUP2 PUSH0 ADD PUSH1 0x8 SWAP1 SLOAD SWAP1 PUSH2 0x100 EXP SWAP1 DIV PUSH1 0xFF AND ISZERO SWAP1 POP PUSH0 DUP3 PUSH0 ADD PUSH0 SWAP1 SLOAD SWAP1 PUSH2 0x100 EXP SWAP1 DIV PUSH8 0xFFFFFFFFFFFFFFFF AND SWAP1 POP PUSH0 DUP1 DUP3 PUSH8 0xFFFFFFFFFFFFFFFF AND EQ DUP1 ISZERO PUSH2 0x102B JUMPI POP DUP3 JUMPDEST SWAP1 POP PUSH0 PUSH1 0x1 DUP4 PUSH8 0xFFFFFFFFFFFFFFFF AND EQ DUP1 ISZERO PUSH2 0x105E JUMPI POP PUSH0 ADDRESS PUSH20 0xFFFFFFFFFFFFFFFFFFFFFFFFFFFFFFFFFFFFFFFF AND EXTCODESIZE EQ JUMPDEST SWAP1 POP DUP2 ISZERO DUP1 ISZERO PUSH2 0x106C JUMPI POP DUP1 ISZERO JUMPDEST ISZERO PUSH2 0x10A3 JUMPI PUSH1 0x40 MLOAD PUSH32 0xF92EE8A900000000000000000000000000000000000000000000000000000000 DUP2 MSTORE PUSH1 0x4 ADD PUSH1 0x40 MLOAD DUP1 SWAP2 SUB SWAP1 REVERT JUMPDEST PUSH1 0x1 DUP6 PUSH0 ADD PUSH0 PUSH2 0x100 EXP DUP2 SLOAD DUP2 PUSH8 0xFFFFFFFFFFFFFFFF MUL NOT AND SWAP1 DUP4 PUSH8 0xFFFFFFFFFFFFFFFF AND MUL OR SWAP1 SSTORE POP DUP4 ISZERO PUSH2 0x10F0 JUMPI PUSH1 0x1 DUP6 PUSH0 ADD PUSH1 0x8 PUSH2 0x100 EXP DUP2 SLOAD DUP2 PUSH1 0xFF MUL NOT AND SWAP1 DUP4 ISZERO ISZERO MUL OR SWAP1 SSTORE POP JUMPDEST PUSH2 0x111E DUP7 PUSH1 0x80 ADD PUSH1 0x20 DUP2 ADD SWAP1 PUSH2 0x1106 SWAP2 SWAP1 PUSH2 0x24BE JUMP JUMPDEST DUP8 PUSH1 0x40 ADD PUSH1 0x20 DUP2 ADD SWAP1 PUSH2 0x1119 SWAP2 SWAP1 PUSH2 0x2285 JUMP JUMPDEST PUSH2 0x1789 JUMP JUMPDEST PUSH2 0x1130 DUP7 PUSH2 0x112B SWAP1 PUSH2 0x287C JUMP JUMPDEST PUSH2 0x179F JUMP JUMPDEST DUP4 ISZERO PUSH2 0x118A JUMPI PUSH0 DUP6 PUSH0 ADD PUSH1 0x8 PUSH2 0x100 EXP DUP2 SLOAD DUP2 PUSH1 0xFF MUL NOT AND SWAP1 DUP4 ISZERO ISZERO MUL OR SWAP1 SSTORE POP PUSH32 0xC7F505B2F371AE2175EE4913F4499E1F2633A7B5936321EED1CDAEB6115181D2 PUSH1 0x1 PUSH1 0x40 MLOAD PUSH2 0x1181 SWAP2 SWAP1 PUSH2 0x28DA JUMP JUMPDEST PUSH1 0x40 MLOAD DUP1 SWAP2 SUB SWAP1 LOG1 JUMPDEST POP POP POP POP POP POP JUMP JUMPDEST PUSH32 0x4F50455241544F52000000000000000000000000000000000000000000000000 DUP2 JUMP JUMPDEST PUSH0 DUP1 PUSH2 0x11C0 PUSH2 0x1339 JUMP JUMPDEST SWAP1 POP DUP1 PUSH0 ADD PUSH0 SWAP1 SLOAD SWAP1 PUSH2 0x100 EXP SWAP1 DIV PUSH20 0xFFFFFFFFFFFFFFFFFFFFFFFFFFFFFFFFFFFFFFFF AND PUSH20 0xFFFFFFFFFFFFFFFFFFFFFFFFFFFFFFFFFFFFFFFF AND PUSH4 0xDF592F7D DUP5 PUSH1 0x40 MLOAD DUP3 PUSH4 0xFFFFFFFF AND PUSH1 0xE0 SHL DUP2 MSTORE PUSH1 0x4 ADD PUSH2 0x121D SWAP2 SWAP1 PUSH2 0x24F8 JUMP JUMPDEST PUSH1 0x20 PUSH1 0x40 MLOAD DUP1 DUP4 SUB DUP2 DUP7 GAS STATICCALL ISZERO DUP1 ISZERO PUSH2 0x1238 JUMPI RETURNDATASIZE PUSH0 DUP1 RETURNDATACOPY RETURNDATASIZE PUSH0 REVERT JUMPDEST POP POP POP POP PUSH1 0x40 MLOAD RETURNDATASIZE PUSH1 0x1F NOT PUSH1 0x1F DUP3 ADD AND DUP3 ADD DUP1 PUSH1 0x40 MSTORE POP DUP2 ADD SWAP1 PUSH2 0x125C SWAP2 SWAP1 PUSH2 0x267C JUMP JUMPDEST ISZERO PUSH2 0x126B JUMPI PUSH1 0x1 SWAP2 POP POP PUSH2 0x12BB JUMP JUMPDEST DUP1 PUSH1 0x1 ADD PUSH0 DUP5 PUSH20 0xFFFFFFFFFFFFFFFFFFFFFFFFFFFFFFFFFFFFFFFF AND PUSH20 0xFFFFFFFFFFFFFFFFFFFFFFFFFFFFFFFFFFFFFFFF AND DUP2 MSTORE PUSH1 0x20 ADD SWAP1 DUP2 MSTORE PUSH1 0x20 ADD PUSH0 KECCAK256 PUSH0 SWAP1 SLOAD SWAP1 PUSH2 0x100 EXP SWAP1 DIV PUSH1 0xFF AND SWAP2 POP POP JUMPDEST SWAP2 SWAP1 POP JUMP JUMPDEST PUSH0 PUSH32 0x7965DB0B00000000000000000000000000000000000000000000000000000000 PUSH28 0xFFFFFFFFFFFFFFFFFFFFFFFFFFFFFFFFFFFFFFFFFFFFFFFFFFFFFFFF NOT AND DUP3 PUSH28 0xFFFFFFFFFFFFFFFFFFFFFFFFFFFFFFFFFFFFFFFFFFFFFFFFFFFFFFFF NOT AND EQ DUP1 PUSH2 0x1332 JUMPI POP PUSH2 0x1331 DUP3 PUSH2 0x17EA JUMP JUMPDEST JUMPDEST SWAP1 POP SWAP2 SWAP1 POP JUMP JUMPDEST PUSH0 PUSH32 0x95688183686C3EC8EFADB488883AC1D27F5A2B91D991AB031B02FD896646BD00 SWAP1 POP SWAP1 JUMP JUMPDEST PUSH2 0x1371 DUP2 PUSH2 0x136C PUSH2 0x1654 JUMP JUMPDEST PUSH2 0x1853 JUMP JUMPDEST POP JUMP JUMPDEST PUSH2 0x137E PUSH0 DUP1 PUSH2 0x18A4 JUMP JUMPDEST JUMP JUMPDEST PUSH0 PUSH2 0x1389 PUSH2 0x1339 JUMP JUMPDEST SWAP1 POP PUSH0 DUP3 PUSH20 0xFFFFFFFFFFFFFFFFFFFFFFFFFFFFFFFFFFFFFFFF AND EXTCODESIZE SUB PUSH2 0x13E6 JUMPI DUP2 PUSH1 0x40 MLOAD PUSH32 0x247E970100000000000000000000000000000000000000000000000000000000 DUP2 MSTORE PUSH1 0x4 ADD PUSH2 0x13DD SWAP2 SWAP1 PUSH2 0x24F8 JUMP JUMPDEST PUSH1 0x40 MLOAD DUP1 SWAP2 SUB SWAP1 REVERT JUMPDEST DUP2 DUP2 PUSH0 ADD PUSH0 PUSH2 0x100 EXP DUP2 SLOAD DUP2 PUSH20 0xFFFFFFFFFFFFFFFFFFFFFFFFFFFFFFFFFFFFFFFF MUL NOT AND SWAP1 DUP4 PUSH20 0xFFFFFFFFFFFFFFFFFFFFFFFFFFFFFFFFFFFFFFFF AND MUL OR SWAP1 SSTORE POP PUSH32 0xE9879A7C24D6235BC5AA529B1D5484FE820B8E4AE0E4D26DA7825EA718E1B0DC DUP3 PUSH1 0x40 MLOAD PUSH2 0x1456 SWAP2 SWAP1 PUSH2 0x247B JUMP JUMPDEST PUSH1 0x40 MLOAD DUP1 SWAP2 SUB SWAP1 LOG1 POP POP JUMP JUMPDEST PUSH0 PUSH32 0x2DD7BC7DEC4DCEEDDA775E58DD541E08A116C6C53815C0BD028192F7B626800 SWAP1 POP SWAP1 JUMP JUMPDEST PUSH2 0x1492 DUP3 PUSH2 0x825 JUMP JUMPDEST PUSH2 0x149B DUP2 PUSH2 0x1360 JUMP JUMPDEST PUSH2 0x14A5 DUP4 DUP4 PUSH2 0x19A8 JUMP JUMPDEST POP POP POP POP JUMP JUMPDEST PUSH0 PUSH32 0xEEF3DAC4538C82C8ACE4063AB0ACD2D15CDB5883AA1DFF7C2673ABB3D8698400 SWAP1 POP SWAP1 JUMP JUMPDEST PUSH0 DUP1 DUP3 PUSH6 0xFFFFFFFFFFFF AND EQ ISZERO SWAP1 POP SWAP2 SWAP1 POP JUMP JUMPDEST PUSH0 TIMESTAMP DUP3 PUSH6 0xFFFFFFFFFFFF AND LT SWAP1 POP SWAP2 SWAP1 POP JUMP JUMPDEST PUSH2 0x1501 PUSH2 0x1654 JUMP JUMPDEST PUSH20 0xFFFFFFFFFFFFFFFFFFFFFFFFFFFFFFFFFFFFFFFF AND DUP2 PUSH20 0xFFFFFFFFFFFFFFFFFFFFFFFFFFFFFFFFFFFFFFFF AND EQ PUSH2 0x1565 JUMPI PUSH1 0x40 MLOAD PUSH32 0x6697B23200000000000000000000000000000000000000000000000000000000 DUP2 MSTORE PUSH1 0x4 ADD PUSH1 0x40 MLOAD DUP1 SWAP2 SUB SWAP1 REVERT JUMPDEST PUSH2 0x156F DUP3 DUP3 PUSH2 0x1A7F JUMP JUMPDEST POP POP POP JUMP JUMPDEST PUSH0 PUSH2 0x157D PUSH2 0xBEB JUMP JUMPDEST PUSH2 0x1586 TIMESTAMP PUSH2 0x1B0D JUMP JUMPDEST PUSH2 0x1590 SWAP2 SWAP1 PUSH2 0x2920 JUMP JUMPDEST SWAP1 POP PUSH2 0x159C DUP3 DUP3 PUSH2 0x1B66 JUMP JUMPDEST DUP2 PUSH20 0xFFFFFFFFFFFFFFFFFFFFFFFFFFFFFFFFFFFFFFFF AND PUSH32 0x3377DC44241E779DD06AFAB5B788A35CA5F3B778836E2990BDB26A2A4B2E5ED6 DUP3 PUSH1 0x40 MLOAD PUSH2 0x15E2 SWAP2 SWAP1 PUSH2 0x2102 JUMP JUMPDEST PUSH1 0x40 MLOAD DUP1 SWAP2 SUB SWAP1 LOG2 POP POP JUMP JUMPDEST PUSH0 PUSH2 0x15F8 DUP3 PUSH2 0x1C25 JUMP JUMPDEST PUSH2 0x1601 TIMESTAMP PUSH2 0x1B0D JUMP JUMPDEST PUSH2 0x160B SWAP2 SWAP1 PUSH2 0x2920 JUMP JUMPDEST SWAP1 POP PUSH2 0x1617 DUP3 DUP3 PUSH2 0x18A4 JUMP JUMPDEST PUSH32 0xF1038C18CF84A56E432FDBFAF746924B7EA511DFE03A6506A0CEBA4888788D9B DUP3 DUP3 PUSH1 0x40 MLOAD PUSH2 0x1648 SWAP3 SWAP2 SWAP1 PUSH2 0x2511 JUMP JUMPDEST PUSH1 0x40 MLOAD DUP1 SWAP2 SUB SWAP1 LOG1 POP POP JUMP JUMPDEST PUSH0 CALLER SWAP1 POP SWAP1 JUMP JUMPDEST PUSH0 PUSH2 0x1664 PUSH2 0x14AB JUMP JUMPDEST SWAP1 POP PUSH0 DUP1 PUSH2 0x1670 PUSH2 0xCFE JUMP JUMPDEST SWAP2 POP SWAP2 POP PUSH2 0x167D DUP2 PUSH2 0x14D2 JUMP JUMPDEST ISZERO DUP1 PUSH2 0x168F JUMPI POP PUSH2 0x168D DUP2 PUSH2 0x14E6 JUMP JUMPDEST ISZERO JUMPDEST ISZERO PUSH2 0x16D1 JUMPI DUP1 PUSH1 0x40 MLOAD PUSH32 0x19CA5EBB00000000000000000000000000000000000000000000000000000000 DUP2 MSTORE PUSH1 0x4 ADD PUSH2 0x16C8 SWAP2 SWAP1 PUSH2 0x2102 JUMP JUMPDEST PUSH1 0x40 MLOAD DUP1 SWAP2 SUB SWAP1 REVERT JUMPDEST PUSH2 0x16E4 PUSH0 DUP1 SHL PUSH2 0x16DF PUSH2 0xA19 JUMP JUMPDEST PUSH2 0x1A7F JUMP JUMPDEST POP PUSH2 0x16F1 PUSH0 DUP1 SHL DUP4 PUSH2 0x19A8 JUMP JUMPDEST POP DUP3 PUSH0 ADD PUSH0 PUSH2 0x100 EXP DUP2 SLOAD SWAP1 PUSH20 0xFFFFFFFFFFFFFFFFFFFFFFFFFFFFFFFFFFFFFFFF MUL NOT AND SWAP1 SSTORE DUP3 PUSH0 ADD PUSH1 0x14 PUSH2 0x100 EXP DUP2 SLOAD SWAP1 PUSH6 0xFFFFFFFFFFFF MUL NOT AND SWAP1 SSTORE POP POP POP JUMP JUMPDEST PUSH2 0x173D DUP3 PUSH2 0x825 JUMP JUMPDEST PUSH2 0x1746 DUP2 PUSH2 0x1360 JUMP JUMPDEST PUSH2 0x1750 DUP4 DUP4 PUSH2 0x1A7F JUMP JUMPDEST POP POP POP POP JUMP JUMPDEST PUSH2 0x1760 PUSH0 DUP1 PUSH2 0x1B66 JUMP JUMPDEST JUMP JUMPDEST PUSH0 PUSH32 0xF0C57E16840DF040F15088DC2F81FE391C3923BEC73E23A9662EFC9C229C6A00 SWAP1 POP SWAP1 JUMP JUMPDEST PUSH2 0x1791 PUSH2 0x1C83 JUMP JUMPDEST PUSH2 0x179B DUP3 DUP3 PUSH2 0x1CC3 JUMP JUMPDEST POP POP JUMP JUMPDEST PUSH2 0x17AC DUP2 PUSH1 0x20 ADD MLOAD PUSH2 0x1380 JUMP JUMPDEST PUSH2 0x17B8 DUP2 PUSH0 ADD MLOAD PUSH2 0x1D7E JUMP JUMPDEST PUSH2 0x17E6 PUSH32 0x4F50455241544F52000000000000000000000000000000000000000000000000 DUP3 PUSH1 0x60 ADD MLOAD PUSH2 0x19A8 JUMP JUMPDEST POP POP JUMP JUMPDEST PUSH0 PUSH32 0x1FFC9A700000000000000000000000000000000000000000000000000000000 PUSH28 0xFFFFFFFFFFFFFFFFFFFFFFFFFFFFFFFFFFFFFFFFFFFFFFFFFFFFFFFF NOT AND DUP3 PUSH28 0xFFFFFFFFFFFFFFFFFFFFFFFFFFFFFFFFFFFFFFFFFFFFFFFFFFFFFFFF NOT AND EQ SWAP1 POP SWAP2 SWAP1 POP JUMP JUMPDEST PUSH2 0x185D DUP3 DUP3 PUSH2 0xB06 JUMP JUMPDEST PUSH2 0x18A0 JUMPI DUP1 DUP3 PUSH1 0x40 MLOAD PUSH32 0xE2517D3F00000000000000000000000000000000000000000000000000000000 DUP2 MSTORE PUSH1 0x4 ADD PUSH2 0x1897 SWAP3 SWAP2 SWAP1 PUSH2 0x2959 JUMP JUMPDEST PUSH1 0x40 MLOAD DUP1 SWAP2 SUB SWAP1 REVERT JUMPDEST POP POP JUMP JUMPDEST PUSH0 PUSH2 0x18AD PUSH2 0x14AB JUMP JUMPDEST SWAP1 POP PUSH0 DUP2 PUSH1 0x1 ADD PUSH1 0x1A SWAP1 SLOAD SWAP1 PUSH2 0x100 EXP SWAP1 DIV PUSH6 0xFFFFFFFFFFFF AND SWAP1 POP PUSH2 0x18D2 DUP2 PUSH2 0x14D2 JUMP JUMPDEST ISZERO PUSH2 0x1954 JUMPI PUSH2 0x18E0 DUP2 PUSH2 0x14E6 JUMP JUMPDEST ISZERO PUSH2 0x1926 JUMPI DUP2 PUSH1 0x1 ADD PUSH1 0x14 SWAP1 SLOAD SWAP1 PUSH2 0x100 EXP SWAP1 DIV PUSH6 0xFFFFFFFFFFFF AND DUP3 PUSH0 ADD PUSH1 0x1A PUSH2 0x100 EXP DUP2 SLOAD DUP2 PUSH6 0xFFFFFFFFFFFF MUL NOT AND SWAP1 DUP4 PUSH6 0xFFFFFFFFFFFF AND MUL OR SWAP1 SSTORE POP PUSH2 0x1953 JUMP JUMPDEST PUSH32 0x2B1FA2EDAFE6F7B9E97C1A9E0C3660E645BEB2DCAA2D45BDBF9BEAF5472E1EC5 PUSH1 0x40 MLOAD PUSH1 0x40 MLOAD DUP1 SWAP2 SUB SWAP1 LOG1 JUMPDEST JUMPDEST DUP4 DUP3 PUSH1 0x1 ADD PUSH1 0x14 PUSH2 0x100 EXP DUP2 SLOAD DUP2 PUSH6 0xFFFFFFFFFFFF MUL NOT AND SWAP1 DUP4 PUSH6 0xFFFFFFFFFFFF AND MUL OR SWAP1 SSTORE POP DUP3 DUP3 PUSH1 0x1 ADD PUSH1 0x1A PUSH2 0x100 EXP DUP2 SLOAD DUP2 PUSH6 0xFFFFFFFFFFFF MUL NOT AND SWAP1 DUP4 PUSH6 0xFFFFFFFFFFFF AND MUL OR SWAP1 SSTORE POP POP POP POP POP JUMP JUMPDEST PUSH0 DUP1 PUSH2 0x19B2 PUSH2 0x14AB JUMP JUMPDEST SWAP1 POP PUSH0 DUP1 SHL DUP5 SUB PUSH2 0x1A6C JUMPI PUSH0 PUSH20 0xFFFFFFFFFFFFFFFFFFFFFFFFFFFFFFFFFFFFFFFF AND PUSH2 0x19DC PUSH2 0xA19 JUMP JUMPDEST PUSH20 0xFFFFFFFFFFFFFFFFFFFFFFFFFFFFFFFFFFFFFFFF AND EQ PUSH2 0x1A29 JUMPI PUSH1 0x40 MLOAD PUSH32 0x3FC3C27A00000000000000000000000000000000000000000000000000000000 DUP2 MSTORE PUSH1 0x4 ADD PUSH1 0x40 MLOAD DUP1 SWAP2 SUB SWAP1 REVERT JUMPDEST DUP3 DUP2 PUSH1 0x1 ADD PUSH0 PUSH2 0x100 EXP DUP2 SLOAD DUP2 PUSH20 0xFFFFFFFFFFFFFFFFFFFFFFFFFFFFFFFFFFFFFFFF MUL NOT AND SWAP1 DUP4 PUSH20 0xFFFFFFFFFFFFFFFFFFFFFFFFFFFFFFFFFFFFFFFF AND MUL OR SWAP1 SSTORE POP JUMPDEST PUSH2 0x1A76 DUP5 DUP5 PUSH2 0x1DD6 JUMP JUMPDEST SWAP2 POP POP SWAP3 SWAP2 POP POP JUMP JUMPDEST PUSH0 DUP1 PUSH2 0x1A89 PUSH2 0x14AB JUMP JUMPDEST SWAP1 POP PUSH0 DUP1 SHL DUP5 EQ DUP1 ISZERO PUSH2 0x1ACE JUMPI POP PUSH2 0x1A9F PUSH2 0xA19 JUMP JUMPDEST PUSH20 0xFFFFFFFFFFFFFFFFFFFFFFFFFFFFFFFFFFFFFFFF AND DUP4 PUSH20 0xFFFFFFFFFFFFFFFFFFFFFFFFFFFFFFFFFFFFFFFF AND EQ JUMPDEST ISZERO PUSH2 0x1AFA JUMPI DUP1 PUSH1 0x1 ADD PUSH0 PUSH2 0x100 EXP DUP2 SLOAD SWAP1 PUSH20 0xFFFFFFFFFFFFFFFFFFFFFFFFFFFFFFFFFFFFFFFF MUL NOT AND SWAP1 SSTORE JUMPDEST PUSH2 0x1B04 DUP5 DUP5 PUSH2 0x1ECE JUMP JUMPDEST SWAP2 POP POP SWAP3 SWAP2 POP POP JUMP JUMPDEST PUSH0 PUSH6 0xFFFFFFFFFFFF DUP1 AND DUP3 GT ISZERO PUSH2 0x1B5E JUMPI PUSH1 0x30 DUP3 PUSH1 0x40 MLOAD PUSH32 0x6DFCC65000000000000000000000000000000000000000000000000000000000 DUP2 MSTORE PUSH1 0x4 ADD PUSH2 0x1B55 SWAP3 SWAP2 SWAP1 PUSH2 0x29DD JUMP JUMPDEST PUSH1 0x40 MLOAD DUP1 SWAP2 SUB SWAP1 REVERT JUMPDEST DUP2 SWAP1 POP SWAP2 SWAP1 POP JUMP JUMPDEST PUSH0 PUSH2 0x1B6F PUSH2 0x14AB JUMP JUMPDEST SWAP1 POP PUSH0 PUSH2 0x1B7A PUSH2 0xCFE JUMP JUMPDEST SWAP2 POP POP DUP4 DUP3 PUSH0 ADD PUSH0 PUSH2 0x100 EXP DUP2 SLOAD DUP2 PUSH20 0xFFFFFFFFFFFFFFFFFFFFFFFFFFFFFFFFFFFFFFFF MUL NOT AND SWAP1 DUP4 PUSH20 0xFFFFFFFFFFFFFFFFFFFFFFFFFFFFFFFFFFFFFFFF AND MUL OR SWAP1 SSTORE POP DUP3 DUP3 PUSH0 ADD PUSH1 0x14 PUSH2 0x100 EXP DUP2 SLOAD DUP2 PUSH6 0xFFFFFFFFFFFF MUL NOT AND SWAP1 DUP4 PUSH6 0xFFFFFFFFFFFF AND MUL OR SWAP1 SSTORE POP PUSH2 0x1BED DUP2 PUSH2 0x14D2 JUMP JUMPDEST ISZERO PUSH2 0x1C1F JUMPI PUSH32 0x8886EBFC4259ABDBC16601DD8FB5678E54878F47B3C34836CFC51154A9605109 PUSH1 0x40 MLOAD PUSH1 0x40 MLOAD DUP1 SWAP2 SUB SWAP1 LOG1 JUMPDEST POP POP POP POP JUMP JUMPDEST PUSH0 DUP1 PUSH2 0x1C2F PUSH2 0xBEB JUMP JUMPDEST SWAP1 POP DUP1 PUSH6 0xFFFFFFFFFFFF AND DUP4 PUSH6 0xFFFFFFFFFFFF AND GT PUSH2 0x1C59 JUMPI DUP3 DUP2 PUSH2 0x1C54 SWAP2 SWAP1 PUSH2 0x2A04 JUMP JUMPDEST PUSH2 0x1C7B JUMP JUMPDEST PUSH2 0x1C7A DUP4 PUSH6 0xFFFFFFFFFFFF AND PUSH2 0x1C6D PUSH2 0x5A7 JUMP JUMPDEST PUSH6 0xFFFFFFFFFFFF AND PUSH2 0x1FC6 JUMP JUMPDEST JUMPDEST SWAP2 POP POP SWAP2 SWAP1 POP JUMP JUMPDEST PUSH2 0x1C8B PUSH2 0x1FDC JUMP JUMPDEST PUSH2 0x1CC1 JUMPI PUSH1 0x40 MLOAD PUSH32 0xD7E6BCF800000000000000000000000000000000000000000000000000000000 DUP2 MSTORE PUSH1 0x4 ADD PUSH1 0x40 MLOAD DUP1 SWAP2 SUB SWAP1 REVERT JUMPDEST JUMP JUMPDEST PUSH2 0x1CCB PUSH2 0x1C83 JUMP JUMPDEST PUSH0 PUSH2 0x1CD4 PUSH2 0x14AB JUMP JUMPDEST SWAP1 POP PUSH0 PUSH20 0xFFFFFFFFFFFFFFFFFFFFFFFFFFFFFFFFFFFFFFFF AND DUP3 PUSH20 0xFFFFFFFFFFFFFFFFFFFFFFFFFFFFFFFFFFFFFFFF AND SUB PUSH2 0x1D46 JUMPI PUSH0 PUSH1 0x40 MLOAD PUSH32 0xC22C802200000000000000000000000000000000000000000000000000000000 DUP2 MSTORE PUSH1 0x4 ADD PUSH2 0x1D3D SWAP2 SWAP1 PUSH2 0x24F8 JUMP JUMPDEST PUSH1 0x40 MLOAD DUP1 SWAP2 SUB SWAP1 REVERT JUMPDEST DUP3 DUP2 PUSH0 ADD PUSH1 0x1A PUSH2 0x100 EXP DUP2 SLOAD DUP2 PUSH6 0xFFFFFFFFFFFF MUL NOT AND SWAP1 DUP4 PUSH6 0xFFFFFFFFFFFF AND MUL OR SWAP1 SSTORE POP PUSH2 0x1D78 PUSH0 DUP1 SHL DUP4 PUSH2 0x19A8 JUMP JUMPDEST POP POP POP POP JUMP JUMPDEST PUSH0 PUSH2 0x1D87 PUSH2 0x1339 JUMP JUMPDEST SWAP1 POP DUP2 DUP2 PUSH1 0x2 ADD SWAP1 DUP2 PUSH2 0x1D9A SWAP2 SWAP1 PUSH2 0x2BD1 JUMP JUMPDEST POP PUSH32 0x1099E0381CC51A0E48F876169BDB9DB942EB13641FD572C175C9C457C8861B13 DUP3 PUSH1 0x40 MLOAD PUSH2 0x1DCA SWAP2 SWAP1 PUSH2 0x21A5 JUMP JUMPDEST PUSH1 0x40 MLOAD DUP1 SWAP2 SUB SWAP1 LOG1 POP POP JUMP JUMPDEST PUSH0 DUP1 PUSH2 0x1DE0 PUSH2 0x1462 JUMP JUMPDEST SWAP1 POP PUSH2 0x1DEC DUP5 DUP5 PUSH2 0xB06 JUMP JUMPDEST PUSH2 0x1EC3 JUMPI PUSH1 0x1 DUP2 PUSH0 ADD PUSH0 DUP7 DUP2 MSTORE PUSH1 0x20 ADD SWAP1 DUP2 MSTORE PUSH1 0x20 ADD PUSH0 KECCAK256 PUSH0 ADD PUSH0 DUP6 PUSH20 0xFFFFFFFFFFFFFFFFFFFFFFFFFFFFFFFFFFFFFFFF AND PUSH20 0xFFFFFFFFFFFFFFFFFFFFFFFFFFFFFFFFFFFFFFFF AND DUP2 MSTORE PUSH1 0x20 ADD SWAP1 DUP2 MSTORE PUSH1 0x20 ADD PUSH0 KECCAK256 PUSH0 PUSH2 0x100 EXP DUP2 SLOAD DUP2 PUSH1 0xFF MUL NOT AND SWAP1 DUP4 ISZERO ISZERO MUL OR SWAP1 SSTORE POP PUSH2 0x1E5F PUSH2 0x1654 JUMP JUMPDEST PUSH20 0xFFFFFFFFFFFFFFFFFFFFFFFFFFFFFFFFFFFFFFFF AND DUP4 PUSH20 0xFFFFFFFFFFFFFFFFFFFFFFFFFFFFFFFFFFFFFFFF AND DUP6 PUSH32 0x2F8788117E7EFF1D82E926EC794901D17C78024A50270940304540A733656F0D PUSH1 0x40 MLOAD PUSH1 0x40 MLOAD DUP1 SWAP2 SUB SWAP1 LOG4 PUSH1 0x1 SWAP2 POP POP PUSH2 0x1EC8 JUMP JUMPDEST PUSH0 SWAP2 POP POP JUMPDEST SWAP3 SWAP2 POP POP JUMP JUMPDEST PUSH0 DUP1 PUSH2 0x1ED8 PUSH2 0x1462 JUMP JUMPDEST SWAP1 POP PUSH2 0x1EE4 DUP5 DUP5 PUSH2 0xB06 JUMP JUMPDEST ISZERO PUSH2 0x1FBB JUMPI PUSH0 DUP2 PUSH0 ADD PUSH0 DUP7 DUP2 MSTORE PUSH1 0x20 ADD SWAP1 DUP2 MSTORE PUSH1 0x20 ADD PUSH0 KECCAK256 PUSH0 ADD PUSH0 DUP6 PUSH20 0xFFFFFFFFFFFFFFFFFFFFFFFFFFFFFFFFFFFFFFFF AND PUSH20 0xFFFFFFFFFFFFFFFFFFFFFFFFFFFFFFFFFFFFFFFF AND DUP2 MSTORE PUSH1 0x20 ADD SWAP1 DUP2 MSTORE PUSH1 0x20 ADD PUSH0 KECCAK256 PUSH0 PUSH2 0x100 EXP DUP2 SLOAD DUP2 PUSH1 0xFF MUL NOT AND SWAP1 DUP4 ISZERO ISZERO MUL OR SWAP1 SSTORE POP PUSH2 0x1F57 PUSH2 0x1654 JUMP JUMPDEST PUSH20 0xFFFFFFFFFFFFFFFFFFFFFFFFFFFFFFFFFFFFFFFF AND DUP4 PUSH20 0xFFFFFFFFFFFFFFFFFFFFFFFFFFFFFFFFFFFFFFFF AND DUP6 PUSH32 0xF6391F5C32D9C69D2A47EA670B442974B53935D1EDC7FD64EB21E047A839171B PUSH1 0x40 MLOAD PUSH1 0x40 MLOAD DUP1 SWAP2 SUB SWAP1 LOG4 PUSH1 0x1 SWAP2 POP POP PUSH2 0x1FC0 JUMP JUMPDEST PUSH0 SWAP2 POP POP JUMPDEST SWAP3 SWAP2 POP POP JUMP JUMPDEST PUSH0 PUSH2 0x1FD4 DUP3 DUP5 LT DUP5 DUP5 PUSH2 0x1FFA JUMP JUMPDEST SWAP1 POP SWAP3 SWAP2 POP POP JUMP JUMPDEST PUSH0 PUSH2 0x1FE5 PUSH2 0x1762 JUMP JUMPDEST PUSH0 ADD PUSH1 0x8 SWAP1 SLOAD SWAP1 PUSH2 0x100 EXP SWAP1 DIV PUSH1 0xFF AND SWAP1 POP SWAP1 JUMP JUMPDEST PUSH0 PUSH2 0x2004 DUP5 PUSH2 0x2013 JUMP JUMPDEST DUP3 DUP5 XOR MUL DUP3 XOR SWAP1 POP SWAP4 SWAP3 POP POP POP JUMP JUMPDEST PUSH0 DUP2 ISZERO ISZERO SWAP1 POP SWAP2 SWAP1 POP JUMP JUMPDEST PUSH0 PUSH1 0x40 MLOAD SWAP1 POP SWAP1 JUMP JUMPDEST PUSH0 DUP1 REVERT JUMPDEST PUSH0 DUP1 REVERT JUMPDEST PUSH0 PUSH32 0xFFFFFFFF00000000000000000000000000000000000000000000000000000000 DUP3 AND SWAP1 POP SWAP2 SWAP1 POP JUMP JUMPDEST PUSH2 0x2063 DUP2 PUSH2 0x202F JUMP JUMPDEST DUP2 EQ PUSH2 0x206D JUMPI PUSH0 DUP1 REVERT JUMPDEST POP JUMP JUMPDEST PUSH0 DUP2 CALLDATALOAD SWAP1 POP PUSH2 0x207E DUP2 PUSH2 0x205A JUMP JUMPDEST SWAP3 SWAP2 POP POP JUMP JUMPDEST PUSH0 PUSH1 0x20 DUP3 DUP5 SUB SLT ISZERO PUSH2 0x2099 JUMPI PUSH2 0x2098 PUSH2 0x2027 JUMP JUMPDEST JUMPDEST PUSH0 PUSH2 0x20A6 DUP5 DUP3 DUP6 ADD PUSH2 0x2070 JUMP JUMPDEST SWAP2 POP POP SWAP3 SWAP2 POP POP JUMP JUMPDEST PUSH0 DUP2 ISZERO ISZERO SWAP1 POP SWAP2 SWAP1 POP JUMP JUMPDEST PUSH2 0x20C3 DUP2 PUSH2 0x20AF JUMP JUMPDEST DUP3 MSTORE POP POP JUMP JUMPDEST PUSH0 PUSH1 0x20 DUP3 ADD SWAP1 POP PUSH2 0x20DC PUSH0 DUP4 ADD DUP5 PUSH2 0x20BA JUMP JUMPDEST SWAP3 SWAP2 POP POP JUMP JUMPDEST PUSH0 PUSH6 0xFFFFFFFFFFFF DUP3 AND SWAP1 POP SWAP2 SWAP1 POP JUMP JUMPDEST PUSH2 0x20FC DUP2 PUSH2 0x20E2 JUMP JUMPDEST DUP3 MSTORE POP POP JUMP JUMPDEST PUSH0 PUSH1 0x20 DUP3 ADD SWAP1 POP PUSH2 0x2115 PUSH0 DUP4 ADD DUP5 PUSH2 0x20F3 JUMP JUMPDEST SWAP3 SWAP2 POP POP JUMP JUMPDEST PUSH0 DUP2 MLOAD SWAP1 POP SWAP2 SWAP1 POP JUMP JUMPDEST PUSH0 DUP3 DUP3 MSTORE PUSH1 0x20 DUP3 ADD SWAP1 POP SWAP3 SWAP2 POP POP JUMP JUMPDEST PUSH0 JUMPDEST DUP4 DUP2 LT ISZERO PUSH2 0x2152 JUMPI DUP1 DUP3 ADD MLOAD DUP2 DUP5 ADD MSTORE PUSH1 0x20 DUP2 ADD SWAP1 POP PUSH2 0x2137 JUMP JUMPDEST PUSH0 DUP5 DUP5 ADD MSTORE POP POP POP POP JUMP JUMPDEST PUSH0 PUSH1 0x1F NOT PUSH1 0x1F DUP4 ADD AND SWAP1 POP SWAP2 SWAP1 POP JUMP JUMPDEST PUSH0 PUSH2 0x2177 DUP3 PUSH2 0x211B JUMP JUMPDEST PUSH2 0x2181 DUP2 DUP6 PUSH2 0x2125 JUMP JUMPDEST SWAP4 POP PUSH2 0x2191 DUP2 DUP6 PUSH1 0x20 DUP7 ADD PUSH2 0x2135 JUMP JUMPDEST PUSH2 0x219A DUP2 PUSH2 0x215D JUMP JUMPDEST DUP5 ADD SWAP2 POP POP SWAP3 SWAP2 POP POP JUMP JUMPDEST PUSH0 PUSH1 0x20 DUP3 ADD SWAP1 POP DUP2 DUP2 SUB PUSH0 DUP4 ADD MSTORE PUSH2 0x21BD DUP2 DUP5 PUSH2 0x216D JUMP JUMPDEST SWAP1 POP SWAP3 SWAP2 POP POP JUMP JUMPDEST PUSH0 PUSH20 0xFFFFFFFFFFFFFFFFFFFFFFFFFFFFFFFFFFFFFFFF DUP3 AND SWAP1 POP SWAP2 SWAP1 POP JUMP JUMPDEST PUSH0 PUSH2 0x21EE DUP3 PUSH2 0x21C5 JUMP JUMPDEST SWAP1 POP SWAP2 SWAP1 POP JUMP JUMPDEST PUSH0 PUSH2 0x21FF DUP3 PUSH2 0x21E4 JUMP JUMPDEST SWAP1 POP SWAP2 SWAP1 POP JUMP JUMPDEST PUSH2 0x220F DUP2 PUSH2 0x21F5 JUMP JUMPDEST DUP2 EQ PUSH2 0x2219 JUMPI PUSH0 DUP1 REVERT JUMPDEST POP JUMP JUMPDEST PUSH0 DUP2 CALLDATALOAD SWAP1 POP PUSH2 0x222A DUP2 PUSH2 0x2206 JUMP JUMPDEST SWAP3 SWAP2 POP POP JUMP JUMPDEST PUSH0 PUSH1 0x20 DUP3 DUP5 SUB SLT ISZERO PUSH2 0x2245 JUMPI PUSH2 0x2244 PUSH2 0x2027 JUMP JUMPDEST JUMPDEST PUSH0 PUSH2 0x2252 DUP5 DUP3 DUP6 ADD PUSH2 0x221C JUMP JUMPDEST SWAP2 POP POP SWAP3 SWAP2 POP POP JUMP JUMPDEST PUSH2 0x2264 DUP2 PUSH2 0x21E4 JUMP JUMPDEST DUP2 EQ PUSH2 0x226E JUMPI PUSH0 DUP1 REVERT JUMPDEST POP JUMP JUMPDEST PUSH0 DUP2 CALLDATALOAD SWAP1 POP PUSH2 0x227F DUP2 PUSH2 0x225B JUMP JUMPDEST SWAP3 SWAP2 POP POP JUMP JUMPDEST PUSH0 PUSH1 0x20 DUP3 DUP5 SUB SLT ISZERO PUSH2 0x229A JUMPI PUSH2 0x2299 PUSH2 0x2027 JUMP JUMPDEST JUMPDEST PUSH0 PUSH2 0x22A7 DUP5 DUP3 DUP6 ADD PUSH2 0x2271 JUMP JUMPDEST SWAP2 POP POP SWAP3 SWAP2 POP POP JUMP JUMPDEST PUSH0 DUP1 REVERT JUMPDEST PUSH0 DUP1 REVERT JUMPDEST PUSH0 DUP1 REVERT JUMPDEST PUSH0 DUP1 DUP4 PUSH1 0x1F DUP5 ADD SLT PUSH2 0x22D1 JUMPI PUSH2 0x22D0 PUSH2 0x22B0 JUMP JUMPDEST JUMPDEST DUP3 CALLDATALOAD SWAP1 POP PUSH8 0xFFFFFFFFFFFFFFFF DUP2 GT ISZERO PUSH2 0x22EE JUMPI PUSH2 0x22ED PUSH2 0x22B4 JUMP JUMPDEST JUMPDEST PUSH1 0x20 DUP4 ADD SWAP2 POP DUP4 PUSH1 0x20 DUP3 MUL DUP4 ADD GT ISZERO PUSH2 0x230A JUMPI PUSH2 0x2309 PUSH2 0x22B8 JUMP JUMPDEST JUMPDEST SWAP3 POP SWAP3 SWAP1 POP JUMP JUMPDEST PUSH0 DUP1 PUSH1 0x20 DUP4 DUP6 SUB SLT ISZERO PUSH2 0x2327 JUMPI PUSH2 0x2326 PUSH2 0x2027 JUMP JUMPDEST JUMPDEST PUSH0 DUP4 ADD CALLDATALOAD PUSH8 0xFFFFFFFFFFFFFFFF DUP2 GT ISZERO PUSH2 0x2344 JUMPI PUSH2 0x2343 PUSH2 0x202B JUMP JUMPDEST JUMPDEST PUSH2 0x2350 DUP6 DUP3 DUP7 ADD PUSH2 0x22BC JUMP JUMPDEST SWAP3 POP SWAP3 POP POP SWAP3 POP SWAP3 SWAP1 POP JUMP JUMPDEST PUSH0 DUP2 SWAP1 POP SWAP2 SWAP1 POP JUMP JUMPDEST PUSH2 0x236E DUP2 PUSH2 0x235C JUMP JUMPDEST DUP2 EQ PUSH2 0x2378 JUMPI PUSH0 DUP1 REVERT JUMPDEST POP JUMP JUMPDEST PUSH0 DUP2 CALLDATALOAD SWAP1 POP PUSH2 0x2389 DUP2 PUSH2 0x2365 JUMP JUMPDEST SWAP3 SWAP2 POP POP JUMP JUMPDEST PUSH0 PUSH1 0x20 DUP3 DUP5 SUB SLT ISZERO PUSH2 0x23A4 JUMPI PUSH2 0x23A3 PUSH2 0x2027 JUMP JUMPDEST JUMPDEST PUSH0 PUSH2 0x23B1 DUP5 DUP3 DUP6 ADD PUSH2 0x237B JUMP JUMPDEST SWAP2 POP POP SWAP3 SWAP2 POP POP JUMP JUMPDEST PUSH2 0x23C3 DUP2 PUSH2 0x235C JUMP JUMPDEST DUP3 MSTORE POP POP JUMP JUMPDEST PUSH0 PUSH1 0x20 DUP3 ADD SWAP1 POP PUSH2 0x23DC PUSH0 DUP4 ADD DUP5 PUSH2 0x23BA JUMP JUMPDEST SWAP3 SWAP2 POP POP JUMP JUMPDEST PUSH0 DUP1 PUSH1 0x40 DUP4 DUP6 SUB SLT ISZERO PUSH2 0x23F8 JUMPI PUSH2 0x23F7 PUSH2 0x2027 JUMP JUMPDEST JUMPDEST PUSH0 PUSH2 0x2405 DUP6 DUP3 DUP7 ADD PUSH2 0x237B JUMP JUMPDEST SWAP3 POP POP PUSH1 0x20 PUSH2 0x2416 DUP6 DUP3 DUP7 ADD PUSH2 0x2271 JUMP JUMPDEST SWAP2 POP POP SWAP3 POP SWAP3 SWAP1 POP JUMP JUMPDEST PUSH0 DUP2 SWAP1 POP SWAP2 SWAP1 POP JUMP JUMPDEST PUSH0 PUSH2 0x2443 PUSH2 0x243E PUSH2 0x2439 DUP5 PUSH2 0x21C5 JUMP JUMPDEST PUSH2 0x2420 JUMP JUMPDEST PUSH2 0x21C5 JUMP JUMPDEST SWAP1 POP SWAP2 SWAP1 POP JUMP JUMPDEST PUSH0 PUSH2 0x2454 DUP3 PUSH2 0x2429 JUMP JUMPDEST SWAP1 POP SWAP2 SWAP1 POP JUMP JUMPDEST PUSH0 PUSH2 0x2465 DUP3 PUSH2 0x244A JUMP JUMPDEST SWAP1 POP SWAP2 SWAP1 POP JUMP JUMPDEST PUSH2 0x2475 DUP2 PUSH2 0x245B JUMP JUMPDEST DUP3 MSTORE POP POP JUMP JUMPDEST PUSH0 PUSH1 0x20 DUP3 ADD SWAP1 POP PUSH2 0x248E PUSH0 DUP4 ADD DUP5 PUSH2 0x246C JUMP JUMPDEST SWAP3 SWAP2 POP POP JUMP JUMPDEST PUSH2 0x249D DUP2 PUSH2 0x20E2 JUMP JUMPDEST DUP2 EQ PUSH2 0x24A7 JUMPI PUSH0 DUP1 REVERT JUMPDEST POP JUMP JUMPDEST PUSH0 DUP2 CALLDATALOAD SWAP1 POP PUSH2 0x24B8 DUP2 PUSH2 0x2494 JUMP JUMPDEST SWAP3 SWAP2 POP POP JUMP JUMPDEST PUSH0 PUSH1 0x20 DUP3 DUP5 SUB SLT ISZERO PUSH2 0x24D3 JUMPI PUSH2 0x24D2 PUSH2 0x2027 JUMP JUMPDEST JUMPDEST PUSH0 PUSH2 0x24E0 DUP5 DUP3 DUP6 ADD PUSH2 0x24AA JUMP JUMPDEST SWAP2 POP POP SWAP3 SWAP2 POP POP JUMP JUMPDEST PUSH2 0x24F2 DUP2 PUSH2 0x21E4 JUMP JUMPDEST DUP3 MSTORE POP POP JUMP JUMPDEST PUSH0 PUSH1 0x20 DUP3 ADD SWAP1 POP PUSH2 0x250B PUSH0 DUP4 ADD DUP5 PUSH2 0x24E9 JUMP JUMPDEST SWAP3 SWAP2 POP POP JUMP JUMPDEST PUSH0 PUSH1 0x40 DUP3 ADD SWAP1 POP PUSH2 0x2524 PUSH0 DUP4 ADD DUP6 PUSH2 0x20F3 JUMP JUMPDEST PUSH2 0x2531 PUSH1 0x20 DUP4 ADD DUP5 PUSH2 0x20F3 JUMP JUMPDEST SWAP4 SWAP3 POP POP POP JUMP JUMPDEST PUSH0 PUSH1 0x40 DUP3 ADD SWAP1 POP PUSH2 0x254B PUSH0 DUP4 ADD DUP6 PUSH2 0x24E9 JUMP JUMPDEST PUSH2 0x2558 PUSH1 0x20 DUP4 ADD DUP5 PUSH2 0x20F3 JUMP JUMPDEST SWAP4 SWAP3 POP POP POP JUMP JUMPDEST PUSH0 DUP1 REVERT JUMPDEST PUSH0 PUSH1 0xA0 DUP3 DUP5 SUB SLT ISZERO PUSH2 0x2578 JUMPI PUSH2 0x2577 PUSH2 0x255F JUMP JUMPDEST JUMPDEST DUP2 SWAP1 POP SWAP3 SWAP2 POP POP JUMP JUMPDEST PUSH0 PUSH1 0x20 DUP3 DUP5 SUB SLT ISZERO PUSH2 0x2596 JUMPI PUSH2 0x2595 PUSH2 0x2027 JUMP JUMPDEST JUMPDEST PUSH0 DUP3 ADD CALLDATALOAD PUSH8 0xFFFFFFFFFFFFFFFF DUP2 GT ISZERO PUSH2 0x25B3 JUMPI PUSH2 0x25B2 PUSH2 0x202B JUMP JUMPDEST JUMPDEST PUSH2 0x25BF DUP5 DUP3 DUP6 ADD PUSH2 0x2563 JUMP JUMPDEST SWAP2 POP POP SWAP3 SWAP2 POP POP JUMP JUMPDEST PUSH32 0x4E487B7100000000000000000000000000000000000000000000000000000000 PUSH0 MSTORE PUSH1 0x22 PUSH1 0x4 MSTORE PUSH1 0x24 PUSH0 REVERT JUMPDEST PUSH0 PUSH1 0x2 DUP3 DIV SWAP1 POP PUSH1 0x1 DUP3 AND DUP1 PUSH2 0x260C JUMPI PUSH1 0x7F DUP3 AND SWAP2 POP JUMPDEST PUSH1 0x20 DUP3 LT DUP2 SUB PUSH2 0x261F JUMPI PUSH2 0x261E PUSH2 0x25C8 JUMP JUMPDEST JUMPDEST POP SWAP2 SWAP1 POP JUMP JUMPDEST PUSH32 0x4E487B7100000000000000000000000000000000000000000000000000000000 PUSH0 MSTORE PUSH1 0x32 PUSH1 0x4 MSTORE PUSH1 0x24 PUSH0 REVERT JUMPDEST PUSH2 0x265B DUP2 PUSH2 0x20AF JUMP JUMPDEST DUP2 EQ PUSH2 0x2665 JUMPI PUSH0 DUP1 REVERT JUMPDEST POP JUMP JUMPDEST PUSH0 DUP2 MLOAD SWAP1 POP PUSH2 0x2676 DUP2 PUSH2 0x2652 JUMP JUMPDEST SWAP3 SWAP2 POP POP JUMP JUMPDEST PUSH0 PUSH1 0x20 DUP3 DUP5 SUB SLT ISZERO PUSH2 0x2691 JUMPI PUSH2 0x2690 PUSH2 0x2027 JUMP JUMPDEST JUMPDEST PUSH0 PUSH2 0x269E DUP5 DUP3 DUP6 ADD PUSH2 0x2668 JUMP JUMPDEST SWAP2 POP POP SWAP3 SWAP2 POP POP JUMP JUMPDEST PUSH0 DUP1 REVERT JUMPDEST PUSH32 0x4E487B7100000000000000000000000000000000000000000000000000000000 PUSH0 MSTORE PUSH1 0x41 PUSH1 0x4 MSTORE PUSH1 0x24 PUSH0 REVERT JUMPDEST PUSH2 0x26E1 DUP3 PUSH2 0x215D JUMP JUMPDEST DUP2 ADD DUP2 DUP2 LT PUSH8 0xFFFFFFFFFFFFFFFF DUP3 GT OR ISZERO PUSH2 0x2700 JUMPI PUSH2 0x26FF PUSH2 0x26AB JUMP JUMPDEST JUMPDEST DUP1 PUSH1 0x40 MSTORE POP POP POP JUMP JUMPDEST PUSH0 PUSH2 0x2712 PUSH2 0x201E JUMP JUMPDEST SWAP1 POP PUSH2 0x271E DUP3 DUP3 PUSH2 0x26D8 JUMP JUMPDEST SWAP2 SWAP1 POP JUMP JUMPDEST PUSH0 DUP1 REVERT JUMPDEST PUSH0 DUP1 REVERT JUMPDEST PUSH0 PUSH8 0xFFFFFFFFFFFFFFFF DUP3 GT ISZERO PUSH2 0x2745 JUMPI PUSH2 0x2744 PUSH2 0x26AB JUMP JUMPDEST JUMPDEST PUSH2 0x274E DUP3 PUSH2 0x215D JUMP JUMPDEST SWAP1 POP PUSH1 0x20 DUP2 ADD SWAP1 POP SWAP2 SWAP1 POP JUMP JUMPDEST DUP3 DUP2 DUP4 CALLDATACOPY PUSH0 DUP4 DUP4 ADD MSTORE POP POP POP JUMP JUMPDEST PUSH0 PUSH2 0x277B PUSH2 0x2776 DUP5 PUSH2 0x272B JUMP JUMPDEST PUSH2 0x2709 JUMP JUMPDEST SWAP1 POP DUP3 DUP2 MSTORE PUSH1 0x20 DUP2 ADD DUP5 DUP5 DUP5 ADD GT ISZERO PUSH2 0x2797 JUMPI PUSH2 0x2796 PUSH2 0x2727 JUMP JUMPDEST JUMPDEST PUSH2 0x27A2 DUP5 DUP3 DUP6 PUSH2 0x275B JUMP JUMPDEST POP SWAP4 SWAP3 POP POP POP JUMP JUMPDEST PUSH0 DUP3 PUSH1 0x1F DUP4 ADD SLT PUSH2 0x27BE JUMPI PUSH2 0x27BD PUSH2 0x22B0 JUMP JUMPDEST JUMPDEST DUP2 CALLDATALOAD PUSH2 0x27CE DUP5 DUP3 PUSH1 0x20 DUP7 ADD PUSH2 0x2769 JUMP JUMPDEST SWAP2 POP POP SWAP3 SWAP2 POP POP JUMP JUMPDEST PUSH0 PUSH1 0xA0 DUP3 DUP5 SUB SLT ISZERO PUSH2 0x27EC JUMPI PUSH2 0x27EB PUSH2 0x26A7 JUMP JUMPDEST JUMPDEST PUSH2 0x27F6 PUSH1 0xA0 PUSH2 0x2709 JUMP JUMPDEST SWAP1 POP PUSH0 DUP3 ADD CALLDATALOAD PUSH8 0xFFFFFFFFFFFFFFFF DUP2 GT ISZERO PUSH2 0x2815 JUMPI PUSH2 0x2814 PUSH2 0x2723 JUMP JUMPDEST JUMPDEST PUSH2 0x2821 DUP5 DUP3 DUP6 ADD PUSH2 0x27AA JUMP JUMPDEST PUSH0 DUP4 ADD MSTORE POP PUSH1 0x20 PUSH2 0x2834 DUP5 DUP3 DUP6 ADD PUSH2 0x221C JUMP JUMPDEST PUSH1 0x20 DUP4 ADD MSTORE POP PUSH1 0x40 PUSH2 0x2848 DUP5 DUP3 DUP6 ADD PUSH2 0x2271 JUMP JUMPDEST PUSH1 0x40 DUP4 ADD MSTORE POP PUSH1 0x60 PUSH2 0x285C DUP5 DUP3 DUP6 ADD PUSH2 0x2271 JUMP JUMPDEST PUSH1 0x60 DUP4 ADD MSTORE POP PUSH1 0x80 PUSH2 0x2870 DUP5 DUP3 DUP6 ADD PUSH2 0x24AA JUMP JUMPDEST PUSH1 0x80 DUP4 ADD MSTORE POP SWAP3 SWAP2 POP POP JUMP JUMPDEST PUSH0 PUSH2 0x2887 CALLDATASIZE DUP4 PUSH2 0x27D7 JUMP JUMPDEST SWAP1 POP SWAP2 SWAP1 POP JUMP JUMPDEST PUSH0 DUP2 SWAP1 POP SWAP2 SWAP1 POP JUMP JUMPDEST PUSH0 PUSH8 0xFFFFFFFFFFFFFFFF DUP3 AND SWAP1 POP SWAP2 SWAP1 POP JUMP JUMPDEST PUSH0 PUSH2 0x28C4 PUSH2 0x28BF PUSH2 0x28BA DUP5 PUSH2 0x288E JUMP JUMPDEST PUSH2 0x2420 JUMP JUMPDEST PUSH2 0x2897 JUMP JUMPDEST SWAP1 POP SWAP2 SWAP1 POP JUMP JUMPDEST PUSH2 0x28D4 DUP2 PUSH2 0x28AA JUMP JUMPDEST DUP3 MSTORE POP POP JUMP JUMPDEST PUSH0 PUSH1 0x20 DUP3 ADD SWAP1 POP PUSH2 0x28ED PUSH0 DUP4 ADD DUP5 PUSH2 0x28CB JUMP JUMPDEST SWAP3 SWAP2 POP POP JUMP JUMPDEST PUSH32 0x4E487B7100000000000000000000000000000000000000000000000000000000 PUSH0 MSTORE PUSH1 0x11 PUSH1 0x4 MSTORE PUSH1 0x24 PUSH0 REVERT JUMPDEST PUSH0 PUSH2 0x292A DUP3 PUSH2 0x20E2 JUMP JUMPDEST SWAP2 POP PUSH2 0x2935 DUP4 PUSH2 0x20E2 JUMP JUMPDEST SWAP3 POP DUP3 DUP3 ADD SWAP1 POP PUSH6 0xFFFFFFFFFFFF DUP2 GT ISZERO PUSH2 0x2953 JUMPI PUSH2 0x2952 PUSH2 0x28F3 JUMP JUMPDEST JUMPDEST SWAP3 SWAP2 POP POP JUMP JUMPDEST PUSH0 PUSH1 0x40 DUP3 ADD SWAP1 POP PUSH2 0x296C PUSH0 DUP4 ADD DUP6 PUSH2 0x24E9 JUMP JUMPDEST PUSH2 0x2979 PUSH1 0x20 DUP4 ADD DUP5 PUSH2 0x23BA JUMP JUMPDEST SWAP4 SWAP3 POP POP POP JUMP JUMPDEST PUSH0 DUP2 SWAP1 POP SWAP2 SWAP1 POP JUMP JUMPDEST PUSH0 PUSH1 0xFF DUP3 AND SWAP1 POP SWAP2 SWAP1 POP JUMP JUMPDEST PUSH0 PUSH2 0x29AF PUSH2 0x29AA PUSH2 0x29A5 DUP5 PUSH2 0x2980 JUMP JUMPDEST PUSH2 0x2420 JUMP JUMPDEST PUSH2 0x2989 JUMP JUMPDEST SWAP1 POP SWAP2 SWAP1 POP JUMP JUMPDEST PUSH2 0x29BF DUP2 PUSH2 0x2995 JUMP JUMPDEST DUP3 MSTORE POP POP JUMP JUMPDEST PUSH0 DUP2 SWAP1 POP SWAP2 SWAP1 POP JUMP JUMPDEST PUSH2 0x29D7 DUP2 PUSH2 0x29C5 JUMP JUMPDEST DUP3 MSTORE POP POP JUMP JUMPDEST PUSH0 PUSH1 0x40 DUP3 ADD SWAP1 POP PUSH2 0x29F0 PUSH0 DUP4 ADD DUP6 PUSH2 0x29B6 JUMP JUMPDEST PUSH2 0x29FD PUSH1 0x20 DUP4 ADD DUP5 PUSH2 0x29CE JUMP JUMPDEST SWAP4 SWAP3 POP POP POP JUMP JUMPDEST PUSH0 PUSH2 0x2A0E DUP3 PUSH2 0x20E2 JUMP JUMPDEST SWAP2 POP PUSH2 0x2A19 DUP4 PUSH2 0x20E2 JUMP JUMPDEST SWAP3 POP DUP3 DUP3 SUB SWAP1 POP PUSH6 0xFFFFFFFFFFFF DUP2 GT ISZERO PUSH2 0x2A37 JUMPI PUSH2 0x2A36 PUSH2 0x28F3 JUMP JUMPDEST JUMPDEST SWAP3 SWAP2 POP POP JUMP JUMPDEST PUSH0 DUP2 SWAP1 POP DUP2 PUSH0 MSTORE PUSH1 0x20 PUSH0 KECCAK256 SWAP1 POP SWAP2 SWAP1 POP JUMP JUMPDEST PUSH0 PUSH1 0x20 PUSH1 0x1F DUP4 ADD DIV SWAP1 POP SWAP2 SWAP1 POP JUMP JUMPDEST PUSH0 DUP3 DUP3 SHL SWAP1 POP SWAP3 SWAP2 POP POP JUMP JUMPDEST PUSH0 PUSH1 0x8 DUP4 MUL PUSH2 0x2A99 PUSH32 0xFFFFFFFFFFFFFFFFFFFFFFFFFFFFFFFFFFFFFFFFFFFFFFFFFFFFFFFFFFFFFFFF DUP3 PUSH2 0x2A5E JUMP JUMPDEST PUSH2 0x2AA3 DUP7 DUP4 PUSH2 0x2A5E JUMP JUMPDEST SWAP6 POP DUP1 NOT DUP5 AND SWAP4 POP DUP1 DUP7 AND DUP5 OR SWAP3 POP POP POP SWAP4 SWAP3 POP POP POP JUMP JUMPDEST PUSH0 PUSH2 0x2AD5 PUSH2 0x2AD0 PUSH2 0x2ACB DUP5 PUSH2 0x29C5 JUMP JUMPDEST PUSH2 0x2420 JUMP JUMPDEST PUSH2 0x29C5 JUMP JUMPDEST SWAP1 POP SWAP2 SWAP1 POP JUMP JUMPDEST PUSH0 DUP2 SWAP1 POP SWAP2 SWAP1 POP JUMP JUMPDEST PUSH2 0x2AEE DUP4 PUSH2 0x2ABB JUMP JUMPDEST PUSH2 0x2B02 PUSH2 0x2AFA DUP3 PUSH2 0x2ADC JUMP JUMPDEST DUP5 DUP5 SLOAD PUSH2 0x2A6A JUMP JUMPDEST DUP3 SSTORE POP POP POP POP JUMP JUMPDEST PUSH0 SWAP1 JUMP JUMPDEST PUSH2 0x2B16 PUSH2 0x2B0A JUMP JUMPDEST PUSH2 0x2B21 DUP2 DUP5 DUP5 PUSH2 0x2AE5 JUMP JUMPDEST POP POP POP JUMP JUMPDEST JUMPDEST DUP2 DUP2 LT ISZERO PUSH2 0x2B44 JUMPI PUSH2 0x2B39 PUSH0 DUP3 PUSH2 0x2B0E JUMP JUMPDEST PUSH1 0x1 DUP2 ADD SWAP1 POP PUSH2 0x2B27 JUMP JUMPDEST POP POP JUMP JUMPDEST PUSH1 0x1F DUP3 GT ISZERO PUSH2 0x2B89 JUMPI PUSH2 0x2B5A DUP2 PUSH2 0x2A3D JUMP JUMPDEST PUSH2 0x2B63 DUP5 PUSH2 0x2A4F JUMP JUMPDEST DUP2 ADD PUSH1 0x20 DUP6 LT ISZERO PUSH2 0x2B72 JUMPI DUP2 SWAP1 POP JUMPDEST PUSH2 0x2B86 PUSH2 0x2B7E DUP6 PUSH2 0x2A4F JUMP JUMPDEST DUP4 ADD DUP3 PUSH2 0x2B26 JUMP JUMPDEST POP POP JUMPDEST POP POP POP JUMP JUMPDEST PUSH0 DUP3 DUP3 SHR SWAP1 POP SWAP3 SWAP2 POP POP JUMP JUMPDEST PUSH0 PUSH2 0x2BA9 PUSH0 NOT DUP5 PUSH1 0x8 MUL PUSH2 0x2B8E JUMP JUMPDEST NOT DUP1 DUP4 AND SWAP2 POP POP SWAP3 SWAP2 POP POP JUMP JUMPDEST PUSH0 PUSH2 0x2BC1 DUP4 DUP4 PUSH2 0x2B9A JUMP JUMPDEST SWAP2 POP DUP3 PUSH1 0x2 MUL DUP3 OR SWAP1 POP SWAP3 SWAP2 POP POP JUMP JUMPDEST PUSH2 0x2BDA DUP3 PUSH2 0x211B JUMP JUMPDEST PUSH8 0xFFFFFFFFFFFFFFFF DUP2 GT ISZERO PUSH2 0x2BF3 JUMPI PUSH2 0x2BF2 PUSH2 0x26AB JUMP JUMPDEST JUMPDEST PUSH2 0x2BFD DUP3 SLOAD PUSH2 0x25F5 JUMP JUMPDEST PUSH2 0x2C08 DUP3 DUP3 DUP6 PUSH2 0x2B48 JUMP JUMPDEST PUSH0 PUSH1 0x20 SWAP1 POP PUSH1 0x1F DUP4 GT PUSH1 0x1 DUP2 EQ PUSH2 0x2C39 JUMPI PUSH0 DUP5 ISZERO PUSH2 0x2C27 JUMPI DUP3 DUP8 ADD MLOAD SWAP1 POP JUMPDEST PUSH2 0x2C31 DUP6 DUP3 PUSH2 0x2BB6 JUMP JUMPDEST DUP7 SSTORE POP PUSH2 0x2C98 JUMP JUMPDEST PUSH1 0x1F NOT DUP5 AND PUSH2 0x2C47 DUP7 PUSH2 0x2A3D JUMP JUMPDEST PUSH0 JUMPDEST DUP3 DUP2 LT ISZERO PUSH2 0x2C6E JUMPI DUP5 DUP10 ADD MLOAD DUP3 SSTORE PUSH1 0x1 DUP3 ADD SWAP2 POP PUSH1 0x20 DUP6 ADD SWAP5 POP PUSH1 0x20 DUP2 ADD SWAP1 POP PUSH2 0x2C49 JUMP JUMPDEST DUP7 DUP4 LT ISZERO PUSH2 0x2C8B JUMPI DUP5 DUP10 ADD MLOAD PUSH2 0x2C87 PUSH1 0x1F DUP10 AND DUP3 PUSH2 0x2B9A JUMP JUMPDEST DUP4 SSTORE POP JUMPDEST PUSH1 0x1 PUSH1 0x2 DUP9 MUL ADD DUP9 SSTORE POP POP POP JUMPDEST POP POP POP POP POP POP JUMP INVALID LOG2 PUSH5 0x6970667358 0x22 SLT KECCAK256 0xC4 0xCE GAS 0xA5 0x4C 0xCF PUSH26 0x1F5985244CED1D415FFF00BACBF51EE26AA3AC5F9A3B3F59AE64 PUSH20 0x6F6C634300081600330000000000000000000000 "
		},
		"gasEstimates": {
			"creation": {
				"codeDepositCost": "2295600",
				"executionCost": "infinite",
				"totalCost": "infinite"
			},
			"external": {
				"DEFAULT_ADMIN_ROLE()": "397",
				"OPERATOR_ROLE()": "413",
				"acceptDefaultAdminTransfer()": "infinite",
				"addToBlockList(address[])": "infinite",
				"beginDefaultAdminTransfer(address)": "infinite",
				"cancelDefaultAdminTransfer()": "infinite",
				"changeDefaultAdminDelay(uint48)": "infinite",
				"defaultAdmin()": "2679",
				"defaultAdminDelay()": "5032",
				"defaultAdminDelayIncreaseWait()": "407",
				"getRoleAdmin(bytes32)": "infinite",
				"grantRole(bytes32,address)": "infinite",
				"hasRole(bytes32,address)": "3264",
				"initialize((string,address,address,address,uint48))": "infinite",
				"isBlocked(address)": "infinite",
				"isBlockedByInternalList(address)": "3000",
				"isSanctionedByUnderlyingList(address)": "infinite",
				"name()": "infinite",
				"owner()": "2648",
				"pendingDefaultAdmin()": "4921",
				"pendingDefaultAdminDelay()": "infinite",
				"removeFromBlockList(address[])": "infinite",
				"renounceRole(bytes32,address)": "infinite",
				"revokeRole(bytes32,address)": "infinite",
				"rollbackDefaultAdminDelay()": "80343",
				"setUnderlyingSanctionsList(address)": "infinite",
				"supportsInterface(bytes4)": "852",
				"underlyingSanctionsList()": "infinite"
			},
			"internal": {
				"__BlockList_init(struct BlockList.InitializationParams memory)": "infinite",
				"_getBlockListStorage()": "22",
				"_setName(string memory)": "infinite",
				"_setUnderlyingSanctionsList(contract ISanctionsList)": "infinite"
			}
		},
		"methodIdentifiers": {
			"DEFAULT_ADMIN_ROLE()": "a217fddf",
			"OPERATOR_ROLE()": "f5b541a6",
			"acceptDefaultAdminTransfer()": "cefc1429",
			"addToBlockList(address[])": "14edeec6",
			"beginDefaultAdminTransfer(address)": "634e93da",
			"cancelDefaultAdminTransfer()": "d602b9fd",
			"changeDefaultAdminDelay(uint48)": "649a5ec7",
			"defaultAdmin()": "84ef8ffc",
			"defaultAdminDelay()": "cc8463c8",
			"defaultAdminDelayIncreaseWait()": "022d63fb",
			"getRoleAdmin(bytes32)": "248a9ca3",
			"grantRole(bytes32,address)": "2f2ff15d",
			"hasRole(bytes32,address)": "91d14854",
			"initialize((string,address,address,address,uint48))": "dd717b40",
			"isBlocked(address)": "fbac3951",
			"isBlockedByInternalList(address)": "0b6c8373",
			"isSanctionedByUnderlyingList(address)": "9086afa1",
			"name()": "06fdde03",
			"owner()": "8da5cb5b",
			"pendingDefaultAdmin()": "cf6eefb7",
			"pendingDefaultAdminDelay()": "a1eda53c",
			"removeFromBlockList(address[])": "d9940107",
			"renounceRole(bytes32,address)": "36568abe",
			"revokeRole(bytes32,address)": "d547741f",
			"rollbackDefaultAdminDelay()": "0aa6220b",
			"setUnderlyingSanctionsList(address)": "0add1f7d",
			"supportsInterface(bytes4)": "01ffc9a7",
			"underlyingSanctionsList()": "6486b781"
		}
	},
	"abi": [
		{
			"inputs": [],
			"name": "AccessControlBadConfirmation",
			"type": "error"
		},
		{
			"inputs": [
				{
					"internalType": "uint48",
					"name": "schedule",
					"type": "uint48"
				}
			],
			"name": "AccessControlEnforcedDefaultAdminDelay",
			"type": "error"
		},
		{
			"inputs": [],
			"name": "AccessControlEnforcedDefaultAdminRules",
			"type": "error"
		},
		{
			"inputs": [
				{
					"internalType": "address",
					"name": "defaultAdmin",
					"type": "address"
				}
			],
			"name": "AccessControlInvalidDefaultAdmin",
			"type": "error"
		},
		{
			"inputs": [
				{
					"internalType": "address",
					"name": "account",
					"type": "address"
				},
				{
					"internalType": "bytes32",
					"name": "neededRole",
					"type": "bytes32"
				}
			],
			"name": "AccessControlUnauthorizedAccount",
			"type": "error"
		},
		{
			"inputs": [
				{
					"internalType": "address",
					"name": "addr",
					"type": "address"
				}
			],
			"name": "AddressNotBlocked",
			"type": "error"
		},
		{
			"inputs": [
				{
					"internalType": "address",
					"name": "addr",
					"type": "address"
				}
			],
			"name": "AddressNotContract",
			"type": "error"
		},
		{
			"inputs": [],
			"name": "InvalidInitialization",
			"type": "error"
		},
		{
			"inputs": [],
			"name": "NotDelegateCall",
			"type": "error"
		},
		{
			"inputs": [],
			"name": "NotInitializing",
			"type": "error"
		},
		{
			"inputs": [
				{
					"internalType": "uint8",
					"name": "bits",
					"type": "uint8"
				},
				{
					"internalType": "uint256",
					"name": "value",
					"type": "uint256"
				}
			],
			"name": "SafeCastOverflowedUintDowncast",
			"type": "error"
		},
		{
			"anonymous": false,
			"inputs": [
				{
					"indexed": false,
					"internalType": "address",
					"name": "addrs",
					"type": "address"
				}
			],
			"name": "AddedToBlockList",
			"type": "event"
		},
		{
			"anonymous": false,
			"inputs": [],
			"name": "DefaultAdminDelayChangeCanceled",
			"type": "event"
		},
		{
			"anonymous": false,
			"inputs": [
				{
					"indexed": false,
					"internalType": "uint48",
					"name": "newDelay",
					"type": "uint48"
				},
				{
					"indexed": false,
					"internalType": "uint48",
					"name": "effectSchedule",
					"type": "uint48"
				}
			],
			"name": "DefaultAdminDelayChangeScheduled",
			"type": "event"
		},
		{
			"anonymous": false,
			"inputs": [],
			"name": "DefaultAdminTransferCanceled",
			"type": "event"
		},
		{
			"anonymous": false,
			"inputs": [
				{
					"indexed": true,
					"internalType": "address",
					"name": "newAdmin",
					"type": "address"
				},
				{
					"indexed": false,
					"internalType": "uint48",
					"name": "acceptSchedule",
					"type": "uint48"
				}
			],
			"name": "DefaultAdminTransferScheduled",
			"type": "event"
		},
		{
			"anonymous": false,
			"inputs": [
				{
					"indexed": false,
					"internalType": "uint64",
					"name": "version",
					"type": "uint64"
				}
			],
			"name": "Initialized",
			"type": "event"
		},
		{
			"anonymous": false,
			"inputs": [
				{
					"indexed": false,
					"internalType": "string",
					"name": "name",
					"type": "string"
				}
			],
			"name": "NameInitialized",
			"type": "event"
		},
		{
			"anonymous": false,
			"inputs": [
				{
					"indexed": false,
					"internalType": "address",
					"name": "addrs",
					"type": "address"
				}
			],
			"name": "RemovedFromBlockList",
			"type": "event"
		},
		{
			"anonymous": false,
			"inputs": [
				{
					"indexed": true,
					"internalType": "bytes32",
					"name": "role",
					"type": "bytes32"
				},
				{
					"indexed": true,
					"internalType": "bytes32",
					"name": "previousAdminRole",
					"type": "bytes32"
				},
				{
					"indexed": true,
					"internalType": "bytes32",
					"name": "newAdminRole",
					"type": "bytes32"
				}
			],
			"name": "RoleAdminChanged",
			"type": "event"
		},
		{
			"anonymous": false,
			"inputs": [
				{
					"indexed": true,
					"internalType": "bytes32",
					"name": "role",
					"type": "bytes32"
				},
				{
					"indexed": true,
					"internalType": "address",
					"name": "account",
					"type": "address"
				},
				{
					"indexed": true,
					"internalType": "address",
					"name": "sender",
					"type": "address"
				}
			],
			"name": "RoleGranted",
			"type": "event"
		},
		{
			"anonymous": false,
			"inputs": [
				{
					"indexed": true,
					"internalType": "bytes32",
					"name": "role",
					"type": "bytes32"
				},
				{
					"indexed": true,
					"internalType": "address",
					"name": "account",
					"type": "address"
				},
				{
					"indexed": true,
					"internalType": "address",
					"name": "sender",
					"type": "address"
				}
			],
			"name": "RoleRevoked",
			"type": "event"
		},
		{
			"anonymous": false,
			"inputs": [
				{
					"indexed": false,
					"internalType": "contract ISanctionsList",
					"name": "underlyingSanctionsList",
					"type": "address"
				}
			],
			"name": "UnderlyingSanctionListInitialized",
			"type": "event"
		},
		{
			"anonymous": false,
			"inputs": [
				{
					"indexed": false,
					"internalType": "contract ISanctionsList",
					"name": "newUnderlyingSanctionsList",
					"type": "address"
				}
			],
			"name": "UnderlyingSanctionsListUpdated",
			"type": "event"
		},
		{
			"inputs": [],
			"name": "DEFAULT_ADMIN_ROLE",
			"outputs": [
				{
					"internalType": "bytes32",
					"name": "",
					"type": "bytes32"
				}
			],
			"stateMutability": "view",
			"type": "function"
		},
		{
			"inputs": [],
			"name": "OPERATOR_ROLE",
			"outputs": [
				{
					"internalType": "bytes32",
					"name": "",
					"type": "bytes32"
				}
			],
			"stateMutability": "view",
			"type": "function"
		},
		{
			"inputs": [],
			"name": "acceptDefaultAdminTransfer",
			"outputs": [],
			"stateMutability": "nonpayable",
			"type": "function"
		},
		{
			"inputs": [
				{
					"internalType": "address[]",
					"name": "addrs",
					"type": "address[]"
				}
			],
			"name": "addToBlockList",
			"outputs": [],
			"stateMutability": "nonpayable",
			"type": "function"
		},
		{
			"inputs": [
				{
					"internalType": "address",
					"name": "newAdmin",
					"type": "address"
				}
			],
			"name": "beginDefaultAdminTransfer",
			"outputs": [],
			"stateMutability": "nonpayable",
			"type": "function"
		},
		{
			"inputs": [],
			"name": "cancelDefaultAdminTransfer",
			"outputs": [],
			"stateMutability": "nonpayable",
			"type": "function"
		},
		{
			"inputs": [
				{
					"internalType": "uint48",
					"name": "newDelay",
					"type": "uint48"
				}
			],
			"name": "changeDefaultAdminDelay",
			"outputs": [],
			"stateMutability": "nonpayable",
			"type": "function"
		},
		{
			"inputs": [],
			"name": "defaultAdmin",
			"outputs": [
				{
					"internalType": "address",
					"name": "",
					"type": "address"
				}
			],
			"stateMutability": "view",
			"type": "function"
		},
		{
			"inputs": [],
			"name": "defaultAdminDelay",
			"outputs": [
				{
					"internalType": "uint48",
					"name": "",
					"type": "uint48"
				}
			],
			"stateMutability": "view",
			"type": "function"
		},
		{
			"inputs": [],
			"name": "defaultAdminDelayIncreaseWait",
			"outputs": [
				{
					"internalType": "uint48",
					"name": "",
					"type": "uint48"
				}
			],
			"stateMutability": "view",
			"type": "function"
		},
		{
			"inputs": [
				{
					"internalType": "bytes32",
					"name": "role",
					"type": "bytes32"
				}
			],
			"name": "getRoleAdmin",
			"outputs": [
				{
					"internalType": "bytes32",
					"name": "",
					"type": "bytes32"
				}
			],
			"stateMutability": "view",
			"type": "function"
		},
		{
			"inputs": [
				{
					"internalType": "bytes32",
					"name": "role",
					"type": "bytes32"
				},
				{
					"internalType": "address",
					"name": "account",
					"type": "address"
				}
			],
			"name": "grantRole",
			"outputs": [],
			"stateMutability": "nonpayable",
			"type": "function"
		},
		{
			"inputs": [
				{
					"internalType": "bytes32",
					"name": "role",
					"type": "bytes32"
				},
				{
					"internalType": "address",
					"name": "account",
					"type": "address"
				}
			],
			"name": "hasRole",
			"outputs": [
				{
					"internalType": "bool",
					"name": "",
					"type": "bool"
				}
			],
			"stateMutability": "view",
			"type": "function"
		},
		{
			"inputs": [
				{
					"components": [
						{
							"internalType": "string",
							"name": "name_",
							"type": "string"
						},
						{
							"internalType": "contract ISanctionsList",
							"name": "underlyingSanctionsList_",
							"type": "address"
						},
						{
							"internalType": "address",
							"name": "initialDefaultAdmin_",
							"type": "address"
						},
						{
							"internalType": "address",
							"name": "initialOperator_",
							"type": "address"
						},
						{
							"internalType": "uint48",
							"name": "initialDelay_",
							"type": "uint48"
						}
					],
					"internalType": "struct BlockList.InitializationParams",
					"name": "params",
					"type": "tuple"
				}
			],
			"name": "initialize",
			"outputs": [],
			"stateMutability": "nonpayable",
			"type": "function"
		},
		{
			"inputs": [
				{
					"internalType": "address",
					"name": "addr",
					"type": "address"
				}
			],
			"name": "isBlocked",
			"outputs": [
				{
					"internalType": "bool",
					"name": "",
					"type": "bool"
				}
			],
			"stateMutability": "view",
			"type": "function"
		},
		{
			"inputs": [
				{
					"internalType": "address",
					"name": "addr",
					"type": "address"
				}
			],
			"name": "isBlockedByInternalList",
			"outputs": [
				{
					"internalType": "bool",
					"name": "",
					"type": "bool"
				}
			],
			"stateMutability": "view",
			"type": "function"
		},
		{
			"inputs": [
				{
					"internalType": "address",
					"name": "addr",
					"type": "address"
				}
			],
			"name": "isSanctionedByUnderlyingList",
			"outputs": [
				{
					"internalType": "bool",
					"name": "",
					"type": "bool"
				}
			],
			"stateMutability": "view",
			"type": "function"
		},
		{
			"inputs": [],
			"name": "name",
			"outputs": [
				{
					"internalType": "string",
					"name": "",
					"type": "string"
				}
			],
			"stateMutability": "view",
			"type": "function"
		},
		{
			"inputs": [],
			"name": "owner",
			"outputs": [
				{
					"internalType": "address",
					"name": "",
					"type": "address"
				}
			],
			"stateMutability": "view",
			"type": "function"
		},
		{
			"inputs": [],
			"name": "pendingDefaultAdmin",
			"outputs": [
				{
					"internalType": "address",
					"name": "newAdmin",
					"type": "address"
				},
				{
					"internalType": "uint48",
					"name": "schedule",
					"type": "uint48"
				}
			],
			"stateMutability": "view",
			"type": "function"
		},
		{
			"inputs": [],
			"name": "pendingDefaultAdminDelay",
			"outputs": [
				{
					"internalType": "uint48",
					"name": "newDelay",
					"type": "uint48"
				},
				{
					"internalType": "uint48",
					"name": "schedule",
					"type": "uint48"
				}
			],
			"stateMutability": "view",
			"type": "function"
		},
		{
			"inputs": [
				{
					"internalType": "address[]",
					"name": "addrs",
					"type": "address[]"
				}
			],
			"name": "removeFromBlockList",
			"outputs": [],
			"stateMutability": "nonpayable",
			"type": "function"
		},
		{
			"inputs": [
				{
					"internalType": "bytes32",
					"name": "role",
					"type": "bytes32"
				},
				{
					"internalType": "address",
					"name": "account",
					"type": "address"
				}
			],
			"name": "renounceRole",
			"outputs": [],
			"stateMutability": "nonpayable",
			"type": "function"
		},
		{
			"inputs": [
				{
					"internalType": "bytes32",
					"name": "role",
					"type": "bytes32"
				},
				{
					"internalType": "address",
					"name": "account",
					"type": "address"
				}
			],
			"name": "revokeRole",
			"outputs": [],
			"stateMutability": "nonpayable",
			"type": "function"
		},
		{
			"inputs": [],
			"name": "rollbackDefaultAdminDelay",
			"outputs": [],
			"stateMutability": "nonpayable",
			"type": "function"
		},
		{
			"inputs": [
				{
					"internalType": "contract ISanctionsList",
					"name": "newUnderlyingSanctionsList",
					"type": "address"
				}
			],
			"name": "setUnderlyingSanctionsList",
			"outputs": [],
			"stateMutability": "nonpayable",
			"type": "function"
		},
		{
			"inputs": [
				{
					"internalType": "bytes4",
					"name": "interfaceId",
					"type": "bytes4"
				}
			],
			"name": "supportsInterface",
			"outputs": [
				{
					"internalType": "bool",
					"name": "",
					"type": "bool"
				}
			],
			"stateMutability": "view",
			"type": "function"
		},
		{
			"inputs": [],
			"name": "underlyingSanctionsList",
			"outputs": [
				{
					"internalType": "contract ISanctionsList",
					"name": "",
					"type": "address"
				}
			],
			"stateMutability": "view",
			"type": "function"
		}
	]
}