{
	"data": {
		"bytecode": {
			"linkReferences": {},
			"object": "608060405234801561000f575f80fd5b50611bb98061001d5f395ff3fe608060405234801561000f575f80fd5b5060043610610127575f3560e01c8063ae2c1d5f116100a9578063d7bffc921161006e578063d7bffc921461029d578063e5b0ea7f146102bc578063f9759518146102db578063fb329a29146102e3578063fd967f4714610372575f80fd5b8063ae2c1d5f14610243578063c45a01551461025b578063c4d66de81461026e578063c85b967d14610281578063ceb68c231461028a575f80fd5b806347e7ef24116100ef57806347e7ef24146101d65780636372df6a146101eb5780637d7c2a1c146101fe5780638da5cb5b146102065780639582224214610230575f80fd5b806315d3b5d81461012b5780631892091514610146578063201933bf1461018f578063268257df146101a45780632e1a7d4d146101c3575b5f80fd5b61013361037b565b6040519081526020015b60405180910390f35b6101746101543660046118d2565b60036020525f908152604090208054600182015460029092015490919083565b6040805193845260208401929092529082015260600161013d565b6101976103e0565b60405161013d9190611930565b6101336101b23660046118d2565b60076020525f908152604090205481565b6101336101d1366004611942565b610440565b6101e96101e4366004611959565b6105e5565b005b6101e96101f9366004611959565b610767565b6101e9610955565b5f54610218906001600160a01b031681565b6040516001600160a01b03909116815260200161013d565b61021861023e366004611942565b610b8c565b61024b610bb4565b604051901515815260200161013d565b600154610218906001600160a01b031681565b6101e961027c3660046118d2565b610c60565b6101336101f481565b6101e96102983660046118d2565b610d95565b6101336102ab3660046118d2565b60056020525f908152604090205481565b6101336102ca3660046118d2565b60066020525f908152604090205481565b610133606481565b6103356102f13660046118d2565b600260208190525f91825260409091208054600182015492820154600383015460048401546005909401546001600160a01b03909316949360ff9092169290919086565b604080516001600160a01b0390971687526020870195909552921515938501939093526060840152608083019190915260a082015260c00161013d565b61013361271081565b5f805f5b6004548110156103da5760025f6004838154811061039f5761039f611983565b5f9182526020808320909101546001600160a01b031683528201929092526040019020600101546103d090836119ab565b915060010161037f565b50919050565b6060600480548060200260200160405190810160405280929190818152602001828054801561043657602002820191905f5260205f20905b81546001600160a01b03168152600190910190602001808311610418575b5050505050905090565b5f610449610f50565b5f546001600160a01b03163314610472576040516282b42960e81b815260040160405180910390fd5b811580610480575061271082115b1561049e576040516305d7ba1960e11b815260040160405180910390fd5b5f5b600454811015610586575f600482815481106104be576104be611983565b5f91825260208220015481546040516370a0823160e01b81526001600160a01b0391821660048201529116925082906370a0823190602401602060405180830381865afa158015610511573d5f803e3d5ffd5b505050506040513d601f19601f8201168201806040525081019061053591906119be565b90505f61271061054587846119d5565b61054f91906119ec565b9050801561057b575f6105628483610f87565b905061056e81876119ab565b95506105798461100b565b505b5050506001016104a0565b507f45592cc46b51f1666e758017366a28bba78be1a895176072ee1cb50cf10a39a38260046105b361114e565b6040516105c293929190611a75565b60405180910390a16105e060015f80516020611b6483398151915255565b919050565b6105ed610f50565b5f546001600160a01b03163314610616576040516282b42960e81b815260040160405180910390fd5b806106208161121d565b61063d57604051630652f4c560e21b815260040160405180910390fd5b815f0361065d576040516305d7ba1960e11b815260040160405180910390fd5b5f80610668846112ae565b90925090505f805b835181101561070d575f83828151811061068c5761068c611983565b60200260200101511115610705576106d78482815181106106af576106af611983565b6020026020010151888584815181106106ca576106ca611983565b6020026020010151611443565b6106e190836119ab565b91506107058482815181106106f8576106f8611983565b602002602001015161100b565b600101610670565b507f845b828df9970f41b76eac93108a7b69b94a96ef68edee00dd45a86e3cc590cb85848460405161074193929190611aa9565b60405180910390a15050505061076360015f80516020611b6483398151915255565b5050565b5f546001600160a01b03163314610790576040516282b42960e81b815260040160405180910390fd5b6001600160a01b0382165f908152600260208190526040909120015460ff16156107cd57604051630cb3e97f60e31b815260040160405180910390fd5b6127108111156107f0576040516356e70fbf60e11b815260040160405180910390fd5b805f03610810576040516305d7ba1960e11b815260040160405180910390fd5b5f8161081a61037b565b61082491906119ab565b9050612710811115610849576040516306bd81bd60e21b815260040160405180910390fd5b6040805160c0810182526001600160a01b038086168083526020808401878152600185870181815242606088019081525f6080890181815260a08a018281528883526002978890528b83209a518b549a166001600160a01b03199a8b16178b5595518a8601559251958901805496151560ff19909716969096179095555160038801555160048088019190915591516005909601959095558054948501815590527f8a35acfbc15ff81a39ae7d344fd709f28e8600b4aa8c65c6b64bfe7fe36bd19b90920180549091168217905590517f56ef0a10aee7f094f2e81758ee977e1638d6197b6e92859b50cfc0ffebb30e94906109489085815260200190565b60405180910390a2505050565b61095d610f50565b5f546001600160a01b03163314610986576040516282b42960e81b815260040160405180910390fd5b61098e610bb4565b6109ab57604051636f73fdaf60e11b815260040160405180910390fd5b6004545f90819067ffffffffffffffff8111156109ca576109ca611ac1565b6040519080825280602002602001820160405280156109f3578160200160208202803683370190505b5090505f5b600454811015610a7e57610a3160048281548110610a1857610a18611983565b5f918252602090912001546001600160a01b0316611545565b828281518110610a4357610a43611983565b602002602001018181525050818181518110610a6157610a61611983565b602002602001015183610a7491906119ab565b92506001016109f8565b505f5b600454811015610b30575f60048281548110610a9f57610a9f611983565b5f9182526020808320909101546001600160a01b03168083526002909152604082206001015490925061271090610ad690876119d5565b610ae091906119ec565b905080848481518110610af557610af5611983565b602002602001015114610b2657610b2682858581518110610b1857610b18611983565b602002602001015183611620565b5050600101610a81565b507fe3f655e86a2d47038eb04f7b87f9dea95da219cebf6126e515c1be343218293d6004610b5c61114e565b604051610b6a929190611ad5565b60405180910390a15050610b8a60015f80516020611b6483398151915255565b565b60048181548110610b9b575f80fd5b5f918252602090912001546001600160a01b0316905081565b5f805b600454811015610c59575f60048281548110610bd557610bd5611983565b5f9182526020822001546001600160a01b03169150610bf38261171a565b6001600160a01b0383165f90815260026020526040812060010154919250818311610c2757610c228383611b02565b610c31565b610c318284611b02565b90506101f4811115610c495760019550505050505090565b505060019092019150610bb79050565b505f905090565b7ff0c57e16840df040f15088dc2f81fe391c3923bec73e23a9662efc9c229c6a008054600160401b810460ff16159067ffffffffffffffff165f81158015610ca55750825b90505f8267ffffffffffffffff166001148015610cc15750303b155b905081158015610ccf575080155b15610ced5760405163f92ee8a960e01b815260040160405180910390fd5b845467ffffffffffffffff191660011785558315610d1757845460ff60401b1916600160401b1785555b610d1f611759565b5f80546001600160a01b0388166001600160a01b03199182161790915560018054909116331790558315610d8d57845460ff60401b19168555604051600181527fc7f505b2f371ae2175ee4913f4499e1f2633a7b5936321eed1cdaeb6115181d29060200160405180910390a15b505050505050565b5f546001600160a01b03163314610dbe576040516282b42960e81b815260040160405180910390fd5b6001600160a01b0381165f908152600260208190526040909120015460ff16610dfa5760405163dee790fb60e01b815260040160405180910390fd5b6001600160a01b0381165f9081526002602081905260408220908101805460ff191690556001018190555b600454811015610f1957816001600160a01b031660048281548110610e4c57610e4c611983565b5f918252602090912001546001600160a01b031603610f115760048054610e7590600190611b02565b81548110610e8557610e85611983565b5f91825260209091200154600480546001600160a01b039092169183908110610eb057610eb0611983565b905f5260205f20015f6101000a8154816001600160a01b0302191690836001600160a01b031602179055506004805480610eec57610eec611b15565b5f8281526020902081015f1990810180546001600160a01b0319169055019055610f19565b600101610e25565b506040516001600160a01b038216907fe71f3a50e5ad81964f352c411f1d45e35438ecd1acecef59ac81d9fbbf6cbc0a905f90a250565b5f80516020611b64833981519152805460011901610f8157604051633ee5aeb560e01b815260040160405180910390fd5b60029055565b5f8054604051632d182be560e21b8152600481018490526001600160a01b039182166024820181905260448201529084169063b460af94906064016020604051808303815f875af1158015610fde573d5f803e3d5ffd5b505050506040513d601f19601f8201168201806040525081019061100291906119be565b90505b92915050565b6001600160a01b0381165f90815260026020908152604080832060039092528220909161103784611545565b90505f83600301544261104a9190611b02565b90505f8111801561105e57505f8460040154115b1561113d575f84600401548311611075575f611084565b60048501546110849084611b02565b905081856004015461109691906119d5565b6110a4826301e133806119d5565b6110af9060646119d5565b6110b991906119ec565b8455600184018390556110ca611769565b6110d6612710856119d5565b6110e091906119ec565b60028501819055845460018601546040805192835260208301919091528101919091526001600160a01b038716907f8fba6965bb87ed104958174573e9aed72332779f1c2138defec56d0960e7e77c9060600160405180910390a2505b506004830155504260039091015550565b6004546060905f9067ffffffffffffffff81111561116e5761116e611ac1565b604051908082528060200260200182016040528015611197578160200160208202803683370190505b5090505f5b6004548110156103da5760025f600483815481106111bc576111bc611983565b5f9182526020808320909101546001600160a01b0316835282019290925260400190206001015482518390839081106111f7576111f7611983565b602090810291909101015260010161119c565b60015f80516020611b6483398151915255565b335f9081526007602052604081205461123990620151806119ab565b421061124f57335f908152600660205260408120555b335f90815260076020908152604080832042905560069091528120546112769084906119ab565b335f9081526005602052604090205490915081111561129757505f92915050565b335f90815260066020526040902055506001919050565b606080600480548060200260200160405190810160405280929190818152602001828054801561130557602002820191905f5260205f20905b81546001600160a01b031681526001909101906020018083116112e7575b50505050509150815167ffffffffffffffff81111561132657611326611ac1565b60405190808252806020026020018201604052801561134f578160200160208202803683370190505b509050825f5b835181101561143c576001845161136c9190611b02565b8103611396578183828151811061138557611385611983565b602002602001018181525050611434565b61271060025f8684815181106113ae576113ae611983565b60200260200101516001600160a01b03166001600160a01b031681526020019081526020015f2060010154866113e491906119d5565b6113ee91906119ec565b83828151811061140057611400611983565b60200260200101818152505082818151811061141e5761141e611983565b6020026020010151826114319190611b02565b91505b600101611355565b5050915091565b5f6114596001600160a01b0384163330856117a4565b60405163095ea7b360e01b81526001600160a01b0385811660048301526024820184905284169063095ea7b3906044016020604051808303815f875af11580156114a5573d5f803e3d5ffd5b505050506040513d601f19601f820116820180604052508101906114c99190611b29565b505f54604051636e553f6560e01b8152600481018490526001600160a01b03918216602482015290851690636e553f65906044016020604051808303815f875af1158015611519573d5f803e3d5ffd5b505050506040513d601f19601f8201168201806040525081019061153d91906119be565b949350505050565b6040516370a0823160e01b81523060048201525f9081906001600160a01b038416906370a0823190602401602060405180830381865afa15801561158b573d5f803e3d5ffd5b505050506040513d601f19601f820116820180604052508101906115af91906119be565b6040516303d1689d60e11b8152600481018290529091506001600160a01b038416906307a2d13a90602401602060405180830381865afa1580156115f5573d5f803e3d5ffd5b505050506040513d601f19601f8201168201806040525081019061161991906119be565b9392505050565b5f836001600160a01b03166338d52e0f6040518163ffffffff1660e01b8152600401602060405180830381865afa15801561165d573d5f803e3d5ffd5b505050506040513d601f19601f820116820180604052508101906116819190611b48565b90506001600160a01b0381166116d65760405162461bcd60e51b8152602060048201526015602482015274496e76616c6964206173736574206164647265737360581b60448201526064015b60405180910390fd5b818310156116fd575f6116e98484611b02565b90506116f6858383611443565b5050611714565b5f6117088385611b02565b9050610d8d8582610f87565b50505050565b5f8061172583611545565b90505f611730611769565b9050805f0361174257505f9392505050565b8061174f612710846119d5565b61153d91906119ec565b6117616117fe565b610b8a611847565b5f805b6004548110156117a05761178c60048281548110610a1857610a18611983565b61179690836119ab565b915060010161176c565b5090565b604080516001600160a01b0385811660248301528416604482015260648082018490528251808303909101815260849091019091526020810180516001600160e01b03166323b872dd60e01b17905261171490859061184f565b7ff0c57e16840df040f15088dc2f81fe391c3923bec73e23a9662efc9c229c6a0054600160401b900460ff16610b8a57604051631afcd79f60e31b815260040160405180910390fd5b61120a6117fe565b5f8060205f8451602086015f885af18061186e576040513d5f823e3d81fd5b50505f513d91508115611885578060011415611892565b6001600160a01b0384163b155b1561171457604051635274afe760e01b81526001600160a01b03851660048201526024016116cd565b6001600160a01b03811681146118cf575f80fd5b50565b5f602082840312156118e2575f80fd5b8135611619816118bb565b5f815180845260208085019450602084015f5b838110156119255781516001600160a01b031687529582019590820190600101611900565b509495945050505050565b602081525f61100260208301846118ed565b5f60208284031215611952575f80fd5b5035919050565b5f806040838503121561196a575f80fd5b8235611975816118bb565b946020939093013593505050565b634e487b7160e01b5f52603260045260245ffd5b634e487b7160e01b5f52601160045260245ffd5b8082018082111561100557611005611997565b5f602082840312156119ce575f80fd5b5051919050565b808202811582820484141761100557611005611997565b5f82611a0657634e487b7160e01b5f52601260045260245ffd5b500490565b5f815480845260208085019450835f5260205f205f5b838110156119255781546001600160a01b031687529582019560019182019101611a21565b5f815180845260208085019450602084015f5b8381101561192557815187529582019590820190600101611a59565b838152606060208201525f611a8d6060830185611a0b565b8281036040840152611a9f8185611a46565b9695505050505050565b838152606060208201525f611a8d60608301856118ed565b634e487b7160e01b5f52604160045260245ffd5b604081525f611ae76040830185611a0b565b8281036020840152611af98185611a46565b95945050505050565b8181038181111561100557611005611997565b634e487b7160e01b5f52603160045260245ffd5b5f60208284031215611b39575f80fd5b81518015158114611619575f80fd5b5f60208284031215611b58575f80fd5b8151611619816118bb56fe9b779b17422d0df92223018b32b4d1fa46e071723d6817e2486d003becc55f00a264697066735822122052ae016257bde181e185551fc9a970e5517d9a79c6e0b0900eeb76ec7c0e3fcb64736f6c63430008160033",
			"opcodes": "PUSH1 0x80 PUSH1 0x40 MSTORE CALLVALUE DUP1 ISZERO PUSH2 0xF JUMPI PUSH0 DUP1 REVERT JUMPDEST POP PUSH2 0x1BB9 DUP1 PUSH2 0x1D PUSH0 CODECOPY PUSH0 RETURN INVALID PUSH1 0x80 PUSH1 0x40 MSTORE CALLVALUE DUP1 ISZERO PUSH2 0xF JUMPI PUSH0 DUP1 REVERT JUMPDEST POP PUSH1 0x4 CALLDATASIZE LT PUSH2 0x127 JUMPI PUSH0 CALLDATALOAD PUSH1 0xE0 SHR DUP1 PUSH4 0xAE2C1D5F GT PUSH2 0xA9 JUMPI DUP1 PUSH4 0xD7BFFC92 GT PUSH2 0x6E JUMPI DUP1 PUSH4 0xD7BFFC92 EQ PUSH2 0x29D JUMPI DUP1 PUSH4 0xE5B0EA7F EQ PUSH2 0x2BC JUMPI DUP1 PUSH4 0xF9759518 EQ PUSH2 0x2DB JUMPI DUP1 PUSH4 0xFB329A29 EQ PUSH2 0x2E3 JUMPI DUP1 PUSH4 0xFD967F47 EQ PUSH2 0x372 JUMPI PUSH0 DUP1 REVERT JUMPDEST DUP1 PUSH4 0xAE2C1D5F EQ PUSH2 0x243 JUMPI DUP1 PUSH4 0xC45A0155 EQ PUSH2 0x25B JUMPI DUP1 PUSH4 0xC4D66DE8 EQ PUSH2 0x26E JUMPI DUP1 PUSH4 0xC85B967D EQ PUSH2 0x281 JUMPI DUP1 PUSH4 0xCEB68C23 EQ PUSH2 0x28A JUMPI PUSH0 DUP1 REVERT JUMPDEST DUP1 PUSH4 0x47E7EF24 GT PUSH2 0xEF JUMPI DUP1 PUSH4 0x47E7EF24 EQ PUSH2 0x1D6 JUMPI DUP1 PUSH4 0x6372DF6A EQ PUSH2 0x1EB JUMPI DUP1 PUSH4 0x7D7C2A1C EQ PUSH2 0x1FE JUMPI DUP1 PUSH4 0x8DA5CB5B EQ PUSH2 0x206 JUMPI DUP1 PUSH4 0x95822242 EQ PUSH2 0x230 JUMPI PUSH0 DUP1 REVERT JUMPDEST DUP1 PUSH4 0x15D3B5D8 EQ PUSH2 0x12B JUMPI DUP1 PUSH4 0x18920915 EQ PUSH2 0x146 JUMPI DUP1 PUSH4 0x201933BF EQ PUSH2 0x18F JUMPI DUP1 PUSH4 0x268257DF EQ PUSH2 0x1A4 JUMPI DUP1 PUSH4 0x2E1A7D4D EQ PUSH2 0x1C3 JUMPI JUMPDEST PUSH0 DUP1 REVERT JUMPDEST PUSH2 0x133 PUSH2 0x37B JUMP JUMPDEST PUSH1 0x40 MLOAD SWAP1 DUP2 MSTORE PUSH1 0x20 ADD JUMPDEST PUSH1 0x40 MLOAD DUP1 SWAP2 SUB SWAP1 RETURN JUMPDEST PUSH2 0x174 PUSH2 0x154 CALLDATASIZE PUSH1 0x4 PUSH2 0x18D2 JUMP JUMPDEST PUSH1 0x3 PUSH1 0x20 MSTORE PUSH0 SWAP1 DUP2 MSTORE PUSH1 0x40 SWAP1 KECCAK256 DUP1 SLOAD PUSH1 0x1 DUP3 ADD SLOAD PUSH1 0x2 SWAP1 SWAP3 ADD SLOAD SWAP1 SWAP2 SWAP1 DUP4 JUMP JUMPDEST PUSH1 0x40 DUP1 MLOAD SWAP4 DUP5 MSTORE PUSH1 0x20 DUP5 ADD SWAP3 SWAP1 SWAP3 MSTORE SWAP1 DUP3 ADD MSTORE PUSH1 0x60 ADD PUSH2 0x13D JUMP JUMPDEST PUSH2 0x197 PUSH2 0x3E0 JUMP JUMPDEST PUSH1 0x40 MLOAD PUSH2 0x13D SWAP2 SWAP1 PUSH2 0x1930 JUMP JUMPDEST PUSH2 0x133 PUSH2 0x1B2 CALLDATASIZE PUSH1 0x4 PUSH2 0x18D2 JUMP JUMPDEST PUSH1 0x7 PUSH1 0x20 MSTORE PUSH0 SWAP1 DUP2 MSTORE PUSH1 0x40 SWAP1 KECCAK256 SLOAD DUP2 JUMP JUMPDEST PUSH2 0x133 PUSH2 0x1D1 CALLDATASIZE PUSH1 0x4 PUSH2 0x1942 JUMP JUMPDEST PUSH2 0x440 JUMP JUMPDEST PUSH2 0x1E9 PUSH2 0x1E4 CALLDATASIZE PUSH1 0x4 PUSH2 0x1959 JUMP JUMPDEST PUSH2 0x5E5 JUMP JUMPDEST STOP JUMPDEST PUSH2 0x1E9 PUSH2 0x1F9 CALLDATASIZE PUSH1 0x4 PUSH2 0x1959 JUMP JUMPDEST PUSH2 0x767 JUMP JUMPDEST PUSH2 0x1E9 PUSH2 0x955 JUMP JUMPDEST PUSH0 SLOAD PUSH2 0x218 SWAP1 PUSH1 0x1 PUSH1 0x1 PUSH1 0xA0 SHL SUB AND DUP2 JUMP JUMPDEST PUSH1 0x40 MLOAD PUSH1 0x1 PUSH1 0x1 PUSH1 0xA0 SHL SUB SWAP1 SWAP2 AND DUP2 MSTORE PUSH1 0x20 ADD PUSH2 0x13D JUMP JUMPDEST PUSH2 0x218 PUSH2 0x23E CALLDATASIZE PUSH1 0x4 PUSH2 0x1942 JUMP JUMPDEST PUSH2 0xB8C JUMP JUMPDEST PUSH2 0x24B PUSH2 0xBB4 JUMP JUMPDEST PUSH1 0x40 MLOAD SWAP1 ISZERO ISZERO DUP2 MSTORE PUSH1 0x20 ADD PUSH2 0x13D JUMP JUMPDEST PUSH1 0x1 SLOAD PUSH2 0x218 SWAP1 PUSH1 0x1 PUSH1 0x1 PUSH1 0xA0 SHL SUB AND DUP2 JUMP JUMPDEST PUSH2 0x1E9 PUSH2 0x27C CALLDATASIZE PUSH1 0x4 PUSH2 0x18D2 JUMP JUMPDEST PUSH2 0xC60 JUMP JUMPDEST PUSH2 0x133 PUSH2 0x1F4 DUP2 JUMP JUMPDEST PUSH2 0x1E9 PUSH2 0x298 CALLDATASIZE PUSH1 0x4 PUSH2 0x18D2 JUMP JUMPDEST PUSH2 0xD95 JUMP JUMPDEST PUSH2 0x133 PUSH2 0x2AB CALLDATASIZE PUSH1 0x4 PUSH2 0x18D2 JUMP JUMPDEST PUSH1 0x5 PUSH1 0x20 MSTORE PUSH0 SWAP1 DUP2 MSTORE PUSH1 0x40 SWAP1 KECCAK256 SLOAD DUP2 JUMP JUMPDEST PUSH2 0x133 PUSH2 0x2CA CALLDATASIZE PUSH1 0x4 PUSH2 0x18D2 JUMP JUMPDEST PUSH1 0x6 PUSH1 0x20 MSTORE PUSH0 SWAP1 DUP2 MSTORE PUSH1 0x40 SWAP1 KECCAK256 SLOAD DUP2 JUMP JUMPDEST PUSH2 0x133 PUSH1 0x64 DUP2 JUMP JUMPDEST PUSH2 0x335 PUSH2 0x2F1 CALLDATASIZE PUSH1 0x4 PUSH2 0x18D2 JUMP JUMPDEST PUSH1 0x2 PUSH1 0x20 DUP2 SWAP1 MSTORE PUSH0 SWAP2 DUP3 MSTORE PUSH1 0x40 SWAP1 SWAP2 KECCAK256 DUP1 SLOAD PUSH1 0x1 DUP3 ADD SLOAD SWAP3 DUP3 ADD SLOAD PUSH1 0x3 DUP4 ADD SLOAD PUSH1 0x4 DUP5 ADD SLOAD PUSH1 0x5 SWAP1 SWAP5 ADD SLOAD PUSH1 0x1 PUSH1 0x1 PUSH1 0xA0 SHL SUB SWAP1 SWAP4 AND SWAP5 SWAP4 PUSH1 0xFF SWAP1 SWAP3 AND SWAP3 SWAP1 SWAP2 SWAP1 DUP7 JUMP JUMPDEST PUSH1 0x40 DUP1 MLOAD PUSH1 0x1 PUSH1 0x1 PUSH1 0xA0 SHL SUB SWAP1 SWAP8 AND DUP8 MSTORE PUSH1 0x20 DUP8 ADD SWAP6 SWAP1 SWAP6 MSTORE SWAP3 ISZERO ISZERO SWAP4 DUP6 ADD SWAP4 SWAP1 SWAP4 MSTORE PUSH1 0x60 DUP5 ADD MSTORE PUSH1 0x80 DUP4 ADD SWAP2 SWAP1 SWAP2 MSTORE PUSH1 0xA0 DUP3 ADD MSTORE PUSH1 0xC0 ADD PUSH2 0x13D JUMP JUMPDEST PUSH2 0x133 PUSH2 0x2710 DUP2 JUMP JUMPDEST PUSH0 DUP1 PUSH0 JUMPDEST PUSH1 0x4 SLOAD DUP2 LT ISZERO PUSH2 0x3DA JUMPI PUSH1 0x2 PUSH0 PUSH1 0x4 DUP4 DUP2 SLOAD DUP2 LT PUSH2 0x39F JUMPI PUSH2 0x39F PUSH2 0x1983 JUMP JUMPDEST PUSH0 SWAP2 DUP3 MSTORE PUSH1 0x20 DUP1 DUP4 KECCAK256 SWAP1 SWAP2 ADD SLOAD PUSH1 0x1 PUSH1 0x1 PUSH1 0xA0 SHL SUB AND DUP4 MSTORE DUP3 ADD SWAP3 SWAP1 SWAP3 MSTORE PUSH1 0x40 ADD SWAP1 KECCAK256 PUSH1 0x1 ADD SLOAD PUSH2 0x3D0 SWAP1 DUP4 PUSH2 0x19AB JUMP JUMPDEST SWAP2 POP PUSH1 0x1 ADD PUSH2 0x37F JUMP JUMPDEST POP SWAP2 SWAP1 POP JUMP JUMPDEST PUSH1 0x60 PUSH1 0x4 DUP1 SLOAD DUP1 PUSH1 0x20 MUL PUSH1 0x20 ADD PUSH1 0x40 MLOAD SWAP1 DUP2 ADD PUSH1 0x40 MSTORE DUP1 SWAP3 SWAP2 SWAP1 DUP2 DUP2 MSTORE PUSH1 0x20 ADD DUP3 DUP1 SLOAD DUP1 ISZERO PUSH2 0x436 JUMPI PUSH1 0x20 MUL DUP3 ADD SWAP2 SWAP1 PUSH0 MSTORE PUSH1 0x20 PUSH0 KECCAK256 SWAP1 JUMPDEST DUP2 SLOAD PUSH1 0x1 PUSH1 0x1 PUSH1 0xA0 SHL SUB AND DUP2 MSTORE PUSH1 0x1 SWAP1 SWAP2 ADD SWAP1 PUSH1 0x20 ADD DUP1 DUP4 GT PUSH2 0x418 JUMPI JUMPDEST POP POP POP POP POP SWAP1 POP SWAP1 JUMP JUMPDEST PUSH0 PUSH2 0x449 PUSH2 0xF50 JUMP JUMPDEST PUSH0 SLOAD PUSH1 0x1 PUSH1 0x1 PUSH1 0xA0 SHL SUB AND CALLER EQ PUSH2 0x472 JUMPI PUSH1 0x40 MLOAD PUSH3 0x82B429 PUSH1 0xE8 SHL DUP2 MSTORE PUSH1 0x4 ADD PUSH1 0x40 MLOAD DUP1 SWAP2 SUB SWAP1 REVERT JUMPDEST DUP2 ISZERO DUP1 PUSH2 0x480 JUMPI POP PUSH2 0x2710 DUP3 GT JUMPDEST ISZERO PUSH2 0x49E JUMPI PUSH1 0x40 MLOAD PUSH4 0x5D7BA19 PUSH1 0xE1 SHL DUP2 MSTORE PUSH1 0x4 ADD PUSH1 0x40 MLOAD DUP1 SWAP2 SUB SWAP1 REVERT JUMPDEST PUSH0 JUMPDEST PUSH1 0x4 SLOAD DUP2 LT ISZERO PUSH2 0x586 JUMPI PUSH0 PUSH1 0x4 DUP3 DUP2 SLOAD DUP2 LT PUSH2 0x4BE JUMPI PUSH2 0x4BE PUSH2 0x1983 JUMP JUMPDEST PUSH0 SWAP2 DUP3 MSTORE PUSH1 0x20 DUP3 KECCAK256 ADD SLOAD DUP2 SLOAD PUSH1 0x40 MLOAD PUSH4 0x70A08231 PUSH1 0xE0 SHL DUP2 MSTORE PUSH1 0x1 PUSH1 0x1 PUSH1 0xA0 SHL SUB SWAP2 DUP3 AND PUSH1 0x4 DUP3 ADD MSTORE SWAP2 AND SWAP3 POP DUP3 SWAP1 PUSH4 0x70A08231 SWAP1 PUSH1 0x24 ADD PUSH1 0x20 PUSH1 0x40 MLOAD DUP1 DUP4 SUB DUP2 DUP7 GAS STATICCALL ISZERO DUP1 ISZERO PUSH2 0x511 JUMPI RETURNDATASIZE PUSH0 DUP1 RETURNDATACOPY RETURNDATASIZE PUSH0 REVERT JUMPDEST POP POP POP POP PUSH1 0x40 MLOAD RETURNDATASIZE PUSH1 0x1F NOT PUSH1 0x1F DUP3 ADD AND DUP3 ADD DUP1 PUSH1 0x40 MSTORE POP DUP2 ADD SWAP1 PUSH2 0x535 SWAP2 SWAP1 PUSH2 0x19BE JUMP JUMPDEST SWAP1 POP PUSH0 PUSH2 0x2710 PUSH2 0x545 DUP8 DUP5 PUSH2 0x19D5 JUMP JUMPDEST PUSH2 0x54F SWAP2 SWAP1 PUSH2 0x19EC JUMP JUMPDEST SWAP1 POP DUP1 ISZERO PUSH2 0x57B JUMPI PUSH0 PUSH2 0x562 DUP5 DUP4 PUSH2 0xF87 JUMP JUMPDEST SWAP1 POP PUSH2 0x56E DUP2 DUP8 PUSH2 0x19AB JUMP JUMPDEST SWAP6 POP PUSH2 0x579 DUP5 PUSH2 0x100B JUMP JUMPDEST POP JUMPDEST POP POP POP PUSH1 0x1 ADD PUSH2 0x4A0 JUMP JUMPDEST POP PUSH32 0x45592CC46B51F1666E758017366A28BBA78BE1A895176072EE1CB50CF10A39A3 DUP3 PUSH1 0x4 PUSH2 0x5B3 PUSH2 0x114E JUMP JUMPDEST PUSH1 0x40 MLOAD PUSH2 0x5C2 SWAP4 SWAP3 SWAP2 SWAP1 PUSH2 0x1A75 JUMP JUMPDEST PUSH1 0x40 MLOAD DUP1 SWAP2 SUB SWAP1 LOG1 PUSH2 0x5E0 PUSH1 0x1 PUSH0 DUP1 MLOAD PUSH1 0x20 PUSH2 0x1B64 DUP4 CODECOPY DUP2 MLOAD SWAP2 MSTORE SSTORE JUMP JUMPDEST SWAP2 SWAP1 POP JUMP JUMPDEST PUSH2 0x5ED PUSH2 0xF50 JUMP JUMPDEST PUSH0 SLOAD PUSH1 0x1 PUSH1 0x1 PUSH1 0xA0 SHL SUB AND CALLER EQ PUSH2 0x616 JUMPI PUSH1 0x40 MLOAD PUSH3 0x82B429 PUSH1 0xE8 SHL DUP2 MSTORE PUSH1 0x4 ADD PUSH1 0x40 MLOAD DUP1 SWAP2 SUB SWAP1 REVERT JUMPDEST DUP1 PUSH2 0x620 DUP2 PUSH2 0x121D JUMP JUMPDEST PUSH2 0x63D JUMPI PUSH1 0x40 MLOAD PUSH4 0x652F4C5 PUSH1 0xE2 SHL DUP2 MSTORE PUSH1 0x4 ADD PUSH1 0x40 MLOAD DUP1 SWAP2 SUB SWAP1 REVERT JUMPDEST DUP2 PUSH0 SUB PUSH2 0x65D JUMPI PUSH1 0x40 MLOAD PUSH4 0x5D7BA19 PUSH1 0xE1 SHL DUP2 MSTORE PUSH1 0x4 ADD PUSH1 0x40 MLOAD DUP1 SWAP2 SUB SWAP1 REVERT JUMPDEST PUSH0 DUP1 PUSH2 0x668 DUP5 PUSH2 0x12AE JUMP JUMPDEST SWAP1 SWAP3 POP SWAP1 POP PUSH0 DUP1 JUMPDEST DUP4 MLOAD DUP2 LT ISZERO PUSH2 0x70D JUMPI PUSH0 DUP4 DUP3 DUP2 MLOAD DUP2 LT PUSH2 0x68C JUMPI PUSH2 0x68C PUSH2 0x1983 JUMP JUMPDEST PUSH1 0x20 MUL PUSH1 0x20 ADD ADD MLOAD GT ISZERO PUSH2 0x705 JUMPI PUSH2 0x6D7 DUP5 DUP3 DUP2 MLOAD DUP2 LT PUSH2 0x6AF JUMPI PUSH2 0x6AF PUSH2 0x1983 JUMP JUMPDEST PUSH1 0x20 MUL PUSH1 0x20 ADD ADD MLOAD DUP9 DUP6 DUP5 DUP2 MLOAD DUP2 LT PUSH2 0x6CA JUMPI PUSH2 0x6CA PUSH2 0x1983 JUMP JUMPDEST PUSH1 0x20 MUL PUSH1 0x20 ADD ADD MLOAD PUSH2 0x1443 JUMP JUMPDEST PUSH2 0x6E1 SWAP1 DUP4 PUSH2 0x19AB JUMP JUMPDEST SWAP2 POP PUSH2 0x705 DUP5 DUP3 DUP2 MLOAD DUP2 LT PUSH2 0x6F8 JUMPI PUSH2 0x6F8 PUSH2 0x1983 JUMP JUMPDEST PUSH1 0x20 MUL PUSH1 0x20 ADD ADD MLOAD PUSH2 0x100B JUMP JUMPDEST PUSH1 0x1 ADD PUSH2 0x670 JUMP JUMPDEST POP PUSH32 0x845B828DF9970F41B76EAC93108A7B69B94A96EF68EDEE00DD45A86E3CC590CB DUP6 DUP5 DUP5 PUSH1 0x40 MLOAD PUSH2 0x741 SWAP4 SWAP3 SWAP2 SWAP1 PUSH2 0x1AA9 JUMP JUMPDEST PUSH1 0x40 MLOAD DUP1 SWAP2 SUB SWAP1 LOG1 POP POP POP POP PUSH2 0x763 PUSH1 0x1 PUSH0 DUP1 MLOAD PUSH1 0x20 PUSH2 0x1B64 DUP4 CODECOPY DUP2 MLOAD SWAP2 MSTORE SSTORE JUMP JUMPDEST POP POP JUMP JUMPDEST PUSH0 SLOAD PUSH1 0x1 PUSH1 0x1 PUSH1 0xA0 SHL SUB AND CALLER EQ PUSH2 0x790 JUMPI PUSH1 0x40 MLOAD PUSH3 0x82B429 PUSH1 0xE8 SHL DUP2 MSTORE PUSH1 0x4 ADD PUSH1 0x40 MLOAD DUP1 SWAP2 SUB SWAP1 REVERT JUMPDEST PUSH1 0x1 PUSH1 0x1 PUSH1 0xA0 SHL SUB DUP3 AND PUSH0 SWAP1 DUP2 MSTORE PUSH1 0x2 PUSH1 0x20 DUP2 SWAP1 MSTORE PUSH1 0x40 SWAP1 SWAP2 KECCAK256 ADD SLOAD PUSH1 0xFF AND ISZERO PUSH2 0x7CD JUMPI PUSH1 0x40 MLOAD PUSH4 0xCB3E97F PUSH1 0xE3 SHL DUP2 MSTORE PUSH1 0x4 ADD PUSH1 0x40 MLOAD DUP1 SWAP2 SUB SWAP1 REVERT JUMPDEST PUSH2 0x2710 DUP2 GT ISZERO PUSH2 0x7F0 JUMPI PUSH1 0x40 MLOAD PUSH4 0x56E70FBF PUSH1 0xE1 SHL DUP2 MSTORE PUSH1 0x4 ADD PUSH1 0x40 MLOAD DUP1 SWAP2 SUB SWAP1 REVERT JUMPDEST DUP1 PUSH0 SUB PUSH2 0x810 JUMPI PUSH1 0x40 MLOAD PUSH4 0x5D7BA19 PUSH1 0xE1 SHL DUP2 MSTORE PUSH1 0x4 ADD PUSH1 0x40 MLOAD DUP1 SWAP2 SUB SWAP1 REVERT JUMPDEST PUSH0 DUP2 PUSH2 0x81A PUSH2 0x37B JUMP JUMPDEST PUSH2 0x824 SWAP2 SWAP1 PUSH2 0x19AB JUMP JUMPDEST SWAP1 POP PUSH2 0x2710 DUP2 GT ISZERO PUSH2 0x849 JUMPI PUSH1 0x40 MLOAD PUSH4 0x6BD81BD PUSH1 0xE2 SHL DUP2 MSTORE PUSH1 0x4 ADD PUSH1 0x40 MLOAD DUP1 SWAP2 SUB SWAP1 REVERT JUMPDEST PUSH1 0x40 DUP1 MLOAD PUSH1 0xC0 DUP2 ADD DUP3 MSTORE PUSH1 0x1 PUSH1 0x1 PUSH1 0xA0 SHL SUB DUP1 DUP7 AND DUP1 DUP4 MSTORE PUSH1 0x20 DUP1 DUP5 ADD DUP8 DUP2 MSTORE PUSH1 0x1 DUP6 DUP8 ADD DUP2 DUP2 MSTORE TIMESTAMP PUSH1 0x60 DUP9 ADD SWAP1 DUP2 MSTORE PUSH0 PUSH1 0x80 DUP10 ADD DUP2 DUP2 MSTORE PUSH1 0xA0 DUP11 ADD DUP3 DUP2 MSTORE DUP9 DUP4 MSTORE PUSH1 0x2 SWAP8 DUP9 SWAP1 MSTORE DUP12 DUP4 KECCAK256 SWAP11 MLOAD DUP12 SLOAD SWAP11 AND PUSH1 0x1 PUSH1 0x1 PUSH1 0xA0 SHL SUB NOT SWAP11 DUP12 AND OR DUP12 SSTORE SWAP6 MLOAD DUP11 DUP7 ADD SSTORE SWAP3 MLOAD SWAP6 DUP10 ADD DUP1 SLOAD SWAP7 ISZERO ISZERO PUSH1 0xFF NOT SWAP1 SWAP8 AND SWAP7 SWAP1 SWAP7 OR SWAP1 SWAP6 SSTORE MLOAD PUSH1 0x3 DUP9 ADD SSTORE MLOAD PUSH1 0x4 DUP1 DUP9 ADD SWAP2 SWAP1 SWAP2 SSTORE SWAP2 MLOAD PUSH1 0x5 SWAP1 SWAP7 ADD SWAP6 SWAP1 SWAP6 SSTORE DUP1 SLOAD SWAP5 DUP6 ADD DUP2 SSTORE SWAP1 MSTORE PUSH32 0x8A35ACFBC15FF81A39AE7D344FD709F28E8600B4AA8C65C6B64BFE7FE36BD19B SWAP1 SWAP3 ADD DUP1 SLOAD SWAP1 SWAP2 AND DUP3 OR SWAP1 SSTORE SWAP1 MLOAD PUSH32 0x56EF0A10AEE7F094F2E81758EE977E1638D6197B6E92859B50CFC0FFEBB30E94 SWAP1 PUSH2 0x948 SWAP1 DUP6 DUP2 MSTORE PUSH1 0x20 ADD SWAP1 JUMP JUMPDEST PUSH1 0x40 MLOAD DUP1 SWAP2 SUB SWAP1 LOG2 POP POP POP JUMP JUMPDEST PUSH2 0x95D PUSH2 0xF50 JUMP JUMPDEST PUSH0 SLOAD PUSH1 0x1 PUSH1 0x1 PUSH1 0xA0 SHL SUB AND CALLER EQ PUSH2 0x986 JUMPI PUSH1 0x40 MLOAD PUSH3 0x82B429 PUSH1 0xE8 SHL DUP2 MSTORE PUSH1 0x4 ADD PUSH1 0x40 MLOAD DUP1 SWAP2 SUB SWAP1 REVERT JUMPDEST PUSH2 0x98E PUSH2 0xBB4 JUMP JUMPDEST PUSH2 0x9AB JUMPI PUSH1 0x40 MLOAD PUSH4 0x6F73FDAF PUSH1 0xE1 SHL DUP2 MSTORE PUSH1 0x4 ADD PUSH1 0x40 MLOAD DUP1 SWAP2 SUB SWAP1 REVERT JUMPDEST PUSH1 0x4 SLOAD PUSH0 SWAP1 DUP2 SWAP1 PUSH8 0xFFFFFFFFFFFFFFFF DUP2 GT ISZERO PUSH2 0x9CA JUMPI PUSH2 0x9CA PUSH2 0x1AC1 JUMP JUMPDEST PUSH1 0x40 MLOAD SWAP1 DUP1 DUP3 MSTORE DUP1 PUSH1 0x20 MUL PUSH1 0x20 ADD DUP3 ADD PUSH1 0x40 MSTORE DUP1 ISZERO PUSH2 0x9F3 JUMPI DUP2 PUSH1 0x20 ADD PUSH1 0x20 DUP3 MUL DUP1 CALLDATASIZE DUP4 CALLDATACOPY ADD SWAP1 POP JUMPDEST POP SWAP1 POP PUSH0 JUMPDEST PUSH1 0x4 SLOAD DUP2 LT ISZERO PUSH2 0xA7E JUMPI PUSH2 0xA31 PUSH1 0x4 DUP3 DUP2 SLOAD DUP2 LT PUSH2 0xA18 JUMPI PUSH2 0xA18 PUSH2 0x1983 JUMP JUMPDEST PUSH0 SWAP2 DUP3 MSTORE PUSH1 0x20 SWAP1 SWAP2 KECCAK256 ADD SLOAD PUSH1 0x1 PUSH1 0x1 PUSH1 0xA0 SHL SUB AND PUSH2 0x1545 JUMP JUMPDEST DUP3 DUP3 DUP2 MLOAD DUP2 LT PUSH2 0xA43 JUMPI PUSH2 0xA43 PUSH2 0x1983 JUMP JUMPDEST PUSH1 0x20 MUL PUSH1 0x20 ADD ADD DUP2 DUP2 MSTORE POP POP DUP2 DUP2 DUP2 MLOAD DUP2 LT PUSH2 0xA61 JUMPI PUSH2 0xA61 PUSH2 0x1983 JUMP JUMPDEST PUSH1 0x20 MUL PUSH1 0x20 ADD ADD MLOAD DUP4 PUSH2 0xA74 SWAP2 SWAP1 PUSH2 0x19AB JUMP JUMPDEST SWAP3 POP PUSH1 0x1 ADD PUSH2 0x9F8 JUMP JUMPDEST POP PUSH0 JUMPDEST PUSH1 0x4 SLOAD DUP2 LT ISZERO PUSH2 0xB30 JUMPI PUSH0 PUSH1 0x4 DUP3 DUP2 SLOAD DUP2 LT PUSH2 0xA9F JUMPI PUSH2 0xA9F PUSH2 0x1983 JUMP JUMPDEST PUSH0 SWAP2 DUP3 MSTORE PUSH1 0x20 DUP1 DUP4 KECCAK256 SWAP1 SWAP2 ADD SLOAD PUSH1 0x1 PUSH1 0x1 PUSH1 0xA0 SHL SUB AND DUP1 DUP4 MSTORE PUSH1 0x2 SWAP1 SWAP2 MSTORE PUSH1 0x40 DUP3 KECCAK256 PUSH1 0x1 ADD SLOAD SWAP1 SWAP3 POP PUSH2 0x2710 SWAP1 PUSH2 0xAD6 SWAP1 DUP8 PUSH2 0x19D5 JUMP JUMPDEST PUSH2 0xAE0 SWAP2 SWAP1 PUSH2 0x19EC JUMP JUMPDEST SWAP1 POP DUP1 DUP5 DUP5 DUP2 MLOAD DUP2 LT PUSH2 0xAF5 JUMPI PUSH2 0xAF5 PUSH2 0x1983 JUMP JUMPDEST PUSH1 0x20 MUL PUSH1 0x20 ADD ADD MLOAD EQ PUSH2 0xB26 JUMPI PUSH2 0xB26 DUP3 DUP6 DUP6 DUP2 MLOAD DUP2 LT PUSH2 0xB18 JUMPI PUSH2 0xB18 PUSH2 0x1983 JUMP JUMPDEST PUSH1 0x20 MUL PUSH1 0x20 ADD ADD MLOAD DUP4 PUSH2 0x1620 JUMP JUMPDEST POP POP PUSH1 0x1 ADD PUSH2 0xA81 JUMP JUMPDEST POP PUSH32 0xE3F655E86A2D47038EB04F7B87F9DEA95DA219CEBF6126E515C1BE343218293D PUSH1 0x4 PUSH2 0xB5C PUSH2 0x114E JUMP JUMPDEST PUSH1 0x40 MLOAD PUSH2 0xB6A SWAP3 SWAP2 SWAP1 PUSH2 0x1AD5 JUMP JUMPDEST PUSH1 0x40 MLOAD DUP1 SWAP2 SUB SWAP1 LOG1 POP POP PUSH2 0xB8A PUSH1 0x1 PUSH0 DUP1 MLOAD PUSH1 0x20 PUSH2 0x1B64 DUP4 CODECOPY DUP2 MLOAD SWAP2 MSTORE SSTORE JUMP JUMPDEST JUMP JUMPDEST PUSH1 0x4 DUP2 DUP2 SLOAD DUP2 LT PUSH2 0xB9B JUMPI PUSH0 DUP1 REVERT JUMPDEST PUSH0 SWAP2 DUP3 MSTORE PUSH1 0x20 SWAP1 SWAP2 KECCAK256 ADD SLOAD PUSH1 0x1 PUSH1 0x1 PUSH1 0xA0 SHL SUB AND SWAP1 POP DUP2 JUMP JUMPDEST PUSH0 DUP1 JUMPDEST PUSH1 0x4 SLOAD DUP2 LT ISZERO PUSH2 0xC59 JUMPI PUSH0 PUSH1 0x4 DUP3 DUP2 SLOAD DUP2 LT PUSH2 0xBD5 JUMPI PUSH2 0xBD5 PUSH2 0x1983 JUMP JUMPDEST PUSH0 SWAP2 DUP3 MSTORE PUSH1 0x20 DUP3 KECCAK256 ADD SLOAD PUSH1 0x1 PUSH1 0x1 PUSH1 0xA0 SHL SUB AND SWAP2 POP PUSH2 0xBF3 DUP3 PUSH2 0x171A JUMP JUMPDEST PUSH1 0x1 PUSH1 0x1 PUSH1 0xA0 SHL SUB DUP4 AND PUSH0 SWAP1 DUP2 MSTORE PUSH1 0x2 PUSH1 0x20 MSTORE PUSH1 0x40 DUP2 KECCAK256 PUSH1 0x1 ADD SLOAD SWAP2 SWAP3 POP DUP2 DUP4 GT PUSH2 0xC27 JUMPI PUSH2 0xC22 DUP4 DUP4 PUSH2 0x1B02 JUMP JUMPDEST PUSH2 0xC31 JUMP JUMPDEST PUSH2 0xC31 DUP3 DUP5 PUSH2 0x1B02 JUMP JUMPDEST SWAP1 POP PUSH2 0x1F4 DUP2 GT ISZERO PUSH2 0xC49 JUMPI PUSH1 0x1 SWAP6 POP POP POP POP POP POP SWAP1 JUMP JUMPDEST POP POP PUSH1 0x1 SWAP1 SWAP3 ADD SWAP2 POP PUSH2 0xBB7 SWAP1 POP JUMP JUMPDEST POP PUSH0 SWAP1 POP SWAP1 JUMP JUMPDEST PUSH32 0xF0C57E16840DF040F15088DC2F81FE391C3923BEC73E23A9662EFC9C229C6A00 DUP1 SLOAD PUSH1 0x1 PUSH1 0x40 SHL DUP2 DIV PUSH1 0xFF AND ISZERO SWAP1 PUSH8 0xFFFFFFFFFFFFFFFF AND PUSH0 DUP2 ISZERO DUP1 ISZERO PUSH2 0xCA5 JUMPI POP DUP3 JUMPDEST SWAP1 POP PUSH0 DUP3 PUSH8 0xFFFFFFFFFFFFFFFF AND PUSH1 0x1 EQ DUP1 ISZERO PUSH2 0xCC1 JUMPI POP ADDRESS EXTCODESIZE ISZERO JUMPDEST SWAP1 POP DUP2 ISZERO DUP1 ISZERO PUSH2 0xCCF JUMPI POP DUP1 ISZERO JUMPDEST ISZERO PUSH2 0xCED JUMPI PUSH1 0x40 MLOAD PUSH4 0xF92EE8A9 PUSH1 0xE0 SHL DUP2 MSTORE PUSH1 0x4 ADD PUSH1 0x40 MLOAD DUP1 SWAP2 SUB SWAP1 REVERT JUMPDEST DUP5 SLOAD PUSH8 0xFFFFFFFFFFFFFFFF NOT AND PUSH1 0x1 OR DUP6 SSTORE DUP4 ISZERO PUSH2 0xD17 JUMPI DUP5 SLOAD PUSH1 0xFF PUSH1 0x40 SHL NOT AND PUSH1 0x1 PUSH1 0x40 SHL OR DUP6 SSTORE JUMPDEST PUSH2 0xD1F PUSH2 0x1759 JUMP JUMPDEST PUSH0 DUP1 SLOAD PUSH1 0x1 PUSH1 0x1 PUSH1 0xA0 SHL SUB DUP9 AND PUSH1 0x1 PUSH1 0x1 PUSH1 0xA0 SHL SUB NOT SWAP2 DUP3 AND OR SWAP1 SWAP2 SSTORE PUSH1 0x1 DUP1 SLOAD SWAP1 SWAP2 AND CALLER OR SWAP1 SSTORE DUP4 ISZERO PUSH2 0xD8D JUMPI DUP5 SLOAD PUSH1 0xFF PUSH1 0x40 SHL NOT AND DUP6 SSTORE PUSH1 0x40 MLOAD PUSH1 0x1 DUP2 MSTORE PUSH32 0xC7F505B2F371AE2175EE4913F4499E1F2633A7B5936321EED1CDAEB6115181D2 SWAP1 PUSH1 0x20 ADD PUSH1 0x40 MLOAD DUP1 SWAP2 SUB SWAP1 LOG1 JUMPDEST POP POP POP POP POP POP JUMP JUMPDEST PUSH0 SLOAD PUSH1 0x1 PUSH1 0x1 PUSH1 0xA0 SHL SUB AND CALLER EQ PUSH2 0xDBE JUMPI PUSH1 0x40 MLOAD PUSH3 0x82B429 PUSH1 0xE8 SHL DUP2 MSTORE PUSH1 0x4 ADD PUSH1 0x40 MLOAD DUP1 SWAP2 SUB SWAP1 REVERT JUMPDEST PUSH1 0x1 PUSH1 0x1 PUSH1 0xA0 SHL SUB DUP2 AND PUSH0 SWAP1 DUP2 MSTORE PUSH1 0x2 PUSH1 0x20 DUP2 SWAP1 MSTORE PUSH1 0x40 SWAP1 SWAP2 KECCAK256 ADD SLOAD PUSH1 0xFF AND PUSH2 0xDFA JUMPI PUSH1 0x40 MLOAD PUSH4 0xDEE790FB PUSH1 0xE0 SHL DUP2 MSTORE PUSH1 0x4 ADD PUSH1 0x40 MLOAD DUP1 SWAP2 SUB SWAP1 REVERT JUMPDEST PUSH1 0x1 PUSH1 0x1 PUSH1 0xA0 SHL SUB DUP2 AND PUSH0 SWAP1 DUP2 MSTORE PUSH1 0x2 PUSH1 0x20 DUP2 SWAP1 MSTORE PUSH1 0x40 DUP3 KECCAK256 SWAP1 DUP2 ADD DUP1 SLOAD PUSH1 0xFF NOT AND SWAP1 SSTORE PUSH1 0x1 ADD DUP2 SWAP1 SSTORE JUMPDEST PUSH1 0x4 SLOAD DUP2 LT ISZERO PUSH2 0xF19 JUMPI DUP2 PUSH1 0x1 PUSH1 0x1 PUSH1 0xA0 SHL SUB AND PUSH1 0x4 DUP3 DUP2 SLOAD DUP2 LT PUSH2 0xE4C JUMPI PUSH2 0xE4C PUSH2 0x1983 JUMP JUMPDEST PUSH0 SWAP2 DUP3 MSTORE PUSH1 0x20 SWAP1 SWAP2 KECCAK256 ADD SLOAD PUSH1 0x1 PUSH1 0x1 PUSH1 0xA0 SHL SUB AND SUB PUSH2 0xF11 JUMPI PUSH1 0x4 DUP1 SLOAD PUSH2 0xE75 SWAP1 PUSH1 0x1 SWAP1 PUSH2 0x1B02 JUMP JUMPDEST DUP2 SLOAD DUP2 LT PUSH2 0xE85 JUMPI PUSH2 0xE85 PUSH2 0x1983 JUMP JUMPDEST PUSH0 SWAP2 DUP3 MSTORE PUSH1 0x20 SWAP1 SWAP2 KECCAK256 ADD SLOAD PUSH1 0x4 DUP1 SLOAD PUSH1 0x1 PUSH1 0x1 PUSH1 0xA0 SHL SUB SWAP1 SWAP3 AND SWAP2 DUP4 SWAP1 DUP2 LT PUSH2 0xEB0 JUMPI PUSH2 0xEB0 PUSH2 0x1983 JUMP JUMPDEST SWAP1 PUSH0 MSTORE PUSH1 0x20 PUSH0 KECCAK256 ADD PUSH0 PUSH2 0x100 EXP DUP2 SLOAD DUP2 PUSH1 0x1 PUSH1 0x1 PUSH1 0xA0 SHL SUB MUL NOT AND SWAP1 DUP4 PUSH1 0x1 PUSH1 0x1 PUSH1 0xA0 SHL SUB AND MUL OR SWAP1 SSTORE POP PUSH1 0x4 DUP1 SLOAD DUP1 PUSH2 0xEEC JUMPI PUSH2 0xEEC PUSH2 0x1B15 JUMP JUMPDEST PUSH0 DUP3 DUP2 MSTORE PUSH1 0x20 SWAP1 KECCAK256 DUP2 ADD PUSH0 NOT SWAP1 DUP2 ADD DUP1 SLOAD PUSH1 0x1 PUSH1 0x1 PUSH1 0xA0 SHL SUB NOT AND SWAP1 SSTORE ADD SWAP1 SSTORE PUSH2 0xF19 JUMP JUMPDEST PUSH1 0x1 ADD PUSH2 0xE25 JUMP JUMPDEST POP PUSH1 0x40 MLOAD PUSH1 0x1 PUSH1 0x1 PUSH1 0xA0 SHL SUB DUP3 AND SWAP1 PUSH32 0xE71F3A50E5AD81964F352C411F1D45E35438ECD1ACECEF59AC81D9FBBF6CBC0A SWAP1 PUSH0 SWAP1 LOG2 POP JUMP JUMPDEST PUSH0 DUP1 MLOAD PUSH1 0x20 PUSH2 0x1B64 DUP4 CODECOPY DUP2 MLOAD SWAP2 MSTORE DUP1 SLOAD PUSH1 0x1 NOT ADD PUSH2 0xF81 JUMPI PUSH1 0x40 MLOAD PUSH4 0x3EE5AEB5 PUSH1 0xE0 SHL DUP2 MSTORE PUSH1 0x4 ADD PUSH1 0x40 MLOAD DUP1 SWAP2 SUB SWAP1 REVERT JUMPDEST PUSH1 0x2 SWAP1 SSTORE JUMP JUMPDEST PUSH0 DUP1 SLOAD PUSH1 0x40 MLOAD PUSH4 0x2D182BE5 PUSH1 0xE2 SHL DUP2 MSTORE PUSH1 0x4 DUP2 ADD DUP5 SWAP1 MSTORE PUSH1 0x1 PUSH1 0x1 PUSH1 0xA0 SHL SUB SWAP2 DUP3 AND PUSH1 0x24 DUP3 ADD DUP2 SWAP1 MSTORE PUSH1 0x44 DUP3 ADD MSTORE SWAP1 DUP5 AND SWAP1 PUSH4 0xB460AF94 SWAP1 PUSH1 0x64 ADD PUSH1 0x20 PUSH1 0x40 MLOAD DUP1 DUP4 SUB DUP2 PUSH0 DUP8 GAS CALL ISZERO DUP1 ISZERO PUSH2 0xFDE JUMPI RETURNDATASIZE PUSH0 DUP1 RETURNDATACOPY RETURNDATASIZE PUSH0 REVERT JUMPDEST POP POP POP POP PUSH1 0x40 MLOAD RETURNDATASIZE PUSH1 0x1F NOT PUSH1 0x1F DUP3 ADD AND DUP3 ADD DUP1 PUSH1 0x40 MSTORE POP DUP2 ADD SWAP1 PUSH2 0x1002 SWAP2 SWAP1 PUSH2 0x19BE JUMP JUMPDEST SWAP1 POP JUMPDEST SWAP3 SWAP2 POP POP JUMP JUMPDEST PUSH1 0x1 PUSH1 0x1 PUSH1 0xA0 SHL SUB DUP2 AND PUSH0 SWAP1 DUP2 MSTORE PUSH1 0x2 PUSH1 0x20 SWAP1 DUP2 MSTORE PUSH1 0x40 DUP1 DUP4 KECCAK256 PUSH1 0x3 SWAP1 SWAP3 MSTORE DUP3 KECCAK256 SWAP1 SWAP2 PUSH2 0x1037 DUP5 PUSH2 0x1545 JUMP JUMPDEST SWAP1 POP PUSH0 DUP4 PUSH1 0x3 ADD SLOAD TIMESTAMP PUSH2 0x104A SWAP2 SWAP1 PUSH2 0x1B02 JUMP JUMPDEST SWAP1 POP PUSH0 DUP2 GT DUP1 ISZERO PUSH2 0x105E JUMPI POP PUSH0 DUP5 PUSH1 0x4 ADD SLOAD GT JUMPDEST ISZERO PUSH2 0x113D JUMPI PUSH0 DUP5 PUSH1 0x4 ADD SLOAD DUP4 GT PUSH2 0x1075 JUMPI PUSH0 PUSH2 0x1084 JUMP JUMPDEST PUSH1 0x4 DUP6 ADD SLOAD PUSH2 0x1084 SWAP1 DUP5 PUSH2 0x1B02 JUMP JUMPDEST SWAP1 POP DUP2 DUP6 PUSH1 0x4 ADD SLOAD PUSH2 0x1096 SWAP2 SWAP1 PUSH2 0x19D5 JUMP JUMPDEST PUSH2 0x10A4 DUP3 PUSH4 0x1E13380 PUSH2 0x19D5 JUMP JUMPDEST PUSH2 0x10AF SWAP1 PUSH1 0x64 PUSH2 0x19D5 JUMP JUMPDEST PUSH2 0x10B9 SWAP2 SWAP1 PUSH2 0x19EC JUMP JUMPDEST DUP5 SSTORE PUSH1 0x1 DUP5 ADD DUP4 SWAP1 SSTORE PUSH2 0x10CA PUSH2 0x1769 JUMP JUMPDEST PUSH2 0x10D6 PUSH2 0x2710 DUP6 PUSH2 0x19D5 JUMP JUMPDEST PUSH2 0x10E0 SWAP2 SWAP1 PUSH2 0x19EC JUMP JUMPDEST PUSH1 0x2 DUP6 ADD DUP2 SWAP1 SSTORE DUP5 SLOAD PUSH1 0x1 DUP7 ADD SLOAD PUSH1 0x40 DUP1 MLOAD SWAP3 DUP4 MSTORE PUSH1 0x20 DUP4 ADD SWAP2 SWAP1 SWAP2 MSTORE DUP2 ADD SWAP2 SWAP1 SWAP2 MSTORE PUSH1 0x1 PUSH1 0x1 PUSH1 0xA0 SHL SUB DUP8 AND SWAP1 PUSH32 0x8FBA6965BB87ED104958174573E9AED72332779F1C2138DEFEC56D0960E7E77C SWAP1 PUSH1 0x60 ADD PUSH1 0x40 MLOAD DUP1 SWAP2 SUB SWAP1 LOG2 POP JUMPDEST POP PUSH1 0x4 DUP4 ADD SSTORE POP TIMESTAMP PUSH1 0x3 SWAP1 SWAP2 ADD SSTORE POP JUMP JUMPDEST PUSH1 0x4 SLOAD PUSH1 0x60 SWAP1 PUSH0 SWAP1 PUSH8 0xFFFFFFFFFFFFFFFF DUP2 GT ISZERO PUSH2 0x116E JUMPI PUSH2 0x116E PUSH2 0x1AC1 JUMP JUMPDEST PUSH1 0x40 MLOAD SWAP1 DUP1 DUP3 MSTORE DUP1 PUSH1 0x20 MUL PUSH1 0x20 ADD DUP3 ADD PUSH1 0x40 MSTORE DUP1 ISZERO PUSH2 0x1197 JUMPI DUP2 PUSH1 0x20 ADD PUSH1 0x20 DUP3 MUL DUP1 CALLDATASIZE DUP4 CALLDATACOPY ADD SWAP1 POP JUMPDEST POP SWAP1 POP PUSH0 JUMPDEST PUSH1 0x4 SLOAD DUP2 LT ISZERO PUSH2 0x3DA JUMPI PUSH1 0x2 PUSH0 PUSH1 0x4 DUP4 DUP2 SLOAD DUP2 LT PUSH2 0x11BC JUMPI PUSH2 0x11BC PUSH2 0x1983 JUMP JUMPDEST PUSH0 SWAP2 DUP3 MSTORE PUSH1 0x20 DUP1 DUP4 KECCAK256 SWAP1 SWAP2 ADD SLOAD PUSH1 0x1 PUSH1 0x1 PUSH1 0xA0 SHL SUB AND DUP4 MSTORE DUP3 ADD SWAP3 SWAP1 SWAP3 MSTORE PUSH1 0x40 ADD SWAP1 KECCAK256 PUSH1 0x1 ADD SLOAD DUP3 MLOAD DUP4 SWAP1 DUP4 SWAP1 DUP2 LT PUSH2 0x11F7 JUMPI PUSH2 0x11F7 PUSH2 0x1983 JUMP JUMPDEST PUSH1 0x20 SWAP1 DUP2 MUL SWAP2 SWAP1 SWAP2 ADD ADD MSTORE PUSH1 0x1 ADD PUSH2 0x119C JUMP JUMPDEST PUSH1 0x1 PUSH0 DUP1 MLOAD PUSH1 0x20 PUSH2 0x1B64 DUP4 CODECOPY DUP2 MLOAD SWAP2 MSTORE SSTORE JUMP JUMPDEST CALLER PUSH0 SWAP1 DUP2 MSTORE PUSH1 0x7 PUSH1 0x20 MSTORE PUSH1 0x40 DUP2 KECCAK256 SLOAD PUSH2 0x1239 SWAP1 PUSH3 0x15180 PUSH2 0x19AB JUMP JUMPDEST TIMESTAMP LT PUSH2 0x124F JUMPI CALLER PUSH0 SWAP1 DUP2 MSTORE PUSH1 0x6 PUSH1 0x20 MSTORE PUSH1 0x40 DUP2 KECCAK256 SSTORE JUMPDEST CALLER PUSH0 SWAP1 DUP2 MSTORE PUSH1 0x7 PUSH1 0x20 SWAP1 DUP2 MSTORE PUSH1 0x40 DUP1 DUP4 KECCAK256 TIMESTAMP SWAP1 SSTORE PUSH1 0x6 SWAP1 SWAP2 MSTORE DUP2 KECCAK256 SLOAD PUSH2 0x1276 SWAP1 DUP5 SWAP1 PUSH2 0x19AB JUMP JUMPDEST CALLER PUSH0 SWAP1 DUP2 MSTORE PUSH1 0x5 PUSH1 0x20 MSTORE PUSH1 0x40 SWAP1 KECCAK256 SLOAD SWAP1 SWAP2 POP DUP2 GT ISZERO PUSH2 0x1297 JUMPI POP PUSH0 SWAP3 SWAP2 POP POP JUMP JUMPDEST CALLER PUSH0 SWAP1 DUP2 MSTORE PUSH1 0x6 PUSH1 0x20 MSTORE PUSH1 0x40 SWAP1 KECCAK256 SSTORE POP PUSH1 0x1 SWAP2 SWAP1 POP JUMP JUMPDEST PUSH1 0x60 DUP1 PUSH1 0x4 DUP1 SLOAD DUP1 PUSH1 0x20 MUL PUSH1 0x20 ADD PUSH1 0x40 MLOAD SWAP1 DUP2 ADD PUSH1 0x40 MSTORE DUP1 SWAP3 SWAP2 SWAP1 DUP2 DUP2 MSTORE PUSH1 0x20 ADD DUP3 DUP1 SLOAD DUP1 ISZERO PUSH2 0x1305 JUMPI PUSH1 0x20 MUL DUP3 ADD SWAP2 SWAP1 PUSH0 MSTORE PUSH1 0x20 PUSH0 KECCAK256 SWAP1 JUMPDEST DUP2 SLOAD PUSH1 0x1 PUSH1 0x1 PUSH1 0xA0 SHL SUB AND DUP2 MSTORE PUSH1 0x1 SWAP1 SWAP2 ADD SWAP1 PUSH1 0x20 ADD DUP1 DUP4 GT PUSH2 0x12E7 JUMPI JUMPDEST POP POP POP POP POP SWAP2 POP DUP2 MLOAD PUSH8 0xFFFFFFFFFFFFFFFF DUP2 GT ISZERO PUSH2 0x1326 JUMPI PUSH2 0x1326 PUSH2 0x1AC1 JUMP JUMPDEST PUSH1 0x40 MLOAD SWAP1 DUP1 DUP3 MSTORE DUP1 PUSH1 0x20 MUL PUSH1 0x20 ADD DUP3 ADD PUSH1 0x40 MSTORE DUP1 ISZERO PUSH2 0x134F JUMPI DUP2 PUSH1 0x20 ADD PUSH1 0x20 DUP3 MUL DUP1 CALLDATASIZE DUP4 CALLDATACOPY ADD SWAP1 POP JUMPDEST POP SWAP1 POP DUP3 PUSH0 JUMPDEST DUP4 MLOAD DUP2 LT ISZERO PUSH2 0x143C JUMPI PUSH1 0x1 DUP5 MLOAD PUSH2 0x136C SWAP2 SWAP1 PUSH2 0x1B02 JUMP JUMPDEST DUP2 SUB PUSH2 0x1396 JUMPI DUP2 DUP4 DUP3 DUP2 MLOAD DUP2 LT PUSH2 0x1385 JUMPI PUSH2 0x1385 PUSH2 0x1983 JUMP JUMPDEST PUSH1 0x20 MUL PUSH1 0x20 ADD ADD DUP2 DUP2 MSTORE POP POP PUSH2 0x1434 JUMP JUMPDEST PUSH2 0x2710 PUSH1 0x2 PUSH0 DUP7 DUP5 DUP2 MLOAD DUP2 LT PUSH2 0x13AE JUMPI PUSH2 0x13AE PUSH2 0x1983 JUMP JUMPDEST PUSH1 0x20 MUL PUSH1 0x20 ADD ADD MLOAD PUSH1 0x1 PUSH1 0x1 PUSH1 0xA0 SHL SUB AND PUSH1 0x1 PUSH1 0x1 PUSH1 0xA0 SHL SUB AND DUP2 MSTORE PUSH1 0x20 ADD SWAP1 DUP2 MSTORE PUSH1 0x20 ADD PUSH0 KECCAK256 PUSH1 0x1 ADD SLOAD DUP7 PUSH2 0x13E4 SWAP2 SWAP1 PUSH2 0x19D5 JUMP JUMPDEST PUSH2 0x13EE SWAP2 SWAP1 PUSH2 0x19EC JUMP JUMPDEST DUP4 DUP3 DUP2 MLOAD DUP2 LT PUSH2 0x1400 JUMPI PUSH2 0x1400 PUSH2 0x1983 JUMP JUMPDEST PUSH1 0x20 MUL PUSH1 0x20 ADD ADD DUP2 DUP2 MSTORE POP POP DUP3 DUP2 DUP2 MLOAD DUP2 LT PUSH2 0x141E JUMPI PUSH2 0x141E PUSH2 0x1983 JUMP JUMPDEST PUSH1 0x20 MUL PUSH1 0x20 ADD ADD MLOAD DUP3 PUSH2 0x1431 SWAP2 SWAP1 PUSH2 0x1B02 JUMP JUMPDEST SWAP2 POP JUMPDEST PUSH1 0x1 ADD PUSH2 0x1355 JUMP JUMPDEST POP POP SWAP2 POP SWAP2 JUMP JUMPDEST PUSH0 PUSH2 0x1459 PUSH1 0x1 PUSH1 0x1 PUSH1 0xA0 SHL SUB DUP5 AND CALLER ADDRESS DUP6 PUSH2 0x17A4 JUMP JUMPDEST PUSH1 0x40 MLOAD PUSH4 0x95EA7B3 PUSH1 0xE0 SHL DUP2 MSTORE PUSH1 0x1 PUSH1 0x1 PUSH1 0xA0 SHL SUB DUP6 DUP2 AND PUSH1 0x4 DUP4 ADD MSTORE PUSH1 0x24 DUP3 ADD DUP5 SWAP1 MSTORE DUP5 AND SWAP1 PUSH4 0x95EA7B3 SWAP1 PUSH1 0x44 ADD PUSH1 0x20 PUSH1 0x40 MLOAD DUP1 DUP4 SUB DUP2 PUSH0 DUP8 GAS CALL ISZERO DUP1 ISZERO PUSH2 0x14A5 JUMPI RETURNDATASIZE PUSH0 DUP1 RETURNDATACOPY RETURNDATASIZE PUSH0 REVERT JUMPDEST POP POP POP POP PUSH1 0x40 MLOAD RETURNDATASIZE PUSH1 0x1F NOT PUSH1 0x1F DUP3 ADD AND DUP3 ADD DUP1 PUSH1 0x40 MSTORE POP DUP2 ADD SWAP1 PUSH2 0x14C9 SWAP2 SWAP1 PUSH2 0x1B29 JUMP JUMPDEST POP PUSH0 SLOAD PUSH1 0x40 MLOAD PUSH4 0x6E553F65 PUSH1 0xE0 SHL DUP2 MSTORE PUSH1 0x4 DUP2 ADD DUP5 SWAP1 MSTORE PUSH1 0x1 PUSH1 0x1 PUSH1 0xA0 SHL SUB SWAP2 DUP3 AND PUSH1 0x24 DUP3 ADD MSTORE SWAP1 DUP6 AND SWAP1 PUSH4 0x6E553F65 SWAP1 PUSH1 0x44 ADD PUSH1 0x20 PUSH1 0x40 MLOAD DUP1 DUP4 SUB DUP2 PUSH0 DUP8 GAS CALL ISZERO DUP1 ISZERO PUSH2 0x1519 JUMPI RETURNDATASIZE PUSH0 DUP1 RETURNDATACOPY RETURNDATASIZE PUSH0 REVERT JUMPDEST POP POP POP POP PUSH1 0x40 MLOAD RETURNDATASIZE PUSH1 0x1F NOT PUSH1 0x1F DUP3 ADD AND DUP3 ADD DUP1 PUSH1 0x40 MSTORE POP DUP2 ADD SWAP1 PUSH2 0x153D SWAP2 SWAP1 PUSH2 0x19BE JUMP JUMPDEST SWAP5 SWAP4 POP POP POP POP JUMP JUMPDEST PUSH1 0x40 MLOAD PUSH4 0x70A08231 PUSH1 0xE0 SHL DUP2 MSTORE ADDRESS PUSH1 0x4 DUP3 ADD MSTORE PUSH0 SWAP1 DUP2 SWAP1 PUSH1 0x1 PUSH1 0x1 PUSH1 0xA0 SHL SUB DUP5 AND SWAP1 PUSH4 0x70A08231 SWAP1 PUSH1 0x24 ADD PUSH1 0x20 PUSH1 0x40 MLOAD DUP1 DUP4 SUB DUP2 DUP7 GAS STATICCALL ISZERO DUP1 ISZERO PUSH2 0x158B JUMPI RETURNDATASIZE PUSH0 DUP1 RETURNDATACOPY RETURNDATASIZE PUSH0 REVERT JUMPDEST POP POP POP POP PUSH1 0x40 MLOAD RETURNDATASIZE PUSH1 0x1F NOT PUSH1 0x1F DUP3 ADD AND DUP3 ADD DUP1 PUSH1 0x40 MSTORE POP DUP2 ADD SWAP1 PUSH2 0x15AF SWAP2 SWAP1 PUSH2 0x19BE JUMP JUMPDEST PUSH1 0x40 MLOAD PUSH4 0x3D1689D PUSH1 0xE1 SHL DUP2 MSTORE PUSH1 0x4 DUP2 ADD DUP3 SWAP1 MSTORE SWAP1 SWAP2 POP PUSH1 0x1 PUSH1 0x1 PUSH1 0xA0 SHL SUB DUP5 AND SWAP1 PUSH4 0x7A2D13A SWAP1 PUSH1 0x24 ADD PUSH1 0x20 PUSH1 0x40 MLOAD DUP1 DUP4 SUB DUP2 DUP7 GAS STATICCALL ISZERO DUP1 ISZERO PUSH2 0x15F5 JUMPI RETURNDATASIZE PUSH0 DUP1 RETURNDATACOPY RETURNDATASIZE PUSH0 REVERT JUMPDEST POP POP POP POP PUSH1 0x40 MLOAD RETURNDATASIZE PUSH1 0x1F NOT PUSH1 0x1F DUP3 ADD AND DUP3 ADD DUP1 PUSH1 0x40 MSTORE POP DUP2 ADD SWAP1 PUSH2 0x1619 SWAP2 SWAP1 PUSH2 0x19BE JUMP JUMPDEST SWAP4 SWAP3 POP POP POP JUMP JUMPDEST PUSH0 DUP4 PUSH1 0x1 PUSH1 0x1 PUSH1 0xA0 SHL SUB AND PUSH4 0x38D52E0F PUSH1 0x40 MLOAD DUP2 PUSH4 0xFFFFFFFF AND PUSH1 0xE0 SHL DUP2 MSTORE PUSH1 0x4 ADD PUSH1 0x20 PUSH1 0x40 MLOAD DUP1 DUP4 SUB DUP2 DUP7 GAS STATICCALL ISZERO DUP1 ISZERO PUSH2 0x165D JUMPI RETURNDATASIZE PUSH0 DUP1 RETURNDATACOPY RETURNDATASIZE PUSH0 REVERT JUMPDEST POP POP POP POP PUSH1 0x40 MLOAD RETURNDATASIZE PUSH1 0x1F NOT PUSH1 0x1F DUP3 ADD AND DUP3 ADD DUP1 PUSH1 0x40 MSTORE POP DUP2 ADD SWAP1 PUSH2 0x1681 SWAP2 SWAP1 PUSH2 0x1B48 JUMP JUMPDEST SWAP1 POP PUSH1 0x1 PUSH1 0x1 PUSH1 0xA0 SHL SUB DUP2 AND PUSH2 0x16D6 JUMPI PUSH1 0x40 MLOAD PUSH3 0x461BCD PUSH1 0xE5 SHL DUP2 MSTORE PUSH1 0x20 PUSH1 0x4 DUP3 ADD MSTORE PUSH1 0x15 PUSH1 0x24 DUP3 ADD MSTORE PUSH21 0x496E76616C69642061737365742061646472657373 PUSH1 0x58 SHL PUSH1 0x44 DUP3 ADD MSTORE PUSH1 0x64 ADD JUMPDEST PUSH1 0x40 MLOAD DUP1 SWAP2 SUB SWAP1 REVERT JUMPDEST DUP2 DUP4 LT ISZERO PUSH2 0x16FD JUMPI PUSH0 PUSH2 0x16E9 DUP5 DUP5 PUSH2 0x1B02 JUMP JUMPDEST SWAP1 POP PUSH2 0x16F6 DUP6 DUP4 DUP4 PUSH2 0x1443 JUMP JUMPDEST POP POP PUSH2 0x1714 JUMP JUMPDEST PUSH0 PUSH2 0x1708 DUP4 DUP6 PUSH2 0x1B02 JUMP JUMPDEST SWAP1 POP PUSH2 0xD8D DUP6 DUP3 PUSH2 0xF87 JUMP JUMPDEST POP POP POP POP JUMP JUMPDEST PUSH0 DUP1 PUSH2 0x1725 DUP4 PUSH2 0x1545 JUMP JUMPDEST SWAP1 POP PUSH0 PUSH2 0x1730 PUSH2 0x1769 JUMP JUMPDEST SWAP1 POP DUP1 PUSH0 SUB PUSH2 0x1742 JUMPI POP PUSH0 SWAP4 SWAP3 POP POP POP JUMP JUMPDEST DUP1 PUSH2 0x174F PUSH2 0x2710 DUP5 PUSH2 0x19D5 JUMP JUMPDEST PUSH2 0x153D SWAP2 SWAP1 PUSH2 0x19EC JUMP JUMPDEST PUSH2 0x1761 PUSH2 0x17FE JUMP JUMPDEST PUSH2 0xB8A PUSH2 0x1847 JUMP JUMPDEST PUSH0 DUP1 JUMPDEST PUSH1 0x4 SLOAD DUP2 LT ISZERO PUSH2 0x17A0 JUMPI PUSH2 0x178C PUSH1 0x4 DUP3 DUP2 SLOAD DUP2 LT PUSH2 0xA18 JUMPI PUSH2 0xA18 PUSH2 0x1983 JUMP JUMPDEST PUSH2 0x1796 SWAP1 DUP4 PUSH2 0x19AB JUMP JUMPDEST SWAP2 POP PUSH1 0x1 ADD PUSH2 0x176C JUMP JUMPDEST POP SWAP1 JUMP JUMPDEST PUSH1 0x40 DUP1 MLOAD PUSH1 0x1 PUSH1 0x1 PUSH1 0xA0 SHL SUB DUP6 DUP2 AND PUSH1 0x24 DUP4 ADD MSTORE DUP5 AND PUSH1 0x44 DUP3 ADD MSTORE PUSH1 0x64 DUP1 DUP3 ADD DUP5 SWAP1 MSTORE DUP3 MLOAD DUP1 DUP4 SUB SWAP1 SWAP2 ADD DUP2 MSTORE PUSH1 0x84 SWAP1 SWAP2 ADD SWAP1 SWAP2 MSTORE PUSH1 0x20 DUP2 ADD DUP1 MLOAD PUSH1 0x1 PUSH1 0x1 PUSH1 0xE0 SHL SUB AND PUSH4 0x23B872DD PUSH1 0xE0 SHL OR SWAP1 MSTORE PUSH2 0x1714 SWAP1 DUP6 SWAP1 PUSH2 0x184F JUMP JUMPDEST PUSH32 0xF0C57E16840DF040F15088DC2F81FE391C3923BEC73E23A9662EFC9C229C6A00 SLOAD PUSH1 0x1 PUSH1 0x40 SHL SWAP1 DIV PUSH1 0xFF AND PUSH2 0xB8A JUMPI PUSH1 0x40 MLOAD PUSH4 0x1AFCD79F PUSH1 0xE3 SHL DUP2 MSTORE PUSH1 0x4 ADD PUSH1 0x40 MLOAD DUP1 SWAP2 SUB SWAP1 REVERT JUMPDEST PUSH2 0x120A PUSH2 0x17FE JUMP JUMPDEST PUSH0 DUP1 PUSH1 0x20 PUSH0 DUP5 MLOAD PUSH1 0x20 DUP7 ADD PUSH0 DUP9 GAS CALL DUP1 PUSH2 0x186E JUMPI PUSH1 0x40 MLOAD RETURNDATASIZE PUSH0 DUP3 RETURNDATACOPY RETURNDATASIZE DUP2 REVERT JUMPDEST POP POP PUSH0 MLOAD RETURNDATASIZE SWAP2 POP DUP2 ISZERO PUSH2 0x1885 JUMPI DUP1 PUSH1 0x1 EQ ISZERO PUSH2 0x1892 JUMP JUMPDEST PUSH1 0x1 PUSH1 0x1 PUSH1 0xA0 SHL SUB DUP5 AND EXTCODESIZE ISZERO JUMPDEST ISZERO PUSH2 0x1714 JUMPI PUSH1 0x40 MLOAD PUSH4 0x5274AFE7 PUSH1 0xE0 SHL DUP2 MSTORE PUSH1 0x1 PUSH1 0x1 PUSH1 0xA0 SHL SUB DUP6 AND PUSH1 0x4 DUP3 ADD MSTORE PUSH1 0x24 ADD PUSH2 0x16CD JUMP JUMPDEST PUSH1 0x1 PUSH1 0x1 PUSH1 0xA0 SHL SUB DUP2 AND DUP2 EQ PUSH2 0x18CF JUMPI PUSH0 DUP1 REVERT JUMPDEST POP JUMP JUMPDEST PUSH0 PUSH1 0x20 DUP3 DUP5 SUB SLT ISZERO PUSH2 0x18E2 JUMPI PUSH0 DUP1 REVERT JUMPDEST DUP2 CALLDATALOAD PUSH2 0x1619 DUP2 PUSH2 0x18BB JUMP JUMPDEST PUSH0 DUP2 MLOAD DUP1 DUP5 MSTORE PUSH1 0x20 DUP1 DUP6 ADD SWAP5 POP PUSH1 0x20 DUP5 ADD PUSH0 JUMPDEST DUP4 DUP2 LT ISZERO PUSH2 0x1925 JUMPI DUP2 MLOAD PUSH1 0x1 PUSH1 0x1 PUSH1 0xA0 SHL SUB AND DUP8 MSTORE SWAP6 DUP3 ADD SWAP6 SWAP1 DUP3 ADD SWAP1 PUSH1 0x1 ADD PUSH2 0x1900 JUMP JUMPDEST POP SWAP5 SWAP6 SWAP5 POP POP POP POP POP JUMP JUMPDEST PUSH1 0x20 DUP2 MSTORE PUSH0 PUSH2 0x1002 PUSH1 0x20 DUP4 ADD DUP5 PUSH2 0x18ED JUMP JUMPDEST PUSH0 PUSH1 0x20 DUP3 DUP5 SUB SLT ISZERO PUSH2 0x1952 JUMPI PUSH0 DUP1 REVERT JUMPDEST POP CALLDATALOAD SWAP2 SWAP1 POP JUMP JUMPDEST PUSH0 DUP1 PUSH1 0x40 DUP4 DUP6 SUB SLT ISZERO PUSH2 0x196A JUMPI PUSH0 DUP1 REVERT JUMPDEST DUP3 CALLDATALOAD PUSH2 0x1975 DUP2 PUSH2 0x18BB JUMP JUMPDEST SWAP5 PUSH1 0x20 SWAP4 SWAP1 SWAP4 ADD CALLDATALOAD SWAP4 POP POP POP JUMP JUMPDEST PUSH4 0x4E487B71 PUSH1 0xE0 SHL PUSH0 MSTORE PUSH1 0x32 PUSH1 0x4 MSTORE PUSH1 0x24 PUSH0 REVERT JUMPDEST PUSH4 0x4E487B71 PUSH1 0xE0 SHL PUSH0 MSTORE PUSH1 0x11 PUSH1 0x4 MSTORE PUSH1 0x24 PUSH0 REVERT JUMPDEST DUP1 DUP3 ADD DUP1 DUP3 GT ISZERO PUSH2 0x1005 JUMPI PUSH2 0x1005 PUSH2 0x1997 JUMP JUMPDEST PUSH0 PUSH1 0x20 DUP3 DUP5 SUB SLT ISZERO PUSH2 0x19CE JUMPI PUSH0 DUP1 REVERT JUMPDEST POP MLOAD SWAP2 SWAP1 POP JUMP JUMPDEST DUP1 DUP3 MUL DUP2 ISZERO DUP3 DUP3 DIV DUP5 EQ OR PUSH2 0x1005 JUMPI PUSH2 0x1005 PUSH2 0x1997 JUMP JUMPDEST PUSH0 DUP3 PUSH2 0x1A06 JUMPI PUSH4 0x4E487B71 PUSH1 0xE0 SHL PUSH0 MSTORE PUSH1 0x12 PUSH1 0x4 MSTORE PUSH1 0x24 PUSH0 REVERT JUMPDEST POP DIV SWAP1 JUMP JUMPDEST PUSH0 DUP2 SLOAD DUP1 DUP5 MSTORE PUSH1 0x20 DUP1 DUP6 ADD SWAP5 POP DUP4 PUSH0 MSTORE PUSH1 0x20 PUSH0 KECCAK256 PUSH0 JUMPDEST DUP4 DUP2 LT ISZERO PUSH2 0x1925 JUMPI DUP2 SLOAD PUSH1 0x1 PUSH1 0x1 PUSH1 0xA0 SHL SUB AND DUP8 MSTORE SWAP6 DUP3 ADD SWAP6 PUSH1 0x1 SWAP2 DUP3 ADD SWAP2 ADD PUSH2 0x1A21 JUMP JUMPDEST PUSH0 DUP2 MLOAD DUP1 DUP5 MSTORE PUSH1 0x20 DUP1 DUP6 ADD SWAP5 POP PUSH1 0x20 DUP5 ADD PUSH0 JUMPDEST DUP4 DUP2 LT ISZERO PUSH2 0x1925 JUMPI DUP2 MLOAD DUP8 MSTORE SWAP6 DUP3 ADD SWAP6 SWAP1 DUP3 ADD SWAP1 PUSH1 0x1 ADD PUSH2 0x1A59 JUMP JUMPDEST DUP4 DUP2 MSTORE PUSH1 0x60 PUSH1 0x20 DUP3 ADD MSTORE PUSH0 PUSH2 0x1A8D PUSH1 0x60 DUP4 ADD DUP6 PUSH2 0x1A0B JUMP JUMPDEST DUP3 DUP2 SUB PUSH1 0x40 DUP5 ADD MSTORE PUSH2 0x1A9F DUP2 DUP6 PUSH2 0x1A46 JUMP JUMPDEST SWAP7 SWAP6 POP POP POP POP POP POP JUMP JUMPDEST DUP4 DUP2 MSTORE PUSH1 0x60 PUSH1 0x20 DUP3 ADD MSTORE PUSH0 PUSH2 0x1A8D PUSH1 0x60 DUP4 ADD DUP6 PUSH2 0x18ED JUMP JUMPDEST PUSH4 0x4E487B71 PUSH1 0xE0 SHL PUSH0 MSTORE PUSH1 0x41 PUSH1 0x4 MSTORE PUSH1 0x24 PUSH0 REVERT JUMPDEST PUSH1 0x40 DUP2 MSTORE PUSH0 PUSH2 0x1AE7 PUSH1 0x40 DUP4 ADD DUP6 PUSH2 0x1A0B JUMP JUMPDEST DUP3 DUP2 SUB PUSH1 0x20 DUP5 ADD MSTORE PUSH2 0x1AF9 DUP2 DUP6 PUSH2 0x1A46 JUMP JUMPDEST SWAP6 SWAP5 POP POP POP POP POP JUMP JUMPDEST DUP2 DUP2 SUB DUP2 DUP2 GT ISZERO PUSH2 0x1005 JUMPI PUSH2 0x1005 PUSH2 0x1997 JUMP JUMPDEST PUSH4 0x4E487B71 PUSH1 0xE0 SHL PUSH0 MSTORE PUSH1 0x31 PUSH1 0x4 MSTORE PUSH1 0x24 PUSH0 REVERT JUMPDEST PUSH0 PUSH1 0x20 DUP3 DUP5 SUB SLT ISZERO PUSH2 0x1B39 JUMPI PUSH0 DUP1 REVERT JUMPDEST DUP2 MLOAD DUP1 ISZERO ISZERO DUP2 EQ PUSH2 0x1619 JUMPI PUSH0 DUP1 REVERT JUMPDEST PUSH0 PUSH1 0x20 DUP3 DUP5 SUB SLT ISZERO PUSH2 0x1B58 JUMPI PUSH0 DUP1 REVERT JUMPDEST DUP2 MLOAD PUSH2 0x1619 DUP2 PUSH2 0x18BB JUMP INVALID SWAP12 PUSH24 0x9B17422D0DF92223018B32B4D1FA46E071723D6817E2486D STOP EXTCODESIZE 0xEC 0xC5 PUSH0 STOP LOG2 PUSH5 0x6970667358 0x22 SLT KECCAK256 MSTORE 0xAE ADD PUSH3 0x57BDE1 DUP2 0xE1 DUP6 SSTORE 0x1F 0xC9 0xA9 PUSH17 0xE5517D9A79C6E0B0900EEB76EC7C0E3FCB PUSH5 0x736F6C6343 STOP ADDMOD AND STOP CALLER "
		},
		"gasEstimates": {
			"creation": {
				"codeDepositCost": "1419400",
				"executionCost": "1477",
				"totalCost": "1420877"
			},
			"external": {
				"MAX_BPS()": "293",
				"MAX_SLIPPAGE()": "249",
				"REBALANCE_THRESHOLD()": "272",
				"activeVaults(uint256)": "4722",
				"addVault(address,uint256)": "infinite",
				"dailyLimits(address)": "2521",
				"dailyVolume(address)": "2543",
				"deposit(address,uint256)": "infinite",
				"factory()": "2381",
				"getActiveVaults()": "infinite",
				"getTotalAllocation()": "infinite",
				"initialize(address)": "infinite",
				"lastActivityTime(address)": "2589",
				"owner()": "2424",
				"rebalance()": "infinite",
				"removeVault(address)": "infinite",
				"shouldRebalance()": "infinite",
				"vaultAllocations(address)": "13347",
				"vaultPerformance(address)": "6831",
				"withdraw(uint256)": "infinite"
			},
			"internal": {
				"_calculateOptimalDistribution(uint256)": "infinite",
				"_checkAndUpdateDailyLimit(uint256)": "infinite",
				"_executeDeposit(address,address,uint256)": "infinite",
				"_executeWithdraw(address,uint256)": "infinite",
				"_getAllocations()": "infinite",
				"_getCurrentAllocation(address)": "infinite",
				"_getTotalValue()": "infinite",
				"_getVaultValue(address)": "infinite",
				"_rebalanceVault(address,uint256,uint256)": "infinite",
				"_updateVaultPerformance(address)": "infinite"
			}
		},
		"methodIdentifiers": {
			"MAX_BPS()": "fd967f47",
			"MAX_SLIPPAGE()": "f9759518",
			"REBALANCE_THRESHOLD()": "c85b967d",
			"activeVaults(uint256)": "95822242",
			"addVault(address,uint256)": "6372df6a",
			"dailyLimits(address)": "d7bffc92",
			"dailyVolume(address)": "e5b0ea7f",
			"deposit(address,uint256)": "47e7ef24",
			"factory()": "c45a0155",
			"getActiveVaults()": "201933bf",
			"getTotalAllocation()": "15d3b5d8",
			"initialize(address)": "c4d66de8",
			"lastActivityTime(address)": "268257df",
			"owner()": "8da5cb5b",
			"rebalance()": "7d7c2a1c",
			"removeVault(address)": "ceb68c23",
			"shouldRebalance()": "ae2c1d5f",
			"vaultAllocations(address)": "fb329a29",
			"vaultPerformance(address)": "18920915",
			"withdraw(uint256)": "2e1a7d4d"
		}
	},
	"abi": [
		{
			"inputs": [],
			"name": "AllocationTooHigh",
			"type": "error"
		},
		{
			"inputs": [],
			"name": "DailyLimitExceeded",
			"type": "error"
		},
		{
			"inputs": [],
			"name": "InvalidAllocation",
			"type": "error"
		},
		{
			"inputs": [],
			"name": "InvalidInitialization",
			"type": "error"
		},
		{
			"inputs": [],
			"name": "NoRebalanceNeeded",
			"type": "error"
		},
		{
			"inputs": [],
			"name": "NotInitializing",
			"type": "error"
		},
		{
			"inputs": [],
			"name": "ReentrancyGuardReentrantCall",
			"type": "error"
		},
		{
			"inputs": [
				{
					"internalType": "address",
					"name": "token",
					"type": "address"
				}
			],
			"name": "SafeERC20FailedOperation",
			"type": "error"
		},
		{
			"inputs": [],
			"name": "SlippageExceeded",
			"type": "error"
		},
		{
			"inputs": [],
			"name": "TotalAllocationExceeded",
			"type": "error"
		},
		{
			"inputs": [],
			"name": "Unauthorized",
			"type": "error"
		},
		{
			"inputs": [],
			"name": "VaultAlreadyAdded",
			"type": "error"
		},
		{
			"inputs": [],
			"name": "VaultNotFound",
			"type": "error"
		},
		{
			"anonymous": false,
			"inputs": [
				{
					"indexed": true,
					"internalType": "address",
					"name": "vault",
					"type": "address"
				},
				{
					"indexed": false,
					"internalType": "uint256",
					"name": "newAllocation",
					"type": "uint256"
				}
			],
			"name": "AllocationUpdated",
			"type": "event"
		},
		{
			"anonymous": false,
			"inputs": [
				{
					"indexed": true,
					"internalType": "address",
					"name": "user",
					"type": "address"
				},
				{
					"indexed": false,
					"internalType": "uint256",
					"name": "newLimit",
					"type": "uint256"
				}
			],
			"name": "DailyLimitUpdated",
			"type": "event"
		},
		{
			"anonymous": false,
			"inputs": [
				{
					"indexed": false,
					"internalType": "uint256",
					"name": "totalAmount",
					"type": "uint256"
				},
				{
					"indexed": false,
					"internalType": "address[]",
					"name": "vaults",
					"type": "address[]"
				},
				{
					"indexed": false,
					"internalType": "uint256[]",
					"name": "amounts",
					"type": "uint256[]"
				}
			],
			"name": "Deposited",
			"type": "event"
		},
		{
			"anonymous": false,
			"inputs": [
				{
					"indexed": false,
					"internalType": "uint64",
					"name": "version",
					"type": "uint64"
				}
			],
			"name": "Initialized",
			"type": "event"
		},
		{
			"anonymous": false,
			"inputs": [
				{
					"indexed": true,
					"internalType": "address",
					"name": "vault",
					"type": "address"
				},
				{
					"indexed": false,
					"internalType": "uint256",
					"name": "apr",
					"type": "uint256"
				},
				{
					"indexed": false,
					"internalType": "uint256",
					"name": "tvl",
					"type": "uint256"
				},
				{
					"indexed": false,
					"internalType": "uint256",
					"name": "utilizationRate",
					"type": "uint256"
				}
			],
			"name": "PerformanceUpdated",
			"type": "event"
		},
		{
			"anonymous": false,
			"inputs": [
				{
					"indexed": false,
					"internalType": "address[]",
					"name": "vaults",
					"type": "address[]"
				},
				{
					"indexed": false,
					"internalType": "uint256[]",
					"name": "allocations",
					"type": "uint256[]"
				}
			],
			"name": "Rebalanced",
			"type": "event"
		},
		{
			"anonymous": false,
			"inputs": [
				{
					"indexed": true,
					"internalType": "address",
					"name": "vault",
					"type": "address"
				},
				{
					"indexed": false,
					"internalType": "uint256",
					"name": "allocation",
					"type": "uint256"
				}
			],
			"name": "VaultAdded",
			"type": "event"
		},
		{
			"anonymous": false,
			"inputs": [
				{
					"indexed": true,
					"internalType": "address",
					"name": "vault",
					"type": "address"
				}
			],
			"name": "VaultRemoved",
			"type": "event"
		},
		{
			"anonymous": false,
			"inputs": [
				{
					"indexed": false,
					"internalType": "uint256",
					"name": "totalAmount",
					"type": "uint256"
				},
				{
					"indexed": false,
					"internalType": "address[]",
					"name": "vaults",
					"type": "address[]"
				},
				{
					"indexed": false,
					"internalType": "uint256[]",
					"name": "amounts",
					"type": "uint256[]"
				}
			],
			"name": "Withdrawn",
			"type": "event"
		},
		{
			"inputs": [],
			"name": "MAX_BPS",
			"outputs": [
				{
					"internalType": "uint256",
					"name": "",
					"type": "uint256"
				}
			],
			"stateMutability": "view",
			"type": "function"
		},
		{
			"inputs": [],
			"name": "MAX_SLIPPAGE",
			"outputs": [
				{
					"internalType": "uint256",
					"name": "",
					"type": "uint256"
				}
			],
			"stateMutability": "view",
			"type": "function"
		},
		{
			"inputs": [],
			"name": "REBALANCE_THRESHOLD",
			"outputs": [
				{
					"internalType": "uint256",
					"name": "",
					"type": "uint256"
				}
			],
			"stateMutability": "view",
			"type": "function"
		},
		{
			"inputs": [
				{
					"internalType": "uint256",
					"name": "",
					"type": "uint256"
				}
			],
			"name": "activeVaults",
			"outputs": [
				{
					"internalType": "address",
					"name": "",
					"type": "address"
				}
			],
			"stateMutability": "view",
			"type": "function"
		},
		{
			"inputs": [
				{
					"internalType": "address",
					"name": "vault",
					"type": "address"
				},
				{
					"internalType": "uint256",
					"name": "allocation",
					"type": "uint256"
				}
			],
			"name": "addVault",
			"outputs": [],
			"stateMutability": "nonpayable",
			"type": "function"
		},
		{
			"inputs": [
				{
					"internalType": "address",
					"name": "",
					"type": "address"
				}
			],
			"name": "dailyLimits",
			"outputs": [
				{
					"internalType": "uint256",
					"name": "",
					"type": "uint256"
				}
			],
			"stateMutability": "view",
			"type": "function"
		},
		{
			"inputs": [
				{
					"internalType": "address",
					"name": "",
					"type": "address"
				}
			],
			"name": "dailyVolume",
			"outputs": [
				{
					"internalType": "uint256",
					"name": "",
					"type": "uint256"
				}
			],
			"stateMutability": "view",
			"type": "function"
		},
		{
			"inputs": [
				{
					"internalType": "address",
					"name": "asset",
					"type": "address"
				},
				{
					"internalType": "uint256",
					"name": "amount",
					"type": "uint256"
				}
			],
			"name": "deposit",
			"outputs": [],
			"stateMutability": "nonpayable",
			"type": "function"
		},
		{
			"inputs": [],
			"name": "factory",
			"outputs": [
				{
					"internalType": "address",
					"name": "",
					"type": "address"
				}
			],
			"stateMutability": "view",
			"type": "function"
		},
		{
			"inputs": [],
			"name": "getActiveVaults",
			"outputs": [
				{
					"internalType": "address[]",
					"name": "",
					"type": "address[]"
				}
			],
			"stateMutability": "view",
			"type": "function"
		},
		{
			"inputs": [],
			"name": "getTotalAllocation",
			"outputs": [
				{
					"internalType": "uint256",
					"name": "",
					"type": "uint256"
				}
			],
			"stateMutability": "view",
			"type": "function"
		},
		{
			"inputs": [
				{
					"internalType": "address",
					"name": "_owner",
					"type": "address"
				}
			],
			"name": "initialize",
			"outputs": [],
			"stateMutability": "nonpayable",
			"type": "function"
		},
		{
			"inputs": [
				{
					"internalType": "address",
					"name": "",
					"type": "address"
				}
			],
			"name": "lastActivityTime",
			"outputs": [
				{
					"internalType": "uint256",
					"name": "",
					"type": "uint256"
				}
			],
			"stateMutability": "view",
			"type": "function"
		},
		{
			"inputs": [],
			"name": "owner",
			"outputs": [
				{
					"internalType": "address",
					"name": "",
					"type": "address"
				}
			],
			"stateMutability": "view",
			"type": "function"
		},
		{
			"inputs": [],
			"name": "rebalance",
			"outputs": [],
			"stateMutability": "nonpayable",
			"type": "function"
		},
		{
			"inputs": [
				{
					"internalType": "address",
					"name": "vault",
					"type": "address"
				}
			],
			"name": "removeVault",
			"outputs": [],
			"stateMutability": "nonpayable",
			"type": "function"
		},
		{
			"inputs": [],
			"name": "shouldRebalance",
			"outputs": [
				{
					"internalType": "bool",
					"name": "",
					"type": "bool"
				}
			],
			"stateMutability": "view",
			"type": "function"
		},
		{
			"inputs": [
				{
					"internalType": "address",
					"name": "",
					"type": "address"
				}
			],
			"name": "vaultAllocations",
			"outputs": [
				{
					"internalType": "address",
					"name": "vault",
					"type": "address"
				},
				{
					"internalType": "uint256",
					"name": "allocation",
					"type": "uint256"
				},
				{
					"internalType": "bool",
					"name": "active",
					"type": "bool"
				},
				{
					"internalType": "uint256",
					"name": "lastUpdateTime",
					"type": "uint256"
				},
				{
					"internalType": "uint256",
					"name": "lastBalance",
					"type": "uint256"
				},
				{
					"internalType": "uint256",
					"name": "lastPrice",
					"type": "uint256"
				}
			],
			"stateMutability": "view",
			"type": "function"
		},
		{
			"inputs": [
				{
					"internalType": "address",
					"name": "",
					"type": "address"
				}
			],
			"name": "vaultPerformance",
			"outputs": [
				{
					"internalType": "uint256",
					"name": "apr",
					"type": "uint256"
				},
				{
					"internalType": "uint256",
					"name": "tvl",
					"type": "uint256"
				},
				{
					"internalType": "uint256",
					"name": "utilizationRate",
					"type": "uint256"
				}
			],
			"stateMutability": "view",
			"type": "function"
		},
		{
			"inputs": [
				{
					"internalType": "uint256",
					"name": "percentage",
					"type": "uint256"
				}
			],
			"name": "withdraw",
			"outputs": [
				{
					"internalType": "uint256",
					"name": "totalWithdrawn",
					"type": "uint256"
				}
			],
			"stateMutability": "nonpayable",
			"type": "function"
		}
	]
}