{
	"data": {
		"bytecode": {
			"linkReferences": {},
			"object": "608060405234801561000f575f80fd5b50612db98061001d5f395ff3fe608060405234801561000f575f80fd5b506004361061013d575f3560e01c80638da5cb5b116100b4578063cefc142911610079578063cefc1429146102c0578063cf6eefb7146102c8578063d547741f146102f6578063d602b9fd14610309578063da53d2cf14610311578063f4b9786c14610319575f80fd5b80638da5cb5b1461026f57806391d1485414610277578063a1eda53c1461028a578063a217fddf146102b1578063cc8463c8146102b8575f80fd5b80632f2ff15d116101055780632f2ff15d146101f357806336568abe14610206578063634e93da14610219578063649a5ec71461022c578063704d9f651461023f57806384ef8ffc14610267575f80fd5b806301ffc9a714610141578063022d63fb14610169578063076bafb7146101855780630aa6220b146101c8578063248a9ca3146101d2575b5f80fd5b61015461014f366004611009565b61032c565b60405190151581526020015b60405180910390f35b620697805b60405165ffffffffffff9091168152602001610160565b6101b061019336600461104b565b6001600160a01b039081165f908152602081905260409020541690565b6040516001600160a01b039091168152602001610160565b6101d0610356565b005b6101e56101e0366004611064565b61036b565b604051908152602001610160565b6101d061020136600461107b565b61038b565b6101d061021436600461107b565b6103b7565b6101d061022736600461104b565b61047e565b6101d061023a3660046110ba565b610491565b6101b061024d36600461104b565b5f602081905290815260409020546001600160a01b031681565b6101b06104a4565b6101b06104bf565b61015461028536600461107b565b6104cd565b610292610503565b6040805165ffffffffffff938416815292909116602083015201610160565b6101e55f81565b61016e610572565b6101d06105ed565b6102d061062c565b604080516001600160a01b03909316835265ffffffffffff909116602083015201610160565b6101d061030436600461107b565b610659565b6101d0610681565b6101b0610693565b6101d06103273660046110d3565b6107d2565b5f6001600160e01b031982166318a4c3c360e11b14806103505750610350826108e2565b92915050565b5f61036081610916565b610368610920565b50565b5f9081525f80516020612d44833981519152602052604090206001015490565b816103a957604051631fe1e13d60e11b815260040160405180910390fd5b6103b3828261092c565b5050565b5f80516020612d24833981519152821580156103eb57506103d66104a4565b6001600160a01b0316826001600160a01b0316145b1561046f575f806103fa61062c565b90925090506001600160a01b03821615158061041c575065ffffffffffff8116155b8061042f57504265ffffffffffff821610155b1561045c576040516319ca5ebb60e01b815265ffffffffffff821660048201526024015b60405180910390fd5b5050805465ffffffffffff60a01b191681555b610479838361094e565b505050565b5f61048881610916565b6103b382610981565b5f61049b81610916565b6103b3826109f3565b5f80516020612d64833981519152546001600160a01b031690565b5f6104c86104a4565b905090565b5f9182525f80516020612d44833981519152602090815260408084206001600160a01b0393909316845291905290205460ff1690565b5f80516020612d64833981519152545f90600160d01b900465ffffffffffff165f80516020612d24833981519152811580159061054857504265ffffffffffff831610155b610553575f80610569565b6001810154600160a01b900465ffffffffffff16825b92509250509091565b5f80516020612d64833981519152545f905f80516020612d2483398151915290600160d01b900465ffffffffffff1680158015906105b757504265ffffffffffff8216105b6105d1578154600160d01b900465ffffffffffff166105e6565b6001820154600160a01b900465ffffffffffff165b9250505090565b5f6105f661062c565b509050336001600160a01b0382161461062457604051636116401160e11b8152336004820152602401610453565b610368610a62565b5f80516020612d24833981519152546001600160a01b03811691600160a01b90910465ffffffffffff1690565b8161067757604051631fe1e13d60e11b815260040160405180910390fd5b6103b38282610afb565b5f61068b81610916565b610368610b17565b335f908152602081905260408120546001600160a01b0316156106f15760405162461bcd60e51b8152602060048201526016602482015275105b1c9958591e481a185cc81b595d18481d985d5b1d60521b6044820152606401610453565b5f6040516106fe90610ffc565b604051809103905ff080158015610717573d5f803e3d5ffd5b5060405163189acdbd60e31b81523360048201529091506001600160a01b0382169063c4d66de8906024015f604051808303815f87803b158015610759575f80fd5b505af115801561076b573d5f803e3d5ffd5b5050335f818152602081815260409182902080546001600160a01b0319166001600160a01b03881690811790915591519182529193507f6608a8f408f06b50497bd32b0bdfc3dead2b99c9e38f8fd2350e21c60969a7b292500160405180910390a2919050565b7ff0c57e16840df040f15088dc2f81fe391c3923bec73e23a9662efc9c229c6a008054600160401b810460ff16159067ffffffffffffffff165f811580156108175750825b90505f8267ffffffffffffffff1660011480156108335750303b155b905081158015610841575080155b1561085f5760405163f92ee8a960e01b815260040160405180910390fd5b845467ffffffffffffffff19166001178555831561088957845460ff60401b1916600160401b1785555b6108938688610b21565b83156108d957845460ff60401b19168555604051600181527fc7f505b2f371ae2175ee4913f4499e1f2633a7b5936321eed1cdaeb6115181d29060200160405180910390a15b50505050505050565b5f6001600160e01b03198216637965db0b60e01b148061035057506301ffc9a760e01b6001600160e01b0319831614610350565b6103688133610b33565b61092a5f80610b6c565b565b6109358261036b565b61093e81610916565b6109488383610c44565b50505050565b6001600160a01b03811633146109775760405163334bd91960e11b815260040160405180910390fd5b6104798282610cb8565b5f61098a610572565b61099342610d0f565b61099d919061110f565b90506109a98282610d45565b60405165ffffffffffff821681526001600160a01b038316907f3377dc44241e779dd06afab5b788a35ca5f3b778836e2990bdb26a2a4b2e5ed69060200160405180910390a25050565b5f6109fd82610dcf565b610a0642610d0f565b610a10919061110f565b9050610a1c8282610b6c565b6040805165ffffffffffff8085168252831660208201527ff1038c18cf84a56e432fdbfaf746924b7ea511dfe03a6506a0ceba4888788d9b910160405180910390a15050565b5f80516020612d248339815191525f80610a7a61062c565b91509150610a8f8165ffffffffffff16151590565b1580610aa357504265ffffffffffff821610155b15610acb576040516319ca5ebb60e01b815265ffffffffffff82166004820152602401610453565b610adc5f610ad76104a4565b610cb8565b50610ae75f83610c44565b505081546001600160d01b03191690915550565b610b048261036b565b610b0d81610916565b6109488383610cb8565b61092a5f80610d45565b610b29610e1d565b6103b38282610e66565b610b3d82826104cd565b6103b35760405163e2517d3f60e01b81526001600160a01b038216600482015260248101839052604401610453565b5f80516020612d64833981519152545f80516020612d2483398151915290600160d01b900465ffffffffffff168015610c06574265ffffffffffff82161015610bdd57600182015482546001600160d01b0316600160a01b90910465ffffffffffff16600160d01b02178255610c06565b6040517f2b1fa2edafe6f7b9e97c1a9e0c3660e645beb2dcaa2d45bdbf9beaf5472e1ec5905f90a15b5060010180546001600160a01b0316600160a01b65ffffffffffff948516026001600160d01b031617600160d01b9290931691909102919091179055565b5f5f80516020612d2483398151915283610ca6575f610c616104a4565b6001600160a01b031614610c8857604051631fe1e13d60e11b815260040160405180910390fd5b6001810180546001600160a01b0319166001600160a01b0385161790555b610cb08484610ecc565b949350505050565b5f5f80516020612d2483398151915283158015610ced5750610cd86104a4565b6001600160a01b0316836001600160a01b0316145b15610d05576001810180546001600160a01b03191690555b610cb08484610f74565b5f65ffffffffffff821115610d41576040516306dfcc6560e41b81526030600482015260248101839052604401610453565b5090565b5f80516020612d248339815191525f610d5c61062c565b835465ffffffffffff8616600160a01b026001600160d01b03199091166001600160a01b038816171784559150610d9c90508165ffffffffffff16151590565b15610948576040517f8886ebfc4259abdbc16601dd8fb5678e54878f47b3c34836cfc51154a9605109905f90a150505050565b5f80610dd9610572565b90508065ffffffffffff168365ffffffffffff1611610e0157610dfc838261112e565b610e16565b610e1665ffffffffffff841662069780610fed565b9392505050565b7ff0c57e16840df040f15088dc2f81fe391c3923bec73e23a9662efc9c229c6a0054600160401b900460ff1661092a57604051631afcd79f60e31b815260040160405180910390fd5b610e6e610e1d565b5f80516020612d248339815191526001600160a01b038216610ea557604051636116401160e11b81525f6004820152602401610453565b80546001600160d01b0316600160d01b65ffffffffffff8516021781556109485f83610c44565b5f5f80516020612d44833981519152610ee584846104cd565b610f64575f848152602082815260408083206001600160a01b03871684529091529020805460ff19166001179055610f1a3390565b6001600160a01b0316836001600160a01b0316857f2f8788117e7eff1d82e926ec794901d17c78024a50270940304540a733656f0d60405160405180910390a46001915050610350565b5f915050610350565b5092915050565b5f5f80516020612d44833981519152610f8d84846104cd565b15610f64575f848152602082815260408083206001600160a01b0387168085529252808320805460ff1916905551339287917ff6391f5c32d9c69d2a47ea670b442974b53935d1edc7fd64eb21e047a839171b9190a46001915050610350565b5f828218828410028218610e16565b611bd68061114e83390190565b5f60208284031215611019575f80fd5b81356001600160e01b031981168114610e16575f80fd5b80356001600160a01b0381168114611046575f80fd5b919050565b5f6020828403121561105b575f80fd5b610e1682611030565b5f60208284031215611074575f80fd5b5035919050565b5f806040838503121561108c575f80fd5b8235915061109c60208401611030565b90509250929050565b803565ffffffffffff81168114611046575f80fd5b5f602082840312156110ca575f80fd5b610e16826110a5565b5f80604083850312156110e4575f80fd5b6110ed83611030565b915061109c602084016110a5565b634e487b7160e01b5f52601160045260245ffd5b65ffffffffffff818116838216019080821115610f6d57610f6d6110fb565b65ffffffffffff828116828216039080821115610f6d57610f6d6110fb56fe608060405234801561000f575f80fd5b50611bb98061001d5f395ff3fe608060405234801561000f575f80fd5b5060043610610127575f3560e01c8063ae2c1d5f116100a9578063d7bffc921161006e578063d7bffc921461029d578063e5b0ea7f146102bc578063f9759518146102db578063fb329a29146102e3578063fd967f4714610372575f80fd5b8063ae2c1d5f14610243578063c45a01551461025b578063c4d66de81461026e578063c85b967d14610281578063ceb68c231461028a575f80fd5b806347e7ef24116100ef57806347e7ef24146101d65780636372df6a146101eb5780637d7c2a1c146101fe5780638da5cb5b146102065780639582224214610230575f80fd5b806315d3b5d81461012b5780631892091514610146578063201933bf1461018f578063268257df146101a45780632e1a7d4d146101c3575b5f80fd5b61013361037b565b6040519081526020015b60405180910390f35b6101746101543660046118d2565b60036020525f908152604090208054600182015460029092015490919083565b6040805193845260208401929092529082015260600161013d565b6101976103e0565b60405161013d9190611930565b6101336101b23660046118d2565b60076020525f908152604090205481565b6101336101d1366004611942565b610440565b6101e96101e4366004611959565b6105e5565b005b6101e96101f9366004611959565b610767565b6101e9610955565b5f54610218906001600160a01b031681565b6040516001600160a01b03909116815260200161013d565b61021861023e366004611942565b610b8c565b61024b610bb4565b604051901515815260200161013d565b600154610218906001600160a01b031681565b6101e961027c3660046118d2565b610c60565b6101336101f481565b6101e96102983660046118d2565b610d95565b6101336102ab3660046118d2565b60056020525f908152604090205481565b6101336102ca3660046118d2565b60066020525f908152604090205481565b610133606481565b6103356102f13660046118d2565b600260208190525f91825260409091208054600182015492820154600383015460048401546005909401546001600160a01b03909316949360ff9092169290919086565b604080516001600160a01b0390971687526020870195909552921515938501939093526060840152608083019190915260a082015260c00161013d565b61013361271081565b5f805f5b6004548110156103da5760025f6004838154811061039f5761039f611983565b5f9182526020808320909101546001600160a01b031683528201929092526040019020600101546103d090836119ab565b915060010161037f565b50919050565b6060600480548060200260200160405190810160405280929190818152602001828054801561043657602002820191905f5260205f20905b81546001600160a01b03168152600190910190602001808311610418575b5050505050905090565b5f610449610f50565b5f546001600160a01b03163314610472576040516282b42960e81b815260040160405180910390fd5b811580610480575061271082115b1561049e576040516305d7ba1960e11b815260040160405180910390fd5b5f5b600454811015610586575f600482815481106104be576104be611983565b5f91825260208220015481546040516370a0823160e01b81526001600160a01b0391821660048201529116925082906370a0823190602401602060405180830381865afa158015610511573d5f803e3d5ffd5b505050506040513d601f19601f8201168201806040525081019061053591906119be565b90505f61271061054587846119d5565b61054f91906119ec565b9050801561057b575f6105628483610f87565b905061056e81876119ab565b95506105798461100b565b505b5050506001016104a0565b507f45592cc46b51f1666e758017366a28bba78be1a895176072ee1cb50cf10a39a38260046105b361114e565b6040516105c293929190611a75565b60405180910390a16105e060015f80516020611b6483398151915255565b919050565b6105ed610f50565b5f546001600160a01b03163314610616576040516282b42960e81b815260040160405180910390fd5b806106208161121d565b61063d57604051630652f4c560e21b815260040160405180910390fd5b815f0361065d576040516305d7ba1960e11b815260040160405180910390fd5b5f80610668846112ae565b90925090505f805b835181101561070d575f83828151811061068c5761068c611983565b60200260200101511115610705576106d78482815181106106af576106af611983565b6020026020010151888584815181106106ca576106ca611983565b6020026020010151611443565b6106e190836119ab565b91506107058482815181106106f8576106f8611983565b602002602001015161100b565b600101610670565b507f845b828df9970f41b76eac93108a7b69b94a96ef68edee00dd45a86e3cc590cb85848460405161074193929190611aa9565b60405180910390a15050505061076360015f80516020611b6483398151915255565b5050565b5f546001600160a01b03163314610790576040516282b42960e81b815260040160405180910390fd5b6001600160a01b0382165f908152600260208190526040909120015460ff16156107cd57604051630cb3e97f60e31b815260040160405180910390fd5b6127108111156107f0576040516356e70fbf60e11b815260040160405180910390fd5b805f03610810576040516305d7ba1960e11b815260040160405180910390fd5b5f8161081a61037b565b61082491906119ab565b9050612710811115610849576040516306bd81bd60e21b815260040160405180910390fd5b6040805160c0810182526001600160a01b038086168083526020808401878152600185870181815242606088019081525f6080890181815260a08a018281528883526002978890528b83209a518b549a166001600160a01b03199a8b16178b5595518a8601559251958901805496151560ff19909716969096179095555160038801555160048088019190915591516005909601959095558054948501815590527f8a35acfbc15ff81a39ae7d344fd709f28e8600b4aa8c65c6b64bfe7fe36bd19b90920180549091168217905590517f56ef0a10aee7f094f2e81758ee977e1638d6197b6e92859b50cfc0ffebb30e94906109489085815260200190565b60405180910390a2505050565b61095d610f50565b5f546001600160a01b03163314610986576040516282b42960e81b815260040160405180910390fd5b61098e610bb4565b6109ab57604051636f73fdaf60e11b815260040160405180910390fd5b6004545f90819067ffffffffffffffff8111156109ca576109ca611ac1565b6040519080825280602002602001820160405280156109f3578160200160208202803683370190505b5090505f5b600454811015610a7e57610a3160048281548110610a1857610a18611983565b5f918252602090912001546001600160a01b0316611545565b828281518110610a4357610a43611983565b602002602001018181525050818181518110610a6157610a61611983565b602002602001015183610a7491906119ab565b92506001016109f8565b505f5b600454811015610b30575f60048281548110610a9f57610a9f611983565b5f9182526020808320909101546001600160a01b03168083526002909152604082206001015490925061271090610ad690876119d5565b610ae091906119ec565b905080848481518110610af557610af5611983565b602002602001015114610b2657610b2682858581518110610b1857610b18611983565b602002602001015183611620565b5050600101610a81565b507fe3f655e86a2d47038eb04f7b87f9dea95da219cebf6126e515c1be343218293d6004610b5c61114e565b604051610b6a929190611ad5565b60405180910390a15050610b8a60015f80516020611b6483398151915255565b565b60048181548110610b9b575f80fd5b5f918252602090912001546001600160a01b0316905081565b5f805b600454811015610c59575f60048281548110610bd557610bd5611983565b5f9182526020822001546001600160a01b03169150610bf38261171a565b6001600160a01b0383165f90815260026020526040812060010154919250818311610c2757610c228383611b02565b610c31565b610c318284611b02565b90506101f4811115610c495760019550505050505090565b505060019092019150610bb79050565b505f905090565b7ff0c57e16840df040f15088dc2f81fe391c3923bec73e23a9662efc9c229c6a008054600160401b810460ff16159067ffffffffffffffff165f81158015610ca55750825b90505f8267ffffffffffffffff166001148015610cc15750303b155b905081158015610ccf575080155b15610ced5760405163f92ee8a960e01b815260040160405180910390fd5b845467ffffffffffffffff191660011785558315610d1757845460ff60401b1916600160401b1785555b610d1f611759565b5f80546001600160a01b0388166001600160a01b03199182161790915560018054909116331790558315610d8d57845460ff60401b19168555604051600181527fc7f505b2f371ae2175ee4913f4499e1f2633a7b5936321eed1cdaeb6115181d29060200160405180910390a15b505050505050565b5f546001600160a01b03163314610dbe576040516282b42960e81b815260040160405180910390fd5b6001600160a01b0381165f908152600260208190526040909120015460ff16610dfa5760405163dee790fb60e01b815260040160405180910390fd5b6001600160a01b0381165f9081526002602081905260408220908101805460ff191690556001018190555b600454811015610f1957816001600160a01b031660048281548110610e4c57610e4c611983565b5f918252602090912001546001600160a01b031603610f115760048054610e7590600190611b02565b81548110610e8557610e85611983565b5f91825260209091200154600480546001600160a01b039092169183908110610eb057610eb0611983565b905f5260205f20015f6101000a8154816001600160a01b0302191690836001600160a01b031602179055506004805480610eec57610eec611b15565b5f8281526020902081015f1990810180546001600160a01b0319169055019055610f19565b600101610e25565b506040516001600160a01b038216907fe71f3a50e5ad81964f352c411f1d45e35438ecd1acecef59ac81d9fbbf6cbc0a905f90a250565b5f80516020611b64833981519152805460011901610f8157604051633ee5aeb560e01b815260040160405180910390fd5b60029055565b5f8054604051632d182be560e21b8152600481018490526001600160a01b039182166024820181905260448201529084169063b460af94906064016020604051808303815f875af1158015610fde573d5f803e3d5ffd5b505050506040513d601f19601f8201168201806040525081019061100291906119be565b90505b92915050565b6001600160a01b0381165f90815260026020908152604080832060039092528220909161103784611545565b90505f83600301544261104a9190611b02565b90505f8111801561105e57505f8460040154115b1561113d575f84600401548311611075575f611084565b60048501546110849084611b02565b905081856004015461109691906119d5565b6110a4826301e133806119d5565b6110af9060646119d5565b6110b991906119ec565b8455600184018390556110ca611769565b6110d6612710856119d5565b6110e091906119ec565b60028501819055845460018601546040805192835260208301919091528101919091526001600160a01b038716907f8fba6965bb87ed104958174573e9aed72332779f1c2138defec56d0960e7e77c9060600160405180910390a2505b506004830155504260039091015550565b6004546060905f9067ffffffffffffffff81111561116e5761116e611ac1565b604051908082528060200260200182016040528015611197578160200160208202803683370190505b5090505f5b6004548110156103da5760025f600483815481106111bc576111bc611983565b5f9182526020808320909101546001600160a01b0316835282019290925260400190206001015482518390839081106111f7576111f7611983565b602090810291909101015260010161119c565b60015f80516020611b6483398151915255565b335f9081526007602052604081205461123990620151806119ab565b421061124f57335f908152600660205260408120555b335f90815260076020908152604080832042905560069091528120546112769084906119ab565b335f9081526005602052604090205490915081111561129757505f92915050565b335f90815260066020526040902055506001919050565b606080600480548060200260200160405190810160405280929190818152602001828054801561130557602002820191905f5260205f20905b81546001600160a01b031681526001909101906020018083116112e7575b50505050509150815167ffffffffffffffff81111561132657611326611ac1565b60405190808252806020026020018201604052801561134f578160200160208202803683370190505b509050825f5b835181101561143c576001845161136c9190611b02565b8103611396578183828151811061138557611385611983565b602002602001018181525050611434565b61271060025f8684815181106113ae576113ae611983565b60200260200101516001600160a01b03166001600160a01b031681526020019081526020015f2060010154866113e491906119d5565b6113ee91906119ec565b83828151811061140057611400611983565b60200260200101818152505082818151811061141e5761141e611983565b6020026020010151826114319190611b02565b91505b600101611355565b5050915091565b5f6114596001600160a01b0384163330856117a4565b60405163095ea7b360e01b81526001600160a01b0385811660048301526024820184905284169063095ea7b3906044016020604051808303815f875af11580156114a5573d5f803e3d5ffd5b505050506040513d601f19601f820116820180604052508101906114c99190611b29565b505f54604051636e553f6560e01b8152600481018490526001600160a01b03918216602482015290851690636e553f65906044016020604051808303815f875af1158015611519573d5f803e3d5ffd5b505050506040513d601f19601f8201168201806040525081019061153d91906119be565b949350505050565b6040516370a0823160e01b81523060048201525f9081906001600160a01b038416906370a0823190602401602060405180830381865afa15801561158b573d5f803e3d5ffd5b505050506040513d601f19601f820116820180604052508101906115af91906119be565b6040516303d1689d60e11b8152600481018290529091506001600160a01b038416906307a2d13a90602401602060405180830381865afa1580156115f5573d5f803e3d5ffd5b505050506040513d601f19601f8201168201806040525081019061161991906119be565b9392505050565b5f836001600160a01b03166338d52e0f6040518163ffffffff1660e01b8152600401602060405180830381865afa15801561165d573d5f803e3d5ffd5b505050506040513d601f19601f820116820180604052508101906116819190611b48565b90506001600160a01b0381166116d65760405162461bcd60e51b8152602060048201526015602482015274496e76616c6964206173736574206164647265737360581b60448201526064015b60405180910390fd5b818310156116fd575f6116e98484611b02565b90506116f6858383611443565b5050611714565b5f6117088385611b02565b9050610d8d8582610f87565b50505050565b5f8061172583611545565b90505f611730611769565b9050805f0361174257505f9392505050565b8061174f612710846119d5565b61153d91906119ec565b6117616117fe565b610b8a611847565b5f805b6004548110156117a05761178c60048281548110610a1857610a18611983565b61179690836119ab565b915060010161176c565b5090565b604080516001600160a01b0385811660248301528416604482015260648082018490528251808303909101815260849091019091526020810180516001600160e01b03166323b872dd60e01b17905261171490859061184f565b7ff0c57e16840df040f15088dc2f81fe391c3923bec73e23a9662efc9c229c6a0054600160401b900460ff16610b8a57604051631afcd79f60e31b815260040160405180910390fd5b61120a6117fe565b5f8060205f8451602086015f885af18061186e576040513d5f823e3d81fd5b50505f513d91508115611885578060011415611892565b6001600160a01b0384163b155b1561171457604051635274afe760e01b81526001600160a01b03851660048201526024016116cd565b6001600160a01b03811681146118cf575f80fd5b50565b5f602082840312156118e2575f80fd5b8135611619816118bb565b5f815180845260208085019450602084015f5b838110156119255781516001600160a01b031687529582019590820190600101611900565b509495945050505050565b602081525f61100260208301846118ed565b5f60208284031215611952575f80fd5b5035919050565b5f806040838503121561196a575f80fd5b8235611975816118bb565b946020939093013593505050565b634e487b7160e01b5f52603260045260245ffd5b634e487b7160e01b5f52601160045260245ffd5b8082018082111561100557611005611997565b5f602082840312156119ce575f80fd5b5051919050565b808202811582820484141761100557611005611997565b5f82611a0657634e487b7160e01b5f52601260045260245ffd5b500490565b5f815480845260208085019450835f5260205f205f5b838110156119255781546001600160a01b031687529582019560019182019101611a21565b5f815180845260208085019450602084015f5b8381101561192557815187529582019590820190600101611a59565b838152606060208201525f611a8d6060830185611a0b565b8281036040840152611a9f8185611a46565b9695505050505050565b838152606060208201525f611a8d60608301856118ed565b634e487b7160e01b5f52604160045260245ffd5b604081525f611ae76040830185611a0b565b8281036020840152611af98185611a46565b95945050505050565b8181038181111561100557611005611997565b634e487b7160e01b5f52603160045260245ffd5b5f60208284031215611b39575f80fd5b81518015158114611619575f80fd5b5f60208284031215611b58575f80fd5b8151611619816118bb56fe9b779b17422d0df92223018b32b4d1fa46e071723d6817e2486d003becc55f00a264697066735822122052ae016257bde181e185551fc9a970e5517d9a79c6e0b0900eeb76ec7c0e3fcb64736f6c63430008160033eef3dac4538c82c8ace4063ab0acd2d15cdb5883aa1dff7c2673abb3d869840002dd7bc7dec4dceedda775e58dd541e08a116c6c53815c0bd028192f7b626800eef3dac4538c82c8ace4063ab0acd2d15cdb5883aa1dff7c2673abb3d8698401a2646970667358221220e7dd9663c47d2f6bac1cabfd61e7362c6f097f10b5eedd0116e32adb2d83f28a64736f6c63430008160033",
			"opcodes": "PUSH1 0x80 PUSH1 0x40 MSTORE CALLVALUE DUP1 ISZERO PUSH2 0xF JUMPI PUSH0 DUP1 REVERT JUMPDEST POP PUSH2 0x2DB9 DUP1 PUSH2 0x1D PUSH0 CODECOPY PUSH0 RETURN INVALID PUSH1 0x80 PUSH1 0x40 MSTORE CALLVALUE DUP1 ISZERO PUSH2 0xF JUMPI PUSH0 DUP1 REVERT JUMPDEST POP PUSH1 0x4 CALLDATASIZE LT PUSH2 0x13D JUMPI PUSH0 CALLDATALOAD PUSH1 0xE0 SHR DUP1 PUSH4 0x8DA5CB5B GT PUSH2 0xB4 JUMPI DUP1 PUSH4 0xCEFC1429 GT PUSH2 0x79 JUMPI DUP1 PUSH4 0xCEFC1429 EQ PUSH2 0x2C0 JUMPI DUP1 PUSH4 0xCF6EEFB7 EQ PUSH2 0x2C8 JUMPI DUP1 PUSH4 0xD547741F EQ PUSH2 0x2F6 JUMPI DUP1 PUSH4 0xD602B9FD EQ PUSH2 0x309 JUMPI DUP1 PUSH4 0xDA53D2CF EQ PUSH2 0x311 JUMPI DUP1 PUSH4 0xF4B9786C EQ PUSH2 0x319 JUMPI PUSH0 DUP1 REVERT JUMPDEST DUP1 PUSH4 0x8DA5CB5B EQ PUSH2 0x26F JUMPI DUP1 PUSH4 0x91D14854 EQ PUSH2 0x277 JUMPI DUP1 PUSH4 0xA1EDA53C EQ PUSH2 0x28A JUMPI DUP1 PUSH4 0xA217FDDF EQ PUSH2 0x2B1 JUMPI DUP1 PUSH4 0xCC8463C8 EQ PUSH2 0x2B8 JUMPI PUSH0 DUP1 REVERT JUMPDEST DUP1 PUSH4 0x2F2FF15D GT PUSH2 0x105 JUMPI DUP1 PUSH4 0x2F2FF15D EQ PUSH2 0x1F3 JUMPI DUP1 PUSH4 0x36568ABE EQ PUSH2 0x206 JUMPI DUP1 PUSH4 0x634E93DA EQ PUSH2 0x219 JUMPI DUP1 PUSH4 0x649A5EC7 EQ PUSH2 0x22C JUMPI DUP1 PUSH4 0x704D9F65 EQ PUSH2 0x23F JUMPI DUP1 PUSH4 0x84EF8FFC EQ PUSH2 0x267 JUMPI PUSH0 DUP1 REVERT JUMPDEST DUP1 PUSH4 0x1FFC9A7 EQ PUSH2 0x141 JUMPI DUP1 PUSH4 0x22D63FB EQ PUSH2 0x169 JUMPI DUP1 PUSH4 0x76BAFB7 EQ PUSH2 0x185 JUMPI DUP1 PUSH4 0xAA6220B EQ PUSH2 0x1C8 JUMPI DUP1 PUSH4 0x248A9CA3 EQ PUSH2 0x1D2 JUMPI JUMPDEST PUSH0 DUP1 REVERT JUMPDEST PUSH2 0x154 PUSH2 0x14F CALLDATASIZE PUSH1 0x4 PUSH2 0x1009 JUMP JUMPDEST PUSH2 0x32C JUMP JUMPDEST PUSH1 0x40 MLOAD SWAP1 ISZERO ISZERO DUP2 MSTORE PUSH1 0x20 ADD JUMPDEST PUSH1 0x40 MLOAD DUP1 SWAP2 SUB SWAP1 RETURN JUMPDEST PUSH3 0x69780 JUMPDEST PUSH1 0x40 MLOAD PUSH6 0xFFFFFFFFFFFF SWAP1 SWAP2 AND DUP2 MSTORE PUSH1 0x20 ADD PUSH2 0x160 JUMP JUMPDEST PUSH2 0x1B0 PUSH2 0x193 CALLDATASIZE PUSH1 0x4 PUSH2 0x104B JUMP JUMPDEST PUSH1 0x1 PUSH1 0x1 PUSH1 0xA0 SHL SUB SWAP1 DUP2 AND PUSH0 SWAP1 DUP2 MSTORE PUSH1 0x20 DUP2 SWAP1 MSTORE PUSH1 0x40 SWAP1 KECCAK256 SLOAD AND SWAP1 JUMP JUMPDEST PUSH1 0x40 MLOAD PUSH1 0x1 PUSH1 0x1 PUSH1 0xA0 SHL SUB SWAP1 SWAP2 AND DUP2 MSTORE PUSH1 0x20 ADD PUSH2 0x160 JUMP JUMPDEST PUSH2 0x1D0 PUSH2 0x356 JUMP JUMPDEST STOP JUMPDEST PUSH2 0x1E5 PUSH2 0x1E0 CALLDATASIZE PUSH1 0x4 PUSH2 0x1064 JUMP JUMPDEST PUSH2 0x36B JUMP JUMPDEST PUSH1 0x40 MLOAD SWAP1 DUP2 MSTORE PUSH1 0x20 ADD PUSH2 0x160 JUMP JUMPDEST PUSH2 0x1D0 PUSH2 0x201 CALLDATASIZE PUSH1 0x4 PUSH2 0x107B JUMP JUMPDEST PUSH2 0x38B JUMP JUMPDEST PUSH2 0x1D0 PUSH2 0x214 CALLDATASIZE PUSH1 0x4 PUSH2 0x107B JUMP JUMPDEST PUSH2 0x3B7 JUMP JUMPDEST PUSH2 0x1D0 PUSH2 0x227 CALLDATASIZE PUSH1 0x4 PUSH2 0x104B JUMP JUMPDEST PUSH2 0x47E JUMP JUMPDEST PUSH2 0x1D0 PUSH2 0x23A CALLDATASIZE PUSH1 0x4 PUSH2 0x10BA JUMP JUMPDEST PUSH2 0x491 JUMP JUMPDEST PUSH2 0x1B0 PUSH2 0x24D CALLDATASIZE PUSH1 0x4 PUSH2 0x104B JUMP JUMPDEST PUSH0 PUSH1 0x20 DUP2 SWAP1 MSTORE SWAP1 DUP2 MSTORE PUSH1 0x40 SWAP1 KECCAK256 SLOAD PUSH1 0x1 PUSH1 0x1 PUSH1 0xA0 SHL SUB AND DUP2 JUMP JUMPDEST PUSH2 0x1B0 PUSH2 0x4A4 JUMP JUMPDEST PUSH2 0x1B0 PUSH2 0x4BF JUMP JUMPDEST PUSH2 0x154 PUSH2 0x285 CALLDATASIZE PUSH1 0x4 PUSH2 0x107B JUMP JUMPDEST PUSH2 0x4CD JUMP JUMPDEST PUSH2 0x292 PUSH2 0x503 JUMP JUMPDEST PUSH1 0x40 DUP1 MLOAD PUSH6 0xFFFFFFFFFFFF SWAP4 DUP5 AND DUP2 MSTORE SWAP3 SWAP1 SWAP2 AND PUSH1 0x20 DUP4 ADD MSTORE ADD PUSH2 0x160 JUMP JUMPDEST PUSH2 0x1E5 PUSH0 DUP2 JUMP JUMPDEST PUSH2 0x16E PUSH2 0x572 JUMP JUMPDEST PUSH2 0x1D0 PUSH2 0x5ED JUMP JUMPDEST PUSH2 0x2D0 PUSH2 0x62C JUMP JUMPDEST PUSH1 0x40 DUP1 MLOAD PUSH1 0x1 PUSH1 0x1 PUSH1 0xA0 SHL SUB SWAP1 SWAP4 AND DUP4 MSTORE PUSH6 0xFFFFFFFFFFFF SWAP1 SWAP2 AND PUSH1 0x20 DUP4 ADD MSTORE ADD PUSH2 0x160 JUMP JUMPDEST PUSH2 0x1D0 PUSH2 0x304 CALLDATASIZE PUSH1 0x4 PUSH2 0x107B JUMP JUMPDEST PUSH2 0x659 JUMP JUMPDEST PUSH2 0x1D0 PUSH2 0x681 JUMP JUMPDEST PUSH2 0x1B0 PUSH2 0x693 JUMP JUMPDEST PUSH2 0x1D0 PUSH2 0x327 CALLDATASIZE PUSH1 0x4 PUSH2 0x10D3 JUMP JUMPDEST PUSH2 0x7D2 JUMP JUMPDEST PUSH0 PUSH1 0x1 PUSH1 0x1 PUSH1 0xE0 SHL SUB NOT DUP3 AND PUSH4 0x18A4C3C3 PUSH1 0xE1 SHL EQ DUP1 PUSH2 0x350 JUMPI POP PUSH2 0x350 DUP3 PUSH2 0x8E2 JUMP JUMPDEST SWAP3 SWAP2 POP POP JUMP JUMPDEST PUSH0 PUSH2 0x360 DUP2 PUSH2 0x916 JUMP JUMPDEST PUSH2 0x368 PUSH2 0x920 JUMP JUMPDEST POP JUMP JUMPDEST PUSH0 SWAP1 DUP2 MSTORE PUSH0 DUP1 MLOAD PUSH1 0x20 PUSH2 0x2D44 DUP4 CODECOPY DUP2 MLOAD SWAP2 MSTORE PUSH1 0x20 MSTORE PUSH1 0x40 SWAP1 KECCAK256 PUSH1 0x1 ADD SLOAD SWAP1 JUMP JUMPDEST DUP2 PUSH2 0x3A9 JUMPI PUSH1 0x40 MLOAD PUSH4 0x1FE1E13D PUSH1 0xE1 SHL DUP2 MSTORE PUSH1 0x4 ADD PUSH1 0x40 MLOAD DUP1 SWAP2 SUB SWAP1 REVERT JUMPDEST PUSH2 0x3B3 DUP3 DUP3 PUSH2 0x92C JUMP JUMPDEST POP POP JUMP JUMPDEST PUSH0 DUP1 MLOAD PUSH1 0x20 PUSH2 0x2D24 DUP4 CODECOPY DUP2 MLOAD SWAP2 MSTORE DUP3 ISZERO DUP1 ISZERO PUSH2 0x3EB JUMPI POP PUSH2 0x3D6 PUSH2 0x4A4 JUMP JUMPDEST PUSH1 0x1 PUSH1 0x1 PUSH1 0xA0 SHL SUB AND DUP3 PUSH1 0x1 PUSH1 0x1 PUSH1 0xA0 SHL SUB AND EQ JUMPDEST ISZERO PUSH2 0x46F JUMPI PUSH0 DUP1 PUSH2 0x3FA PUSH2 0x62C JUMP JUMPDEST SWAP1 SWAP3 POP SWAP1 POP PUSH1 0x1 PUSH1 0x1 PUSH1 0xA0 SHL SUB DUP3 AND ISZERO ISZERO DUP1 PUSH2 0x41C JUMPI POP PUSH6 0xFFFFFFFFFFFF DUP2 AND ISZERO JUMPDEST DUP1 PUSH2 0x42F JUMPI POP TIMESTAMP PUSH6 0xFFFFFFFFFFFF DUP3 AND LT ISZERO JUMPDEST ISZERO PUSH2 0x45C JUMPI PUSH1 0x40 MLOAD PUSH4 0x19CA5EBB PUSH1 0xE0 SHL DUP2 MSTORE PUSH6 0xFFFFFFFFFFFF DUP3 AND PUSH1 0x4 DUP3 ADD MSTORE PUSH1 0x24 ADD JUMPDEST PUSH1 0x40 MLOAD DUP1 SWAP2 SUB SWAP1 REVERT JUMPDEST POP POP DUP1 SLOAD PUSH6 0xFFFFFFFFFFFF PUSH1 0xA0 SHL NOT AND DUP2 SSTORE JUMPDEST PUSH2 0x479 DUP4 DUP4 PUSH2 0x94E JUMP JUMPDEST POP POP POP JUMP JUMPDEST PUSH0 PUSH2 0x488 DUP2 PUSH2 0x916 JUMP JUMPDEST PUSH2 0x3B3 DUP3 PUSH2 0x981 JUMP JUMPDEST PUSH0 PUSH2 0x49B DUP2 PUSH2 0x916 JUMP JUMPDEST PUSH2 0x3B3 DUP3 PUSH2 0x9F3 JUMP JUMPDEST PUSH0 DUP1 MLOAD PUSH1 0x20 PUSH2 0x2D64 DUP4 CODECOPY DUP2 MLOAD SWAP2 MSTORE SLOAD PUSH1 0x1 PUSH1 0x1 PUSH1 0xA0 SHL SUB AND SWAP1 JUMP JUMPDEST PUSH0 PUSH2 0x4C8 PUSH2 0x4A4 JUMP JUMPDEST SWAP1 POP SWAP1 JUMP JUMPDEST PUSH0 SWAP2 DUP3 MSTORE PUSH0 DUP1 MLOAD PUSH1 0x20 PUSH2 0x2D44 DUP4 CODECOPY DUP2 MLOAD SWAP2 MSTORE PUSH1 0x20 SWAP1 DUP2 MSTORE PUSH1 0x40 DUP1 DUP5 KECCAK256 PUSH1 0x1 PUSH1 0x1 PUSH1 0xA0 SHL SUB SWAP4 SWAP1 SWAP4 AND DUP5 MSTORE SWAP2 SWAP1 MSTORE SWAP1 KECCAK256 SLOAD PUSH1 0xFF AND SWAP1 JUMP JUMPDEST PUSH0 DUP1 MLOAD PUSH1 0x20 PUSH2 0x2D64 DUP4 CODECOPY DUP2 MLOAD SWAP2 MSTORE SLOAD PUSH0 SWAP1 PUSH1 0x1 PUSH1 0xD0 SHL SWAP1 DIV PUSH6 0xFFFFFFFFFFFF AND PUSH0 DUP1 MLOAD PUSH1 0x20 PUSH2 0x2D24 DUP4 CODECOPY DUP2 MLOAD SWAP2 MSTORE DUP2 ISZERO DUP1 ISZERO SWAP1 PUSH2 0x548 JUMPI POP TIMESTAMP PUSH6 0xFFFFFFFFFFFF DUP4 AND LT ISZERO JUMPDEST PUSH2 0x553 JUMPI PUSH0 DUP1 PUSH2 0x569 JUMP JUMPDEST PUSH1 0x1 DUP2 ADD SLOAD PUSH1 0x1 PUSH1 0xA0 SHL SWAP1 DIV PUSH6 0xFFFFFFFFFFFF AND DUP3 JUMPDEST SWAP3 POP SWAP3 POP POP SWAP1 SWAP2 JUMP JUMPDEST PUSH0 DUP1 MLOAD PUSH1 0x20 PUSH2 0x2D64 DUP4 CODECOPY DUP2 MLOAD SWAP2 MSTORE SLOAD PUSH0 SWAP1 PUSH0 DUP1 MLOAD PUSH1 0x20 PUSH2 0x2D24 DUP4 CODECOPY DUP2 MLOAD SWAP2 MSTORE SWAP1 PUSH1 0x1 PUSH1 0xD0 SHL SWAP1 DIV PUSH6 0xFFFFFFFFFFFF AND DUP1 ISZERO DUP1 ISZERO SWAP1 PUSH2 0x5B7 JUMPI POP TIMESTAMP PUSH6 0xFFFFFFFFFFFF DUP3 AND LT JUMPDEST PUSH2 0x5D1 JUMPI DUP2 SLOAD PUSH1 0x1 PUSH1 0xD0 SHL SWAP1 DIV PUSH6 0xFFFFFFFFFFFF AND PUSH2 0x5E6 JUMP JUMPDEST PUSH1 0x1 DUP3 ADD SLOAD PUSH1 0x1 PUSH1 0xA0 SHL SWAP1 DIV PUSH6 0xFFFFFFFFFFFF AND JUMPDEST SWAP3 POP POP POP SWAP1 JUMP JUMPDEST PUSH0 PUSH2 0x5F6 PUSH2 0x62C JUMP JUMPDEST POP SWAP1 POP CALLER PUSH1 0x1 PUSH1 0x1 PUSH1 0xA0 SHL SUB DUP3 AND EQ PUSH2 0x624 JUMPI PUSH1 0x40 MLOAD PUSH4 0x61164011 PUSH1 0xE1 SHL DUP2 MSTORE CALLER PUSH1 0x4 DUP3 ADD MSTORE PUSH1 0x24 ADD PUSH2 0x453 JUMP JUMPDEST PUSH2 0x368 PUSH2 0xA62 JUMP JUMPDEST PUSH0 DUP1 MLOAD PUSH1 0x20 PUSH2 0x2D24 DUP4 CODECOPY DUP2 MLOAD SWAP2 MSTORE SLOAD PUSH1 0x1 PUSH1 0x1 PUSH1 0xA0 SHL SUB DUP2 AND SWAP2 PUSH1 0x1 PUSH1 0xA0 SHL SWAP1 SWAP2 DIV PUSH6 0xFFFFFFFFFFFF AND SWAP1 JUMP JUMPDEST DUP2 PUSH2 0x677 JUMPI PUSH1 0x40 MLOAD PUSH4 0x1FE1E13D PUSH1 0xE1 SHL DUP2 MSTORE PUSH1 0x4 ADD PUSH1 0x40 MLOAD DUP1 SWAP2 SUB SWAP1 REVERT JUMPDEST PUSH2 0x3B3 DUP3 DUP3 PUSH2 0xAFB JUMP JUMPDEST PUSH0 PUSH2 0x68B DUP2 PUSH2 0x916 JUMP JUMPDEST PUSH2 0x368 PUSH2 0xB17 JUMP JUMPDEST CALLER PUSH0 SWAP1 DUP2 MSTORE PUSH1 0x20 DUP2 SWAP1 MSTORE PUSH1 0x40 DUP2 KECCAK256 SLOAD PUSH1 0x1 PUSH1 0x1 PUSH1 0xA0 SHL SUB AND ISZERO PUSH2 0x6F1 JUMPI PUSH1 0x40 MLOAD PUSH3 0x461BCD PUSH1 0xE5 SHL DUP2 MSTORE PUSH1 0x20 PUSH1 0x4 DUP3 ADD MSTORE PUSH1 0x16 PUSH1 0x24 DUP3 ADD MSTORE PUSH22 0x105B1C9958591E481A185CC81B595D18481D985D5B1D PUSH1 0x52 SHL PUSH1 0x44 DUP3 ADD MSTORE PUSH1 0x64 ADD PUSH2 0x453 JUMP JUMPDEST PUSH0 PUSH1 0x40 MLOAD PUSH2 0x6FE SWAP1 PUSH2 0xFFC JUMP JUMPDEST PUSH1 0x40 MLOAD DUP1 SWAP2 SUB SWAP1 PUSH0 CREATE DUP1 ISZERO DUP1 ISZERO PUSH2 0x717 JUMPI RETURNDATASIZE PUSH0 DUP1 RETURNDATACOPY RETURNDATASIZE PUSH0 REVERT JUMPDEST POP PUSH1 0x40 MLOAD PUSH4 0x189ACDBD PUSH1 0xE3 SHL DUP2 MSTORE CALLER PUSH1 0x4 DUP3 ADD MSTORE SWAP1 SWAP2 POP PUSH1 0x1 PUSH1 0x1 PUSH1 0xA0 SHL SUB DUP3 AND SWAP1 PUSH4 0xC4D66DE8 SWAP1 PUSH1 0x24 ADD PUSH0 PUSH1 0x40 MLOAD DUP1 DUP4 SUB DUP2 PUSH0 DUP8 DUP1 EXTCODESIZE ISZERO DUP1 ISZERO PUSH2 0x759 JUMPI PUSH0 DUP1 REVERT JUMPDEST POP GAS CALL ISZERO DUP1 ISZERO PUSH2 0x76B JUMPI RETURNDATASIZE PUSH0 DUP1 RETURNDATACOPY RETURNDATASIZE PUSH0 REVERT JUMPDEST POP POP CALLER PUSH0 DUP2 DUP2 MSTORE PUSH1 0x20 DUP2 DUP2 MSTORE PUSH1 0x40 SWAP2 DUP3 SWAP1 KECCAK256 DUP1 SLOAD PUSH1 0x1 PUSH1 0x1 PUSH1 0xA0 SHL SUB NOT AND PUSH1 0x1 PUSH1 0x1 PUSH1 0xA0 SHL SUB DUP9 AND SWAP1 DUP2 OR SWAP1 SWAP2 SSTORE SWAP2 MLOAD SWAP2 DUP3 MSTORE SWAP2 SWAP4 POP PUSH32 0x6608A8F408F06B50497BD32B0BDFC3DEAD2B99C9E38F8FD2350E21C60969A7B2 SWAP3 POP ADD PUSH1 0x40 MLOAD DUP1 SWAP2 SUB SWAP1 LOG2 SWAP2 SWAP1 POP JUMP JUMPDEST PUSH32 0xF0C57E16840DF040F15088DC2F81FE391C3923BEC73E23A9662EFC9C229C6A00 DUP1 SLOAD PUSH1 0x1 PUSH1 0x40 SHL DUP2 DIV PUSH1 0xFF AND ISZERO SWAP1 PUSH8 0xFFFFFFFFFFFFFFFF AND PUSH0 DUP2 ISZERO DUP1 ISZERO PUSH2 0x817 JUMPI POP DUP3 JUMPDEST SWAP1 POP PUSH0 DUP3 PUSH8 0xFFFFFFFFFFFFFFFF AND PUSH1 0x1 EQ DUP1 ISZERO PUSH2 0x833 JUMPI POP ADDRESS EXTCODESIZE ISZERO JUMPDEST SWAP1 POP DUP2 ISZERO DUP1 ISZERO PUSH2 0x841 JUMPI POP DUP1 ISZERO JUMPDEST ISZERO PUSH2 0x85F JUMPI PUSH1 0x40 MLOAD PUSH4 0xF92EE8A9 PUSH1 0xE0 SHL DUP2 MSTORE PUSH1 0x4 ADD PUSH1 0x40 MLOAD DUP1 SWAP2 SUB SWAP1 REVERT JUMPDEST DUP5 SLOAD PUSH8 0xFFFFFFFFFFFFFFFF NOT AND PUSH1 0x1 OR DUP6 SSTORE DUP4 ISZERO PUSH2 0x889 JUMPI DUP5 SLOAD PUSH1 0xFF PUSH1 0x40 SHL NOT AND PUSH1 0x1 PUSH1 0x40 SHL OR DUP6 SSTORE JUMPDEST PUSH2 0x893 DUP7 DUP9 PUSH2 0xB21 JUMP JUMPDEST DUP4 ISZERO PUSH2 0x8D9 JUMPI DUP5 SLOAD PUSH1 0xFF PUSH1 0x40 SHL NOT AND DUP6 SSTORE PUSH1 0x40 MLOAD PUSH1 0x1 DUP2 MSTORE PUSH32 0xC7F505B2F371AE2175EE4913F4499E1F2633A7B5936321EED1CDAEB6115181D2 SWAP1 PUSH1 0x20 ADD PUSH1 0x40 MLOAD DUP1 SWAP2 SUB SWAP1 LOG1 JUMPDEST POP POP POP POP POP POP POP JUMP JUMPDEST PUSH0 PUSH1 0x1 PUSH1 0x1 PUSH1 0xE0 SHL SUB NOT DUP3 AND PUSH4 0x7965DB0B PUSH1 0xE0 SHL EQ DUP1 PUSH2 0x350 JUMPI POP PUSH4 0x1FFC9A7 PUSH1 0xE0 SHL PUSH1 0x1 PUSH1 0x1 PUSH1 0xE0 SHL SUB NOT DUP4 AND EQ PUSH2 0x350 JUMP JUMPDEST PUSH2 0x368 DUP2 CALLER PUSH2 0xB33 JUMP JUMPDEST PUSH2 0x92A PUSH0 DUP1 PUSH2 0xB6C JUMP JUMPDEST JUMP JUMPDEST PUSH2 0x935 DUP3 PUSH2 0x36B JUMP JUMPDEST PUSH2 0x93E DUP2 PUSH2 0x916 JUMP JUMPDEST PUSH2 0x948 DUP4 DUP4 PUSH2 0xC44 JUMP JUMPDEST POP POP POP POP JUMP JUMPDEST PUSH1 0x1 PUSH1 0x1 PUSH1 0xA0 SHL SUB DUP2 AND CALLER EQ PUSH2 0x977 JUMPI PUSH1 0x40 MLOAD PUSH4 0x334BD919 PUSH1 0xE1 SHL DUP2 MSTORE PUSH1 0x4 ADD PUSH1 0x40 MLOAD DUP1 SWAP2 SUB SWAP1 REVERT JUMPDEST PUSH2 0x479 DUP3 DUP3 PUSH2 0xCB8 JUMP JUMPDEST PUSH0 PUSH2 0x98A PUSH2 0x572 JUMP JUMPDEST PUSH2 0x993 TIMESTAMP PUSH2 0xD0F JUMP JUMPDEST PUSH2 0x99D SWAP2 SWAP1 PUSH2 0x110F JUMP JUMPDEST SWAP1 POP PUSH2 0x9A9 DUP3 DUP3 PUSH2 0xD45 JUMP JUMPDEST PUSH1 0x40 MLOAD PUSH6 0xFFFFFFFFFFFF DUP3 AND DUP2 MSTORE PUSH1 0x1 PUSH1 0x1 PUSH1 0xA0 SHL SUB DUP4 AND SWAP1 PUSH32 0x3377DC44241E779DD06AFAB5B788A35CA5F3B778836E2990BDB26A2A4B2E5ED6 SWAP1 PUSH1 0x20 ADD PUSH1 0x40 MLOAD DUP1 SWAP2 SUB SWAP1 LOG2 POP POP JUMP JUMPDEST PUSH0 PUSH2 0x9FD DUP3 PUSH2 0xDCF JUMP JUMPDEST PUSH2 0xA06 TIMESTAMP PUSH2 0xD0F JUMP JUMPDEST PUSH2 0xA10 SWAP2 SWAP1 PUSH2 0x110F JUMP JUMPDEST SWAP1 POP PUSH2 0xA1C DUP3 DUP3 PUSH2 0xB6C JUMP JUMPDEST PUSH1 0x40 DUP1 MLOAD PUSH6 0xFFFFFFFFFFFF DUP1 DUP6 AND DUP3 MSTORE DUP4 AND PUSH1 0x20 DUP3 ADD MSTORE PUSH32 0xF1038C18CF84A56E432FDBFAF746924B7EA511DFE03A6506A0CEBA4888788D9B SWAP2 ADD PUSH1 0x40 MLOAD DUP1 SWAP2 SUB SWAP1 LOG1 POP POP JUMP JUMPDEST PUSH0 DUP1 MLOAD PUSH1 0x20 PUSH2 0x2D24 DUP4 CODECOPY DUP2 MLOAD SWAP2 MSTORE PUSH0 DUP1 PUSH2 0xA7A PUSH2 0x62C JUMP JUMPDEST SWAP2 POP SWAP2 POP PUSH2 0xA8F DUP2 PUSH6 0xFFFFFFFFFFFF AND ISZERO ISZERO SWAP1 JUMP JUMPDEST ISZERO DUP1 PUSH2 0xAA3 JUMPI POP TIMESTAMP PUSH6 0xFFFFFFFFFFFF DUP3 AND LT ISZERO JUMPDEST ISZERO PUSH2 0xACB JUMPI PUSH1 0x40 MLOAD PUSH4 0x19CA5EBB PUSH1 0xE0 SHL DUP2 MSTORE PUSH6 0xFFFFFFFFFFFF DUP3 AND PUSH1 0x4 DUP3 ADD MSTORE PUSH1 0x24 ADD PUSH2 0x453 JUMP JUMPDEST PUSH2 0xADC PUSH0 PUSH2 0xAD7 PUSH2 0x4A4 JUMP JUMPDEST PUSH2 0xCB8 JUMP JUMPDEST POP PUSH2 0xAE7 PUSH0 DUP4 PUSH2 0xC44 JUMP JUMPDEST POP POP DUP2 SLOAD PUSH1 0x1 PUSH1 0x1 PUSH1 0xD0 SHL SUB NOT AND SWAP1 SWAP2 SSTORE POP JUMP JUMPDEST PUSH2 0xB04 DUP3 PUSH2 0x36B JUMP JUMPDEST PUSH2 0xB0D DUP2 PUSH2 0x916 JUMP JUMPDEST PUSH2 0x948 DUP4 DUP4 PUSH2 0xCB8 JUMP JUMPDEST PUSH2 0x92A PUSH0 DUP1 PUSH2 0xD45 JUMP JUMPDEST PUSH2 0xB29 PUSH2 0xE1D JUMP JUMPDEST PUSH2 0x3B3 DUP3 DUP3 PUSH2 0xE66 JUMP JUMPDEST PUSH2 0xB3D DUP3 DUP3 PUSH2 0x4CD JUMP JUMPDEST PUSH2 0x3B3 JUMPI PUSH1 0x40 MLOAD PUSH4 0xE2517D3F PUSH1 0xE0 SHL DUP2 MSTORE PUSH1 0x1 PUSH1 0x1 PUSH1 0xA0 SHL SUB DUP3 AND PUSH1 0x4 DUP3 ADD MSTORE PUSH1 0x24 DUP2 ADD DUP4 SWAP1 MSTORE PUSH1 0x44 ADD PUSH2 0x453 JUMP JUMPDEST PUSH0 DUP1 MLOAD PUSH1 0x20 PUSH2 0x2D64 DUP4 CODECOPY DUP2 MLOAD SWAP2 MSTORE SLOAD PUSH0 DUP1 MLOAD PUSH1 0x20 PUSH2 0x2D24 DUP4 CODECOPY DUP2 MLOAD SWAP2 MSTORE SWAP1 PUSH1 0x1 PUSH1 0xD0 SHL SWAP1 DIV PUSH6 0xFFFFFFFFFFFF AND DUP1 ISZERO PUSH2 0xC06 JUMPI TIMESTAMP PUSH6 0xFFFFFFFFFFFF DUP3 AND LT ISZERO PUSH2 0xBDD JUMPI PUSH1 0x1 DUP3 ADD SLOAD DUP3 SLOAD PUSH1 0x1 PUSH1 0x1 PUSH1 0xD0 SHL SUB AND PUSH1 0x1 PUSH1 0xA0 SHL SWAP1 SWAP2 DIV PUSH6 0xFFFFFFFFFFFF AND PUSH1 0x1 PUSH1 0xD0 SHL MUL OR DUP3 SSTORE PUSH2 0xC06 JUMP JUMPDEST PUSH1 0x40 MLOAD PUSH32 0x2B1FA2EDAFE6F7B9E97C1A9E0C3660E645BEB2DCAA2D45BDBF9BEAF5472E1EC5 SWAP1 PUSH0 SWAP1 LOG1 JUMPDEST POP PUSH1 0x1 ADD DUP1 SLOAD PUSH1 0x1 PUSH1 0x1 PUSH1 0xA0 SHL SUB AND PUSH1 0x1 PUSH1 0xA0 SHL PUSH6 0xFFFFFFFFFFFF SWAP5 DUP6 AND MUL PUSH1 0x1 PUSH1 0x1 PUSH1 0xD0 SHL SUB AND OR PUSH1 0x1 PUSH1 0xD0 SHL SWAP3 SWAP1 SWAP4 AND SWAP2 SWAP1 SWAP2 MUL SWAP2 SWAP1 SWAP2 OR SWAP1 SSTORE JUMP JUMPDEST PUSH0 PUSH0 DUP1 MLOAD PUSH1 0x20 PUSH2 0x2D24 DUP4 CODECOPY DUP2 MLOAD SWAP2 MSTORE DUP4 PUSH2 0xCA6 JUMPI PUSH0 PUSH2 0xC61 PUSH2 0x4A4 JUMP JUMPDEST PUSH1 0x1 PUSH1 0x1 PUSH1 0xA0 SHL SUB AND EQ PUSH2 0xC88 JUMPI PUSH1 0x40 MLOAD PUSH4 0x1FE1E13D PUSH1 0xE1 SHL DUP2 MSTORE PUSH1 0x4 ADD PUSH1 0x40 MLOAD DUP1 SWAP2 SUB SWAP1 REVERT JUMPDEST PUSH1 0x1 DUP2 ADD DUP1 SLOAD PUSH1 0x1 PUSH1 0x1 PUSH1 0xA0 SHL SUB NOT AND PUSH1 0x1 PUSH1 0x1 PUSH1 0xA0 SHL SUB DUP6 AND OR SWAP1 SSTORE JUMPDEST PUSH2 0xCB0 DUP5 DUP5 PUSH2 0xECC JUMP JUMPDEST SWAP5 SWAP4 POP POP POP POP JUMP JUMPDEST PUSH0 PUSH0 DUP1 MLOAD PUSH1 0x20 PUSH2 0x2D24 DUP4 CODECOPY DUP2 MLOAD SWAP2 MSTORE DUP4 ISZERO DUP1 ISZERO PUSH2 0xCED JUMPI POP PUSH2 0xCD8 PUSH2 0x4A4 JUMP JUMPDEST PUSH1 0x1 PUSH1 0x1 PUSH1 0xA0 SHL SUB AND DUP4 PUSH1 0x1 PUSH1 0x1 PUSH1 0xA0 SHL SUB AND EQ JUMPDEST ISZERO PUSH2 0xD05 JUMPI PUSH1 0x1 DUP2 ADD DUP1 SLOAD PUSH1 0x1 PUSH1 0x1 PUSH1 0xA0 SHL SUB NOT AND SWAP1 SSTORE JUMPDEST PUSH2 0xCB0 DUP5 DUP5 PUSH2 0xF74 JUMP JUMPDEST PUSH0 PUSH6 0xFFFFFFFFFFFF DUP3 GT ISZERO PUSH2 0xD41 JUMPI PUSH1 0x40 MLOAD PUSH4 0x6DFCC65 PUSH1 0xE4 SHL DUP2 MSTORE PUSH1 0x30 PUSH1 0x4 DUP3 ADD MSTORE PUSH1 0x24 DUP2 ADD DUP4 SWAP1 MSTORE PUSH1 0x44 ADD PUSH2 0x453 JUMP JUMPDEST POP SWAP1 JUMP JUMPDEST PUSH0 DUP1 MLOAD PUSH1 0x20 PUSH2 0x2D24 DUP4 CODECOPY DUP2 MLOAD SWAP2 MSTORE PUSH0 PUSH2 0xD5C PUSH2 0x62C JUMP JUMPDEST DUP4 SLOAD PUSH6 0xFFFFFFFFFFFF DUP7 AND PUSH1 0x1 PUSH1 0xA0 SHL MUL PUSH1 0x1 PUSH1 0x1 PUSH1 0xD0 SHL SUB NOT SWAP1 SWAP2 AND PUSH1 0x1 PUSH1 0x1 PUSH1 0xA0 SHL SUB DUP9 AND OR OR DUP5 SSTORE SWAP2 POP PUSH2 0xD9C SWAP1 POP DUP2 PUSH6 0xFFFFFFFFFFFF AND ISZERO ISZERO SWAP1 JUMP JUMPDEST ISZERO PUSH2 0x948 JUMPI PUSH1 0x40 MLOAD PUSH32 0x8886EBFC4259ABDBC16601DD8FB5678E54878F47B3C34836CFC51154A9605109 SWAP1 PUSH0 SWAP1 LOG1 POP POP POP POP JUMP JUMPDEST PUSH0 DUP1 PUSH2 0xDD9 PUSH2 0x572 JUMP JUMPDEST SWAP1 POP DUP1 PUSH6 0xFFFFFFFFFFFF AND DUP4 PUSH6 0xFFFFFFFFFFFF AND GT PUSH2 0xE01 JUMPI PUSH2 0xDFC DUP4 DUP3 PUSH2 0x112E JUMP JUMPDEST PUSH2 0xE16 JUMP JUMPDEST PUSH2 0xE16 PUSH6 0xFFFFFFFFFFFF DUP5 AND PUSH3 0x69780 PUSH2 0xFED JUMP JUMPDEST SWAP4 SWAP3 POP POP POP JUMP JUMPDEST PUSH32 0xF0C57E16840DF040F15088DC2F81FE391C3923BEC73E23A9662EFC9C229C6A00 SLOAD PUSH1 0x1 PUSH1 0x40 SHL SWAP1 DIV PUSH1 0xFF AND PUSH2 0x92A JUMPI PUSH1 0x40 MLOAD PUSH4 0x1AFCD79F PUSH1 0xE3 SHL DUP2 MSTORE PUSH1 0x4 ADD PUSH1 0x40 MLOAD DUP1 SWAP2 SUB SWAP1 REVERT JUMPDEST PUSH2 0xE6E PUSH2 0xE1D JUMP JUMPDEST PUSH0 DUP1 MLOAD PUSH1 0x20 PUSH2 0x2D24 DUP4 CODECOPY DUP2 MLOAD SWAP2 MSTORE PUSH1 0x1 PUSH1 0x1 PUSH1 0xA0 SHL SUB DUP3 AND PUSH2 0xEA5 JUMPI PUSH1 0x40 MLOAD PUSH4 0x61164011 PUSH1 0xE1 SHL DUP2 MSTORE PUSH0 PUSH1 0x4 DUP3 ADD MSTORE PUSH1 0x24 ADD PUSH2 0x453 JUMP JUMPDEST DUP1 SLOAD PUSH1 0x1 PUSH1 0x1 PUSH1 0xD0 SHL SUB AND PUSH1 0x1 PUSH1 0xD0 SHL PUSH6 0xFFFFFFFFFFFF DUP6 AND MUL OR DUP2 SSTORE PUSH2 0x948 PUSH0 DUP4 PUSH2 0xC44 JUMP JUMPDEST PUSH0 PUSH0 DUP1 MLOAD PUSH1 0x20 PUSH2 0x2D44 DUP4 CODECOPY DUP2 MLOAD SWAP2 MSTORE PUSH2 0xEE5 DUP5 DUP5 PUSH2 0x4CD JUMP JUMPDEST PUSH2 0xF64 JUMPI PUSH0 DUP5 DUP2 MSTORE PUSH1 0x20 DUP3 DUP2 MSTORE PUSH1 0x40 DUP1 DUP4 KECCAK256 PUSH1 0x1 PUSH1 0x1 PUSH1 0xA0 SHL SUB DUP8 AND DUP5 MSTORE SWAP1 SWAP2 MSTORE SWAP1 KECCAK256 DUP1 SLOAD PUSH1 0xFF NOT AND PUSH1 0x1 OR SWAP1 SSTORE PUSH2 0xF1A CALLER SWAP1 JUMP JUMPDEST PUSH1 0x1 PUSH1 0x1 PUSH1 0xA0 SHL SUB AND DUP4 PUSH1 0x1 PUSH1 0x1 PUSH1 0xA0 SHL SUB AND DUP6 PUSH32 0x2F8788117E7EFF1D82E926EC794901D17C78024A50270940304540A733656F0D PUSH1 0x40 MLOAD PUSH1 0x40 MLOAD DUP1 SWAP2 SUB SWAP1 LOG4 PUSH1 0x1 SWAP2 POP POP PUSH2 0x350 JUMP JUMPDEST PUSH0 SWAP2 POP POP PUSH2 0x350 JUMP JUMPDEST POP SWAP3 SWAP2 POP POP JUMP JUMPDEST PUSH0 PUSH0 DUP1 MLOAD PUSH1 0x20 PUSH2 0x2D44 DUP4 CODECOPY DUP2 MLOAD SWAP2 MSTORE PUSH2 0xF8D DUP5 DUP5 PUSH2 0x4CD JUMP JUMPDEST ISZERO PUSH2 0xF64 JUMPI PUSH0 DUP5 DUP2 MSTORE PUSH1 0x20 DUP3 DUP2 MSTORE PUSH1 0x40 DUP1 DUP4 KECCAK256 PUSH1 0x1 PUSH1 0x1 PUSH1 0xA0 SHL SUB DUP8 AND DUP1 DUP6 MSTORE SWAP3 MSTORE DUP1 DUP4 KECCAK256 DUP1 SLOAD PUSH1 0xFF NOT AND SWAP1 SSTORE MLOAD CALLER SWAP3 DUP8 SWAP2 PUSH32 0xF6391F5C32D9C69D2A47EA670B442974B53935D1EDC7FD64EB21E047A839171B SWAP2 SWAP1 LOG4 PUSH1 0x1 SWAP2 POP POP PUSH2 0x350 JUMP JUMPDEST PUSH0 DUP3 DUP3 XOR DUP3 DUP5 LT MUL DUP3 XOR PUSH2 0xE16 JUMP JUMPDEST PUSH2 0x1BD6 DUP1 PUSH2 0x114E DUP4 CODECOPY ADD SWAP1 JUMP JUMPDEST PUSH0 PUSH1 0x20 DUP3 DUP5 SUB SLT ISZERO PUSH2 0x1019 JUMPI PUSH0 DUP1 REVERT JUMPDEST DUP2 CALLDATALOAD PUSH1 0x1 PUSH1 0x1 PUSH1 0xE0 SHL SUB NOT DUP2 AND DUP2 EQ PUSH2 0xE16 JUMPI PUSH0 DUP1 REVERT JUMPDEST DUP1 CALLDATALOAD PUSH1 0x1 PUSH1 0x1 PUSH1 0xA0 SHL SUB DUP2 AND DUP2 EQ PUSH2 0x1046 JUMPI PUSH0 DUP1 REVERT JUMPDEST SWAP2 SWAP1 POP JUMP JUMPDEST PUSH0 PUSH1 0x20 DUP3 DUP5 SUB SLT ISZERO PUSH2 0x105B JUMPI PUSH0 DUP1 REVERT JUMPDEST PUSH2 0xE16 DUP3 PUSH2 0x1030 JUMP JUMPDEST PUSH0 PUSH1 0x20 DUP3 DUP5 SUB SLT ISZERO PUSH2 0x1074 JUMPI PUSH0 DUP1 REVERT JUMPDEST POP CALLDATALOAD SWAP2 SWAP1 POP JUMP JUMPDEST PUSH0 DUP1 PUSH1 0x40 DUP4 DUP6 SUB SLT ISZERO PUSH2 0x108C JUMPI PUSH0 DUP1 REVERT JUMPDEST DUP3 CALLDATALOAD SWAP2 POP PUSH2 0x109C PUSH1 0x20 DUP5 ADD PUSH2 0x1030 JUMP JUMPDEST SWAP1 POP SWAP3 POP SWAP3 SWAP1 POP JUMP JUMPDEST DUP1 CALLDATALOAD PUSH6 0xFFFFFFFFFFFF DUP2 AND DUP2 EQ PUSH2 0x1046 JUMPI PUSH0 DUP1 REVERT JUMPDEST PUSH0 PUSH1 0x20 DUP3 DUP5 SUB SLT ISZERO PUSH2 0x10CA JUMPI PUSH0 DUP1 REVERT JUMPDEST PUSH2 0xE16 DUP3 PUSH2 0x10A5 JUMP JUMPDEST PUSH0 DUP1 PUSH1 0x40 DUP4 DUP6 SUB SLT ISZERO PUSH2 0x10E4 JUMPI PUSH0 DUP1 REVERT JUMPDEST PUSH2 0x10ED DUP4 PUSH2 0x1030 JUMP JUMPDEST SWAP2 POP PUSH2 0x109C PUSH1 0x20 DUP5 ADD PUSH2 0x10A5 JUMP JUMPDEST PUSH4 0x4E487B71 PUSH1 0xE0 SHL PUSH0 MSTORE PUSH1 0x11 PUSH1 0x4 MSTORE PUSH1 0x24 PUSH0 REVERT JUMPDEST PUSH6 0xFFFFFFFFFFFF DUP2 DUP2 AND DUP4 DUP3 AND ADD SWAP1 DUP1 DUP3 GT ISZERO PUSH2 0xF6D JUMPI PUSH2 0xF6D PUSH2 0x10FB JUMP JUMPDEST PUSH6 0xFFFFFFFFFFFF DUP3 DUP2 AND DUP3 DUP3 AND SUB SWAP1 DUP1 DUP3 GT ISZERO PUSH2 0xF6D JUMPI PUSH2 0xF6D PUSH2 0x10FB JUMP INVALID PUSH1 0x80 PUSH1 0x40 MSTORE CALLVALUE DUP1 ISZERO PUSH2 0xF JUMPI PUSH0 DUP1 REVERT JUMPDEST POP PUSH2 0x1BB9 DUP1 PUSH2 0x1D PUSH0 CODECOPY PUSH0 RETURN INVALID PUSH1 0x80 PUSH1 0x40 MSTORE CALLVALUE DUP1 ISZERO PUSH2 0xF JUMPI PUSH0 DUP1 REVERT JUMPDEST POP PUSH1 0x4 CALLDATASIZE LT PUSH2 0x127 JUMPI PUSH0 CALLDATALOAD PUSH1 0xE0 SHR DUP1 PUSH4 0xAE2C1D5F GT PUSH2 0xA9 JUMPI DUP1 PUSH4 0xD7BFFC92 GT PUSH2 0x6E JUMPI DUP1 PUSH4 0xD7BFFC92 EQ PUSH2 0x29D JUMPI DUP1 PUSH4 0xE5B0EA7F EQ PUSH2 0x2BC JUMPI DUP1 PUSH4 0xF9759518 EQ PUSH2 0x2DB JUMPI DUP1 PUSH4 0xFB329A29 EQ PUSH2 0x2E3 JUMPI DUP1 PUSH4 0xFD967F47 EQ PUSH2 0x372 JUMPI PUSH0 DUP1 REVERT JUMPDEST DUP1 PUSH4 0xAE2C1D5F EQ PUSH2 0x243 JUMPI DUP1 PUSH4 0xC45A0155 EQ PUSH2 0x25B JUMPI DUP1 PUSH4 0xC4D66DE8 EQ PUSH2 0x26E JUMPI DUP1 PUSH4 0xC85B967D EQ PUSH2 0x281 JUMPI DUP1 PUSH4 0xCEB68C23 EQ PUSH2 0x28A JUMPI PUSH0 DUP1 REVERT JUMPDEST DUP1 PUSH4 0x47E7EF24 GT PUSH2 0xEF JUMPI DUP1 PUSH4 0x47E7EF24 EQ PUSH2 0x1D6 JUMPI DUP1 PUSH4 0x6372DF6A EQ PUSH2 0x1EB JUMPI DUP1 PUSH4 0x7D7C2A1C EQ PUSH2 0x1FE JUMPI DUP1 PUSH4 0x8DA5CB5B EQ PUSH2 0x206 JUMPI DUP1 PUSH4 0x95822242 EQ PUSH2 0x230 JUMPI PUSH0 DUP1 REVERT JUMPDEST DUP1 PUSH4 0x15D3B5D8 EQ PUSH2 0x12B JUMPI DUP1 PUSH4 0x18920915 EQ PUSH2 0x146 JUMPI DUP1 PUSH4 0x201933BF EQ PUSH2 0x18F JUMPI DUP1 PUSH4 0x268257DF EQ PUSH2 0x1A4 JUMPI DUP1 PUSH4 0x2E1A7D4D EQ PUSH2 0x1C3 JUMPI JUMPDEST PUSH0 DUP1 REVERT JUMPDEST PUSH2 0x133 PUSH2 0x37B JUMP JUMPDEST PUSH1 0x40 MLOAD SWAP1 DUP2 MSTORE PUSH1 0x20 ADD JUMPDEST PUSH1 0x40 MLOAD DUP1 SWAP2 SUB SWAP1 RETURN JUMPDEST PUSH2 0x174 PUSH2 0x154 CALLDATASIZE PUSH1 0x4 PUSH2 0x18D2 JUMP JUMPDEST PUSH1 0x3 PUSH1 0x20 MSTORE PUSH0 SWAP1 DUP2 MSTORE PUSH1 0x40 SWAP1 KECCAK256 DUP1 SLOAD PUSH1 0x1 DUP3 ADD SLOAD PUSH1 0x2 SWAP1 SWAP3 ADD SLOAD SWAP1 SWAP2 SWAP1 DUP4 JUMP JUMPDEST PUSH1 0x40 DUP1 MLOAD SWAP4 DUP5 MSTORE PUSH1 0x20 DUP5 ADD SWAP3 SWAP1 SWAP3 MSTORE SWAP1 DUP3 ADD MSTORE PUSH1 0x60 ADD PUSH2 0x13D JUMP JUMPDEST PUSH2 0x197 PUSH2 0x3E0 JUMP JUMPDEST PUSH1 0x40 MLOAD PUSH2 0x13D SWAP2 SWAP1 PUSH2 0x1930 JUMP JUMPDEST PUSH2 0x133 PUSH2 0x1B2 CALLDATASIZE PUSH1 0x4 PUSH2 0x18D2 JUMP JUMPDEST PUSH1 0x7 PUSH1 0x20 MSTORE PUSH0 SWAP1 DUP2 MSTORE PUSH1 0x40 SWAP1 KECCAK256 SLOAD DUP2 JUMP JUMPDEST PUSH2 0x133 PUSH2 0x1D1 CALLDATASIZE PUSH1 0x4 PUSH2 0x1942 JUMP JUMPDEST PUSH2 0x440 JUMP JUMPDEST PUSH2 0x1E9 PUSH2 0x1E4 CALLDATASIZE PUSH1 0x4 PUSH2 0x1959 JUMP JUMPDEST PUSH2 0x5E5 JUMP JUMPDEST STOP JUMPDEST PUSH2 0x1E9 PUSH2 0x1F9 CALLDATASIZE PUSH1 0x4 PUSH2 0x1959 JUMP JUMPDEST PUSH2 0x767 JUMP JUMPDEST PUSH2 0x1E9 PUSH2 0x955 JUMP JUMPDEST PUSH0 SLOAD PUSH2 0x218 SWAP1 PUSH1 0x1 PUSH1 0x1 PUSH1 0xA0 SHL SUB AND DUP2 JUMP JUMPDEST PUSH1 0x40 MLOAD PUSH1 0x1 PUSH1 0x1 PUSH1 0xA0 SHL SUB SWAP1 SWAP2 AND DUP2 MSTORE PUSH1 0x20 ADD PUSH2 0x13D JUMP JUMPDEST PUSH2 0x218 PUSH2 0x23E CALLDATASIZE PUSH1 0x4 PUSH2 0x1942 JUMP JUMPDEST PUSH2 0xB8C JUMP JUMPDEST PUSH2 0x24B PUSH2 0xBB4 JUMP JUMPDEST PUSH1 0x40 MLOAD SWAP1 ISZERO ISZERO DUP2 MSTORE PUSH1 0x20 ADD PUSH2 0x13D JUMP JUMPDEST PUSH1 0x1 SLOAD PUSH2 0x218 SWAP1 PUSH1 0x1 PUSH1 0x1 PUSH1 0xA0 SHL SUB AND DUP2 JUMP JUMPDEST PUSH2 0x1E9 PUSH2 0x27C CALLDATASIZE PUSH1 0x4 PUSH2 0x18D2 JUMP JUMPDEST PUSH2 0xC60 JUMP JUMPDEST PUSH2 0x133 PUSH2 0x1F4 DUP2 JUMP JUMPDEST PUSH2 0x1E9 PUSH2 0x298 CALLDATASIZE PUSH1 0x4 PUSH2 0x18D2 JUMP JUMPDEST PUSH2 0xD95 JUMP JUMPDEST PUSH2 0x133 PUSH2 0x2AB CALLDATASIZE PUSH1 0x4 PUSH2 0x18D2 JUMP JUMPDEST PUSH1 0x5 PUSH1 0x20 MSTORE PUSH0 SWAP1 DUP2 MSTORE PUSH1 0x40 SWAP1 KECCAK256 SLOAD DUP2 JUMP JUMPDEST PUSH2 0x133 PUSH2 0x2CA CALLDATASIZE PUSH1 0x4 PUSH2 0x18D2 JUMP JUMPDEST PUSH1 0x6 PUSH1 0x20 MSTORE PUSH0 SWAP1 DUP2 MSTORE PUSH1 0x40 SWAP1 KECCAK256 SLOAD DUP2 JUMP JUMPDEST PUSH2 0x133 PUSH1 0x64 DUP2 JUMP JUMPDEST PUSH2 0x335 PUSH2 0x2F1 CALLDATASIZE PUSH1 0x4 PUSH2 0x18D2 JUMP JUMPDEST PUSH1 0x2 PUSH1 0x20 DUP2 SWAP1 MSTORE PUSH0 SWAP2 DUP3 MSTORE PUSH1 0x40 SWAP1 SWAP2 KECCAK256 DUP1 SLOAD PUSH1 0x1 DUP3 ADD SLOAD SWAP3 DUP3 ADD SLOAD PUSH1 0x3 DUP4 ADD SLOAD PUSH1 0x4 DUP5 ADD SLOAD PUSH1 0x5 SWAP1 SWAP5 ADD SLOAD PUSH1 0x1 PUSH1 0x1 PUSH1 0xA0 SHL SUB SWAP1 SWAP4 AND SWAP5 SWAP4 PUSH1 0xFF SWAP1 SWAP3 AND SWAP3 SWAP1 SWAP2 SWAP1 DUP7 JUMP JUMPDEST PUSH1 0x40 DUP1 MLOAD PUSH1 0x1 PUSH1 0x1 PUSH1 0xA0 SHL SUB SWAP1 SWAP8 AND DUP8 MSTORE PUSH1 0x20 DUP8 ADD SWAP6 SWAP1 SWAP6 MSTORE SWAP3 ISZERO ISZERO SWAP4 DUP6 ADD SWAP4 SWAP1 SWAP4 MSTORE PUSH1 0x60 DUP5 ADD MSTORE PUSH1 0x80 DUP4 ADD SWAP2 SWAP1 SWAP2 MSTORE PUSH1 0xA0 DUP3 ADD MSTORE PUSH1 0xC0 ADD PUSH2 0x13D JUMP JUMPDEST PUSH2 0x133 PUSH2 0x2710 DUP2 JUMP JUMPDEST PUSH0 DUP1 PUSH0 JUMPDEST PUSH1 0x4 SLOAD DUP2 LT ISZERO PUSH2 0x3DA JUMPI PUSH1 0x2 PUSH0 PUSH1 0x4 DUP4 DUP2 SLOAD DUP2 LT PUSH2 0x39F JUMPI PUSH2 0x39F PUSH2 0x1983 JUMP JUMPDEST PUSH0 SWAP2 DUP3 MSTORE PUSH1 0x20 DUP1 DUP4 KECCAK256 SWAP1 SWAP2 ADD SLOAD PUSH1 0x1 PUSH1 0x1 PUSH1 0xA0 SHL SUB AND DUP4 MSTORE DUP3 ADD SWAP3 SWAP1 SWAP3 MSTORE PUSH1 0x40 ADD SWAP1 KECCAK256 PUSH1 0x1 ADD SLOAD PUSH2 0x3D0 SWAP1 DUP4 PUSH2 0x19AB JUMP JUMPDEST SWAP2 POP PUSH1 0x1 ADD PUSH2 0x37F JUMP JUMPDEST POP SWAP2 SWAP1 POP JUMP JUMPDEST PUSH1 0x60 PUSH1 0x4 DUP1 SLOAD DUP1 PUSH1 0x20 MUL PUSH1 0x20 ADD PUSH1 0x40 MLOAD SWAP1 DUP2 ADD PUSH1 0x40 MSTORE DUP1 SWAP3 SWAP2 SWAP1 DUP2 DUP2 MSTORE PUSH1 0x20 ADD DUP3 DUP1 SLOAD DUP1 ISZERO PUSH2 0x436 JUMPI PUSH1 0x20 MUL DUP3 ADD SWAP2 SWAP1 PUSH0 MSTORE PUSH1 0x20 PUSH0 KECCAK256 SWAP1 JUMPDEST DUP2 SLOAD PUSH1 0x1 PUSH1 0x1 PUSH1 0xA0 SHL SUB AND DUP2 MSTORE PUSH1 0x1 SWAP1 SWAP2 ADD SWAP1 PUSH1 0x20 ADD DUP1 DUP4 GT PUSH2 0x418 JUMPI JUMPDEST POP POP POP POP POP SWAP1 POP SWAP1 JUMP JUMPDEST PUSH0 PUSH2 0x449 PUSH2 0xF50 JUMP JUMPDEST PUSH0 SLOAD PUSH1 0x1 PUSH1 0x1 PUSH1 0xA0 SHL SUB AND CALLER EQ PUSH2 0x472 JUMPI PUSH1 0x40 MLOAD PUSH3 0x82B429 PUSH1 0xE8 SHL DUP2 MSTORE PUSH1 0x4 ADD PUSH1 0x40 MLOAD DUP1 SWAP2 SUB SWAP1 REVERT JUMPDEST DUP2 ISZERO DUP1 PUSH2 0x480 JUMPI POP PUSH2 0x2710 DUP3 GT JUMPDEST ISZERO PUSH2 0x49E JUMPI PUSH1 0x40 MLOAD PUSH4 0x5D7BA19 PUSH1 0xE1 SHL DUP2 MSTORE PUSH1 0x4 ADD PUSH1 0x40 MLOAD DUP1 SWAP2 SUB SWAP1 REVERT JUMPDEST PUSH0 JUMPDEST PUSH1 0x4 SLOAD DUP2 LT ISZERO PUSH2 0x586 JUMPI PUSH0 PUSH1 0x4 DUP3 DUP2 SLOAD DUP2 LT PUSH2 0x4BE JUMPI PUSH2 0x4BE PUSH2 0x1983 JUMP JUMPDEST PUSH0 SWAP2 DUP3 MSTORE PUSH1 0x20 DUP3 KECCAK256 ADD SLOAD DUP2 SLOAD PUSH1 0x40 MLOAD PUSH4 0x70A08231 PUSH1 0xE0 SHL DUP2 MSTORE PUSH1 0x1 PUSH1 0x1 PUSH1 0xA0 SHL SUB SWAP2 DUP3 AND PUSH1 0x4 DUP3 ADD MSTORE SWAP2 AND SWAP3 POP DUP3 SWAP1 PUSH4 0x70A08231 SWAP1 PUSH1 0x24 ADD PUSH1 0x20 PUSH1 0x40 MLOAD DUP1 DUP4 SUB DUP2 DUP7 GAS STATICCALL ISZERO DUP1 ISZERO PUSH2 0x511 JUMPI RETURNDATASIZE PUSH0 DUP1 RETURNDATACOPY RETURNDATASIZE PUSH0 REVERT JUMPDEST POP POP POP POP PUSH1 0x40 MLOAD RETURNDATASIZE PUSH1 0x1F NOT PUSH1 0x1F DUP3 ADD AND DUP3 ADD DUP1 PUSH1 0x40 MSTORE POP DUP2 ADD SWAP1 PUSH2 0x535 SWAP2 SWAP1 PUSH2 0x19BE JUMP JUMPDEST SWAP1 POP PUSH0 PUSH2 0x2710 PUSH2 0x545 DUP8 DUP5 PUSH2 0x19D5 JUMP JUMPDEST PUSH2 0x54F SWAP2 SWAP1 PUSH2 0x19EC JUMP JUMPDEST SWAP1 POP DUP1 ISZERO PUSH2 0x57B JUMPI PUSH0 PUSH2 0x562 DUP5 DUP4 PUSH2 0xF87 JUMP JUMPDEST SWAP1 POP PUSH2 0x56E DUP2 DUP8 PUSH2 0x19AB JUMP JUMPDEST SWAP6 POP PUSH2 0x579 DUP5 PUSH2 0x100B JUMP JUMPDEST POP JUMPDEST POP POP POP PUSH1 0x1 ADD PUSH2 0x4A0 JUMP JUMPDEST POP PUSH32 0x45592CC46B51F1666E758017366A28BBA78BE1A895176072EE1CB50CF10A39A3 DUP3 PUSH1 0x4 PUSH2 0x5B3 PUSH2 0x114E JUMP JUMPDEST PUSH1 0x40 MLOAD PUSH2 0x5C2 SWAP4 SWAP3 SWAP2 SWAP1 PUSH2 0x1A75 JUMP JUMPDEST PUSH1 0x40 MLOAD DUP1 SWAP2 SUB SWAP1 LOG1 PUSH2 0x5E0 PUSH1 0x1 PUSH0 DUP1 MLOAD PUSH1 0x20 PUSH2 0x1B64 DUP4 CODECOPY DUP2 MLOAD SWAP2 MSTORE SSTORE JUMP JUMPDEST SWAP2 SWAP1 POP JUMP JUMPDEST PUSH2 0x5ED PUSH2 0xF50 JUMP JUMPDEST PUSH0 SLOAD PUSH1 0x1 PUSH1 0x1 PUSH1 0xA0 SHL SUB AND CALLER EQ PUSH2 0x616 JUMPI PUSH1 0x40 MLOAD PUSH3 0x82B429 PUSH1 0xE8 SHL DUP2 MSTORE PUSH1 0x4 ADD PUSH1 0x40 MLOAD DUP1 SWAP2 SUB SWAP1 REVERT JUMPDEST DUP1 PUSH2 0x620 DUP2 PUSH2 0x121D JUMP JUMPDEST PUSH2 0x63D JUMPI PUSH1 0x40 MLOAD PUSH4 0x652F4C5 PUSH1 0xE2 SHL DUP2 MSTORE PUSH1 0x4 ADD PUSH1 0x40 MLOAD DUP1 SWAP2 SUB SWAP1 REVERT JUMPDEST DUP2 PUSH0 SUB PUSH2 0x65D JUMPI PUSH1 0x40 MLOAD PUSH4 0x5D7BA19 PUSH1 0xE1 SHL DUP2 MSTORE PUSH1 0x4 ADD PUSH1 0x40 MLOAD DUP1 SWAP2 SUB SWAP1 REVERT JUMPDEST PUSH0 DUP1 PUSH2 0x668 DUP5 PUSH2 0x12AE JUMP JUMPDEST SWAP1 SWAP3 POP SWAP1 POP PUSH0 DUP1 JUMPDEST DUP4 MLOAD DUP2 LT ISZERO PUSH2 0x70D JUMPI PUSH0 DUP4 DUP3 DUP2 MLOAD DUP2 LT PUSH2 0x68C JUMPI PUSH2 0x68C PUSH2 0x1983 JUMP JUMPDEST PUSH1 0x20 MUL PUSH1 0x20 ADD ADD MLOAD GT ISZERO PUSH2 0x705 JUMPI PUSH2 0x6D7 DUP5 DUP3 DUP2 MLOAD DUP2 LT PUSH2 0x6AF JUMPI PUSH2 0x6AF PUSH2 0x1983 JUMP JUMPDEST PUSH1 0x20 MUL PUSH1 0x20 ADD ADD MLOAD DUP9 DUP6 DUP5 DUP2 MLOAD DUP2 LT PUSH2 0x6CA JUMPI PUSH2 0x6CA PUSH2 0x1983 JUMP JUMPDEST PUSH1 0x20 MUL PUSH1 0x20 ADD ADD MLOAD PUSH2 0x1443 JUMP JUMPDEST PUSH2 0x6E1 SWAP1 DUP4 PUSH2 0x19AB JUMP JUMPDEST SWAP2 POP PUSH2 0x705 DUP5 DUP3 DUP2 MLOAD DUP2 LT PUSH2 0x6F8 JUMPI PUSH2 0x6F8 PUSH2 0x1983 JUMP JUMPDEST PUSH1 0x20 MUL PUSH1 0x20 ADD ADD MLOAD PUSH2 0x100B JUMP JUMPDEST PUSH1 0x1 ADD PUSH2 0x670 JUMP JUMPDEST POP PUSH32 0x845B828DF9970F41B76EAC93108A7B69B94A96EF68EDEE00DD45A86E3CC590CB DUP6 DUP5 DUP5 PUSH1 0x40 MLOAD PUSH2 0x741 SWAP4 SWAP3 SWAP2 SWAP1 PUSH2 0x1AA9 JUMP JUMPDEST PUSH1 0x40 MLOAD DUP1 SWAP2 SUB SWAP1 LOG1 POP POP POP POP PUSH2 0x763 PUSH1 0x1 PUSH0 DUP1 MLOAD PUSH1 0x20 PUSH2 0x1B64 DUP4 CODECOPY DUP2 MLOAD SWAP2 MSTORE SSTORE JUMP JUMPDEST POP POP JUMP JUMPDEST PUSH0 SLOAD PUSH1 0x1 PUSH1 0x1 PUSH1 0xA0 SHL SUB AND CALLER EQ PUSH2 0x790 JUMPI PUSH1 0x40 MLOAD PUSH3 0x82B429 PUSH1 0xE8 SHL DUP2 MSTORE PUSH1 0x4 ADD PUSH1 0x40 MLOAD DUP1 SWAP2 SUB SWAP1 REVERT JUMPDEST PUSH1 0x1 PUSH1 0x1 PUSH1 0xA0 SHL SUB DUP3 AND PUSH0 SWAP1 DUP2 MSTORE PUSH1 0x2 PUSH1 0x20 DUP2 SWAP1 MSTORE PUSH1 0x40 SWAP1 SWAP2 KECCAK256 ADD SLOAD PUSH1 0xFF AND ISZERO PUSH2 0x7CD JUMPI PUSH1 0x40 MLOAD PUSH4 0xCB3E97F PUSH1 0xE3 SHL DUP2 MSTORE PUSH1 0x4 ADD PUSH1 0x40 MLOAD DUP1 SWAP2 SUB SWAP1 REVERT JUMPDEST PUSH2 0x2710 DUP2 GT ISZERO PUSH2 0x7F0 JUMPI PUSH1 0x40 MLOAD PUSH4 0x56E70FBF PUSH1 0xE1 SHL DUP2 MSTORE PUSH1 0x4 ADD PUSH1 0x40 MLOAD DUP1 SWAP2 SUB SWAP1 REVERT JUMPDEST DUP1 PUSH0 SUB PUSH2 0x810 JUMPI PUSH1 0x40 MLOAD PUSH4 0x5D7BA19 PUSH1 0xE1 SHL DUP2 MSTORE PUSH1 0x4 ADD PUSH1 0x40 MLOAD DUP1 SWAP2 SUB SWAP1 REVERT JUMPDEST PUSH0 DUP2 PUSH2 0x81A PUSH2 0x37B JUMP JUMPDEST PUSH2 0x824 SWAP2 SWAP1 PUSH2 0x19AB JUMP JUMPDEST SWAP1 POP PUSH2 0x2710 DUP2 GT ISZERO PUSH2 0x849 JUMPI PUSH1 0x40 MLOAD PUSH4 0x6BD81BD PUSH1 0xE2 SHL DUP2 MSTORE PUSH1 0x4 ADD PUSH1 0x40 MLOAD DUP1 SWAP2 SUB SWAP1 REVERT JUMPDEST PUSH1 0x40 DUP1 MLOAD PUSH1 0xC0 DUP2 ADD DUP3 MSTORE PUSH1 0x1 PUSH1 0x1 PUSH1 0xA0 SHL SUB DUP1 DUP7 AND DUP1 DUP4 MSTORE PUSH1 0x20 DUP1 DUP5 ADD DUP8 DUP2 MSTORE PUSH1 0x1 DUP6 DUP8 ADD DUP2 DUP2 MSTORE TIMESTAMP PUSH1 0x60 DUP9 ADD SWAP1 DUP2 MSTORE PUSH0 PUSH1 0x80 DUP10 ADD DUP2 DUP2 MSTORE PUSH1 0xA0 DUP11 ADD DUP3 DUP2 MSTORE DUP9 DUP4 MSTORE PUSH1 0x2 SWAP8 DUP9 SWAP1 MSTORE DUP12 DUP4 KECCAK256 SWAP11 MLOAD DUP12 SLOAD SWAP11 AND PUSH1 0x1 PUSH1 0x1 PUSH1 0xA0 SHL SUB NOT SWAP11 DUP12 AND OR DUP12 SSTORE SWAP6 MLOAD DUP11 DUP7 ADD SSTORE SWAP3 MLOAD SWAP6 DUP10 ADD DUP1 SLOAD SWAP7 ISZERO ISZERO PUSH1 0xFF NOT SWAP1 SWAP8 AND SWAP7 SWAP1 SWAP7 OR SWAP1 SWAP6 SSTORE MLOAD PUSH1 0x3 DUP9 ADD SSTORE MLOAD PUSH1 0x4 DUP1 DUP9 ADD SWAP2 SWAP1 SWAP2 SSTORE SWAP2 MLOAD PUSH1 0x5 SWAP1 SWAP7 ADD SWAP6 SWAP1 SWAP6 SSTORE DUP1 SLOAD SWAP5 DUP6 ADD DUP2 SSTORE SWAP1 MSTORE PUSH32 0x8A35ACFBC15FF81A39AE7D344FD709F28E8600B4AA8C65C6B64BFE7FE36BD19B SWAP1 SWAP3 ADD DUP1 SLOAD SWAP1 SWAP2 AND DUP3 OR SWAP1 SSTORE SWAP1 MLOAD PUSH32 0x56EF0A10AEE7F094F2E81758EE977E1638D6197B6E92859B50CFC0FFEBB30E94 SWAP1 PUSH2 0x948 SWAP1 DUP6 DUP2 MSTORE PUSH1 0x20 ADD SWAP1 JUMP JUMPDEST PUSH1 0x40 MLOAD DUP1 SWAP2 SUB SWAP1 LOG2 POP POP POP JUMP JUMPDEST PUSH2 0x95D PUSH2 0xF50 JUMP JUMPDEST PUSH0 SLOAD PUSH1 0x1 PUSH1 0x1 PUSH1 0xA0 SHL SUB AND CALLER EQ PUSH2 0x986 JUMPI PUSH1 0x40 MLOAD PUSH3 0x82B429 PUSH1 0xE8 SHL DUP2 MSTORE PUSH1 0x4 ADD PUSH1 0x40 MLOAD DUP1 SWAP2 SUB SWAP1 REVERT JUMPDEST PUSH2 0x98E PUSH2 0xBB4 JUMP JUMPDEST PUSH2 0x9AB JUMPI PUSH1 0x40 MLOAD PUSH4 0x6F73FDAF PUSH1 0xE1 SHL DUP2 MSTORE PUSH1 0x4 ADD PUSH1 0x40 MLOAD DUP1 SWAP2 SUB SWAP1 REVERT JUMPDEST PUSH1 0x4 SLOAD PUSH0 SWAP1 DUP2 SWAP1 PUSH8 0xFFFFFFFFFFFFFFFF DUP2 GT ISZERO PUSH2 0x9CA JUMPI PUSH2 0x9CA PUSH2 0x1AC1 JUMP JUMPDEST PUSH1 0x40 MLOAD SWAP1 DUP1 DUP3 MSTORE DUP1 PUSH1 0x20 MUL PUSH1 0x20 ADD DUP3 ADD PUSH1 0x40 MSTORE DUP1 ISZERO PUSH2 0x9F3 JUMPI DUP2 PUSH1 0x20 ADD PUSH1 0x20 DUP3 MUL DUP1 CALLDATASIZE DUP4 CALLDATACOPY ADD SWAP1 POP JUMPDEST POP SWAP1 POP PUSH0 JUMPDEST PUSH1 0x4 SLOAD DUP2 LT ISZERO PUSH2 0xA7E JUMPI PUSH2 0xA31 PUSH1 0x4 DUP3 DUP2 SLOAD DUP2 LT PUSH2 0xA18 JUMPI PUSH2 0xA18 PUSH2 0x1983 JUMP JUMPDEST PUSH0 SWAP2 DUP3 MSTORE PUSH1 0x20 SWAP1 SWAP2 KECCAK256 ADD SLOAD PUSH1 0x1 PUSH1 0x1 PUSH1 0xA0 SHL SUB AND PUSH2 0x1545 JUMP JUMPDEST DUP3 DUP3 DUP2 MLOAD DUP2 LT PUSH2 0xA43 JUMPI PUSH2 0xA43 PUSH2 0x1983 JUMP JUMPDEST PUSH1 0x20 MUL PUSH1 0x20 ADD ADD DUP2 DUP2 MSTORE POP POP DUP2 DUP2 DUP2 MLOAD DUP2 LT PUSH2 0xA61 JUMPI PUSH2 0xA61 PUSH2 0x1983 JUMP JUMPDEST PUSH1 0x20 MUL PUSH1 0x20 ADD ADD MLOAD DUP4 PUSH2 0xA74 SWAP2 SWAP1 PUSH2 0x19AB JUMP JUMPDEST SWAP3 POP PUSH1 0x1 ADD PUSH2 0x9F8 JUMP JUMPDEST POP PUSH0 JUMPDEST PUSH1 0x4 SLOAD DUP2 LT ISZERO PUSH2 0xB30 JUMPI PUSH0 PUSH1 0x4 DUP3 DUP2 SLOAD DUP2 LT PUSH2 0xA9F JUMPI PUSH2 0xA9F PUSH2 0x1983 JUMP JUMPDEST PUSH0 SWAP2 DUP3 MSTORE PUSH1 0x20 DUP1 DUP4 KECCAK256 SWAP1 SWAP2 ADD SLOAD PUSH1 0x1 PUSH1 0x1 PUSH1 0xA0 SHL SUB AND DUP1 DUP4 MSTORE PUSH1 0x2 SWAP1 SWAP2 MSTORE PUSH1 0x40 DUP3 KECCAK256 PUSH1 0x1 ADD SLOAD SWAP1 SWAP3 POP PUSH2 0x2710 SWAP1 PUSH2 0xAD6 SWAP1 DUP8 PUSH2 0x19D5 JUMP JUMPDEST PUSH2 0xAE0 SWAP2 SWAP1 PUSH2 0x19EC JUMP JUMPDEST SWAP1 POP DUP1 DUP5 DUP5 DUP2 MLOAD DUP2 LT PUSH2 0xAF5 JUMPI PUSH2 0xAF5 PUSH2 0x1983 JUMP JUMPDEST PUSH1 0x20 MUL PUSH1 0x20 ADD ADD MLOAD EQ PUSH2 0xB26 JUMPI PUSH2 0xB26 DUP3 DUP6 DUP6 DUP2 MLOAD DUP2 LT PUSH2 0xB18 JUMPI PUSH2 0xB18 PUSH2 0x1983 JUMP JUMPDEST PUSH1 0x20 MUL PUSH1 0x20 ADD ADD MLOAD DUP4 PUSH2 0x1620 JUMP JUMPDEST POP POP PUSH1 0x1 ADD PUSH2 0xA81 JUMP JUMPDEST POP PUSH32 0xE3F655E86A2D47038EB04F7B87F9DEA95DA219CEBF6126E515C1BE343218293D PUSH1 0x4 PUSH2 0xB5C PUSH2 0x114E JUMP JUMPDEST PUSH1 0x40 MLOAD PUSH2 0xB6A SWAP3 SWAP2 SWAP1 PUSH2 0x1AD5 JUMP JUMPDEST PUSH1 0x40 MLOAD DUP1 SWAP2 SUB SWAP1 LOG1 POP POP PUSH2 0xB8A PUSH1 0x1 PUSH0 DUP1 MLOAD PUSH1 0x20 PUSH2 0x1B64 DUP4 CODECOPY DUP2 MLOAD SWAP2 MSTORE SSTORE JUMP JUMPDEST JUMP JUMPDEST PUSH1 0x4 DUP2 DUP2 SLOAD DUP2 LT PUSH2 0xB9B JUMPI PUSH0 DUP1 REVERT JUMPDEST PUSH0 SWAP2 DUP3 MSTORE PUSH1 0x20 SWAP1 SWAP2 KECCAK256 ADD SLOAD PUSH1 0x1 PUSH1 0x1 PUSH1 0xA0 SHL SUB AND SWAP1 POP DUP2 JUMP JUMPDEST PUSH0 DUP1 JUMPDEST PUSH1 0x4 SLOAD DUP2 LT ISZERO PUSH2 0xC59 JUMPI PUSH0 PUSH1 0x4 DUP3 DUP2 SLOAD DUP2 LT PUSH2 0xBD5 JUMPI PUSH2 0xBD5 PUSH2 0x1983 JUMP JUMPDEST PUSH0 SWAP2 DUP3 MSTORE PUSH1 0x20 DUP3 KECCAK256 ADD SLOAD PUSH1 0x1 PUSH1 0x1 PUSH1 0xA0 SHL SUB AND SWAP2 POP PUSH2 0xBF3 DUP3 PUSH2 0x171A JUMP JUMPDEST PUSH1 0x1 PUSH1 0x1 PUSH1 0xA0 SHL SUB DUP4 AND PUSH0 SWAP1 DUP2 MSTORE PUSH1 0x2 PUSH1 0x20 MSTORE PUSH1 0x40 DUP2 KECCAK256 PUSH1 0x1 ADD SLOAD SWAP2 SWAP3 POP DUP2 DUP4 GT PUSH2 0xC27 JUMPI PUSH2 0xC22 DUP4 DUP4 PUSH2 0x1B02 JUMP JUMPDEST PUSH2 0xC31 JUMP JUMPDEST PUSH2 0xC31 DUP3 DUP5 PUSH2 0x1B02 JUMP JUMPDEST SWAP1 POP PUSH2 0x1F4 DUP2 GT ISZERO PUSH2 0xC49 JUMPI PUSH1 0x1 SWAP6 POP POP POP POP POP POP SWAP1 JUMP JUMPDEST POP POP PUSH1 0x1 SWAP1 SWAP3 ADD SWAP2 POP PUSH2 0xBB7 SWAP1 POP JUMP JUMPDEST POP PUSH0 SWAP1 POP SWAP1 JUMP JUMPDEST PUSH32 0xF0C57E16840DF040F15088DC2F81FE391C3923BEC73E23A9662EFC9C229C6A00 DUP1 SLOAD PUSH1 0x1 PUSH1 0x40 SHL DUP2 DIV PUSH1 0xFF AND ISZERO SWAP1 PUSH8 0xFFFFFFFFFFFFFFFF AND PUSH0 DUP2 ISZERO DUP1 ISZERO PUSH2 0xCA5 JUMPI POP DUP3 JUMPDEST SWAP1 POP PUSH0 DUP3 PUSH8 0xFFFFFFFFFFFFFFFF AND PUSH1 0x1 EQ DUP1 ISZERO PUSH2 0xCC1 JUMPI POP ADDRESS EXTCODESIZE ISZERO JUMPDEST SWAP1 POP DUP2 ISZERO DUP1 ISZERO PUSH2 0xCCF JUMPI POP DUP1 ISZERO JUMPDEST ISZERO PUSH2 0xCED JUMPI PUSH1 0x40 MLOAD PUSH4 0xF92EE8A9 PUSH1 0xE0 SHL DUP2 MSTORE PUSH1 0x4 ADD PUSH1 0x40 MLOAD DUP1 SWAP2 SUB SWAP1 REVERT JUMPDEST DUP5 SLOAD PUSH8 0xFFFFFFFFFFFFFFFF NOT AND PUSH1 0x1 OR DUP6 SSTORE DUP4 ISZERO PUSH2 0xD17 JUMPI DUP5 SLOAD PUSH1 0xFF PUSH1 0x40 SHL NOT AND PUSH1 0x1 PUSH1 0x40 SHL OR DUP6 SSTORE JUMPDEST PUSH2 0xD1F PUSH2 0x1759 JUMP JUMPDEST PUSH0 DUP1 SLOAD PUSH1 0x1 PUSH1 0x1 PUSH1 0xA0 SHL SUB DUP9 AND PUSH1 0x1 PUSH1 0x1 PUSH1 0xA0 SHL SUB NOT SWAP2 DUP3 AND OR SWAP1 SWAP2 SSTORE PUSH1 0x1 DUP1 SLOAD SWAP1 SWAP2 AND CALLER OR SWAP1 SSTORE DUP4 ISZERO PUSH2 0xD8D JUMPI DUP5 SLOAD PUSH1 0xFF PUSH1 0x40 SHL NOT AND DUP6 SSTORE PUSH1 0x40 MLOAD PUSH1 0x1 DUP2 MSTORE PUSH32 0xC7F505B2F371AE2175EE4913F4499E1F2633A7B5936321EED1CDAEB6115181D2 SWAP1 PUSH1 0x20 ADD PUSH1 0x40 MLOAD DUP1 SWAP2 SUB SWAP1 LOG1 JUMPDEST POP POP POP POP POP POP JUMP JUMPDEST PUSH0 SLOAD PUSH1 0x1 PUSH1 0x1 PUSH1 0xA0 SHL SUB AND CALLER EQ PUSH2 0xDBE JUMPI PUSH1 0x40 MLOAD PUSH3 0x82B429 PUSH1 0xE8 SHL DUP2 MSTORE PUSH1 0x4 ADD PUSH1 0x40 MLOAD DUP1 SWAP2 SUB SWAP1 REVERT JUMPDEST PUSH1 0x1 PUSH1 0x1 PUSH1 0xA0 SHL SUB DUP2 AND PUSH0 SWAP1 DUP2 MSTORE PUSH1 0x2 PUSH1 0x20 DUP2 SWAP1 MSTORE PUSH1 0x40 SWAP1 SWAP2 KECCAK256 ADD SLOAD PUSH1 0xFF AND PUSH2 0xDFA JUMPI PUSH1 0x40 MLOAD PUSH4 0xDEE790FB PUSH1 0xE0 SHL DUP2 MSTORE PUSH1 0x4 ADD PUSH1 0x40 MLOAD DUP1 SWAP2 SUB SWAP1 REVERT JUMPDEST PUSH1 0x1 PUSH1 0x1 PUSH1 0xA0 SHL SUB DUP2 AND PUSH0 SWAP1 DUP2 MSTORE PUSH1 0x2 PUSH1 0x20 DUP2 SWAP1 MSTORE PUSH1 0x40 DUP3 KECCAK256 SWAP1 DUP2 ADD DUP1 SLOAD PUSH1 0xFF NOT AND SWAP1 SSTORE PUSH1 0x1 ADD DUP2 SWAP1 SSTORE JUMPDEST PUSH1 0x4 SLOAD DUP2 LT ISZERO PUSH2 0xF19 JUMPI DUP2 PUSH1 0x1 PUSH1 0x1 PUSH1 0xA0 SHL SUB AND PUSH1 0x4 DUP3 DUP2 SLOAD DUP2 LT PUSH2 0xE4C JUMPI PUSH2 0xE4C PUSH2 0x1983 JUMP JUMPDEST PUSH0 SWAP2 DUP3 MSTORE PUSH1 0x20 SWAP1 SWAP2 KECCAK256 ADD SLOAD PUSH1 0x1 PUSH1 0x1 PUSH1 0xA0 SHL SUB AND SUB PUSH2 0xF11 JUMPI PUSH1 0x4 DUP1 SLOAD PUSH2 0xE75 SWAP1 PUSH1 0x1 SWAP1 PUSH2 0x1B02 JUMP JUMPDEST DUP2 SLOAD DUP2 LT PUSH2 0xE85 JUMPI PUSH2 0xE85 PUSH2 0x1983 JUMP JUMPDEST PUSH0 SWAP2 DUP3 MSTORE PUSH1 0x20 SWAP1 SWAP2 KECCAK256 ADD SLOAD PUSH1 0x4 DUP1 SLOAD PUSH1 0x1 PUSH1 0x1 PUSH1 0xA0 SHL SUB SWAP1 SWAP3 AND SWAP2 DUP4 SWAP1 DUP2 LT PUSH2 0xEB0 JUMPI PUSH2 0xEB0 PUSH2 0x1983 JUMP JUMPDEST SWAP1 PUSH0 MSTORE PUSH1 0x20 PUSH0 KECCAK256 ADD PUSH0 PUSH2 0x100 EXP DUP2 SLOAD DUP2 PUSH1 0x1 PUSH1 0x1 PUSH1 0xA0 SHL SUB MUL NOT AND SWAP1 DUP4 PUSH1 0x1 PUSH1 0x1 PUSH1 0xA0 SHL SUB AND MUL OR SWAP1 SSTORE POP PUSH1 0x4 DUP1 SLOAD DUP1 PUSH2 0xEEC JUMPI PUSH2 0xEEC PUSH2 0x1B15 JUMP JUMPDEST PUSH0 DUP3 DUP2 MSTORE PUSH1 0x20 SWAP1 KECCAK256 DUP2 ADD PUSH0 NOT SWAP1 DUP2 ADD DUP1 SLOAD PUSH1 0x1 PUSH1 0x1 PUSH1 0xA0 SHL SUB NOT AND SWAP1 SSTORE ADD SWAP1 SSTORE PUSH2 0xF19 JUMP JUMPDEST PUSH1 0x1 ADD PUSH2 0xE25 JUMP JUMPDEST POP PUSH1 0x40 MLOAD PUSH1 0x1 PUSH1 0x1 PUSH1 0xA0 SHL SUB DUP3 AND SWAP1 PUSH32 0xE71F3A50E5AD81964F352C411F1D45E35438ECD1ACECEF59AC81D9FBBF6CBC0A SWAP1 PUSH0 SWAP1 LOG2 POP JUMP JUMPDEST PUSH0 DUP1 MLOAD PUSH1 0x20 PUSH2 0x1B64 DUP4 CODECOPY DUP2 MLOAD SWAP2 MSTORE DUP1 SLOAD PUSH1 0x1 NOT ADD PUSH2 0xF81 JUMPI PUSH1 0x40 MLOAD PUSH4 0x3EE5AEB5 PUSH1 0xE0 SHL DUP2 MSTORE PUSH1 0x4 ADD PUSH1 0x40 MLOAD DUP1 SWAP2 SUB SWAP1 REVERT JUMPDEST PUSH1 0x2 SWAP1 SSTORE JUMP JUMPDEST PUSH0 DUP1 SLOAD PUSH1 0x40 MLOAD PUSH4 0x2D182BE5 PUSH1 0xE2 SHL DUP2 MSTORE PUSH1 0x4 DUP2 ADD DUP5 SWAP1 MSTORE PUSH1 0x1 PUSH1 0x1 PUSH1 0xA0 SHL SUB SWAP2 DUP3 AND PUSH1 0x24 DUP3 ADD DUP2 SWAP1 MSTORE PUSH1 0x44 DUP3 ADD MSTORE SWAP1 DUP5 AND SWAP1 PUSH4 0xB460AF94 SWAP1 PUSH1 0x64 ADD PUSH1 0x20 PUSH1 0x40 MLOAD DUP1 DUP4 SUB DUP2 PUSH0 DUP8 GAS CALL ISZERO DUP1 ISZERO PUSH2 0xFDE JUMPI RETURNDATASIZE PUSH0 DUP1 RETURNDATACOPY RETURNDATASIZE PUSH0 REVERT JUMPDEST POP POP POP POP PUSH1 0x40 MLOAD RETURNDATASIZE PUSH1 0x1F NOT PUSH1 0x1F DUP3 ADD AND DUP3 ADD DUP1 PUSH1 0x40 MSTORE POP DUP2 ADD SWAP1 PUSH2 0x1002 SWAP2 SWAP1 PUSH2 0x19BE JUMP JUMPDEST SWAP1 POP JUMPDEST SWAP3 SWAP2 POP POP JUMP JUMPDEST PUSH1 0x1 PUSH1 0x1 PUSH1 0xA0 SHL SUB DUP2 AND PUSH0 SWAP1 DUP2 MSTORE PUSH1 0x2 PUSH1 0x20 SWAP1 DUP2 MSTORE PUSH1 0x40 DUP1 DUP4 KECCAK256 PUSH1 0x3 SWAP1 SWAP3 MSTORE DUP3 KECCAK256 SWAP1 SWAP2 PUSH2 0x1037 DUP5 PUSH2 0x1545 JUMP JUMPDEST SWAP1 POP PUSH0 DUP4 PUSH1 0x3 ADD SLOAD TIMESTAMP PUSH2 0x104A SWAP2 SWAP1 PUSH2 0x1B02 JUMP JUMPDEST SWAP1 POP PUSH0 DUP2 GT DUP1 ISZERO PUSH2 0x105E JUMPI POP PUSH0 DUP5 PUSH1 0x4 ADD SLOAD GT JUMPDEST ISZERO PUSH2 0x113D JUMPI PUSH0 DUP5 PUSH1 0x4 ADD SLOAD DUP4 GT PUSH2 0x1075 JUMPI PUSH0 PUSH2 0x1084 JUMP JUMPDEST PUSH1 0x4 DUP6 ADD SLOAD PUSH2 0x1084 SWAP1 DUP5 PUSH2 0x1B02 JUMP JUMPDEST SWAP1 POP DUP2 DUP6 PUSH1 0x4 ADD SLOAD PUSH2 0x1096 SWAP2 SWAP1 PUSH2 0x19D5 JUMP JUMPDEST PUSH2 0x10A4 DUP3 PUSH4 0x1E13380 PUSH2 0x19D5 JUMP JUMPDEST PUSH2 0x10AF SWAP1 PUSH1 0x64 PUSH2 0x19D5 JUMP JUMPDEST PUSH2 0x10B9 SWAP2 SWAP1 PUSH2 0x19EC JUMP JUMPDEST DUP5 SSTORE PUSH1 0x1 DUP5 ADD DUP4 SWAP1 SSTORE PUSH2 0x10CA PUSH2 0x1769 JUMP JUMPDEST PUSH2 0x10D6 PUSH2 0x2710 DUP6 PUSH2 0x19D5 JUMP JUMPDEST PUSH2 0x10E0 SWAP2 SWAP1 PUSH2 0x19EC JUMP JUMPDEST PUSH1 0x2 DUP6 ADD DUP2 SWAP1 SSTORE DUP5 SLOAD PUSH1 0x1 DUP7 ADD SLOAD PUSH1 0x40 DUP1 MLOAD SWAP3 DUP4 MSTORE PUSH1 0x20 DUP4 ADD SWAP2 SWAP1 SWAP2 MSTORE DUP2 ADD SWAP2 SWAP1 SWAP2 MSTORE PUSH1 0x1 PUSH1 0x1 PUSH1 0xA0 SHL SUB DUP8 AND SWAP1 PUSH32 0x8FBA6965BB87ED104958174573E9AED72332779F1C2138DEFEC56D0960E7E77C SWAP1 PUSH1 0x60 ADD PUSH1 0x40 MLOAD DUP1 SWAP2 SUB SWAP1 LOG2 POP JUMPDEST POP PUSH1 0x4 DUP4 ADD SSTORE POP TIMESTAMP PUSH1 0x3 SWAP1 SWAP2 ADD SSTORE POP JUMP JUMPDEST PUSH1 0x4 SLOAD PUSH1 0x60 SWAP1 PUSH0 SWAP1 PUSH8 0xFFFFFFFFFFFFFFFF DUP2 GT ISZERO PUSH2 0x116E JUMPI PUSH2 0x116E PUSH2 0x1AC1 JUMP JUMPDEST PUSH1 0x40 MLOAD SWAP1 DUP1 DUP3 MSTORE DUP1 PUSH1 0x20 MUL PUSH1 0x20 ADD DUP3 ADD PUSH1 0x40 MSTORE DUP1 ISZERO PUSH2 0x1197 JUMPI DUP2 PUSH1 0x20 ADD PUSH1 0x20 DUP3 MUL DUP1 CALLDATASIZE DUP4 CALLDATACOPY ADD SWAP1 POP JUMPDEST POP SWAP1 POP PUSH0 JUMPDEST PUSH1 0x4 SLOAD DUP2 LT ISZERO PUSH2 0x3DA JUMPI PUSH1 0x2 PUSH0 PUSH1 0x4 DUP4 DUP2 SLOAD DUP2 LT PUSH2 0x11BC JUMPI PUSH2 0x11BC PUSH2 0x1983 JUMP JUMPDEST PUSH0 SWAP2 DUP3 MSTORE PUSH1 0x20 DUP1 DUP4 KECCAK256 SWAP1 SWAP2 ADD SLOAD PUSH1 0x1 PUSH1 0x1 PUSH1 0xA0 SHL SUB AND DUP4 MSTORE DUP3 ADD SWAP3 SWAP1 SWAP3 MSTORE PUSH1 0x40 ADD SWAP1 KECCAK256 PUSH1 0x1 ADD SLOAD DUP3 MLOAD DUP4 SWAP1 DUP4 SWAP1 DUP2 LT PUSH2 0x11F7 JUMPI PUSH2 0x11F7 PUSH2 0x1983 JUMP JUMPDEST PUSH1 0x20 SWAP1 DUP2 MUL SWAP2 SWAP1 SWAP2 ADD ADD MSTORE PUSH1 0x1 ADD PUSH2 0x119C JUMP JUMPDEST PUSH1 0x1 PUSH0 DUP1 MLOAD PUSH1 0x20 PUSH2 0x1B64 DUP4 CODECOPY DUP2 MLOAD SWAP2 MSTORE SSTORE JUMP JUMPDEST CALLER PUSH0 SWAP1 DUP2 MSTORE PUSH1 0x7 PUSH1 0x20 MSTORE PUSH1 0x40 DUP2 KECCAK256 SLOAD PUSH2 0x1239 SWAP1 PUSH3 0x15180 PUSH2 0x19AB JUMP JUMPDEST TIMESTAMP LT PUSH2 0x124F JUMPI CALLER PUSH0 SWAP1 DUP2 MSTORE PUSH1 0x6 PUSH1 0x20 MSTORE PUSH1 0x40 DUP2 KECCAK256 SSTORE JUMPDEST CALLER PUSH0 SWAP1 DUP2 MSTORE PUSH1 0x7 PUSH1 0x20 SWAP1 DUP2 MSTORE PUSH1 0x40 DUP1 DUP4 KECCAK256 TIMESTAMP SWAP1 SSTORE PUSH1 0x6 SWAP1 SWAP2 MSTORE DUP2 KECCAK256 SLOAD PUSH2 0x1276 SWAP1 DUP5 SWAP1 PUSH2 0x19AB JUMP JUMPDEST CALLER PUSH0 SWAP1 DUP2 MSTORE PUSH1 0x5 PUSH1 0x20 MSTORE PUSH1 0x40 SWAP1 KECCAK256 SLOAD SWAP1 SWAP2 POP DUP2 GT ISZERO PUSH2 0x1297 JUMPI POP PUSH0 SWAP3 SWAP2 POP POP JUMP JUMPDEST CALLER PUSH0 SWAP1 DUP2 MSTORE PUSH1 0x6 PUSH1 0x20 MSTORE PUSH1 0x40 SWAP1 KECCAK256 SSTORE POP PUSH1 0x1 SWAP2 SWAP1 POP JUMP JUMPDEST PUSH1 0x60 DUP1 PUSH1 0x4 DUP1 SLOAD DUP1 PUSH1 0x20 MUL PUSH1 0x20 ADD PUSH1 0x40 MLOAD SWAP1 DUP2 ADD PUSH1 0x40 MSTORE DUP1 SWAP3 SWAP2 SWAP1 DUP2 DUP2 MSTORE PUSH1 0x20 ADD DUP3 DUP1 SLOAD DUP1 ISZERO PUSH2 0x1305 JUMPI PUSH1 0x20 MUL DUP3 ADD SWAP2 SWAP1 PUSH0 MSTORE PUSH1 0x20 PUSH0 KECCAK256 SWAP1 JUMPDEST DUP2 SLOAD PUSH1 0x1 PUSH1 0x1 PUSH1 0xA0 SHL SUB AND DUP2 MSTORE PUSH1 0x1 SWAP1 SWAP2 ADD SWAP1 PUSH1 0x20 ADD DUP1 DUP4 GT PUSH2 0x12E7 JUMPI JUMPDEST POP POP POP POP POP SWAP2 POP DUP2 MLOAD PUSH8 0xFFFFFFFFFFFFFFFF DUP2 GT ISZERO PUSH2 0x1326 JUMPI PUSH2 0x1326 PUSH2 0x1AC1 JUMP JUMPDEST PUSH1 0x40 MLOAD SWAP1 DUP1 DUP3 MSTORE DUP1 PUSH1 0x20 MUL PUSH1 0x20 ADD DUP3 ADD PUSH1 0x40 MSTORE DUP1 ISZERO PUSH2 0x134F JUMPI DUP2 PUSH1 0x20 ADD PUSH1 0x20 DUP3 MUL DUP1 CALLDATASIZE DUP4 CALLDATACOPY ADD SWAP1 POP JUMPDEST POP SWAP1 POP DUP3 PUSH0 JUMPDEST DUP4 MLOAD DUP2 LT ISZERO PUSH2 0x143C JUMPI PUSH1 0x1 DUP5 MLOAD PUSH2 0x136C SWAP2 SWAP1 PUSH2 0x1B02 JUMP JUMPDEST DUP2 SUB PUSH2 0x1396 JUMPI DUP2 DUP4 DUP3 DUP2 MLOAD DUP2 LT PUSH2 0x1385 JUMPI PUSH2 0x1385 PUSH2 0x1983 JUMP JUMPDEST PUSH1 0x20 MUL PUSH1 0x20 ADD ADD DUP2 DUP2 MSTORE POP POP PUSH2 0x1434 JUMP JUMPDEST PUSH2 0x2710 PUSH1 0x2 PUSH0 DUP7 DUP5 DUP2 MLOAD DUP2 LT PUSH2 0x13AE JUMPI PUSH2 0x13AE PUSH2 0x1983 JUMP JUMPDEST PUSH1 0x20 MUL PUSH1 0x20 ADD ADD MLOAD PUSH1 0x1 PUSH1 0x1 PUSH1 0xA0 SHL SUB AND PUSH1 0x1 PUSH1 0x1 PUSH1 0xA0 SHL SUB AND DUP2 MSTORE PUSH1 0x20 ADD SWAP1 DUP2 MSTORE PUSH1 0x20 ADD PUSH0 KECCAK256 PUSH1 0x1 ADD SLOAD DUP7 PUSH2 0x13E4 SWAP2 SWAP1 PUSH2 0x19D5 JUMP JUMPDEST PUSH2 0x13EE SWAP2 SWAP1 PUSH2 0x19EC JUMP JUMPDEST DUP4 DUP3 DUP2 MLOAD DUP2 LT PUSH2 0x1400 JUMPI PUSH2 0x1400 PUSH2 0x1983 JUMP JUMPDEST PUSH1 0x20 MUL PUSH1 0x20 ADD ADD DUP2 DUP2 MSTORE POP POP DUP3 DUP2 DUP2 MLOAD DUP2 LT PUSH2 0x141E JUMPI PUSH2 0x141E PUSH2 0x1983 JUMP JUMPDEST PUSH1 0x20 MUL PUSH1 0x20 ADD ADD MLOAD DUP3 PUSH2 0x1431 SWAP2 SWAP1 PUSH2 0x1B02 JUMP JUMPDEST SWAP2 POP JUMPDEST PUSH1 0x1 ADD PUSH2 0x1355 JUMP JUMPDEST POP POP SWAP2 POP SWAP2 JUMP JUMPDEST PUSH0 PUSH2 0x1459 PUSH1 0x1 PUSH1 0x1 PUSH1 0xA0 SHL SUB DUP5 AND CALLER ADDRESS DUP6 PUSH2 0x17A4 JUMP JUMPDEST PUSH1 0x40 MLOAD PUSH4 0x95EA7B3 PUSH1 0xE0 SHL DUP2 MSTORE PUSH1 0x1 PUSH1 0x1 PUSH1 0xA0 SHL SUB DUP6 DUP2 AND PUSH1 0x4 DUP4 ADD MSTORE PUSH1 0x24 DUP3 ADD DUP5 SWAP1 MSTORE DUP5 AND SWAP1 PUSH4 0x95EA7B3 SWAP1 PUSH1 0x44 ADD PUSH1 0x20 PUSH1 0x40 MLOAD DUP1 DUP4 SUB DUP2 PUSH0 DUP8 GAS CALL ISZERO DUP1 ISZERO PUSH2 0x14A5 JUMPI RETURNDATASIZE PUSH0 DUP1 RETURNDATACOPY RETURNDATASIZE PUSH0 REVERT JUMPDEST POP POP POP POP PUSH1 0x40 MLOAD RETURNDATASIZE PUSH1 0x1F NOT PUSH1 0x1F DUP3 ADD AND DUP3 ADD DUP1 PUSH1 0x40 MSTORE POP DUP2 ADD SWAP1 PUSH2 0x14C9 SWAP2 SWAP1 PUSH2 0x1B29 JUMP JUMPDEST POP PUSH0 SLOAD PUSH1 0x40 MLOAD PUSH4 0x6E553F65 PUSH1 0xE0 SHL DUP2 MSTORE PUSH1 0x4 DUP2 ADD DUP5 SWAP1 MSTORE PUSH1 0x1 PUSH1 0x1 PUSH1 0xA0 SHL SUB SWAP2 DUP3 AND PUSH1 0x24 DUP3 ADD MSTORE SWAP1 DUP6 AND SWAP1 PUSH4 0x6E553F65 SWAP1 PUSH1 0x44 ADD PUSH1 0x20 PUSH1 0x40 MLOAD DUP1 DUP4 SUB DUP2 PUSH0 DUP8 GAS CALL ISZERO DUP1 ISZERO PUSH2 0x1519 JUMPI RETURNDATASIZE PUSH0 DUP1 RETURNDATACOPY RETURNDATASIZE PUSH0 REVERT JUMPDEST POP POP POP POP PUSH1 0x40 MLOAD RETURNDATASIZE PUSH1 0x1F NOT PUSH1 0x1F DUP3 ADD AND DUP3 ADD DUP1 PUSH1 0x40 MSTORE POP DUP2 ADD SWAP1 PUSH2 0x153D SWAP2 SWAP1 PUSH2 0x19BE JUMP JUMPDEST SWAP5 SWAP4 POP POP POP POP JUMP JUMPDEST PUSH1 0x40 MLOAD PUSH4 0x70A08231 PUSH1 0xE0 SHL DUP2 MSTORE ADDRESS PUSH1 0x4 DUP3 ADD MSTORE PUSH0 SWAP1 DUP2 SWAP1 PUSH1 0x1 PUSH1 0x1 PUSH1 0xA0 SHL SUB DUP5 AND SWAP1 PUSH4 0x70A08231 SWAP1 PUSH1 0x24 ADD PUSH1 0x20 PUSH1 0x40 MLOAD DUP1 DUP4 SUB DUP2 DUP7 GAS STATICCALL ISZERO DUP1 ISZERO PUSH2 0x158B JUMPI RETURNDATASIZE PUSH0 DUP1 RETURNDATACOPY RETURNDATASIZE PUSH0 REVERT JUMPDEST POP POP POP POP PUSH1 0x40 MLOAD RETURNDATASIZE PUSH1 0x1F NOT PUSH1 0x1F DUP3 ADD AND DUP3 ADD DUP1 PUSH1 0x40 MSTORE POP DUP2 ADD SWAP1 PUSH2 0x15AF SWAP2 SWAP1 PUSH2 0x19BE JUMP JUMPDEST PUSH1 0x40 MLOAD PUSH4 0x3D1689D PUSH1 0xE1 SHL DUP2 MSTORE PUSH1 0x4 DUP2 ADD DUP3 SWAP1 MSTORE SWAP1 SWAP2 POP PUSH1 0x1 PUSH1 0x1 PUSH1 0xA0 SHL SUB DUP5 AND SWAP1 PUSH4 0x7A2D13A SWAP1 PUSH1 0x24 ADD PUSH1 0x20 PUSH1 0x40 MLOAD DUP1 DUP4 SUB DUP2 DUP7 GAS STATICCALL ISZERO DUP1 ISZERO PUSH2 0x15F5 JUMPI RETURNDATASIZE PUSH0 DUP1 RETURNDATACOPY RETURNDATASIZE PUSH0 REVERT JUMPDEST POP POP POP POP PUSH1 0x40 MLOAD RETURNDATASIZE PUSH1 0x1F NOT PUSH1 0x1F DUP3 ADD AND DUP3 ADD DUP1 PUSH1 0x40 MSTORE POP DUP2 ADD SWAP1 PUSH2 0x1619 SWAP2 SWAP1 PUSH2 0x19BE JUMP JUMPDEST SWAP4 SWAP3 POP POP POP JUMP JUMPDEST PUSH0 DUP4 PUSH1 0x1 PUSH1 0x1 PUSH1 0xA0 SHL SUB AND PUSH4 0x38D52E0F PUSH1 0x40 MLOAD DUP2 PUSH4 0xFFFFFFFF AND PUSH1 0xE0 SHL DUP2 MSTORE PUSH1 0x4 ADD PUSH1 0x20 PUSH1 0x40 MLOAD DUP1 DUP4 SUB DUP2 DUP7 GAS STATICCALL ISZERO DUP1 ISZERO PUSH2 0x165D JUMPI RETURNDATASIZE PUSH0 DUP1 RETURNDATACOPY RETURNDATASIZE PUSH0 REVERT JUMPDEST POP POP POP POP PUSH1 0x40 MLOAD RETURNDATASIZE PUSH1 0x1F NOT PUSH1 0x1F DUP3 ADD AND DUP3 ADD DUP1 PUSH1 0x40 MSTORE POP DUP2 ADD SWAP1 PUSH2 0x1681 SWAP2 SWAP1 PUSH2 0x1B48 JUMP JUMPDEST SWAP1 POP PUSH1 0x1 PUSH1 0x1 PUSH1 0xA0 SHL SUB DUP2 AND PUSH2 0x16D6 JUMPI PUSH1 0x40 MLOAD PUSH3 0x461BCD PUSH1 0xE5 SHL DUP2 MSTORE PUSH1 0x20 PUSH1 0x4 DUP3 ADD MSTORE PUSH1 0x15 PUSH1 0x24 DUP3 ADD MSTORE PUSH21 0x496E76616C69642061737365742061646472657373 PUSH1 0x58 SHL PUSH1 0x44 DUP3 ADD MSTORE PUSH1 0x64 ADD JUMPDEST PUSH1 0x40 MLOAD DUP1 SWAP2 SUB SWAP1 REVERT JUMPDEST DUP2 DUP4 LT ISZERO PUSH2 0x16FD JUMPI PUSH0 PUSH2 0x16E9 DUP5 DUP5 PUSH2 0x1B02 JUMP JUMPDEST SWAP1 POP PUSH2 0x16F6 DUP6 DUP4 DUP4 PUSH2 0x1443 JUMP JUMPDEST POP POP PUSH2 0x1714 JUMP JUMPDEST PUSH0 PUSH2 0x1708 DUP4 DUP6 PUSH2 0x1B02 JUMP JUMPDEST SWAP1 POP PUSH2 0xD8D DUP6 DUP3 PUSH2 0xF87 JUMP JUMPDEST POP POP POP POP JUMP JUMPDEST PUSH0 DUP1 PUSH2 0x1725 DUP4 PUSH2 0x1545 JUMP JUMPDEST SWAP1 POP PUSH0 PUSH2 0x1730 PUSH2 0x1769 JUMP JUMPDEST SWAP1 POP DUP1 PUSH0 SUB PUSH2 0x1742 JUMPI POP PUSH0 SWAP4 SWAP3 POP POP POP JUMP JUMPDEST DUP1 PUSH2 0x174F PUSH2 0x2710 DUP5 PUSH2 0x19D5 JUMP JUMPDEST PUSH2 0x153D SWAP2 SWAP1 PUSH2 0x19EC JUMP JUMPDEST PUSH2 0x1761 PUSH2 0x17FE JUMP JUMPDEST PUSH2 0xB8A PUSH2 0x1847 JUMP JUMPDEST PUSH0 DUP1 JUMPDEST PUSH1 0x4 SLOAD DUP2 LT ISZERO PUSH2 0x17A0 JUMPI PUSH2 0x178C PUSH1 0x4 DUP3 DUP2 SLOAD DUP2 LT PUSH2 0xA18 JUMPI PUSH2 0xA18 PUSH2 0x1983 JUMP JUMPDEST PUSH2 0x1796 SWAP1 DUP4 PUSH2 0x19AB JUMP JUMPDEST SWAP2 POP PUSH1 0x1 ADD PUSH2 0x176C JUMP JUMPDEST POP SWAP1 JUMP JUMPDEST PUSH1 0x40 DUP1 MLOAD PUSH1 0x1 PUSH1 0x1 PUSH1 0xA0 SHL SUB DUP6 DUP2 AND PUSH1 0x24 DUP4 ADD MSTORE DUP5 AND PUSH1 0x44 DUP3 ADD MSTORE PUSH1 0x64 DUP1 DUP3 ADD DUP5 SWAP1 MSTORE DUP3 MLOAD DUP1 DUP4 SUB SWAP1 SWAP2 ADD DUP2 MSTORE PUSH1 0x84 SWAP1 SWAP2 ADD SWAP1 SWAP2 MSTORE PUSH1 0x20 DUP2 ADD DUP1 MLOAD PUSH1 0x1 PUSH1 0x1 PUSH1 0xE0 SHL SUB AND PUSH4 0x23B872DD PUSH1 0xE0 SHL OR SWAP1 MSTORE PUSH2 0x1714 SWAP1 DUP6 SWAP1 PUSH2 0x184F JUMP JUMPDEST PUSH32 0xF0C57E16840DF040F15088DC2F81FE391C3923BEC73E23A9662EFC9C229C6A00 SLOAD PUSH1 0x1 PUSH1 0x40 SHL SWAP1 DIV PUSH1 0xFF AND PUSH2 0xB8A JUMPI PUSH1 0x40 MLOAD PUSH4 0x1AFCD79F PUSH1 0xE3 SHL DUP2 MSTORE PUSH1 0x4 ADD PUSH1 0x40 MLOAD DUP1 SWAP2 SUB SWAP1 REVERT JUMPDEST PUSH2 0x120A PUSH2 0x17FE JUMP JUMPDEST PUSH0 DUP1 PUSH1 0x20 PUSH0 DUP5 MLOAD PUSH1 0x20 DUP7 ADD PUSH0 DUP9 GAS CALL DUP1 PUSH2 0x186E JUMPI PUSH1 0x40 MLOAD RETURNDATASIZE PUSH0 DUP3 RETURNDATACOPY RETURNDATASIZE DUP2 REVERT JUMPDEST POP POP PUSH0 MLOAD RETURNDATASIZE SWAP2 POP DUP2 ISZERO PUSH2 0x1885 JUMPI DUP1 PUSH1 0x1 EQ ISZERO PUSH2 0x1892 JUMP JUMPDEST PUSH1 0x1 PUSH1 0x1 PUSH1 0xA0 SHL SUB DUP5 AND EXTCODESIZE ISZERO JUMPDEST ISZERO PUSH2 0x1714 JUMPI PUSH1 0x40 MLOAD PUSH4 0x5274AFE7 PUSH1 0xE0 SHL DUP2 MSTORE PUSH1 0x1 PUSH1 0x1 PUSH1 0xA0 SHL SUB DUP6 AND PUSH1 0x4 DUP3 ADD MSTORE PUSH1 0x24 ADD PUSH2 0x16CD JUMP JUMPDEST PUSH1 0x1 PUSH1 0x1 PUSH1 0xA0 SHL SUB DUP2 AND DUP2 EQ PUSH2 0x18CF JUMPI PUSH0 DUP1 REVERT JUMPDEST POP JUMP JUMPDEST PUSH0 PUSH1 0x20 DUP3 DUP5 SUB SLT ISZERO PUSH2 0x18E2 JUMPI PUSH0 DUP1 REVERT JUMPDEST DUP2 CALLDATALOAD PUSH2 0x1619 DUP2 PUSH2 0x18BB JUMP JUMPDEST PUSH0 DUP2 MLOAD DUP1 DUP5 MSTORE PUSH1 0x20 DUP1 DUP6 ADD SWAP5 POP PUSH1 0x20 DUP5 ADD PUSH0 JUMPDEST DUP4 DUP2 LT ISZERO PUSH2 0x1925 JUMPI DUP2 MLOAD PUSH1 0x1 PUSH1 0x1 PUSH1 0xA0 SHL SUB AND DUP8 MSTORE SWAP6 DUP3 ADD SWAP6 SWAP1 DUP3 ADD SWAP1 PUSH1 0x1 ADD PUSH2 0x1900 JUMP JUMPDEST POP SWAP5 SWAP6 SWAP5 POP POP POP POP POP JUMP JUMPDEST PUSH1 0x20 DUP2 MSTORE PUSH0 PUSH2 0x1002 PUSH1 0x20 DUP4 ADD DUP5 PUSH2 0x18ED JUMP JUMPDEST PUSH0 PUSH1 0x20 DUP3 DUP5 SUB SLT ISZERO PUSH2 0x1952 JUMPI PUSH0 DUP1 REVERT JUMPDEST POP CALLDATALOAD SWAP2 SWAP1 POP JUMP JUMPDEST PUSH0 DUP1 PUSH1 0x40 DUP4 DUP6 SUB SLT ISZERO PUSH2 0x196A JUMPI PUSH0 DUP1 REVERT JUMPDEST DUP3 CALLDATALOAD PUSH2 0x1975 DUP2 PUSH2 0x18BB JUMP JUMPDEST SWAP5 PUSH1 0x20 SWAP4 SWAP1 SWAP4 ADD CALLDATALOAD SWAP4 POP POP POP JUMP JUMPDEST PUSH4 0x4E487B71 PUSH1 0xE0 SHL PUSH0 MSTORE PUSH1 0x32 PUSH1 0x4 MSTORE PUSH1 0x24 PUSH0 REVERT JUMPDEST PUSH4 0x4E487B71 PUSH1 0xE0 SHL PUSH0 MSTORE PUSH1 0x11 PUSH1 0x4 MSTORE PUSH1 0x24 PUSH0 REVERT JUMPDEST DUP1 DUP3 ADD DUP1 DUP3 GT ISZERO PUSH2 0x1005 JUMPI PUSH2 0x1005 PUSH2 0x1997 JUMP JUMPDEST PUSH0 PUSH1 0x20 DUP3 DUP5 SUB SLT ISZERO PUSH2 0x19CE JUMPI PUSH0 DUP1 REVERT JUMPDEST POP MLOAD SWAP2 SWAP1 POP JUMP JUMPDEST DUP1 DUP3 MUL DUP2 ISZERO DUP3 DUP3 DIV DUP5 EQ OR PUSH2 0x1005 JUMPI PUSH2 0x1005 PUSH2 0x1997 JUMP JUMPDEST PUSH0 DUP3 PUSH2 0x1A06 JUMPI PUSH4 0x4E487B71 PUSH1 0xE0 SHL PUSH0 MSTORE PUSH1 0x12 PUSH1 0x4 MSTORE PUSH1 0x24 PUSH0 REVERT JUMPDEST POP DIV SWAP1 JUMP JUMPDEST PUSH0 DUP2 SLOAD DUP1 DUP5 MSTORE PUSH1 0x20 DUP1 DUP6 ADD SWAP5 POP DUP4 PUSH0 MSTORE PUSH1 0x20 PUSH0 KECCAK256 PUSH0 JUMPDEST DUP4 DUP2 LT ISZERO PUSH2 0x1925 JUMPI DUP2 SLOAD PUSH1 0x1 PUSH1 0x1 PUSH1 0xA0 SHL SUB AND DUP8 MSTORE SWAP6 DUP3 ADD SWAP6 PUSH1 0x1 SWAP2 DUP3 ADD SWAP2 ADD PUSH2 0x1A21 JUMP JUMPDEST PUSH0 DUP2 MLOAD DUP1 DUP5 MSTORE PUSH1 0x20 DUP1 DUP6 ADD SWAP5 POP PUSH1 0x20 DUP5 ADD PUSH0 JUMPDEST DUP4 DUP2 LT ISZERO PUSH2 0x1925 JUMPI DUP2 MLOAD DUP8 MSTORE SWAP6 DUP3 ADD SWAP6 SWAP1 DUP3 ADD SWAP1 PUSH1 0x1 ADD PUSH2 0x1A59 JUMP JUMPDEST DUP4 DUP2 MSTORE PUSH1 0x60 PUSH1 0x20 DUP3 ADD MSTORE PUSH0 PUSH2 0x1A8D PUSH1 0x60 DUP4 ADD DUP6 PUSH2 0x1A0B JUMP JUMPDEST DUP3 DUP2 SUB PUSH1 0x40 DUP5 ADD MSTORE PUSH2 0x1A9F DUP2 DUP6 PUSH2 0x1A46 JUMP JUMPDEST SWAP7 SWAP6 POP POP POP POP POP POP JUMP JUMPDEST DUP4 DUP2 MSTORE PUSH1 0x60 PUSH1 0x20 DUP3 ADD MSTORE PUSH0 PUSH2 0x1A8D PUSH1 0x60 DUP4 ADD DUP6 PUSH2 0x18ED JUMP JUMPDEST PUSH4 0x4E487B71 PUSH1 0xE0 SHL PUSH0 MSTORE PUSH1 0x41 PUSH1 0x4 MSTORE PUSH1 0x24 PUSH0 REVERT JUMPDEST PUSH1 0x40 DUP2 MSTORE PUSH0 PUSH2 0x1AE7 PUSH1 0x40 DUP4 ADD DUP6 PUSH2 0x1A0B JUMP JUMPDEST DUP3 DUP2 SUB PUSH1 0x20 DUP5 ADD MSTORE PUSH2 0x1AF9 DUP2 DUP6 PUSH2 0x1A46 JUMP JUMPDEST SWAP6 SWAP5 POP POP POP POP POP JUMP JUMPDEST DUP2 DUP2 SUB DUP2 DUP2 GT ISZERO PUSH2 0x1005 JUMPI PUSH2 0x1005 PUSH2 0x1997 JUMP JUMPDEST PUSH4 0x4E487B71 PUSH1 0xE0 SHL PUSH0 MSTORE PUSH1 0x31 PUSH1 0x4 MSTORE PUSH1 0x24 PUSH0 REVERT JUMPDEST PUSH0 PUSH1 0x20 DUP3 DUP5 SUB SLT ISZERO PUSH2 0x1B39 JUMPI PUSH0 DUP1 REVERT JUMPDEST DUP2 MLOAD DUP1 ISZERO ISZERO DUP2 EQ PUSH2 0x1619 JUMPI PUSH0 DUP1 REVERT JUMPDEST PUSH0 PUSH1 0x20 DUP3 DUP5 SUB SLT ISZERO PUSH2 0x1B58 JUMPI PUSH0 DUP1 REVERT JUMPDEST DUP2 MLOAD PUSH2 0x1619 DUP2 PUSH2 0x18BB JUMP INVALID SWAP12 PUSH24 0x9B17422D0DF92223018B32B4D1FA46E071723D6817E2486D STOP EXTCODESIZE 0xEC 0xC5 PUSH0 STOP LOG2 PUSH5 0x6970667358 0x22 SLT KECCAK256 MSTORE 0xAE ADD PUSH3 0x57BDE1 DUP2 0xE1 DUP6 SSTORE 0x1F 0xC9 0xA9 PUSH17 0xE5517D9A79C6E0B0900EEB76EC7C0E3FCB PUSH5 0x736F6C6343 STOP ADDMOD AND STOP CALLER 0xEE RETURN 0xDA 0xC4 MSTORE8 DUP13 DUP3 0xC8 0xAC 0xE4 MOD GASPRICE 0xB0 0xAC 0xD2 0xD1 0x5C 0xDB PC DUP4 0xAA SAR SELFDESTRUCT PUSH29 0x2673ABB3D869840002DD7BC7DEC4DCEEDDA775E58DD541E08A116C6C53 DUP2 0x5C SIGNEXTEND 0xD0 0x28 NOT 0x2F PUSH28 0x626800EEF3DAC4538C82C8ACE4063AB0ACD2D15CDB5883AA1DFF7C26 PUSH20 0xABB3D8698401A2646970667358221220E7DD9663 0xC4 PUSH30 0x2F6BAC1CABFD61E7362C6F097F10B5EEDD0116E32ADB2D83F28A64736F6C PUSH4 0x43000816 STOP CALLER "
		},
		"gasEstimates": {
			"creation": {
				"codeDepositCost": "2341000",
				"executionCost": "2506",
				"totalCost": "2343506"
			},
			"external": {
				"DEFAULT_ADMIN_ROLE()": "282",
				"acceptDefaultAdminTransfer()": "infinite",
				"beginDefaultAdminTransfer(address)": "infinite",
				"cancelDefaultAdminTransfer()": "infinite",
				"changeDefaultAdminDelay(uint48)": "infinite",
				"createMetaVault()": "infinite",
				"defaultAdmin()": "infinite",
				"defaultAdminDelay()": "infinite",
				"defaultAdminDelayIncreaseWait()": "235",
				"getMetaVault(address)": "2635",
				"getRoleAdmin(bytes32)": "infinite",
				"grantRole(bytes32,address)": "infinite",
				"hasRole(bytes32,address)": "infinite",
				"initialize(address,uint48)": "infinite",
				"owner()": "infinite",
				"pendingDefaultAdmin()": "infinite",
				"pendingDefaultAdminDelay()": "infinite",
				"renounceRole(bytes32,address)": "infinite",
				"revokeRole(bytes32,address)": "infinite",
				"rollbackDefaultAdminDelay()": "infinite",
				"supportsInterface(bytes4)": "infinite",
				"userMetaVaults(address)": "2669"
			}
		},
		"methodIdentifiers": {
			"DEFAULT_ADMIN_ROLE()": "a217fddf",
			"acceptDefaultAdminTransfer()": "cefc1429",
			"beginDefaultAdminTransfer(address)": "634e93da",
			"cancelDefaultAdminTransfer()": "d602b9fd",
			"changeDefaultAdminDelay(uint48)": "649a5ec7",
			"createMetaVault()": "da53d2cf",
			"defaultAdmin()": "84ef8ffc",
			"defaultAdminDelay()": "cc8463c8",
			"defaultAdminDelayIncreaseWait()": "022d63fb",
			"getMetaVault(address)": "076bafb7",
			"getRoleAdmin(bytes32)": "248a9ca3",
			"grantRole(bytes32,address)": "2f2ff15d",
			"hasRole(bytes32,address)": "91d14854",
			"initialize(address,uint48)": "f4b9786c",
			"owner()": "8da5cb5b",
			"pendingDefaultAdmin()": "cf6eefb7",
			"pendingDefaultAdminDelay()": "a1eda53c",
			"renounceRole(bytes32,address)": "36568abe",
			"revokeRole(bytes32,address)": "d547741f",
			"rollbackDefaultAdminDelay()": "0aa6220b",
			"supportsInterface(bytes4)": "01ffc9a7",
			"userMetaVaults(address)": "704d9f65"
		}
	},
	"abi": [
		{
			"inputs": [],
			"name": "AccessControlBadConfirmation",
			"type": "error"
		},
		{
			"inputs": [
				{
					"internalType": "uint48",
					"name": "schedule",
					"type": "uint48"
				}
			],
			"name": "AccessControlEnforcedDefaultAdminDelay",
			"type": "error"
		},
		{
			"inputs": [],
			"name": "AccessControlEnforcedDefaultAdminRules",
			"type": "error"
		},
		{
			"inputs": [
				{
					"internalType": "address",
					"name": "defaultAdmin",
					"type": "address"
				}
			],
			"name": "AccessControlInvalidDefaultAdmin",
			"type": "error"
		},
		{
			"inputs": [
				{
					"internalType": "address",
					"name": "account",
					"type": "address"
				},
				{
					"internalType": "bytes32",
					"name": "neededRole",
					"type": "bytes32"
				}
			],
			"name": "AccessControlUnauthorizedAccount",
			"type": "error"
		},
		{
			"inputs": [],
			"name": "InvalidInitialization",
			"type": "error"
		},
		{
			"inputs": [],
			"name": "NotInitializing",
			"type": "error"
		},
		{
			"inputs": [
				{
					"internalType": "uint8",
					"name": "bits",
					"type": "uint8"
				},
				{
					"internalType": "uint256",
					"name": "value",
					"type": "uint256"
				}
			],
			"name": "SafeCastOverflowedUintDowncast",
			"type": "error"
		},
		{
			"anonymous": false,
			"inputs": [],
			"name": "DefaultAdminDelayChangeCanceled",
			"type": "event"
		},
		{
			"anonymous": false,
			"inputs": [
				{
					"indexed": false,
					"internalType": "uint48",
					"name": "newDelay",
					"type": "uint48"
				},
				{
					"indexed": false,
					"internalType": "uint48",
					"name": "effectSchedule",
					"type": "uint48"
				}
			],
			"name": "DefaultAdminDelayChangeScheduled",
			"type": "event"
		},
		{
			"anonymous": false,
			"inputs": [],
			"name": "DefaultAdminTransferCanceled",
			"type": "event"
		},
		{
			"anonymous": false,
			"inputs": [
				{
					"indexed": true,
					"internalType": "address",
					"name": "newAdmin",
					"type": "address"
				},
				{
					"indexed": false,
					"internalType": "uint48",
					"name": "acceptSchedule",
					"type": "uint48"
				}
			],
			"name": "DefaultAdminTransferScheduled",
			"type": "event"
		},
		{
			"anonymous": false,
			"inputs": [
				{
					"indexed": false,
					"internalType": "uint64",
					"name": "version",
					"type": "uint64"
				}
			],
			"name": "Initialized",
			"type": "event"
		},
		{
			"anonymous": false,
			"inputs": [
				{
					"indexed": true,
					"internalType": "address",
					"name": "owner",
					"type": "address"
				},
				{
					"indexed": false,
					"internalType": "address",
					"name": "metaVault",
					"type": "address"
				}
			],
			"name": "MetaVaultCreated",
			"type": "event"
		},
		{
			"anonymous": false,
			"inputs": [
				{
					"indexed": true,
					"internalType": "bytes32",
					"name": "role",
					"type": "bytes32"
				},
				{
					"indexed": true,
					"internalType": "bytes32",
					"name": "previousAdminRole",
					"type": "bytes32"
				},
				{
					"indexed": true,
					"internalType": "bytes32",
					"name": "newAdminRole",
					"type": "bytes32"
				}
			],
			"name": "RoleAdminChanged",
			"type": "event"
		},
		{
			"anonymous": false,
			"inputs": [
				{
					"indexed": true,
					"internalType": "bytes32",
					"name": "role",
					"type": "bytes32"
				},
				{
					"indexed": true,
					"internalType": "address",
					"name": "account",
					"type": "address"
				},
				{
					"indexed": true,
					"internalType": "address",
					"name": "sender",
					"type": "address"
				}
			],
			"name": "RoleGranted",
			"type": "event"
		},
		{
			"anonymous": false,
			"inputs": [
				{
					"indexed": true,
					"internalType": "bytes32",
					"name": "role",
					"type": "bytes32"
				},
				{
					"indexed": true,
					"internalType": "address",
					"name": "account",
					"type": "address"
				},
				{
					"indexed": true,
					"internalType": "address",
					"name": "sender",
					"type": "address"
				}
			],
			"name": "RoleRevoked",
			"type": "event"
		},
		{
			"inputs": [],
			"name": "DEFAULT_ADMIN_ROLE",
			"outputs": [
				{
					"internalType": "bytes32",
					"name": "",
					"type": "bytes32"
				}
			],
			"stateMutability": "view",
			"type": "function"
		},
		{
			"inputs": [],
			"name": "acceptDefaultAdminTransfer",
			"outputs": [],
			"stateMutability": "nonpayable",
			"type": "function"
		},
		{
			"inputs": [
				{
					"internalType": "address",
					"name": "newAdmin",
					"type": "address"
				}
			],
			"name": "beginDefaultAdminTransfer",
			"outputs": [],
			"stateMutability": "nonpayable",
			"type": "function"
		},
		{
			"inputs": [],
			"name": "cancelDefaultAdminTransfer",
			"outputs": [],
			"stateMutability": "nonpayable",
			"type": "function"
		},
		{
			"inputs": [
				{
					"internalType": "uint48",
					"name": "newDelay",
					"type": "uint48"
				}
			],
			"name": "changeDefaultAdminDelay",
			"outputs": [],
			"stateMutability": "nonpayable",
			"type": "function"
		},
		{
			"inputs": [],
			"name": "createMetaVault",
			"outputs": [
				{
					"internalType": "address",
					"name": "",
					"type": "address"
				}
			],
			"stateMutability": "nonpayable",
			"type": "function"
		},
		{
			"inputs": [],
			"name": "defaultAdmin",
			"outputs": [
				{
					"internalType": "address",
					"name": "",
					"type": "address"
				}
			],
			"stateMutability": "view",
			"type": "function"
		},
		{
			"inputs": [],
			"name": "defaultAdminDelay",
			"outputs": [
				{
					"internalType": "uint48",
					"name": "",
					"type": "uint48"
				}
			],
			"stateMutability": "view",
			"type": "function"
		},
		{
			"inputs": [],
			"name": "defaultAdminDelayIncreaseWait",
			"outputs": [
				{
					"internalType": "uint48",
					"name": "",
					"type": "uint48"
				}
			],
			"stateMutability": "view",
			"type": "function"
		},
		{
			"inputs": [
				{
					"internalType": "address",
					"name": "user",
					"type": "address"
				}
			],
			"name": "getMetaVault",
			"outputs": [
				{
					"internalType": "address",
					"name": "",
					"type": "address"
				}
			],
			"stateMutability": "view",
			"type": "function"
		},
		{
			"inputs": [
				{
					"internalType": "bytes32",
					"name": "role",
					"type": "bytes32"
				}
			],
			"name": "getRoleAdmin",
			"outputs": [
				{
					"internalType": "bytes32",
					"name": "",
					"type": "bytes32"
				}
			],
			"stateMutability": "view",
			"type": "function"
		},
		{
			"inputs": [
				{
					"internalType": "bytes32",
					"name": "role",
					"type": "bytes32"
				},
				{
					"internalType": "address",
					"name": "account",
					"type": "address"
				}
			],
			"name": "grantRole",
			"outputs": [],
			"stateMutability": "nonpayable",
			"type": "function"
		},
		{
			"inputs": [
				{
					"internalType": "bytes32",
					"name": "role",
					"type": "bytes32"
				},
				{
					"internalType": "address",
					"name": "account",
					"type": "address"
				}
			],
			"name": "hasRole",
			"outputs": [
				{
					"internalType": "bool",
					"name": "",
					"type": "bool"
				}
			],
			"stateMutability": "view",
			"type": "function"
		},
		{
			"inputs": [
				{
					"internalType": "address",
					"name": "initialAdmin",
					"type": "address"
				},
				{
					"internalType": "uint48",
					"name": "initialDelay",
					"type": "uint48"
				}
			],
			"name": "initialize",
			"outputs": [],
			"stateMutability": "nonpayable",
			"type": "function"
		},
		{
			"inputs": [],
			"name": "owner",
			"outputs": [
				{
					"internalType": "address",
					"name": "",
					"type": "address"
				}
			],
			"stateMutability": "view",
			"type": "function"
		},
		{
			"inputs": [],
			"name": "pendingDefaultAdmin",
			"outputs": [
				{
					"internalType": "address",
					"name": "newAdmin",
					"type": "address"
				},
				{
					"internalType": "uint48",
					"name": "schedule",
					"type": "uint48"
				}
			],
			"stateMutability": "view",
			"type": "function"
		},
		{
			"inputs": [],
			"name": "pendingDefaultAdminDelay",
			"outputs": [
				{
					"internalType": "uint48",
					"name": "newDelay",
					"type": "uint48"
				},
				{
					"internalType": "uint48",
					"name": "schedule",
					"type": "uint48"
				}
			],
			"stateMutability": "view",
			"type": "function"
		},
		{
			"inputs": [
				{
					"internalType": "bytes32",
					"name": "role",
					"type": "bytes32"
				},
				{
					"internalType": "address",
					"name": "account",
					"type": "address"
				}
			],
			"name": "renounceRole",
			"outputs": [],
			"stateMutability": "nonpayable",
			"type": "function"
		},
		{
			"inputs": [
				{
					"internalType": "bytes32",
					"name": "role",
					"type": "bytes32"
				},
				{
					"internalType": "address",
					"name": "account",
					"type": "address"
				}
			],
			"name": "revokeRole",
			"outputs": [],
			"stateMutability": "nonpayable",
			"type": "function"
		},
		{
			"inputs": [],
			"name": "rollbackDefaultAdminDelay",
			"outputs": [],
			"stateMutability": "nonpayable",
			"type": "function"
		},
		{
			"inputs": [
				{
					"internalType": "bytes4",
					"name": "interfaceId",
					"type": "bytes4"
				}
			],
			"name": "supportsInterface",
			"outputs": [
				{
					"internalType": "bool",
					"name": "",
					"type": "bool"
				}
			],
			"stateMutability": "view",
			"type": "function"
		},
		{
			"inputs": [
				{
					"internalType": "address",
					"name": "",
					"type": "address"
				}
			],
			"name": "userMetaVaults",
			"outputs": [
				{
					"internalType": "address",
					"name": "",
					"type": "address"
				}
			],
			"stateMutability": "view",
			"type": "function"
		}
	]
}