{
	"data": {
		"bytecode": {
			"linkReferences": {},
			"object": "60e06040523073ffffffffffffffffffffffffffffffffffffffff1660809073ffffffffffffffffffffffffffffffffffffffff1681525034801562000043575f80fd5b506040516200952b3803806200952b83398181016040528101906200006991906200013e565b8173ffffffffffffffffffffffffffffffffffffffff1660a08173ffffffffffffffffffffffffffffffffffffffff16815250508073ffffffffffffffffffffffffffffffffffffffff1660c08173ffffffffffffffffffffffffffffffffffffffff1681525050505062000183565b5f80fd5b5f73ffffffffffffffffffffffffffffffffffffffff82169050919050565b5f6200010882620000dd565b9050919050565b6200011a81620000fc565b811462000125575f80fd5b50565b5f8151905062000138816200010f565b92915050565b5f8060408385031215620001575762000156620000d9565b5b5f620001668582860162000128565b9250506020620001798582860162000128565b9150509250929050565b60805160a05160c05161936b620001c05f395f81816133ae015281816135ec015261480a01525f8181613a130152613adc01525f505061936b5ff3fe608060405234801561000f575f80fd5b5060043610610468575f3560e01c80638b4242671161024a578063c63d75b611610144578063d602b9fd116100c1578063e63ab1e911610085578063e63ab1e914610e08578063ef8b30f714610e26578063f8892d9614610e56578063fa7c456814610e86578063fb1bb9de14610ea257610468565b8063d602b9fd14610d50578063d78162e914610d5a578063d8a06f7314610d8a578063d905777e14610da8578063dd62ed3e14610dd857610468565b8063ce96cb7711610108578063ce96cb7714610cbd578063cefc142914610ced578063cf6eefb714610cf7578063d1fcb50614610d16578063d547741f14610d3457610468565b8063c63d75b614610c05578063c6e6f59214610c35578063c76b5f5f14610c65578063c958113714610c81578063cc8463c814610c9f57610468565b8063a50b3451116101d2578063b3d7f6b911610196578063b3d7f6b914610b3b578063b460af9414610b6b578063b53c86d214610b9b578063ba08765214610bb9578063c37952cb14610be957610468565b8063a50b345114610a95578063a7b0912214610a9f578063a87a50dc14610acf578063a9059cbb14610aed578063aa9ff5d814610b1d57610468565b806394bf804d1161021957806394bf804d146109ee57806395336f8d14610a1e57806395d89b4114610a3a578063a1eda53c14610a58578063a217fddf14610a7757610468565b80638b424267146109645780638da5cb5b1461098257806391d14854146109a057806392ff0d31146109d057610468565b8063402d267d1161036657806369026e88116102e357806372c16a24116102a757806372c16a24146108bc5780637c10c835146108da5780637d7e8d98146108f857806384ef8ffc14610916578063882f3e161461093457610468565b806369026e881461081a5780636e553f651461082457806370a0823114610854578063715699141461088457806371c99619146108a057610468565b8063607985fc1161032a578063607985fc1461078857806362a2a47c146107a6578063634e93da146107c4578063649a5ec7146107e057806367a52793146107fc57610468565b8063402d267d146106e657806341a2ac7014610716578063490ae210146107325780634cdad5061461074e5780635157ced51461077e57610468565b80630aa6220b116103f45780632c15e0f7116103b85780632c15e0f7146106545780632f2ff15d14610672578063313ce5671461068e57806336568abe146106ac57806338d52e0f146106c857610468565b80630aa6220b146105ae5780630adfdcb9146105b857806318160ddd146105d657806323b872dd146105f4578063248a9ca31461062457610468565b806305db2f411161043b57806305db2f41146104e257806306fdde031461050057806307a2d13a1461051e578063095ea7b31461054e5780630a28a4771461057e57610468565b806301e1d1141461046c57806301ffc9a71461048a578063022d63fb146104ba57806304fa1db2146104d8575b5f80fd5b610474610ec0565b60405161048191906175af565b60405180910390f35b6104a4600480360381019061049f919061762e565b610f4c565b6040516104b19190617673565b60405180910390f35b6104c2610fc5565b6040516104cf91906176ac565b60405180910390f35b6104e0610fcf565b005b6104ea611086565b6040516104f791906176dd565b60405180910390f35b6105086110aa565b6040516105159190617780565b60405180910390f35b610538600480360381019061053391906177ca565b611148565b60405161054591906175af565b60405180910390f35b6105686004803603810190610563919061784f565b61115a565b6040516105759190617673565b60405180910390f35b610598600480360381019061059391906177ca565b611195565b6040516105a591906175af565b60405180910390f35b6105b6611209565b005b6105c0611220565b6040516105cd9190617993565b60405180910390f35b6105de6112c1565b6040516105eb91906175af565b60405180910390f35b61060e600480360381019061060991906179b3565b6112d8565b60405161061b9190617673565b60405180910390f35b61063e60048036038101906106399190617a2d565b611334565b60405161064b91906176dd565b60405180910390f35b61065c61135e565b60405161066991906175af565b60405180910390f35b61068c60048036038101906106879190617a58565b6113fb565b005b610696611444565b6040516106a39190617ab1565b60405180910390f35b6106c660048036038101906106c19190617a58565b611479565b005b6106d0611598565b6040516106dd9190617ad9565b60405180910390f35b61070060048036038101906106fb9190617af2565b6115cd565b60405161070d91906175af565b60405180910390f35b610730600480360381019061072b91906177ca565b6116af565b005b61074c600480360381019061074791906177ca565b6116fd565b005b610768600480360381019061076391906177ca565b611734565b60405161077591906175af565b60405180910390f35b61078661179f565b005b6107906117ef565b60405161079d91906176dd565b60405180910390f35b6107ae611801565b6040516107bb91906176dd565b60405180910390f35b6107de60048036038101906107d99190617af2565b611825565b005b6107fa60048036038101906107f59190617b47565b61183e565b005b610804611857565b60405161081191906175af565b60405180910390f35b610822611869565b005b61083e60048036038101906108399190617b72565b6118ba565b60405161084b91906175af565b60405180910390f35b61086e60048036038101906108699190617af2565b6119fa565b60405161087b91906175af565b60405180910390f35b61089e60048036038101906108999190617bf2565b611a4d565b005b6108ba60048036038101906108b59190617cc9565b611a6b565b005b6108c4611b35565b6040516108d191906176dd565b60405180910390f35b6108e2611b59565b6040516108ef91906175af565b60405180910390f35b610900611bf6565b60405161090d9190617d6f565b60405180910390f35b61091e611c27565b60405161092b9190617ad9565b60405180910390f35b61094e60048036038101906109499190617af2565b611c5d565b60405161095b91906175af565b60405180910390f35b61096c611ef8565b60405161097991906175af565b60405180910390f35b61098a611f0a565b6040516109979190617ad9565b60405180910390f35b6109ba60048036038101906109b59190617a58565b611f18565b6040516109c79190617673565b60405180910390f35b6109d8611f89565b6040516109e59190617673565b60405180910390f35b610a086004803603810190610a039190617b72565b611fa7565b604051610a1591906175af565b60405180910390f35b610a386004803603810190610a339190617d88565b6120f7565b005b610a4261210b565b604051610a4f9190617780565b60405180910390f35b610a606121a9565b604051610a6e929190617dcf565b60405180910390f35b610a7f612217565b604051610a8c91906176dd565b60405180910390f35b610a9d61221d565b005b610ab96004803603810190610ab491906177ca565b6125c6565b604051610ac69190617e36565b60405180910390f35b610ad7612677565b604051610ae491906175af565b60405180910390f35b610b076004803603810190610b02919061784f565b6126c6565b604051610b149190617673565b60405180910390f35b610b2561270a565b604051610b329190617ec2565b60405180910390f35b610b556004803603810190610b5091906177ca565b612729565b604051610b6291906175af565b60405180910390f35b610b856004803603810190610b809190617edb565b612764565b604051610b9291906175af565b60405180910390f35b610ba36128b8565b604051610bb09190617f4b565b60405180910390f35b610bd36004803603810190610bce9190617edb565b6128e8565b604051610be091906175af565b60405180910390f35b610c036004803603810190610bfe9190617fb9565b612a45565b005b610c1f6004803603810190610c1a9190617af2565b612eec565b604051610c2c91906175af565b60405180910390f35b610c4f6004803603810190610c4a91906177ca565b612fde565b604051610c5c91906175af565b60405180910390f35b610c7f6004803603810190610c7a9190618051565b612ff0565b005b610c89613027565b604051610c9691906176dd565b60405180910390f35b610ca761304b565b604051610cb491906176ac565b60405180910390f35b610cd76004803603810190610cd29190617af2565b6130c9565b604051610ce491906175af565b60405180910390f35b610cf5613193565b005b610cff613228565b604051610d0d92919061807c565b60405180910390f35b610d1e613277565b604051610d2b91906176dd565b60405180910390f35b610d4e6004803603810190610d499190617a58565b61329b565b005b610d586132e4565b005b610d746004803603810190610d6f9190617af2565b6132fb565b604051610d819190617e36565b60405180910390f35b610d926133ac565b604051610d9f9190617ad9565b60405180910390f35b610dc26004803603810190610dbd9190617af2565b6133d0565b604051610dcf91906175af565b60405180910390f35b610df26004803603810190610ded91906180a3565b6134aa565b604051610dff91906175af565b60405180910390f35b610e1061353a565b604051610e1d91906176dd565b60405180910390f35b610e406004803603810190610e3b91906177ca565b61355e565b604051610e4d91906175af565b60405180910390f35b610e706004803603810190610e6b91906180e1565b613599565b604051610e7d919061817e565b60405180910390f35b610ea06004803603810190610e9b91906181c1565b6136a3565b005b610eaa6136da565b604051610eb791906176dd565b60405180910390f35b5f610ec96136fe565b73ffffffffffffffffffffffffffffffffffffffff1663f3e0ffbf610eec611598565b6040518263ffffffff1660e01b8152600401610f08919061820c565b602060405180830381865afa158015610f23573d5f803e3d5ffd5b505050506040513d601f19601f82011682018060405250810190610f479190618239565b905090565b5f7f31498786000000000000000000000000000000000000000000000000000000007bffffffffffffffffffffffffffffffffffffffffffffffffffffffff1916827bffffffffffffffffffffffffffffffffffffffffffffffffffffffff19161480610fbe5750610fbd826137ae565b5b9050919050565b5f62069780905090565b610fd7613827565b5f610fe061387b565b9050806009015f9054906101000a900473ffffffffffffffffffffffffffffffffffffffff1673ffffffffffffffffffffffffffffffffffffffff16634c50c74c611029611598565b6110316138a2565b6040518363ffffffff1660e01b815260040161104e929190618284565b5f604051808303815f87803b158015611065575f80fd5b505af1158015611077573d5f803e3d5ffd5b505050505061108461391c565b565b7f4645455f4d414e4147455200000000000000000000000000000000000000000081565b60605f6110b5613933565b90508060030180546110c6906182d8565b80601f01602080910402602001604051908101604052809291908181526020018280546110f2906182d8565b801561113d5780601f106111145761010080835404028352916020019161113d565b820191905f5260205f20905b81548152906001019060200180831161112057829003601f168201915b505050505091505090565b5f611153825f61395a565b9050919050565b5f82611165816139b2565b61116d613bd1565b61117681613bd8565b8461118081613bd8565b61118a8686613cfc565b935050505092915050565b5f805f6111a0613d1e565b915091506112006111fb6111b2613dce565b600a6111be9190618464565b846111c76112c1565b6111d191906184ae565b6111db91906184ae565b6001846111e891906184ae565b600188613ded909392919063ffffffff16565b613e3a565b92505050919050565b5f801b61121581613e80565b61121d613e94565b50565b606061122a61387b565b6009015f9054906101000a900473ffffffffffffffffffffffffffffffffffffffff1673ffffffffffffffffffffffffffffffffffffffff16630adfdcb96040518163ffffffff1660e01b81526004015f60405180830381865afa158015611294573d5f803e3d5ffd5b505050506040513d5f823e3d601f19601f820116820180604052508101906112bc9190618692565b905090565b5f806112cb613933565b9050806002015491505090565b5f836112e3816139b2565b836112ed816139b2565b6112f5613bd1565b6112fe81613bd8565b8661130881613bd8565b8661131281613bd8565b61131b87613ea0565b611326898989613f17565b955050505050509392505050565b5f8061133e613f45565b9050805f015f8481526020019081526020015f2060010154915050919050565b5f61136761387b565b6009015f9054906101000a900473ffffffffffffffffffffffffffffffffffffffff1673ffffffffffffffffffffffffffffffffffffffff16632c15e0f76040518163ffffffff1660e01b8152600401602060405180830381865afa1580156113d2573d5f803e3d5ffd5b505050506040513d601f19601f820116820180604052508101906113f69190618239565b905090565b5f801b8203611436576040517f3fc3c27a00000000000000000000000000000000000000000000000000000000815260040160405180910390fd5b6114408282613f6c565b5050565b5f8061144e613f8e565b9050611458613dce565b815f0160149054906101000a900460ff1661147391906186d9565b91505090565b5f611482613fb5565b90505f801b831480156114c75750611498611c27565b73ffffffffffffffffffffffffffffffffffffffff168273ffffffffffffffffffffffffffffffffffffffff16145b15611589575f806114d6613228565b915091505f73ffffffffffffffffffffffffffffffffffffffff168273ffffffffffffffffffffffffffffffffffffffff1614158061151b575061151981613fdc565b155b8061152c575061152a81613ff0565b155b1561156e57806040517f19ca5ebb00000000000000000000000000000000000000000000000000000000815260040161156591906176ac565b60405180910390fd5b825f0160146101000a81549065ffffffffffff021916905550505b6115938383614003565b505050565b5f806115a2613f8e565b9050805f015f9054906101000a900473ffffffffffffffffffffffffffffffffffffffff1691505090565b5f806115d761387b565b9050805f015f9054906101000a900473ffffffffffffffffffffffffffffffffffffffff1673ffffffffffffffffffffffffffffffffffffffff16639e9e466682600101546040518263ffffffff1660e01b815260040161163891906176dd565b602060405180830381865afa158015611653573d5f803e3d5ffd5b505050506040513d601f19601f820116820180604052508101906116779190618737565b8061169057508060080160149054906101000a900460ff165b1561169e575f9150506116aa565b6116a661407e565b9150505b919050565b7f4645455f4d414e414745520000000000000000000000000000000000000000006116d981613e80565b6116e161410a565b6116e961387b565b600401819055506116f982614153565b5050565b7f4645455f4d414e4147455200000000000000000000000000000000000000000061172781613e80565b61173082614201565b5050565b5f805f61173f613d1e565b9150915061179660018261175391906184ae565b61175b613dce565b600a6117679190618464565b846117706112c1565b61177a91906184ae565b61178491906184ae565b5f87613ded909392919063ffffffff16565b92505050919050565b7f554e5041555345520000000000000000000000000000000000000000000000006117c981613e80565b5f6117d261387b565b60080160146101000a81548160ff02191690831515021790555050565b5f6117f861387b565b60010154905090565b7f4645455f434f4c4c4543544f520000000000000000000000000000000000000081565b5f801b61183181613e80565b61183a826142af565b5050565b5f801b61184a81613e80565b61185382614329565b5050565b5f61186061387b565b60020154905090565b7f504155534552000000000000000000000000000000000000000000000000000061189381613e80565b600161189d61387b565b60080160146101000a81548160ff02191690831515021790555050565b5f6118c3613827565b816118cd816139b2565b6118d5613bd1565b6118de81613bd8565b6118e661438f565b5f850361191f576040517fcbca5aa200000000000000000000000000000000000000000000000000000000815260040160405180910390fd5b5f61192861407e565b905080861115611973578486826040517f79012fb200000000000000000000000000000000000000000000000000000000815260040161196a93929190618762565b60405180910390fd5b5f61197c61410a565b90505f80611992898461198d6112c1565b6143e1565b915091505f82036119cf576040517f0784f01900000000000000000000000000000000000000000000000000000000815260040160405180910390fd5b6119e36119da613bd1565b898b8585614452565b8196505050505050506119f461391c565b92915050565b5f80611a04613933565b9050805f015f8473ffffffffffffffffffffffffffffffffffffffff1673ffffffffffffffffffffffffffffffffffffffff1681526020019081526020015f2054915050919050565b611a55614808565b611a5e826148a8565b611a6781614bfd565b5050565b7f4645455f4d414e41474552000000000000000000000000000000000000000000611a9581613e80565b611a9d61387b565b6009015f9054906101000a900473ffffffffffffffffffffffffffffffffffffffff1673ffffffffffffffffffffffffffffffffffffffff16634bd43cdd8484611ae56138a2565b6040518463ffffffff1660e01b8152600401611b03939291906188ac565b5f604051808303815f87803b158015611b1a575f80fd5b505af1158015611b2c573d5f803e3d5ffd5b50505050505050565b7f5350454e4445520000000000000000000000000000000000000000000000000081565b5f611b6261387b565b6009015f9054906101000a900473ffffffffffffffffffffffffffffffffffffffff1673ffffffffffffffffffffffffffffffffffffffff16637c10c8356040518163ffffffff1660e01b8152600401602060405180830381865afa158015611bcd573d5f803e3d5ffd5b505050506040513d601f19601f82011682018060405250810190611bf19190618239565b905090565b5f611bff61387b565b6008015f9054906101000a900473ffffffffffffffffffffffffffffffffffffffff16905090565b5f80611c31613fb5565b9050806001015f9054906101000a900473ffffffffffffffffffffffffffffffffffffffff1691505090565b5f611c66613827565b5f611c6f61387b565b90505f73ffffffffffffffffffffffffffffffffffffffff168373ffffffffffffffffffffffffffffffffffffffff1614158015611de75750806008015f9054906101000a900473ffffffffffffffffffffffffffffffffffffffff1673ffffffffffffffffffffffffffffffffffffffff16630b6c8373846040518263ffffffff1660e01b8152600401611d049190617ad9565b602060405180830381865afa158015611d1f573d5f803e3d5ffd5b505050506040513d601f19601f82011682018060405250810190611d439190618737565b1580611de65750806008015f9054906101000a900473ffffffffffffffffffffffffffffffffffffffff1673ffffffffffffffffffffffffffffffffffffffff16639086afa1846040518263ffffffff1660e01b8152600401611da69190617ad9565b602060405180830381865afa158015611dc1573d5f803e3d5ffd5b505050506040513d601f19601f82011682018060405250810190611de59190618737565b5b5b15611e2957826040517f83208b18000000000000000000000000000000000000000000000000000000008152600401611e209190617ad9565b60405180910390fd5b5f611e3261410a565b90505f611e3d6112c1565b90505f611e4b868484614d2c565b9050611e56866119fa565b8114611e8e576040517fbb55fd2700000000000000000000000000000000000000000000000000000000815260040160405180910390fd5b5f611e9b825f8686614e16565b90505f8103611ed6576040517f0784f01900000000000000000000000000000000000000000000000000000000815260040160405180910390fd5b611ee38788898486614e62565b8095505050505050611ef361391c565b919050565b5f611f0161387b565b60030154905090565b5f611f13611c27565b905090565b5f80611f22613f45565b9050805f015f8581526020019081526020015f205f015f8473ffffffffffffffffffffffffffffffffffffffff1673ffffffffffffffffffffffffffffffffffffffff1681526020019081526020015f205f9054906101000a900460ff1691505092915050565b5f611f9261387b565b6006015f9054906101000a900460ff16905090565b5f611fb0613827565b81611fba816139b2565b611fc2613bd1565b611fcb81613bd8565b611fd361438f565b5f850361200c576040517fcbca5aa200000000000000000000000000000000000000000000000000000000815260040160405180910390fd5b61201585613ea0565b5f61201e61410a565b90505f6120296112c1565b90505f6120368383615194565b905080881115612081578688826040517f284ff66700000000000000000000000000000000000000000000000000000000815260040161207893929190618762565b60405180910390fd5b5f8061208e8a8686615206565b915091505f82036120cb576040517f0784f01900000000000000000000000000000000000000000000000000000000815260040160405180910390fd5b6120df6120d6613bd1565b8a848d85614452565b819750505050505050506120f161391c565b92915050565b6120ff614808565b61210881614bfd565b50565b60605f612116613933565b9050806004018054612127906182d8565b80601f0160208091040260200160405190810160405280929190818152602001828054612153906182d8565b801561219e5780601f106121755761010080835404028352916020019161219e565b820191905f5260205f20905b81548152906001019060200180831161218157829003601f168201915b505050505091505090565b5f805f6121b4613fb5565b905080600101601a9054906101000a900465ffffffffffff1691506121d882613fdc565b80156121ea57506121e882613ff0565b155b6121f5575f8061220e565b8060010160149054906101000a900465ffffffffffff16825b92509250509091565b5f801b81565b612225613827565b7f4645455f434f4c4c4543544f520000000000000000000000000000000000000061224f81613e80565b5f61225861387b565b90505f80612264613d1e565b915091505f61229683856007015461227c91906184ae565b5f84866122876112c1565b61229191906184ae565b614e16565b90505f81036122d1576040517f7b2c2fef00000000000000000000000000000000000000000000000000000000815260040160405180910390fd5b5f6122da611598565b73ffffffffffffffffffffffffffffffffffffffff166370a08231306040518263ffffffff1660e01b81526004016123129190617ad9565b602060405180830381865afa15801561232d573d5f803e3d5ffd5b505050506040513d601f19601f820116820180604052508101906123519190618239565b90505f855f015f9054906101000a900473ffffffffffffffffffffffffffffffffffffffff1673ffffffffffffffffffffffffffffffffffffffff16635fbfeb4687600101546040518263ffffffff1660e01b81526004016123b391906176dd565b602060405180830381865afa1580156123ce573d5f803e3d5ffd5b505050506040513d601f19601f820116820180604052508101906123f291906188dc565b905061247b6123ff611598565b84604051602401612411929190618907565b60405160208183030381529060405263f3fef3a360e01b6020820180517bffffffffffffffffffffffffffffffffffffffffffffffffffffffff83818316178352505050508273ffffffffffffffffffffffffffffffffffffffff166152d590919063ffffffff16565b50856009015f9054906101000a900473ffffffffffffffffffffffffffffffffffffffff1673ffffffffffffffffffffffffffffffffffffffff1663fc5ad4d1836124c4611598565b73ffffffffffffffffffffffffffffffffffffffff166370a08231306040518263ffffffff1660e01b81526004016124fc9190617ad9565b602060405180830381865afa158015612517573d5f803e3d5ffd5b505050506040513d601f19601f8201168201806040525081019061253b9190618239565b612545919061892e565b6040518263ffffffff1660e01b815260040161256191906175af565b5f604051808303815f87803b158015612578575f80fd5b505af115801561258a573d5f803e3d5ffd5b5050505061259c308760070154615355565b5f86600701819055506125ad610ec0565b8660040181905550505050505050506125c461391c565b565b6125ce617563565b6125d661387b565b6009015f9054906101000a900473ffffffffffffffffffffffffffffffffffffffff1673ffffffffffffffffffffffffffffffffffffffff1663a7b09122836040518263ffffffff1660e01b815260040161263191906175af565b606060405180830381865afa15801561264c573d5f803e3d5ffd5b505050506040513d601f19601f820116820180604052508101906126709190618961565b9050919050565b5f805f612682613d1e565b915091505f61268f61387b565b600701548361269e91906184ae565b90506126be815f84866126af6112c1565b6126b991906184ae565b614e16565b935050505090565b5f826126d1816139b2565b6126d9613bd1565b6126e281613bd8565b846126ec81613bd8565b6126f585613ea0565b6126ff86866153d4565b935050505092915050565b5f61271361387b565b60080160159054906101000a900460ff16905090565b5f805f612734613d1e565b915091505f6127568583856127476112c1565b61275191906184ae565b615206565b509050809350505050919050565b5f61276d613827565b82612777816139b2565b82612781816139b2565b612789613bd1565b61279281613bd8565b8461279c81613bd8565b5f88036127d5576040517fcbca5aa200000000000000000000000000000000000000000000000000000000815260040160405180910390fd5b5f6127df876153f6565b90508089111561282a578689826040517ffe9cceec00000000000000000000000000000000000000000000000000000000815260040161282193929190618762565b60405180910390fd5b5f6128468a600161283961410a565b6128416112c1565b61549d565b90505f8103612881576040517f0784f01900000000000000000000000000000000000000000000000000000000815260040160405180910390fd5b61288a81613e3a565b90506128a0612897613bd1565b8a8a8d85614e62565b8096505050505050506128b161391c565b9392505050565b5f6128c161387b565b5f015f9054906101000a900473ffffffffffffffffffffffffffffffffffffffff16905090565b5f6128f1613827565b826128fb816139b2565b82612905816139b2565b61290d613bd1565b61291681613bd8565b8461292081613bd8565b5f8803612959576040517fcbca5aa200000000000000000000000000000000000000000000000000000000815260040160405180910390fd5b61296288613ea0565b5f61296b61410a565b90505f6129766112c1565b90505f612984898484614d2c565b9050808b11156129cf57888b826040517fb94abeec0000000000000000000000000000000000000000000000000000000081526004016129c693929190618762565b60405180910390fd5b505f6129dd8b5f8585614e16565b90505f8103612a18576040517f0784f01900000000000000000000000000000000000000000000000000000000815260040160405180910390fd5b612a2c612a23613bd1565b8b8b848f614e62565b80975050505050505050612a3e61391c565b9392505050565b612a4d613827565b7f434c41494d5f4d414e4147455200000000000000000000000000000000000000612a7781613e80565b5f612a8061387b565b90505f612a8b610ec0565b90505f825f015f9054906101000a900473ffffffffffffffffffffffffffffffffffffffff1673ffffffffffffffffffffffffffffffffffffffff16635fbfeb4684600101546040518263ffffffff1660e01b8152600401612aed91906176dd565b602060405180830381865afa158015612b08573d5f803e3d5ffd5b505050506040513d601f19601f82011682018060405250810190612b2c91906188dc565b905060016002811115612b4257612b41617e4f565b5b8360080160159054906101000a900460ff166002811115612b6657612b65617e4f565b5b03612cf6575f8790505f612bfb612b7b611598565b838a8a604051602401612b9194939291906189c6565b60405160208183030381529060405263767081d160e01b6020820180517bffffffffffffffffffffffffffffffffffffffffffffffffffffffff83818316178352505050508473ffffffffffffffffffffffffffffffffffffffff166152d590919063ffffffff16565b90505f612c06610ec0565b905080851115612c4f5784816040517f88b8d67d000000000000000000000000000000000000000000000000000000008152600401612c46929190618a04565b60405180910390fd5b5f82806020019051810190612c649190618239565b90505f8103612c9f576040517fa835b44e00000000000000000000000000000000000000000000000000000000815260040160405180910390fd5b8a73ffffffffffffffffffffffffffffffffffffffff167ffc30cddea38e2bf4d6ea7d3f9ed3b6ad7f176419f4963bd81318067a4aee73fe82604051612ce591906175af565b60405180910390a250505050612edb565b600280811115612d0957612d08617e4f565b5b8360080160159054906101000a900460ff166002811115612d2d57612d2c617e4f565b5b03612ea857612dbd612d3d611598565b888888604051602401612d5394939291906189c6565b60405160208183030381529060405263fd9c618860e01b6020820180517bffffffffffffffffffffffffffffffffffffffffffffffffffffffff83818316178352505050508273ffffffffffffffffffffffffffffffffffffffff166152d590919063ffffffff16565b505f612dc7610ec0565b905080831115612e105782816040517f88b8d67d000000000000000000000000000000000000000000000000000000008152600401612e07929190618a04565b60405180910390fd5b808303612e49576040517fa835b44e00000000000000000000000000000000000000000000000000000000815260040160405180910390fd5b8773ffffffffffffffffffffffffffffffffffffffff167ffc30cddea38e2bf4d6ea7d3f9ed3b6ad7f176419f4963bd81318067a4aee73fe8483612e8d919061892e565b604051612e9a91906175af565b60405180910390a250612eda565b6040517f8225331c00000000000000000000000000000000000000000000000000000000815260040160405180910390fd5b5b50505050612ee761391c565b505050565b5f80612ef661387b565b9050805f015f9054906101000a900473ffffffffffffffffffffffffffffffffffffffff1673ffffffffffffffffffffffffffffffffffffffff16639e9e466682600101546040518263ffffffff1660e01b8152600401612f5791906176dd565b602060405180830381865afa158015612f72573d5f803e3d5ffd5b505050506040513d601f19601f82011682018060405250810190612f969190618737565b80612faf57508060080160149054906101000a900460ff165b15612fbd575f915050612fd9565b612fd5612fc8610ec0565b612fd06112c1565b615194565b9150505b919050565b5f612fe9825f6154e9565b9050919050565b7f53414e4354494f4e535f4d414e4147455200000000000000000000000000000061301a81613e80565b61302382615541565b5050565b7f434c41494d5f4d414e414745520000000000000000000000000000000000000081565b5f80613055613fb5565b90505f81600101601a9054906101000a900465ffffffffffff16905061307a81613fdc565b801561308b575061308a81613ff0565b5b6130aa57815f01601a9054906101000a900465ffffffffffff166130c2565b8160010160149054906101000a900465ffffffffffff165b9250505090565b5f806130d361387b565b9050805f015f9054906101000a900473ffffffffffffffffffffffffffffffffffffffff1673ffffffffffffffffffffffffffffffffffffffff16639e9e466682600101546040518263ffffffff1660e01b815260040161313491906176dd565b602060405180830381865afa15801561314f573d5f803e3d5ffd5b505050506040513d601f19601f820116820180604052508101906131739190618737565b15613181575f91505061318e565b61318a836153f6565b9150505b919050565b5f61319c613228565b5090508073ffffffffffffffffffffffffffffffffffffffff166131be613bd1565b73ffffffffffffffffffffffffffffffffffffffff161461321d576131e1613bd1565b6040517fc22c80220000000000000000000000000000000000000000000000000000000081526004016132149190617ad9565b60405180910390fd5b6132256155c4565b50565b5f805f613233613fb5565b9050805f015f9054906101000a900473ffffffffffffffffffffffffffffffffffffffff16815f0160149054906101000a900465ffffffffffff1692509250509091565b7f53414e4354494f4e535f4d414e4147455200000000000000000000000000000081565b5f801b82036132d6576040517f3fc3c27a00000000000000000000000000000000000000000000000000000000815260040160405180910390fd5b6132e0828261569d565b5050565b5f801b6132f081613e80565b6132f86156bf565b50565b613303617563565b61330b61387b565b6009015f9054906101000a900473ffffffffffffffffffffffffffffffffffffffff1673ffffffffffffffffffffffffffffffffffffffff1663d78162e9836040518263ffffffff1660e01b81526004016133669190617ad9565b606060405180830381865afa158015613381573d5f803e3d5ffd5b505050506040513d601f19601f820116820180604052508101906133a59190618961565b9050919050565b7f000000000000000000000000000000000000000000000000000000000000000081565b5f806133da61387b565b9050805f015f9054906101000a900473ffffffffffffffffffffffffffffffffffffffff1673ffffffffffffffffffffffffffffffffffffffff16639e9e466682600101546040518263ffffffff1660e01b815260040161343b91906176dd565b602060405180830381865afa158015613456573d5f803e3d5ffd5b505050506040513d601f19601f8201168201806040525081019061347a9190618737565b15613488575f9150506134a5565b6134a183613494610ec0565b61349c6112c1565b614d2c565b9150505b919050565b5f806134b4613933565b9050806001015f8573ffffffffffffffffffffffffffffffffffffffff1673ffffffffffffffffffffffffffffffffffffffff1681526020019081526020015f205f8473ffffffffffffffffffffffffffffffffffffffff1673ffffffffffffffffffffffffffffffffffffffff1681526020019081526020015f205491505092915050565b7f504155534552000000000000000000000000000000000000000000000000000081565b5f805f613569613d1e565b915091505f61358b85838561357c6112c1565b61358691906184ae565b6143e1565b509050809350505050919050565b60606135a3614808565b61369b83838080601f0160208091040260200160405190810160405280939291908181526020018383808284375f81840152601f19601f820116905080830192505050505050507f000000000000000000000000000000000000000000000000000000000000000073ffffffffffffffffffffffffffffffffffffffff1663273a041c6040518163ffffffff1660e01b8152600401602060405180830381865afa158015613653573d5f803e3d5ffd5b505050506040513d601f19601f8201168201806040525081019061367791906188dc565b73ffffffffffffffffffffffffffffffffffffffff166152d590919063ffffffff16565b905092915050565b7f434c41494d5f4d414e41474552000000000000000000000000000000000000006136cd81613e80565b6136d6826156cb565b5050565b7f554e50415553455200000000000000000000000000000000000000000000000081565b5f8061370861387b565b9050805f015f9054906101000a900473ffffffffffffffffffffffffffffffffffffffff1673ffffffffffffffffffffffffffffffffffffffff16638eaa6ac082600101546040518263ffffffff1660e01b815260040161376991906176dd565b602060405180830381865afa158015613784573d5f803e3d5ffd5b505050506040513d601f19601f820116820180604052508101906137a891906188dc565b91505090565b5f7f7965db0b000000000000000000000000000000000000000000000000000000007bffffffffffffffffffffffffffffffffffffffffffffffffffffffff1916827bffffffffffffffffffffffffffffffffffffffffffffffffffffffff19161480613820575061381f82615738565b5b9050919050565b5f6138306157a1565b90506002815f01540361386f576040517f3ee5aeb500000000000000000000000000000000000000000000000000000000815260040160405180910390fd5b6002815f018190555050565b5f7f6bb5a2a0ae924c2ea94f037035a09f65614421e2a7d96c9bcbd59acdd32e6000905090565b5f6138ab611598565b73ffffffffffffffffffffffffffffffffffffffff1663313ce5676040518163ffffffff1660e01b8152600401602060405180830381865afa1580156138f3573d5f803e3d5ffd5b505050506040513d601f19601f820116820180604052508101906139179190618a55565b905090565b5f6139256157a1565b90506001815f018190555050565b5f7f52c63247e1f47db19d5ce0460030c497f067ca4cebf71ba98eeadabe20bace00905090565b5f6139aa6001613968610ec0565b61397291906184ae565b61397a613dce565b600a6139869190618464565b61398e6112c1565b61399891906184ae565b8486613ded909392919063ffffffff16565b905092915050565b6139ba61387b565b6006015f9054906101000a900460ff16158015613a0a57506139da613bd1565b73ffffffffffffffffffffffffffffffffffffffff168173ffffffffffffffffffffffffffffffffffffffff1614155b8015613b9757507f000000000000000000000000000000000000000000000000000000000000000073ffffffffffffffffffffffffffffffffffffffff166391d148547f5350454e44455200000000000000000000000000000000000000000000000000613a76613bd1565b6040518363ffffffff1660e01b8152600401613a93929190618a80565b602060405180830381865afa158015613aae573d5f803e3d5ffd5b505050506040513d601f19601f82011682018060405250810190613ad29190618737565b158015613b9657507f000000000000000000000000000000000000000000000000000000000000000073ffffffffffffffffffffffffffffffffffffffff166391d148547f5350454e44455200000000000000000000000000000000000000000000000000836040518363ffffffff1660e01b8152600401613b55929190618a80565b602060405180830381865afa158015613b70573d5f803e3d5ffd5b505050506040513d601f19601f82011682018060405250810190613b949190618737565b155b5b15613bce576040517fdc8d8db700000000000000000000000000000000000000000000000000000000815260040160405180910390fd5b50565b5f33905090565b5f613be161387b565b6008015f9054906101000a900473ffffffffffffffffffffffffffffffffffffffff1690505f73ffffffffffffffffffffffffffffffffffffffff168173ffffffffffffffffffffffffffffffffffffffff1614158015613cb657508073ffffffffffffffffffffffffffffffffffffffff1663fbac3951836040518263ffffffff1660e01b8152600401613c769190617ad9565b602060405180830381865afa158015613c91573d5f803e3d5ffd5b505050506040513d601f19601f82011682018060405250810190613cb59190618737565b5b15613cf857816040517f71fa9c99000000000000000000000000000000000000000000000000000000008152600401613cef9190617ad9565b60405180910390fd5b5050565b5f80613d06613bd1565b9050613d138185856157c8565b600191505092915050565b5f805f613d2961387b565b9050613d33610ec0565b91505f613d4d8260040154846157da90919063ffffffff16565b9150505f8114158015613d6457505f826003015414155b15613dc8575f613da48360030154613d7a6138a2565b600a613d869190618464565b6064613d929190618aa7565b5f85613ded909392919063ffffffff16565b9050613dc4815f8387613db7919061892e565b613dbf6112c1565b61549d565b9450505b50509091565b5f613dd761387b565b60060160019054906101000a900460ff16905090565b5f613e1b613dfa83615800565b8015613e1657505f8480613e1157613e10618ae8565b5b868809115b61582d565b613e26868686615838565b613e3091906184ae565b9050949350505050565b5f80613e44613dce565b90505f8160ff161115613e775780600a613e5e9190618464565b83613e699190618b15565b83613e74919061892e565b92505b82915050919050565b613e9181613e8c613bd1565b61591d565b50565b613e9e5f8061596e565b565b5f613ea9613dce565b90505f8160ff161115613f13575f81600a613ec49190618464565b83613ecf9190618b15565b1115613f1257816040517f5588455c000000000000000000000000000000000000000000000000000000008152600401613f0991906175af565b60405180910390fd5b5b5050565b5f80613f21613bd1565b9050613f2e858285615a72565b613f39858585615b05565b60019150509392505050565b5f7f02dd7bc7dec4dceedda775e58dd541e08a116c6c53815c0bd028192f7b626800905090565b613f7582611334565b613f7e81613e80565b613f888383615bf5565b50505050565b5f7f0773e532dfede91f04b12a73d3d2acd361424f41f76b4fb79f090161e36b4e00905090565b5f7feef3dac4538c82c8ace4063ab0acd2d15cdb5883aa1dff7c2673abb3d8698400905090565b5f808265ffffffffffff1614159050919050565b5f428265ffffffffffff16109050919050565b61400b613bd1565b73ffffffffffffffffffffffffffffffffffffffff168173ffffffffffffffffffffffffffffffffffffffff161461406f576040517f6697b23200000000000000000000000000000000000000000000000000000000815260040160405180910390fd5b6140798282615ccc565b505050565b5f6140876136fe565b73ffffffffffffffffffffffffffffffffffffffff1663402d267d6140aa611598565b6040518263ffffffff1660e01b81526004016140c69190618b45565b602060405180830381865afa1580156140e1573d5f803e3d5ffd5b505050506040513d601f19601f820116820180604052508101906141059190618239565b905090565b5f80614114613d1e565b80935081925050505f811461414f5761412d3082615d5a565b8061413661387b565b6007015f82825461414791906184ae565b925050819055505b5090565b61415b6138a2565b600a6141679190618464565b60236141739190618aa7565b8111156141b757806040517f3877ae1a0000000000000000000000000000000000000000000000000000000081526004016141ae91906175af565b60405180910390fd5b806141c061387b565b600301819055507fa3a7237fa3e9815ecdce2f7e32144ffcd5c299f01ce51e94b273896404c3f977816040516141f691906175af565b60405180910390a150565b6142096138a2565b600a6142159190618464565b60236142219190618aa7565b81111561426557806040517fff69e02a00000000000000000000000000000000000000000000000000000000815260040161425c91906175af565b60405180910390fd5b8061426e61387b565b600201819055507f206dd15151fcc83315419fbe53a71fcf9c09da803767d3dd05f7874e1b9bf645816040516142a491906175af565b60405180910390a150565b5f6142b861304b565b6142c142615dd9565b6142cb9190618b5e565b90506142d78282615e32565b8173ffffffffffffffffffffffffffffffffffffffff167f3377dc44241e779dd06afab5b788a35ca5f3b778836e2990bdb26a2a4b2e5ed68260405161431d91906176ac565b60405180910390a25050565b5f61433382615ef1565b61433c42615dd9565b6143469190618b5e565b9050614352828261596e565b7ff1038c18cf84a56e432fdbfaf746924b7ea511dfe03a6506a0ceba4888788d9b8282604051614383929190617dcf565b60405180910390a15050565b61439761387b565b60080160149054906101000a900460ff16156143df576040517f35edea3000000000000000000000000000000000000000000000000000000000815260040160405180910390fd5b565b5f805f6143ec61387b565b905061442681600201546143fe6138a2565b600a61440a9190618464565b60646144169190618aa7565b886158389092919063ffffffff16565b9150614447614442838861443a919061892e565b5f888861549d565b613e3a565b925050935093915050565b5f61445b611598565b73ffffffffffffffffffffffffffffffffffffffff166370a08231306040518263ffffffff1660e01b81526004016144939190617ad9565b602060405180830381865afa1580156144ae573d5f803e3d5ffd5b505050506040513d601f19601f820116820180604052508101906144d29190618239565b90506144e76144df611598565b873087615f4f565b6144f18584615d5a565b5f6144fa61387b565b905080600501546145096112c1565b1015614541576040517fb086de1300000000000000000000000000000000000000000000000000000000815260040160405180910390fd5b5f815f015f9054906101000a900473ffffffffffffffffffffffffffffffffffffffff1673ffffffffffffffffffffffffffffffffffffffff16635fbfeb4683600101546040518263ffffffff1660e01b81526004016145a191906176dd565b602060405180830381865afa1580156145bc573d5f803e3d5ffd5b505050506040513d601f19601f820116820180604052508101906145e091906188dc565b90506146fd6145ed611598565b85856145f7611598565b73ffffffffffffffffffffffffffffffffffffffff166370a08231306040518263ffffffff1660e01b815260040161462f9190617ad9565b602060405180830381865afa15801561464a573d5f803e3d5ffd5b505050506040513d601f19601f8201168201806040525081019061466e9190618239565b614678919061892e565b614682919061892e565b604051602401614693929190618907565b6040516020818303038152906040526347e7ef2460e01b6020820180517bffffffffffffffffffffffffffffffffffffffffffffffffffffffff83818316178352505050508273ffffffffffffffffffffffffffffffffffffffff166152d590919063ffffffff16565b50614706610ec0565b8260040181905550816009015f9054906101000a900473ffffffffffffffffffffffffffffffffffffffff1673ffffffffffffffffffffffffffffffffffffffff166357a57524856040518263ffffffff1660e01b815260040161476a91906175af565b5f604051808303815f87803b158015614781575f80fd5b505af1158015614793573d5f803e3d5ffd5b505050508673ffffffffffffffffffffffffffffffffffffffff168873ffffffffffffffffffffffffffffffffffffffff167fdcbc1c05240f31ff3ad067ef1ee35ce4997762752e3a095284754544f4c709d788886040516147f6929190618a04565b60405180910390a35050505050505050565b7f000000000000000000000000000000000000000000000000000000000000000073ffffffffffffffffffffffffffffffffffffffff16614847613bd1565b73ffffffffffffffffffffffffffffffffffffffff16146148a65761486a613bd1565b6040517f7cff0d3300000000000000000000000000000000000000000000000000000000815260040161489d9190617ad9565b60405180910390fd5b565b5f6148b1615fd1565b90505f815f0160089054906101000a900460ff161590505f825f015f9054906101000a900467ffffffffffffffff1690505f808267ffffffffffffffff161480156148f95750825b90505f60018367ffffffffffffffff1614801561492c57505f3073ffffffffffffffffffffffffffffffffffffffff163b145b90508115801561493a575080155b15614971576040517ff92ee8a900000000000000000000000000000000000000000000000000000000815260040160405180910390fd5b6001855f015f6101000a81548167ffffffffffffffff021916908367ffffffffffffffff16021790555083156149be576001855f0160086101000a81548160ff0219169083151502179055505b6149d8865f0160208101906149d39190618bd2565b615ff8565b7f271b4511ff4aaef63080ee912e106daf4730d4103103ece6b8945b8f63ee0249865f016020810190614a0b9190618bd2565b604051614a189190618b45565b60405180910390a1614acc868060200190614a339190618c09565b8080601f0160208091040260200160405190810160405280939291908181526020018383808284375f81840152601f19601f82011690508083019250505050505050878060400190614a859190618c09565b8080601f0160208091040260200160405190810160405280939291908181526020018383808284375f81840152601f19601f8201169050808301925050505050505061600c565b7f1099e0381cc51a0e48f876169bdb9db942eb13641fd572c175c9c457c8861b13868060200190614afd9190618c09565b604051614b0b929190618c97565b60405180910390a17f9c2a4a58d55ab06d0ee30f916218eee44fe05a75841c6d46f3be938fa02d5978868060400190614b449190618c09565b604051614b52929190618c97565b60405180910390a1614b62616022565b614b92866101c0016020810190614b799190617b47565b87610100016020810190614b8d9190617af2565b616034565b614b9b8661604a565b8315614bf5575f855f0160086101000a81548160ff0219169083151502179055507fc7f505b2f371ae2175ee4913f4499e1f2633a7b5936321eed1cdaeb6115181d26001604051614bec9190618d05565b60405180910390a15b505050505050565b60025f614c08615fd1565b9050805f0160089054906101000a900460ff1680614c5057508167ffffffffffffffff16815f015f9054906101000a900467ffffffffffffffff1667ffffffffffffffff1610155b15614c87576040517ff92ee8a900000000000000000000000000000000000000000000000000000000815260040160405180910390fd5b81815f015f6101000a81548167ffffffffffffffff021916908367ffffffffffffffff1602179055506001815f0160086101000a81548160ff021916908315150217905550614cd583616212565b5f815f0160086101000a81548160ff0219169083151502179055507fc7f505b2f371ae2175ee4913f4499e1f2633a7b5936321eed1cdaeb6115181d282604051614d1f9190618d2d565b60405180910390a1505050565b5f80614d366136fe565b73ffffffffffffffffffffffffffffffffffffffff1663ce96cb77614d59611598565b6040518263ffffffff1660e01b8152600401614d759190618b45565b602060405180830381865afa158015614d90573d5f803e3d5ffd5b505050506040513d601f19601f82011682018060405250810190614db49190618239565b90507fffffffffffffffffffffffffffffffffffffffffffffffffffffffffffffffff8103614dee57614de6856119fa565b915050614e0f565b614e0b614dfd825f878761549d565b614e06876119fa565b616492565b9150505b9392505050565b5f614e58600184614e2791906184ae565b614e2f613dce565b600a614e3b9190618464565b84614e4691906184ae565b8688613ded909392919063ffffffff16565b9050949350505050565b8273ffffffffffffffffffffffffffffffffffffffff168573ffffffffffffffffffffffffffffffffffffffff1614614ea157614ea0838683615a72565b5b614eab8382615355565b5f614eb461387b565b90505f815f015f9054906101000a900473ffffffffffffffffffffffffffffffffffffffff1673ffffffffffffffffffffffffffffffffffffffff16635fbfeb4683600101546040518263ffffffff1660e01b8152600401614f1691906176dd565b602060405180830381865afa158015614f31573d5f803e3d5ffd5b505050506040513d601f19601f82011682018060405250810190614f5591906188dc565b90505f614f60611598565b73ffffffffffffffffffffffffffffffffffffffff166370a08231306040518263ffffffff1660e01b8152600401614f989190617ad9565b602060405180830381865afa158015614fb3573d5f803e3d5ffd5b505050506040513d601f19601f82011682018060405250810190614fd79190618239565b9050615060614fe4611598565b86604051602401614ff6929190618907565b60405160208183030381529060405263f3fef3a360e01b6020820180517bffffffffffffffffffffffffffffffffffffffffffffffffffffffff83818316178352505050508373ffffffffffffffffffffffffffffffffffffffff166152d590919063ffffffff16565b506150fc61506c611598565b8883615076611598565b73ffffffffffffffffffffffffffffffffffffffff166370a08231306040518263ffffffff1660e01b81526004016150ae9190617ad9565b602060405180830381865afa1580156150c9573d5f803e3d5ffd5b505050506040513d601f19601f820116820180604052508101906150ed9190618239565b6150f7919061892e565b6164a8565b615104610ec0565b83600401819055508573ffffffffffffffffffffffffffffffffffffffff168773ffffffffffffffffffffffffffffffffffffffff168973ffffffffffffffffffffffffffffffffffffffff167ffbde797d201c681b91056529119e0b02407c7bb96a4a2c75c01fc9667232c8db8888604051615182929190618a04565b60405180910390a45050505050505050565b5f8061519e61407e565b90507fffffffffffffffffffffffffffffffffffffffffffffffffffffffffffffffff81036151f0577fffffffffffffffffffffffffffffffffffffffffffffffffffffffffffffffff915050615200565b6151fc815f868661549d565b9150505b92915050565b5f805f61521161387b565b90505f816002015490505f6152246138a2565b60ff1690505f6152378960018a8a614e16565b90505f82600a6152479190618d46565b826152529190618aa7565b90505f8484600a6152639190618d46565b606461526f9190618aa7565b615279919061892e565b9050615294606482600185613ded909392919063ffffffff16565b97506152c58585600a6152a79190618d46565b60646152b39190618aa7565b5f8b613ded909392919063ffffffff16565b9650505050505050935093915050565b60605f808473ffffffffffffffffffffffffffffffffffffffff16846040516152fe9190618dca565b5f60405180830381855af49150503d805f8114615336576040519150601f19603f3d011682016040523d82523d5f602084013e61533b565b606091505b509150915061534b858383616527565b9250505092915050565b5f73ffffffffffffffffffffffffffffffffffffffff168273ffffffffffffffffffffffffffffffffffffffff16036153c5575f6040517f96c6fd1e0000000000000000000000000000000000000000000000000000000081526004016153bc9190617ad9565b60405180910390fd5b6153d0825f836165b4565b5050565b5f806153de613bd1565b90506153eb818585615b05565b600191505092915050565b5f6154966154026136fe565b73ffffffffffffffffffffffffffffffffffffffff1663ce96cb77615425611598565b6040518263ffffffff1660e01b81526004016154419190618b45565b602060405180830381865afa15801561545c573d5f803e3d5ffd5b505050506040513d601f19601f820116820180604052508101906154809190618239565b61549161548c856119fa565b611734565b616492565b9050919050565b5f6154df6154a9613dce565b600a6154b59190618464565b836154c091906184ae565b6001856154cd91906184ae565b8688613ded909392919063ffffffff16565b9050949350505050565b5f6155396154f5613dce565b600a6155019190618464565b6155096112c1565b61551391906184ae565b600161551d610ec0565b61552791906184ae565b8486613ded909392919063ffffffff16565b905092915050565b8061554a61387b565b6008015f6101000a81548173ffffffffffffffffffffffffffffffffffffffff021916908373ffffffffffffffffffffffffffffffffffffffff1602179055507f459692b0548dcf581883379de8559b33545b3681ca7b06ea65eff6344d0d90a7816040516155b99190617d6f565b60405180910390a150565b5f6155cd613fb5565b90505f806155d9613228565b915091506155e681613fdc565b15806155f857506155f681613ff0565b155b1561563a57806040517f19ca5ebb00000000000000000000000000000000000000000000000000000000815260040161563191906176ac565b60405180910390fd5b61564d5f801b615648611c27565b615ccc565b5061565a5f801b83615bf5565b50825f015f6101000a81549073ffffffffffffffffffffffffffffffffffffffff0219169055825f0160146101000a81549065ffffffffffff0219169055505050565b6156a682611334565b6156af81613e80565b6156b98383615ccc565b50505050565b6156c95f80615e32565b565b806156d461387b565b60080160156101000a81548160ff021916908360028111156156f9576156f8617e4f565b5b02179055507f23c25a58e3ec389f1fc2d77808492521b59d95b041f77c052738bf47ef30ac3b8160405161572d9190617ec2565b60405180910390a150565b5f7f01ffc9a7000000000000000000000000000000000000000000000000000000007bffffffffffffffffffffffffffffffffffffffffffffffffffffffff1916827bffffffffffffffffffffffffffffffffffffffffffffffffffffffff1916149050919050565b5f7f9b779b17422d0df92223018b32b4d1fa46e071723d6817e2486d003becc55f00905090565b6157d583838360016167e3565b505050565b5f80838311156157ef575f80915091506157f9565b6001838503915091505b9250929050565b5f6001600283600381111561581857615817617e4f565b5b6158229190618de0565b60ff16149050919050565b5f8115159050919050565b5f8083850290505f8019858709828110838203039150505f81036158705783828161586657615865618ae8565b5b0492505050615916565b80841161588f5761588e6158895f8614601260116169c0565b6169d9565b5b5f8486880990508281118203915080830392505f855f038616905080860495508084049350600181825f0304019050808302841793505f600287600302189050808702600203810290508087026002038102905080870260020381029050808702600203810290508087026002038102905080870260020381029050808502955050505050505b9392505050565b6159278282611f18565b61596a5780826040517fe2517d3f000000000000000000000000000000000000000000000000000000008152600401615961929190618e10565b60405180910390fd5b5050565b5f615977613fb5565b90505f81600101601a9054906101000a900465ffffffffffff16905061599c81613fdc565b15615a1e576159aa81613ff0565b156159f0578160010160149054906101000a900465ffffffffffff16825f01601a6101000a81548165ffffffffffff021916908365ffffffffffff160217905550615a1d565b7f2b1fa2edafe6f7b9e97c1a9e0c3660e645beb2dcaa2d45bdbf9beaf5472e1ec560405160405180910390a15b5b838260010160146101000a81548165ffffffffffff021916908365ffffffffffff1602179055508282600101601a6101000a81548165ffffffffffff021916908365ffffffffffff16021790555050505050565b5f615a7d84846134aa565b90507fffffffffffffffffffffffffffffffffffffffffffffffffffffffffffffffff811015615aff5781811015615af0578281836040517ffb8f41b2000000000000000000000000000000000000000000000000000000008152600401615ae793929190618762565b60405180910390fd5b615afe84848484035f6167e3565b5b50505050565b5f73ffffffffffffffffffffffffffffffffffffffff168373ffffffffffffffffffffffffffffffffffffffff1603615b75575f6040517f96c6fd1e000000000000000000000000000000000000000000000000000000008152600401615b6c9190617ad9565b60405180910390fd5b5f73ffffffffffffffffffffffffffffffffffffffff168273ffffffffffffffffffffffffffffffffffffffff1603615be5575f6040517fec442f05000000000000000000000000000000000000000000000000000000008152600401615bdc9190617ad9565b60405180910390fd5b615bf08383836165b4565b505050565b5f80615bff613fb5565b90505f801b8403615cb9575f73ffffffffffffffffffffffffffffffffffffffff16615c29611c27565b73ffffffffffffffffffffffffffffffffffffffff1614615c76576040517f3fc3c27a00000000000000000000000000000000000000000000000000000000815260040160405180910390fd5b82816001015f6101000a81548173ffffffffffffffffffffffffffffffffffffffff021916908373ffffffffffffffffffffffffffffffffffffffff1602179055505b615cc384846169ea565b91505092915050565b5f80615cd6613fb5565b90505f801b84148015615d1b5750615cec611c27565b73ffffffffffffffffffffffffffffffffffffffff168373ffffffffffffffffffffffffffffffffffffffff16145b15615d4757806001015f6101000a81549073ffffffffffffffffffffffffffffffffffffffff02191690555b615d518484616ae2565b91505092915050565b5f73ffffffffffffffffffffffffffffffffffffffff168273ffffffffffffffffffffffffffffffffffffffff1603615dca575f6040517fec442f05000000000000000000000000000000000000000000000000000000008152600401615dc19190617ad9565b60405180910390fd5b615dd55f83836165b4565b5050565b5f65ffffffffffff8016821115615e2a576030826040517f6dfcc650000000000000000000000000000000000000000000000000000000008152600401615e21929190618e70565b60405180910390fd5b819050919050565b5f615e3b613fb5565b90505f615e46613228565b91505083825f015f6101000a81548173ffffffffffffffffffffffffffffffffffffffff021916908373ffffffffffffffffffffffffffffffffffffffff16021790555082825f0160146101000a81548165ffffffffffff021916908365ffffffffffff160217905550615eb981613fdc565b15615eeb577f8886ebfc4259abdbc16601dd8fb5678e54878f47b3c34836cfc51154a960510960405160405180910390a15b50505050565b5f80615efb61304b565b90508065ffffffffffff168365ffffffffffff1611615f25578281615f209190618e97565b615f47565b615f468365ffffffffffff16615f39610fc5565b65ffffffffffff16616492565b5b915050919050565b615fcb848573ffffffffffffffffffffffffffffffffffffffff166323b872dd868686604051602401615f8493929190618ed0565b604051602081830303815290604052915060e01b6020820180517bffffffffffffffffffffffffffffffffffffffffffffffffffffffff8381831617835250505050616bda565b50505050565b5f7ff0c57e16840df040f15088dc2f81fe391c3923bec73e23a9662efc9c229c6a00905090565b616000616c75565b61600981616cb5565b50565b616014616c75565b61601e8282616d47565b5050565b61602a616c75565b616032616d83565b565b61603c616c75565b6160468282616da2565b5050565b616052616c75565b61606e816101e00160208101906160699190618f19565b616e5d565b61607b8160e00135614153565b6160888160c00135614201565b6160a381608001602081019061609e9190618f7f565b616f07565b6160b08160a00135616fe4565b6160cb8160600160208101906160c69190618fbe565b61710e565b6160d981610200013561716a565b6161167f4645455f4d414e41474552000000000000000000000000000000000000000000826101200160208101906161119190617af2565b615bf5565b506161547f53414e4354494f4e535f4d414e414745520000000000000000000000000000008261014001602081019061614f9190617af2565b615bf5565b506161927f434c41494d5f4d414e41474552000000000000000000000000000000000000008261016001602081019061618d9190617af2565b615bf5565b506161d07f5041555345520000000000000000000000000000000000000000000000000000826101800160208101906161cb9190617af2565b615bf5565b5061620e7f554e504155534552000000000000000000000000000000000000000000000000826101a00160208101906162099190617af2565b615bf5565b5050565b61621a616c75565b6162358160600160208101906162309190618051565b615541565b61625081604001602081019061624b91906181c1565b6156cb565b61626b8160200160208101906162669190617af2565b6171b4565b80602001602081019061627e9190617af2565b73ffffffffffffffffffffffffffffffffffffffff166357a5752482608001356040518263ffffffff1660e01b81526004016162ba91906175af565b5f604051808303815f87803b1580156162d1575f80fd5b505af11580156162e3573d5f803e3d5ffd5b505050508060200160208101906162fa9190617af2565b73ffffffffffffffffffffffffffffffffffffffff1663fc5ad4d18260a001356040518263ffffffff1660e01b815260040161633691906175af565b5f604051808303815f87803b15801561634d575f80fd5b505af115801561635f573d5f803e3d5ffd5b505050508060200160208101906163769190617af2565b73ffffffffffffffffffffffffffffffffffffffff16634bd43cdd82805f01906163a09190618fe9565b6163a86138a2565b6040518463ffffffff1660e01b81526004016163c6939291906188ac565b5f604051808303815f87803b1580156163dd575f80fd5b505af11580156163ef573d5f803e3d5ffd5b5050505061642f7f4645455f434f4c4c4543544f52000000000000000000000000000000000000008260e001602081019061642a9190617af2565b615bf5565b5061644b8160c00160208101906164469190618f7f565b616f07565b61648f616456611598565b8260200160208101906164699190617af2565b7fffffffffffffffffffffffffffffffffffffffffffffffffffffffffffffffff617292565b50565b5f6164a082841084846169c0565b905092915050565b616522838473ffffffffffffffffffffffffffffffffffffffff1663a9059cbb85856040516024016164db92919061904b565b604051602081830303815290604052915060e01b6020820180517bffffffffffffffffffffffffffffffffffffffffffffffffffffffff8381831617835250505050616bda565b505050565b60608261653c576165378261739f565b6165ac565b5f825114801561656257505f8473ffffffffffffffffffffffffffffffffffffffff163b145b156165a457836040517f9996b31500000000000000000000000000000000000000000000000000000000815260040161659b9190617ad9565b60405180910390fd5b8190506165ad565b5b9392505050565b5f6165bd613933565b90505f73ffffffffffffffffffffffffffffffffffffffff168473ffffffffffffffffffffffffffffffffffffffff16036166115781816002015f82825461660591906184ae565b925050819055506166e3565b5f815f015f8673ffffffffffffffffffffffffffffffffffffffff1673ffffffffffffffffffffffffffffffffffffffff1681526020019081526020015f205490508281101561669c578481846040517fe450d38c00000000000000000000000000000000000000000000000000000000815260040161669393929190618762565b60405180910390fd5b828103825f015f8773ffffffffffffffffffffffffffffffffffffffff1673ffffffffffffffffffffffffffffffffffffffff1681526020019081526020015f2081905550505b5f73ffffffffffffffffffffffffffffffffffffffff168373ffffffffffffffffffffffffffffffffffffffff160361672c5781816002015f8282540392505081905550616778565b81815f015f8573ffffffffffffffffffffffffffffffffffffffff1673ffffffffffffffffffffffffffffffffffffffff1681526020019081526020015f205f82825401925050819055505b8273ffffffffffffffffffffffffffffffffffffffff168473ffffffffffffffffffffffffffffffffffffffff167fddf252ad1be2c89b69c2b068fc378daa952ba7f163c4a11628f55a4df523b3ef846040516167d591906175af565b60405180910390a350505050565b5f6167ec613933565b90505f73ffffffffffffffffffffffffffffffffffffffff168573ffffffffffffffffffffffffffffffffffffffff160361685e575f6040517fe602df050000000000000000000000000000000000000000000000000000000081526004016168559190617ad9565b60405180910390fd5b5f73ffffffffffffffffffffffffffffffffffffffff168473ffffffffffffffffffffffffffffffffffffffff16036168ce575f6040517f94280d620000000000000000000000000000000000000000000000000000000081526004016168c59190617ad9565b60405180910390fd5b82816001015f8773ffffffffffffffffffffffffffffffffffffffff1673ffffffffffffffffffffffffffffffffffffffff1681526020019081526020015f205f8673ffffffffffffffffffffffffffffffffffffffff1673ffffffffffffffffffffffffffffffffffffffff1681526020019081526020015f208190555081156169b9578373ffffffffffffffffffffffffffffffffffffffff168573ffffffffffffffffffffffffffffffffffffffff167f8c5be1e5ebec7d5bd14f71427d1e84f3dd0314c0f7b2291e5b200ac8c7c3b925856040516169b091906175af565b60405180910390a35b5050505050565b5f6169ca8461582d565b82841802821890509392505050565b634e487b715f52806020526024601cfd5b5f806169f4613f45565b9050616a008484611f18565b616ad7576001815f015f8681526020019081526020015f205f015f8573ffffffffffffffffffffffffffffffffffffffff1673ffffffffffffffffffffffffffffffffffffffff1681526020019081526020015f205f6101000a81548160ff021916908315150217905550616a73613bd1565b73ffffffffffffffffffffffffffffffffffffffff168373ffffffffffffffffffffffffffffffffffffffff16857f2f8788117e7eff1d82e926ec794901d17c78024a50270940304540a733656f0d60405160405180910390a46001915050616adc565b5f9150505b92915050565b5f80616aec613f45565b9050616af88484611f18565b15616bcf575f815f015f8681526020019081526020015f205f015f8573ffffffffffffffffffffffffffffffffffffffff1673ffffffffffffffffffffffffffffffffffffffff1681526020019081526020015f205f6101000a81548160ff021916908315150217905550616b6b613bd1565b73ffffffffffffffffffffffffffffffffffffffff168373ffffffffffffffffffffffffffffffffffffffff16857ff6391f5c32d9c69d2a47ea670b442974b53935d1edc7fd64eb21e047a839171b60405160405180910390a46001915050616bd4565b5f9150505b92915050565b5f8060205f8451602086015f885af180616bf9576040513d5f823e3d81fd5b3d92505f519150505f8214616c12576001811415616c2d565b5f8473ffffffffffffffffffffffffffffffffffffffff163b145b15616c6f57836040517f5274afe7000000000000000000000000000000000000000000000000000000008152600401616c669190617ad9565b60405180910390fd5b50505050565b616c7d6173e3565b616cb3576040517fd7e6bcf800000000000000000000000000000000000000000000000000000000815260040160405180910390fd5b565b616cbd616c75565b5f616cc6613f8e565b90505f80616cd384617401565b9150915081616ce3576012616ce5565b805b835f0160146101000a81548160ff021916908360ff16021790555083835f015f6101000a81548173ffffffffffffffffffffffffffffffffffffffff021916908373ffffffffffffffffffffffffffffffffffffffff16021790555050505050565b616d4f616c75565b5f616d58613933565b905082816003019081616d6b9190619206565b5081816004019081616d7d9190619206565b50505050565b616d8b616c75565b5f616d946157a1565b90506001815f018190555050565b616daa616c75565b5f616db3613fb5565b90505f73ffffffffffffffffffffffffffffffffffffffff168273ffffffffffffffffffffffffffffffffffffffff1603616e25575f6040517fc22c8022000000000000000000000000000000000000000000000000000000008152600401616e1c9190617ad9565b60405180910390fd5b82815f01601a6101000a81548165ffffffffffff021916908365ffffffffffff160217905550616e575f801b83615bf5565b50505050565b601760ff168160ff161115616ea957806040517f34085536000000000000000000000000000000000000000000000000000000008152600401616ea09190617ab1565b60405180910390fd5b80616eb261387b565b60060160016101000a81548160ff021916908360ff1602179055507fcae26de0225f46c9b6b05447dde633b5ec259388f11315f1f36dfe6205ff72c981604051616efc9190617ab1565b60405180910390a150565b5f8173ffffffffffffffffffffffffffffffffffffffff163b03616f6257806040517f247e9701000000000000000000000000000000000000000000000000000000008152600401616f599190617ad9565b60405180910390fd5b80616f6b61387b565b5f015f6101000a81548173ffffffffffffffffffffffffffffffffffffffff021916908373ffffffffffffffffffffffffffffffffffffffff1602179055507f5f61862de0422698d021adb6e8b65fd7edf95fe9d5840b3ffce3f020f62a86e381604051616fd99190617f4b565b60405180910390a150565b5f616fed61387b565b9050805f015f9054906101000a900473ffffffffffffffffffffffffffffffffffffffff1673ffffffffffffffffffffffffffffffffffffffff1663da815abf836040518263ffffffff1660e01b815260040161704a91906176dd565b602060405180830381865afa158015617065573d5f803e3d5ffd5b505050506040513d601f19601f820116820180604052508101906170899190618737565b6170ca57816040517f1edd53280000000000000000000000000000000000000000000000000000000081526004016170c191906176dd565b60405180910390fd5b8181600101819055507f89ba13bd0c39f5657fbebb3c7cc5a7bb264dc1f030c56b275381bb7dd810eb5c8260405161710291906176dd565b60405180910390a15050565b8061711761387b565b6006015f6101000a81548160ff0219169083151502179055507f34d27d83cc2d5a6f14e25903bef0a84bf83160f3da4cc5a19dbb121be47c09938160405161715f9190617673565b60405180910390a150565b8061717361387b565b600501819055507f1f19296f2755837d126ad32268eb42dcf2a74bde8c16a97c93faba80aacc02d0816040516171a991906175af565b60405180910390a150565b5f8173ffffffffffffffffffffffffffffffffffffffff163b0361720f57806040517f247e97010000000000000000000000000000000000000000000000000000000081526004016172069190617ad9565b60405180910390fd5b8061721861387b565b6009015f6101000a81548173ffffffffffffffffffffffffffffffffffffffff021916908373ffffffffffffffffffffffffffffffffffffffff1602179055507f1450699f2cb9b7fe6ae310acee9a343cab23b4f3bd404e83bd371c017873d378816040516172879190617ad9565b60405180910390a150565b5f8373ffffffffffffffffffffffffffffffffffffffff1663095ea7b384846040516024016172c292919061904b565b604051602081830303815290604052915060e01b6020820180517bffffffffffffffffffffffffffffffffffffffffffffffffffffffff83818316178352505050509050617310848261750a565b6173995761738e848573ffffffffffffffffffffffffffffffffffffffff1663095ea7b3865f60405160240161734792919061930e565b604051602081830303815290604052915060e01b6020820180517bffffffffffffffffffffffffffffffffffffffffffffffffffffffff8381831617835250505050616bda565b6173988482616bda565b5b50505050565b5f815111156173b15780518082602001fd5b6040517fd6bda27500000000000000000000000000000000000000000000000000000000815260040160405180910390fd5b5f6173ec615fd1565b5f0160089054906101000a900460ff16905090565b5f805f808473ffffffffffffffffffffffffffffffffffffffff1660405160240160405160208183030381529060405263313ce56760e01b6020820180517bffffffffffffffffffffffffffffffffffffffffffffffffffffffff83818316178352505050506040516174749190618dca565b5f60405180830381855afa9150503d805f81146174ac576040519150601f19603f3d011682016040523d82523d5f602084013e6174b1565b606091505b50915091508180156174c557506020815110155b156174fc575f818060200190518101906174df9190618239565b905060ff801681116174fa5760018194509450505050617505565b505b5f809350935050505b915091565b5f805f8060205f8651602088015f8a5af192503d91505f51905082801561755857505f821461753c5760018114617557565b5f8673ffffffffffffffffffffffffffffffffffffffff163b115b5b935050505092915050565b60405180606001604052805f73ffffffffffffffffffffffffffffffffffffffff1681526020015f81526020015f81525090565b5f819050919050565b6175a981617597565b82525050565b5f6020820190506175c25f8301846175a0565b92915050565b5f604051905090565b5f80fd5b5f80fd5b5f7fffffffff0000000000000000000000000000000000000000000000000000000082169050919050565b61760d816175d9565b8114617617575f80fd5b50565b5f8135905061762881617604565b92915050565b5f60208284031215617643576176426175d1565b5b5f6176508482850161761a565b91505092915050565b5f8115159050919050565b61766d81617659565b82525050565b5f6020820190506176865f830184617664565b92915050565b5f65ffffffffffff82169050919050565b6176a68161768c565b82525050565b5f6020820190506176bf5f83018461769d565b92915050565b5f819050919050565b6176d7816176c5565b82525050565b5f6020820190506176f05f8301846176ce565b92915050565b5f81519050919050565b5f82825260208201905092915050565b5f5b8381101561772d578082015181840152602081019050617712565b5f8484015250505050565b5f601f19601f8301169050919050565b5f617752826176f6565b61775c8185617700565b935061776c818560208601617710565b61777581617738565b840191505092915050565b5f6020820190508181035f8301526177988184617748565b905092915050565b6177a981617597565b81146177b3575f80fd5b50565b5f813590506177c4816177a0565b92915050565b5f602082840312156177df576177de6175d1565b5b5f6177ec848285016177b6565b91505092915050565b5f73ffffffffffffffffffffffffffffffffffffffff82169050919050565b5f61781e826177f5565b9050919050565b61782e81617814565b8114617838575f80fd5b50565b5f8135905061784981617825565b92915050565b5f8060408385031215617865576178646175d1565b5b5f6178728582860161783b565b9250506020617883858286016177b6565b9150509250929050565b5f81519050919050565b5f82825260208201905092915050565b5f819050602082019050919050565b6178bf81617814565b82525050565b6178ce81617597565b82525050565b606082015f8201516178e85f8501826178b6565b5060208201516178fb60208501826178c5565b50604082015161790e60408501826178c5565b50505050565b5f61791f83836178d4565b60608301905092915050565b5f602082019050919050565b5f6179418261788d565b61794b8185617897565b9350617956836178a7565b805f5b8381101561798657815161796d8882617914565b97506179788361792b565b925050600181019050617959565b5085935050505092915050565b5f6020820190508181035f8301526179ab8184617937565b905092915050565b5f805f606084860312156179ca576179c96175d1565b5b5f6179d78682870161783b565b93505060206179e88682870161783b565b92505060406179f9868287016177b6565b9150509250925092565b617a0c816176c5565b8114617a16575f80fd5b50565b5f81359050617a2781617a03565b92915050565b5f60208284031215617a4257617a416175d1565b5b5f617a4f84828501617a19565b91505092915050565b5f8060408385031215617a6e57617a6d6175d1565b5b5f617a7b85828601617a19565b9250506020617a8c8582860161783b565b9150509250929050565b5f60ff82169050919050565b617aab81617a96565b82525050565b5f602082019050617ac45f830184617aa2565b92915050565b617ad381617814565b82525050565b5f602082019050617aec5f830184617aca565b92915050565b5f60208284031215617b0757617b066175d1565b5b5f617b148482850161783b565b91505092915050565b617b268161768c565b8114617b30575f80fd5b50565b5f81359050617b4181617b1d565b92915050565b5f60208284031215617b5c57617b5b6175d1565b5b5f617b6984828501617b33565b91505092915050565b5f8060408385031215617b8857617b876175d1565b5b5f617b95858286016177b6565b9250506020617ba68582860161783b565b9150509250929050565b5f80fd5b5f6102208284031215617bca57617bc9617bb0565b5b81905092915050565b5f6101008284031215617be957617be8617bb0565b5b81905092915050565b5f8060408385031215617c0857617c076175d1565b5b5f83013567ffffffffffffffff811115617c2557617c246175d5565b5b617c3185828601617bb4565b925050602083013567ffffffffffffffff811115617c5257617c516175d5565b5b617c5e85828601617bd3565b9150509250929050565b5f80fd5b5f80fd5b5f80fd5b5f8083601f840112617c8957617c88617c68565b5b8235905067ffffffffffffffff811115617ca657617ca5617c6c565b5b602083019150836060820283011115617cc257617cc1617c70565b5b9250929050565b5f8060208385031215617cdf57617cde6175d1565b5b5f83013567ffffffffffffffff811115617cfc57617cfb6175d5565b5b617d0885828601617c74565b92509250509250929050565b5f819050919050565b5f617d37617d32617d2d846177f5565b617d14565b6177f5565b9050919050565b5f617d4882617d1d565b9050919050565b5f617d5982617d3e565b9050919050565b617d6981617d4f565b82525050565b5f602082019050617d825f830184617d60565b92915050565b5f60208284031215617d9d57617d9c6175d1565b5b5f82013567ffffffffffffffff811115617dba57617db96175d5565b5b617dc684828501617bd3565b91505092915050565b5f604082019050617de25f83018561769d565b617def602083018461769d565b9392505050565b606082015f820151617e0a5f8501826178b6565b506020820151617e1d60208501826178c5565b506040820151617e3060408501826178c5565b50505050565b5f606082019050617e495f830184617df6565b92915050565b7f4e487b71000000000000000000000000000000000000000000000000000000005f52602160045260245ffd5b60038110617e8d57617e8c617e4f565b5b50565b5f819050617e9d82617e7c565b919050565b5f617eac82617e90565b9050919050565b617ebc81617ea2565b82525050565b5f602082019050617ed55f830184617eb3565b92915050565b5f805f60608486031215617ef257617ef16175d1565b5b5f617eff868287016177b6565b9350506020617f108682870161783b565b9250506040617f218682870161783b565b9150509250925092565b5f617f3582617d3e565b9050919050565b617f4581617f2b565b82525050565b5f602082019050617f5e5f830184617f3c565b92915050565b5f8083601f840112617f7957617f78617c68565b5b8235905067ffffffffffffffff811115617f9657617f95617c6c565b5b602083019150836001820283011115617fb257617fb1617c70565b5b9250929050565b5f805f60408486031215617fd057617fcf6175d1565b5b5f617fdd8682870161783b565b935050602084013567ffffffffffffffff811115617ffe57617ffd6175d5565b5b61800a86828701617f64565b92509250509250925092565b5f61802082617814565b9050919050565b61803081618016565b811461803a575f80fd5b50565b5f8135905061804b81618027565b92915050565b5f60208284031215618066576180656175d1565b5b5f6180738482850161803d565b91505092915050565b5f60408201905061808f5f830185617aca565b61809c602083018461769d565b9392505050565b5f80604083850312156180b9576180b86175d1565b5b5f6180c68582860161783b565b92505060206180d78582860161783b565b9150509250929050565b5f80602083850312156180f7576180f66175d1565b5b5f83013567ffffffffffffffff811115618114576181136175d5565b5b61812085828601617f64565b92509250509250929050565b5f81519050919050565b5f82825260208201905092915050565b5f6181508261812c565b61815a8185618136565b935061816a818560208601617710565b61817381617738565b840191505092915050565b5f6020820190508181035f8301526181968184618146565b905092915050565b600381106181aa575f80fd5b50565b5f813590506181bb8161819e565b92915050565b5f602082840312156181d6576181d56175d1565b5b5f6181e3848285016181ad565b91505092915050565b5f6181f682617d3e565b9050919050565b618206816181ec565b82525050565b5f60208201905061821f5f8301846181fd565b92915050565b5f81519050618233816177a0565b92915050565b5f6020828403121561824e5761824d6175d1565b5b5f61825b84828501618225565b91505092915050565b5f61826e82617d3e565b9050919050565b61827e81618264565b82525050565b5f6040820190506182975f830185618275565b6182a46020830184617aa2565b9392505050565b7f4e487b71000000000000000000000000000000000000000000000000000000005f52602260045260245ffd5b5f60028204905060018216806182ef57607f821691505b602082108103618302576183016182ab565b5b50919050565b7f4e487b71000000000000000000000000000000000000000000000000000000005f52601160045260245ffd5b5f8160011c9050919050565b5f808291508390505b600185111561838a5780860481111561836657618365618308565b5b60018516156183755780820291505b808102905061838385618335565b945061834a565b94509492505050565b5f826183a2576001905061845d565b816183af575f905061845d565b81600181146183c557600281146183cf576183fe565b600191505061845d565b60ff8411156183e1576183e0618308565b5b8360020a9150848211156183f8576183f7618308565b5b5061845d565b5060208310610133831016604e8410600b84101617156184335782820a90508381111561842e5761842d618308565b5b61845d565b6184408484846001618341565b9250905081840481111561845757618456618308565b5b81810290505b9392505050565b5f61846e82617597565b915061847983617a96565b92506184a67fffffffffffffffffffffffffffffffffffffffffffffffffffffffffffffffff8484618393565b905092915050565b5f6184b882617597565b91506184c383617597565b92508282019050808211156184db576184da618308565b5b92915050565b7f4e487b71000000000000000000000000000000000000000000000000000000005f52604160045260245ffd5b61851782617738565b810181811067ffffffffffffffff82111715618536576185356184e1565b5b80604052505050565b5f6185486175c8565b9050618554828261850e565b919050565b5f67ffffffffffffffff821115618573576185726184e1565b5b602082029050602081019050919050565b5f80fd5b5f8151905061859681617825565b92915050565b5f606082840312156185b1576185b0618584565b5b6185bb606061853f565b90505f6185ca84828501618588565b5f8301525060206185dd84828501618225565b60208301525060406185f184828501618225565b60408301525092915050565b5f61860f61860a84618559565b61853f565b9050808382526020820190506060840283018581111561863257618631617c70565b5b835b8181101561865b5780618647888261859c565b845260208401935050606081019050618634565b5050509392505050565b5f82601f83011261867957618678617c68565b5b81516186898482602086016185fd565b91505092915050565b5f602082840312156186a7576186a66175d1565b5b5f82015167ffffffffffffffff8111156186c4576186c36175d5565b5b6186d084828501618665565b91505092915050565b5f6186e382617a96565b91506186ee83617a96565b9250828201905060ff81111561870757618706618308565b5b92915050565b61871681617659565b8114618720575f80fd5b50565b5f815190506187318161870d565b92915050565b5f6020828403121561874c5761874b6175d1565b5b5f61875984828501618723565b91505092915050565b5f6060820190506187755f830186617aca565b61878260208301856175a0565b61878f60408301846175a0565b949350505050565b5f819050919050565b5f6187ae602084018461783b565b905092915050565b5f6187c460208401846177b6565b905092915050565b606082016187dc5f8301836187a0565b6187e85f8501826178b6565b506187f660208301836187b6565b61880360208501826178c5565b5061881160408301836187b6565b61881e60408501826178c5565b50505050565b5f61882f83836187cc565b60608301905092915050565b5f82905092915050565b5f606082019050919050565b5f61885c8385617897565b935061886782618797565b805f5b8581101561889f5761887c828461883b565b6188868882618824565b975061889183618845565b92505060018101905061886a565b5085925050509392505050565b5f6040820190508181035f8301526188c5818587618851565b90506188d46020830184617aa2565b949350505050565b5f602082840312156188f1576188f06175d1565b5b5f6188fe84828501618588565b91505092915050565b5f60408201905061891a5f830185618275565b61892760208301846175a0565b9392505050565b5f61893882617597565b915061894383617597565b925082820390508181111561895b5761895a618308565b5b92915050565b5f60608284031215618976576189756175d1565b5b5f6189838482850161859c565b91505092915050565b828183375f83830152505050565b5f6189a58385618136565b93506189b283858461898c565b6189bb83617738565b840190509392505050565b5f6060820190506189d95f830187618275565b6189e66020830186618275565b81810360408301526189f981848661899a565b905095945050505050565b5f604082019050618a175f8301856175a0565b618a2460208301846175a0565b9392505050565b618a3481617a96565b8114618a3e575f80fd5b50565b5f81519050618a4f81618a2b565b92915050565b5f60208284031215618a6a57618a696175d1565b5b5f618a7784828501618a41565b91505092915050565b5f604082019050618a935f8301856176ce565b618aa06020830184617aca565b9392505050565b5f618ab182617597565b9150618abc83617597565b9250828202618aca81617597565b91508282048414831517618ae157618ae0618308565b5b5092915050565b7f4e487b71000000000000000000000000000000000000000000000000000000005f52601260045260245ffd5b5f618b1f82617597565b9150618b2a83617597565b925082618b3a57618b39618ae8565b5b828206905092915050565b5f602082019050618b585f830184618275565b92915050565b5f618b688261768c565b9150618b738361768c565b9250828201905065ffffffffffff811115618b9157618b90618308565b5b92915050565b5f618ba182617814565b9050919050565b618bb181618b97565b8114618bbb575f80fd5b50565b5f81359050618bcc81618ba8565b92915050565b5f60208284031215618be757618be66175d1565b5b5f618bf484828501618bbe565b91505092915050565b5f80fd5b5f80fd5b5f80fd5b5f8083356001602003843603038112618c2557618c24618bfd565b5b80840192508235915067ffffffffffffffff821115618c4757618c46618c01565b5b602083019250600182023603831315618c6357618c62618c05565b5b509250929050565b5f618c768385617700565b9350618c8383858461898c565b618c8c83617738565b840190509392505050565b5f6020820190508181035f830152618cb0818486618c6b565b90509392505050565b5f819050919050565b5f67ffffffffffffffff82169050919050565b5f618cef618cea618ce584618cb9565b617d14565b618cc2565b9050919050565b618cff81618cd5565b82525050565b5f602082019050618d185f830184618cf6565b92915050565b618d2781618cc2565b82525050565b5f602082019050618d405f830184618d1e565b92915050565b5f618d5082617597565b9150618d5b83617597565b9250618d887fffffffffffffffffffffffffffffffffffffffffffffffffffffffffffffffff8484618393565b905092915050565b5f81905092915050565b5f618da48261812c565b618dae8185618d90565b9350618dbe818560208601617710565b80840191505092915050565b5f618dd58284618d9a565b915081905092915050565b5f618dea82617a96565b9150618df583617a96565b925082618e0557618e04618ae8565b5b828206905092915050565b5f604082019050618e235f830185617aca565b618e3060208301846176ce565b9392505050565b5f819050919050565b5f618e5a618e55618e5084618e37565b617d14565b617a96565b9050919050565b618e6a81618e40565b82525050565b5f604082019050618e835f830185618e61565b618e9060208301846175a0565b9392505050565b5f618ea18261768c565b9150618eac8361768c565b9250828203905065ffffffffffff811115618eca57618ec9618308565b5b92915050565b5f606082019050618ee35f830186617aca565b618ef06020830185617aca565b618efd60408301846175a0565b949350505050565b5f81359050618f1381618a2b565b92915050565b5f60208284031215618f2e57618f2d6175d1565b5b5f618f3b84828501618f05565b91505092915050565b5f618f4e82617814565b9050919050565b618f5e81618f44565b8114618f68575f80fd5b50565b5f81359050618f7981618f55565b92915050565b5f60208284031215618f9457618f936175d1565b5b5f618fa184828501618f6b565b91505092915050565b5f81359050618fb88161870d565b92915050565b5f60208284031215618fd357618fd26175d1565b5b5f618fe084828501618faa565b91505092915050565b5f808335600160200384360303811261900557619004618bfd565b5b80840192508235915067ffffffffffffffff82111561902757619026618c01565b5b60208301925060608202360383131561904357619042618c05565b5b509250929050565b5f60408201905061905e5f830185617aca565b61906b60208301846175a0565b9392505050565b5f819050815f5260205f209050919050565b5f6020601f8301049050919050565b5f82821b905092915050565b5f600883026190ce7fffffffffffffffffffffffffffffffffffffffffffffffffffffffffffffffff82619093565b6190d88683619093565b95508019841693508086168417925050509392505050565b5f61910a61910561910084617597565b617d14565b617597565b9050919050565b5f819050919050565b619123836190f0565b61913761912f82619111565b84845461909f565b825550505050565b5f90565b61914b61913f565b61915681848461911a565b505050565b5b818110156191795761916e5f82619143565b60018101905061915c565b5050565b601f8211156191be5761918f81619072565b61919884619084565b810160208510156191a7578190505b6191bb6191b385619084565b83018261915b565b50505b505050565b5f82821c905092915050565b5f6191de5f19846008026191c3565b1980831691505092915050565b5f6191f683836191cf565b9150826002028217905092915050565b61920f826176f6565b67ffffffffffffffff811115619228576192276184e1565b5b61923282546182d8565b61923d82828561917d565b5f60209050601f83116001811461926e575f841561925c578287015190505b61926685826191eb565b8655506192cd565b601f19841661927c86619072565b5f5b828110156192a35784890151825560018201915060208501945060208101905061927e565b868310156192c057848901516192bc601f8916826191cf565b8355505b6001600288020188555050505b505050505050565b5f819050919050565b5f6192f86192f36192ee846192d5565b617d14565b617597565b9050919050565b619308816192de565b82525050565b5f6040820190506193215f830185617aca565b61932e60208301846192ff565b939250505056fea264697066735822122054e66fd03d496b60c5a2eb395062ea3c80592fe57e794dcc1f1a5a5dcc5f13a364736f6c63430008160033",
			"opcodes": "PUSH1 0xE0 PUSH1 0x40 MSTORE ADDRESS PUSH20 0xFFFFFFFFFFFFFFFFFFFFFFFFFFFFFFFFFFFFFFFF AND PUSH1 0x80 SWAP1 PUSH20 0xFFFFFFFFFFFFFFFFFFFFFFFFFFFFFFFFFFFFFFFF AND DUP2 MSTORE POP CALLVALUE DUP1 ISZERO PUSH3 0x43 JUMPI PUSH0 DUP1 REVERT JUMPDEST POP PUSH1 0x40 MLOAD PUSH3 0x952B CODESIZE SUB DUP1 PUSH3 0x952B DUP4 CODECOPY DUP2 DUP2 ADD PUSH1 0x40 MSTORE DUP2 ADD SWAP1 PUSH3 0x69 SWAP2 SWAP1 PUSH3 0x13E JUMP JUMPDEST DUP2 PUSH20 0xFFFFFFFFFFFFFFFFFFFFFFFFFFFFFFFFFFFFFFFF AND PUSH1 0xA0 DUP2 PUSH20 0xFFFFFFFFFFFFFFFFFFFFFFFFFFFFFFFFFFFFFFFF AND DUP2 MSTORE POP POP DUP1 PUSH20 0xFFFFFFFFFFFFFFFFFFFFFFFFFFFFFFFFFFFFFFFF AND PUSH1 0xC0 DUP2 PUSH20 0xFFFFFFFFFFFFFFFFFFFFFFFFFFFFFFFFFFFFFFFF AND DUP2 MSTORE POP POP POP POP PUSH3 0x183 JUMP JUMPDEST PUSH0 DUP1 REVERT JUMPDEST PUSH0 PUSH20 0xFFFFFFFFFFFFFFFFFFFFFFFFFFFFFFFFFFFFFFFF DUP3 AND SWAP1 POP SWAP2 SWAP1 POP JUMP JUMPDEST PUSH0 PUSH3 0x108 DUP3 PUSH3 0xDD JUMP JUMPDEST SWAP1 POP SWAP2 SWAP1 POP JUMP JUMPDEST PUSH3 0x11A DUP2 PUSH3 0xFC JUMP JUMPDEST DUP2 EQ PUSH3 0x125 JUMPI PUSH0 DUP1 REVERT JUMPDEST POP JUMP JUMPDEST PUSH0 DUP2 MLOAD SWAP1 POP PUSH3 0x138 DUP2 PUSH3 0x10F JUMP JUMPDEST SWAP3 SWAP2 POP POP JUMP JUMPDEST PUSH0 DUP1 PUSH1 0x40 DUP4 DUP6 SUB SLT ISZERO PUSH3 0x157 JUMPI PUSH3 0x156 PUSH3 0xD9 JUMP JUMPDEST JUMPDEST PUSH0 PUSH3 0x166 DUP6 DUP3 DUP7 ADD PUSH3 0x128 JUMP JUMPDEST SWAP3 POP POP PUSH1 0x20 PUSH3 0x179 DUP6 DUP3 DUP7 ADD PUSH3 0x128 JUMP JUMPDEST SWAP2 POP POP SWAP3 POP SWAP3 SWAP1 POP JUMP JUMPDEST PUSH1 0x80 MLOAD PUSH1 0xA0 MLOAD PUSH1 0xC0 MLOAD PUSH2 0x936B PUSH3 0x1C0 PUSH0 CODECOPY PUSH0 DUP2 DUP2 PUSH2 0x33AE ADD MSTORE DUP2 DUP2 PUSH2 0x35EC ADD MSTORE PUSH2 0x480A ADD MSTORE PUSH0 DUP2 DUP2 PUSH2 0x3A13 ADD MSTORE PUSH2 0x3ADC ADD MSTORE PUSH0 POP POP PUSH2 0x936B PUSH0 RETURN INVALID PUSH1 0x80 PUSH1 0x40 MSTORE CALLVALUE DUP1 ISZERO PUSH2 0xF JUMPI PUSH0 DUP1 REVERT JUMPDEST POP PUSH1 0x4 CALLDATASIZE LT PUSH2 0x468 JUMPI PUSH0 CALLDATALOAD PUSH1 0xE0 SHR DUP1 PUSH4 0x8B424267 GT PUSH2 0x24A JUMPI DUP1 PUSH4 0xC63D75B6 GT PUSH2 0x144 JUMPI DUP1 PUSH4 0xD602B9FD GT PUSH2 0xC1 JUMPI DUP1 PUSH4 0xE63AB1E9 GT PUSH2 0x85 JUMPI DUP1 PUSH4 0xE63AB1E9 EQ PUSH2 0xE08 JUMPI DUP1 PUSH4 0xEF8B30F7 EQ PUSH2 0xE26 JUMPI DUP1 PUSH4 0xF8892D96 EQ PUSH2 0xE56 JUMPI DUP1 PUSH4 0xFA7C4568 EQ PUSH2 0xE86 JUMPI DUP1 PUSH4 0xFB1BB9DE EQ PUSH2 0xEA2 JUMPI PUSH2 0x468 JUMP JUMPDEST DUP1 PUSH4 0xD602B9FD EQ PUSH2 0xD50 JUMPI DUP1 PUSH4 0xD78162E9 EQ PUSH2 0xD5A JUMPI DUP1 PUSH4 0xD8A06F73 EQ PUSH2 0xD8A JUMPI DUP1 PUSH4 0xD905777E EQ PUSH2 0xDA8 JUMPI DUP1 PUSH4 0xDD62ED3E EQ PUSH2 0xDD8 JUMPI PUSH2 0x468 JUMP JUMPDEST DUP1 PUSH4 0xCE96CB77 GT PUSH2 0x108 JUMPI DUP1 PUSH4 0xCE96CB77 EQ PUSH2 0xCBD JUMPI DUP1 PUSH4 0xCEFC1429 EQ PUSH2 0xCED JUMPI DUP1 PUSH4 0xCF6EEFB7 EQ PUSH2 0xCF7 JUMPI DUP1 PUSH4 0xD1FCB506 EQ PUSH2 0xD16 JUMPI DUP1 PUSH4 0xD547741F EQ PUSH2 0xD34 JUMPI PUSH2 0x468 JUMP JUMPDEST DUP1 PUSH4 0xC63D75B6 EQ PUSH2 0xC05 JUMPI DUP1 PUSH4 0xC6E6F592 EQ PUSH2 0xC35 JUMPI DUP1 PUSH4 0xC76B5F5F EQ PUSH2 0xC65 JUMPI DUP1 PUSH4 0xC9581137 EQ PUSH2 0xC81 JUMPI DUP1 PUSH4 0xCC8463C8 EQ PUSH2 0xC9F JUMPI PUSH2 0x468 JUMP JUMPDEST DUP1 PUSH4 0xA50B3451 GT PUSH2 0x1D2 JUMPI DUP1 PUSH4 0xB3D7F6B9 GT PUSH2 0x196 JUMPI DUP1 PUSH4 0xB3D7F6B9 EQ PUSH2 0xB3B JUMPI DUP1 PUSH4 0xB460AF94 EQ PUSH2 0xB6B JUMPI DUP1 PUSH4 0xB53C86D2 EQ PUSH2 0xB9B JUMPI DUP1 PUSH4 0xBA087652 EQ PUSH2 0xBB9 JUMPI DUP1 PUSH4 0xC37952CB EQ PUSH2 0xBE9 JUMPI PUSH2 0x468 JUMP JUMPDEST DUP1 PUSH4 0xA50B3451 EQ PUSH2 0xA95 JUMPI DUP1 PUSH4 0xA7B09122 EQ PUSH2 0xA9F JUMPI DUP1 PUSH4 0xA87A50DC EQ PUSH2 0xACF JUMPI DUP1 PUSH4 0xA9059CBB EQ PUSH2 0xAED JUMPI DUP1 PUSH4 0xAA9FF5D8 EQ PUSH2 0xB1D JUMPI PUSH2 0x468 JUMP JUMPDEST DUP1 PUSH4 0x94BF804D GT PUSH2 0x219 JUMPI DUP1 PUSH4 0x94BF804D EQ PUSH2 0x9EE JUMPI DUP1 PUSH4 0x95336F8D EQ PUSH2 0xA1E JUMPI DUP1 PUSH4 0x95D89B41 EQ PUSH2 0xA3A JUMPI DUP1 PUSH4 0xA1EDA53C EQ PUSH2 0xA58 JUMPI DUP1 PUSH4 0xA217FDDF EQ PUSH2 0xA77 JUMPI PUSH2 0x468 JUMP JUMPDEST DUP1 PUSH4 0x8B424267 EQ PUSH2 0x964 JUMPI DUP1 PUSH4 0x8DA5CB5B EQ PUSH2 0x982 JUMPI DUP1 PUSH4 0x91D14854 EQ PUSH2 0x9A0 JUMPI DUP1 PUSH4 0x92FF0D31 EQ PUSH2 0x9D0 JUMPI PUSH2 0x468 JUMP JUMPDEST DUP1 PUSH4 0x402D267D GT PUSH2 0x366 JUMPI DUP1 PUSH4 0x69026E88 GT PUSH2 0x2E3 JUMPI DUP1 PUSH4 0x72C16A24 GT PUSH2 0x2A7 JUMPI DUP1 PUSH4 0x72C16A24 EQ PUSH2 0x8BC JUMPI DUP1 PUSH4 0x7C10C835 EQ PUSH2 0x8DA JUMPI DUP1 PUSH4 0x7D7E8D98 EQ PUSH2 0x8F8 JUMPI DUP1 PUSH4 0x84EF8FFC EQ PUSH2 0x916 JUMPI DUP1 PUSH4 0x882F3E16 EQ PUSH2 0x934 JUMPI PUSH2 0x468 JUMP JUMPDEST DUP1 PUSH4 0x69026E88 EQ PUSH2 0x81A JUMPI DUP1 PUSH4 0x6E553F65 EQ PUSH2 0x824 JUMPI DUP1 PUSH4 0x70A08231 EQ PUSH2 0x854 JUMPI DUP1 PUSH4 0x71569914 EQ PUSH2 0x884 JUMPI DUP1 PUSH4 0x71C99619 EQ PUSH2 0x8A0 JUMPI PUSH2 0x468 JUMP JUMPDEST DUP1 PUSH4 0x607985FC GT PUSH2 0x32A JUMPI DUP1 PUSH4 0x607985FC EQ PUSH2 0x788 JUMPI DUP1 PUSH4 0x62A2A47C EQ PUSH2 0x7A6 JUMPI DUP1 PUSH4 0x634E93DA EQ PUSH2 0x7C4 JUMPI DUP1 PUSH4 0x649A5EC7 EQ PUSH2 0x7E0 JUMPI DUP1 PUSH4 0x67A52793 EQ PUSH2 0x7FC JUMPI PUSH2 0x468 JUMP JUMPDEST DUP1 PUSH4 0x402D267D EQ PUSH2 0x6E6 JUMPI DUP1 PUSH4 0x41A2AC70 EQ PUSH2 0x716 JUMPI DUP1 PUSH4 0x490AE210 EQ PUSH2 0x732 JUMPI DUP1 PUSH4 0x4CDAD506 EQ PUSH2 0x74E JUMPI DUP1 PUSH4 0x5157CED5 EQ PUSH2 0x77E JUMPI PUSH2 0x468 JUMP JUMPDEST DUP1 PUSH4 0xAA6220B GT PUSH2 0x3F4 JUMPI DUP1 PUSH4 0x2C15E0F7 GT PUSH2 0x3B8 JUMPI DUP1 PUSH4 0x2C15E0F7 EQ PUSH2 0x654 JUMPI DUP1 PUSH4 0x2F2FF15D EQ PUSH2 0x672 JUMPI DUP1 PUSH4 0x313CE567 EQ PUSH2 0x68E JUMPI DUP1 PUSH4 0x36568ABE EQ PUSH2 0x6AC JUMPI DUP1 PUSH4 0x38D52E0F EQ PUSH2 0x6C8 JUMPI PUSH2 0x468 JUMP JUMPDEST DUP1 PUSH4 0xAA6220B EQ PUSH2 0x5AE JUMPI DUP1 PUSH4 0xADFDCB9 EQ PUSH2 0x5B8 JUMPI DUP1 PUSH4 0x18160DDD EQ PUSH2 0x5D6 JUMPI DUP1 PUSH4 0x23B872DD EQ PUSH2 0x5F4 JUMPI DUP1 PUSH4 0x248A9CA3 EQ PUSH2 0x624 JUMPI PUSH2 0x468 JUMP JUMPDEST DUP1 PUSH4 0x5DB2F41 GT PUSH2 0x43B JUMPI DUP1 PUSH4 0x5DB2F41 EQ PUSH2 0x4E2 JUMPI DUP1 PUSH4 0x6FDDE03 EQ PUSH2 0x500 JUMPI DUP1 PUSH4 0x7A2D13A EQ PUSH2 0x51E JUMPI DUP1 PUSH4 0x95EA7B3 EQ PUSH2 0x54E JUMPI DUP1 PUSH4 0xA28A477 EQ PUSH2 0x57E JUMPI PUSH2 0x468 JUMP JUMPDEST DUP1 PUSH4 0x1E1D114 EQ PUSH2 0x46C JUMPI DUP1 PUSH4 0x1FFC9A7 EQ PUSH2 0x48A JUMPI DUP1 PUSH4 0x22D63FB EQ PUSH2 0x4BA JUMPI DUP1 PUSH4 0x4FA1DB2 EQ PUSH2 0x4D8 JUMPI JUMPDEST PUSH0 DUP1 REVERT JUMPDEST PUSH2 0x474 PUSH2 0xEC0 JUMP JUMPDEST PUSH1 0x40 MLOAD PUSH2 0x481 SWAP2 SWAP1 PUSH2 0x75AF JUMP JUMPDEST PUSH1 0x40 MLOAD DUP1 SWAP2 SUB SWAP1 RETURN JUMPDEST PUSH2 0x4A4 PUSH1 0x4 DUP1 CALLDATASIZE SUB DUP2 ADD SWAP1 PUSH2 0x49F SWAP2 SWAP1 PUSH2 0x762E JUMP JUMPDEST PUSH2 0xF4C JUMP JUMPDEST PUSH1 0x40 MLOAD PUSH2 0x4B1 SWAP2 SWAP1 PUSH2 0x7673 JUMP JUMPDEST PUSH1 0x40 MLOAD DUP1 SWAP2 SUB SWAP1 RETURN JUMPDEST PUSH2 0x4C2 PUSH2 0xFC5 JUMP JUMPDEST PUSH1 0x40 MLOAD PUSH2 0x4CF SWAP2 SWAP1 PUSH2 0x76AC JUMP JUMPDEST PUSH1 0x40 MLOAD DUP1 SWAP2 SUB SWAP1 RETURN JUMPDEST PUSH2 0x4E0 PUSH2 0xFCF JUMP JUMPDEST STOP JUMPDEST PUSH2 0x4EA PUSH2 0x1086 JUMP JUMPDEST PUSH1 0x40 MLOAD PUSH2 0x4F7 SWAP2 SWAP1 PUSH2 0x76DD JUMP JUMPDEST PUSH1 0x40 MLOAD DUP1 SWAP2 SUB SWAP1 RETURN JUMPDEST PUSH2 0x508 PUSH2 0x10AA JUMP JUMPDEST PUSH1 0x40 MLOAD PUSH2 0x515 SWAP2 SWAP1 PUSH2 0x7780 JUMP JUMPDEST PUSH1 0x40 MLOAD DUP1 SWAP2 SUB SWAP1 RETURN JUMPDEST PUSH2 0x538 PUSH1 0x4 DUP1 CALLDATASIZE SUB DUP2 ADD SWAP1 PUSH2 0x533 SWAP2 SWAP1 PUSH2 0x77CA JUMP JUMPDEST PUSH2 0x1148 JUMP JUMPDEST PUSH1 0x40 MLOAD PUSH2 0x545 SWAP2 SWAP1 PUSH2 0x75AF JUMP JUMPDEST PUSH1 0x40 MLOAD DUP1 SWAP2 SUB SWAP1 RETURN JUMPDEST PUSH2 0x568 PUSH1 0x4 DUP1 CALLDATASIZE SUB DUP2 ADD SWAP1 PUSH2 0x563 SWAP2 SWAP1 PUSH2 0x784F JUMP JUMPDEST PUSH2 0x115A JUMP JUMPDEST PUSH1 0x40 MLOAD PUSH2 0x575 SWAP2 SWAP1 PUSH2 0x7673 JUMP JUMPDEST PUSH1 0x40 MLOAD DUP1 SWAP2 SUB SWAP1 RETURN JUMPDEST PUSH2 0x598 PUSH1 0x4 DUP1 CALLDATASIZE SUB DUP2 ADD SWAP1 PUSH2 0x593 SWAP2 SWAP1 PUSH2 0x77CA JUMP JUMPDEST PUSH2 0x1195 JUMP JUMPDEST PUSH1 0x40 MLOAD PUSH2 0x5A5 SWAP2 SWAP1 PUSH2 0x75AF JUMP JUMPDEST PUSH1 0x40 MLOAD DUP1 SWAP2 SUB SWAP1 RETURN JUMPDEST PUSH2 0x5B6 PUSH2 0x1209 JUMP JUMPDEST STOP JUMPDEST PUSH2 0x5C0 PUSH2 0x1220 JUMP JUMPDEST PUSH1 0x40 MLOAD PUSH2 0x5CD SWAP2 SWAP1 PUSH2 0x7993 JUMP JUMPDEST PUSH1 0x40 MLOAD DUP1 SWAP2 SUB SWAP1 RETURN JUMPDEST PUSH2 0x5DE PUSH2 0x12C1 JUMP JUMPDEST PUSH1 0x40 MLOAD PUSH2 0x5EB SWAP2 SWAP1 PUSH2 0x75AF JUMP JUMPDEST PUSH1 0x40 MLOAD DUP1 SWAP2 SUB SWAP1 RETURN JUMPDEST PUSH2 0x60E PUSH1 0x4 DUP1 CALLDATASIZE SUB DUP2 ADD SWAP1 PUSH2 0x609 SWAP2 SWAP1 PUSH2 0x79B3 JUMP JUMPDEST PUSH2 0x12D8 JUMP JUMPDEST PUSH1 0x40 MLOAD PUSH2 0x61B SWAP2 SWAP1 PUSH2 0x7673 JUMP JUMPDEST PUSH1 0x40 MLOAD DUP1 SWAP2 SUB SWAP1 RETURN JUMPDEST PUSH2 0x63E PUSH1 0x4 DUP1 CALLDATASIZE SUB DUP2 ADD SWAP1 PUSH2 0x639 SWAP2 SWAP1 PUSH2 0x7A2D JUMP JUMPDEST PUSH2 0x1334 JUMP JUMPDEST PUSH1 0x40 MLOAD PUSH2 0x64B SWAP2 SWAP1 PUSH2 0x76DD JUMP JUMPDEST PUSH1 0x40 MLOAD DUP1 SWAP2 SUB SWAP1 RETURN JUMPDEST PUSH2 0x65C PUSH2 0x135E JUMP JUMPDEST PUSH1 0x40 MLOAD PUSH2 0x669 SWAP2 SWAP1 PUSH2 0x75AF JUMP JUMPDEST PUSH1 0x40 MLOAD DUP1 SWAP2 SUB SWAP1 RETURN JUMPDEST PUSH2 0x68C PUSH1 0x4 DUP1 CALLDATASIZE SUB DUP2 ADD SWAP1 PUSH2 0x687 SWAP2 SWAP1 PUSH2 0x7A58 JUMP JUMPDEST PUSH2 0x13FB JUMP JUMPDEST STOP JUMPDEST PUSH2 0x696 PUSH2 0x1444 JUMP JUMPDEST PUSH1 0x40 MLOAD PUSH2 0x6A3 SWAP2 SWAP1 PUSH2 0x7AB1 JUMP JUMPDEST PUSH1 0x40 MLOAD DUP1 SWAP2 SUB SWAP1 RETURN JUMPDEST PUSH2 0x6C6 PUSH1 0x4 DUP1 CALLDATASIZE SUB DUP2 ADD SWAP1 PUSH2 0x6C1 SWAP2 SWAP1 PUSH2 0x7A58 JUMP JUMPDEST PUSH2 0x1479 JUMP JUMPDEST STOP JUMPDEST PUSH2 0x6D0 PUSH2 0x1598 JUMP JUMPDEST PUSH1 0x40 MLOAD PUSH2 0x6DD SWAP2 SWAP1 PUSH2 0x7AD9 JUMP JUMPDEST PUSH1 0x40 MLOAD DUP1 SWAP2 SUB SWAP1 RETURN JUMPDEST PUSH2 0x700 PUSH1 0x4 DUP1 CALLDATASIZE SUB DUP2 ADD SWAP1 PUSH2 0x6FB SWAP2 SWAP1 PUSH2 0x7AF2 JUMP JUMPDEST PUSH2 0x15CD JUMP JUMPDEST PUSH1 0x40 MLOAD PUSH2 0x70D SWAP2 SWAP1 PUSH2 0x75AF JUMP JUMPDEST PUSH1 0x40 MLOAD DUP1 SWAP2 SUB SWAP1 RETURN JUMPDEST PUSH2 0x730 PUSH1 0x4 DUP1 CALLDATASIZE SUB DUP2 ADD SWAP1 PUSH2 0x72B SWAP2 SWAP1 PUSH2 0x77CA JUMP JUMPDEST PUSH2 0x16AF JUMP JUMPDEST STOP JUMPDEST PUSH2 0x74C PUSH1 0x4 DUP1 CALLDATASIZE SUB DUP2 ADD SWAP1 PUSH2 0x747 SWAP2 SWAP1 PUSH2 0x77CA JUMP JUMPDEST PUSH2 0x16FD JUMP JUMPDEST STOP JUMPDEST PUSH2 0x768 PUSH1 0x4 DUP1 CALLDATASIZE SUB DUP2 ADD SWAP1 PUSH2 0x763 SWAP2 SWAP1 PUSH2 0x77CA JUMP JUMPDEST PUSH2 0x1734 JUMP JUMPDEST PUSH1 0x40 MLOAD PUSH2 0x775 SWAP2 SWAP1 PUSH2 0x75AF JUMP JUMPDEST PUSH1 0x40 MLOAD DUP1 SWAP2 SUB SWAP1 RETURN JUMPDEST PUSH2 0x786 PUSH2 0x179F JUMP JUMPDEST STOP JUMPDEST PUSH2 0x790 PUSH2 0x17EF JUMP JUMPDEST PUSH1 0x40 MLOAD PUSH2 0x79D SWAP2 SWAP1 PUSH2 0x76DD JUMP JUMPDEST PUSH1 0x40 MLOAD DUP1 SWAP2 SUB SWAP1 RETURN JUMPDEST PUSH2 0x7AE PUSH2 0x1801 JUMP JUMPDEST PUSH1 0x40 MLOAD PUSH2 0x7BB SWAP2 SWAP1 PUSH2 0x76DD JUMP JUMPDEST PUSH1 0x40 MLOAD DUP1 SWAP2 SUB SWAP1 RETURN JUMPDEST PUSH2 0x7DE PUSH1 0x4 DUP1 CALLDATASIZE SUB DUP2 ADD SWAP1 PUSH2 0x7D9 SWAP2 SWAP1 PUSH2 0x7AF2 JUMP JUMPDEST PUSH2 0x1825 JUMP JUMPDEST STOP JUMPDEST PUSH2 0x7FA PUSH1 0x4 DUP1 CALLDATASIZE SUB DUP2 ADD SWAP1 PUSH2 0x7F5 SWAP2 SWAP1 PUSH2 0x7B47 JUMP JUMPDEST PUSH2 0x183E JUMP JUMPDEST STOP JUMPDEST PUSH2 0x804 PUSH2 0x1857 JUMP JUMPDEST PUSH1 0x40 MLOAD PUSH2 0x811 SWAP2 SWAP1 PUSH2 0x75AF JUMP JUMPDEST PUSH1 0x40 MLOAD DUP1 SWAP2 SUB SWAP1 RETURN JUMPDEST PUSH2 0x822 PUSH2 0x1869 JUMP JUMPDEST STOP JUMPDEST PUSH2 0x83E PUSH1 0x4 DUP1 CALLDATASIZE SUB DUP2 ADD SWAP1 PUSH2 0x839 SWAP2 SWAP1 PUSH2 0x7B72 JUMP JUMPDEST PUSH2 0x18BA JUMP JUMPDEST PUSH1 0x40 MLOAD PUSH2 0x84B SWAP2 SWAP1 PUSH2 0x75AF JUMP JUMPDEST PUSH1 0x40 MLOAD DUP1 SWAP2 SUB SWAP1 RETURN JUMPDEST PUSH2 0x86E PUSH1 0x4 DUP1 CALLDATASIZE SUB DUP2 ADD SWAP1 PUSH2 0x869 SWAP2 SWAP1 PUSH2 0x7AF2 JUMP JUMPDEST PUSH2 0x19FA JUMP JUMPDEST PUSH1 0x40 MLOAD PUSH2 0x87B SWAP2 SWAP1 PUSH2 0x75AF JUMP JUMPDEST PUSH1 0x40 MLOAD DUP1 SWAP2 SUB SWAP1 RETURN JUMPDEST PUSH2 0x89E PUSH1 0x4 DUP1 CALLDATASIZE SUB DUP2 ADD SWAP1 PUSH2 0x899 SWAP2 SWAP1 PUSH2 0x7BF2 JUMP JUMPDEST PUSH2 0x1A4D JUMP JUMPDEST STOP JUMPDEST PUSH2 0x8BA PUSH1 0x4 DUP1 CALLDATASIZE SUB DUP2 ADD SWAP1 PUSH2 0x8B5 SWAP2 SWAP1 PUSH2 0x7CC9 JUMP JUMPDEST PUSH2 0x1A6B JUMP JUMPDEST STOP JUMPDEST PUSH2 0x8C4 PUSH2 0x1B35 JUMP JUMPDEST PUSH1 0x40 MLOAD PUSH2 0x8D1 SWAP2 SWAP1 PUSH2 0x76DD JUMP JUMPDEST PUSH1 0x40 MLOAD DUP1 SWAP2 SUB SWAP1 RETURN JUMPDEST PUSH2 0x8E2 PUSH2 0x1B59 JUMP JUMPDEST PUSH1 0x40 MLOAD PUSH2 0x8EF SWAP2 SWAP1 PUSH2 0x75AF JUMP JUMPDEST PUSH1 0x40 MLOAD DUP1 SWAP2 SUB SWAP1 RETURN JUMPDEST PUSH2 0x900 PUSH2 0x1BF6 JUMP JUMPDEST PUSH1 0x40 MLOAD PUSH2 0x90D SWAP2 SWAP1 PUSH2 0x7D6F JUMP JUMPDEST PUSH1 0x40 MLOAD DUP1 SWAP2 SUB SWAP1 RETURN JUMPDEST PUSH2 0x91E PUSH2 0x1C27 JUMP JUMPDEST PUSH1 0x40 MLOAD PUSH2 0x92B SWAP2 SWAP1 PUSH2 0x7AD9 JUMP JUMPDEST PUSH1 0x40 MLOAD DUP1 SWAP2 SUB SWAP1 RETURN JUMPDEST PUSH2 0x94E PUSH1 0x4 DUP1 CALLDATASIZE SUB DUP2 ADD SWAP1 PUSH2 0x949 SWAP2 SWAP1 PUSH2 0x7AF2 JUMP JUMPDEST PUSH2 0x1C5D JUMP JUMPDEST PUSH1 0x40 MLOAD PUSH2 0x95B SWAP2 SWAP1 PUSH2 0x75AF JUMP JUMPDEST PUSH1 0x40 MLOAD DUP1 SWAP2 SUB SWAP1 RETURN JUMPDEST PUSH2 0x96C PUSH2 0x1EF8 JUMP JUMPDEST PUSH1 0x40 MLOAD PUSH2 0x979 SWAP2 SWAP1 PUSH2 0x75AF JUMP JUMPDEST PUSH1 0x40 MLOAD DUP1 SWAP2 SUB SWAP1 RETURN JUMPDEST PUSH2 0x98A PUSH2 0x1F0A JUMP JUMPDEST PUSH1 0x40 MLOAD PUSH2 0x997 SWAP2 SWAP1 PUSH2 0x7AD9 JUMP JUMPDEST PUSH1 0x40 MLOAD DUP1 SWAP2 SUB SWAP1 RETURN JUMPDEST PUSH2 0x9BA PUSH1 0x4 DUP1 CALLDATASIZE SUB DUP2 ADD SWAP1 PUSH2 0x9B5 SWAP2 SWAP1 PUSH2 0x7A58 JUMP JUMPDEST PUSH2 0x1F18 JUMP JUMPDEST PUSH1 0x40 MLOAD PUSH2 0x9C7 SWAP2 SWAP1 PUSH2 0x7673 JUMP JUMPDEST PUSH1 0x40 MLOAD DUP1 SWAP2 SUB SWAP1 RETURN JUMPDEST PUSH2 0x9D8 PUSH2 0x1F89 JUMP JUMPDEST PUSH1 0x40 MLOAD PUSH2 0x9E5 SWAP2 SWAP1 PUSH2 0x7673 JUMP JUMPDEST PUSH1 0x40 MLOAD DUP1 SWAP2 SUB SWAP1 RETURN JUMPDEST PUSH2 0xA08 PUSH1 0x4 DUP1 CALLDATASIZE SUB DUP2 ADD SWAP1 PUSH2 0xA03 SWAP2 SWAP1 PUSH2 0x7B72 JUMP JUMPDEST PUSH2 0x1FA7 JUMP JUMPDEST PUSH1 0x40 MLOAD PUSH2 0xA15 SWAP2 SWAP1 PUSH2 0x75AF JUMP JUMPDEST PUSH1 0x40 MLOAD DUP1 SWAP2 SUB SWAP1 RETURN JUMPDEST PUSH2 0xA38 PUSH1 0x4 DUP1 CALLDATASIZE SUB DUP2 ADD SWAP1 PUSH2 0xA33 SWAP2 SWAP1 PUSH2 0x7D88 JUMP JUMPDEST PUSH2 0x20F7 JUMP JUMPDEST STOP JUMPDEST PUSH2 0xA42 PUSH2 0x210B JUMP JUMPDEST PUSH1 0x40 MLOAD PUSH2 0xA4F SWAP2 SWAP1 PUSH2 0x7780 JUMP JUMPDEST PUSH1 0x40 MLOAD DUP1 SWAP2 SUB SWAP1 RETURN JUMPDEST PUSH2 0xA60 PUSH2 0x21A9 JUMP JUMPDEST PUSH1 0x40 MLOAD PUSH2 0xA6E SWAP3 SWAP2 SWAP1 PUSH2 0x7DCF JUMP JUMPDEST PUSH1 0x40 MLOAD DUP1 SWAP2 SUB SWAP1 RETURN JUMPDEST PUSH2 0xA7F PUSH2 0x2217 JUMP JUMPDEST PUSH1 0x40 MLOAD PUSH2 0xA8C SWAP2 SWAP1 PUSH2 0x76DD JUMP JUMPDEST PUSH1 0x40 MLOAD DUP1 SWAP2 SUB SWAP1 RETURN JUMPDEST PUSH2 0xA9D PUSH2 0x221D JUMP JUMPDEST STOP JUMPDEST PUSH2 0xAB9 PUSH1 0x4 DUP1 CALLDATASIZE SUB DUP2 ADD SWAP1 PUSH2 0xAB4 SWAP2 SWAP1 PUSH2 0x77CA JUMP JUMPDEST PUSH2 0x25C6 JUMP JUMPDEST PUSH1 0x40 MLOAD PUSH2 0xAC6 SWAP2 SWAP1 PUSH2 0x7E36 JUMP JUMPDEST PUSH1 0x40 MLOAD DUP1 SWAP2 SUB SWAP1 RETURN JUMPDEST PUSH2 0xAD7 PUSH2 0x2677 JUMP JUMPDEST PUSH1 0x40 MLOAD PUSH2 0xAE4 SWAP2 SWAP1 PUSH2 0x75AF JUMP JUMPDEST PUSH1 0x40 MLOAD DUP1 SWAP2 SUB SWAP1 RETURN JUMPDEST PUSH2 0xB07 PUSH1 0x4 DUP1 CALLDATASIZE SUB DUP2 ADD SWAP1 PUSH2 0xB02 SWAP2 SWAP1 PUSH2 0x784F JUMP JUMPDEST PUSH2 0x26C6 JUMP JUMPDEST PUSH1 0x40 MLOAD PUSH2 0xB14 SWAP2 SWAP1 PUSH2 0x7673 JUMP JUMPDEST PUSH1 0x40 MLOAD DUP1 SWAP2 SUB SWAP1 RETURN JUMPDEST PUSH2 0xB25 PUSH2 0x270A JUMP JUMPDEST PUSH1 0x40 MLOAD PUSH2 0xB32 SWAP2 SWAP1 PUSH2 0x7EC2 JUMP JUMPDEST PUSH1 0x40 MLOAD DUP1 SWAP2 SUB SWAP1 RETURN JUMPDEST PUSH2 0xB55 PUSH1 0x4 DUP1 CALLDATASIZE SUB DUP2 ADD SWAP1 PUSH2 0xB50 SWAP2 SWAP1 PUSH2 0x77CA JUMP JUMPDEST PUSH2 0x2729 JUMP JUMPDEST PUSH1 0x40 MLOAD PUSH2 0xB62 SWAP2 SWAP1 PUSH2 0x75AF JUMP JUMPDEST PUSH1 0x40 MLOAD DUP1 SWAP2 SUB SWAP1 RETURN JUMPDEST PUSH2 0xB85 PUSH1 0x4 DUP1 CALLDATASIZE SUB DUP2 ADD SWAP1 PUSH2 0xB80 SWAP2 SWAP1 PUSH2 0x7EDB JUMP JUMPDEST PUSH2 0x2764 JUMP JUMPDEST PUSH1 0x40 MLOAD PUSH2 0xB92 SWAP2 SWAP1 PUSH2 0x75AF JUMP JUMPDEST PUSH1 0x40 MLOAD DUP1 SWAP2 SUB SWAP1 RETURN JUMPDEST PUSH2 0xBA3 PUSH2 0x28B8 JUMP JUMPDEST PUSH1 0x40 MLOAD PUSH2 0xBB0 SWAP2 SWAP1 PUSH2 0x7F4B JUMP JUMPDEST PUSH1 0x40 MLOAD DUP1 SWAP2 SUB SWAP1 RETURN JUMPDEST PUSH2 0xBD3 PUSH1 0x4 DUP1 CALLDATASIZE SUB DUP2 ADD SWAP1 PUSH2 0xBCE SWAP2 SWAP1 PUSH2 0x7EDB JUMP JUMPDEST PUSH2 0x28E8 JUMP JUMPDEST PUSH1 0x40 MLOAD PUSH2 0xBE0 SWAP2 SWAP1 PUSH2 0x75AF JUMP JUMPDEST PUSH1 0x40 MLOAD DUP1 SWAP2 SUB SWAP1 RETURN JUMPDEST PUSH2 0xC03 PUSH1 0x4 DUP1 CALLDATASIZE SUB DUP2 ADD SWAP1 PUSH2 0xBFE SWAP2 SWAP1 PUSH2 0x7FB9 JUMP JUMPDEST PUSH2 0x2A45 JUMP JUMPDEST STOP JUMPDEST PUSH2 0xC1F PUSH1 0x4 DUP1 CALLDATASIZE SUB DUP2 ADD SWAP1 PUSH2 0xC1A SWAP2 SWAP1 PUSH2 0x7AF2 JUMP JUMPDEST PUSH2 0x2EEC JUMP JUMPDEST PUSH1 0x40 MLOAD PUSH2 0xC2C SWAP2 SWAP1 PUSH2 0x75AF JUMP JUMPDEST PUSH1 0x40 MLOAD DUP1 SWAP2 SUB SWAP1 RETURN JUMPDEST PUSH2 0xC4F PUSH1 0x4 DUP1 CALLDATASIZE SUB DUP2 ADD SWAP1 PUSH2 0xC4A SWAP2 SWAP1 PUSH2 0x77CA JUMP JUMPDEST PUSH2 0x2FDE JUMP JUMPDEST PUSH1 0x40 MLOAD PUSH2 0xC5C SWAP2 SWAP1 PUSH2 0x75AF JUMP JUMPDEST PUSH1 0x40 MLOAD DUP1 SWAP2 SUB SWAP1 RETURN JUMPDEST PUSH2 0xC7F PUSH1 0x4 DUP1 CALLDATASIZE SUB DUP2 ADD SWAP1 PUSH2 0xC7A SWAP2 SWAP1 PUSH2 0x8051 JUMP JUMPDEST PUSH2 0x2FF0 JUMP JUMPDEST STOP JUMPDEST PUSH2 0xC89 PUSH2 0x3027 JUMP JUMPDEST PUSH1 0x40 MLOAD PUSH2 0xC96 SWAP2 SWAP1 PUSH2 0x76DD JUMP JUMPDEST PUSH1 0x40 MLOAD DUP1 SWAP2 SUB SWAP1 RETURN JUMPDEST PUSH2 0xCA7 PUSH2 0x304B JUMP JUMPDEST PUSH1 0x40 MLOAD PUSH2 0xCB4 SWAP2 SWAP1 PUSH2 0x76AC JUMP JUMPDEST PUSH1 0x40 MLOAD DUP1 SWAP2 SUB SWAP1 RETURN JUMPDEST PUSH2 0xCD7 PUSH1 0x4 DUP1 CALLDATASIZE SUB DUP2 ADD SWAP1 PUSH2 0xCD2 SWAP2 SWAP1 PUSH2 0x7AF2 JUMP JUMPDEST PUSH2 0x30C9 JUMP JUMPDEST PUSH1 0x40 MLOAD PUSH2 0xCE4 SWAP2 SWAP1 PUSH2 0x75AF JUMP JUMPDEST PUSH1 0x40 MLOAD DUP1 SWAP2 SUB SWAP1 RETURN JUMPDEST PUSH2 0xCF5 PUSH2 0x3193 JUMP JUMPDEST STOP JUMPDEST PUSH2 0xCFF PUSH2 0x3228 JUMP JUMPDEST PUSH1 0x40 MLOAD PUSH2 0xD0D SWAP3 SWAP2 SWAP1 PUSH2 0x807C JUMP JUMPDEST PUSH1 0x40 MLOAD DUP1 SWAP2 SUB SWAP1 RETURN JUMPDEST PUSH2 0xD1E PUSH2 0x3277 JUMP JUMPDEST PUSH1 0x40 MLOAD PUSH2 0xD2B SWAP2 SWAP1 PUSH2 0x76DD JUMP JUMPDEST PUSH1 0x40 MLOAD DUP1 SWAP2 SUB SWAP1 RETURN JUMPDEST PUSH2 0xD4E PUSH1 0x4 DUP1 CALLDATASIZE SUB DUP2 ADD SWAP1 PUSH2 0xD49 SWAP2 SWAP1 PUSH2 0x7A58 JUMP JUMPDEST PUSH2 0x329B JUMP JUMPDEST STOP JUMPDEST PUSH2 0xD58 PUSH2 0x32E4 JUMP JUMPDEST STOP JUMPDEST PUSH2 0xD74 PUSH1 0x4 DUP1 CALLDATASIZE SUB DUP2 ADD SWAP1 PUSH2 0xD6F SWAP2 SWAP1 PUSH2 0x7AF2 JUMP JUMPDEST PUSH2 0x32FB JUMP JUMPDEST PUSH1 0x40 MLOAD PUSH2 0xD81 SWAP2 SWAP1 PUSH2 0x7E36 JUMP JUMPDEST PUSH1 0x40 MLOAD DUP1 SWAP2 SUB SWAP1 RETURN JUMPDEST PUSH2 0xD92 PUSH2 0x33AC JUMP JUMPDEST PUSH1 0x40 MLOAD PUSH2 0xD9F SWAP2 SWAP1 PUSH2 0x7AD9 JUMP JUMPDEST PUSH1 0x40 MLOAD DUP1 SWAP2 SUB SWAP1 RETURN JUMPDEST PUSH2 0xDC2 PUSH1 0x4 DUP1 CALLDATASIZE SUB DUP2 ADD SWAP1 PUSH2 0xDBD SWAP2 SWAP1 PUSH2 0x7AF2 JUMP JUMPDEST PUSH2 0x33D0 JUMP JUMPDEST PUSH1 0x40 MLOAD PUSH2 0xDCF SWAP2 SWAP1 PUSH2 0x75AF JUMP JUMPDEST PUSH1 0x40 MLOAD DUP1 SWAP2 SUB SWAP1 RETURN JUMPDEST PUSH2 0xDF2 PUSH1 0x4 DUP1 CALLDATASIZE SUB DUP2 ADD SWAP1 PUSH2 0xDED SWAP2 SWAP1 PUSH2 0x80A3 JUMP JUMPDEST PUSH2 0x34AA JUMP JUMPDEST PUSH1 0x40 MLOAD PUSH2 0xDFF SWAP2 SWAP1 PUSH2 0x75AF JUMP JUMPDEST PUSH1 0x40 MLOAD DUP1 SWAP2 SUB SWAP1 RETURN JUMPDEST PUSH2 0xE10 PUSH2 0x353A JUMP JUMPDEST PUSH1 0x40 MLOAD PUSH2 0xE1D SWAP2 SWAP1 PUSH2 0x76DD JUMP JUMPDEST PUSH1 0x40 MLOAD DUP1 SWAP2 SUB SWAP1 RETURN JUMPDEST PUSH2 0xE40 PUSH1 0x4 DUP1 CALLDATASIZE SUB DUP2 ADD SWAP1 PUSH2 0xE3B SWAP2 SWAP1 PUSH2 0x77CA JUMP JUMPDEST PUSH2 0x355E JUMP JUMPDEST PUSH1 0x40 MLOAD PUSH2 0xE4D SWAP2 SWAP1 PUSH2 0x75AF JUMP JUMPDEST PUSH1 0x40 MLOAD DUP1 SWAP2 SUB SWAP1 RETURN JUMPDEST PUSH2 0xE70 PUSH1 0x4 DUP1 CALLDATASIZE SUB DUP2 ADD SWAP1 PUSH2 0xE6B SWAP2 SWAP1 PUSH2 0x80E1 JUMP JUMPDEST PUSH2 0x3599 JUMP JUMPDEST PUSH1 0x40 MLOAD PUSH2 0xE7D SWAP2 SWAP1 PUSH2 0x817E JUMP JUMPDEST PUSH1 0x40 MLOAD DUP1 SWAP2 SUB SWAP1 RETURN JUMPDEST PUSH2 0xEA0 PUSH1 0x4 DUP1 CALLDATASIZE SUB DUP2 ADD SWAP1 PUSH2 0xE9B SWAP2 SWAP1 PUSH2 0x81C1 JUMP JUMPDEST PUSH2 0x36A3 JUMP JUMPDEST STOP JUMPDEST PUSH2 0xEAA PUSH2 0x36DA JUMP JUMPDEST PUSH1 0x40 MLOAD PUSH2 0xEB7 SWAP2 SWAP1 PUSH2 0x76DD JUMP JUMPDEST PUSH1 0x40 MLOAD DUP1 SWAP2 SUB SWAP1 RETURN JUMPDEST PUSH0 PUSH2 0xEC9 PUSH2 0x36FE JUMP JUMPDEST PUSH20 0xFFFFFFFFFFFFFFFFFFFFFFFFFFFFFFFFFFFFFFFF AND PUSH4 0xF3E0FFBF PUSH2 0xEEC PUSH2 0x1598 JUMP JUMPDEST PUSH1 0x40 MLOAD DUP3 PUSH4 0xFFFFFFFF AND PUSH1 0xE0 SHL DUP2 MSTORE PUSH1 0x4 ADD PUSH2 0xF08 SWAP2 SWAP1 PUSH2 0x820C JUMP JUMPDEST PUSH1 0x20 PUSH1 0x40 MLOAD DUP1 DUP4 SUB DUP2 DUP7 GAS STATICCALL ISZERO DUP1 ISZERO PUSH2 0xF23 JUMPI RETURNDATASIZE PUSH0 DUP1 RETURNDATACOPY RETURNDATASIZE PUSH0 REVERT JUMPDEST POP POP POP POP PUSH1 0x40 MLOAD RETURNDATASIZE PUSH1 0x1F NOT PUSH1 0x1F DUP3 ADD AND DUP3 ADD DUP1 PUSH1 0x40 MSTORE POP DUP2 ADD SWAP1 PUSH2 0xF47 SWAP2 SWAP1 PUSH2 0x8239 JUMP JUMPDEST SWAP1 POP SWAP1 JUMP JUMPDEST PUSH0 PUSH32 0x3149878600000000000000000000000000000000000000000000000000000000 PUSH28 0xFFFFFFFFFFFFFFFFFFFFFFFFFFFFFFFFFFFFFFFFFFFFFFFFFFFFFFFF NOT AND DUP3 PUSH28 0xFFFFFFFFFFFFFFFFFFFFFFFFFFFFFFFFFFFFFFFFFFFFFFFFFFFFFFFF NOT AND EQ DUP1 PUSH2 0xFBE JUMPI POP PUSH2 0xFBD DUP3 PUSH2 0x37AE JUMP JUMPDEST JUMPDEST SWAP1 POP SWAP2 SWAP1 POP JUMP JUMPDEST PUSH0 PUSH3 0x69780 SWAP1 POP SWAP1 JUMP JUMPDEST PUSH2 0xFD7 PUSH2 0x3827 JUMP JUMPDEST PUSH0 PUSH2 0xFE0 PUSH2 0x387B JUMP JUMPDEST SWAP1 POP DUP1 PUSH1 0x9 ADD PUSH0 SWAP1 SLOAD SWAP1 PUSH2 0x100 EXP SWAP1 DIV PUSH20 0xFFFFFFFFFFFFFFFFFFFFFFFFFFFFFFFFFFFFFFFF AND PUSH20 0xFFFFFFFFFFFFFFFFFFFFFFFFFFFFFFFFFFFFFFFF AND PUSH4 0x4C50C74C PUSH2 0x1029 PUSH2 0x1598 JUMP JUMPDEST PUSH2 0x1031 PUSH2 0x38A2 JUMP JUMPDEST PUSH1 0x40 MLOAD DUP4 PUSH4 0xFFFFFFFF AND PUSH1 0xE0 SHL DUP2 MSTORE PUSH1 0x4 ADD PUSH2 0x104E SWAP3 SWAP2 SWAP1 PUSH2 0x8284 JUMP JUMPDEST PUSH0 PUSH1 0x40 MLOAD DUP1 DUP4 SUB DUP2 PUSH0 DUP8 DUP1 EXTCODESIZE ISZERO DUP1 ISZERO PUSH2 0x1065 JUMPI PUSH0 DUP1 REVERT JUMPDEST POP GAS CALL ISZERO DUP1 ISZERO PUSH2 0x1077 JUMPI RETURNDATASIZE PUSH0 DUP1 RETURNDATACOPY RETURNDATASIZE PUSH0 REVERT JUMPDEST POP POP POP POP POP PUSH2 0x1084 PUSH2 0x391C JUMP JUMPDEST JUMP JUMPDEST PUSH32 0x4645455F4D414E41474552000000000000000000000000000000000000000000 DUP2 JUMP JUMPDEST PUSH1 0x60 PUSH0 PUSH2 0x10B5 PUSH2 0x3933 JUMP JUMPDEST SWAP1 POP DUP1 PUSH1 0x3 ADD DUP1 SLOAD PUSH2 0x10C6 SWAP1 PUSH2 0x82D8 JUMP JUMPDEST DUP1 PUSH1 0x1F ADD PUSH1 0x20 DUP1 SWAP2 DIV MUL PUSH1 0x20 ADD PUSH1 0x40 MLOAD SWAP1 DUP2 ADD PUSH1 0x40 MSTORE DUP1 SWAP3 SWAP2 SWAP1 DUP2 DUP2 MSTORE PUSH1 0x20 ADD DUP3 DUP1 SLOAD PUSH2 0x10F2 SWAP1 PUSH2 0x82D8 JUMP JUMPDEST DUP1 ISZERO PUSH2 0x113D JUMPI DUP1 PUSH1 0x1F LT PUSH2 0x1114 JUMPI PUSH2 0x100 DUP1 DUP4 SLOAD DIV MUL DUP4 MSTORE SWAP2 PUSH1 0x20 ADD SWAP2 PUSH2 0x113D JUMP JUMPDEST DUP3 ADD SWAP2 SWAP1 PUSH0 MSTORE PUSH1 0x20 PUSH0 KECCAK256 SWAP1 JUMPDEST DUP2 SLOAD DUP2 MSTORE SWAP1 PUSH1 0x1 ADD SWAP1 PUSH1 0x20 ADD DUP1 DUP4 GT PUSH2 0x1120 JUMPI DUP3 SWAP1 SUB PUSH1 0x1F AND DUP3 ADD SWAP2 JUMPDEST POP POP POP POP POP SWAP2 POP POP SWAP1 JUMP JUMPDEST PUSH0 PUSH2 0x1153 DUP3 PUSH0 PUSH2 0x395A JUMP JUMPDEST SWAP1 POP SWAP2 SWAP1 POP JUMP JUMPDEST PUSH0 DUP3 PUSH2 0x1165 DUP2 PUSH2 0x39B2 JUMP JUMPDEST PUSH2 0x116D PUSH2 0x3BD1 JUMP JUMPDEST PUSH2 0x1176 DUP2 PUSH2 0x3BD8 JUMP JUMPDEST DUP5 PUSH2 0x1180 DUP2 PUSH2 0x3BD8 JUMP JUMPDEST PUSH2 0x118A DUP7 DUP7 PUSH2 0x3CFC JUMP JUMPDEST SWAP4 POP POP POP POP SWAP3 SWAP2 POP POP JUMP JUMPDEST PUSH0 DUP1 PUSH0 PUSH2 0x11A0 PUSH2 0x3D1E JUMP JUMPDEST SWAP2 POP SWAP2 POP PUSH2 0x1200 PUSH2 0x11FB PUSH2 0x11B2 PUSH2 0x3DCE JUMP JUMPDEST PUSH1 0xA PUSH2 0x11BE SWAP2 SWAP1 PUSH2 0x8464 JUMP JUMPDEST DUP5 PUSH2 0x11C7 PUSH2 0x12C1 JUMP JUMPDEST PUSH2 0x11D1 SWAP2 SWAP1 PUSH2 0x84AE JUMP JUMPDEST PUSH2 0x11DB SWAP2 SWAP1 PUSH2 0x84AE JUMP JUMPDEST PUSH1 0x1 DUP5 PUSH2 0x11E8 SWAP2 SWAP1 PUSH2 0x84AE JUMP JUMPDEST PUSH1 0x1 DUP9 PUSH2 0x3DED SWAP1 SWAP4 SWAP3 SWAP2 SWAP1 PUSH4 0xFFFFFFFF AND JUMP JUMPDEST PUSH2 0x3E3A JUMP JUMPDEST SWAP3 POP POP POP SWAP2 SWAP1 POP JUMP JUMPDEST PUSH0 DUP1 SHL PUSH2 0x1215 DUP2 PUSH2 0x3E80 JUMP JUMPDEST PUSH2 0x121D PUSH2 0x3E94 JUMP JUMPDEST POP JUMP JUMPDEST PUSH1 0x60 PUSH2 0x122A PUSH2 0x387B JUMP JUMPDEST PUSH1 0x9 ADD PUSH0 SWAP1 SLOAD SWAP1 PUSH2 0x100 EXP SWAP1 DIV PUSH20 0xFFFFFFFFFFFFFFFFFFFFFFFFFFFFFFFFFFFFFFFF AND PUSH20 0xFFFFFFFFFFFFFFFFFFFFFFFFFFFFFFFFFFFFFFFF AND PUSH4 0xADFDCB9 PUSH1 0x40 MLOAD DUP2 PUSH4 0xFFFFFFFF AND PUSH1 0xE0 SHL DUP2 MSTORE PUSH1 0x4 ADD PUSH0 PUSH1 0x40 MLOAD DUP1 DUP4 SUB DUP2 DUP7 GAS STATICCALL ISZERO DUP1 ISZERO PUSH2 0x1294 JUMPI RETURNDATASIZE PUSH0 DUP1 RETURNDATACOPY RETURNDATASIZE PUSH0 REVERT JUMPDEST POP POP POP POP PUSH1 0x40 MLOAD RETURNDATASIZE PUSH0 DUP3 RETURNDATACOPY RETURNDATASIZE PUSH1 0x1F NOT PUSH1 0x1F DUP3 ADD AND DUP3 ADD DUP1 PUSH1 0x40 MSTORE POP DUP2 ADD SWAP1 PUSH2 0x12BC SWAP2 SWAP1 PUSH2 0x8692 JUMP JUMPDEST SWAP1 POP SWAP1 JUMP JUMPDEST PUSH0 DUP1 PUSH2 0x12CB PUSH2 0x3933 JUMP JUMPDEST SWAP1 POP DUP1 PUSH1 0x2 ADD SLOAD SWAP2 POP POP SWAP1 JUMP JUMPDEST PUSH0 DUP4 PUSH2 0x12E3 DUP2 PUSH2 0x39B2 JUMP JUMPDEST DUP4 PUSH2 0x12ED DUP2 PUSH2 0x39B2 JUMP JUMPDEST PUSH2 0x12F5 PUSH2 0x3BD1 JUMP JUMPDEST PUSH2 0x12FE DUP2 PUSH2 0x3BD8 JUMP JUMPDEST DUP7 PUSH2 0x1308 DUP2 PUSH2 0x3BD8 JUMP JUMPDEST DUP7 PUSH2 0x1312 DUP2 PUSH2 0x3BD8 JUMP JUMPDEST PUSH2 0x131B DUP8 PUSH2 0x3EA0 JUMP JUMPDEST PUSH2 0x1326 DUP10 DUP10 DUP10 PUSH2 0x3F17 JUMP JUMPDEST SWAP6 POP POP POP POP POP POP SWAP4 SWAP3 POP POP POP JUMP JUMPDEST PUSH0 DUP1 PUSH2 0x133E PUSH2 0x3F45 JUMP JUMPDEST SWAP1 POP DUP1 PUSH0 ADD PUSH0 DUP5 DUP2 MSTORE PUSH1 0x20 ADD SWAP1 DUP2 MSTORE PUSH1 0x20 ADD PUSH0 KECCAK256 PUSH1 0x1 ADD SLOAD SWAP2 POP POP SWAP2 SWAP1 POP JUMP JUMPDEST PUSH0 PUSH2 0x1367 PUSH2 0x387B JUMP JUMPDEST PUSH1 0x9 ADD PUSH0 SWAP1 SLOAD SWAP1 PUSH2 0x100 EXP SWAP1 DIV PUSH20 0xFFFFFFFFFFFFFFFFFFFFFFFFFFFFFFFFFFFFFFFF AND PUSH20 0xFFFFFFFFFFFFFFFFFFFFFFFFFFFFFFFFFFFFFFFF AND PUSH4 0x2C15E0F7 PUSH1 0x40 MLOAD DUP2 PUSH4 0xFFFFFFFF AND PUSH1 0xE0 SHL DUP2 MSTORE PUSH1 0x4 ADD PUSH1 0x20 PUSH1 0x40 MLOAD DUP1 DUP4 SUB DUP2 DUP7 GAS STATICCALL ISZERO DUP1 ISZERO PUSH2 0x13D2 JUMPI RETURNDATASIZE PUSH0 DUP1 RETURNDATACOPY RETURNDATASIZE PUSH0 REVERT JUMPDEST POP POP POP POP PUSH1 0x40 MLOAD RETURNDATASIZE PUSH1 0x1F NOT PUSH1 0x1F DUP3 ADD AND DUP3 ADD DUP1 PUSH1 0x40 MSTORE POP DUP2 ADD SWAP1 PUSH2 0x13F6 SWAP2 SWAP1 PUSH2 0x8239 JUMP JUMPDEST SWAP1 POP SWAP1 JUMP JUMPDEST PUSH0 DUP1 SHL DUP3 SUB PUSH2 0x1436 JUMPI PUSH1 0x40 MLOAD PUSH32 0x3FC3C27A00000000000000000000000000000000000000000000000000000000 DUP2 MSTORE PUSH1 0x4 ADD PUSH1 0x40 MLOAD DUP1 SWAP2 SUB SWAP1 REVERT JUMPDEST PUSH2 0x1440 DUP3 DUP3 PUSH2 0x3F6C JUMP JUMPDEST POP POP JUMP JUMPDEST PUSH0 DUP1 PUSH2 0x144E PUSH2 0x3F8E JUMP JUMPDEST SWAP1 POP PUSH2 0x1458 PUSH2 0x3DCE JUMP JUMPDEST DUP2 PUSH0 ADD PUSH1 0x14 SWAP1 SLOAD SWAP1 PUSH2 0x100 EXP SWAP1 DIV PUSH1 0xFF AND PUSH2 0x1473 SWAP2 SWAP1 PUSH2 0x86D9 JUMP JUMPDEST SWAP2 POP POP SWAP1 JUMP JUMPDEST PUSH0 PUSH2 0x1482 PUSH2 0x3FB5 JUMP JUMPDEST SWAP1 POP PUSH0 DUP1 SHL DUP4 EQ DUP1 ISZERO PUSH2 0x14C7 JUMPI POP PUSH2 0x1498 PUSH2 0x1C27 JUMP JUMPDEST PUSH20 0xFFFFFFFFFFFFFFFFFFFFFFFFFFFFFFFFFFFFFFFF AND DUP3 PUSH20 0xFFFFFFFFFFFFFFFFFFFFFFFFFFFFFFFFFFFFFFFF AND EQ JUMPDEST ISZERO PUSH2 0x1589 JUMPI PUSH0 DUP1 PUSH2 0x14D6 PUSH2 0x3228 JUMP JUMPDEST SWAP2 POP SWAP2 POP PUSH0 PUSH20 0xFFFFFFFFFFFFFFFFFFFFFFFFFFFFFFFFFFFFFFFF AND DUP3 PUSH20 0xFFFFFFFFFFFFFFFFFFFFFFFFFFFFFFFFFFFFFFFF AND EQ ISZERO DUP1 PUSH2 0x151B JUMPI POP PUSH2 0x1519 DUP2 PUSH2 0x3FDC JUMP JUMPDEST ISZERO JUMPDEST DUP1 PUSH2 0x152C JUMPI POP PUSH2 0x152A DUP2 PUSH2 0x3FF0 JUMP JUMPDEST ISZERO JUMPDEST ISZERO PUSH2 0x156E JUMPI DUP1 PUSH1 0x40 MLOAD PUSH32 0x19CA5EBB00000000000000000000000000000000000000000000000000000000 DUP2 MSTORE PUSH1 0x4 ADD PUSH2 0x1565 SWAP2 SWAP1 PUSH2 0x76AC JUMP JUMPDEST PUSH1 0x40 MLOAD DUP1 SWAP2 SUB SWAP1 REVERT JUMPDEST DUP3 PUSH0 ADD PUSH1 0x14 PUSH2 0x100 EXP DUP2 SLOAD SWAP1 PUSH6 0xFFFFFFFFFFFF MUL NOT AND SWAP1 SSTORE POP POP JUMPDEST PUSH2 0x1593 DUP4 DUP4 PUSH2 0x4003 JUMP JUMPDEST POP POP POP JUMP JUMPDEST PUSH0 DUP1 PUSH2 0x15A2 PUSH2 0x3F8E JUMP JUMPDEST SWAP1 POP DUP1 PUSH0 ADD PUSH0 SWAP1 SLOAD SWAP1 PUSH2 0x100 EXP SWAP1 DIV PUSH20 0xFFFFFFFFFFFFFFFFFFFFFFFFFFFFFFFFFFFFFFFF AND SWAP2 POP POP SWAP1 JUMP JUMPDEST PUSH0 DUP1 PUSH2 0x15D7 PUSH2 0x387B JUMP JUMPDEST SWAP1 POP DUP1 PUSH0 ADD PUSH0 SWAP1 SLOAD SWAP1 PUSH2 0x100 EXP SWAP1 DIV PUSH20 0xFFFFFFFFFFFFFFFFFFFFFFFFFFFFFFFFFFFFFFFF AND PUSH20 0xFFFFFFFFFFFFFFFFFFFFFFFFFFFFFFFFFFFFFFFF AND PUSH4 0x9E9E4666 DUP3 PUSH1 0x1 ADD SLOAD PUSH1 0x40 MLOAD DUP3 PUSH4 0xFFFFFFFF AND PUSH1 0xE0 SHL DUP2 MSTORE PUSH1 0x4 ADD PUSH2 0x1638 SWAP2 SWAP1 PUSH2 0x76DD JUMP JUMPDEST PUSH1 0x20 PUSH1 0x40 MLOAD DUP1 DUP4 SUB DUP2 DUP7 GAS STATICCALL ISZERO DUP1 ISZERO PUSH2 0x1653 JUMPI RETURNDATASIZE PUSH0 DUP1 RETURNDATACOPY RETURNDATASIZE PUSH0 REVERT JUMPDEST POP POP POP POP PUSH1 0x40 MLOAD RETURNDATASIZE PUSH1 0x1F NOT PUSH1 0x1F DUP3 ADD AND DUP3 ADD DUP1 PUSH1 0x40 MSTORE POP DUP2 ADD SWAP1 PUSH2 0x1677 SWAP2 SWAP1 PUSH2 0x8737 JUMP JUMPDEST DUP1 PUSH2 0x1690 JUMPI POP DUP1 PUSH1 0x8 ADD PUSH1 0x14 SWAP1 SLOAD SWAP1 PUSH2 0x100 EXP SWAP1 DIV PUSH1 0xFF AND JUMPDEST ISZERO PUSH2 0x169E JUMPI PUSH0 SWAP2 POP POP PUSH2 0x16AA JUMP JUMPDEST PUSH2 0x16A6 PUSH2 0x407E JUMP JUMPDEST SWAP2 POP POP JUMPDEST SWAP2 SWAP1 POP JUMP JUMPDEST PUSH32 0x4645455F4D414E41474552000000000000000000000000000000000000000000 PUSH2 0x16D9 DUP2 PUSH2 0x3E80 JUMP JUMPDEST PUSH2 0x16E1 PUSH2 0x410A JUMP JUMPDEST PUSH2 0x16E9 PUSH2 0x387B JUMP JUMPDEST PUSH1 0x4 ADD DUP2 SWAP1 SSTORE POP PUSH2 0x16F9 DUP3 PUSH2 0x4153 JUMP JUMPDEST POP POP JUMP JUMPDEST PUSH32 0x4645455F4D414E41474552000000000000000000000000000000000000000000 PUSH2 0x1727 DUP2 PUSH2 0x3E80 JUMP JUMPDEST PUSH2 0x1730 DUP3 PUSH2 0x4201 JUMP JUMPDEST POP POP JUMP JUMPDEST PUSH0 DUP1 PUSH0 PUSH2 0x173F PUSH2 0x3D1E JUMP JUMPDEST SWAP2 POP SWAP2 POP PUSH2 0x1796 PUSH1 0x1 DUP3 PUSH2 0x1753 SWAP2 SWAP1 PUSH2 0x84AE JUMP JUMPDEST PUSH2 0x175B PUSH2 0x3DCE JUMP JUMPDEST PUSH1 0xA PUSH2 0x1767 SWAP2 SWAP1 PUSH2 0x8464 JUMP JUMPDEST DUP5 PUSH2 0x1770 PUSH2 0x12C1 JUMP JUMPDEST PUSH2 0x177A SWAP2 SWAP1 PUSH2 0x84AE JUMP JUMPDEST PUSH2 0x1784 SWAP2 SWAP1 PUSH2 0x84AE JUMP JUMPDEST PUSH0 DUP8 PUSH2 0x3DED SWAP1 SWAP4 SWAP3 SWAP2 SWAP1 PUSH4 0xFFFFFFFF AND JUMP JUMPDEST SWAP3 POP POP POP SWAP2 SWAP1 POP JUMP JUMPDEST PUSH32 0x554E504155534552000000000000000000000000000000000000000000000000 PUSH2 0x17C9 DUP2 PUSH2 0x3E80 JUMP JUMPDEST PUSH0 PUSH2 0x17D2 PUSH2 0x387B JUMP JUMPDEST PUSH1 0x8 ADD PUSH1 0x14 PUSH2 0x100 EXP DUP2 SLOAD DUP2 PUSH1 0xFF MUL NOT AND SWAP1 DUP4 ISZERO ISZERO MUL OR SWAP1 SSTORE POP POP JUMP JUMPDEST PUSH0 PUSH2 0x17F8 PUSH2 0x387B JUMP JUMPDEST PUSH1 0x1 ADD SLOAD SWAP1 POP SWAP1 JUMP JUMPDEST PUSH32 0x4645455F434F4C4C4543544F5200000000000000000000000000000000000000 DUP2 JUMP JUMPDEST PUSH0 DUP1 SHL PUSH2 0x1831 DUP2 PUSH2 0x3E80 JUMP JUMPDEST PUSH2 0x183A DUP3 PUSH2 0x42AF JUMP JUMPDEST POP POP JUMP JUMPDEST PUSH0 DUP1 SHL PUSH2 0x184A DUP2 PUSH2 0x3E80 JUMP JUMPDEST PUSH2 0x1853 DUP3 PUSH2 0x4329 JUMP JUMPDEST POP POP JUMP JUMPDEST PUSH0 PUSH2 0x1860 PUSH2 0x387B JUMP JUMPDEST PUSH1 0x2 ADD SLOAD SWAP1 POP SWAP1 JUMP JUMPDEST PUSH32 0x5041555345520000000000000000000000000000000000000000000000000000 PUSH2 0x1893 DUP2 PUSH2 0x3E80 JUMP JUMPDEST PUSH1 0x1 PUSH2 0x189D PUSH2 0x387B JUMP JUMPDEST PUSH1 0x8 ADD PUSH1 0x14 PUSH2 0x100 EXP DUP2 SLOAD DUP2 PUSH1 0xFF MUL NOT AND SWAP1 DUP4 ISZERO ISZERO MUL OR SWAP1 SSTORE POP POP JUMP JUMPDEST PUSH0 PUSH2 0x18C3 PUSH2 0x3827 JUMP JUMPDEST DUP2 PUSH2 0x18CD DUP2 PUSH2 0x39B2 JUMP JUMPDEST PUSH2 0x18D5 PUSH2 0x3BD1 JUMP JUMPDEST PUSH2 0x18DE DUP2 PUSH2 0x3BD8 JUMP JUMPDEST PUSH2 0x18E6 PUSH2 0x438F JUMP JUMPDEST PUSH0 DUP6 SUB PUSH2 0x191F JUMPI PUSH1 0x40 MLOAD PUSH32 0xCBCA5AA200000000000000000000000000000000000000000000000000000000 DUP2 MSTORE PUSH1 0x4 ADD PUSH1 0x40 MLOAD DUP1 SWAP2 SUB SWAP1 REVERT JUMPDEST PUSH0 PUSH2 0x1928 PUSH2 0x407E JUMP JUMPDEST SWAP1 POP DUP1 DUP7 GT ISZERO PUSH2 0x1973 JUMPI DUP5 DUP7 DUP3 PUSH1 0x40 MLOAD PUSH32 0x79012FB200000000000000000000000000000000000000000000000000000000 DUP2 MSTORE PUSH1 0x4 ADD PUSH2 0x196A SWAP4 SWAP3 SWAP2 SWAP1 PUSH2 0x8762 JUMP JUMPDEST PUSH1 0x40 MLOAD DUP1 SWAP2 SUB SWAP1 REVERT JUMPDEST PUSH0 PUSH2 0x197C PUSH2 0x410A JUMP JUMPDEST SWAP1 POP PUSH0 DUP1 PUSH2 0x1992 DUP10 DUP5 PUSH2 0x198D PUSH2 0x12C1 JUMP JUMPDEST PUSH2 0x43E1 JUMP JUMPDEST SWAP2 POP SWAP2 POP PUSH0 DUP3 SUB PUSH2 0x19CF JUMPI PUSH1 0x40 MLOAD PUSH32 0x784F01900000000000000000000000000000000000000000000000000000000 DUP2 MSTORE PUSH1 0x4 ADD PUSH1 0x40 MLOAD DUP1 SWAP2 SUB SWAP1 REVERT JUMPDEST PUSH2 0x19E3 PUSH2 0x19DA PUSH2 0x3BD1 JUMP JUMPDEST DUP10 DUP12 DUP6 DUP6 PUSH2 0x4452 JUMP JUMPDEST DUP2 SWAP7 POP POP POP POP POP POP POP PUSH2 0x19F4 PUSH2 0x391C JUMP JUMPDEST SWAP3 SWAP2 POP POP JUMP JUMPDEST PUSH0 DUP1 PUSH2 0x1A04 PUSH2 0x3933 JUMP JUMPDEST SWAP1 POP DUP1 PUSH0 ADD PUSH0 DUP5 PUSH20 0xFFFFFFFFFFFFFFFFFFFFFFFFFFFFFFFFFFFFFFFF AND PUSH20 0xFFFFFFFFFFFFFFFFFFFFFFFFFFFFFFFFFFFFFFFF AND DUP2 MSTORE PUSH1 0x20 ADD SWAP1 DUP2 MSTORE PUSH1 0x20 ADD PUSH0 KECCAK256 SLOAD SWAP2 POP POP SWAP2 SWAP1 POP JUMP JUMPDEST PUSH2 0x1A55 PUSH2 0x4808 JUMP JUMPDEST PUSH2 0x1A5E DUP3 PUSH2 0x48A8 JUMP JUMPDEST PUSH2 0x1A67 DUP2 PUSH2 0x4BFD JUMP JUMPDEST POP POP JUMP JUMPDEST PUSH32 0x4645455F4D414E41474552000000000000000000000000000000000000000000 PUSH2 0x1A95 DUP2 PUSH2 0x3E80 JUMP JUMPDEST PUSH2 0x1A9D PUSH2 0x387B JUMP JUMPDEST PUSH1 0x9 ADD PUSH0 SWAP1 SLOAD SWAP1 PUSH2 0x100 EXP SWAP1 DIV PUSH20 0xFFFFFFFFFFFFFFFFFFFFFFFFFFFFFFFFFFFFFFFF AND PUSH20 0xFFFFFFFFFFFFFFFFFFFFFFFFFFFFFFFFFFFFFFFF AND PUSH4 0x4BD43CDD DUP5 DUP5 PUSH2 0x1AE5 PUSH2 0x38A2 JUMP JUMPDEST PUSH1 0x40 MLOAD DUP5 PUSH4 0xFFFFFFFF AND PUSH1 0xE0 SHL DUP2 MSTORE PUSH1 0x4 ADD PUSH2 0x1B03 SWAP4 SWAP3 SWAP2 SWAP1 PUSH2 0x88AC JUMP JUMPDEST PUSH0 PUSH1 0x40 MLOAD DUP1 DUP4 SUB DUP2 PUSH0 DUP8 DUP1 EXTCODESIZE ISZERO DUP1 ISZERO PUSH2 0x1B1A JUMPI PUSH0 DUP1 REVERT JUMPDEST POP GAS CALL ISZERO DUP1 ISZERO PUSH2 0x1B2C JUMPI RETURNDATASIZE PUSH0 DUP1 RETURNDATACOPY RETURNDATASIZE PUSH0 REVERT JUMPDEST POP POP POP POP POP POP POP JUMP JUMPDEST PUSH32 0x5350454E44455200000000000000000000000000000000000000000000000000 DUP2 JUMP JUMPDEST PUSH0 PUSH2 0x1B62 PUSH2 0x387B JUMP JUMPDEST PUSH1 0x9 ADD PUSH0 SWAP1 SLOAD SWAP1 PUSH2 0x100 EXP SWAP1 DIV PUSH20 0xFFFFFFFFFFFFFFFFFFFFFFFFFFFFFFFFFFFFFFFF AND PUSH20 0xFFFFFFFFFFFFFFFFFFFFFFFFFFFFFFFFFFFFFFFF AND PUSH4 0x7C10C835 PUSH1 0x40 MLOAD DUP2 PUSH4 0xFFFFFFFF AND PUSH1 0xE0 SHL DUP2 MSTORE PUSH1 0x4 ADD PUSH1 0x20 PUSH1 0x40 MLOAD DUP1 DUP4 SUB DUP2 DUP7 GAS STATICCALL ISZERO DUP1 ISZERO PUSH2 0x1BCD JUMPI RETURNDATASIZE PUSH0 DUP1 RETURNDATACOPY RETURNDATASIZE PUSH0 REVERT JUMPDEST POP POP POP POP PUSH1 0x40 MLOAD RETURNDATASIZE PUSH1 0x1F NOT PUSH1 0x1F DUP3 ADD AND DUP3 ADD DUP1 PUSH1 0x40 MSTORE POP DUP2 ADD SWAP1 PUSH2 0x1BF1 SWAP2 SWAP1 PUSH2 0x8239 JUMP JUMPDEST SWAP1 POP SWAP1 JUMP JUMPDEST PUSH0 PUSH2 0x1BFF PUSH2 0x387B JUMP JUMPDEST PUSH1 0x8 ADD PUSH0 SWAP1 SLOAD SWAP1 PUSH2 0x100 EXP SWAP1 DIV PUSH20 0xFFFFFFFFFFFFFFFFFFFFFFFFFFFFFFFFFFFFFFFF AND SWAP1 POP SWAP1 JUMP JUMPDEST PUSH0 DUP1 PUSH2 0x1C31 PUSH2 0x3FB5 JUMP JUMPDEST SWAP1 POP DUP1 PUSH1 0x1 ADD PUSH0 SWAP1 SLOAD SWAP1 PUSH2 0x100 EXP SWAP1 DIV PUSH20 0xFFFFFFFFFFFFFFFFFFFFFFFFFFFFFFFFFFFFFFFF AND SWAP2 POP POP SWAP1 JUMP JUMPDEST PUSH0 PUSH2 0x1C66 PUSH2 0x3827 JUMP JUMPDEST PUSH0 PUSH2 0x1C6F PUSH2 0x387B JUMP JUMPDEST SWAP1 POP PUSH0 PUSH20 0xFFFFFFFFFFFFFFFFFFFFFFFFFFFFFFFFFFFFFFFF AND DUP4 PUSH20 0xFFFFFFFFFFFFFFFFFFFFFFFFFFFFFFFFFFFFFFFF AND EQ ISZERO DUP1 ISZERO PUSH2 0x1DE7 JUMPI POP DUP1 PUSH1 0x8 ADD PUSH0 SWAP1 SLOAD SWAP1 PUSH2 0x100 EXP SWAP1 DIV PUSH20 0xFFFFFFFFFFFFFFFFFFFFFFFFFFFFFFFFFFFFFFFF AND PUSH20 0xFFFFFFFFFFFFFFFFFFFFFFFFFFFFFFFFFFFFFFFF AND PUSH4 0xB6C8373 DUP5 PUSH1 0x40 MLOAD DUP3 PUSH4 0xFFFFFFFF AND PUSH1 0xE0 SHL DUP2 MSTORE PUSH1 0x4 ADD PUSH2 0x1D04 SWAP2 SWAP1 PUSH2 0x7AD9 JUMP JUMPDEST PUSH1 0x20 PUSH1 0x40 MLOAD DUP1 DUP4 SUB DUP2 DUP7 GAS STATICCALL ISZERO DUP1 ISZERO PUSH2 0x1D1F JUMPI RETURNDATASIZE PUSH0 DUP1 RETURNDATACOPY RETURNDATASIZE PUSH0 REVERT JUMPDEST POP POP POP POP PUSH1 0x40 MLOAD RETURNDATASIZE PUSH1 0x1F NOT PUSH1 0x1F DUP3 ADD AND DUP3 ADD DUP1 PUSH1 0x40 MSTORE POP DUP2 ADD SWAP1 PUSH2 0x1D43 SWAP2 SWAP1 PUSH2 0x8737 JUMP JUMPDEST ISZERO DUP1 PUSH2 0x1DE6 JUMPI POP DUP1 PUSH1 0x8 ADD PUSH0 SWAP1 SLOAD SWAP1 PUSH2 0x100 EXP SWAP1 DIV PUSH20 0xFFFFFFFFFFFFFFFFFFFFFFFFFFFFFFFFFFFFFFFF AND PUSH20 0xFFFFFFFFFFFFFFFFFFFFFFFFFFFFFFFFFFFFFFFF AND PUSH4 0x9086AFA1 DUP5 PUSH1 0x40 MLOAD DUP3 PUSH4 0xFFFFFFFF AND PUSH1 0xE0 SHL DUP2 MSTORE PUSH1 0x4 ADD PUSH2 0x1DA6 SWAP2 SWAP1 PUSH2 0x7AD9 JUMP JUMPDEST PUSH1 0x20 PUSH1 0x40 MLOAD DUP1 DUP4 SUB DUP2 DUP7 GAS STATICCALL ISZERO DUP1 ISZERO PUSH2 0x1DC1 JUMPI RETURNDATASIZE PUSH0 DUP1 RETURNDATACOPY RETURNDATASIZE PUSH0 REVERT JUMPDEST POP POP POP POP PUSH1 0x40 MLOAD RETURNDATASIZE PUSH1 0x1F NOT PUSH1 0x1F DUP3 ADD AND DUP3 ADD DUP1 PUSH1 0x40 MSTORE POP DUP2 ADD SWAP1 PUSH2 0x1DE5 SWAP2 SWAP1 PUSH2 0x8737 JUMP JUMPDEST JUMPDEST JUMPDEST ISZERO PUSH2 0x1E29 JUMPI DUP3 PUSH1 0x40 MLOAD PUSH32 0x83208B1800000000000000000000000000000000000000000000000000000000 DUP2 MSTORE PUSH1 0x4 ADD PUSH2 0x1E20 SWAP2 SWAP1 PUSH2 0x7AD9 JUMP JUMPDEST PUSH1 0x40 MLOAD DUP1 SWAP2 SUB SWAP1 REVERT JUMPDEST PUSH0 PUSH2 0x1E32 PUSH2 0x410A JUMP JUMPDEST SWAP1 POP PUSH0 PUSH2 0x1E3D PUSH2 0x12C1 JUMP JUMPDEST SWAP1 POP PUSH0 PUSH2 0x1E4B DUP7 DUP5 DUP5 PUSH2 0x4D2C JUMP JUMPDEST SWAP1 POP PUSH2 0x1E56 DUP7 PUSH2 0x19FA JUMP JUMPDEST DUP2 EQ PUSH2 0x1E8E JUMPI PUSH1 0x40 MLOAD PUSH32 0xBB55FD2700000000000000000000000000000000000000000000000000000000 DUP2 MSTORE PUSH1 0x4 ADD PUSH1 0x40 MLOAD DUP1 SWAP2 SUB SWAP1 REVERT JUMPDEST PUSH0 PUSH2 0x1E9B DUP3 PUSH0 DUP7 DUP7 PUSH2 0x4E16 JUMP JUMPDEST SWAP1 POP PUSH0 DUP2 SUB PUSH2 0x1ED6 JUMPI PUSH1 0x40 MLOAD PUSH32 0x784F01900000000000000000000000000000000000000000000000000000000 DUP2 MSTORE PUSH1 0x4 ADD PUSH1 0x40 MLOAD DUP1 SWAP2 SUB SWAP1 REVERT JUMPDEST PUSH2 0x1EE3 DUP8 DUP9 DUP10 DUP5 DUP7 PUSH2 0x4E62 JUMP JUMPDEST DUP1 SWAP6 POP POP POP POP POP POP PUSH2 0x1EF3 PUSH2 0x391C JUMP JUMPDEST SWAP2 SWAP1 POP JUMP JUMPDEST PUSH0 PUSH2 0x1F01 PUSH2 0x387B JUMP JUMPDEST PUSH1 0x3 ADD SLOAD SWAP1 POP SWAP1 JUMP JUMPDEST PUSH0 PUSH2 0x1F13 PUSH2 0x1C27 JUMP JUMPDEST SWAP1 POP SWAP1 JUMP JUMPDEST PUSH0 DUP1 PUSH2 0x1F22 PUSH2 0x3F45 JUMP JUMPDEST SWAP1 POP DUP1 PUSH0 ADD PUSH0 DUP6 DUP2 MSTORE PUSH1 0x20 ADD SWAP1 DUP2 MSTORE PUSH1 0x20 ADD PUSH0 KECCAK256 PUSH0 ADD PUSH0 DUP5 PUSH20 0xFFFFFFFFFFFFFFFFFFFFFFFFFFFFFFFFFFFFFFFF AND PUSH20 0xFFFFFFFFFFFFFFFFFFFFFFFFFFFFFFFFFFFFFFFF AND DUP2 MSTORE PUSH1 0x20 ADD SWAP1 DUP2 MSTORE PUSH1 0x20 ADD PUSH0 KECCAK256 PUSH0 SWAP1 SLOAD SWAP1 PUSH2 0x100 EXP SWAP1 DIV PUSH1 0xFF AND SWAP2 POP POP SWAP3 SWAP2 POP POP JUMP JUMPDEST PUSH0 PUSH2 0x1F92 PUSH2 0x387B JUMP JUMPDEST PUSH1 0x6 ADD PUSH0 SWAP1 SLOAD SWAP1 PUSH2 0x100 EXP SWAP1 DIV PUSH1 0xFF AND SWAP1 POP SWAP1 JUMP JUMPDEST PUSH0 PUSH2 0x1FB0 PUSH2 0x3827 JUMP JUMPDEST DUP2 PUSH2 0x1FBA DUP2 PUSH2 0x39B2 JUMP JUMPDEST PUSH2 0x1FC2 PUSH2 0x3BD1 JUMP JUMPDEST PUSH2 0x1FCB DUP2 PUSH2 0x3BD8 JUMP JUMPDEST PUSH2 0x1FD3 PUSH2 0x438F JUMP JUMPDEST PUSH0 DUP6 SUB PUSH2 0x200C JUMPI PUSH1 0x40 MLOAD PUSH32 0xCBCA5AA200000000000000000000000000000000000000000000000000000000 DUP2 MSTORE PUSH1 0x4 ADD PUSH1 0x40 MLOAD DUP1 SWAP2 SUB SWAP1 REVERT JUMPDEST PUSH2 0x2015 DUP6 PUSH2 0x3EA0 JUMP JUMPDEST PUSH0 PUSH2 0x201E PUSH2 0x410A JUMP JUMPDEST SWAP1 POP PUSH0 PUSH2 0x2029 PUSH2 0x12C1 JUMP JUMPDEST SWAP1 POP PUSH0 PUSH2 0x2036 DUP4 DUP4 PUSH2 0x5194 JUMP JUMPDEST SWAP1 POP DUP1 DUP9 GT ISZERO PUSH2 0x2081 JUMPI DUP7 DUP9 DUP3 PUSH1 0x40 MLOAD PUSH32 0x284FF66700000000000000000000000000000000000000000000000000000000 DUP2 MSTORE PUSH1 0x4 ADD PUSH2 0x2078 SWAP4 SWAP3 SWAP2 SWAP1 PUSH2 0x8762 JUMP JUMPDEST PUSH1 0x40 MLOAD DUP1 SWAP2 SUB SWAP1 REVERT JUMPDEST PUSH0 DUP1 PUSH2 0x208E DUP11 DUP7 DUP7 PUSH2 0x5206 JUMP JUMPDEST SWAP2 POP SWAP2 POP PUSH0 DUP3 SUB PUSH2 0x20CB JUMPI PUSH1 0x40 MLOAD PUSH32 0x784F01900000000000000000000000000000000000000000000000000000000 DUP2 MSTORE PUSH1 0x4 ADD PUSH1 0x40 MLOAD DUP1 SWAP2 SUB SWAP1 REVERT JUMPDEST PUSH2 0x20DF PUSH2 0x20D6 PUSH2 0x3BD1 JUMP JUMPDEST DUP11 DUP5 DUP14 DUP6 PUSH2 0x4452 JUMP JUMPDEST DUP2 SWAP8 POP POP POP POP POP POP POP POP PUSH2 0x20F1 PUSH2 0x391C JUMP JUMPDEST SWAP3 SWAP2 POP POP JUMP JUMPDEST PUSH2 0x20FF PUSH2 0x4808 JUMP JUMPDEST PUSH2 0x2108 DUP2 PUSH2 0x4BFD JUMP JUMPDEST POP JUMP JUMPDEST PUSH1 0x60 PUSH0 PUSH2 0x2116 PUSH2 0x3933 JUMP JUMPDEST SWAP1 POP DUP1 PUSH1 0x4 ADD DUP1 SLOAD PUSH2 0x2127 SWAP1 PUSH2 0x82D8 JUMP JUMPDEST DUP1 PUSH1 0x1F ADD PUSH1 0x20 DUP1 SWAP2 DIV MUL PUSH1 0x20 ADD PUSH1 0x40 MLOAD SWAP1 DUP2 ADD PUSH1 0x40 MSTORE DUP1 SWAP3 SWAP2 SWAP1 DUP2 DUP2 MSTORE PUSH1 0x20 ADD DUP3 DUP1 SLOAD PUSH2 0x2153 SWAP1 PUSH2 0x82D8 JUMP JUMPDEST DUP1 ISZERO PUSH2 0x219E JUMPI DUP1 PUSH1 0x1F LT PUSH2 0x2175 JUMPI PUSH2 0x100 DUP1 DUP4 SLOAD DIV MUL DUP4 MSTORE SWAP2 PUSH1 0x20 ADD SWAP2 PUSH2 0x219E JUMP JUMPDEST DUP3 ADD SWAP2 SWAP1 PUSH0 MSTORE PUSH1 0x20 PUSH0 KECCAK256 SWAP1 JUMPDEST DUP2 SLOAD DUP2 MSTORE SWAP1 PUSH1 0x1 ADD SWAP1 PUSH1 0x20 ADD DUP1 DUP4 GT PUSH2 0x2181 JUMPI DUP3 SWAP1 SUB PUSH1 0x1F AND DUP3 ADD SWAP2 JUMPDEST POP POP POP POP POP SWAP2 POP POP SWAP1 JUMP JUMPDEST PUSH0 DUP1 PUSH0 PUSH2 0x21B4 PUSH2 0x3FB5 JUMP JUMPDEST SWAP1 POP DUP1 PUSH1 0x1 ADD PUSH1 0x1A SWAP1 SLOAD SWAP1 PUSH2 0x100 EXP SWAP1 DIV PUSH6 0xFFFFFFFFFFFF AND SWAP2 POP PUSH2 0x21D8 DUP3 PUSH2 0x3FDC JUMP JUMPDEST DUP1 ISZERO PUSH2 0x21EA JUMPI POP PUSH2 0x21E8 DUP3 PUSH2 0x3FF0 JUMP JUMPDEST ISZERO JUMPDEST PUSH2 0x21F5 JUMPI PUSH0 DUP1 PUSH2 0x220E JUMP JUMPDEST DUP1 PUSH1 0x1 ADD PUSH1 0x14 SWAP1 SLOAD SWAP1 PUSH2 0x100 EXP SWAP1 DIV PUSH6 0xFFFFFFFFFFFF AND DUP3 JUMPDEST SWAP3 POP SWAP3 POP POP SWAP1 SWAP2 JUMP JUMPDEST PUSH0 DUP1 SHL DUP2 JUMP JUMPDEST PUSH2 0x2225 PUSH2 0x3827 JUMP JUMPDEST PUSH32 0x4645455F434F4C4C4543544F5200000000000000000000000000000000000000 PUSH2 0x224F DUP2 PUSH2 0x3E80 JUMP JUMPDEST PUSH0 PUSH2 0x2258 PUSH2 0x387B JUMP JUMPDEST SWAP1 POP PUSH0 DUP1 PUSH2 0x2264 PUSH2 0x3D1E JUMP JUMPDEST SWAP2 POP SWAP2 POP PUSH0 PUSH2 0x2296 DUP4 DUP6 PUSH1 0x7 ADD SLOAD PUSH2 0x227C SWAP2 SWAP1 PUSH2 0x84AE JUMP JUMPDEST PUSH0 DUP5 DUP7 PUSH2 0x2287 PUSH2 0x12C1 JUMP JUMPDEST PUSH2 0x2291 SWAP2 SWAP1 PUSH2 0x84AE JUMP JUMPDEST PUSH2 0x4E16 JUMP JUMPDEST SWAP1 POP PUSH0 DUP2 SUB PUSH2 0x22D1 JUMPI PUSH1 0x40 MLOAD PUSH32 0x7B2C2FEF00000000000000000000000000000000000000000000000000000000 DUP2 MSTORE PUSH1 0x4 ADD PUSH1 0x40 MLOAD DUP1 SWAP2 SUB SWAP1 REVERT JUMPDEST PUSH0 PUSH2 0x22DA PUSH2 0x1598 JUMP JUMPDEST PUSH20 0xFFFFFFFFFFFFFFFFFFFFFFFFFFFFFFFFFFFFFFFF AND PUSH4 0x70A08231 ADDRESS PUSH1 0x40 MLOAD DUP3 PUSH4 0xFFFFFFFF AND PUSH1 0xE0 SHL DUP2 MSTORE PUSH1 0x4 ADD PUSH2 0x2312 SWAP2 SWAP1 PUSH2 0x7AD9 JUMP JUMPDEST PUSH1 0x20 PUSH1 0x40 MLOAD DUP1 DUP4 SUB DUP2 DUP7 GAS STATICCALL ISZERO DUP1 ISZERO PUSH2 0x232D JUMPI RETURNDATASIZE PUSH0 DUP1 RETURNDATACOPY RETURNDATASIZE PUSH0 REVERT JUMPDEST POP POP POP POP PUSH1 0x40 MLOAD RETURNDATASIZE PUSH1 0x1F NOT PUSH1 0x1F DUP3 ADD AND DUP3 ADD DUP1 PUSH1 0x40 MSTORE POP DUP2 ADD SWAP1 PUSH2 0x2351 SWAP2 SWAP1 PUSH2 0x8239 JUMP JUMPDEST SWAP1 POP PUSH0 DUP6 PUSH0 ADD PUSH0 SWAP1 SLOAD SWAP1 PUSH2 0x100 EXP SWAP1 DIV PUSH20 0xFFFFFFFFFFFFFFFFFFFFFFFFFFFFFFFFFFFFFFFF AND PUSH20 0xFFFFFFFFFFFFFFFFFFFFFFFFFFFFFFFFFFFFFFFF AND PUSH4 0x5FBFEB46 DUP8 PUSH1 0x1 ADD SLOAD PUSH1 0x40 MLOAD DUP3 PUSH4 0xFFFFFFFF AND PUSH1 0xE0 SHL DUP2 MSTORE PUSH1 0x4 ADD PUSH2 0x23B3 SWAP2 SWAP1 PUSH2 0x76DD JUMP JUMPDEST PUSH1 0x20 PUSH1 0x40 MLOAD DUP1 DUP4 SUB DUP2 DUP7 GAS STATICCALL ISZERO DUP1 ISZERO PUSH2 0x23CE JUMPI RETURNDATASIZE PUSH0 DUP1 RETURNDATACOPY RETURNDATASIZE PUSH0 REVERT JUMPDEST POP POP POP POP PUSH1 0x40 MLOAD RETURNDATASIZE PUSH1 0x1F NOT PUSH1 0x1F DUP3 ADD AND DUP3 ADD DUP1 PUSH1 0x40 MSTORE POP DUP2 ADD SWAP1 PUSH2 0x23F2 SWAP2 SWAP1 PUSH2 0x88DC JUMP JUMPDEST SWAP1 POP PUSH2 0x247B PUSH2 0x23FF PUSH2 0x1598 JUMP JUMPDEST DUP5 PUSH1 0x40 MLOAD PUSH1 0x24 ADD PUSH2 0x2411 SWAP3 SWAP2 SWAP1 PUSH2 0x8907 JUMP JUMPDEST PUSH1 0x40 MLOAD PUSH1 0x20 DUP2 DUP4 SUB SUB DUP2 MSTORE SWAP1 PUSH1 0x40 MSTORE PUSH4 0xF3FEF3A3 PUSH1 0xE0 SHL PUSH1 0x20 DUP3 ADD DUP1 MLOAD PUSH28 0xFFFFFFFFFFFFFFFFFFFFFFFFFFFFFFFFFFFFFFFFFFFFFFFFFFFFFFFF DUP4 DUP2 DUP4 AND OR DUP4 MSTORE POP POP POP POP DUP3 PUSH20 0xFFFFFFFFFFFFFFFFFFFFFFFFFFFFFFFFFFFFFFFF AND PUSH2 0x52D5 SWAP1 SWAP2 SWAP1 PUSH4 0xFFFFFFFF AND JUMP JUMPDEST POP DUP6 PUSH1 0x9 ADD PUSH0 SWAP1 SLOAD SWAP1 PUSH2 0x100 EXP SWAP1 DIV PUSH20 0xFFFFFFFFFFFFFFFFFFFFFFFFFFFFFFFFFFFFFFFF AND PUSH20 0xFFFFFFFFFFFFFFFFFFFFFFFFFFFFFFFFFFFFFFFF AND PUSH4 0xFC5AD4D1 DUP4 PUSH2 0x24C4 PUSH2 0x1598 JUMP JUMPDEST PUSH20 0xFFFFFFFFFFFFFFFFFFFFFFFFFFFFFFFFFFFFFFFF AND PUSH4 0x70A08231 ADDRESS PUSH1 0x40 MLOAD DUP3 PUSH4 0xFFFFFFFF AND PUSH1 0xE0 SHL DUP2 MSTORE PUSH1 0x4 ADD PUSH2 0x24FC SWAP2 SWAP1 PUSH2 0x7AD9 JUMP JUMPDEST PUSH1 0x20 PUSH1 0x40 MLOAD DUP1 DUP4 SUB DUP2 DUP7 GAS STATICCALL ISZERO DUP1 ISZERO PUSH2 0x2517 JUMPI RETURNDATASIZE PUSH0 DUP1 RETURNDATACOPY RETURNDATASIZE PUSH0 REVERT JUMPDEST POP POP POP POP PUSH1 0x40 MLOAD RETURNDATASIZE PUSH1 0x1F NOT PUSH1 0x1F DUP3 ADD AND DUP3 ADD DUP1 PUSH1 0x40 MSTORE POP DUP2 ADD SWAP1 PUSH2 0x253B SWAP2 SWAP1 PUSH2 0x8239 JUMP JUMPDEST PUSH2 0x2545 SWAP2 SWAP1 PUSH2 0x892E JUMP JUMPDEST PUSH1 0x40 MLOAD DUP3 PUSH4 0xFFFFFFFF AND PUSH1 0xE0 SHL DUP2 MSTORE PUSH1 0x4 ADD PUSH2 0x2561 SWAP2 SWAP1 PUSH2 0x75AF JUMP JUMPDEST PUSH0 PUSH1 0x40 MLOAD DUP1 DUP4 SUB DUP2 PUSH0 DUP8 DUP1 EXTCODESIZE ISZERO DUP1 ISZERO PUSH2 0x2578 JUMPI PUSH0 DUP1 REVERT JUMPDEST POP GAS CALL ISZERO DUP1 ISZERO PUSH2 0x258A JUMPI RETURNDATASIZE PUSH0 DUP1 RETURNDATACOPY RETURNDATASIZE PUSH0 REVERT JUMPDEST POP POP POP POP PUSH2 0x259C ADDRESS DUP8 PUSH1 0x7 ADD SLOAD PUSH2 0x5355 JUMP JUMPDEST PUSH0 DUP7 PUSH1 0x7 ADD DUP2 SWAP1 SSTORE POP PUSH2 0x25AD PUSH2 0xEC0 JUMP JUMPDEST DUP7 PUSH1 0x4 ADD DUP2 SWAP1 SSTORE POP POP POP POP POP POP POP POP PUSH2 0x25C4 PUSH2 0x391C JUMP JUMPDEST JUMP JUMPDEST PUSH2 0x25CE PUSH2 0x7563 JUMP JUMPDEST PUSH2 0x25D6 PUSH2 0x387B JUMP JUMPDEST PUSH1 0x9 ADD PUSH0 SWAP1 SLOAD SWAP1 PUSH2 0x100 EXP SWAP1 DIV PUSH20 0xFFFFFFFFFFFFFFFFFFFFFFFFFFFFFFFFFFFFFFFF AND PUSH20 0xFFFFFFFFFFFFFFFFFFFFFFFFFFFFFFFFFFFFFFFF AND PUSH4 0xA7B09122 DUP4 PUSH1 0x40 MLOAD DUP3 PUSH4 0xFFFFFFFF AND PUSH1 0xE0 SHL DUP2 MSTORE PUSH1 0x4 ADD PUSH2 0x2631 SWAP2 SWAP1 PUSH2 0x75AF JUMP JUMPDEST PUSH1 0x60 PUSH1 0x40 MLOAD DUP1 DUP4 SUB DUP2 DUP7 GAS STATICCALL ISZERO DUP1 ISZERO PUSH2 0x264C JUMPI RETURNDATASIZE PUSH0 DUP1 RETURNDATACOPY RETURNDATASIZE PUSH0 REVERT JUMPDEST POP POP POP POP PUSH1 0x40 MLOAD RETURNDATASIZE PUSH1 0x1F NOT PUSH1 0x1F DUP3 ADD AND DUP3 ADD DUP1 PUSH1 0x40 MSTORE POP DUP2 ADD SWAP1 PUSH2 0x2670 SWAP2 SWAP1 PUSH2 0x8961 JUMP JUMPDEST SWAP1 POP SWAP2 SWAP1 POP JUMP JUMPDEST PUSH0 DUP1 PUSH0 PUSH2 0x2682 PUSH2 0x3D1E JUMP JUMPDEST SWAP2 POP SWAP2 POP PUSH0 PUSH2 0x268F PUSH2 0x387B JUMP JUMPDEST PUSH1 0x7 ADD SLOAD DUP4 PUSH2 0x269E SWAP2 SWAP1 PUSH2 0x84AE JUMP JUMPDEST SWAP1 POP PUSH2 0x26BE DUP2 PUSH0 DUP5 DUP7 PUSH2 0x26AF PUSH2 0x12C1 JUMP JUMPDEST PUSH2 0x26B9 SWAP2 SWAP1 PUSH2 0x84AE JUMP JUMPDEST PUSH2 0x4E16 JUMP JUMPDEST SWAP4 POP POP POP POP SWAP1 JUMP JUMPDEST PUSH0 DUP3 PUSH2 0x26D1 DUP2 PUSH2 0x39B2 JUMP JUMPDEST PUSH2 0x26D9 PUSH2 0x3BD1 JUMP JUMPDEST PUSH2 0x26E2 DUP2 PUSH2 0x3BD8 JUMP JUMPDEST DUP5 PUSH2 0x26EC DUP2 PUSH2 0x3BD8 JUMP JUMPDEST PUSH2 0x26F5 DUP6 PUSH2 0x3EA0 JUMP JUMPDEST PUSH2 0x26FF DUP7 DUP7 PUSH2 0x53D4 JUMP JUMPDEST SWAP4 POP POP POP POP SWAP3 SWAP2 POP POP JUMP JUMPDEST PUSH0 PUSH2 0x2713 PUSH2 0x387B JUMP JUMPDEST PUSH1 0x8 ADD PUSH1 0x15 SWAP1 SLOAD SWAP1 PUSH2 0x100 EXP SWAP1 DIV PUSH1 0xFF AND SWAP1 POP SWAP1 JUMP JUMPDEST PUSH0 DUP1 PUSH0 PUSH2 0x2734 PUSH2 0x3D1E JUMP JUMPDEST SWAP2 POP SWAP2 POP PUSH0 PUSH2 0x2756 DUP6 DUP4 DUP6 PUSH2 0x2747 PUSH2 0x12C1 JUMP JUMPDEST PUSH2 0x2751 SWAP2 SWAP1 PUSH2 0x84AE JUMP JUMPDEST PUSH2 0x5206 JUMP JUMPDEST POP SWAP1 POP DUP1 SWAP4 POP POP POP POP SWAP2 SWAP1 POP JUMP JUMPDEST PUSH0 PUSH2 0x276D PUSH2 0x3827 JUMP JUMPDEST DUP3 PUSH2 0x2777 DUP2 PUSH2 0x39B2 JUMP JUMPDEST DUP3 PUSH2 0x2781 DUP2 PUSH2 0x39B2 JUMP JUMPDEST PUSH2 0x2789 PUSH2 0x3BD1 JUMP JUMPDEST PUSH2 0x2792 DUP2 PUSH2 0x3BD8 JUMP JUMPDEST DUP5 PUSH2 0x279C DUP2 PUSH2 0x3BD8 JUMP JUMPDEST PUSH0 DUP9 SUB PUSH2 0x27D5 JUMPI PUSH1 0x40 MLOAD PUSH32 0xCBCA5AA200000000000000000000000000000000000000000000000000000000 DUP2 MSTORE PUSH1 0x4 ADD PUSH1 0x40 MLOAD DUP1 SWAP2 SUB SWAP1 REVERT JUMPDEST PUSH0 PUSH2 0x27DF DUP8 PUSH2 0x53F6 JUMP JUMPDEST SWAP1 POP DUP1 DUP10 GT ISZERO PUSH2 0x282A JUMPI DUP7 DUP10 DUP3 PUSH1 0x40 MLOAD PUSH32 0xFE9CCEEC00000000000000000000000000000000000000000000000000000000 DUP2 MSTORE PUSH1 0x4 ADD PUSH2 0x2821 SWAP4 SWAP3 SWAP2 SWAP1 PUSH2 0x8762 JUMP JUMPDEST PUSH1 0x40 MLOAD DUP1 SWAP2 SUB SWAP1 REVERT JUMPDEST PUSH0 PUSH2 0x2846 DUP11 PUSH1 0x1 PUSH2 0x2839 PUSH2 0x410A JUMP JUMPDEST PUSH2 0x2841 PUSH2 0x12C1 JUMP JUMPDEST PUSH2 0x549D JUMP JUMPDEST SWAP1 POP PUSH0 DUP2 SUB PUSH2 0x2881 JUMPI PUSH1 0x40 MLOAD PUSH32 0x784F01900000000000000000000000000000000000000000000000000000000 DUP2 MSTORE PUSH1 0x4 ADD PUSH1 0x40 MLOAD DUP1 SWAP2 SUB SWAP1 REVERT JUMPDEST PUSH2 0x288A DUP2 PUSH2 0x3E3A JUMP JUMPDEST SWAP1 POP PUSH2 0x28A0 PUSH2 0x2897 PUSH2 0x3BD1 JUMP JUMPDEST DUP11 DUP11 DUP14 DUP6 PUSH2 0x4E62 JUMP JUMPDEST DUP1 SWAP7 POP POP POP POP POP POP POP PUSH2 0x28B1 PUSH2 0x391C JUMP JUMPDEST SWAP4 SWAP3 POP POP POP JUMP JUMPDEST PUSH0 PUSH2 0x28C1 PUSH2 0x387B JUMP JUMPDEST PUSH0 ADD PUSH0 SWAP1 SLOAD SWAP1 PUSH2 0x100 EXP SWAP1 DIV PUSH20 0xFFFFFFFFFFFFFFFFFFFFFFFFFFFFFFFFFFFFFFFF AND SWAP1 POP SWAP1 JUMP JUMPDEST PUSH0 PUSH2 0x28F1 PUSH2 0x3827 JUMP JUMPDEST DUP3 PUSH2 0x28FB DUP2 PUSH2 0x39B2 JUMP JUMPDEST DUP3 PUSH2 0x2905 DUP2 PUSH2 0x39B2 JUMP JUMPDEST PUSH2 0x290D PUSH2 0x3BD1 JUMP JUMPDEST PUSH2 0x2916 DUP2 PUSH2 0x3BD8 JUMP JUMPDEST DUP5 PUSH2 0x2920 DUP2 PUSH2 0x3BD8 JUMP JUMPDEST PUSH0 DUP9 SUB PUSH2 0x2959 JUMPI PUSH1 0x40 MLOAD PUSH32 0xCBCA5AA200000000000000000000000000000000000000000000000000000000 DUP2 MSTORE PUSH1 0x4 ADD PUSH1 0x40 MLOAD DUP1 SWAP2 SUB SWAP1 REVERT JUMPDEST PUSH2 0x2962 DUP9 PUSH2 0x3EA0 JUMP JUMPDEST PUSH0 PUSH2 0x296B PUSH2 0x410A JUMP JUMPDEST SWAP1 POP PUSH0 PUSH2 0x2976 PUSH2 0x12C1 JUMP JUMPDEST SWAP1 POP PUSH0 PUSH2 0x2984 DUP10 DUP5 DUP5 PUSH2 0x4D2C JUMP JUMPDEST SWAP1 POP DUP1 DUP12 GT ISZERO PUSH2 0x29CF JUMPI DUP9 DUP12 DUP3 PUSH1 0x40 MLOAD PUSH32 0xB94ABEEC00000000000000000000000000000000000000000000000000000000 DUP2 MSTORE PUSH1 0x4 ADD PUSH2 0x29C6 SWAP4 SWAP3 SWAP2 SWAP1 PUSH2 0x8762 JUMP JUMPDEST PUSH1 0x40 MLOAD DUP1 SWAP2 SUB SWAP1 REVERT JUMPDEST POP PUSH0 PUSH2 0x29DD DUP12 PUSH0 DUP6 DUP6 PUSH2 0x4E16 JUMP JUMPDEST SWAP1 POP PUSH0 DUP2 SUB PUSH2 0x2A18 JUMPI PUSH1 0x40 MLOAD PUSH32 0x784F01900000000000000000000000000000000000000000000000000000000 DUP2 MSTORE PUSH1 0x4 ADD PUSH1 0x40 MLOAD DUP1 SWAP2 SUB SWAP1 REVERT JUMPDEST PUSH2 0x2A2C PUSH2 0x2A23 PUSH2 0x3BD1 JUMP JUMPDEST DUP12 DUP12 DUP5 DUP16 PUSH2 0x4E62 JUMP JUMPDEST DUP1 SWAP8 POP POP POP POP POP POP POP POP PUSH2 0x2A3E PUSH2 0x391C JUMP JUMPDEST SWAP4 SWAP3 POP POP POP JUMP JUMPDEST PUSH2 0x2A4D PUSH2 0x3827 JUMP JUMPDEST PUSH32 0x434C41494D5F4D414E4147455200000000000000000000000000000000000000 PUSH2 0x2A77 DUP2 PUSH2 0x3E80 JUMP JUMPDEST PUSH0 PUSH2 0x2A80 PUSH2 0x387B JUMP JUMPDEST SWAP1 POP PUSH0 PUSH2 0x2A8B PUSH2 0xEC0 JUMP JUMPDEST SWAP1 POP PUSH0 DUP3 PUSH0 ADD PUSH0 SWAP1 SLOAD SWAP1 PUSH2 0x100 EXP SWAP1 DIV PUSH20 0xFFFFFFFFFFFFFFFFFFFFFFFFFFFFFFFFFFFFFFFF AND PUSH20 0xFFFFFFFFFFFFFFFFFFFFFFFFFFFFFFFFFFFFFFFF AND PUSH4 0x5FBFEB46 DUP5 PUSH1 0x1 ADD SLOAD PUSH1 0x40 MLOAD DUP3 PUSH4 0xFFFFFFFF AND PUSH1 0xE0 SHL DUP2 MSTORE PUSH1 0x4 ADD PUSH2 0x2AED SWAP2 SWAP1 PUSH2 0x76DD JUMP JUMPDEST PUSH1 0x20 PUSH1 0x40 MLOAD DUP1 DUP4 SUB DUP2 DUP7 GAS STATICCALL ISZERO DUP1 ISZERO PUSH2 0x2B08 JUMPI RETURNDATASIZE PUSH0 DUP1 RETURNDATACOPY RETURNDATASIZE PUSH0 REVERT JUMPDEST POP POP POP POP PUSH1 0x40 MLOAD RETURNDATASIZE PUSH1 0x1F NOT PUSH1 0x1F DUP3 ADD AND DUP3 ADD DUP1 PUSH1 0x40 MSTORE POP DUP2 ADD SWAP1 PUSH2 0x2B2C SWAP2 SWAP1 PUSH2 0x88DC JUMP JUMPDEST SWAP1 POP PUSH1 0x1 PUSH1 0x2 DUP2 GT ISZERO PUSH2 0x2B42 JUMPI PUSH2 0x2B41 PUSH2 0x7E4F JUMP JUMPDEST JUMPDEST DUP4 PUSH1 0x8 ADD PUSH1 0x15 SWAP1 SLOAD SWAP1 PUSH2 0x100 EXP SWAP1 DIV PUSH1 0xFF AND PUSH1 0x2 DUP2 GT ISZERO PUSH2 0x2B66 JUMPI PUSH2 0x2B65 PUSH2 0x7E4F JUMP JUMPDEST JUMPDEST SUB PUSH2 0x2CF6 JUMPI PUSH0 DUP8 SWAP1 POP PUSH0 PUSH2 0x2BFB PUSH2 0x2B7B PUSH2 0x1598 JUMP JUMPDEST DUP4 DUP11 DUP11 PUSH1 0x40 MLOAD PUSH1 0x24 ADD PUSH2 0x2B91 SWAP5 SWAP4 SWAP3 SWAP2 SWAP1 PUSH2 0x89C6 JUMP JUMPDEST PUSH1 0x40 MLOAD PUSH1 0x20 DUP2 DUP4 SUB SUB DUP2 MSTORE SWAP1 PUSH1 0x40 MSTORE PUSH4 0x767081D1 PUSH1 0xE0 SHL PUSH1 0x20 DUP3 ADD DUP1 MLOAD PUSH28 0xFFFFFFFFFFFFFFFFFFFFFFFFFFFFFFFFFFFFFFFFFFFFFFFFFFFFFFFF DUP4 DUP2 DUP4 AND OR DUP4 MSTORE POP POP POP POP DUP5 PUSH20 0xFFFFFFFFFFFFFFFFFFFFFFFFFFFFFFFFFFFFFFFF AND PUSH2 0x52D5 SWAP1 SWAP2 SWAP1 PUSH4 0xFFFFFFFF AND JUMP JUMPDEST SWAP1 POP PUSH0 PUSH2 0x2C06 PUSH2 0xEC0 JUMP JUMPDEST SWAP1 POP DUP1 DUP6 GT ISZERO PUSH2 0x2C4F JUMPI DUP5 DUP2 PUSH1 0x40 MLOAD PUSH32 0x88B8D67D00000000000000000000000000000000000000000000000000000000 DUP2 MSTORE PUSH1 0x4 ADD PUSH2 0x2C46 SWAP3 SWAP2 SWAP1 PUSH2 0x8A04 JUMP JUMPDEST PUSH1 0x40 MLOAD DUP1 SWAP2 SUB SWAP1 REVERT JUMPDEST PUSH0 DUP3 DUP1 PUSH1 0x20 ADD SWAP1 MLOAD DUP2 ADD SWAP1 PUSH2 0x2C64 SWAP2 SWAP1 PUSH2 0x8239 JUMP JUMPDEST SWAP1 POP PUSH0 DUP2 SUB PUSH2 0x2C9F JUMPI PUSH1 0x40 MLOAD PUSH32 0xA835B44E00000000000000000000000000000000000000000000000000000000 DUP2 MSTORE PUSH1 0x4 ADD PUSH1 0x40 MLOAD DUP1 SWAP2 SUB SWAP1 REVERT JUMPDEST DUP11 PUSH20 0xFFFFFFFFFFFFFFFFFFFFFFFFFFFFFFFFFFFFFFFF AND PUSH32 0xFC30CDDEA38E2BF4D6EA7D3F9ED3B6AD7F176419F4963BD81318067A4AEE73FE DUP3 PUSH1 0x40 MLOAD PUSH2 0x2CE5 SWAP2 SWAP1 PUSH2 0x75AF JUMP JUMPDEST PUSH1 0x40 MLOAD DUP1 SWAP2 SUB SWAP1 LOG2 POP POP POP POP PUSH2 0x2EDB JUMP JUMPDEST PUSH1 0x2 DUP1 DUP2 GT ISZERO PUSH2 0x2D09 JUMPI PUSH2 0x2D08 PUSH2 0x7E4F JUMP JUMPDEST JUMPDEST DUP4 PUSH1 0x8 ADD PUSH1 0x15 SWAP1 SLOAD SWAP1 PUSH2 0x100 EXP SWAP1 DIV PUSH1 0xFF AND PUSH1 0x2 DUP2 GT ISZERO PUSH2 0x2D2D JUMPI PUSH2 0x2D2C PUSH2 0x7E4F JUMP JUMPDEST JUMPDEST SUB PUSH2 0x2EA8 JUMPI PUSH2 0x2DBD PUSH2 0x2D3D PUSH2 0x1598 JUMP JUMPDEST DUP9 DUP9 DUP9 PUSH1 0x40 MLOAD PUSH1 0x24 ADD PUSH2 0x2D53 SWAP5 SWAP4 SWAP3 SWAP2 SWAP1 PUSH2 0x89C6 JUMP JUMPDEST PUSH1 0x40 MLOAD PUSH1 0x20 DUP2 DUP4 SUB SUB DUP2 MSTORE SWAP1 PUSH1 0x40 MSTORE PUSH4 0xFD9C6188 PUSH1 0xE0 SHL PUSH1 0x20 DUP3 ADD DUP1 MLOAD PUSH28 0xFFFFFFFFFFFFFFFFFFFFFFFFFFFFFFFFFFFFFFFFFFFFFFFFFFFFFFFF DUP4 DUP2 DUP4 AND OR DUP4 MSTORE POP POP POP POP DUP3 PUSH20 0xFFFFFFFFFFFFFFFFFFFFFFFFFFFFFFFFFFFFFFFF AND PUSH2 0x52D5 SWAP1 SWAP2 SWAP1 PUSH4 0xFFFFFFFF AND JUMP JUMPDEST POP PUSH0 PUSH2 0x2DC7 PUSH2 0xEC0 JUMP JUMPDEST SWAP1 POP DUP1 DUP4 GT ISZERO PUSH2 0x2E10 JUMPI DUP3 DUP2 PUSH1 0x40 MLOAD PUSH32 0x88B8D67D00000000000000000000000000000000000000000000000000000000 DUP2 MSTORE PUSH1 0x4 ADD PUSH2 0x2E07 SWAP3 SWAP2 SWAP1 PUSH2 0x8A04 JUMP JUMPDEST PUSH1 0x40 MLOAD DUP1 SWAP2 SUB SWAP1 REVERT JUMPDEST DUP1 DUP4 SUB PUSH2 0x2E49 JUMPI PUSH1 0x40 MLOAD PUSH32 0xA835B44E00000000000000000000000000000000000000000000000000000000 DUP2 MSTORE PUSH1 0x4 ADD PUSH1 0x40 MLOAD DUP1 SWAP2 SUB SWAP1 REVERT JUMPDEST DUP8 PUSH20 0xFFFFFFFFFFFFFFFFFFFFFFFFFFFFFFFFFFFFFFFF AND PUSH32 0xFC30CDDEA38E2BF4D6EA7D3F9ED3B6AD7F176419F4963BD81318067A4AEE73FE DUP5 DUP4 PUSH2 0x2E8D SWAP2 SWAP1 PUSH2 0x892E JUMP JUMPDEST PUSH1 0x40 MLOAD PUSH2 0x2E9A SWAP2 SWAP1 PUSH2 0x75AF JUMP JUMPDEST PUSH1 0x40 MLOAD DUP1 SWAP2 SUB SWAP1 LOG2 POP PUSH2 0x2EDA JUMP JUMPDEST PUSH1 0x40 MLOAD PUSH32 0x8225331C00000000000000000000000000000000000000000000000000000000 DUP2 MSTORE PUSH1 0x4 ADD PUSH1 0x40 MLOAD DUP1 SWAP2 SUB SWAP1 REVERT JUMPDEST JUMPDEST POP POP POP POP PUSH2 0x2EE7 PUSH2 0x391C JUMP JUMPDEST POP POP POP JUMP JUMPDEST PUSH0 DUP1 PUSH2 0x2EF6 PUSH2 0x387B JUMP JUMPDEST SWAP1 POP DUP1 PUSH0 ADD PUSH0 SWAP1 SLOAD SWAP1 PUSH2 0x100 EXP SWAP1 DIV PUSH20 0xFFFFFFFFFFFFFFFFFFFFFFFFFFFFFFFFFFFFFFFF AND PUSH20 0xFFFFFFFFFFFFFFFFFFFFFFFFFFFFFFFFFFFFFFFF AND PUSH4 0x9E9E4666 DUP3 PUSH1 0x1 ADD SLOAD PUSH1 0x40 MLOAD DUP3 PUSH4 0xFFFFFFFF AND PUSH1 0xE0 SHL DUP2 MSTORE PUSH1 0x4 ADD PUSH2 0x2F57 SWAP2 SWAP1 PUSH2 0x76DD JUMP JUMPDEST PUSH1 0x20 PUSH1 0x40 MLOAD DUP1 DUP4 SUB DUP2 DUP7 GAS STATICCALL ISZERO DUP1 ISZERO PUSH2 0x2F72 JUMPI RETURNDATASIZE PUSH0 DUP1 RETURNDATACOPY RETURNDATASIZE PUSH0 REVERT JUMPDEST POP POP POP POP PUSH1 0x40 MLOAD RETURNDATASIZE PUSH1 0x1F NOT PUSH1 0x1F DUP3 ADD AND DUP3 ADD DUP1 PUSH1 0x40 MSTORE POP DUP2 ADD SWAP1 PUSH2 0x2F96 SWAP2 SWAP1 PUSH2 0x8737 JUMP JUMPDEST DUP1 PUSH2 0x2FAF JUMPI POP DUP1 PUSH1 0x8 ADD PUSH1 0x14 SWAP1 SLOAD SWAP1 PUSH2 0x100 EXP SWAP1 DIV PUSH1 0xFF AND JUMPDEST ISZERO PUSH2 0x2FBD JUMPI PUSH0 SWAP2 POP POP PUSH2 0x2FD9 JUMP JUMPDEST PUSH2 0x2FD5 PUSH2 0x2FC8 PUSH2 0xEC0 JUMP JUMPDEST PUSH2 0x2FD0 PUSH2 0x12C1 JUMP JUMPDEST PUSH2 0x5194 JUMP JUMPDEST SWAP2 POP POP JUMPDEST SWAP2 SWAP1 POP JUMP JUMPDEST PUSH0 PUSH2 0x2FE9 DUP3 PUSH0 PUSH2 0x54E9 JUMP JUMPDEST SWAP1 POP SWAP2 SWAP1 POP JUMP JUMPDEST PUSH32 0x53414E4354494F4E535F4D414E41474552000000000000000000000000000000 PUSH2 0x301A DUP2 PUSH2 0x3E80 JUMP JUMPDEST PUSH2 0x3023 DUP3 PUSH2 0x5541 JUMP JUMPDEST POP POP JUMP JUMPDEST PUSH32 0x434C41494D5F4D414E4147455200000000000000000000000000000000000000 DUP2 JUMP JUMPDEST PUSH0 DUP1 PUSH2 0x3055 PUSH2 0x3FB5 JUMP JUMPDEST SWAP1 POP PUSH0 DUP2 PUSH1 0x1 ADD PUSH1 0x1A SWAP1 SLOAD SWAP1 PUSH2 0x100 EXP SWAP1 DIV PUSH6 0xFFFFFFFFFFFF AND SWAP1 POP PUSH2 0x307A DUP2 PUSH2 0x3FDC JUMP JUMPDEST DUP1 ISZERO PUSH2 0x308B JUMPI POP PUSH2 0x308A DUP2 PUSH2 0x3FF0 JUMP JUMPDEST JUMPDEST PUSH2 0x30AA JUMPI DUP2 PUSH0 ADD PUSH1 0x1A SWAP1 SLOAD SWAP1 PUSH2 0x100 EXP SWAP1 DIV PUSH6 0xFFFFFFFFFFFF AND PUSH2 0x30C2 JUMP JUMPDEST DUP2 PUSH1 0x1 ADD PUSH1 0x14 SWAP1 SLOAD SWAP1 PUSH2 0x100 EXP SWAP1 DIV PUSH6 0xFFFFFFFFFFFF AND JUMPDEST SWAP3 POP POP POP SWAP1 JUMP JUMPDEST PUSH0 DUP1 PUSH2 0x30D3 PUSH2 0x387B JUMP JUMPDEST SWAP1 POP DUP1 PUSH0 ADD PUSH0 SWAP1 SLOAD SWAP1 PUSH2 0x100 EXP SWAP1 DIV PUSH20 0xFFFFFFFFFFFFFFFFFFFFFFFFFFFFFFFFFFFFFFFF AND PUSH20 0xFFFFFFFFFFFFFFFFFFFFFFFFFFFFFFFFFFFFFFFF AND PUSH4 0x9E9E4666 DUP3 PUSH1 0x1 ADD SLOAD PUSH1 0x40 MLOAD DUP3 PUSH4 0xFFFFFFFF AND PUSH1 0xE0 SHL DUP2 MSTORE PUSH1 0x4 ADD PUSH2 0x3134 SWAP2 SWAP1 PUSH2 0x76DD JUMP JUMPDEST PUSH1 0x20 PUSH1 0x40 MLOAD DUP1 DUP4 SUB DUP2 DUP7 GAS STATICCALL ISZERO DUP1 ISZERO PUSH2 0x314F JUMPI RETURNDATASIZE PUSH0 DUP1 RETURNDATACOPY RETURNDATASIZE PUSH0 REVERT JUMPDEST POP POP POP POP PUSH1 0x40 MLOAD RETURNDATASIZE PUSH1 0x1F NOT PUSH1 0x1F DUP3 ADD AND DUP3 ADD DUP1 PUSH1 0x40 MSTORE POP DUP2 ADD SWAP1 PUSH2 0x3173 SWAP2 SWAP1 PUSH2 0x8737 JUMP JUMPDEST ISZERO PUSH2 0x3181 JUMPI PUSH0 SWAP2 POP POP PUSH2 0x318E JUMP JUMPDEST PUSH2 0x318A DUP4 PUSH2 0x53F6 JUMP JUMPDEST SWAP2 POP POP JUMPDEST SWAP2 SWAP1 POP JUMP JUMPDEST PUSH0 PUSH2 0x319C PUSH2 0x3228 JUMP JUMPDEST POP SWAP1 POP DUP1 PUSH20 0xFFFFFFFFFFFFFFFFFFFFFFFFFFFFFFFFFFFFFFFF AND PUSH2 0x31BE PUSH2 0x3BD1 JUMP JUMPDEST PUSH20 0xFFFFFFFFFFFFFFFFFFFFFFFFFFFFFFFFFFFFFFFF AND EQ PUSH2 0x321D JUMPI PUSH2 0x31E1 PUSH2 0x3BD1 JUMP JUMPDEST PUSH1 0x40 MLOAD PUSH32 0xC22C802200000000000000000000000000000000000000000000000000000000 DUP2 MSTORE PUSH1 0x4 ADD PUSH2 0x3214 SWAP2 SWAP1 PUSH2 0x7AD9 JUMP JUMPDEST PUSH1 0x40 MLOAD DUP1 SWAP2 SUB SWAP1 REVERT JUMPDEST PUSH2 0x3225 PUSH2 0x55C4 JUMP JUMPDEST POP JUMP JUMPDEST PUSH0 DUP1 PUSH0 PUSH2 0x3233 PUSH2 0x3FB5 JUMP JUMPDEST SWAP1 POP DUP1 PUSH0 ADD PUSH0 SWAP1 SLOAD SWAP1 PUSH2 0x100 EXP SWAP1 DIV PUSH20 0xFFFFFFFFFFFFFFFFFFFFFFFFFFFFFFFFFFFFFFFF AND DUP2 PUSH0 ADD PUSH1 0x14 SWAP1 SLOAD SWAP1 PUSH2 0x100 EXP SWAP1 DIV PUSH6 0xFFFFFFFFFFFF AND SWAP3 POP SWAP3 POP POP SWAP1 SWAP2 JUMP JUMPDEST PUSH32 0x53414E4354494F4E535F4D414E41474552000000000000000000000000000000 DUP2 JUMP JUMPDEST PUSH0 DUP1 SHL DUP3 SUB PUSH2 0x32D6 JUMPI PUSH1 0x40 MLOAD PUSH32 0x3FC3C27A00000000000000000000000000000000000000000000000000000000 DUP2 MSTORE PUSH1 0x4 ADD PUSH1 0x40 MLOAD DUP1 SWAP2 SUB SWAP1 REVERT JUMPDEST PUSH2 0x32E0 DUP3 DUP3 PUSH2 0x569D JUMP JUMPDEST POP POP JUMP JUMPDEST PUSH0 DUP1 SHL PUSH2 0x32F0 DUP2 PUSH2 0x3E80 JUMP JUMPDEST PUSH2 0x32F8 PUSH2 0x56BF JUMP JUMPDEST POP JUMP JUMPDEST PUSH2 0x3303 PUSH2 0x7563 JUMP JUMPDEST PUSH2 0x330B PUSH2 0x387B JUMP JUMPDEST PUSH1 0x9 ADD PUSH0 SWAP1 SLOAD SWAP1 PUSH2 0x100 EXP SWAP1 DIV PUSH20 0xFFFFFFFFFFFFFFFFFFFFFFFFFFFFFFFFFFFFFFFF AND PUSH20 0xFFFFFFFFFFFFFFFFFFFFFFFFFFFFFFFFFFFFFFFF AND PUSH4 0xD78162E9 DUP4 PUSH1 0x40 MLOAD DUP3 PUSH4 0xFFFFFFFF AND PUSH1 0xE0 SHL DUP2 MSTORE PUSH1 0x4 ADD PUSH2 0x3366 SWAP2 SWAP1 PUSH2 0x7AD9 JUMP JUMPDEST PUSH1 0x60 PUSH1 0x40 MLOAD DUP1 DUP4 SUB DUP2 DUP7 GAS STATICCALL ISZERO DUP1 ISZERO PUSH2 0x3381 JUMPI RETURNDATASIZE PUSH0 DUP1 RETURNDATACOPY RETURNDATASIZE PUSH0 REVERT JUMPDEST POP POP POP POP PUSH1 0x40 MLOAD RETURNDATASIZE PUSH1 0x1F NOT PUSH1 0x1F DUP3 ADD AND DUP3 ADD DUP1 PUSH1 0x40 MSTORE POP DUP2 ADD SWAP1 PUSH2 0x33A5 SWAP2 SWAP1 PUSH2 0x8961 JUMP JUMPDEST SWAP1 POP SWAP2 SWAP1 POP JUMP JUMPDEST PUSH32 0x0 DUP2 JUMP JUMPDEST PUSH0 DUP1 PUSH2 0x33DA PUSH2 0x387B JUMP JUMPDEST SWAP1 POP DUP1 PUSH0 ADD PUSH0 SWAP1 SLOAD SWAP1 PUSH2 0x100 EXP SWAP1 DIV PUSH20 0xFFFFFFFFFFFFFFFFFFFFFFFFFFFFFFFFFFFFFFFF AND PUSH20 0xFFFFFFFFFFFFFFFFFFFFFFFFFFFFFFFFFFFFFFFF AND PUSH4 0x9E9E4666 DUP3 PUSH1 0x1 ADD SLOAD PUSH1 0x40 MLOAD DUP3 PUSH4 0xFFFFFFFF AND PUSH1 0xE0 SHL DUP2 MSTORE PUSH1 0x4 ADD PUSH2 0x343B SWAP2 SWAP1 PUSH2 0x76DD JUMP JUMPDEST PUSH1 0x20 PUSH1 0x40 MLOAD DUP1 DUP4 SUB DUP2 DUP7 GAS STATICCALL ISZERO DUP1 ISZERO PUSH2 0x3456 JUMPI RETURNDATASIZE PUSH0 DUP1 RETURNDATACOPY RETURNDATASIZE PUSH0 REVERT JUMPDEST POP POP POP POP PUSH1 0x40 MLOAD RETURNDATASIZE PUSH1 0x1F NOT PUSH1 0x1F DUP3 ADD AND DUP3 ADD DUP1 PUSH1 0x40 MSTORE POP DUP2 ADD SWAP1 PUSH2 0x347A SWAP2 SWAP1 PUSH2 0x8737 JUMP JUMPDEST ISZERO PUSH2 0x3488 JUMPI PUSH0 SWAP2 POP POP PUSH2 0x34A5 JUMP JUMPDEST PUSH2 0x34A1 DUP4 PUSH2 0x3494 PUSH2 0xEC0 JUMP JUMPDEST PUSH2 0x349C PUSH2 0x12C1 JUMP JUMPDEST PUSH2 0x4D2C JUMP JUMPDEST SWAP2 POP POP JUMPDEST SWAP2 SWAP1 POP JUMP JUMPDEST PUSH0 DUP1 PUSH2 0x34B4 PUSH2 0x3933 JUMP JUMPDEST SWAP1 POP DUP1 PUSH1 0x1 ADD PUSH0 DUP6 PUSH20 0xFFFFFFFFFFFFFFFFFFFFFFFFFFFFFFFFFFFFFFFF AND PUSH20 0xFFFFFFFFFFFFFFFFFFFFFFFFFFFFFFFFFFFFFFFF AND DUP2 MSTORE PUSH1 0x20 ADD SWAP1 DUP2 MSTORE PUSH1 0x20 ADD PUSH0 KECCAK256 PUSH0 DUP5 PUSH20 0xFFFFFFFFFFFFFFFFFFFFFFFFFFFFFFFFFFFFFFFF AND PUSH20 0xFFFFFFFFFFFFFFFFFFFFFFFFFFFFFFFFFFFFFFFF AND DUP2 MSTORE PUSH1 0x20 ADD SWAP1 DUP2 MSTORE PUSH1 0x20 ADD PUSH0 KECCAK256 SLOAD SWAP2 POP POP SWAP3 SWAP2 POP POP JUMP JUMPDEST PUSH32 0x5041555345520000000000000000000000000000000000000000000000000000 DUP2 JUMP JUMPDEST PUSH0 DUP1 PUSH0 PUSH2 0x3569 PUSH2 0x3D1E JUMP JUMPDEST SWAP2 POP SWAP2 POP PUSH0 PUSH2 0x358B DUP6 DUP4 DUP6 PUSH2 0x357C PUSH2 0x12C1 JUMP JUMPDEST PUSH2 0x3586 SWAP2 SWAP1 PUSH2 0x84AE JUMP JUMPDEST PUSH2 0x43E1 JUMP JUMPDEST POP SWAP1 POP DUP1 SWAP4 POP POP POP POP SWAP2 SWAP1 POP JUMP JUMPDEST PUSH1 0x60 PUSH2 0x35A3 PUSH2 0x4808 JUMP JUMPDEST PUSH2 0x369B DUP4 DUP4 DUP1 DUP1 PUSH1 0x1F ADD PUSH1 0x20 DUP1 SWAP2 DIV MUL PUSH1 0x20 ADD PUSH1 0x40 MLOAD SWAP1 DUP2 ADD PUSH1 0x40 MSTORE DUP1 SWAP4 SWAP3 SWAP2 SWAP1 DUP2 DUP2 MSTORE PUSH1 0x20 ADD DUP4 DUP4 DUP1 DUP3 DUP5 CALLDATACOPY PUSH0 DUP2 DUP5 ADD MSTORE PUSH1 0x1F NOT PUSH1 0x1F DUP3 ADD AND SWAP1 POP DUP1 DUP4 ADD SWAP3 POP POP POP POP POP POP POP PUSH32 0x0 PUSH20 0xFFFFFFFFFFFFFFFFFFFFFFFFFFFFFFFFFFFFFFFF AND PUSH4 0x273A041C PUSH1 0x40 MLOAD DUP2 PUSH4 0xFFFFFFFF AND PUSH1 0xE0 SHL DUP2 MSTORE PUSH1 0x4 ADD PUSH1 0x20 PUSH1 0x40 MLOAD DUP1 DUP4 SUB DUP2 DUP7 GAS STATICCALL ISZERO DUP1 ISZERO PUSH2 0x3653 JUMPI RETURNDATASIZE PUSH0 DUP1 RETURNDATACOPY RETURNDATASIZE PUSH0 REVERT JUMPDEST POP POP POP POP PUSH1 0x40 MLOAD RETURNDATASIZE PUSH1 0x1F NOT PUSH1 0x1F DUP3 ADD AND DUP3 ADD DUP1 PUSH1 0x40 MSTORE POP DUP2 ADD SWAP1 PUSH2 0x3677 SWAP2 SWAP1 PUSH2 0x88DC JUMP JUMPDEST PUSH20 0xFFFFFFFFFFFFFFFFFFFFFFFFFFFFFFFFFFFFFFFF AND PUSH2 0x52D5 SWAP1 SWAP2 SWAP1 PUSH4 0xFFFFFFFF AND JUMP JUMPDEST SWAP1 POP SWAP3 SWAP2 POP POP JUMP JUMPDEST PUSH32 0x434C41494D5F4D414E4147455200000000000000000000000000000000000000 PUSH2 0x36CD DUP2 PUSH2 0x3E80 JUMP JUMPDEST PUSH2 0x36D6 DUP3 PUSH2 0x56CB JUMP JUMPDEST POP POP JUMP JUMPDEST PUSH32 0x554E504155534552000000000000000000000000000000000000000000000000 DUP2 JUMP JUMPDEST PUSH0 DUP1 PUSH2 0x3708 PUSH2 0x387B JUMP JUMPDEST SWAP1 POP DUP1 PUSH0 ADD PUSH0 SWAP1 SLOAD SWAP1 PUSH2 0x100 EXP SWAP1 DIV PUSH20 0xFFFFFFFFFFFFFFFFFFFFFFFFFFFFFFFFFFFFFFFF AND PUSH20 0xFFFFFFFFFFFFFFFFFFFFFFFFFFFFFFFFFFFFFFFF AND PUSH4 0x8EAA6AC0 DUP3 PUSH1 0x1 ADD SLOAD PUSH1 0x40 MLOAD DUP3 PUSH4 0xFFFFFFFF AND PUSH1 0xE0 SHL DUP2 MSTORE PUSH1 0x4 ADD PUSH2 0x3769 SWAP2 SWAP1 PUSH2 0x76DD JUMP JUMPDEST PUSH1 0x20 PUSH1 0x40 MLOAD DUP1 DUP4 SUB DUP2 DUP7 GAS STATICCALL ISZERO DUP1 ISZERO PUSH2 0x3784 JUMPI RETURNDATASIZE PUSH0 DUP1 RETURNDATACOPY RETURNDATASIZE PUSH0 REVERT JUMPDEST POP POP POP POP PUSH1 0x40 MLOAD RETURNDATASIZE PUSH1 0x1F NOT PUSH1 0x1F DUP3 ADD AND DUP3 ADD DUP1 PUSH1 0x40 MSTORE POP DUP2 ADD SWAP1 PUSH2 0x37A8 SWAP2 SWAP1 PUSH2 0x88DC JUMP JUMPDEST SWAP2 POP POP SWAP1 JUMP JUMPDEST PUSH0 PUSH32 0x7965DB0B00000000000000000000000000000000000000000000000000000000 PUSH28 0xFFFFFFFFFFFFFFFFFFFFFFFFFFFFFFFFFFFFFFFFFFFFFFFFFFFFFFFF NOT AND DUP3 PUSH28 0xFFFFFFFFFFFFFFFFFFFFFFFFFFFFFFFFFFFFFFFFFFFFFFFFFFFFFFFF NOT AND EQ DUP1 PUSH2 0x3820 JUMPI POP PUSH2 0x381F DUP3 PUSH2 0x5738 JUMP JUMPDEST JUMPDEST SWAP1 POP SWAP2 SWAP1 POP JUMP JUMPDEST PUSH0 PUSH2 0x3830 PUSH2 0x57A1 JUMP JUMPDEST SWAP1 POP PUSH1 0x2 DUP2 PUSH0 ADD SLOAD SUB PUSH2 0x386F JUMPI PUSH1 0x40 MLOAD PUSH32 0x3EE5AEB500000000000000000000000000000000000000000000000000000000 DUP2 MSTORE PUSH1 0x4 ADD PUSH1 0x40 MLOAD DUP1 SWAP2 SUB SWAP1 REVERT JUMPDEST PUSH1 0x2 DUP2 PUSH0 ADD DUP2 SWAP1 SSTORE POP POP JUMP JUMPDEST PUSH0 PUSH32 0x6BB5A2A0AE924C2EA94F037035A09F65614421E2A7D96C9BCBD59ACDD32E6000 SWAP1 POP SWAP1 JUMP JUMPDEST PUSH0 PUSH2 0x38AB PUSH2 0x1598 JUMP JUMPDEST PUSH20 0xFFFFFFFFFFFFFFFFFFFFFFFFFFFFFFFFFFFFFFFF AND PUSH4 0x313CE567 PUSH1 0x40 MLOAD DUP2 PUSH4 0xFFFFFFFF AND PUSH1 0xE0 SHL DUP2 MSTORE PUSH1 0x4 ADD PUSH1 0x20 PUSH1 0x40 MLOAD DUP1 DUP4 SUB DUP2 DUP7 GAS STATICCALL ISZERO DUP1 ISZERO PUSH2 0x38F3 JUMPI RETURNDATASIZE PUSH0 DUP1 RETURNDATACOPY RETURNDATASIZE PUSH0 REVERT JUMPDEST POP POP POP POP PUSH1 0x40 MLOAD RETURNDATASIZE PUSH1 0x1F NOT PUSH1 0x1F DUP3 ADD AND DUP3 ADD DUP1 PUSH1 0x40 MSTORE POP DUP2 ADD SWAP1 PUSH2 0x3917 SWAP2 SWAP1 PUSH2 0x8A55 JUMP JUMPDEST SWAP1 POP SWAP1 JUMP JUMPDEST PUSH0 PUSH2 0x3925 PUSH2 0x57A1 JUMP JUMPDEST SWAP1 POP PUSH1 0x1 DUP2 PUSH0 ADD DUP2 SWAP1 SSTORE POP POP JUMP JUMPDEST PUSH0 PUSH32 0x52C63247E1F47DB19D5CE0460030C497F067CA4CEBF71BA98EEADABE20BACE00 SWAP1 POP SWAP1 JUMP JUMPDEST PUSH0 PUSH2 0x39AA PUSH1 0x1 PUSH2 0x3968 PUSH2 0xEC0 JUMP JUMPDEST PUSH2 0x3972 SWAP2 SWAP1 PUSH2 0x84AE JUMP JUMPDEST PUSH2 0x397A PUSH2 0x3DCE JUMP JUMPDEST PUSH1 0xA PUSH2 0x3986 SWAP2 SWAP1 PUSH2 0x8464 JUMP JUMPDEST PUSH2 0x398E PUSH2 0x12C1 JUMP JUMPDEST PUSH2 0x3998 SWAP2 SWAP1 PUSH2 0x84AE JUMP JUMPDEST DUP5 DUP7 PUSH2 0x3DED SWAP1 SWAP4 SWAP3 SWAP2 SWAP1 PUSH4 0xFFFFFFFF AND JUMP JUMPDEST SWAP1 POP SWAP3 SWAP2 POP POP JUMP JUMPDEST PUSH2 0x39BA PUSH2 0x387B JUMP JUMPDEST PUSH1 0x6 ADD PUSH0 SWAP1 SLOAD SWAP1 PUSH2 0x100 EXP SWAP1 DIV PUSH1 0xFF AND ISZERO DUP1 ISZERO PUSH2 0x3A0A JUMPI POP PUSH2 0x39DA PUSH2 0x3BD1 JUMP JUMPDEST PUSH20 0xFFFFFFFFFFFFFFFFFFFFFFFFFFFFFFFFFFFFFFFF AND DUP2 PUSH20 0xFFFFFFFFFFFFFFFFFFFFFFFFFFFFFFFFFFFFFFFF AND EQ ISZERO JUMPDEST DUP1 ISZERO PUSH2 0x3B97 JUMPI POP PUSH32 0x0 PUSH20 0xFFFFFFFFFFFFFFFFFFFFFFFFFFFFFFFFFFFFFFFF AND PUSH4 0x91D14854 PUSH32 0x5350454E44455200000000000000000000000000000000000000000000000000 PUSH2 0x3A76 PUSH2 0x3BD1 JUMP JUMPDEST PUSH1 0x40 MLOAD DUP4 PUSH4 0xFFFFFFFF AND PUSH1 0xE0 SHL DUP2 MSTORE PUSH1 0x4 ADD PUSH2 0x3A93 SWAP3 SWAP2 SWAP1 PUSH2 0x8A80 JUMP JUMPDEST PUSH1 0x20 PUSH1 0x40 MLOAD DUP1 DUP4 SUB DUP2 DUP7 GAS STATICCALL ISZERO DUP1 ISZERO PUSH2 0x3AAE JUMPI RETURNDATASIZE PUSH0 DUP1 RETURNDATACOPY RETURNDATASIZE PUSH0 REVERT JUMPDEST POP POP POP POP PUSH1 0x40 MLOAD RETURNDATASIZE PUSH1 0x1F NOT PUSH1 0x1F DUP3 ADD AND DUP3 ADD DUP1 PUSH1 0x40 MSTORE POP DUP2 ADD SWAP1 PUSH2 0x3AD2 SWAP2 SWAP1 PUSH2 0x8737 JUMP JUMPDEST ISZERO DUP1 ISZERO PUSH2 0x3B96 JUMPI POP PUSH32 0x0 PUSH20 0xFFFFFFFFFFFFFFFFFFFFFFFFFFFFFFFFFFFFFFFF AND PUSH4 0x91D14854 PUSH32 0x5350454E44455200000000000000000000000000000000000000000000000000 DUP4 PUSH1 0x40 MLOAD DUP4 PUSH4 0xFFFFFFFF AND PUSH1 0xE0 SHL DUP2 MSTORE PUSH1 0x4 ADD PUSH2 0x3B55 SWAP3 SWAP2 SWAP1 PUSH2 0x8A80 JUMP JUMPDEST PUSH1 0x20 PUSH1 0x40 MLOAD DUP1 DUP4 SUB DUP2 DUP7 GAS STATICCALL ISZERO DUP1 ISZERO PUSH2 0x3B70 JUMPI RETURNDATASIZE PUSH0 DUP1 RETURNDATACOPY RETURNDATASIZE PUSH0 REVERT JUMPDEST POP POP POP POP PUSH1 0x40 MLOAD RETURNDATASIZE PUSH1 0x1F NOT PUSH1 0x1F DUP3 ADD AND DUP3 ADD DUP1 PUSH1 0x40 MSTORE POP DUP2 ADD SWAP1 PUSH2 0x3B94 SWAP2 SWAP1 PUSH2 0x8737 JUMP JUMPDEST ISZERO JUMPDEST JUMPDEST ISZERO PUSH2 0x3BCE JUMPI PUSH1 0x40 MLOAD PUSH32 0xDC8D8DB700000000000000000000000000000000000000000000000000000000 DUP2 MSTORE PUSH1 0x4 ADD PUSH1 0x40 MLOAD DUP1 SWAP2 SUB SWAP1 REVERT JUMPDEST POP JUMP JUMPDEST PUSH0 CALLER SWAP1 POP SWAP1 JUMP JUMPDEST PUSH0 PUSH2 0x3BE1 PUSH2 0x387B JUMP JUMPDEST PUSH1 0x8 ADD PUSH0 SWAP1 SLOAD SWAP1 PUSH2 0x100 EXP SWAP1 DIV PUSH20 0xFFFFFFFFFFFFFFFFFFFFFFFFFFFFFFFFFFFFFFFF AND SWAP1 POP PUSH0 PUSH20 0xFFFFFFFFFFFFFFFFFFFFFFFFFFFFFFFFFFFFFFFF AND DUP2 PUSH20 0xFFFFFFFFFFFFFFFFFFFFFFFFFFFFFFFFFFFFFFFF AND EQ ISZERO DUP1 ISZERO PUSH2 0x3CB6 JUMPI POP DUP1 PUSH20 0xFFFFFFFFFFFFFFFFFFFFFFFFFFFFFFFFFFFFFFFF AND PUSH4 0xFBAC3951 DUP4 PUSH1 0x40 MLOAD DUP3 PUSH4 0xFFFFFFFF AND PUSH1 0xE0 SHL DUP2 MSTORE PUSH1 0x4 ADD PUSH2 0x3C76 SWAP2 SWAP1 PUSH2 0x7AD9 JUMP JUMPDEST PUSH1 0x20 PUSH1 0x40 MLOAD DUP1 DUP4 SUB DUP2 DUP7 GAS STATICCALL ISZERO DUP1 ISZERO PUSH2 0x3C91 JUMPI RETURNDATASIZE PUSH0 DUP1 RETURNDATACOPY RETURNDATASIZE PUSH0 REVERT JUMPDEST POP POP POP POP PUSH1 0x40 MLOAD RETURNDATASIZE PUSH1 0x1F NOT PUSH1 0x1F DUP3 ADD AND DUP3 ADD DUP1 PUSH1 0x40 MSTORE POP DUP2 ADD SWAP1 PUSH2 0x3CB5 SWAP2 SWAP1 PUSH2 0x8737 JUMP JUMPDEST JUMPDEST ISZERO PUSH2 0x3CF8 JUMPI DUP2 PUSH1 0x40 MLOAD PUSH32 0x71FA9C9900000000000000000000000000000000000000000000000000000000 DUP2 MSTORE PUSH1 0x4 ADD PUSH2 0x3CEF SWAP2 SWAP1 PUSH2 0x7AD9 JUMP JUMPDEST PUSH1 0x40 MLOAD DUP1 SWAP2 SUB SWAP1 REVERT JUMPDEST POP POP JUMP JUMPDEST PUSH0 DUP1 PUSH2 0x3D06 PUSH2 0x3BD1 JUMP JUMPDEST SWAP1 POP PUSH2 0x3D13 DUP2 DUP6 DUP6 PUSH2 0x57C8 JUMP JUMPDEST PUSH1 0x1 SWAP2 POP POP SWAP3 SWAP2 POP POP JUMP JUMPDEST PUSH0 DUP1 PUSH0 PUSH2 0x3D29 PUSH2 0x387B JUMP JUMPDEST SWAP1 POP PUSH2 0x3D33 PUSH2 0xEC0 JUMP JUMPDEST SWAP2 POP PUSH0 PUSH2 0x3D4D DUP3 PUSH1 0x4 ADD SLOAD DUP5 PUSH2 0x57DA SWAP1 SWAP2 SWAP1 PUSH4 0xFFFFFFFF AND JUMP JUMPDEST SWAP2 POP POP PUSH0 DUP2 EQ ISZERO DUP1 ISZERO PUSH2 0x3D64 JUMPI POP PUSH0 DUP3 PUSH1 0x3 ADD SLOAD EQ ISZERO JUMPDEST ISZERO PUSH2 0x3DC8 JUMPI PUSH0 PUSH2 0x3DA4 DUP4 PUSH1 0x3 ADD SLOAD PUSH2 0x3D7A PUSH2 0x38A2 JUMP JUMPDEST PUSH1 0xA PUSH2 0x3D86 SWAP2 SWAP1 PUSH2 0x8464 JUMP JUMPDEST PUSH1 0x64 PUSH2 0x3D92 SWAP2 SWAP1 PUSH2 0x8AA7 JUMP JUMPDEST PUSH0 DUP6 PUSH2 0x3DED SWAP1 SWAP4 SWAP3 SWAP2 SWAP1 PUSH4 0xFFFFFFFF AND JUMP JUMPDEST SWAP1 POP PUSH2 0x3DC4 DUP2 PUSH0 DUP4 DUP8 PUSH2 0x3DB7 SWAP2 SWAP1 PUSH2 0x892E JUMP JUMPDEST PUSH2 0x3DBF PUSH2 0x12C1 JUMP JUMPDEST PUSH2 0x549D JUMP JUMPDEST SWAP5 POP POP JUMPDEST POP POP SWAP1 SWAP2 JUMP JUMPDEST PUSH0 PUSH2 0x3DD7 PUSH2 0x387B JUMP JUMPDEST PUSH1 0x6 ADD PUSH1 0x1 SWAP1 SLOAD SWAP1 PUSH2 0x100 EXP SWAP1 DIV PUSH1 0xFF AND SWAP1 POP SWAP1 JUMP JUMPDEST PUSH0 PUSH2 0x3E1B PUSH2 0x3DFA DUP4 PUSH2 0x5800 JUMP JUMPDEST DUP1 ISZERO PUSH2 0x3E16 JUMPI POP PUSH0 DUP5 DUP1 PUSH2 0x3E11 JUMPI PUSH2 0x3E10 PUSH2 0x8AE8 JUMP JUMPDEST JUMPDEST DUP7 DUP9 MULMOD GT JUMPDEST PUSH2 0x582D JUMP JUMPDEST PUSH2 0x3E26 DUP7 DUP7 DUP7 PUSH2 0x5838 JUMP JUMPDEST PUSH2 0x3E30 SWAP2 SWAP1 PUSH2 0x84AE JUMP JUMPDEST SWAP1 POP SWAP5 SWAP4 POP POP POP POP JUMP JUMPDEST PUSH0 DUP1 PUSH2 0x3E44 PUSH2 0x3DCE JUMP JUMPDEST SWAP1 POP PUSH0 DUP2 PUSH1 0xFF AND GT ISZERO PUSH2 0x3E77 JUMPI DUP1 PUSH1 0xA PUSH2 0x3E5E SWAP2 SWAP1 PUSH2 0x8464 JUMP JUMPDEST DUP4 PUSH2 0x3E69 SWAP2 SWAP1 PUSH2 0x8B15 JUMP JUMPDEST DUP4 PUSH2 0x3E74 SWAP2 SWAP1 PUSH2 0x892E JUMP JUMPDEST SWAP3 POP JUMPDEST DUP3 SWAP2 POP POP SWAP2 SWAP1 POP JUMP JUMPDEST PUSH2 0x3E91 DUP2 PUSH2 0x3E8C PUSH2 0x3BD1 JUMP JUMPDEST PUSH2 0x591D JUMP JUMPDEST POP JUMP JUMPDEST PUSH2 0x3E9E PUSH0 DUP1 PUSH2 0x596E JUMP JUMPDEST JUMP JUMPDEST PUSH0 PUSH2 0x3EA9 PUSH2 0x3DCE JUMP JUMPDEST SWAP1 POP PUSH0 DUP2 PUSH1 0xFF AND GT ISZERO PUSH2 0x3F13 JUMPI PUSH0 DUP2 PUSH1 0xA PUSH2 0x3EC4 SWAP2 SWAP1 PUSH2 0x8464 JUMP JUMPDEST DUP4 PUSH2 0x3ECF SWAP2 SWAP1 PUSH2 0x8B15 JUMP JUMPDEST GT ISZERO PUSH2 0x3F12 JUMPI DUP2 PUSH1 0x40 MLOAD PUSH32 0x5588455C00000000000000000000000000000000000000000000000000000000 DUP2 MSTORE PUSH1 0x4 ADD PUSH2 0x3F09 SWAP2 SWAP1 PUSH2 0x75AF JUMP JUMPDEST PUSH1 0x40 MLOAD DUP1 SWAP2 SUB SWAP1 REVERT JUMPDEST JUMPDEST POP POP JUMP JUMPDEST PUSH0 DUP1 PUSH2 0x3F21 PUSH2 0x3BD1 JUMP JUMPDEST SWAP1 POP PUSH2 0x3F2E DUP6 DUP3 DUP6 PUSH2 0x5A72 JUMP JUMPDEST PUSH2 0x3F39 DUP6 DUP6 DUP6 PUSH2 0x5B05 JUMP JUMPDEST PUSH1 0x1 SWAP2 POP POP SWAP4 SWAP3 POP POP POP JUMP JUMPDEST PUSH0 PUSH32 0x2DD7BC7DEC4DCEEDDA775E58DD541E08A116C6C53815C0BD028192F7B626800 SWAP1 POP SWAP1 JUMP JUMPDEST PUSH2 0x3F75 DUP3 PUSH2 0x1334 JUMP JUMPDEST PUSH2 0x3F7E DUP2 PUSH2 0x3E80 JUMP JUMPDEST PUSH2 0x3F88 DUP4 DUP4 PUSH2 0x5BF5 JUMP JUMPDEST POP POP POP POP JUMP JUMPDEST PUSH0 PUSH32 0x773E532DFEDE91F04B12A73D3D2ACD361424F41F76B4FB79F090161E36B4E00 SWAP1 POP SWAP1 JUMP JUMPDEST PUSH0 PUSH32 0xEEF3DAC4538C82C8ACE4063AB0ACD2D15CDB5883AA1DFF7C2673ABB3D8698400 SWAP1 POP SWAP1 JUMP JUMPDEST PUSH0 DUP1 DUP3 PUSH6 0xFFFFFFFFFFFF AND EQ ISZERO SWAP1 POP SWAP2 SWAP1 POP JUMP JUMPDEST PUSH0 TIMESTAMP DUP3 PUSH6 0xFFFFFFFFFFFF AND LT SWAP1 POP SWAP2 SWAP1 POP JUMP JUMPDEST PUSH2 0x400B PUSH2 0x3BD1 JUMP JUMPDEST PUSH20 0xFFFFFFFFFFFFFFFFFFFFFFFFFFFFFFFFFFFFFFFF AND DUP2 PUSH20 0xFFFFFFFFFFFFFFFFFFFFFFFFFFFFFFFFFFFFFFFF AND EQ PUSH2 0x406F JUMPI PUSH1 0x40 MLOAD PUSH32 0x6697B23200000000000000000000000000000000000000000000000000000000 DUP2 MSTORE PUSH1 0x4 ADD PUSH1 0x40 MLOAD DUP1 SWAP2 SUB SWAP1 REVERT JUMPDEST PUSH2 0x4079 DUP3 DUP3 PUSH2 0x5CCC JUMP JUMPDEST POP POP POP JUMP JUMPDEST PUSH0 PUSH2 0x4087 PUSH2 0x36FE JUMP JUMPDEST PUSH20 0xFFFFFFFFFFFFFFFFFFFFFFFFFFFFFFFFFFFFFFFF AND PUSH4 0x402D267D PUSH2 0x40AA PUSH2 0x1598 JUMP JUMPDEST PUSH1 0x40 MLOAD DUP3 PUSH4 0xFFFFFFFF AND PUSH1 0xE0 SHL DUP2 MSTORE PUSH1 0x4 ADD PUSH2 0x40C6 SWAP2 SWAP1 PUSH2 0x8B45 JUMP JUMPDEST PUSH1 0x20 PUSH1 0x40 MLOAD DUP1 DUP4 SUB DUP2 DUP7 GAS STATICCALL ISZERO DUP1 ISZERO PUSH2 0x40E1 JUMPI RETURNDATASIZE PUSH0 DUP1 RETURNDATACOPY RETURNDATASIZE PUSH0 REVERT JUMPDEST POP POP POP POP PUSH1 0x40 MLOAD RETURNDATASIZE PUSH1 0x1F NOT PUSH1 0x1F DUP3 ADD AND DUP3 ADD DUP1 PUSH1 0x40 MSTORE POP DUP2 ADD SWAP1 PUSH2 0x4105 SWAP2 SWAP1 PUSH2 0x8239 JUMP JUMPDEST SWAP1 POP SWAP1 JUMP JUMPDEST PUSH0 DUP1 PUSH2 0x4114 PUSH2 0x3D1E JUMP JUMPDEST DUP1 SWAP4 POP DUP2 SWAP3 POP POP POP PUSH0 DUP2 EQ PUSH2 0x414F JUMPI PUSH2 0x412D ADDRESS DUP3 PUSH2 0x5D5A JUMP JUMPDEST DUP1 PUSH2 0x4136 PUSH2 0x387B JUMP JUMPDEST PUSH1 0x7 ADD PUSH0 DUP3 DUP3 SLOAD PUSH2 0x4147 SWAP2 SWAP1 PUSH2 0x84AE JUMP JUMPDEST SWAP3 POP POP DUP2 SWAP1 SSTORE POP JUMPDEST POP SWAP1 JUMP JUMPDEST PUSH2 0x415B PUSH2 0x38A2 JUMP JUMPDEST PUSH1 0xA PUSH2 0x4167 SWAP2 SWAP1 PUSH2 0x8464 JUMP JUMPDEST PUSH1 0x23 PUSH2 0x4173 SWAP2 SWAP1 PUSH2 0x8AA7 JUMP JUMPDEST DUP2 GT ISZERO PUSH2 0x41B7 JUMPI DUP1 PUSH1 0x40 MLOAD PUSH32 0x3877AE1A00000000000000000000000000000000000000000000000000000000 DUP2 MSTORE PUSH1 0x4 ADD PUSH2 0x41AE SWAP2 SWAP1 PUSH2 0x75AF JUMP JUMPDEST PUSH1 0x40 MLOAD DUP1 SWAP2 SUB SWAP1 REVERT JUMPDEST DUP1 PUSH2 0x41C0 PUSH2 0x387B JUMP JUMPDEST PUSH1 0x3 ADD DUP2 SWAP1 SSTORE POP PUSH32 0xA3A7237FA3E9815ECDCE2F7E32144FFCD5C299F01CE51E94B273896404C3F977 DUP2 PUSH1 0x40 MLOAD PUSH2 0x41F6 SWAP2 SWAP1 PUSH2 0x75AF JUMP JUMPDEST PUSH1 0x40 MLOAD DUP1 SWAP2 SUB SWAP1 LOG1 POP JUMP JUMPDEST PUSH2 0x4209 PUSH2 0x38A2 JUMP JUMPDEST PUSH1 0xA PUSH2 0x4215 SWAP2 SWAP1 PUSH2 0x8464 JUMP JUMPDEST PUSH1 0x23 PUSH2 0x4221 SWAP2 SWAP1 PUSH2 0x8AA7 JUMP JUMPDEST DUP2 GT ISZERO PUSH2 0x4265 JUMPI DUP1 PUSH1 0x40 MLOAD PUSH32 0xFF69E02A00000000000000000000000000000000000000000000000000000000 DUP2 MSTORE PUSH1 0x4 ADD PUSH2 0x425C SWAP2 SWAP1 PUSH2 0x75AF JUMP JUMPDEST PUSH1 0x40 MLOAD DUP1 SWAP2 SUB SWAP1 REVERT JUMPDEST DUP1 PUSH2 0x426E PUSH2 0x387B JUMP JUMPDEST PUSH1 0x2 ADD DUP2 SWAP1 SSTORE POP PUSH32 0x206DD15151FCC83315419FBE53A71FCF9C09DA803767D3DD05F7874E1B9BF645 DUP2 PUSH1 0x40 MLOAD PUSH2 0x42A4 SWAP2 SWAP1 PUSH2 0x75AF JUMP JUMPDEST PUSH1 0x40 MLOAD DUP1 SWAP2 SUB SWAP1 LOG1 POP JUMP JUMPDEST PUSH0 PUSH2 0x42B8 PUSH2 0x304B JUMP JUMPDEST PUSH2 0x42C1 TIMESTAMP PUSH2 0x5DD9 JUMP JUMPDEST PUSH2 0x42CB SWAP2 SWAP1 PUSH2 0x8B5E JUMP JUMPDEST SWAP1 POP PUSH2 0x42D7 DUP3 DUP3 PUSH2 0x5E32 JUMP JUMPDEST DUP2 PUSH20 0xFFFFFFFFFFFFFFFFFFFFFFFFFFFFFFFFFFFFFFFF AND PUSH32 0x3377DC44241E779DD06AFAB5B788A35CA5F3B778836E2990BDB26A2A4B2E5ED6 DUP3 PUSH1 0x40 MLOAD PUSH2 0x431D SWAP2 SWAP1 PUSH2 0x76AC JUMP JUMPDEST PUSH1 0x40 MLOAD DUP1 SWAP2 SUB SWAP1 LOG2 POP POP JUMP JUMPDEST PUSH0 PUSH2 0x4333 DUP3 PUSH2 0x5EF1 JUMP JUMPDEST PUSH2 0x433C TIMESTAMP PUSH2 0x5DD9 JUMP JUMPDEST PUSH2 0x4346 SWAP2 SWAP1 PUSH2 0x8B5E JUMP JUMPDEST SWAP1 POP PUSH2 0x4352 DUP3 DUP3 PUSH2 0x596E JUMP JUMPDEST PUSH32 0xF1038C18CF84A56E432FDBFAF746924B7EA511DFE03A6506A0CEBA4888788D9B DUP3 DUP3 PUSH1 0x40 MLOAD PUSH2 0x4383 SWAP3 SWAP2 SWAP1 PUSH2 0x7DCF JUMP JUMPDEST PUSH1 0x40 MLOAD DUP1 SWAP2 SUB SWAP1 LOG1 POP POP JUMP JUMPDEST PUSH2 0x4397 PUSH2 0x387B JUMP JUMPDEST PUSH1 0x8 ADD PUSH1 0x14 SWAP1 SLOAD SWAP1 PUSH2 0x100 EXP SWAP1 DIV PUSH1 0xFF AND ISZERO PUSH2 0x43DF JUMPI PUSH1 0x40 MLOAD PUSH32 0x35EDEA3000000000000000000000000000000000000000000000000000000000 DUP2 MSTORE PUSH1 0x4 ADD PUSH1 0x40 MLOAD DUP1 SWAP2 SUB SWAP1 REVERT JUMPDEST JUMP JUMPDEST PUSH0 DUP1 PUSH0 PUSH2 0x43EC PUSH2 0x387B JUMP JUMPDEST SWAP1 POP PUSH2 0x4426 DUP2 PUSH1 0x2 ADD SLOAD PUSH2 0x43FE PUSH2 0x38A2 JUMP JUMPDEST PUSH1 0xA PUSH2 0x440A SWAP2 SWAP1 PUSH2 0x8464 JUMP JUMPDEST PUSH1 0x64 PUSH2 0x4416 SWAP2 SWAP1 PUSH2 0x8AA7 JUMP JUMPDEST DUP9 PUSH2 0x5838 SWAP1 SWAP3 SWAP2 SWAP1 PUSH4 0xFFFFFFFF AND JUMP JUMPDEST SWAP2 POP PUSH2 0x4447 PUSH2 0x4442 DUP4 DUP9 PUSH2 0x443A SWAP2 SWAP1 PUSH2 0x892E JUMP JUMPDEST PUSH0 DUP9 DUP9 PUSH2 0x549D JUMP JUMPDEST PUSH2 0x3E3A JUMP JUMPDEST SWAP3 POP POP SWAP4 POP SWAP4 SWAP2 POP POP JUMP JUMPDEST PUSH0 PUSH2 0x445B PUSH2 0x1598 JUMP JUMPDEST PUSH20 0xFFFFFFFFFFFFFFFFFFFFFFFFFFFFFFFFFFFFFFFF AND PUSH4 0x70A08231 ADDRESS PUSH1 0x40 MLOAD DUP3 PUSH4 0xFFFFFFFF AND PUSH1 0xE0 SHL DUP2 MSTORE PUSH1 0x4 ADD PUSH2 0x4493 SWAP2 SWAP1 PUSH2 0x7AD9 JUMP JUMPDEST PUSH1 0x20 PUSH1 0x40 MLOAD DUP1 DUP4 SUB DUP2 DUP7 GAS STATICCALL ISZERO DUP1 ISZERO PUSH2 0x44AE JUMPI RETURNDATASIZE PUSH0 DUP1 RETURNDATACOPY RETURNDATASIZE PUSH0 REVERT JUMPDEST POP POP POP POP PUSH1 0x40 MLOAD RETURNDATASIZE PUSH1 0x1F NOT PUSH1 0x1F DUP3 ADD AND DUP3 ADD DUP1 PUSH1 0x40 MSTORE POP DUP2 ADD SWAP1 PUSH2 0x44D2 SWAP2 SWAP1 PUSH2 0x8239 JUMP JUMPDEST SWAP1 POP PUSH2 0x44E7 PUSH2 0x44DF PUSH2 0x1598 JUMP JUMPDEST DUP8 ADDRESS DUP8 PUSH2 0x5F4F JUMP JUMPDEST PUSH2 0x44F1 DUP6 DUP5 PUSH2 0x5D5A JUMP JUMPDEST PUSH0 PUSH2 0x44FA PUSH2 0x387B JUMP JUMPDEST SWAP1 POP DUP1 PUSH1 0x5 ADD SLOAD PUSH2 0x4509 PUSH2 0x12C1 JUMP JUMPDEST LT ISZERO PUSH2 0x4541 JUMPI PUSH1 0x40 MLOAD PUSH32 0xB086DE1300000000000000000000000000000000000000000000000000000000 DUP2 MSTORE PUSH1 0x4 ADD PUSH1 0x40 MLOAD DUP1 SWAP2 SUB SWAP1 REVERT JUMPDEST PUSH0 DUP2 PUSH0 ADD PUSH0 SWAP1 SLOAD SWAP1 PUSH2 0x100 EXP SWAP1 DIV PUSH20 0xFFFFFFFFFFFFFFFFFFFFFFFFFFFFFFFFFFFFFFFF AND PUSH20 0xFFFFFFFFFFFFFFFFFFFFFFFFFFFFFFFFFFFFFFFF AND PUSH4 0x5FBFEB46 DUP4 PUSH1 0x1 ADD SLOAD PUSH1 0x40 MLOAD DUP3 PUSH4 0xFFFFFFFF AND PUSH1 0xE0 SHL DUP2 MSTORE PUSH1 0x4 ADD PUSH2 0x45A1 SWAP2 SWAP1 PUSH2 0x76DD JUMP JUMPDEST PUSH1 0x20 PUSH1 0x40 MLOAD DUP1 DUP4 SUB DUP2 DUP7 GAS STATICCALL ISZERO DUP1 ISZERO PUSH2 0x45BC JUMPI RETURNDATASIZE PUSH0 DUP1 RETURNDATACOPY RETURNDATASIZE PUSH0 REVERT JUMPDEST POP POP POP POP PUSH1 0x40 MLOAD RETURNDATASIZE PUSH1 0x1F NOT PUSH1 0x1F DUP3 ADD AND DUP3 ADD DUP1 PUSH1 0x40 MSTORE POP DUP2 ADD SWAP1 PUSH2 0x45E0 SWAP2 SWAP1 PUSH2 0x88DC JUMP JUMPDEST SWAP1 POP PUSH2 0x46FD PUSH2 0x45ED PUSH2 0x1598 JUMP JUMPDEST DUP6 DUP6 PUSH2 0x45F7 PUSH2 0x1598 JUMP JUMPDEST PUSH20 0xFFFFFFFFFFFFFFFFFFFFFFFFFFFFFFFFFFFFFFFF AND PUSH4 0x70A08231 ADDRESS PUSH1 0x40 MLOAD DUP3 PUSH4 0xFFFFFFFF AND PUSH1 0xE0 SHL DUP2 MSTORE PUSH1 0x4 ADD PUSH2 0x462F SWAP2 SWAP1 PUSH2 0x7AD9 JUMP JUMPDEST PUSH1 0x20 PUSH1 0x40 MLOAD DUP1 DUP4 SUB DUP2 DUP7 GAS STATICCALL ISZERO DUP1 ISZERO PUSH2 0x464A JUMPI RETURNDATASIZE PUSH0 DUP1 RETURNDATACOPY RETURNDATASIZE PUSH0 REVERT JUMPDEST POP POP POP POP PUSH1 0x40 MLOAD RETURNDATASIZE PUSH1 0x1F NOT PUSH1 0x1F DUP3 ADD AND DUP3 ADD DUP1 PUSH1 0x40 MSTORE POP DUP2 ADD SWAP1 PUSH2 0x466E SWAP2 SWAP1 PUSH2 0x8239 JUMP JUMPDEST PUSH2 0x4678 SWAP2 SWAP1 PUSH2 0x892E JUMP JUMPDEST PUSH2 0x4682 SWAP2 SWAP1 PUSH2 0x892E JUMP JUMPDEST PUSH1 0x40 MLOAD PUSH1 0x24 ADD PUSH2 0x4693 SWAP3 SWAP2 SWAP1 PUSH2 0x8907 JUMP JUMPDEST PUSH1 0x40 MLOAD PUSH1 0x20 DUP2 DUP4 SUB SUB DUP2 MSTORE SWAP1 PUSH1 0x40 MSTORE PUSH4 0x47E7EF24 PUSH1 0xE0 SHL PUSH1 0x20 DUP3 ADD DUP1 MLOAD PUSH28 0xFFFFFFFFFFFFFFFFFFFFFFFFFFFFFFFFFFFFFFFFFFFFFFFFFFFFFFFF DUP4 DUP2 DUP4 AND OR DUP4 MSTORE POP POP POP POP DUP3 PUSH20 0xFFFFFFFFFFFFFFFFFFFFFFFFFFFFFFFFFFFFFFFF AND PUSH2 0x52D5 SWAP1 SWAP2 SWAP1 PUSH4 0xFFFFFFFF AND JUMP JUMPDEST POP PUSH2 0x4706 PUSH2 0xEC0 JUMP JUMPDEST DUP3 PUSH1 0x4 ADD DUP2 SWAP1 SSTORE POP DUP2 PUSH1 0x9 ADD PUSH0 SWAP1 SLOAD SWAP1 PUSH2 0x100 EXP SWAP1 DIV PUSH20 0xFFFFFFFFFFFFFFFFFFFFFFFFFFFFFFFFFFFFFFFF AND PUSH20 0xFFFFFFFFFFFFFFFFFFFFFFFFFFFFFFFFFFFFFFFF AND PUSH4 0x57A57524 DUP6 PUSH1 0x40 MLOAD DUP3 PUSH4 0xFFFFFFFF AND PUSH1 0xE0 SHL DUP2 MSTORE PUSH1 0x4 ADD PUSH2 0x476A SWAP2 SWAP1 PUSH2 0x75AF JUMP JUMPDEST PUSH0 PUSH1 0x40 MLOAD DUP1 DUP4 SUB DUP2 PUSH0 DUP8 DUP1 EXTCODESIZE ISZERO DUP1 ISZERO PUSH2 0x4781 JUMPI PUSH0 DUP1 REVERT JUMPDEST POP GAS CALL ISZERO DUP1 ISZERO PUSH2 0x4793 JUMPI RETURNDATASIZE PUSH0 DUP1 RETURNDATACOPY RETURNDATASIZE PUSH0 REVERT JUMPDEST POP POP POP POP DUP7 PUSH20 0xFFFFFFFFFFFFFFFFFFFFFFFFFFFFFFFFFFFFFFFF AND DUP9 PUSH20 0xFFFFFFFFFFFFFFFFFFFFFFFFFFFFFFFFFFFFFFFF AND PUSH32 0xDCBC1C05240F31FF3AD067EF1EE35CE4997762752E3A095284754544F4C709D7 DUP9 DUP9 PUSH1 0x40 MLOAD PUSH2 0x47F6 SWAP3 SWAP2 SWAP1 PUSH2 0x8A04 JUMP JUMPDEST PUSH1 0x40 MLOAD DUP1 SWAP2 SUB SWAP1 LOG3 POP POP POP POP POP POP POP POP JUMP JUMPDEST PUSH32 0x0 PUSH20 0xFFFFFFFFFFFFFFFFFFFFFFFFFFFFFFFFFFFFFFFF AND PUSH2 0x4847 PUSH2 0x3BD1 JUMP JUMPDEST PUSH20 0xFFFFFFFFFFFFFFFFFFFFFFFFFFFFFFFFFFFFFFFF AND EQ PUSH2 0x48A6 JUMPI PUSH2 0x486A PUSH2 0x3BD1 JUMP JUMPDEST PUSH1 0x40 MLOAD PUSH32 0x7CFF0D3300000000000000000000000000000000000000000000000000000000 DUP2 MSTORE PUSH1 0x4 ADD PUSH2 0x489D SWAP2 SWAP1 PUSH2 0x7AD9 JUMP JUMPDEST PUSH1 0x40 MLOAD DUP1 SWAP2 SUB SWAP1 REVERT JUMPDEST JUMP JUMPDEST PUSH0 PUSH2 0x48B1 PUSH2 0x5FD1 JUMP JUMPDEST SWAP1 POP PUSH0 DUP2 PUSH0 ADD PUSH1 0x8 SWAP1 SLOAD SWAP1 PUSH2 0x100 EXP SWAP1 DIV PUSH1 0xFF AND ISZERO SWAP1 POP PUSH0 DUP3 PUSH0 ADD PUSH0 SWAP1 SLOAD SWAP1 PUSH2 0x100 EXP SWAP1 DIV PUSH8 0xFFFFFFFFFFFFFFFF AND SWAP1 POP PUSH0 DUP1 DUP3 PUSH8 0xFFFFFFFFFFFFFFFF AND EQ DUP1 ISZERO PUSH2 0x48F9 JUMPI POP DUP3 JUMPDEST SWAP1 POP PUSH0 PUSH1 0x1 DUP4 PUSH8 0xFFFFFFFFFFFFFFFF AND EQ DUP1 ISZERO PUSH2 0x492C JUMPI POP PUSH0 ADDRESS PUSH20 0xFFFFFFFFFFFFFFFFFFFFFFFFFFFFFFFFFFFFFFFF AND EXTCODESIZE EQ JUMPDEST SWAP1 POP DUP2 ISZERO DUP1 ISZERO PUSH2 0x493A JUMPI POP DUP1 ISZERO JUMPDEST ISZERO PUSH2 0x4971 JUMPI PUSH1 0x40 MLOAD PUSH32 0xF92EE8A900000000000000000000000000000000000000000000000000000000 DUP2 MSTORE PUSH1 0x4 ADD PUSH1 0x40 MLOAD DUP1 SWAP2 SUB SWAP1 REVERT JUMPDEST PUSH1 0x1 DUP6 PUSH0 ADD PUSH0 PUSH2 0x100 EXP DUP2 SLOAD DUP2 PUSH8 0xFFFFFFFFFFFFFFFF MUL NOT AND SWAP1 DUP4 PUSH8 0xFFFFFFFFFFFFFFFF AND MUL OR SWAP1 SSTORE POP DUP4 ISZERO PUSH2 0x49BE JUMPI PUSH1 0x1 DUP6 PUSH0 ADD PUSH1 0x8 PUSH2 0x100 EXP DUP2 SLOAD DUP2 PUSH1 0xFF MUL NOT AND SWAP1 DUP4 ISZERO ISZERO MUL OR SWAP1 SSTORE POP JUMPDEST PUSH2 0x49D8 DUP7 PUSH0 ADD PUSH1 0x20 DUP2 ADD SWAP1 PUSH2 0x49D3 SWAP2 SWAP1 PUSH2 0x8BD2 JUMP JUMPDEST PUSH2 0x5FF8 JUMP JUMPDEST PUSH32 0x271B4511FF4AAEF63080EE912E106DAF4730D4103103ECE6B8945B8F63EE0249 DUP7 PUSH0 ADD PUSH1 0x20 DUP2 ADD SWAP1 PUSH2 0x4A0B SWAP2 SWAP1 PUSH2 0x8BD2 JUMP JUMPDEST PUSH1 0x40 MLOAD PUSH2 0x4A18 SWAP2 SWAP1 PUSH2 0x8B45 JUMP JUMPDEST PUSH1 0x40 MLOAD DUP1 SWAP2 SUB SWAP1 LOG1 PUSH2 0x4ACC DUP7 DUP1 PUSH1 0x20 ADD SWAP1 PUSH2 0x4A33 SWAP2 SWAP1 PUSH2 0x8C09 JUMP JUMPDEST DUP1 DUP1 PUSH1 0x1F ADD PUSH1 0x20 DUP1 SWAP2 DIV MUL PUSH1 0x20 ADD PUSH1 0x40 MLOAD SWAP1 DUP2 ADD PUSH1 0x40 MSTORE DUP1 SWAP4 SWAP3 SWAP2 SWAP1 DUP2 DUP2 MSTORE PUSH1 0x20 ADD DUP4 DUP4 DUP1 DUP3 DUP5 CALLDATACOPY PUSH0 DUP2 DUP5 ADD MSTORE PUSH1 0x1F NOT PUSH1 0x1F DUP3 ADD AND SWAP1 POP DUP1 DUP4 ADD SWAP3 POP POP POP POP POP POP POP DUP8 DUP1 PUSH1 0x40 ADD SWAP1 PUSH2 0x4A85 SWAP2 SWAP1 PUSH2 0x8C09 JUMP JUMPDEST DUP1 DUP1 PUSH1 0x1F ADD PUSH1 0x20 DUP1 SWAP2 DIV MUL PUSH1 0x20 ADD PUSH1 0x40 MLOAD SWAP1 DUP2 ADD PUSH1 0x40 MSTORE DUP1 SWAP4 SWAP3 SWAP2 SWAP1 DUP2 DUP2 MSTORE PUSH1 0x20 ADD DUP4 DUP4 DUP1 DUP3 DUP5 CALLDATACOPY PUSH0 DUP2 DUP5 ADD MSTORE PUSH1 0x1F NOT PUSH1 0x1F DUP3 ADD AND SWAP1 POP DUP1 DUP4 ADD SWAP3 POP POP POP POP POP POP POP PUSH2 0x600C JUMP JUMPDEST PUSH32 0x1099E0381CC51A0E48F876169BDB9DB942EB13641FD572C175C9C457C8861B13 DUP7 DUP1 PUSH1 0x20 ADD SWAP1 PUSH2 0x4AFD SWAP2 SWAP1 PUSH2 0x8C09 JUMP JUMPDEST PUSH1 0x40 MLOAD PUSH2 0x4B0B SWAP3 SWAP2 SWAP1 PUSH2 0x8C97 JUMP JUMPDEST PUSH1 0x40 MLOAD DUP1 SWAP2 SUB SWAP1 LOG1 PUSH32 0x9C2A4A58D55AB06D0EE30F916218EEE44FE05A75841C6D46F3BE938FA02D5978 DUP7 DUP1 PUSH1 0x40 ADD SWAP1 PUSH2 0x4B44 SWAP2 SWAP1 PUSH2 0x8C09 JUMP JUMPDEST PUSH1 0x40 MLOAD PUSH2 0x4B52 SWAP3 SWAP2 SWAP1 PUSH2 0x8C97 JUMP JUMPDEST PUSH1 0x40 MLOAD DUP1 SWAP2 SUB SWAP1 LOG1 PUSH2 0x4B62 PUSH2 0x6022 JUMP JUMPDEST PUSH2 0x4B92 DUP7 PUSH2 0x1C0 ADD PUSH1 0x20 DUP2 ADD SWAP1 PUSH2 0x4B79 SWAP2 SWAP1 PUSH2 0x7B47 JUMP JUMPDEST DUP8 PUSH2 0x100 ADD PUSH1 0x20 DUP2 ADD SWAP1 PUSH2 0x4B8D SWAP2 SWAP1 PUSH2 0x7AF2 JUMP JUMPDEST PUSH2 0x6034 JUMP JUMPDEST PUSH2 0x4B9B DUP7 PUSH2 0x604A JUMP JUMPDEST DUP4 ISZERO PUSH2 0x4BF5 JUMPI PUSH0 DUP6 PUSH0 ADD PUSH1 0x8 PUSH2 0x100 EXP DUP2 SLOAD DUP2 PUSH1 0xFF MUL NOT AND SWAP1 DUP4 ISZERO ISZERO MUL OR SWAP1 SSTORE POP PUSH32 0xC7F505B2F371AE2175EE4913F4499E1F2633A7B5936321EED1CDAEB6115181D2 PUSH1 0x1 PUSH1 0x40 MLOAD PUSH2 0x4BEC SWAP2 SWAP1 PUSH2 0x8D05 JUMP JUMPDEST PUSH1 0x40 MLOAD DUP1 SWAP2 SUB SWAP1 LOG1 JUMPDEST POP POP POP POP POP POP JUMP JUMPDEST PUSH1 0x2 PUSH0 PUSH2 0x4C08 PUSH2 0x5FD1 JUMP JUMPDEST SWAP1 POP DUP1 PUSH0 ADD PUSH1 0x8 SWAP1 SLOAD SWAP1 PUSH2 0x100 EXP SWAP1 DIV PUSH1 0xFF AND DUP1 PUSH2 0x4C50 JUMPI POP DUP2 PUSH8 0xFFFFFFFFFFFFFFFF AND DUP2 PUSH0 ADD PUSH0 SWAP1 SLOAD SWAP1 PUSH2 0x100 EXP SWAP1 DIV PUSH8 0xFFFFFFFFFFFFFFFF AND PUSH8 0xFFFFFFFFFFFFFFFF AND LT ISZERO JUMPDEST ISZERO PUSH2 0x4C87 JUMPI PUSH1 0x40 MLOAD PUSH32 0xF92EE8A900000000000000000000000000000000000000000000000000000000 DUP2 MSTORE PUSH1 0x4 ADD PUSH1 0x40 MLOAD DUP1 SWAP2 SUB SWAP1 REVERT JUMPDEST DUP2 DUP2 PUSH0 ADD PUSH0 PUSH2 0x100 EXP DUP2 SLOAD DUP2 PUSH8 0xFFFFFFFFFFFFFFFF MUL NOT AND SWAP1 DUP4 PUSH8 0xFFFFFFFFFFFFFFFF AND MUL OR SWAP1 SSTORE POP PUSH1 0x1 DUP2 PUSH0 ADD PUSH1 0x8 PUSH2 0x100 EXP DUP2 SLOAD DUP2 PUSH1 0xFF MUL NOT AND SWAP1 DUP4 ISZERO ISZERO MUL OR SWAP1 SSTORE POP PUSH2 0x4CD5 DUP4 PUSH2 0x6212 JUMP JUMPDEST PUSH0 DUP2 PUSH0 ADD PUSH1 0x8 PUSH2 0x100 EXP DUP2 SLOAD DUP2 PUSH1 0xFF MUL NOT AND SWAP1 DUP4 ISZERO ISZERO MUL OR SWAP1 SSTORE POP PUSH32 0xC7F505B2F371AE2175EE4913F4499E1F2633A7B5936321EED1CDAEB6115181D2 DUP3 PUSH1 0x40 MLOAD PUSH2 0x4D1F SWAP2 SWAP1 PUSH2 0x8D2D JUMP JUMPDEST PUSH1 0x40 MLOAD DUP1 SWAP2 SUB SWAP1 LOG1 POP POP POP JUMP JUMPDEST PUSH0 DUP1 PUSH2 0x4D36 PUSH2 0x36FE JUMP JUMPDEST PUSH20 0xFFFFFFFFFFFFFFFFFFFFFFFFFFFFFFFFFFFFFFFF AND PUSH4 0xCE96CB77 PUSH2 0x4D59 PUSH2 0x1598 JUMP JUMPDEST PUSH1 0x40 MLOAD DUP3 PUSH4 0xFFFFFFFF AND PUSH1 0xE0 SHL DUP2 MSTORE PUSH1 0x4 ADD PUSH2 0x4D75 SWAP2 SWAP1 PUSH2 0x8B45 JUMP JUMPDEST PUSH1 0x20 PUSH1 0x40 MLOAD DUP1 DUP4 SUB DUP2 DUP7 GAS STATICCALL ISZERO DUP1 ISZERO PUSH2 0x4D90 JUMPI RETURNDATASIZE PUSH0 DUP1 RETURNDATACOPY RETURNDATASIZE PUSH0 REVERT JUMPDEST POP POP POP POP PUSH1 0x40 MLOAD RETURNDATASIZE PUSH1 0x1F NOT PUSH1 0x1F DUP3 ADD AND DUP3 ADD DUP1 PUSH1 0x40 MSTORE POP DUP2 ADD SWAP1 PUSH2 0x4DB4 SWAP2 SWAP1 PUSH2 0x8239 JUMP JUMPDEST SWAP1 POP PUSH32 0xFFFFFFFFFFFFFFFFFFFFFFFFFFFFFFFFFFFFFFFFFFFFFFFFFFFFFFFFFFFFFFFF DUP2 SUB PUSH2 0x4DEE JUMPI PUSH2 0x4DE6 DUP6 PUSH2 0x19FA JUMP JUMPDEST SWAP2 POP POP PUSH2 0x4E0F JUMP JUMPDEST PUSH2 0x4E0B PUSH2 0x4DFD DUP3 PUSH0 DUP8 DUP8 PUSH2 0x549D JUMP JUMPDEST PUSH2 0x4E06 DUP8 PUSH2 0x19FA JUMP JUMPDEST PUSH2 0x6492 JUMP JUMPDEST SWAP2 POP POP JUMPDEST SWAP4 SWAP3 POP POP POP JUMP JUMPDEST PUSH0 PUSH2 0x4E58 PUSH1 0x1 DUP5 PUSH2 0x4E27 SWAP2 SWAP1 PUSH2 0x84AE JUMP JUMPDEST PUSH2 0x4E2F PUSH2 0x3DCE JUMP JUMPDEST PUSH1 0xA PUSH2 0x4E3B SWAP2 SWAP1 PUSH2 0x8464 JUMP JUMPDEST DUP5 PUSH2 0x4E46 SWAP2 SWAP1 PUSH2 0x84AE JUMP JUMPDEST DUP7 DUP9 PUSH2 0x3DED SWAP1 SWAP4 SWAP3 SWAP2 SWAP1 PUSH4 0xFFFFFFFF AND JUMP JUMPDEST SWAP1 POP SWAP5 SWAP4 POP POP POP POP JUMP JUMPDEST DUP3 PUSH20 0xFFFFFFFFFFFFFFFFFFFFFFFFFFFFFFFFFFFFFFFF AND DUP6 PUSH20 0xFFFFFFFFFFFFFFFFFFFFFFFFFFFFFFFFFFFFFFFF AND EQ PUSH2 0x4EA1 JUMPI PUSH2 0x4EA0 DUP4 DUP7 DUP4 PUSH2 0x5A72 JUMP JUMPDEST JUMPDEST PUSH2 0x4EAB DUP4 DUP3 PUSH2 0x5355 JUMP JUMPDEST PUSH0 PUSH2 0x4EB4 PUSH2 0x387B JUMP JUMPDEST SWAP1 POP PUSH0 DUP2 PUSH0 ADD PUSH0 SWAP1 SLOAD SWAP1 PUSH2 0x100 EXP SWAP1 DIV PUSH20 0xFFFFFFFFFFFFFFFFFFFFFFFFFFFFFFFFFFFFFFFF AND PUSH20 0xFFFFFFFFFFFFFFFFFFFFFFFFFFFFFFFFFFFFFFFF AND PUSH4 0x5FBFEB46 DUP4 PUSH1 0x1 ADD SLOAD PUSH1 0x40 MLOAD DUP3 PUSH4 0xFFFFFFFF AND PUSH1 0xE0 SHL DUP2 MSTORE PUSH1 0x4 ADD PUSH2 0x4F16 SWAP2 SWAP1 PUSH2 0x76DD JUMP JUMPDEST PUSH1 0x20 PUSH1 0x40 MLOAD DUP1 DUP4 SUB DUP2 DUP7 GAS STATICCALL ISZERO DUP1 ISZERO PUSH2 0x4F31 JUMPI RETURNDATASIZE PUSH0 DUP1 RETURNDATACOPY RETURNDATASIZE PUSH0 REVERT JUMPDEST POP POP POP POP PUSH1 0x40 MLOAD RETURNDATASIZE PUSH1 0x1F NOT PUSH1 0x1F DUP3 ADD AND DUP3 ADD DUP1 PUSH1 0x40 MSTORE POP DUP2 ADD SWAP1 PUSH2 0x4F55 SWAP2 SWAP1 PUSH2 0x88DC JUMP JUMPDEST SWAP1 POP PUSH0 PUSH2 0x4F60 PUSH2 0x1598 JUMP JUMPDEST PUSH20 0xFFFFFFFFFFFFFFFFFFFFFFFFFFFFFFFFFFFFFFFF AND PUSH4 0x70A08231 ADDRESS PUSH1 0x40 MLOAD DUP3 PUSH4 0xFFFFFFFF AND PUSH1 0xE0 SHL DUP2 MSTORE PUSH1 0x4 ADD PUSH2 0x4F98 SWAP2 SWAP1 PUSH2 0x7AD9 JUMP JUMPDEST PUSH1 0x20 PUSH1 0x40 MLOAD DUP1 DUP4 SUB DUP2 DUP7 GAS STATICCALL ISZERO DUP1 ISZERO PUSH2 0x4FB3 JUMPI RETURNDATASIZE PUSH0 DUP1 RETURNDATACOPY RETURNDATASIZE PUSH0 REVERT JUMPDEST POP POP POP POP PUSH1 0x40 MLOAD RETURNDATASIZE PUSH1 0x1F NOT PUSH1 0x1F DUP3 ADD AND DUP3 ADD DUP1 PUSH1 0x40 MSTORE POP DUP2 ADD SWAP1 PUSH2 0x4FD7 SWAP2 SWAP1 PUSH2 0x8239 JUMP JUMPDEST SWAP1 POP PUSH2 0x5060 PUSH2 0x4FE4 PUSH2 0x1598 JUMP JUMPDEST DUP7 PUSH1 0x40 MLOAD PUSH1 0x24 ADD PUSH2 0x4FF6 SWAP3 SWAP2 SWAP1 PUSH2 0x8907 JUMP JUMPDEST PUSH1 0x40 MLOAD PUSH1 0x20 DUP2 DUP4 SUB SUB DUP2 MSTORE SWAP1 PUSH1 0x40 MSTORE PUSH4 0xF3FEF3A3 PUSH1 0xE0 SHL PUSH1 0x20 DUP3 ADD DUP1 MLOAD PUSH28 0xFFFFFFFFFFFFFFFFFFFFFFFFFFFFFFFFFFFFFFFFFFFFFFFFFFFFFFFF DUP4 DUP2 DUP4 AND OR DUP4 MSTORE POP POP POP POP DUP4 PUSH20 0xFFFFFFFFFFFFFFFFFFFFFFFFFFFFFFFFFFFFFFFF AND PUSH2 0x52D5 SWAP1 SWAP2 SWAP1 PUSH4 0xFFFFFFFF AND JUMP JUMPDEST POP PUSH2 0x50FC PUSH2 0x506C PUSH2 0x1598 JUMP JUMPDEST DUP9 DUP4 PUSH2 0x5076 PUSH2 0x1598 JUMP JUMPDEST PUSH20 0xFFFFFFFFFFFFFFFFFFFFFFFFFFFFFFFFFFFFFFFF AND PUSH4 0x70A08231 ADDRESS PUSH1 0x40 MLOAD DUP3 PUSH4 0xFFFFFFFF AND PUSH1 0xE0 SHL DUP2 MSTORE PUSH1 0x4 ADD PUSH2 0x50AE SWAP2 SWAP1 PUSH2 0x7AD9 JUMP JUMPDEST PUSH1 0x20 PUSH1 0x40 MLOAD DUP1 DUP4 SUB DUP2 DUP7 GAS STATICCALL ISZERO DUP1 ISZERO PUSH2 0x50C9 JUMPI RETURNDATASIZE PUSH0 DUP1 RETURNDATACOPY RETURNDATASIZE PUSH0 REVERT JUMPDEST POP POP POP POP PUSH1 0x40 MLOAD RETURNDATASIZE PUSH1 0x1F NOT PUSH1 0x1F DUP3 ADD AND DUP3 ADD DUP1 PUSH1 0x40 MSTORE POP DUP2 ADD SWAP1 PUSH2 0x50ED SWAP2 SWAP1 PUSH2 0x8239 JUMP JUMPDEST PUSH2 0x50F7 SWAP2 SWAP1 PUSH2 0x892E JUMP JUMPDEST PUSH2 0x64A8 JUMP JUMPDEST PUSH2 0x5104 PUSH2 0xEC0 JUMP JUMPDEST DUP4 PUSH1 0x4 ADD DUP2 SWAP1 SSTORE POP DUP6 PUSH20 0xFFFFFFFFFFFFFFFFFFFFFFFFFFFFFFFFFFFFFFFF AND DUP8 PUSH20 0xFFFFFFFFFFFFFFFFFFFFFFFFFFFFFFFFFFFFFFFF AND DUP10 PUSH20 0xFFFFFFFFFFFFFFFFFFFFFFFFFFFFFFFFFFFFFFFF AND PUSH32 0xFBDE797D201C681B91056529119E0B02407C7BB96A4A2C75C01FC9667232C8DB DUP9 DUP9 PUSH1 0x40 MLOAD PUSH2 0x5182 SWAP3 SWAP2 SWAP1 PUSH2 0x8A04 JUMP JUMPDEST PUSH1 0x40 MLOAD DUP1 SWAP2 SUB SWAP1 LOG4 POP POP POP POP POP POP POP POP JUMP JUMPDEST PUSH0 DUP1 PUSH2 0x519E PUSH2 0x407E JUMP JUMPDEST SWAP1 POP PUSH32 0xFFFFFFFFFFFFFFFFFFFFFFFFFFFFFFFFFFFFFFFFFFFFFFFFFFFFFFFFFFFFFFFF DUP2 SUB PUSH2 0x51F0 JUMPI PUSH32 0xFFFFFFFFFFFFFFFFFFFFFFFFFFFFFFFFFFFFFFFFFFFFFFFFFFFFFFFFFFFFFFFF SWAP2 POP POP PUSH2 0x5200 JUMP JUMPDEST PUSH2 0x51FC DUP2 PUSH0 DUP7 DUP7 PUSH2 0x549D JUMP JUMPDEST SWAP2 POP POP JUMPDEST SWAP3 SWAP2 POP POP JUMP JUMPDEST PUSH0 DUP1 PUSH0 PUSH2 0x5211 PUSH2 0x387B JUMP JUMPDEST SWAP1 POP PUSH0 DUP2 PUSH1 0x2 ADD SLOAD SWAP1 POP PUSH0 PUSH2 0x5224 PUSH2 0x38A2 JUMP JUMPDEST PUSH1 0xFF AND SWAP1 POP PUSH0 PUSH2 0x5237 DUP10 PUSH1 0x1 DUP11 DUP11 PUSH2 0x4E16 JUMP JUMPDEST SWAP1 POP PUSH0 DUP3 PUSH1 0xA PUSH2 0x5247 SWAP2 SWAP1 PUSH2 0x8D46 JUMP JUMPDEST DUP3 PUSH2 0x5252 SWAP2 SWAP1 PUSH2 0x8AA7 JUMP JUMPDEST SWAP1 POP PUSH0 DUP5 DUP5 PUSH1 0xA PUSH2 0x5263 SWAP2 SWAP1 PUSH2 0x8D46 JUMP JUMPDEST PUSH1 0x64 PUSH2 0x526F SWAP2 SWAP1 PUSH2 0x8AA7 JUMP JUMPDEST PUSH2 0x5279 SWAP2 SWAP1 PUSH2 0x892E JUMP JUMPDEST SWAP1 POP PUSH2 0x5294 PUSH1 0x64 DUP3 PUSH1 0x1 DUP6 PUSH2 0x3DED SWAP1 SWAP4 SWAP3 SWAP2 SWAP1 PUSH4 0xFFFFFFFF AND JUMP JUMPDEST SWAP8 POP PUSH2 0x52C5 DUP6 DUP6 PUSH1 0xA PUSH2 0x52A7 SWAP2 SWAP1 PUSH2 0x8D46 JUMP JUMPDEST PUSH1 0x64 PUSH2 0x52B3 SWAP2 SWAP1 PUSH2 0x8AA7 JUMP JUMPDEST PUSH0 DUP12 PUSH2 0x3DED SWAP1 SWAP4 SWAP3 SWAP2 SWAP1 PUSH4 0xFFFFFFFF AND JUMP JUMPDEST SWAP7 POP POP POP POP POP POP POP SWAP4 POP SWAP4 SWAP2 POP POP JUMP JUMPDEST PUSH1 0x60 PUSH0 DUP1 DUP5 PUSH20 0xFFFFFFFFFFFFFFFFFFFFFFFFFFFFFFFFFFFFFFFF AND DUP5 PUSH1 0x40 MLOAD PUSH2 0x52FE SWAP2 SWAP1 PUSH2 0x8DCA JUMP JUMPDEST PUSH0 PUSH1 0x40 MLOAD DUP1 DUP4 SUB DUP2 DUP6 GAS DELEGATECALL SWAP2 POP POP RETURNDATASIZE DUP1 PUSH0 DUP2 EQ PUSH2 0x5336 JUMPI PUSH1 0x40 MLOAD SWAP2 POP PUSH1 0x1F NOT PUSH1 0x3F RETURNDATASIZE ADD AND DUP3 ADD PUSH1 0x40 MSTORE RETURNDATASIZE DUP3 MSTORE RETURNDATASIZE PUSH0 PUSH1 0x20 DUP5 ADD RETURNDATACOPY PUSH2 0x533B JUMP JUMPDEST PUSH1 0x60 SWAP2 POP JUMPDEST POP SWAP2 POP SWAP2 POP PUSH2 0x534B DUP6 DUP4 DUP4 PUSH2 0x6527 JUMP JUMPDEST SWAP3 POP POP POP SWAP3 SWAP2 POP POP JUMP JUMPDEST PUSH0 PUSH20 0xFFFFFFFFFFFFFFFFFFFFFFFFFFFFFFFFFFFFFFFF AND DUP3 PUSH20 0xFFFFFFFFFFFFFFFFFFFFFFFFFFFFFFFFFFFFFFFF AND SUB PUSH2 0x53C5 JUMPI PUSH0 PUSH1 0x40 MLOAD PUSH32 0x96C6FD1E00000000000000000000000000000000000000000000000000000000 DUP2 MSTORE PUSH1 0x4 ADD PUSH2 0x53BC SWAP2 SWAP1 PUSH2 0x7AD9 JUMP JUMPDEST PUSH1 0x40 MLOAD DUP1 SWAP2 SUB SWAP1 REVERT JUMPDEST PUSH2 0x53D0 DUP3 PUSH0 DUP4 PUSH2 0x65B4 JUMP JUMPDEST POP POP JUMP JUMPDEST PUSH0 DUP1 PUSH2 0x53DE PUSH2 0x3BD1 JUMP JUMPDEST SWAP1 POP PUSH2 0x53EB DUP2 DUP6 DUP6 PUSH2 0x5B05 JUMP JUMPDEST PUSH1 0x1 SWAP2 POP POP SWAP3 SWAP2 POP POP JUMP JUMPDEST PUSH0 PUSH2 0x5496 PUSH2 0x5402 PUSH2 0x36FE JUMP JUMPDEST PUSH20 0xFFFFFFFFFFFFFFFFFFFFFFFFFFFFFFFFFFFFFFFF AND PUSH4 0xCE96CB77 PUSH2 0x5425 PUSH2 0x1598 JUMP JUMPDEST PUSH1 0x40 MLOAD DUP3 PUSH4 0xFFFFFFFF AND PUSH1 0xE0 SHL DUP2 MSTORE PUSH1 0x4 ADD PUSH2 0x5441 SWAP2 SWAP1 PUSH2 0x8B45 JUMP JUMPDEST PUSH1 0x20 PUSH1 0x40 MLOAD DUP1 DUP4 SUB DUP2 DUP7 GAS STATICCALL ISZERO DUP1 ISZERO PUSH2 0x545C JUMPI RETURNDATASIZE PUSH0 DUP1 RETURNDATACOPY RETURNDATASIZE PUSH0 REVERT JUMPDEST POP POP POP POP PUSH1 0x40 MLOAD RETURNDATASIZE PUSH1 0x1F NOT PUSH1 0x1F DUP3 ADD AND DUP3 ADD DUP1 PUSH1 0x40 MSTORE POP DUP2 ADD SWAP1 PUSH2 0x5480 SWAP2 SWAP1 PUSH2 0x8239 JUMP JUMPDEST PUSH2 0x5491 PUSH2 0x548C DUP6 PUSH2 0x19FA JUMP JUMPDEST PUSH2 0x1734 JUMP JUMPDEST PUSH2 0x6492 JUMP JUMPDEST SWAP1 POP SWAP2 SWAP1 POP JUMP JUMPDEST PUSH0 PUSH2 0x54DF PUSH2 0x54A9 PUSH2 0x3DCE JUMP JUMPDEST PUSH1 0xA PUSH2 0x54B5 SWAP2 SWAP1 PUSH2 0x8464 JUMP JUMPDEST DUP4 PUSH2 0x54C0 SWAP2 SWAP1 PUSH2 0x84AE JUMP JUMPDEST PUSH1 0x1 DUP6 PUSH2 0x54CD SWAP2 SWAP1 PUSH2 0x84AE JUMP JUMPDEST DUP7 DUP9 PUSH2 0x3DED SWAP1 SWAP4 SWAP3 SWAP2 SWAP1 PUSH4 0xFFFFFFFF AND JUMP JUMPDEST SWAP1 POP SWAP5 SWAP4 POP POP POP POP JUMP JUMPDEST PUSH0 PUSH2 0x5539 PUSH2 0x54F5 PUSH2 0x3DCE JUMP JUMPDEST PUSH1 0xA PUSH2 0x5501 SWAP2 SWAP1 PUSH2 0x8464 JUMP JUMPDEST PUSH2 0x5509 PUSH2 0x12C1 JUMP JUMPDEST PUSH2 0x5513 SWAP2 SWAP1 PUSH2 0x84AE JUMP JUMPDEST PUSH1 0x1 PUSH2 0x551D PUSH2 0xEC0 JUMP JUMPDEST PUSH2 0x5527 SWAP2 SWAP1 PUSH2 0x84AE JUMP JUMPDEST DUP5 DUP7 PUSH2 0x3DED SWAP1 SWAP4 SWAP3 SWAP2 SWAP1 PUSH4 0xFFFFFFFF AND JUMP JUMPDEST SWAP1 POP SWAP3 SWAP2 POP POP JUMP JUMPDEST DUP1 PUSH2 0x554A PUSH2 0x387B JUMP JUMPDEST PUSH1 0x8 ADD PUSH0 PUSH2 0x100 EXP DUP2 SLOAD DUP2 PUSH20 0xFFFFFFFFFFFFFFFFFFFFFFFFFFFFFFFFFFFFFFFF MUL NOT AND SWAP1 DUP4 PUSH20 0xFFFFFFFFFFFFFFFFFFFFFFFFFFFFFFFFFFFFFFFF AND MUL OR SWAP1 SSTORE POP PUSH32 0x459692B0548DCF581883379DE8559B33545B3681CA7B06EA65EFF6344D0D90A7 DUP2 PUSH1 0x40 MLOAD PUSH2 0x55B9 SWAP2 SWAP1 PUSH2 0x7D6F JUMP JUMPDEST PUSH1 0x40 MLOAD DUP1 SWAP2 SUB SWAP1 LOG1 POP JUMP JUMPDEST PUSH0 PUSH2 0x55CD PUSH2 0x3FB5 JUMP JUMPDEST SWAP1 POP PUSH0 DUP1 PUSH2 0x55D9 PUSH2 0x3228 JUMP JUMPDEST SWAP2 POP SWAP2 POP PUSH2 0x55E6 DUP2 PUSH2 0x3FDC JUMP JUMPDEST ISZERO DUP1 PUSH2 0x55F8 JUMPI POP PUSH2 0x55F6 DUP2 PUSH2 0x3FF0 JUMP JUMPDEST ISZERO JUMPDEST ISZERO PUSH2 0x563A JUMPI DUP1 PUSH1 0x40 MLOAD PUSH32 0x19CA5EBB00000000000000000000000000000000000000000000000000000000 DUP2 MSTORE PUSH1 0x4 ADD PUSH2 0x5631 SWAP2 SWAP1 PUSH2 0x76AC JUMP JUMPDEST PUSH1 0x40 MLOAD DUP1 SWAP2 SUB SWAP1 REVERT JUMPDEST PUSH2 0x564D PUSH0 DUP1 SHL PUSH2 0x5648 PUSH2 0x1C27 JUMP JUMPDEST PUSH2 0x5CCC JUMP JUMPDEST POP PUSH2 0x565A PUSH0 DUP1 SHL DUP4 PUSH2 0x5BF5 JUMP JUMPDEST POP DUP3 PUSH0 ADD PUSH0 PUSH2 0x100 EXP DUP2 SLOAD SWAP1 PUSH20 0xFFFFFFFFFFFFFFFFFFFFFFFFFFFFFFFFFFFFFFFF MUL NOT AND SWAP1 SSTORE DUP3 PUSH0 ADD PUSH1 0x14 PUSH2 0x100 EXP DUP2 SLOAD SWAP1 PUSH6 0xFFFFFFFFFFFF MUL NOT AND SWAP1 SSTORE POP POP POP JUMP JUMPDEST PUSH2 0x56A6 DUP3 PUSH2 0x1334 JUMP JUMPDEST PUSH2 0x56AF DUP2 PUSH2 0x3E80 JUMP JUMPDEST PUSH2 0x56B9 DUP4 DUP4 PUSH2 0x5CCC JUMP JUMPDEST POP POP POP POP JUMP JUMPDEST PUSH2 0x56C9 PUSH0 DUP1 PUSH2 0x5E32 JUMP JUMPDEST JUMP JUMPDEST DUP1 PUSH2 0x56D4 PUSH2 0x387B JUMP JUMPDEST PUSH1 0x8 ADD PUSH1 0x15 PUSH2 0x100 EXP DUP2 SLOAD DUP2 PUSH1 0xFF MUL NOT AND SWAP1 DUP4 PUSH1 0x2 DUP2 GT ISZERO PUSH2 0x56F9 JUMPI PUSH2 0x56F8 PUSH2 0x7E4F JUMP JUMPDEST JUMPDEST MUL OR SWAP1 SSTORE POP PUSH32 0x23C25A58E3EC389F1FC2D77808492521B59D95B041F77C052738BF47EF30AC3B DUP2 PUSH1 0x40 MLOAD PUSH2 0x572D SWAP2 SWAP1 PUSH2 0x7EC2 JUMP JUMPDEST PUSH1 0x40 MLOAD DUP1 SWAP2 SUB SWAP1 LOG1 POP JUMP JUMPDEST PUSH0 PUSH32 0x1FFC9A700000000000000000000000000000000000000000000000000000000 PUSH28 0xFFFFFFFFFFFFFFFFFFFFFFFFFFFFFFFFFFFFFFFFFFFFFFFFFFFFFFFF NOT AND DUP3 PUSH28 0xFFFFFFFFFFFFFFFFFFFFFFFFFFFFFFFFFFFFFFFFFFFFFFFFFFFFFFFF NOT AND EQ SWAP1 POP SWAP2 SWAP1 POP JUMP JUMPDEST PUSH0 PUSH32 0x9B779B17422D0DF92223018B32B4D1FA46E071723D6817E2486D003BECC55F00 SWAP1 POP SWAP1 JUMP JUMPDEST PUSH2 0x57D5 DUP4 DUP4 DUP4 PUSH1 0x1 PUSH2 0x67E3 JUMP JUMPDEST POP POP POP JUMP JUMPDEST PUSH0 DUP1 DUP4 DUP4 GT ISZERO PUSH2 0x57EF JUMPI PUSH0 DUP1 SWAP2 POP SWAP2 POP PUSH2 0x57F9 JUMP JUMPDEST PUSH1 0x1 DUP4 DUP6 SUB SWAP2 POP SWAP2 POP JUMPDEST SWAP3 POP SWAP3 SWAP1 POP JUMP JUMPDEST PUSH0 PUSH1 0x1 PUSH1 0x2 DUP4 PUSH1 0x3 DUP2 GT ISZERO PUSH2 0x5818 JUMPI PUSH2 0x5817 PUSH2 0x7E4F JUMP JUMPDEST JUMPDEST PUSH2 0x5822 SWAP2 SWAP1 PUSH2 0x8DE0 JUMP JUMPDEST PUSH1 0xFF AND EQ SWAP1 POP SWAP2 SWAP1 POP JUMP JUMPDEST PUSH0 DUP2 ISZERO ISZERO SWAP1 POP SWAP2 SWAP1 POP JUMP JUMPDEST PUSH0 DUP1 DUP4 DUP6 MUL SWAP1 POP PUSH0 DUP1 NOT DUP6 DUP8 MULMOD DUP3 DUP2 LT DUP4 DUP3 SUB SUB SWAP2 POP POP PUSH0 DUP2 SUB PUSH2 0x5870 JUMPI DUP4 DUP3 DUP2 PUSH2 0x5866 JUMPI PUSH2 0x5865 PUSH2 0x8AE8 JUMP JUMPDEST JUMPDEST DIV SWAP3 POP POP POP PUSH2 0x5916 JUMP JUMPDEST DUP1 DUP5 GT PUSH2 0x588F JUMPI PUSH2 0x588E PUSH2 0x5889 PUSH0 DUP7 EQ PUSH1 0x12 PUSH1 0x11 PUSH2 0x69C0 JUMP JUMPDEST PUSH2 0x69D9 JUMP JUMPDEST JUMPDEST PUSH0 DUP5 DUP7 DUP9 MULMOD SWAP1 POP DUP3 DUP2 GT DUP3 SUB SWAP2 POP DUP1 DUP4 SUB SWAP3 POP PUSH0 DUP6 PUSH0 SUB DUP7 AND SWAP1 POP DUP1 DUP7 DIV SWAP6 POP DUP1 DUP5 DIV SWAP4 POP PUSH1 0x1 DUP2 DUP3 PUSH0 SUB DIV ADD SWAP1 POP DUP1 DUP4 MUL DUP5 OR SWAP4 POP PUSH0 PUSH1 0x2 DUP8 PUSH1 0x3 MUL XOR SWAP1 POP DUP1 DUP8 MUL PUSH1 0x2 SUB DUP2 MUL SWAP1 POP DUP1 DUP8 MUL PUSH1 0x2 SUB DUP2 MUL SWAP1 POP DUP1 DUP8 MUL PUSH1 0x2 SUB DUP2 MUL SWAP1 POP DUP1 DUP8 MUL PUSH1 0x2 SUB DUP2 MUL SWAP1 POP DUP1 DUP8 MUL PUSH1 0x2 SUB DUP2 MUL SWAP1 POP DUP1 DUP8 MUL PUSH1 0x2 SUB DUP2 MUL SWAP1 POP DUP1 DUP6 MUL SWAP6 POP POP POP POP POP POP JUMPDEST SWAP4 SWAP3 POP POP POP JUMP JUMPDEST PUSH2 0x5927 DUP3 DUP3 PUSH2 0x1F18 JUMP JUMPDEST PUSH2 0x596A JUMPI DUP1 DUP3 PUSH1 0x40 MLOAD PUSH32 0xE2517D3F00000000000000000000000000000000000000000000000000000000 DUP2 MSTORE PUSH1 0x4 ADD PUSH2 0x5961 SWAP3 SWAP2 SWAP1 PUSH2 0x8E10 JUMP JUMPDEST PUSH1 0x40 MLOAD DUP1 SWAP2 SUB SWAP1 REVERT JUMPDEST POP POP JUMP JUMPDEST PUSH0 PUSH2 0x5977 PUSH2 0x3FB5 JUMP JUMPDEST SWAP1 POP PUSH0 DUP2 PUSH1 0x1 ADD PUSH1 0x1A SWAP1 SLOAD SWAP1 PUSH2 0x100 EXP SWAP1 DIV PUSH6 0xFFFFFFFFFFFF AND SWAP1 POP PUSH2 0x599C DUP2 PUSH2 0x3FDC JUMP JUMPDEST ISZERO PUSH2 0x5A1E JUMPI PUSH2 0x59AA DUP2 PUSH2 0x3FF0 JUMP JUMPDEST ISZERO PUSH2 0x59F0 JUMPI DUP2 PUSH1 0x1 ADD PUSH1 0x14 SWAP1 SLOAD SWAP1 PUSH2 0x100 EXP SWAP1 DIV PUSH6 0xFFFFFFFFFFFF AND DUP3 PUSH0 ADD PUSH1 0x1A PUSH2 0x100 EXP DUP2 SLOAD DUP2 PUSH6 0xFFFFFFFFFFFF MUL NOT AND SWAP1 DUP4 PUSH6 0xFFFFFFFFFFFF AND MUL OR SWAP1 SSTORE POP PUSH2 0x5A1D JUMP JUMPDEST PUSH32 0x2B1FA2EDAFE6F7B9E97C1A9E0C3660E645BEB2DCAA2D45BDBF9BEAF5472E1EC5 PUSH1 0x40 MLOAD PUSH1 0x40 MLOAD DUP1 SWAP2 SUB SWAP1 LOG1 JUMPDEST JUMPDEST DUP4 DUP3 PUSH1 0x1 ADD PUSH1 0x14 PUSH2 0x100 EXP DUP2 SLOAD DUP2 PUSH6 0xFFFFFFFFFFFF MUL NOT AND SWAP1 DUP4 PUSH6 0xFFFFFFFFFFFF AND MUL OR SWAP1 SSTORE POP DUP3 DUP3 PUSH1 0x1 ADD PUSH1 0x1A PUSH2 0x100 EXP DUP2 SLOAD DUP2 PUSH6 0xFFFFFFFFFFFF MUL NOT AND SWAP1 DUP4 PUSH6 0xFFFFFFFFFFFF AND MUL OR SWAP1 SSTORE POP POP POP POP POP JUMP JUMPDEST PUSH0 PUSH2 0x5A7D DUP5 DUP5 PUSH2 0x34AA JUMP JUMPDEST SWAP1 POP PUSH32 0xFFFFFFFFFFFFFFFFFFFFFFFFFFFFFFFFFFFFFFFFFFFFFFFFFFFFFFFFFFFFFFFF DUP2 LT ISZERO PUSH2 0x5AFF JUMPI DUP2 DUP2 LT ISZERO PUSH2 0x5AF0 JUMPI DUP3 DUP2 DUP4 PUSH1 0x40 MLOAD PUSH32 0xFB8F41B200000000000000000000000000000000000000000000000000000000 DUP2 MSTORE PUSH1 0x4 ADD PUSH2 0x5AE7 SWAP4 SWAP3 SWAP2 SWAP1 PUSH2 0x8762 JUMP JUMPDEST PUSH1 0x40 MLOAD DUP1 SWAP2 SUB SWAP1 REVERT JUMPDEST PUSH2 0x5AFE DUP5 DUP5 DUP5 DUP5 SUB PUSH0 PUSH2 0x67E3 JUMP JUMPDEST JUMPDEST POP POP POP POP JUMP JUMPDEST PUSH0 PUSH20 0xFFFFFFFFFFFFFFFFFFFFFFFFFFFFFFFFFFFFFFFF AND DUP4 PUSH20 0xFFFFFFFFFFFFFFFFFFFFFFFFFFFFFFFFFFFFFFFF AND SUB PUSH2 0x5B75 JUMPI PUSH0 PUSH1 0x40 MLOAD PUSH32 0x96C6FD1E00000000000000000000000000000000000000000000000000000000 DUP2 MSTORE PUSH1 0x4 ADD PUSH2 0x5B6C SWAP2 SWAP1 PUSH2 0x7AD9 JUMP JUMPDEST PUSH1 0x40 MLOAD DUP1 SWAP2 SUB SWAP1 REVERT JUMPDEST PUSH0 PUSH20 0xFFFFFFFFFFFFFFFFFFFFFFFFFFFFFFFFFFFFFFFF AND DUP3 PUSH20 0xFFFFFFFFFFFFFFFFFFFFFFFFFFFFFFFFFFFFFFFF AND SUB PUSH2 0x5BE5 JUMPI PUSH0 PUSH1 0x40 MLOAD PUSH32 0xEC442F0500000000000000000000000000000000000000000000000000000000 DUP2 MSTORE PUSH1 0x4 ADD PUSH2 0x5BDC SWAP2 SWAP1 PUSH2 0x7AD9 JUMP JUMPDEST PUSH1 0x40 MLOAD DUP1 SWAP2 SUB SWAP1 REVERT JUMPDEST PUSH2 0x5BF0 DUP4 DUP4 DUP4 PUSH2 0x65B4 JUMP JUMPDEST POP POP POP JUMP JUMPDEST PUSH0 DUP1 PUSH2 0x5BFF PUSH2 0x3FB5 JUMP JUMPDEST SWAP1 POP PUSH0 DUP1 SHL DUP5 SUB PUSH2 0x5CB9 JUMPI PUSH0 PUSH20 0xFFFFFFFFFFFFFFFFFFFFFFFFFFFFFFFFFFFFFFFF AND PUSH2 0x5C29 PUSH2 0x1C27 JUMP JUMPDEST PUSH20 0xFFFFFFFFFFFFFFFFFFFFFFFFFFFFFFFFFFFFFFFF AND EQ PUSH2 0x5C76 JUMPI PUSH1 0x40 MLOAD PUSH32 0x3FC3C27A00000000000000000000000000000000000000000000000000000000 DUP2 MSTORE PUSH1 0x4 ADD PUSH1 0x40 MLOAD DUP1 SWAP2 SUB SWAP1 REVERT JUMPDEST DUP3 DUP2 PUSH1 0x1 ADD PUSH0 PUSH2 0x100 EXP DUP2 SLOAD DUP2 PUSH20 0xFFFFFFFFFFFFFFFFFFFFFFFFFFFFFFFFFFFFFFFF MUL NOT AND SWAP1 DUP4 PUSH20 0xFFFFFFFFFFFFFFFFFFFFFFFFFFFFFFFFFFFFFFFF AND MUL OR SWAP1 SSTORE POP JUMPDEST PUSH2 0x5CC3 DUP5 DUP5 PUSH2 0x69EA JUMP JUMPDEST SWAP2 POP POP SWAP3 SWAP2 POP POP JUMP JUMPDEST PUSH0 DUP1 PUSH2 0x5CD6 PUSH2 0x3FB5 JUMP JUMPDEST SWAP1 POP PUSH0 DUP1 SHL DUP5 EQ DUP1 ISZERO PUSH2 0x5D1B JUMPI POP PUSH2 0x5CEC PUSH2 0x1C27 JUMP JUMPDEST PUSH20 0xFFFFFFFFFFFFFFFFFFFFFFFFFFFFFFFFFFFFFFFF AND DUP4 PUSH20 0xFFFFFFFFFFFFFFFFFFFFFFFFFFFFFFFFFFFFFFFF AND EQ JUMPDEST ISZERO PUSH2 0x5D47 JUMPI DUP1 PUSH1 0x1 ADD PUSH0 PUSH2 0x100 EXP DUP2 SLOAD SWAP1 PUSH20 0xFFFFFFFFFFFFFFFFFFFFFFFFFFFFFFFFFFFFFFFF MUL NOT AND SWAP1 SSTORE JUMPDEST PUSH2 0x5D51 DUP5 DUP5 PUSH2 0x6AE2 JUMP JUMPDEST SWAP2 POP POP SWAP3 SWAP2 POP POP JUMP JUMPDEST PUSH0 PUSH20 0xFFFFFFFFFFFFFFFFFFFFFFFFFFFFFFFFFFFFFFFF AND DUP3 PUSH20 0xFFFFFFFFFFFFFFFFFFFFFFFFFFFFFFFFFFFFFFFF AND SUB PUSH2 0x5DCA JUMPI PUSH0 PUSH1 0x40 MLOAD PUSH32 0xEC442F0500000000000000000000000000000000000000000000000000000000 DUP2 MSTORE PUSH1 0x4 ADD PUSH2 0x5DC1 SWAP2 SWAP1 PUSH2 0x7AD9 JUMP JUMPDEST PUSH1 0x40 MLOAD DUP1 SWAP2 SUB SWAP1 REVERT JUMPDEST PUSH2 0x5DD5 PUSH0 DUP4 DUP4 PUSH2 0x65B4 JUMP JUMPDEST POP POP JUMP JUMPDEST PUSH0 PUSH6 0xFFFFFFFFFFFF DUP1 AND DUP3 GT ISZERO PUSH2 0x5E2A JUMPI PUSH1 0x30 DUP3 PUSH1 0x40 MLOAD PUSH32 0x6DFCC65000000000000000000000000000000000000000000000000000000000 DUP2 MSTORE PUSH1 0x4 ADD PUSH2 0x5E21 SWAP3 SWAP2 SWAP1 PUSH2 0x8E70 JUMP JUMPDEST PUSH1 0x40 MLOAD DUP1 SWAP2 SUB SWAP1 REVERT JUMPDEST DUP2 SWAP1 POP SWAP2 SWAP1 POP JUMP JUMPDEST PUSH0 PUSH2 0x5E3B PUSH2 0x3FB5 JUMP JUMPDEST SWAP1 POP PUSH0 PUSH2 0x5E46 PUSH2 0x3228 JUMP JUMPDEST SWAP2 POP POP DUP4 DUP3 PUSH0 ADD PUSH0 PUSH2 0x100 EXP DUP2 SLOAD DUP2 PUSH20 0xFFFFFFFFFFFFFFFFFFFFFFFFFFFFFFFFFFFFFFFF MUL NOT AND SWAP1 DUP4 PUSH20 0xFFFFFFFFFFFFFFFFFFFFFFFFFFFFFFFFFFFFFFFF AND MUL OR SWAP1 SSTORE POP DUP3 DUP3 PUSH0 ADD PUSH1 0x14 PUSH2 0x100 EXP DUP2 SLOAD DUP2 PUSH6 0xFFFFFFFFFFFF MUL NOT AND SWAP1 DUP4 PUSH6 0xFFFFFFFFFFFF AND MUL OR SWAP1 SSTORE POP PUSH2 0x5EB9 DUP2 PUSH2 0x3FDC JUMP JUMPDEST ISZERO PUSH2 0x5EEB JUMPI PUSH32 0x8886EBFC4259ABDBC16601DD8FB5678E54878F47B3C34836CFC51154A9605109 PUSH1 0x40 MLOAD PUSH1 0x40 MLOAD DUP1 SWAP2 SUB SWAP1 LOG1 JUMPDEST POP POP POP POP JUMP JUMPDEST PUSH0 DUP1 PUSH2 0x5EFB PUSH2 0x304B JUMP JUMPDEST SWAP1 POP DUP1 PUSH6 0xFFFFFFFFFFFF AND DUP4 PUSH6 0xFFFFFFFFFFFF AND GT PUSH2 0x5F25 JUMPI DUP3 DUP2 PUSH2 0x5F20 SWAP2 SWAP1 PUSH2 0x8E97 JUMP JUMPDEST PUSH2 0x5F47 JUMP JUMPDEST PUSH2 0x5F46 DUP4 PUSH6 0xFFFFFFFFFFFF AND PUSH2 0x5F39 PUSH2 0xFC5 JUMP JUMPDEST PUSH6 0xFFFFFFFFFFFF AND PUSH2 0x6492 JUMP JUMPDEST JUMPDEST SWAP2 POP POP SWAP2 SWAP1 POP JUMP JUMPDEST PUSH2 0x5FCB DUP5 DUP6 PUSH20 0xFFFFFFFFFFFFFFFFFFFFFFFFFFFFFFFFFFFFFFFF AND PUSH4 0x23B872DD DUP7 DUP7 DUP7 PUSH1 0x40 MLOAD PUSH1 0x24 ADD PUSH2 0x5F84 SWAP4 SWAP3 SWAP2 SWAP1 PUSH2 0x8ED0 JUMP JUMPDEST PUSH1 0x40 MLOAD PUSH1 0x20 DUP2 DUP4 SUB SUB DUP2 MSTORE SWAP1 PUSH1 0x40 MSTORE SWAP2 POP PUSH1 0xE0 SHL PUSH1 0x20 DUP3 ADD DUP1 MLOAD PUSH28 0xFFFFFFFFFFFFFFFFFFFFFFFFFFFFFFFFFFFFFFFFFFFFFFFFFFFFFFFF DUP4 DUP2 DUP4 AND OR DUP4 MSTORE POP POP POP POP PUSH2 0x6BDA JUMP JUMPDEST POP POP POP POP JUMP JUMPDEST PUSH0 PUSH32 0xF0C57E16840DF040F15088DC2F81FE391C3923BEC73E23A9662EFC9C229C6A00 SWAP1 POP SWAP1 JUMP JUMPDEST PUSH2 0x6000 PUSH2 0x6C75 JUMP JUMPDEST PUSH2 0x6009 DUP2 PUSH2 0x6CB5 JUMP JUMPDEST POP JUMP JUMPDEST PUSH2 0x6014 PUSH2 0x6C75 JUMP JUMPDEST PUSH2 0x601E DUP3 DUP3 PUSH2 0x6D47 JUMP JUMPDEST POP POP JUMP JUMPDEST PUSH2 0x602A PUSH2 0x6C75 JUMP JUMPDEST PUSH2 0x6032 PUSH2 0x6D83 JUMP JUMPDEST JUMP JUMPDEST PUSH2 0x603C PUSH2 0x6C75 JUMP JUMPDEST PUSH2 0x6046 DUP3 DUP3 PUSH2 0x6DA2 JUMP JUMPDEST POP POP JUMP JUMPDEST PUSH2 0x6052 PUSH2 0x6C75 JUMP JUMPDEST PUSH2 0x606E DUP2 PUSH2 0x1E0 ADD PUSH1 0x20 DUP2 ADD SWAP1 PUSH2 0x6069 SWAP2 SWAP1 PUSH2 0x8F19 JUMP JUMPDEST PUSH2 0x6E5D JUMP JUMPDEST PUSH2 0x607B DUP2 PUSH1 0xE0 ADD CALLDATALOAD PUSH2 0x4153 JUMP JUMPDEST PUSH2 0x6088 DUP2 PUSH1 0xC0 ADD CALLDATALOAD PUSH2 0x4201 JUMP JUMPDEST PUSH2 0x60A3 DUP2 PUSH1 0x80 ADD PUSH1 0x20 DUP2 ADD SWAP1 PUSH2 0x609E SWAP2 SWAP1 PUSH2 0x8F7F JUMP JUMPDEST PUSH2 0x6F07 JUMP JUMPDEST PUSH2 0x60B0 DUP2 PUSH1 0xA0 ADD CALLDATALOAD PUSH2 0x6FE4 JUMP JUMPDEST PUSH2 0x60CB DUP2 PUSH1 0x60 ADD PUSH1 0x20 DUP2 ADD SWAP1 PUSH2 0x60C6 SWAP2 SWAP1 PUSH2 0x8FBE JUMP JUMPDEST PUSH2 0x710E JUMP JUMPDEST PUSH2 0x60D9 DUP2 PUSH2 0x200 ADD CALLDATALOAD PUSH2 0x716A JUMP JUMPDEST PUSH2 0x6116 PUSH32 0x4645455F4D414E41474552000000000000000000000000000000000000000000 DUP3 PUSH2 0x120 ADD PUSH1 0x20 DUP2 ADD SWAP1 PUSH2 0x6111 SWAP2 SWAP1 PUSH2 0x7AF2 JUMP JUMPDEST PUSH2 0x5BF5 JUMP JUMPDEST POP PUSH2 0x6154 PUSH32 0x53414E4354494F4E535F4D414E41474552000000000000000000000000000000 DUP3 PUSH2 0x140 ADD PUSH1 0x20 DUP2 ADD SWAP1 PUSH2 0x614F SWAP2 SWAP1 PUSH2 0x7AF2 JUMP JUMPDEST PUSH2 0x5BF5 JUMP JUMPDEST POP PUSH2 0x6192 PUSH32 0x434C41494D5F4D414E4147455200000000000000000000000000000000000000 DUP3 PUSH2 0x160 ADD PUSH1 0x20 DUP2 ADD SWAP1 PUSH2 0x618D SWAP2 SWAP1 PUSH2 0x7AF2 JUMP JUMPDEST PUSH2 0x5BF5 JUMP JUMPDEST POP PUSH2 0x61D0 PUSH32 0x5041555345520000000000000000000000000000000000000000000000000000 DUP3 PUSH2 0x180 ADD PUSH1 0x20 DUP2 ADD SWAP1 PUSH2 0x61CB SWAP2 SWAP1 PUSH2 0x7AF2 JUMP JUMPDEST PUSH2 0x5BF5 JUMP JUMPDEST POP PUSH2 0x620E PUSH32 0x554E504155534552000000000000000000000000000000000000000000000000 DUP3 PUSH2 0x1A0 ADD PUSH1 0x20 DUP2 ADD SWAP1 PUSH2 0x6209 SWAP2 SWAP1 PUSH2 0x7AF2 JUMP JUMPDEST PUSH2 0x5BF5 JUMP JUMPDEST POP POP JUMP JUMPDEST PUSH2 0x621A PUSH2 0x6C75 JUMP JUMPDEST PUSH2 0x6235 DUP2 PUSH1 0x60 ADD PUSH1 0x20 DUP2 ADD SWAP1 PUSH2 0x6230 SWAP2 SWAP1 PUSH2 0x8051 JUMP JUMPDEST PUSH2 0x5541 JUMP JUMPDEST PUSH2 0x6250 DUP2 PUSH1 0x40 ADD PUSH1 0x20 DUP2 ADD SWAP1 PUSH2 0x624B SWAP2 SWAP1 PUSH2 0x81C1 JUMP JUMPDEST PUSH2 0x56CB JUMP JUMPDEST PUSH2 0x626B DUP2 PUSH1 0x20 ADD PUSH1 0x20 DUP2 ADD SWAP1 PUSH2 0x6266 SWAP2 SWAP1 PUSH2 0x7AF2 JUMP JUMPDEST PUSH2 0x71B4 JUMP JUMPDEST DUP1 PUSH1 0x20 ADD PUSH1 0x20 DUP2 ADD SWAP1 PUSH2 0x627E SWAP2 SWAP1 PUSH2 0x7AF2 JUMP JUMPDEST PUSH20 0xFFFFFFFFFFFFFFFFFFFFFFFFFFFFFFFFFFFFFFFF AND PUSH4 0x57A57524 DUP3 PUSH1 0x80 ADD CALLDATALOAD PUSH1 0x40 MLOAD DUP3 PUSH4 0xFFFFFFFF AND PUSH1 0xE0 SHL DUP2 MSTORE PUSH1 0x4 ADD PUSH2 0x62BA SWAP2 SWAP1 PUSH2 0x75AF JUMP JUMPDEST PUSH0 PUSH1 0x40 MLOAD DUP1 DUP4 SUB DUP2 PUSH0 DUP8 DUP1 EXTCODESIZE ISZERO DUP1 ISZERO PUSH2 0x62D1 JUMPI PUSH0 DUP1 REVERT JUMPDEST POP GAS CALL ISZERO DUP1 ISZERO PUSH2 0x62E3 JUMPI RETURNDATASIZE PUSH0 DUP1 RETURNDATACOPY RETURNDATASIZE PUSH0 REVERT JUMPDEST POP POP POP POP DUP1 PUSH1 0x20 ADD PUSH1 0x20 DUP2 ADD SWAP1 PUSH2 0x62FA SWAP2 SWAP1 PUSH2 0x7AF2 JUMP JUMPDEST PUSH20 0xFFFFFFFFFFFFFFFFFFFFFFFFFFFFFFFFFFFFFFFF AND PUSH4 0xFC5AD4D1 DUP3 PUSH1 0xA0 ADD CALLDATALOAD PUSH1 0x40 MLOAD DUP3 PUSH4 0xFFFFFFFF AND PUSH1 0xE0 SHL DUP2 MSTORE PUSH1 0x4 ADD PUSH2 0x6336 SWAP2 SWAP1 PUSH2 0x75AF JUMP JUMPDEST PUSH0 PUSH1 0x40 MLOAD DUP1 DUP4 SUB DUP2 PUSH0 DUP8 DUP1 EXTCODESIZE ISZERO DUP1 ISZERO PUSH2 0x634D JUMPI PUSH0 DUP1 REVERT JUMPDEST POP GAS CALL ISZERO DUP1 ISZERO PUSH2 0x635F JUMPI RETURNDATASIZE PUSH0 DUP1 RETURNDATACOPY RETURNDATASIZE PUSH0 REVERT JUMPDEST POP POP POP POP DUP1 PUSH1 0x20 ADD PUSH1 0x20 DUP2 ADD SWAP1 PUSH2 0x6376 SWAP2 SWAP1 PUSH2 0x7AF2 JUMP JUMPDEST PUSH20 0xFFFFFFFFFFFFFFFFFFFFFFFFFFFFFFFFFFFFFFFF AND PUSH4 0x4BD43CDD DUP3 DUP1 PUSH0 ADD SWAP1 PUSH2 0x63A0 SWAP2 SWAP1 PUSH2 0x8FE9 JUMP JUMPDEST PUSH2 0x63A8 PUSH2 0x38A2 JUMP JUMPDEST PUSH1 0x40 MLOAD DUP5 PUSH4 0xFFFFFFFF AND PUSH1 0xE0 SHL DUP2 MSTORE PUSH1 0x4 ADD PUSH2 0x63C6 SWAP4 SWAP3 SWAP2 SWAP1 PUSH2 0x88AC JUMP JUMPDEST PUSH0 PUSH1 0x40 MLOAD DUP1 DUP4 SUB DUP2 PUSH0 DUP8 DUP1 EXTCODESIZE ISZERO DUP1 ISZERO PUSH2 0x63DD JUMPI PUSH0 DUP1 REVERT JUMPDEST POP GAS CALL ISZERO DUP1 ISZERO PUSH2 0x63EF JUMPI RETURNDATASIZE PUSH0 DUP1 RETURNDATACOPY RETURNDATASIZE PUSH0 REVERT JUMPDEST POP POP POP POP PUSH2 0x642F PUSH32 0x4645455F434F4C4C4543544F5200000000000000000000000000000000000000 DUP3 PUSH1 0xE0 ADD PUSH1 0x20 DUP2 ADD SWAP1 PUSH2 0x642A SWAP2 SWAP1 PUSH2 0x7AF2 JUMP JUMPDEST PUSH2 0x5BF5 JUMP JUMPDEST POP PUSH2 0x644B DUP2 PUSH1 0xC0 ADD PUSH1 0x20 DUP2 ADD SWAP1 PUSH2 0x6446 SWAP2 SWAP1 PUSH2 0x8F7F JUMP JUMPDEST PUSH2 0x6F07 JUMP JUMPDEST PUSH2 0x648F PUSH2 0x6456 PUSH2 0x1598 JUMP JUMPDEST DUP3 PUSH1 0x20 ADD PUSH1 0x20 DUP2 ADD SWAP1 PUSH2 0x6469 SWAP2 SWAP1 PUSH2 0x7AF2 JUMP JUMPDEST PUSH32 0xFFFFFFFFFFFFFFFFFFFFFFFFFFFFFFFFFFFFFFFFFFFFFFFFFFFFFFFFFFFFFFFF PUSH2 0x7292 JUMP JUMPDEST POP JUMP JUMPDEST PUSH0 PUSH2 0x64A0 DUP3 DUP5 LT DUP5 DUP5 PUSH2 0x69C0 JUMP JUMPDEST SWAP1 POP SWAP3 SWAP2 POP POP JUMP JUMPDEST PUSH2 0x6522 DUP4 DUP5 PUSH20 0xFFFFFFFFFFFFFFFFFFFFFFFFFFFFFFFFFFFFFFFF AND PUSH4 0xA9059CBB DUP6 DUP6 PUSH1 0x40 MLOAD PUSH1 0x24 ADD PUSH2 0x64DB SWAP3 SWAP2 SWAP1 PUSH2 0x904B JUMP JUMPDEST PUSH1 0x40 MLOAD PUSH1 0x20 DUP2 DUP4 SUB SUB DUP2 MSTORE SWAP1 PUSH1 0x40 MSTORE SWAP2 POP PUSH1 0xE0 SHL PUSH1 0x20 DUP3 ADD DUP1 MLOAD PUSH28 0xFFFFFFFFFFFFFFFFFFFFFFFFFFFFFFFFFFFFFFFFFFFFFFFFFFFFFFFF DUP4 DUP2 DUP4 AND OR DUP4 MSTORE POP POP POP POP PUSH2 0x6BDA JUMP JUMPDEST POP POP POP JUMP JUMPDEST PUSH1 0x60 DUP3 PUSH2 0x653C JUMPI PUSH2 0x6537 DUP3 PUSH2 0x739F JUMP JUMPDEST PUSH2 0x65AC JUMP JUMPDEST PUSH0 DUP3 MLOAD EQ DUP1 ISZERO PUSH2 0x6562 JUMPI POP PUSH0 DUP5 PUSH20 0xFFFFFFFFFFFFFFFFFFFFFFFFFFFFFFFFFFFFFFFF AND EXTCODESIZE EQ JUMPDEST ISZERO PUSH2 0x65A4 JUMPI DUP4 PUSH1 0x40 MLOAD PUSH32 0x9996B31500000000000000000000000000000000000000000000000000000000 DUP2 MSTORE PUSH1 0x4 ADD PUSH2 0x659B SWAP2 SWAP1 PUSH2 0x7AD9 JUMP JUMPDEST PUSH1 0x40 MLOAD DUP1 SWAP2 SUB SWAP1 REVERT JUMPDEST DUP2 SWAP1 POP PUSH2 0x65AD JUMP JUMPDEST JUMPDEST SWAP4 SWAP3 POP POP POP JUMP JUMPDEST PUSH0 PUSH2 0x65BD PUSH2 0x3933 JUMP JUMPDEST SWAP1 POP PUSH0 PUSH20 0xFFFFFFFFFFFFFFFFFFFFFFFFFFFFFFFFFFFFFFFF AND DUP5 PUSH20 0xFFFFFFFFFFFFFFFFFFFFFFFFFFFFFFFFFFFFFFFF AND SUB PUSH2 0x6611 JUMPI DUP2 DUP2 PUSH1 0x2 ADD PUSH0 DUP3 DUP3 SLOAD PUSH2 0x6605 SWAP2 SWAP1 PUSH2 0x84AE JUMP JUMPDEST SWAP3 POP POP DUP2 SWAP1 SSTORE POP PUSH2 0x66E3 JUMP JUMPDEST PUSH0 DUP2 PUSH0 ADD PUSH0 DUP7 PUSH20 0xFFFFFFFFFFFFFFFFFFFFFFFFFFFFFFFFFFFFFFFF AND PUSH20 0xFFFFFFFFFFFFFFFFFFFFFFFFFFFFFFFFFFFFFFFF AND DUP2 MSTORE PUSH1 0x20 ADD SWAP1 DUP2 MSTORE PUSH1 0x20 ADD PUSH0 KECCAK256 SLOAD SWAP1 POP DUP3 DUP2 LT ISZERO PUSH2 0x669C JUMPI DUP5 DUP2 DUP5 PUSH1 0x40 MLOAD PUSH32 0xE450D38C00000000000000000000000000000000000000000000000000000000 DUP2 MSTORE PUSH1 0x4 ADD PUSH2 0x6693 SWAP4 SWAP3 SWAP2 SWAP1 PUSH2 0x8762 JUMP JUMPDEST PUSH1 0x40 MLOAD DUP1 SWAP2 SUB SWAP1 REVERT JUMPDEST DUP3 DUP2 SUB DUP3 PUSH0 ADD PUSH0 DUP8 PUSH20 0xFFFFFFFFFFFFFFFFFFFFFFFFFFFFFFFFFFFFFFFF AND PUSH20 0xFFFFFFFFFFFFFFFFFFFFFFFFFFFFFFFFFFFFFFFF AND DUP2 MSTORE PUSH1 0x20 ADD SWAP1 DUP2 MSTORE PUSH1 0x20 ADD PUSH0 KECCAK256 DUP2 SWAP1 SSTORE POP POP JUMPDEST PUSH0 PUSH20 0xFFFFFFFFFFFFFFFFFFFFFFFFFFFFFFFFFFFFFFFF AND DUP4 PUSH20 0xFFFFFFFFFFFFFFFFFFFFFFFFFFFFFFFFFFFFFFFF AND SUB PUSH2 0x672C JUMPI DUP2 DUP2 PUSH1 0x2 ADD PUSH0 DUP3 DUP3 SLOAD SUB SWAP3 POP POP DUP2 SWAP1 SSTORE POP PUSH2 0x6778 JUMP JUMPDEST DUP2 DUP2 PUSH0 ADD PUSH0 DUP6 PUSH20 0xFFFFFFFFFFFFFFFFFFFFFFFFFFFFFFFFFFFFFFFF AND PUSH20 0xFFFFFFFFFFFFFFFFFFFFFFFFFFFFFFFFFFFFFFFF AND DUP2 MSTORE PUSH1 0x20 ADD SWAP1 DUP2 MSTORE PUSH1 0x20 ADD PUSH0 KECCAK256 PUSH0 DUP3 DUP3 SLOAD ADD SWAP3 POP POP DUP2 SWAP1 SSTORE POP JUMPDEST DUP3 PUSH20 0xFFFFFFFFFFFFFFFFFFFFFFFFFFFFFFFFFFFFFFFF AND DUP5 PUSH20 0xFFFFFFFFFFFFFFFFFFFFFFFFFFFFFFFFFFFFFFFF AND PUSH32 0xDDF252AD1BE2C89B69C2B068FC378DAA952BA7F163C4A11628F55A4DF523B3EF DUP5 PUSH1 0x40 MLOAD PUSH2 0x67D5 SWAP2 SWAP1 PUSH2 0x75AF JUMP JUMPDEST PUSH1 0x40 MLOAD DUP1 SWAP2 SUB SWAP1 LOG3 POP POP POP POP JUMP JUMPDEST PUSH0 PUSH2 0x67EC PUSH2 0x3933 JUMP JUMPDEST SWAP1 POP PUSH0 PUSH20 0xFFFFFFFFFFFFFFFFFFFFFFFFFFFFFFFFFFFFFFFF AND DUP6 PUSH20 0xFFFFFFFFFFFFFFFFFFFFFFFFFFFFFFFFFFFFFFFF AND SUB PUSH2 0x685E JUMPI PUSH0 PUSH1 0x40 MLOAD PUSH32 0xE602DF0500000000000000000000000000000000000000000000000000000000 DUP2 MSTORE PUSH1 0x4 ADD PUSH2 0x6855 SWAP2 SWAP1 PUSH2 0x7AD9 JUMP JUMPDEST PUSH1 0x40 MLOAD DUP1 SWAP2 SUB SWAP1 REVERT JUMPDEST PUSH0 PUSH20 0xFFFFFFFFFFFFFFFFFFFFFFFFFFFFFFFFFFFFFFFF AND DUP5 PUSH20 0xFFFFFFFFFFFFFFFFFFFFFFFFFFFFFFFFFFFFFFFF AND SUB PUSH2 0x68CE JUMPI PUSH0 PUSH1 0x40 MLOAD PUSH32 0x94280D6200000000000000000000000000000000000000000000000000000000 DUP2 MSTORE PUSH1 0x4 ADD PUSH2 0x68C5 SWAP2 SWAP1 PUSH2 0x7AD9 JUMP JUMPDEST PUSH1 0x40 MLOAD DUP1 SWAP2 SUB SWAP1 REVERT JUMPDEST DUP3 DUP2 PUSH1 0x1 ADD PUSH0 DUP8 PUSH20 0xFFFFFFFFFFFFFFFFFFFFFFFFFFFFFFFFFFFFFFFF AND PUSH20 0xFFFFFFFFFFFFFFFFFFFFFFFFFFFFFFFFFFFFFFFF AND DUP2 MSTORE PUSH1 0x20 ADD SWAP1 DUP2 MSTORE PUSH1 0x20 ADD PUSH0 KECCAK256 PUSH0 DUP7 PUSH20 0xFFFFFFFFFFFFFFFFFFFFFFFFFFFFFFFFFFFFFFFF AND PUSH20 0xFFFFFFFFFFFFFFFFFFFFFFFFFFFFFFFFFFFFFFFF AND DUP2 MSTORE PUSH1 0x20 ADD SWAP1 DUP2 MSTORE PUSH1 0x20 ADD PUSH0 KECCAK256 DUP2 SWAP1 SSTORE POP DUP2 ISZERO PUSH2 0x69B9 JUMPI DUP4 PUSH20 0xFFFFFFFFFFFFFFFFFFFFFFFFFFFFFFFFFFFFFFFF AND DUP6 PUSH20 0xFFFFFFFFFFFFFFFFFFFFFFFFFFFFFFFFFFFFFFFF AND PUSH32 0x8C5BE1E5EBEC7D5BD14F71427D1E84F3DD0314C0F7B2291E5B200AC8C7C3B925 DUP6 PUSH1 0x40 MLOAD PUSH2 0x69B0 SWAP2 SWAP1 PUSH2 0x75AF JUMP JUMPDEST PUSH1 0x40 MLOAD DUP1 SWAP2 SUB SWAP1 LOG3 JUMPDEST POP POP POP POP POP JUMP JUMPDEST PUSH0 PUSH2 0x69CA DUP5 PUSH2 0x582D JUMP JUMPDEST DUP3 DUP5 XOR MUL DUP3 XOR SWAP1 POP SWAP4 SWAP3 POP POP POP JUMP JUMPDEST PUSH4 0x4E487B71 PUSH0 MSTORE DUP1 PUSH1 0x20 MSTORE PUSH1 0x24 PUSH1 0x1C REVERT JUMPDEST PUSH0 DUP1 PUSH2 0x69F4 PUSH2 0x3F45 JUMP JUMPDEST SWAP1 POP PUSH2 0x6A00 DUP5 DUP5 PUSH2 0x1F18 JUMP JUMPDEST PUSH2 0x6AD7 JUMPI PUSH1 0x1 DUP2 PUSH0 ADD PUSH0 DUP7 DUP2 MSTORE PUSH1 0x20 ADD SWAP1 DUP2 MSTORE PUSH1 0x20 ADD PUSH0 KECCAK256 PUSH0 ADD PUSH0 DUP6 PUSH20 0xFFFFFFFFFFFFFFFFFFFFFFFFFFFFFFFFFFFFFFFF AND PUSH20 0xFFFFFFFFFFFFFFFFFFFFFFFFFFFFFFFFFFFFFFFF AND DUP2 MSTORE PUSH1 0x20 ADD SWAP1 DUP2 MSTORE PUSH1 0x20 ADD PUSH0 KECCAK256 PUSH0 PUSH2 0x100 EXP DUP2 SLOAD DUP2 PUSH1 0xFF MUL NOT AND SWAP1 DUP4 ISZERO ISZERO MUL OR SWAP1 SSTORE POP PUSH2 0x6A73 PUSH2 0x3BD1 JUMP JUMPDEST PUSH20 0xFFFFFFFFFFFFFFFFFFFFFFFFFFFFFFFFFFFFFFFF AND DUP4 PUSH20 0xFFFFFFFFFFFFFFFFFFFFFFFFFFFFFFFFFFFFFFFF AND DUP6 PUSH32 0x2F8788117E7EFF1D82E926EC794901D17C78024A50270940304540A733656F0D PUSH1 0x40 MLOAD PUSH1 0x40 MLOAD DUP1 SWAP2 SUB SWAP1 LOG4 PUSH1 0x1 SWAP2 POP POP PUSH2 0x6ADC JUMP JUMPDEST PUSH0 SWAP2 POP POP JUMPDEST SWAP3 SWAP2 POP POP JUMP JUMPDEST PUSH0 DUP1 PUSH2 0x6AEC PUSH2 0x3F45 JUMP JUMPDEST SWAP1 POP PUSH2 0x6AF8 DUP5 DUP5 PUSH2 0x1F18 JUMP JUMPDEST ISZERO PUSH2 0x6BCF JUMPI PUSH0 DUP2 PUSH0 ADD PUSH0 DUP7 DUP2 MSTORE PUSH1 0x20 ADD SWAP1 DUP2 MSTORE PUSH1 0x20 ADD PUSH0 KECCAK256 PUSH0 ADD PUSH0 DUP6 PUSH20 0xFFFFFFFFFFFFFFFFFFFFFFFFFFFFFFFFFFFFFFFF AND PUSH20 0xFFFFFFFFFFFFFFFFFFFFFFFFFFFFFFFFFFFFFFFF AND DUP2 MSTORE PUSH1 0x20 ADD SWAP1 DUP2 MSTORE PUSH1 0x20 ADD PUSH0 KECCAK256 PUSH0 PUSH2 0x100 EXP DUP2 SLOAD DUP2 PUSH1 0xFF MUL NOT AND SWAP1 DUP4 ISZERO ISZERO MUL OR SWAP1 SSTORE POP PUSH2 0x6B6B PUSH2 0x3BD1 JUMP JUMPDEST PUSH20 0xFFFFFFFFFFFFFFFFFFFFFFFFFFFFFFFFFFFFFFFF AND DUP4 PUSH20 0xFFFFFFFFFFFFFFFFFFFFFFFFFFFFFFFFFFFFFFFF AND DUP6 PUSH32 0xF6391F5C32D9C69D2A47EA670B442974B53935D1EDC7FD64EB21E047A839171B PUSH1 0x40 MLOAD PUSH1 0x40 MLOAD DUP1 SWAP2 SUB SWAP1 LOG4 PUSH1 0x1 SWAP2 POP POP PUSH2 0x6BD4 JUMP JUMPDEST PUSH0 SWAP2 POP POP JUMPDEST SWAP3 SWAP2 POP POP JUMP JUMPDEST PUSH0 DUP1 PUSH1 0x20 PUSH0 DUP5 MLOAD PUSH1 0x20 DUP7 ADD PUSH0 DUP9 GAS CALL DUP1 PUSH2 0x6BF9 JUMPI PUSH1 0x40 MLOAD RETURNDATASIZE PUSH0 DUP3 RETURNDATACOPY RETURNDATASIZE DUP2 REVERT JUMPDEST RETURNDATASIZE SWAP3 POP PUSH0 MLOAD SWAP2 POP POP PUSH0 DUP3 EQ PUSH2 0x6C12 JUMPI PUSH1 0x1 DUP2 EQ ISZERO PUSH2 0x6C2D JUMP JUMPDEST PUSH0 DUP5 PUSH20 0xFFFFFFFFFFFFFFFFFFFFFFFFFFFFFFFFFFFFFFFF AND EXTCODESIZE EQ JUMPDEST ISZERO PUSH2 0x6C6F JUMPI DUP4 PUSH1 0x40 MLOAD PUSH32 0x5274AFE700000000000000000000000000000000000000000000000000000000 DUP2 MSTORE PUSH1 0x4 ADD PUSH2 0x6C66 SWAP2 SWAP1 PUSH2 0x7AD9 JUMP JUMPDEST PUSH1 0x40 MLOAD DUP1 SWAP2 SUB SWAP1 REVERT JUMPDEST POP POP POP POP JUMP JUMPDEST PUSH2 0x6C7D PUSH2 0x73E3 JUMP JUMPDEST PUSH2 0x6CB3 JUMPI PUSH1 0x40 MLOAD PUSH32 0xD7E6BCF800000000000000000000000000000000000000000000000000000000 DUP2 MSTORE PUSH1 0x4 ADD PUSH1 0x40 MLOAD DUP1 SWAP2 SUB SWAP1 REVERT JUMPDEST JUMP JUMPDEST PUSH2 0x6CBD PUSH2 0x6C75 JUMP JUMPDEST PUSH0 PUSH2 0x6CC6 PUSH2 0x3F8E JUMP JUMPDEST SWAP1 POP PUSH0 DUP1 PUSH2 0x6CD3 DUP5 PUSH2 0x7401 JUMP JUMPDEST SWAP2 POP SWAP2 POP DUP2 PUSH2 0x6CE3 JUMPI PUSH1 0x12 PUSH2 0x6CE5 JUMP JUMPDEST DUP1 JUMPDEST DUP4 PUSH0 ADD PUSH1 0x14 PUSH2 0x100 EXP DUP2 SLOAD DUP2 PUSH1 0xFF MUL NOT AND SWAP1 DUP4 PUSH1 0xFF AND MUL OR SWAP1 SSTORE POP DUP4 DUP4 PUSH0 ADD PUSH0 PUSH2 0x100 EXP DUP2 SLOAD DUP2 PUSH20 0xFFFFFFFFFFFFFFFFFFFFFFFFFFFFFFFFFFFFFFFF MUL NOT AND SWAP1 DUP4 PUSH20 0xFFFFFFFFFFFFFFFFFFFFFFFFFFFFFFFFFFFFFFFF AND MUL OR SWAP1 SSTORE POP POP POP POP POP JUMP JUMPDEST PUSH2 0x6D4F PUSH2 0x6C75 JUMP JUMPDEST PUSH0 PUSH2 0x6D58 PUSH2 0x3933 JUMP JUMPDEST SWAP1 POP DUP3 DUP2 PUSH1 0x3 ADD SWAP1 DUP2 PUSH2 0x6D6B SWAP2 SWAP1 PUSH2 0x9206 JUMP JUMPDEST POP DUP2 DUP2 PUSH1 0x4 ADD SWAP1 DUP2 PUSH2 0x6D7D SWAP2 SWAP1 PUSH2 0x9206 JUMP JUMPDEST POP POP POP POP JUMP JUMPDEST PUSH2 0x6D8B PUSH2 0x6C75 JUMP JUMPDEST PUSH0 PUSH2 0x6D94 PUSH2 0x57A1 JUMP JUMPDEST SWAP1 POP PUSH1 0x1 DUP2 PUSH0 ADD DUP2 SWAP1 SSTORE POP POP JUMP JUMPDEST PUSH2 0x6DAA PUSH2 0x6C75 JUMP JUMPDEST PUSH0 PUSH2 0x6DB3 PUSH2 0x3FB5 JUMP JUMPDEST SWAP1 POP PUSH0 PUSH20 0xFFFFFFFFFFFFFFFFFFFFFFFFFFFFFFFFFFFFFFFF AND DUP3 PUSH20 0xFFFFFFFFFFFFFFFFFFFFFFFFFFFFFFFFFFFFFFFF AND SUB PUSH2 0x6E25 JUMPI PUSH0 PUSH1 0x40 MLOAD PUSH32 0xC22C802200000000000000000000000000000000000000000000000000000000 DUP2 MSTORE PUSH1 0x4 ADD PUSH2 0x6E1C SWAP2 SWAP1 PUSH2 0x7AD9 JUMP JUMPDEST PUSH1 0x40 MLOAD DUP1 SWAP2 SUB SWAP1 REVERT JUMPDEST DUP3 DUP2 PUSH0 ADD PUSH1 0x1A PUSH2 0x100 EXP DUP2 SLOAD DUP2 PUSH6 0xFFFFFFFFFFFF MUL NOT AND SWAP1 DUP4 PUSH6 0xFFFFFFFFFFFF AND MUL OR SWAP1 SSTORE POP PUSH2 0x6E57 PUSH0 DUP1 SHL DUP4 PUSH2 0x5BF5 JUMP JUMPDEST POP POP POP POP JUMP JUMPDEST PUSH1 0x17 PUSH1 0xFF AND DUP2 PUSH1 0xFF AND GT ISZERO PUSH2 0x6EA9 JUMPI DUP1 PUSH1 0x40 MLOAD PUSH32 0x3408553600000000000000000000000000000000000000000000000000000000 DUP2 MSTORE PUSH1 0x4 ADD PUSH2 0x6EA0 SWAP2 SWAP1 PUSH2 0x7AB1 JUMP JUMPDEST PUSH1 0x40 MLOAD DUP1 SWAP2 SUB SWAP1 REVERT JUMPDEST DUP1 PUSH2 0x6EB2 PUSH2 0x387B JUMP JUMPDEST PUSH1 0x6 ADD PUSH1 0x1 PUSH2 0x100 EXP DUP2 SLOAD DUP2 PUSH1 0xFF MUL NOT AND SWAP1 DUP4 PUSH1 0xFF AND MUL OR SWAP1 SSTORE POP PUSH32 0xCAE26DE0225F46C9B6B05447DDE633B5EC259388F11315F1F36DFE6205FF72C9 DUP2 PUSH1 0x40 MLOAD PUSH2 0x6EFC SWAP2 SWAP1 PUSH2 0x7AB1 JUMP JUMPDEST PUSH1 0x40 MLOAD DUP1 SWAP2 SUB SWAP1 LOG1 POP JUMP JUMPDEST PUSH0 DUP2 PUSH20 0xFFFFFFFFFFFFFFFFFFFFFFFFFFFFFFFFFFFFFFFF AND EXTCODESIZE SUB PUSH2 0x6F62 JUMPI DUP1 PUSH1 0x40 MLOAD PUSH32 0x247E970100000000000000000000000000000000000000000000000000000000 DUP2 MSTORE PUSH1 0x4 ADD PUSH2 0x6F59 SWAP2 SWAP1 PUSH2 0x7AD9 JUMP JUMPDEST PUSH1 0x40 MLOAD DUP1 SWAP2 SUB SWAP1 REVERT JUMPDEST DUP1 PUSH2 0x6F6B PUSH2 0x387B JUMP JUMPDEST PUSH0 ADD PUSH0 PUSH2 0x100 EXP DUP2 SLOAD DUP2 PUSH20 0xFFFFFFFFFFFFFFFFFFFFFFFFFFFFFFFFFFFFFFFF MUL NOT AND SWAP1 DUP4 PUSH20 0xFFFFFFFFFFFFFFFFFFFFFFFFFFFFFFFFFFFFFFFF AND MUL OR SWAP1 SSTORE POP PUSH32 0x5F61862DE0422698D021ADB6E8B65FD7EDF95FE9D5840B3FFCE3F020F62A86E3 DUP2 PUSH1 0x40 MLOAD PUSH2 0x6FD9 SWAP2 SWAP1 PUSH2 0x7F4B JUMP JUMPDEST PUSH1 0x40 MLOAD DUP1 SWAP2 SUB SWAP1 LOG1 POP JUMP JUMPDEST PUSH0 PUSH2 0x6FED PUSH2 0x387B JUMP JUMPDEST SWAP1 POP DUP1 PUSH0 ADD PUSH0 SWAP1 SLOAD SWAP1 PUSH2 0x100 EXP SWAP1 DIV PUSH20 0xFFFFFFFFFFFFFFFFFFFFFFFFFFFFFFFFFFFFFFFF AND PUSH20 0xFFFFFFFFFFFFFFFFFFFFFFFFFFFFFFFFFFFFFFFF AND PUSH4 0xDA815ABF DUP4 PUSH1 0x40 MLOAD DUP3 PUSH4 0xFFFFFFFF AND PUSH1 0xE0 SHL DUP2 MSTORE PUSH1 0x4 ADD PUSH2 0x704A SWAP2 SWAP1 PUSH2 0x76DD JUMP JUMPDEST PUSH1 0x20 PUSH1 0x40 MLOAD DUP1 DUP4 SUB DUP2 DUP7 GAS STATICCALL ISZERO DUP1 ISZERO PUSH2 0x7065 JUMPI RETURNDATASIZE PUSH0 DUP1 RETURNDATACOPY RETURNDATASIZE PUSH0 REVERT JUMPDEST POP POP POP POP PUSH1 0x40 MLOAD RETURNDATASIZE PUSH1 0x1F NOT PUSH1 0x1F DUP3 ADD AND DUP3 ADD DUP1 PUSH1 0x40 MSTORE POP DUP2 ADD SWAP1 PUSH2 0x7089 SWAP2 SWAP1 PUSH2 0x8737 JUMP JUMPDEST PUSH2 0x70CA JUMPI DUP2 PUSH1 0x40 MLOAD PUSH32 0x1EDD532800000000000000000000000000000000000000000000000000000000 DUP2 MSTORE PUSH1 0x4 ADD PUSH2 0x70C1 SWAP2 SWAP1 PUSH2 0x76DD JUMP JUMPDEST PUSH1 0x40 MLOAD DUP1 SWAP2 SUB SWAP1 REVERT JUMPDEST DUP2 DUP2 PUSH1 0x1 ADD DUP2 SWAP1 SSTORE POP PUSH32 0x89BA13BD0C39F5657FBEBB3C7CC5A7BB264DC1F030C56B275381BB7DD810EB5C DUP3 PUSH1 0x40 MLOAD PUSH2 0x7102 SWAP2 SWAP1 PUSH2 0x76DD JUMP JUMPDEST PUSH1 0x40 MLOAD DUP1 SWAP2 SUB SWAP1 LOG1 POP POP JUMP JUMPDEST DUP1 PUSH2 0x7117 PUSH2 0x387B JUMP JUMPDEST PUSH1 0x6 ADD PUSH0 PUSH2 0x100 EXP DUP2 SLOAD DUP2 PUSH1 0xFF MUL NOT AND SWAP1 DUP4 ISZERO ISZERO MUL OR SWAP1 SSTORE POP PUSH32 0x34D27D83CC2D5A6F14E25903BEF0A84BF83160F3DA4CC5A19DBB121BE47C0993 DUP2 PUSH1 0x40 MLOAD PUSH2 0x715F SWAP2 SWAP1 PUSH2 0x7673 JUMP JUMPDEST PUSH1 0x40 MLOAD DUP1 SWAP2 SUB SWAP1 LOG1 POP JUMP JUMPDEST DUP1 PUSH2 0x7173 PUSH2 0x387B JUMP JUMPDEST PUSH1 0x5 ADD DUP2 SWAP1 SSTORE POP PUSH32 0x1F19296F2755837D126AD32268EB42DCF2A74BDE8C16A97C93FABA80AACC02D0 DUP2 PUSH1 0x40 MLOAD PUSH2 0x71A9 SWAP2 SWAP1 PUSH2 0x75AF JUMP JUMPDEST PUSH1 0x40 MLOAD DUP1 SWAP2 SUB SWAP1 LOG1 POP JUMP JUMPDEST PUSH0 DUP2 PUSH20 0xFFFFFFFFFFFFFFFFFFFFFFFFFFFFFFFFFFFFFFFF AND EXTCODESIZE SUB PUSH2 0x720F JUMPI DUP1 PUSH1 0x40 MLOAD PUSH32 0x247E970100000000000000000000000000000000000000000000000000000000 DUP2 MSTORE PUSH1 0x4 ADD PUSH2 0x7206 SWAP2 SWAP1 PUSH2 0x7AD9 JUMP JUMPDEST PUSH1 0x40 MLOAD DUP1 SWAP2 SUB SWAP1 REVERT JUMPDEST DUP1 PUSH2 0x7218 PUSH2 0x387B JUMP JUMPDEST PUSH1 0x9 ADD PUSH0 PUSH2 0x100 EXP DUP2 SLOAD DUP2 PUSH20 0xFFFFFFFFFFFFFFFFFFFFFFFFFFFFFFFFFFFFFFFF MUL NOT AND SWAP1 DUP4 PUSH20 0xFFFFFFFFFFFFFFFFFFFFFFFFFFFFFFFFFFFFFFFF AND MUL OR SWAP1 SSTORE POP PUSH32 0x1450699F2CB9B7FE6AE310ACEE9A343CAB23B4F3BD404E83BD371C017873D378 DUP2 PUSH1 0x40 MLOAD PUSH2 0x7287 SWAP2 SWAP1 PUSH2 0x7AD9 JUMP JUMPDEST PUSH1 0x40 MLOAD DUP1 SWAP2 SUB SWAP1 LOG1 POP JUMP JUMPDEST PUSH0 DUP4 PUSH20 0xFFFFFFFFFFFFFFFFFFFFFFFFFFFFFFFFFFFFFFFF AND PUSH4 0x95EA7B3 DUP5 DUP5 PUSH1 0x40 MLOAD PUSH1 0x24 ADD PUSH2 0x72C2 SWAP3 SWAP2 SWAP1 PUSH2 0x904B JUMP JUMPDEST PUSH1 0x40 MLOAD PUSH1 0x20 DUP2 DUP4 SUB SUB DUP2 MSTORE SWAP1 PUSH1 0x40 MSTORE SWAP2 POP PUSH1 0xE0 SHL PUSH1 0x20 DUP3 ADD DUP1 MLOAD PUSH28 0xFFFFFFFFFFFFFFFFFFFFFFFFFFFFFFFFFFFFFFFFFFFFFFFFFFFFFFFF DUP4 DUP2 DUP4 AND OR DUP4 MSTORE POP POP POP POP SWAP1 POP PUSH2 0x7310 DUP5 DUP3 PUSH2 0x750A JUMP JUMPDEST PUSH2 0x7399 JUMPI PUSH2 0x738E DUP5 DUP6 PUSH20 0xFFFFFFFFFFFFFFFFFFFFFFFFFFFFFFFFFFFFFFFF AND PUSH4 0x95EA7B3 DUP7 PUSH0 PUSH1 0x40 MLOAD PUSH1 0x24 ADD PUSH2 0x7347 SWAP3 SWAP2 SWAP1 PUSH2 0x930E JUMP JUMPDEST PUSH1 0x40 MLOAD PUSH1 0x20 DUP2 DUP4 SUB SUB DUP2 MSTORE SWAP1 PUSH1 0x40 MSTORE SWAP2 POP PUSH1 0xE0 SHL PUSH1 0x20 DUP3 ADD DUP1 MLOAD PUSH28 0xFFFFFFFFFFFFFFFFFFFFFFFFFFFFFFFFFFFFFFFFFFFFFFFFFFFFFFFF DUP4 DUP2 DUP4 AND OR DUP4 MSTORE POP POP POP POP PUSH2 0x6BDA JUMP JUMPDEST PUSH2 0x7398 DUP5 DUP3 PUSH2 0x6BDA JUMP JUMPDEST JUMPDEST POP POP POP POP JUMP JUMPDEST PUSH0 DUP2 MLOAD GT ISZERO PUSH2 0x73B1 JUMPI DUP1 MLOAD DUP1 DUP3 PUSH1 0x20 ADD REVERT JUMPDEST PUSH1 0x40 MLOAD PUSH32 0xD6BDA27500000000000000000000000000000000000000000000000000000000 DUP2 MSTORE PUSH1 0x4 ADD PUSH1 0x40 MLOAD DUP1 SWAP2 SUB SWAP1 REVERT JUMPDEST PUSH0 PUSH2 0x73EC PUSH2 0x5FD1 JUMP JUMPDEST PUSH0 ADD PUSH1 0x8 SWAP1 SLOAD SWAP1 PUSH2 0x100 EXP SWAP1 DIV PUSH1 0xFF AND SWAP1 POP SWAP1 JUMP JUMPDEST PUSH0 DUP1 PUSH0 DUP1 DUP5 PUSH20 0xFFFFFFFFFFFFFFFFFFFFFFFFFFFFFFFFFFFFFFFF AND PUSH1 0x40 MLOAD PUSH1 0x24 ADD PUSH1 0x40 MLOAD PUSH1 0x20 DUP2 DUP4 SUB SUB DUP2 MSTORE SWAP1 PUSH1 0x40 MSTORE PUSH4 0x313CE567 PUSH1 0xE0 SHL PUSH1 0x20 DUP3 ADD DUP1 MLOAD PUSH28 0xFFFFFFFFFFFFFFFFFFFFFFFFFFFFFFFFFFFFFFFFFFFFFFFFFFFFFFFF DUP4 DUP2 DUP4 AND OR DUP4 MSTORE POP POP POP POP PUSH1 0x40 MLOAD PUSH2 0x7474 SWAP2 SWAP1 PUSH2 0x8DCA JUMP JUMPDEST PUSH0 PUSH1 0x40 MLOAD DUP1 DUP4 SUB DUP2 DUP6 GAS STATICCALL SWAP2 POP POP RETURNDATASIZE DUP1 PUSH0 DUP2 EQ PUSH2 0x74AC JUMPI PUSH1 0x40 MLOAD SWAP2 POP PUSH1 0x1F NOT PUSH1 0x3F RETURNDATASIZE ADD AND DUP3 ADD PUSH1 0x40 MSTORE RETURNDATASIZE DUP3 MSTORE RETURNDATASIZE PUSH0 PUSH1 0x20 DUP5 ADD RETURNDATACOPY PUSH2 0x74B1 JUMP JUMPDEST PUSH1 0x60 SWAP2 POP JUMPDEST POP SWAP2 POP SWAP2 POP DUP2 DUP1 ISZERO PUSH2 0x74C5 JUMPI POP PUSH1 0x20 DUP2 MLOAD LT ISZERO JUMPDEST ISZERO PUSH2 0x74FC JUMPI PUSH0 DUP2 DUP1 PUSH1 0x20 ADD SWAP1 MLOAD DUP2 ADD SWAP1 PUSH2 0x74DF SWAP2 SWAP1 PUSH2 0x8239 JUMP JUMPDEST SWAP1 POP PUSH1 0xFF DUP1 AND DUP2 GT PUSH2 0x74FA JUMPI PUSH1 0x1 DUP2 SWAP5 POP SWAP5 POP POP POP POP PUSH2 0x7505 JUMP JUMPDEST POP JUMPDEST PUSH0 DUP1 SWAP4 POP SWAP4 POP POP POP JUMPDEST SWAP2 POP SWAP2 JUMP JUMPDEST PUSH0 DUP1 PUSH0 DUP1 PUSH1 0x20 PUSH0 DUP7 MLOAD PUSH1 0x20 DUP9 ADD PUSH0 DUP11 GAS CALL SWAP3 POP RETURNDATASIZE SWAP2 POP PUSH0 MLOAD SWAP1 POP DUP3 DUP1 ISZERO PUSH2 0x7558 JUMPI POP PUSH0 DUP3 EQ PUSH2 0x753C JUMPI PUSH1 0x1 DUP2 EQ PUSH2 0x7557 JUMP JUMPDEST PUSH0 DUP7 PUSH20 0xFFFFFFFFFFFFFFFFFFFFFFFFFFFFFFFFFFFFFFFF AND EXTCODESIZE GT JUMPDEST JUMPDEST SWAP4 POP POP POP POP SWAP3 SWAP2 POP POP JUMP JUMPDEST PUSH1 0x40 MLOAD DUP1 PUSH1 0x60 ADD PUSH1 0x40 MSTORE DUP1 PUSH0 PUSH20 0xFFFFFFFFFFFFFFFFFFFFFFFFFFFFFFFFFFFFFFFF AND DUP2 MSTORE PUSH1 0x20 ADD PUSH0 DUP2 MSTORE PUSH1 0x20 ADD PUSH0 DUP2 MSTORE POP SWAP1 JUMP JUMPDEST PUSH0 DUP2 SWAP1 POP SWAP2 SWAP1 POP JUMP JUMPDEST PUSH2 0x75A9 DUP2 PUSH2 0x7597 JUMP JUMPDEST DUP3 MSTORE POP POP JUMP JUMPDEST PUSH0 PUSH1 0x20 DUP3 ADD SWAP1 POP PUSH2 0x75C2 PUSH0 DUP4 ADD DUP5 PUSH2 0x75A0 JUMP JUMPDEST SWAP3 SWAP2 POP POP JUMP JUMPDEST PUSH0 PUSH1 0x40 MLOAD SWAP1 POP SWAP1 JUMP JUMPDEST PUSH0 DUP1 REVERT JUMPDEST PUSH0 DUP1 REVERT JUMPDEST PUSH0 PUSH32 0xFFFFFFFF00000000000000000000000000000000000000000000000000000000 DUP3 AND SWAP1 POP SWAP2 SWAP1 POP JUMP JUMPDEST PUSH2 0x760D DUP2 PUSH2 0x75D9 JUMP JUMPDEST DUP2 EQ PUSH2 0x7617 JUMPI PUSH0 DUP1 REVERT JUMPDEST POP JUMP JUMPDEST PUSH0 DUP2 CALLDATALOAD SWAP1 POP PUSH2 0x7628 DUP2 PUSH2 0x7604 JUMP JUMPDEST SWAP3 SWAP2 POP POP JUMP JUMPDEST PUSH0 PUSH1 0x20 DUP3 DUP5 SUB SLT ISZERO PUSH2 0x7643 JUMPI PUSH2 0x7642 PUSH2 0x75D1 JUMP JUMPDEST JUMPDEST PUSH0 PUSH2 0x7650 DUP5 DUP3 DUP6 ADD PUSH2 0x761A JUMP JUMPDEST SWAP2 POP POP SWAP3 SWAP2 POP POP JUMP JUMPDEST PUSH0 DUP2 ISZERO ISZERO SWAP1 POP SWAP2 SWAP1 POP JUMP JUMPDEST PUSH2 0x766D DUP2 PUSH2 0x7659 JUMP JUMPDEST DUP3 MSTORE POP POP JUMP JUMPDEST PUSH0 PUSH1 0x20 DUP3 ADD SWAP1 POP PUSH2 0x7686 PUSH0 DUP4 ADD DUP5 PUSH2 0x7664 JUMP JUMPDEST SWAP3 SWAP2 POP POP JUMP JUMPDEST PUSH0 PUSH6 0xFFFFFFFFFFFF DUP3 AND SWAP1 POP SWAP2 SWAP1 POP JUMP JUMPDEST PUSH2 0x76A6 DUP2 PUSH2 0x768C JUMP JUMPDEST DUP3 MSTORE POP POP JUMP JUMPDEST PUSH0 PUSH1 0x20 DUP3 ADD SWAP1 POP PUSH2 0x76BF PUSH0 DUP4 ADD DUP5 PUSH2 0x769D JUMP JUMPDEST SWAP3 SWAP2 POP POP JUMP JUMPDEST PUSH0 DUP2 SWAP1 POP SWAP2 SWAP1 POP JUMP JUMPDEST PUSH2 0x76D7 DUP2 PUSH2 0x76C5 JUMP JUMPDEST DUP3 MSTORE POP POP JUMP JUMPDEST PUSH0 PUSH1 0x20 DUP3 ADD SWAP1 POP PUSH2 0x76F0 PUSH0 DUP4 ADD DUP5 PUSH2 0x76CE JUMP JUMPDEST SWAP3 SWAP2 POP POP JUMP JUMPDEST PUSH0 DUP2 MLOAD SWAP1 POP SWAP2 SWAP1 POP JUMP JUMPDEST PUSH0 DUP3 DUP3 MSTORE PUSH1 0x20 DUP3 ADD SWAP1 POP SWAP3 SWAP2 POP POP JUMP JUMPDEST PUSH0 JUMPDEST DUP4 DUP2 LT ISZERO PUSH2 0x772D JUMPI DUP1 DUP3 ADD MLOAD DUP2 DUP5 ADD MSTORE PUSH1 0x20 DUP2 ADD SWAP1 POP PUSH2 0x7712 JUMP JUMPDEST PUSH0 DUP5 DUP5 ADD MSTORE POP POP POP POP JUMP JUMPDEST PUSH0 PUSH1 0x1F NOT PUSH1 0x1F DUP4 ADD AND SWAP1 POP SWAP2 SWAP1 POP JUMP JUMPDEST PUSH0 PUSH2 0x7752 DUP3 PUSH2 0x76F6 JUMP JUMPDEST PUSH2 0x775C DUP2 DUP6 PUSH2 0x7700 JUMP JUMPDEST SWAP4 POP PUSH2 0x776C DUP2 DUP6 PUSH1 0x20 DUP7 ADD PUSH2 0x7710 JUMP JUMPDEST PUSH2 0x7775 DUP2 PUSH2 0x7738 JUMP JUMPDEST DUP5 ADD SWAP2 POP POP SWAP3 SWAP2 POP POP JUMP JUMPDEST PUSH0 PUSH1 0x20 DUP3 ADD SWAP1 POP DUP2 DUP2 SUB PUSH0 DUP4 ADD MSTORE PUSH2 0x7798 DUP2 DUP5 PUSH2 0x7748 JUMP JUMPDEST SWAP1 POP SWAP3 SWAP2 POP POP JUMP JUMPDEST PUSH2 0x77A9 DUP2 PUSH2 0x7597 JUMP JUMPDEST DUP2 EQ PUSH2 0x77B3 JUMPI PUSH0 DUP1 REVERT JUMPDEST POP JUMP JUMPDEST PUSH0 DUP2 CALLDATALOAD SWAP1 POP PUSH2 0x77C4 DUP2 PUSH2 0x77A0 JUMP JUMPDEST SWAP3 SWAP2 POP POP JUMP JUMPDEST PUSH0 PUSH1 0x20 DUP3 DUP5 SUB SLT ISZERO PUSH2 0x77DF JUMPI PUSH2 0x77DE PUSH2 0x75D1 JUMP JUMPDEST JUMPDEST PUSH0 PUSH2 0x77EC DUP5 DUP3 DUP6 ADD PUSH2 0x77B6 JUMP JUMPDEST SWAP2 POP POP SWAP3 SWAP2 POP POP JUMP JUMPDEST PUSH0 PUSH20 0xFFFFFFFFFFFFFFFFFFFFFFFFFFFFFFFFFFFFFFFF DUP3 AND SWAP1 POP SWAP2 SWAP1 POP JUMP JUMPDEST PUSH0 PUSH2 0x781E DUP3 PUSH2 0x77F5 JUMP JUMPDEST SWAP1 POP SWAP2 SWAP1 POP JUMP JUMPDEST PUSH2 0x782E DUP2 PUSH2 0x7814 JUMP JUMPDEST DUP2 EQ PUSH2 0x7838 JUMPI PUSH0 DUP1 REVERT JUMPDEST POP JUMP JUMPDEST PUSH0 DUP2 CALLDATALOAD SWAP1 POP PUSH2 0x7849 DUP2 PUSH2 0x7825 JUMP JUMPDEST SWAP3 SWAP2 POP POP JUMP JUMPDEST PUSH0 DUP1 PUSH1 0x40 DUP4 DUP6 SUB SLT ISZERO PUSH2 0x7865 JUMPI PUSH2 0x7864 PUSH2 0x75D1 JUMP JUMPDEST JUMPDEST PUSH0 PUSH2 0x7872 DUP6 DUP3 DUP7 ADD PUSH2 0x783B JUMP JUMPDEST SWAP3 POP POP PUSH1 0x20 PUSH2 0x7883 DUP6 DUP3 DUP7 ADD PUSH2 0x77B6 JUMP JUMPDEST SWAP2 POP POP SWAP3 POP SWAP3 SWAP1 POP JUMP JUMPDEST PUSH0 DUP2 MLOAD SWAP1 POP SWAP2 SWAP1 POP JUMP JUMPDEST PUSH0 DUP3 DUP3 MSTORE PUSH1 0x20 DUP3 ADD SWAP1 POP SWAP3 SWAP2 POP POP JUMP JUMPDEST PUSH0 DUP2 SWAP1 POP PUSH1 0x20 DUP3 ADD SWAP1 POP SWAP2 SWAP1 POP JUMP JUMPDEST PUSH2 0x78BF DUP2 PUSH2 0x7814 JUMP JUMPDEST DUP3 MSTORE POP POP JUMP JUMPDEST PUSH2 0x78CE DUP2 PUSH2 0x7597 JUMP JUMPDEST DUP3 MSTORE POP POP JUMP JUMPDEST PUSH1 0x60 DUP3 ADD PUSH0 DUP3 ADD MLOAD PUSH2 0x78E8 PUSH0 DUP6 ADD DUP3 PUSH2 0x78B6 JUMP JUMPDEST POP PUSH1 0x20 DUP3 ADD MLOAD PUSH2 0x78FB PUSH1 0x20 DUP6 ADD DUP3 PUSH2 0x78C5 JUMP JUMPDEST POP PUSH1 0x40 DUP3 ADD MLOAD PUSH2 0x790E PUSH1 0x40 DUP6 ADD DUP3 PUSH2 0x78C5 JUMP JUMPDEST POP POP POP POP JUMP JUMPDEST PUSH0 PUSH2 0x791F DUP4 DUP4 PUSH2 0x78D4 JUMP JUMPDEST PUSH1 0x60 DUP4 ADD SWAP1 POP SWAP3 SWAP2 POP POP JUMP JUMPDEST PUSH0 PUSH1 0x20 DUP3 ADD SWAP1 POP SWAP2 SWAP1 POP JUMP JUMPDEST PUSH0 PUSH2 0x7941 DUP3 PUSH2 0x788D JUMP JUMPDEST PUSH2 0x794B DUP2 DUP6 PUSH2 0x7897 JUMP JUMPDEST SWAP4 POP PUSH2 0x7956 DUP4 PUSH2 0x78A7 JUMP JUMPDEST DUP1 PUSH0 JUMPDEST DUP4 DUP2 LT ISZERO PUSH2 0x7986 JUMPI DUP2 MLOAD PUSH2 0x796D DUP9 DUP3 PUSH2 0x7914 JUMP JUMPDEST SWAP8 POP PUSH2 0x7978 DUP4 PUSH2 0x792B JUMP JUMPDEST SWAP3 POP POP PUSH1 0x1 DUP2 ADD SWAP1 POP PUSH2 0x7959 JUMP JUMPDEST POP DUP6 SWAP4 POP POP POP POP SWAP3 SWAP2 POP POP JUMP JUMPDEST PUSH0 PUSH1 0x20 DUP3 ADD SWAP1 POP DUP2 DUP2 SUB PUSH0 DUP4 ADD MSTORE PUSH2 0x79AB DUP2 DUP5 PUSH2 0x7937 JUMP JUMPDEST SWAP1 POP SWAP3 SWAP2 POP POP JUMP JUMPDEST PUSH0 DUP1 PUSH0 PUSH1 0x60 DUP5 DUP7 SUB SLT ISZERO PUSH2 0x79CA JUMPI PUSH2 0x79C9 PUSH2 0x75D1 JUMP JUMPDEST JUMPDEST PUSH0 PUSH2 0x79D7 DUP7 DUP3 DUP8 ADD PUSH2 0x783B JUMP JUMPDEST SWAP4 POP POP PUSH1 0x20 PUSH2 0x79E8 DUP7 DUP3 DUP8 ADD PUSH2 0x783B JUMP JUMPDEST SWAP3 POP POP PUSH1 0x40 PUSH2 0x79F9 DUP7 DUP3 DUP8 ADD PUSH2 0x77B6 JUMP JUMPDEST SWAP2 POP POP SWAP3 POP SWAP3 POP SWAP3 JUMP JUMPDEST PUSH2 0x7A0C DUP2 PUSH2 0x76C5 JUMP JUMPDEST DUP2 EQ PUSH2 0x7A16 JUMPI PUSH0 DUP1 REVERT JUMPDEST POP JUMP JUMPDEST PUSH0 DUP2 CALLDATALOAD SWAP1 POP PUSH2 0x7A27 DUP2 PUSH2 0x7A03 JUMP JUMPDEST SWAP3 SWAP2 POP POP JUMP JUMPDEST PUSH0 PUSH1 0x20 DUP3 DUP5 SUB SLT ISZERO PUSH2 0x7A42 JUMPI PUSH2 0x7A41 PUSH2 0x75D1 JUMP JUMPDEST JUMPDEST PUSH0 PUSH2 0x7A4F DUP5 DUP3 DUP6 ADD PUSH2 0x7A19 JUMP JUMPDEST SWAP2 POP POP SWAP3 SWAP2 POP POP JUMP JUMPDEST PUSH0 DUP1 PUSH1 0x40 DUP4 DUP6 SUB SLT ISZERO PUSH2 0x7A6E JUMPI PUSH2 0x7A6D PUSH2 0x75D1 JUMP JUMPDEST JUMPDEST PUSH0 PUSH2 0x7A7B DUP6 DUP3 DUP7 ADD PUSH2 0x7A19 JUMP JUMPDEST SWAP3 POP POP PUSH1 0x20 PUSH2 0x7A8C DUP6 DUP3 DUP7 ADD PUSH2 0x783B JUMP JUMPDEST SWAP2 POP POP SWAP3 POP SWAP3 SWAP1 POP JUMP JUMPDEST PUSH0 PUSH1 0xFF DUP3 AND SWAP1 POP SWAP2 SWAP1 POP JUMP JUMPDEST PUSH2 0x7AAB DUP2 PUSH2 0x7A96 JUMP JUMPDEST DUP3 MSTORE POP POP JUMP JUMPDEST PUSH0 PUSH1 0x20 DUP3 ADD SWAP1 POP PUSH2 0x7AC4 PUSH0 DUP4 ADD DUP5 PUSH2 0x7AA2 JUMP JUMPDEST SWAP3 SWAP2 POP POP JUMP JUMPDEST PUSH2 0x7AD3 DUP2 PUSH2 0x7814 JUMP JUMPDEST DUP3 MSTORE POP POP JUMP JUMPDEST PUSH0 PUSH1 0x20 DUP3 ADD SWAP1 POP PUSH2 0x7AEC PUSH0 DUP4 ADD DUP5 PUSH2 0x7ACA JUMP JUMPDEST SWAP3 SWAP2 POP POP JUMP JUMPDEST PUSH0 PUSH1 0x20 DUP3 DUP5 SUB SLT ISZERO PUSH2 0x7B07 JUMPI PUSH2 0x7B06 PUSH2 0x75D1 JUMP JUMPDEST JUMPDEST PUSH0 PUSH2 0x7B14 DUP5 DUP3 DUP6 ADD PUSH2 0x783B JUMP JUMPDEST SWAP2 POP POP SWAP3 SWAP2 POP POP JUMP JUMPDEST PUSH2 0x7B26 DUP2 PUSH2 0x768C JUMP JUMPDEST DUP2 EQ PUSH2 0x7B30 JUMPI PUSH0 DUP1 REVERT JUMPDEST POP JUMP JUMPDEST PUSH0 DUP2 CALLDATALOAD SWAP1 POP PUSH2 0x7B41 DUP2 PUSH2 0x7B1D JUMP JUMPDEST SWAP3 SWAP2 POP POP JUMP JUMPDEST PUSH0 PUSH1 0x20 DUP3 DUP5 SUB SLT ISZERO PUSH2 0x7B5C JUMPI PUSH2 0x7B5B PUSH2 0x75D1 JUMP JUMPDEST JUMPDEST PUSH0 PUSH2 0x7B69 DUP5 DUP3 DUP6 ADD PUSH2 0x7B33 JUMP JUMPDEST SWAP2 POP POP SWAP3 SWAP2 POP POP JUMP JUMPDEST PUSH0 DUP1 PUSH1 0x40 DUP4 DUP6 SUB SLT ISZERO PUSH2 0x7B88 JUMPI PUSH2 0x7B87 PUSH2 0x75D1 JUMP JUMPDEST JUMPDEST PUSH0 PUSH2 0x7B95 DUP6 DUP3 DUP7 ADD PUSH2 0x77B6 JUMP JUMPDEST SWAP3 POP POP PUSH1 0x20 PUSH2 0x7BA6 DUP6 DUP3 DUP7 ADD PUSH2 0x783B JUMP JUMPDEST SWAP2 POP POP SWAP3 POP SWAP3 SWAP1 POP JUMP JUMPDEST PUSH0 DUP1 REVERT JUMPDEST PUSH0 PUSH2 0x220 DUP3 DUP5 SUB SLT ISZERO PUSH2 0x7BCA JUMPI PUSH2 0x7BC9 PUSH2 0x7BB0 JUMP JUMPDEST JUMPDEST DUP2 SWAP1 POP SWAP3 SWAP2 POP POP JUMP JUMPDEST PUSH0 PUSH2 0x100 DUP3 DUP5 SUB SLT ISZERO PUSH2 0x7BE9 JUMPI PUSH2 0x7BE8 PUSH2 0x7BB0 JUMP JUMPDEST JUMPDEST DUP2 SWAP1 POP SWAP3 SWAP2 POP POP JUMP JUMPDEST PUSH0 DUP1 PUSH1 0x40 DUP4 DUP6 SUB SLT ISZERO PUSH2 0x7C08 JUMPI PUSH2 0x7C07 PUSH2 0x75D1 JUMP JUMPDEST JUMPDEST PUSH0 DUP4 ADD CALLDATALOAD PUSH8 0xFFFFFFFFFFFFFFFF DUP2 GT ISZERO PUSH2 0x7C25 JUMPI PUSH2 0x7C24 PUSH2 0x75D5 JUMP JUMPDEST JUMPDEST PUSH2 0x7C31 DUP6 DUP3 DUP7 ADD PUSH2 0x7BB4 JUMP JUMPDEST SWAP3 POP POP PUSH1 0x20 DUP4 ADD CALLDATALOAD PUSH8 0xFFFFFFFFFFFFFFFF DUP2 GT ISZERO PUSH2 0x7C52 JUMPI PUSH2 0x7C51 PUSH2 0x75D5 JUMP JUMPDEST JUMPDEST PUSH2 0x7C5E DUP6 DUP3 DUP7 ADD PUSH2 0x7BD3 JUMP JUMPDEST SWAP2 POP POP SWAP3 POP SWAP3 SWAP1 POP JUMP JUMPDEST PUSH0 DUP1 REVERT JUMPDEST PUSH0 DUP1 REVERT JUMPDEST PUSH0 DUP1 REVERT JUMPDEST PUSH0 DUP1 DUP4 PUSH1 0x1F DUP5 ADD SLT PUSH2 0x7C89 JUMPI PUSH2 0x7C88 PUSH2 0x7C68 JUMP JUMPDEST JUMPDEST DUP3 CALLDATALOAD SWAP1 POP PUSH8 0xFFFFFFFFFFFFFFFF DUP2 GT ISZERO PUSH2 0x7CA6 JUMPI PUSH2 0x7CA5 PUSH2 0x7C6C JUMP JUMPDEST JUMPDEST PUSH1 0x20 DUP4 ADD SWAP2 POP DUP4 PUSH1 0x60 DUP3 MUL DUP4 ADD GT ISZERO PUSH2 0x7CC2 JUMPI PUSH2 0x7CC1 PUSH2 0x7C70 JUMP JUMPDEST JUMPDEST SWAP3 POP SWAP3 SWAP1 POP JUMP JUMPDEST PUSH0 DUP1 PUSH1 0x20 DUP4 DUP6 SUB SLT ISZERO PUSH2 0x7CDF JUMPI PUSH2 0x7CDE PUSH2 0x75D1 JUMP JUMPDEST JUMPDEST PUSH0 DUP4 ADD CALLDATALOAD PUSH8 0xFFFFFFFFFFFFFFFF DUP2 GT ISZERO PUSH2 0x7CFC JUMPI PUSH2 0x7CFB PUSH2 0x75D5 JUMP JUMPDEST JUMPDEST PUSH2 0x7D08 DUP6 DUP3 DUP7 ADD PUSH2 0x7C74 JUMP JUMPDEST SWAP3 POP SWAP3 POP POP SWAP3 POP SWAP3 SWAP1 POP JUMP JUMPDEST PUSH0 DUP2 SWAP1 POP SWAP2 SWAP1 POP JUMP JUMPDEST PUSH0 PUSH2 0x7D37 PUSH2 0x7D32 PUSH2 0x7D2D DUP5 PUSH2 0x77F5 JUMP JUMPDEST PUSH2 0x7D14 JUMP JUMPDEST PUSH2 0x77F5 JUMP JUMPDEST SWAP1 POP SWAP2 SWAP1 POP JUMP JUMPDEST PUSH0 PUSH2 0x7D48 DUP3 PUSH2 0x7D1D JUMP JUMPDEST SWAP1 POP SWAP2 SWAP1 POP JUMP JUMPDEST PUSH0 PUSH2 0x7D59 DUP3 PUSH2 0x7D3E JUMP JUMPDEST SWAP1 POP SWAP2 SWAP1 POP JUMP JUMPDEST PUSH2 0x7D69 DUP2 PUSH2 0x7D4F JUMP JUMPDEST DUP3 MSTORE POP POP JUMP JUMPDEST PUSH0 PUSH1 0x20 DUP3 ADD SWAP1 POP PUSH2 0x7D82 PUSH0 DUP4 ADD DUP5 PUSH2 0x7D60 JUMP JUMPDEST SWAP3 SWAP2 POP POP JUMP JUMPDEST PUSH0 PUSH1 0x20 DUP3 DUP5 SUB SLT ISZERO PUSH2 0x7D9D JUMPI PUSH2 0x7D9C PUSH2 0x75D1 JUMP JUMPDEST JUMPDEST PUSH0 DUP3 ADD CALLDATALOAD PUSH8 0xFFFFFFFFFFFFFFFF DUP2 GT ISZERO PUSH2 0x7DBA JUMPI PUSH2 0x7DB9 PUSH2 0x75D5 JUMP JUMPDEST JUMPDEST PUSH2 0x7DC6 DUP5 DUP3 DUP6 ADD PUSH2 0x7BD3 JUMP JUMPDEST SWAP2 POP POP SWAP3 SWAP2 POP POP JUMP JUMPDEST PUSH0 PUSH1 0x40 DUP3 ADD SWAP1 POP PUSH2 0x7DE2 PUSH0 DUP4 ADD DUP6 PUSH2 0x769D JUMP JUMPDEST PUSH2 0x7DEF PUSH1 0x20 DUP4 ADD DUP5 PUSH2 0x769D JUMP JUMPDEST SWAP4 SWAP3 POP POP POP JUMP JUMPDEST PUSH1 0x60 DUP3 ADD PUSH0 DUP3 ADD MLOAD PUSH2 0x7E0A PUSH0 DUP6 ADD DUP3 PUSH2 0x78B6 JUMP JUMPDEST POP PUSH1 0x20 DUP3 ADD MLOAD PUSH2 0x7E1D PUSH1 0x20 DUP6 ADD DUP3 PUSH2 0x78C5 JUMP JUMPDEST POP PUSH1 0x40 DUP3 ADD MLOAD PUSH2 0x7E30 PUSH1 0x40 DUP6 ADD DUP3 PUSH2 0x78C5 JUMP JUMPDEST POP POP POP POP JUMP JUMPDEST PUSH0 PUSH1 0x60 DUP3 ADD SWAP1 POP PUSH2 0x7E49 PUSH0 DUP4 ADD DUP5 PUSH2 0x7DF6 JUMP JUMPDEST SWAP3 SWAP2 POP POP JUMP JUMPDEST PUSH32 0x4E487B7100000000000000000000000000000000000000000000000000000000 PUSH0 MSTORE PUSH1 0x21 PUSH1 0x4 MSTORE PUSH1 0x24 PUSH0 REVERT JUMPDEST PUSH1 0x3 DUP2 LT PUSH2 0x7E8D JUMPI PUSH2 0x7E8C PUSH2 0x7E4F JUMP JUMPDEST JUMPDEST POP JUMP JUMPDEST PUSH0 DUP2 SWAP1 POP PUSH2 0x7E9D DUP3 PUSH2 0x7E7C JUMP JUMPDEST SWAP2 SWAP1 POP JUMP JUMPDEST PUSH0 PUSH2 0x7EAC DUP3 PUSH2 0x7E90 JUMP JUMPDEST SWAP1 POP SWAP2 SWAP1 POP JUMP JUMPDEST PUSH2 0x7EBC DUP2 PUSH2 0x7EA2 JUMP JUMPDEST DUP3 MSTORE POP POP JUMP JUMPDEST PUSH0 PUSH1 0x20 DUP3 ADD SWAP1 POP PUSH2 0x7ED5 PUSH0 DUP4 ADD DUP5 PUSH2 0x7EB3 JUMP JUMPDEST SWAP3 SWAP2 POP POP JUMP JUMPDEST PUSH0 DUP1 PUSH0 PUSH1 0x60 DUP5 DUP7 SUB SLT ISZERO PUSH2 0x7EF2 JUMPI PUSH2 0x7EF1 PUSH2 0x75D1 JUMP JUMPDEST JUMPDEST PUSH0 PUSH2 0x7EFF DUP7 DUP3 DUP8 ADD PUSH2 0x77B6 JUMP JUMPDEST SWAP4 POP POP PUSH1 0x20 PUSH2 0x7F10 DUP7 DUP3 DUP8 ADD PUSH2 0x783B JUMP JUMPDEST SWAP3 POP POP PUSH1 0x40 PUSH2 0x7F21 DUP7 DUP3 DUP8 ADD PUSH2 0x783B JUMP JUMPDEST SWAP2 POP POP SWAP3 POP SWAP3 POP SWAP3 JUMP JUMPDEST PUSH0 PUSH2 0x7F35 DUP3 PUSH2 0x7D3E JUMP JUMPDEST SWAP1 POP SWAP2 SWAP1 POP JUMP JUMPDEST PUSH2 0x7F45 DUP2 PUSH2 0x7F2B JUMP JUMPDEST DUP3 MSTORE POP POP JUMP JUMPDEST PUSH0 PUSH1 0x20 DUP3 ADD SWAP1 POP PUSH2 0x7F5E PUSH0 DUP4 ADD DUP5 PUSH2 0x7F3C JUMP JUMPDEST SWAP3 SWAP2 POP POP JUMP JUMPDEST PUSH0 DUP1 DUP4 PUSH1 0x1F DUP5 ADD SLT PUSH2 0x7F79 JUMPI PUSH2 0x7F78 PUSH2 0x7C68 JUMP JUMPDEST JUMPDEST DUP3 CALLDATALOAD SWAP1 POP PUSH8 0xFFFFFFFFFFFFFFFF DUP2 GT ISZERO PUSH2 0x7F96 JUMPI PUSH2 0x7F95 PUSH2 0x7C6C JUMP JUMPDEST JUMPDEST PUSH1 0x20 DUP4 ADD SWAP2 POP DUP4 PUSH1 0x1 DUP3 MUL DUP4 ADD GT ISZERO PUSH2 0x7FB2 JUMPI PUSH2 0x7FB1 PUSH2 0x7C70 JUMP JUMPDEST JUMPDEST SWAP3 POP SWAP3 SWAP1 POP JUMP JUMPDEST PUSH0 DUP1 PUSH0 PUSH1 0x40 DUP5 DUP7 SUB SLT ISZERO PUSH2 0x7FD0 JUMPI PUSH2 0x7FCF PUSH2 0x75D1 JUMP JUMPDEST JUMPDEST PUSH0 PUSH2 0x7FDD DUP7 DUP3 DUP8 ADD PUSH2 0x783B JUMP JUMPDEST SWAP4 POP POP PUSH1 0x20 DUP5 ADD CALLDATALOAD PUSH8 0xFFFFFFFFFFFFFFFF DUP2 GT ISZERO PUSH2 0x7FFE JUMPI PUSH2 0x7FFD PUSH2 0x75D5 JUMP JUMPDEST JUMPDEST PUSH2 0x800A DUP7 DUP3 DUP8 ADD PUSH2 0x7F64 JUMP JUMPDEST SWAP3 POP SWAP3 POP POP SWAP3 POP SWAP3 POP SWAP3 JUMP JUMPDEST PUSH0 PUSH2 0x8020 DUP3 PUSH2 0x7814 JUMP JUMPDEST SWAP1 POP SWAP2 SWAP1 POP JUMP JUMPDEST PUSH2 0x8030 DUP2 PUSH2 0x8016 JUMP JUMPDEST DUP2 EQ PUSH2 0x803A JUMPI PUSH0 DUP1 REVERT JUMPDEST POP JUMP JUMPDEST PUSH0 DUP2 CALLDATALOAD SWAP1 POP PUSH2 0x804B DUP2 PUSH2 0x8027 JUMP JUMPDEST SWAP3 SWAP2 POP POP JUMP JUMPDEST PUSH0 PUSH1 0x20 DUP3 DUP5 SUB SLT ISZERO PUSH2 0x8066 JUMPI PUSH2 0x8065 PUSH2 0x75D1 JUMP JUMPDEST JUMPDEST PUSH0 PUSH2 0x8073 DUP5 DUP3 DUP6 ADD PUSH2 0x803D JUMP JUMPDEST SWAP2 POP POP SWAP3 SWAP2 POP POP JUMP JUMPDEST PUSH0 PUSH1 0x40 DUP3 ADD SWAP1 POP PUSH2 0x808F PUSH0 DUP4 ADD DUP6 PUSH2 0x7ACA JUMP JUMPDEST PUSH2 0x809C PUSH1 0x20 DUP4 ADD DUP5 PUSH2 0x769D JUMP JUMPDEST SWAP4 SWAP3 POP POP POP JUMP JUMPDEST PUSH0 DUP1 PUSH1 0x40 DUP4 DUP6 SUB SLT ISZERO PUSH2 0x80B9 JUMPI PUSH2 0x80B8 PUSH2 0x75D1 JUMP JUMPDEST JUMPDEST PUSH0 PUSH2 0x80C6 DUP6 DUP3 DUP7 ADD PUSH2 0x783B JUMP JUMPDEST SWAP3 POP POP PUSH1 0x20 PUSH2 0x80D7 DUP6 DUP3 DUP7 ADD PUSH2 0x783B JUMP JUMPDEST SWAP2 POP POP SWAP3 POP SWAP3 SWAP1 POP JUMP JUMPDEST PUSH0 DUP1 PUSH1 0x20 DUP4 DUP6 SUB SLT ISZERO PUSH2 0x80F7 JUMPI PUSH2 0x80F6 PUSH2 0x75D1 JUMP JUMPDEST JUMPDEST PUSH0 DUP4 ADD CALLDATALOAD PUSH8 0xFFFFFFFFFFFFFFFF DUP2 GT ISZERO PUSH2 0x8114 JUMPI PUSH2 0x8113 PUSH2 0x75D5 JUMP JUMPDEST JUMPDEST PUSH2 0x8120 DUP6 DUP3 DUP7 ADD PUSH2 0x7F64 JUMP JUMPDEST SWAP3 POP SWAP3 POP POP SWAP3 POP SWAP3 SWAP1 POP JUMP JUMPDEST PUSH0 DUP2 MLOAD SWAP1 POP SWAP2 SWAP1 POP JUMP JUMPDEST PUSH0 DUP3 DUP3 MSTORE PUSH1 0x20 DUP3 ADD SWAP1 POP SWAP3 SWAP2 POP POP JUMP JUMPDEST PUSH0 PUSH2 0x8150 DUP3 PUSH2 0x812C JUMP JUMPDEST PUSH2 0x815A DUP2 DUP6 PUSH2 0x8136 JUMP JUMPDEST SWAP4 POP PUSH2 0x816A DUP2 DUP6 PUSH1 0x20 DUP7 ADD PUSH2 0x7710 JUMP JUMPDEST PUSH2 0x8173 DUP2 PUSH2 0x7738 JUMP JUMPDEST DUP5 ADD SWAP2 POP POP SWAP3 SWAP2 POP POP JUMP JUMPDEST PUSH0 PUSH1 0x20 DUP3 ADD SWAP1 POP DUP2 DUP2 SUB PUSH0 DUP4 ADD MSTORE PUSH2 0x8196 DUP2 DUP5 PUSH2 0x8146 JUMP JUMPDEST SWAP1 POP SWAP3 SWAP2 POP POP JUMP JUMPDEST PUSH1 0x3 DUP2 LT PUSH2 0x81AA JUMPI PUSH0 DUP1 REVERT JUMPDEST POP JUMP JUMPDEST PUSH0 DUP2 CALLDATALOAD SWAP1 POP PUSH2 0x81BB DUP2 PUSH2 0x819E JUMP JUMPDEST SWAP3 SWAP2 POP POP JUMP JUMPDEST PUSH0 PUSH1 0x20 DUP3 DUP5 SUB SLT ISZERO PUSH2 0x81D6 JUMPI PUSH2 0x81D5 PUSH2 0x75D1 JUMP JUMPDEST JUMPDEST PUSH0 PUSH2 0x81E3 DUP5 DUP3 DUP6 ADD PUSH2 0x81AD JUMP JUMPDEST SWAP2 POP POP SWAP3 SWAP2 POP POP JUMP JUMPDEST PUSH0 PUSH2 0x81F6 DUP3 PUSH2 0x7D3E JUMP JUMPDEST SWAP1 POP SWAP2 SWAP1 POP JUMP JUMPDEST PUSH2 0x8206 DUP2 PUSH2 0x81EC JUMP JUMPDEST DUP3 MSTORE POP POP JUMP JUMPDEST PUSH0 PUSH1 0x20 DUP3 ADD SWAP1 POP PUSH2 0x821F PUSH0 DUP4 ADD DUP5 PUSH2 0x81FD JUMP JUMPDEST SWAP3 SWAP2 POP POP JUMP JUMPDEST PUSH0 DUP2 MLOAD SWAP1 POP PUSH2 0x8233 DUP2 PUSH2 0x77A0 JUMP JUMPDEST SWAP3 SWAP2 POP POP JUMP JUMPDEST PUSH0 PUSH1 0x20 DUP3 DUP5 SUB SLT ISZERO PUSH2 0x824E JUMPI PUSH2 0x824D PUSH2 0x75D1 JUMP JUMPDEST JUMPDEST PUSH0 PUSH2 0x825B DUP5 DUP3 DUP6 ADD PUSH2 0x8225 JUMP JUMPDEST SWAP2 POP POP SWAP3 SWAP2 POP POP JUMP JUMPDEST PUSH0 PUSH2 0x826E DUP3 PUSH2 0x7D3E JUMP JUMPDEST SWAP1 POP SWAP2 SWAP1 POP JUMP JUMPDEST PUSH2 0x827E DUP2 PUSH2 0x8264 JUMP JUMPDEST DUP3 MSTORE POP POP JUMP JUMPDEST PUSH0 PUSH1 0x40 DUP3 ADD SWAP1 POP PUSH2 0x8297 PUSH0 DUP4 ADD DUP6 PUSH2 0x8275 JUMP JUMPDEST PUSH2 0x82A4 PUSH1 0x20 DUP4 ADD DUP5 PUSH2 0x7AA2 JUMP JUMPDEST SWAP4 SWAP3 POP POP POP JUMP JUMPDEST PUSH32 0x4E487B7100000000000000000000000000000000000000000000000000000000 PUSH0 MSTORE PUSH1 0x22 PUSH1 0x4 MSTORE PUSH1 0x24 PUSH0 REVERT JUMPDEST PUSH0 PUSH1 0x2 DUP3 DIV SWAP1 POP PUSH1 0x1 DUP3 AND DUP1 PUSH2 0x82EF JUMPI PUSH1 0x7F DUP3 AND SWAP2 POP JUMPDEST PUSH1 0x20 DUP3 LT DUP2 SUB PUSH2 0x8302 JUMPI PUSH2 0x8301 PUSH2 0x82AB JUMP JUMPDEST JUMPDEST POP SWAP2 SWAP1 POP JUMP JUMPDEST PUSH32 0x4E487B7100000000000000000000000000000000000000000000000000000000 PUSH0 MSTORE PUSH1 0x11 PUSH1 0x4 MSTORE PUSH1 0x24 PUSH0 REVERT JUMPDEST PUSH0 DUP2 PUSH1 0x1 SHR SWAP1 POP SWAP2 SWAP1 POP JUMP JUMPDEST PUSH0 DUP1 DUP3 SWAP2 POP DUP4 SWAP1 POP JUMPDEST PUSH1 0x1 DUP6 GT ISZERO PUSH2 0x838A JUMPI DUP1 DUP7 DIV DUP2 GT ISZERO PUSH2 0x8366 JUMPI PUSH2 0x8365 PUSH2 0x8308 JUMP JUMPDEST JUMPDEST PUSH1 0x1 DUP6 AND ISZERO PUSH2 0x8375 JUMPI DUP1 DUP3 MUL SWAP2 POP JUMPDEST DUP1 DUP2 MUL SWAP1 POP PUSH2 0x8383 DUP6 PUSH2 0x8335 JUMP JUMPDEST SWAP5 POP PUSH2 0x834A JUMP JUMPDEST SWAP5 POP SWAP5 SWAP3 POP POP POP JUMP JUMPDEST PUSH0 DUP3 PUSH2 0x83A2 JUMPI PUSH1 0x1 SWAP1 POP PUSH2 0x845D JUMP JUMPDEST DUP2 PUSH2 0x83AF JUMPI PUSH0 SWAP1 POP PUSH2 0x845D JUMP JUMPDEST DUP2 PUSH1 0x1 DUP2 EQ PUSH2 0x83C5 JUMPI PUSH1 0x2 DUP2 EQ PUSH2 0x83CF JUMPI PUSH2 0x83FE JUMP JUMPDEST PUSH1 0x1 SWAP2 POP POP PUSH2 0x845D JUMP JUMPDEST PUSH1 0xFF DUP5 GT ISZERO PUSH2 0x83E1 JUMPI PUSH2 0x83E0 PUSH2 0x8308 JUMP JUMPDEST JUMPDEST DUP4 PUSH1 0x2 EXP SWAP2 POP DUP5 DUP3 GT ISZERO PUSH2 0x83F8 JUMPI PUSH2 0x83F7 PUSH2 0x8308 JUMP JUMPDEST JUMPDEST POP PUSH2 0x845D JUMP JUMPDEST POP PUSH1 0x20 DUP4 LT PUSH2 0x133 DUP4 LT AND PUSH1 0x4E DUP5 LT PUSH1 0xB DUP5 LT AND OR ISZERO PUSH2 0x8433 JUMPI DUP3 DUP3 EXP SWAP1 POP DUP4 DUP2 GT ISZERO PUSH2 0x842E JUMPI PUSH2 0x842D PUSH2 0x8308 JUMP JUMPDEST JUMPDEST PUSH2 0x845D JUMP JUMPDEST PUSH2 0x8440 DUP5 DUP5 DUP5 PUSH1 0x1 PUSH2 0x8341 JUMP JUMPDEST SWAP3 POP SWAP1 POP DUP2 DUP5 DIV DUP2 GT ISZERO PUSH2 0x8457 JUMPI PUSH2 0x8456 PUSH2 0x8308 JUMP JUMPDEST JUMPDEST DUP2 DUP2 MUL SWAP1 POP JUMPDEST SWAP4 SWAP3 POP POP POP JUMP JUMPDEST PUSH0 PUSH2 0x846E DUP3 PUSH2 0x7597 JUMP JUMPDEST SWAP2 POP PUSH2 0x8479 DUP4 PUSH2 0x7A96 JUMP JUMPDEST SWAP3 POP PUSH2 0x84A6 PUSH32 0xFFFFFFFFFFFFFFFFFFFFFFFFFFFFFFFFFFFFFFFFFFFFFFFFFFFFFFFFFFFFFFFF DUP5 DUP5 PUSH2 0x8393 JUMP JUMPDEST SWAP1 POP SWAP3 SWAP2 POP POP JUMP JUMPDEST PUSH0 PUSH2 0x84B8 DUP3 PUSH2 0x7597 JUMP JUMPDEST SWAP2 POP PUSH2 0x84C3 DUP4 PUSH2 0x7597 JUMP JUMPDEST SWAP3 POP DUP3 DUP3 ADD SWAP1 POP DUP1 DUP3 GT ISZERO PUSH2 0x84DB JUMPI PUSH2 0x84DA PUSH2 0x8308 JUMP JUMPDEST JUMPDEST SWAP3 SWAP2 POP POP JUMP JUMPDEST PUSH32 0x4E487B7100000000000000000000000000000000000000000000000000000000 PUSH0 MSTORE PUSH1 0x41 PUSH1 0x4 MSTORE PUSH1 0x24 PUSH0 REVERT JUMPDEST PUSH2 0x8517 DUP3 PUSH2 0x7738 JUMP JUMPDEST DUP2 ADD DUP2 DUP2 LT PUSH8 0xFFFFFFFFFFFFFFFF DUP3 GT OR ISZERO PUSH2 0x8536 JUMPI PUSH2 0x8535 PUSH2 0x84E1 JUMP JUMPDEST JUMPDEST DUP1 PUSH1 0x40 MSTORE POP POP POP JUMP JUMPDEST PUSH0 PUSH2 0x8548 PUSH2 0x75C8 JUMP JUMPDEST SWAP1 POP PUSH2 0x8554 DUP3 DUP3 PUSH2 0x850E JUMP JUMPDEST SWAP2 SWAP1 POP JUMP JUMPDEST PUSH0 PUSH8 0xFFFFFFFFFFFFFFFF DUP3 GT ISZERO PUSH2 0x8573 JUMPI PUSH2 0x8572 PUSH2 0x84E1 JUMP JUMPDEST JUMPDEST PUSH1 0x20 DUP3 MUL SWAP1 POP PUSH1 0x20 DUP2 ADD SWAP1 POP SWAP2 SWAP1 POP JUMP JUMPDEST PUSH0 DUP1 REVERT JUMPDEST PUSH0 DUP2 MLOAD SWAP1 POP PUSH2 0x8596 DUP2 PUSH2 0x7825 JUMP JUMPDEST SWAP3 SWAP2 POP POP JUMP JUMPDEST PUSH0 PUSH1 0x60 DUP3 DUP5 SUB SLT ISZERO PUSH2 0x85B1 JUMPI PUSH2 0x85B0 PUSH2 0x8584 JUMP JUMPDEST JUMPDEST PUSH2 0x85BB PUSH1 0x60 PUSH2 0x853F JUMP JUMPDEST SWAP1 POP PUSH0 PUSH2 0x85CA DUP5 DUP3 DUP6 ADD PUSH2 0x8588 JUMP JUMPDEST PUSH0 DUP4 ADD MSTORE POP PUSH1 0x20 PUSH2 0x85DD DUP5 DUP3 DUP6 ADD PUSH2 0x8225 JUMP JUMPDEST PUSH1 0x20 DUP4 ADD MSTORE POP PUSH1 0x40 PUSH2 0x85F1 DUP5 DUP3 DUP6 ADD PUSH2 0x8225 JUMP JUMPDEST PUSH1 0x40 DUP4 ADD MSTORE POP SWAP3 SWAP2 POP POP JUMP JUMPDEST PUSH0 PUSH2 0x860F PUSH2 0x860A DUP5 PUSH2 0x8559 JUMP JUMPDEST PUSH2 0x853F JUMP JUMPDEST SWAP1 POP DUP1 DUP4 DUP3 MSTORE PUSH1 0x20 DUP3 ADD SWAP1 POP PUSH1 0x60 DUP5 MUL DUP4 ADD DUP6 DUP2 GT ISZERO PUSH2 0x8632 JUMPI PUSH2 0x8631 PUSH2 0x7C70 JUMP JUMPDEST JUMPDEST DUP4 JUMPDEST DUP2 DUP2 LT ISZERO PUSH2 0x865B JUMPI DUP1 PUSH2 0x8647 DUP9 DUP3 PUSH2 0x859C JUMP JUMPDEST DUP5 MSTORE PUSH1 0x20 DUP5 ADD SWAP4 POP POP PUSH1 0x60 DUP2 ADD SWAP1 POP PUSH2 0x8634 JUMP JUMPDEST POP POP POP SWAP4 SWAP3 POP POP POP JUMP JUMPDEST PUSH0 DUP3 PUSH1 0x1F DUP4 ADD SLT PUSH2 0x8679 JUMPI PUSH2 0x8678 PUSH2 0x7C68 JUMP JUMPDEST JUMPDEST DUP2 MLOAD PUSH2 0x8689 DUP5 DUP3 PUSH1 0x20 DUP7 ADD PUSH2 0x85FD JUMP JUMPDEST SWAP2 POP POP SWAP3 SWAP2 POP POP JUMP JUMPDEST PUSH0 PUSH1 0x20 DUP3 DUP5 SUB SLT ISZERO PUSH2 0x86A7 JUMPI PUSH2 0x86A6 PUSH2 0x75D1 JUMP JUMPDEST JUMPDEST PUSH0 DUP3 ADD MLOAD PUSH8 0xFFFFFFFFFFFFFFFF DUP2 GT ISZERO PUSH2 0x86C4 JUMPI PUSH2 0x86C3 PUSH2 0x75D5 JUMP JUMPDEST JUMPDEST PUSH2 0x86D0 DUP5 DUP3 DUP6 ADD PUSH2 0x8665 JUMP JUMPDEST SWAP2 POP POP SWAP3 SWAP2 POP POP JUMP JUMPDEST PUSH0 PUSH2 0x86E3 DUP3 PUSH2 0x7A96 JUMP JUMPDEST SWAP2 POP PUSH2 0x86EE DUP4 PUSH2 0x7A96 JUMP JUMPDEST SWAP3 POP DUP3 DUP3 ADD SWAP1 POP PUSH1 0xFF DUP2 GT ISZERO PUSH2 0x8707 JUMPI PUSH2 0x8706 PUSH2 0x8308 JUMP JUMPDEST JUMPDEST SWAP3 SWAP2 POP POP JUMP JUMPDEST PUSH2 0x8716 DUP2 PUSH2 0x7659 JUMP JUMPDEST DUP2 EQ PUSH2 0x8720 JUMPI PUSH0 DUP1 REVERT JUMPDEST POP JUMP JUMPDEST PUSH0 DUP2 MLOAD SWAP1 POP PUSH2 0x8731 DUP2 PUSH2 0x870D JUMP JUMPDEST SWAP3 SWAP2 POP POP JUMP JUMPDEST PUSH0 PUSH1 0x20 DUP3 DUP5 SUB SLT ISZERO PUSH2 0x874C JUMPI PUSH2 0x874B PUSH2 0x75D1 JUMP JUMPDEST JUMPDEST PUSH0 PUSH2 0x8759 DUP5 DUP3 DUP6 ADD PUSH2 0x8723 JUMP JUMPDEST SWAP2 POP POP SWAP3 SWAP2 POP POP JUMP JUMPDEST PUSH0 PUSH1 0x60 DUP3 ADD SWAP1 POP PUSH2 0x8775 PUSH0 DUP4 ADD DUP7 PUSH2 0x7ACA JUMP JUMPDEST PUSH2 0x8782 PUSH1 0x20 DUP4 ADD DUP6 PUSH2 0x75A0 JUMP JUMPDEST PUSH2 0x878F PUSH1 0x40 DUP4 ADD DUP5 PUSH2 0x75A0 JUMP JUMPDEST SWAP5 SWAP4 POP POP POP POP JUMP JUMPDEST PUSH0 DUP2 SWAP1 POP SWAP2 SWAP1 POP JUMP JUMPDEST PUSH0 PUSH2 0x87AE PUSH1 0x20 DUP5 ADD DUP5 PUSH2 0x783B JUMP JUMPDEST SWAP1 POP SWAP3 SWAP2 POP POP JUMP JUMPDEST PUSH0 PUSH2 0x87C4 PUSH1 0x20 DUP5 ADD DUP5 PUSH2 0x77B6 JUMP JUMPDEST SWAP1 POP SWAP3 SWAP2 POP POP JUMP JUMPDEST PUSH1 0x60 DUP3 ADD PUSH2 0x87DC PUSH0 DUP4 ADD DUP4 PUSH2 0x87A0 JUMP JUMPDEST PUSH2 0x87E8 PUSH0 DUP6 ADD DUP3 PUSH2 0x78B6 JUMP JUMPDEST POP PUSH2 0x87F6 PUSH1 0x20 DUP4 ADD DUP4 PUSH2 0x87B6 JUMP JUMPDEST PUSH2 0x8803 PUSH1 0x20 DUP6 ADD DUP3 PUSH2 0x78C5 JUMP JUMPDEST POP PUSH2 0x8811 PUSH1 0x40 DUP4 ADD DUP4 PUSH2 0x87B6 JUMP JUMPDEST PUSH2 0x881E PUSH1 0x40 DUP6 ADD DUP3 PUSH2 0x78C5 JUMP JUMPDEST POP POP POP POP JUMP JUMPDEST PUSH0 PUSH2 0x882F DUP4 DUP4 PUSH2 0x87CC JUMP JUMPDEST PUSH1 0x60 DUP4 ADD SWAP1 POP SWAP3 SWAP2 POP POP JUMP JUMPDEST PUSH0 DUP3 SWAP1 POP SWAP3 SWAP2 POP POP JUMP JUMPDEST PUSH0 PUSH1 0x60 DUP3 ADD SWAP1 POP SWAP2 SWAP1 POP JUMP JUMPDEST PUSH0 PUSH2 0x885C DUP4 DUP6 PUSH2 0x7897 JUMP JUMPDEST SWAP4 POP PUSH2 0x8867 DUP3 PUSH2 0x8797 JUMP JUMPDEST DUP1 PUSH0 JUMPDEST DUP6 DUP2 LT ISZERO PUSH2 0x889F JUMPI PUSH2 0x887C DUP3 DUP5 PUSH2 0x883B JUMP JUMPDEST PUSH2 0x8886 DUP9 DUP3 PUSH2 0x8824 JUMP JUMPDEST SWAP8 POP PUSH2 0x8891 DUP4 PUSH2 0x8845 JUMP JUMPDEST SWAP3 POP POP PUSH1 0x1 DUP2 ADD SWAP1 POP PUSH2 0x886A JUMP JUMPDEST POP DUP6 SWAP3 POP POP POP SWAP4 SWAP3 POP POP POP JUMP JUMPDEST PUSH0 PUSH1 0x40 DUP3 ADD SWAP1 POP DUP2 DUP2 SUB PUSH0 DUP4 ADD MSTORE PUSH2 0x88C5 DUP2 DUP6 DUP8 PUSH2 0x8851 JUMP JUMPDEST SWAP1 POP PUSH2 0x88D4 PUSH1 0x20 DUP4 ADD DUP5 PUSH2 0x7AA2 JUMP JUMPDEST SWAP5 SWAP4 POP POP POP POP JUMP JUMPDEST PUSH0 PUSH1 0x20 DUP3 DUP5 SUB SLT ISZERO PUSH2 0x88F1 JUMPI PUSH2 0x88F0 PUSH2 0x75D1 JUMP JUMPDEST JUMPDEST PUSH0 PUSH2 0x88FE DUP5 DUP3 DUP6 ADD PUSH2 0x8588 JUMP JUMPDEST SWAP2 POP POP SWAP3 SWAP2 POP POP JUMP JUMPDEST PUSH0 PUSH1 0x40 DUP3 ADD SWAP1 POP PUSH2 0x891A PUSH0 DUP4 ADD DUP6 PUSH2 0x8275 JUMP JUMPDEST PUSH2 0x8927 PUSH1 0x20 DUP4 ADD DUP5 PUSH2 0x75A0 JUMP JUMPDEST SWAP4 SWAP3 POP POP POP JUMP JUMPDEST PUSH0 PUSH2 0x8938 DUP3 PUSH2 0x7597 JUMP JUMPDEST SWAP2 POP PUSH2 0x8943 DUP4 PUSH2 0x7597 JUMP JUMPDEST SWAP3 POP DUP3 DUP3 SUB SWAP1 POP DUP2 DUP2 GT ISZERO PUSH2 0x895B JUMPI PUSH2 0x895A PUSH2 0x8308 JUMP JUMPDEST JUMPDEST SWAP3 SWAP2 POP POP JUMP JUMPDEST PUSH0 PUSH1 0x60 DUP3 DUP5 SUB SLT ISZERO PUSH2 0x8976 JUMPI PUSH2 0x8975 PUSH2 0x75D1 JUMP JUMPDEST JUMPDEST PUSH0 PUSH2 0x8983 DUP5 DUP3 DUP6 ADD PUSH2 0x859C JUMP JUMPDEST SWAP2 POP POP SWAP3 SWAP2 POP POP JUMP JUMPDEST DUP3 DUP2 DUP4 CALLDATACOPY PUSH0 DUP4 DUP4 ADD MSTORE POP POP POP JUMP JUMPDEST PUSH0 PUSH2 0x89A5 DUP4 DUP6 PUSH2 0x8136 JUMP JUMPDEST SWAP4 POP PUSH2 0x89B2 DUP4 DUP6 DUP5 PUSH2 0x898C JUMP JUMPDEST PUSH2 0x89BB DUP4 PUSH2 0x7738 JUMP JUMPDEST DUP5 ADD SWAP1 POP SWAP4 SWAP3 POP POP POP JUMP JUMPDEST PUSH0 PUSH1 0x60 DUP3 ADD SWAP1 POP PUSH2 0x89D9 PUSH0 DUP4 ADD DUP8 PUSH2 0x8275 JUMP JUMPDEST PUSH2 0x89E6 PUSH1 0x20 DUP4 ADD DUP7 PUSH2 0x8275 JUMP JUMPDEST DUP2 DUP2 SUB PUSH1 0x40 DUP4 ADD MSTORE PUSH2 0x89F9 DUP2 DUP5 DUP7 PUSH2 0x899A JUMP JUMPDEST SWAP1 POP SWAP6 SWAP5 POP POP POP POP POP JUMP JUMPDEST PUSH0 PUSH1 0x40 DUP3 ADD SWAP1 POP PUSH2 0x8A17 PUSH0 DUP4 ADD DUP6 PUSH2 0x75A0 JUMP JUMPDEST PUSH2 0x8A24 PUSH1 0x20 DUP4 ADD DUP5 PUSH2 0x75A0 JUMP JUMPDEST SWAP4 SWAP3 POP POP POP JUMP JUMPDEST PUSH2 0x8A34 DUP2 PUSH2 0x7A96 JUMP JUMPDEST DUP2 EQ PUSH2 0x8A3E JUMPI PUSH0 DUP1 REVERT JUMPDEST POP JUMP JUMPDEST PUSH0 DUP2 MLOAD SWAP1 POP PUSH2 0x8A4F DUP2 PUSH2 0x8A2B JUMP JUMPDEST SWAP3 SWAP2 POP POP JUMP JUMPDEST PUSH0 PUSH1 0x20 DUP3 DUP5 SUB SLT ISZERO PUSH2 0x8A6A JUMPI PUSH2 0x8A69 PUSH2 0x75D1 JUMP JUMPDEST JUMPDEST PUSH0 PUSH2 0x8A77 DUP5 DUP3 DUP6 ADD PUSH2 0x8A41 JUMP JUMPDEST SWAP2 POP POP SWAP3 SWAP2 POP POP JUMP JUMPDEST PUSH0 PUSH1 0x40 DUP3 ADD SWAP1 POP PUSH2 0x8A93 PUSH0 DUP4 ADD DUP6 PUSH2 0x76CE JUMP JUMPDEST PUSH2 0x8AA0 PUSH1 0x20 DUP4 ADD DUP5 PUSH2 0x7ACA JUMP JUMPDEST SWAP4 SWAP3 POP POP POP JUMP JUMPDEST PUSH0 PUSH2 0x8AB1 DUP3 PUSH2 0x7597 JUMP JUMPDEST SWAP2 POP PUSH2 0x8ABC DUP4 PUSH2 0x7597 JUMP JUMPDEST SWAP3 POP DUP3 DUP3 MUL PUSH2 0x8ACA DUP2 PUSH2 0x7597 JUMP JUMPDEST SWAP2 POP DUP3 DUP3 DIV DUP5 EQ DUP4 ISZERO OR PUSH2 0x8AE1 JUMPI PUSH2 0x8AE0 PUSH2 0x8308 JUMP JUMPDEST JUMPDEST POP SWAP3 SWAP2 POP POP JUMP JUMPDEST PUSH32 0x4E487B7100000000000000000000000000000000000000000000000000000000 PUSH0 MSTORE PUSH1 0x12 PUSH1 0x4 MSTORE PUSH1 0x24 PUSH0 REVERT JUMPDEST PUSH0 PUSH2 0x8B1F DUP3 PUSH2 0x7597 JUMP JUMPDEST SWAP2 POP PUSH2 0x8B2A DUP4 PUSH2 0x7597 JUMP JUMPDEST SWAP3 POP DUP3 PUSH2 0x8B3A JUMPI PUSH2 0x8B39 PUSH2 0x8AE8 JUMP JUMPDEST JUMPDEST DUP3 DUP3 MOD SWAP1 POP SWAP3 SWAP2 POP POP JUMP JUMPDEST PUSH0 PUSH1 0x20 DUP3 ADD SWAP1 POP PUSH2 0x8B58 PUSH0 DUP4 ADD DUP5 PUSH2 0x8275 JUMP JUMPDEST SWAP3 SWAP2 POP POP JUMP JUMPDEST PUSH0 PUSH2 0x8B68 DUP3 PUSH2 0x768C JUMP JUMPDEST SWAP2 POP PUSH2 0x8B73 DUP4 PUSH2 0x768C JUMP JUMPDEST SWAP3 POP DUP3 DUP3 ADD SWAP1 POP PUSH6 0xFFFFFFFFFFFF DUP2 GT ISZERO PUSH2 0x8B91 JUMPI PUSH2 0x8B90 PUSH2 0x8308 JUMP JUMPDEST JUMPDEST SWAP3 SWAP2 POP POP JUMP JUMPDEST PUSH0 PUSH2 0x8BA1 DUP3 PUSH2 0x7814 JUMP JUMPDEST SWAP1 POP SWAP2 SWAP1 POP JUMP JUMPDEST PUSH2 0x8BB1 DUP2 PUSH2 0x8B97 JUMP JUMPDEST DUP2 EQ PUSH2 0x8BBB JUMPI PUSH0 DUP1 REVERT JUMPDEST POP JUMP JUMPDEST PUSH0 DUP2 CALLDATALOAD SWAP1 POP PUSH2 0x8BCC DUP2 PUSH2 0x8BA8 JUMP JUMPDEST SWAP3 SWAP2 POP POP JUMP JUMPDEST PUSH0 PUSH1 0x20 DUP3 DUP5 SUB SLT ISZERO PUSH2 0x8BE7 JUMPI PUSH2 0x8BE6 PUSH2 0x75D1 JUMP JUMPDEST JUMPDEST PUSH0 PUSH2 0x8BF4 DUP5 DUP3 DUP6 ADD PUSH2 0x8BBE JUMP JUMPDEST SWAP2 POP POP SWAP3 SWAP2 POP POP JUMP JUMPDEST PUSH0 DUP1 REVERT JUMPDEST PUSH0 DUP1 REVERT JUMPDEST PUSH0 DUP1 REVERT JUMPDEST PUSH0 DUP1 DUP4 CALLDATALOAD PUSH1 0x1 PUSH1 0x20 SUB DUP5 CALLDATASIZE SUB SUB DUP2 SLT PUSH2 0x8C25 JUMPI PUSH2 0x8C24 PUSH2 0x8BFD JUMP JUMPDEST JUMPDEST DUP1 DUP5 ADD SWAP3 POP DUP3 CALLDATALOAD SWAP2 POP PUSH8 0xFFFFFFFFFFFFFFFF DUP3 GT ISZERO PUSH2 0x8C47 JUMPI PUSH2 0x8C46 PUSH2 0x8C01 JUMP JUMPDEST JUMPDEST PUSH1 0x20 DUP4 ADD SWAP3 POP PUSH1 0x1 DUP3 MUL CALLDATASIZE SUB DUP4 SGT ISZERO PUSH2 0x8C63 JUMPI PUSH2 0x8C62 PUSH2 0x8C05 JUMP JUMPDEST JUMPDEST POP SWAP3 POP SWAP3 SWAP1 POP JUMP JUMPDEST PUSH0 PUSH2 0x8C76 DUP4 DUP6 PUSH2 0x7700 JUMP JUMPDEST SWAP4 POP PUSH2 0x8C83 DUP4 DUP6 DUP5 PUSH2 0x898C JUMP JUMPDEST PUSH2 0x8C8C DUP4 PUSH2 0x7738 JUMP JUMPDEST DUP5 ADD SWAP1 POP SWAP4 SWAP3 POP POP POP JUMP JUMPDEST PUSH0 PUSH1 0x20 DUP3 ADD SWAP1 POP DUP2 DUP2 SUB PUSH0 DUP4 ADD MSTORE PUSH2 0x8CB0 DUP2 DUP5 DUP7 PUSH2 0x8C6B JUMP JUMPDEST SWAP1 POP SWAP4 SWAP3 POP POP POP JUMP JUMPDEST PUSH0 DUP2 SWAP1 POP SWAP2 SWAP1 POP JUMP JUMPDEST PUSH0 PUSH8 0xFFFFFFFFFFFFFFFF DUP3 AND SWAP1 POP SWAP2 SWAP1 POP JUMP JUMPDEST PUSH0 PUSH2 0x8CEF PUSH2 0x8CEA PUSH2 0x8CE5 DUP5 PUSH2 0x8CB9 JUMP JUMPDEST PUSH2 0x7D14 JUMP JUMPDEST PUSH2 0x8CC2 JUMP JUMPDEST SWAP1 POP SWAP2 SWAP1 POP JUMP JUMPDEST PUSH2 0x8CFF DUP2 PUSH2 0x8CD5 JUMP JUMPDEST DUP3 MSTORE POP POP JUMP JUMPDEST PUSH0 PUSH1 0x20 DUP3 ADD SWAP1 POP PUSH2 0x8D18 PUSH0 DUP4 ADD DUP5 PUSH2 0x8CF6 JUMP JUMPDEST SWAP3 SWAP2 POP POP JUMP JUMPDEST PUSH2 0x8D27 DUP2 PUSH2 0x8CC2 JUMP JUMPDEST DUP3 MSTORE POP POP JUMP JUMPDEST PUSH0 PUSH1 0x20 DUP3 ADD SWAP1 POP PUSH2 0x8D40 PUSH0 DUP4 ADD DUP5 PUSH2 0x8D1E JUMP JUMPDEST SWAP3 SWAP2 POP POP JUMP JUMPDEST PUSH0 PUSH2 0x8D50 DUP3 PUSH2 0x7597 JUMP JUMPDEST SWAP2 POP PUSH2 0x8D5B DUP4 PUSH2 0x7597 JUMP JUMPDEST SWAP3 POP PUSH2 0x8D88 PUSH32 0xFFFFFFFFFFFFFFFFFFFFFFFFFFFFFFFFFFFFFFFFFFFFFFFFFFFFFFFFFFFFFFFF DUP5 DUP5 PUSH2 0x8393 JUMP JUMPDEST SWAP1 POP SWAP3 SWAP2 POP POP JUMP JUMPDEST PUSH0 DUP2 SWAP1 POP SWAP3 SWAP2 POP POP JUMP JUMPDEST PUSH0 PUSH2 0x8DA4 DUP3 PUSH2 0x812C JUMP JUMPDEST PUSH2 0x8DAE DUP2 DUP6 PUSH2 0x8D90 JUMP JUMPDEST SWAP4 POP PUSH2 0x8DBE DUP2 DUP6 PUSH1 0x20 DUP7 ADD PUSH2 0x7710 JUMP JUMPDEST DUP1 DUP5 ADD SWAP2 POP POP SWAP3 SWAP2 POP POP JUMP JUMPDEST PUSH0 PUSH2 0x8DD5 DUP3 DUP5 PUSH2 0x8D9A JUMP JUMPDEST SWAP2 POP DUP2 SWAP1 POP SWAP3 SWAP2 POP POP JUMP JUMPDEST PUSH0 PUSH2 0x8DEA DUP3 PUSH2 0x7A96 JUMP JUMPDEST SWAP2 POP PUSH2 0x8DF5 DUP4 PUSH2 0x7A96 JUMP JUMPDEST SWAP3 POP DUP3 PUSH2 0x8E05 JUMPI PUSH2 0x8E04 PUSH2 0x8AE8 JUMP JUMPDEST JUMPDEST DUP3 DUP3 MOD SWAP1 POP SWAP3 SWAP2 POP POP JUMP JUMPDEST PUSH0 PUSH1 0x40 DUP3 ADD SWAP1 POP PUSH2 0x8E23 PUSH0 DUP4 ADD DUP6 PUSH2 0x7ACA JUMP JUMPDEST PUSH2 0x8E30 PUSH1 0x20 DUP4 ADD DUP5 PUSH2 0x76CE JUMP JUMPDEST SWAP4 SWAP3 POP POP POP JUMP JUMPDEST PUSH0 DUP2 SWAP1 POP SWAP2 SWAP1 POP JUMP JUMPDEST PUSH0 PUSH2 0x8E5A PUSH2 0x8E55 PUSH2 0x8E50 DUP5 PUSH2 0x8E37 JUMP JUMPDEST PUSH2 0x7D14 JUMP JUMPDEST PUSH2 0x7A96 JUMP JUMPDEST SWAP1 POP SWAP2 SWAP1 POP JUMP JUMPDEST PUSH2 0x8E6A DUP2 PUSH2 0x8E40 JUMP JUMPDEST DUP3 MSTORE POP POP JUMP JUMPDEST PUSH0 PUSH1 0x40 DUP3 ADD SWAP1 POP PUSH2 0x8E83 PUSH0 DUP4 ADD DUP6 PUSH2 0x8E61 JUMP JUMPDEST PUSH2 0x8E90 PUSH1 0x20 DUP4 ADD DUP5 PUSH2 0x75A0 JUMP JUMPDEST SWAP4 SWAP3 POP POP POP JUMP JUMPDEST PUSH0 PUSH2 0x8EA1 DUP3 PUSH2 0x768C JUMP JUMPDEST SWAP2 POP PUSH2 0x8EAC DUP4 PUSH2 0x768C JUMP JUMPDEST SWAP3 POP DUP3 DUP3 SUB SWAP1 POP PUSH6 0xFFFFFFFFFFFF DUP2 GT ISZERO PUSH2 0x8ECA JUMPI PUSH2 0x8EC9 PUSH2 0x8308 JUMP JUMPDEST JUMPDEST SWAP3 SWAP2 POP POP JUMP JUMPDEST PUSH0 PUSH1 0x60 DUP3 ADD SWAP1 POP PUSH2 0x8EE3 PUSH0 DUP4 ADD DUP7 PUSH2 0x7ACA JUMP JUMPDEST PUSH2 0x8EF0 PUSH1 0x20 DUP4 ADD DUP6 PUSH2 0x7ACA JUMP JUMPDEST PUSH2 0x8EFD PUSH1 0x40 DUP4 ADD DUP5 PUSH2 0x75A0 JUMP JUMPDEST SWAP5 SWAP4 POP POP POP POP JUMP JUMPDEST PUSH0 DUP2 CALLDATALOAD SWAP1 POP PUSH2 0x8F13 DUP2 PUSH2 0x8A2B JUMP JUMPDEST SWAP3 SWAP2 POP POP JUMP JUMPDEST PUSH0 PUSH1 0x20 DUP3 DUP5 SUB SLT ISZERO PUSH2 0x8F2E JUMPI PUSH2 0x8F2D PUSH2 0x75D1 JUMP JUMPDEST JUMPDEST PUSH0 PUSH2 0x8F3B DUP5 DUP3 DUP6 ADD PUSH2 0x8F05 JUMP JUMPDEST SWAP2 POP POP SWAP3 SWAP2 POP POP JUMP JUMPDEST PUSH0 PUSH2 0x8F4E DUP3 PUSH2 0x7814 JUMP JUMPDEST SWAP1 POP SWAP2 SWAP1 POP JUMP JUMPDEST PUSH2 0x8F5E DUP2 PUSH2 0x8F44 JUMP JUMPDEST DUP2 EQ PUSH2 0x8F68 JUMPI PUSH0 DUP1 REVERT JUMPDEST POP JUMP JUMPDEST PUSH0 DUP2 CALLDATALOAD SWAP1 POP PUSH2 0x8F79 DUP2 PUSH2 0x8F55 JUMP JUMPDEST SWAP3 SWAP2 POP POP JUMP JUMPDEST PUSH0 PUSH1 0x20 DUP3 DUP5 SUB SLT ISZERO PUSH2 0x8F94 JUMPI PUSH2 0x8F93 PUSH2 0x75D1 JUMP JUMPDEST JUMPDEST PUSH0 PUSH2 0x8FA1 DUP5 DUP3 DUP6 ADD PUSH2 0x8F6B JUMP JUMPDEST SWAP2 POP POP SWAP3 SWAP2 POP POP JUMP JUMPDEST PUSH0 DUP2 CALLDATALOAD SWAP1 POP PUSH2 0x8FB8 DUP2 PUSH2 0x870D JUMP JUMPDEST SWAP3 SWAP2 POP POP JUMP JUMPDEST PUSH0 PUSH1 0x20 DUP3 DUP5 SUB SLT ISZERO PUSH2 0x8FD3 JUMPI PUSH2 0x8FD2 PUSH2 0x75D1 JUMP JUMPDEST JUMPDEST PUSH0 PUSH2 0x8FE0 DUP5 DUP3 DUP6 ADD PUSH2 0x8FAA JUMP JUMPDEST SWAP2 POP POP SWAP3 SWAP2 POP POP JUMP JUMPDEST PUSH0 DUP1 DUP4 CALLDATALOAD PUSH1 0x1 PUSH1 0x20 SUB DUP5 CALLDATASIZE SUB SUB DUP2 SLT PUSH2 0x9005 JUMPI PUSH2 0x9004 PUSH2 0x8BFD JUMP JUMPDEST JUMPDEST DUP1 DUP5 ADD SWAP3 POP DUP3 CALLDATALOAD SWAP2 POP PUSH8 0xFFFFFFFFFFFFFFFF DUP3 GT ISZERO PUSH2 0x9027 JUMPI PUSH2 0x9026 PUSH2 0x8C01 JUMP JUMPDEST JUMPDEST PUSH1 0x20 DUP4 ADD SWAP3 POP PUSH1 0x60 DUP3 MUL CALLDATASIZE SUB DUP4 SGT ISZERO PUSH2 0x9043 JUMPI PUSH2 0x9042 PUSH2 0x8C05 JUMP JUMPDEST JUMPDEST POP SWAP3 POP SWAP3 SWAP1 POP JUMP JUMPDEST PUSH0 PUSH1 0x40 DUP3 ADD SWAP1 POP PUSH2 0x905E PUSH0 DUP4 ADD DUP6 PUSH2 0x7ACA JUMP JUMPDEST PUSH2 0x906B PUSH1 0x20 DUP4 ADD DUP5 PUSH2 0x75A0 JUMP JUMPDEST SWAP4 SWAP3 POP POP POP JUMP JUMPDEST PUSH0 DUP2 SWAP1 POP DUP2 PUSH0 MSTORE PUSH1 0x20 PUSH0 KECCAK256 SWAP1 POP SWAP2 SWAP1 POP JUMP JUMPDEST PUSH0 PUSH1 0x20 PUSH1 0x1F DUP4 ADD DIV SWAP1 POP SWAP2 SWAP1 POP JUMP JUMPDEST PUSH0 DUP3 DUP3 SHL SWAP1 POP SWAP3 SWAP2 POP POP JUMP JUMPDEST PUSH0 PUSH1 0x8 DUP4 MUL PUSH2 0x90CE PUSH32 0xFFFFFFFFFFFFFFFFFFFFFFFFFFFFFFFFFFFFFFFFFFFFFFFFFFFFFFFFFFFFFFFF DUP3 PUSH2 0x9093 JUMP JUMPDEST PUSH2 0x90D8 DUP7 DUP4 PUSH2 0x9093 JUMP JUMPDEST SWAP6 POP DUP1 NOT DUP5 AND SWAP4 POP DUP1 DUP7 AND DUP5 OR SWAP3 POP POP POP SWAP4 SWAP3 POP POP POP JUMP JUMPDEST PUSH0 PUSH2 0x910A PUSH2 0x9105 PUSH2 0x9100 DUP5 PUSH2 0x7597 JUMP JUMPDEST PUSH2 0x7D14 JUMP JUMPDEST PUSH2 0x7597 JUMP JUMPDEST SWAP1 POP SWAP2 SWAP1 POP JUMP JUMPDEST PUSH0 DUP2 SWAP1 POP SWAP2 SWAP1 POP JUMP JUMPDEST PUSH2 0x9123 DUP4 PUSH2 0x90F0 JUMP JUMPDEST PUSH2 0x9137 PUSH2 0x912F DUP3 PUSH2 0x9111 JUMP JUMPDEST DUP5 DUP5 SLOAD PUSH2 0x909F JUMP JUMPDEST DUP3 SSTORE POP POP POP POP JUMP JUMPDEST PUSH0 SWAP1 JUMP JUMPDEST PUSH2 0x914B PUSH2 0x913F JUMP JUMPDEST PUSH2 0x9156 DUP2 DUP5 DUP5 PUSH2 0x911A JUMP JUMPDEST POP POP POP JUMP JUMPDEST JUMPDEST DUP2 DUP2 LT ISZERO PUSH2 0x9179 JUMPI PUSH2 0x916E PUSH0 DUP3 PUSH2 0x9143 JUMP JUMPDEST PUSH1 0x1 DUP2 ADD SWAP1 POP PUSH2 0x915C JUMP JUMPDEST POP POP JUMP JUMPDEST PUSH1 0x1F DUP3 GT ISZERO PUSH2 0x91BE JUMPI PUSH2 0x918F DUP2 PUSH2 0x9072 JUMP JUMPDEST PUSH2 0x9198 DUP5 PUSH2 0x9084 JUMP JUMPDEST DUP2 ADD PUSH1 0x20 DUP6 LT ISZERO PUSH2 0x91A7 JUMPI DUP2 SWAP1 POP JUMPDEST PUSH2 0x91BB PUSH2 0x91B3 DUP6 PUSH2 0x9084 JUMP JUMPDEST DUP4 ADD DUP3 PUSH2 0x915B JUMP JUMPDEST POP POP JUMPDEST POP POP POP JUMP JUMPDEST PUSH0 DUP3 DUP3 SHR SWAP1 POP SWAP3 SWAP2 POP POP JUMP JUMPDEST PUSH0 PUSH2 0x91DE PUSH0 NOT DUP5 PUSH1 0x8 MUL PUSH2 0x91C3 JUMP JUMPDEST NOT DUP1 DUP4 AND SWAP2 POP POP SWAP3 SWAP2 POP POP JUMP JUMPDEST PUSH0 PUSH2 0x91F6 DUP4 DUP4 PUSH2 0x91CF JUMP JUMPDEST SWAP2 POP DUP3 PUSH1 0x2 MUL DUP3 OR SWAP1 POP SWAP3 SWAP2 POP POP JUMP JUMPDEST PUSH2 0x920F DUP3 PUSH2 0x76F6 JUMP JUMPDEST PUSH8 0xFFFFFFFFFFFFFFFF DUP2 GT ISZERO PUSH2 0x9228 JUMPI PUSH2 0x9227 PUSH2 0x84E1 JUMP JUMPDEST JUMPDEST PUSH2 0x9232 DUP3 SLOAD PUSH2 0x82D8 JUMP JUMPDEST PUSH2 0x923D DUP3 DUP3 DUP6 PUSH2 0x917D JUMP JUMPDEST PUSH0 PUSH1 0x20 SWAP1 POP PUSH1 0x1F DUP4 GT PUSH1 0x1 DUP2 EQ PUSH2 0x926E JUMPI PUSH0 DUP5 ISZERO PUSH2 0x925C JUMPI DUP3 DUP8 ADD MLOAD SWAP1 POP JUMPDEST PUSH2 0x9266 DUP6 DUP3 PUSH2 0x91EB JUMP JUMPDEST DUP7 SSTORE POP PUSH2 0x92CD JUMP JUMPDEST PUSH1 0x1F NOT DUP5 AND PUSH2 0x927C DUP7 PUSH2 0x9072 JUMP JUMPDEST PUSH0 JUMPDEST DUP3 DUP2 LT ISZERO PUSH2 0x92A3 JUMPI DUP5 DUP10 ADD MLOAD DUP3 SSTORE PUSH1 0x1 DUP3 ADD SWAP2 POP PUSH1 0x20 DUP6 ADD SWAP5 POP PUSH1 0x20 DUP2 ADD SWAP1 POP PUSH2 0x927E JUMP JUMPDEST DUP7 DUP4 LT ISZERO PUSH2 0x92C0 JUMPI DUP5 DUP10 ADD MLOAD PUSH2 0x92BC PUSH1 0x1F DUP10 AND DUP3 PUSH2 0x91CF JUMP JUMPDEST DUP4 SSTORE POP JUMPDEST PUSH1 0x1 PUSH1 0x2 DUP9 MUL ADD DUP9 SSTORE POP POP POP JUMPDEST POP POP POP POP POP POP JUMP JUMPDEST PUSH0 DUP2 SWAP1 POP SWAP2 SWAP1 POP JUMP JUMPDEST PUSH0 PUSH2 0x92F8 PUSH2 0x92F3 PUSH2 0x92EE DUP5 PUSH2 0x92D5 JUMP JUMPDEST PUSH2 0x7D14 JUMP JUMPDEST PUSH2 0x7597 JUMP JUMPDEST SWAP1 POP SWAP2 SWAP1 POP JUMP JUMPDEST PUSH2 0x9308 DUP2 PUSH2 0x92DE JUMP JUMPDEST DUP3 MSTORE POP POP JUMP JUMPDEST PUSH0 PUSH1 0x40 DUP3 ADD SWAP1 POP PUSH2 0x9321 PUSH0 DUP4 ADD DUP6 PUSH2 0x7ACA JUMP JUMPDEST PUSH2 0x932E PUSH1 0x20 DUP4 ADD DUP5 PUSH2 0x92FF JUMP JUMPDEST SWAP4 SWAP3 POP POP POP JUMP INVALID LOG2 PUSH5 0x6970667358 0x22 SLT KECCAK256 SLOAD 0xE6 PUSH16 0xD03D496B60C5A2EB395062EA3C80592F 0xE5 PUSH31 0x794DCC1F1A5A5DCC5F13A364736F6C63430008160033000000000000000000 "
		},
		"gasEstimates": {
			"creation": {
				"codeDepositCost": "7547800",
				"executionCost": "infinite",
				"totalCost": "infinite"
			},
			"external": {
				"CLAIM_MANAGER_ROLE()": "459",
				"DEFAULT_ADMIN_ROLE()": "486",
				"FEE_COLLECTOR_ROLE()": "415",
				"FEE_MANAGER_ROLE()": "394",
				"PAUSER_ROLE()": "391",
				"SANCTIONS_MANAGER_ROLE()": "458",
				"SPENDER_ROLE()": "392",
				"UNPAUSER_ROLE()": "479",
				"acceptDefaultAdminTransfer()": "infinite",
				"additionalRewardsStrategy()": "2808",
				"allowance(address,address)": "infinite",
				"approve(address,uint256)": "infinite",
				"asset()": "2723",
				"balanceOf(address)": "2993",
				"beginDefaultAdminTransfer(address)": "infinite",
				"blockList()": "infinite",
				"cancelDefaultAdminTransfer()": "infinite",
				"changeDefaultAdminDelay(uint48)": "infinite",
				"claimAdditionalRewards(address,bytes)": "infinite",
				"collectRewardFees()": "infinite",
				"collectableRewardFees()": "infinite",
				"connectorName()": "2540",
				"connectorRegistry()": "infinite",
				"convertToAssets(uint256)": "infinite",
				"convertToShares(uint256)": "infinite",
				"decimals()": "infinite",
				"defaultAdmin()": "2701",
				"defaultAdminDelay()": "5099",
				"defaultAdminDelayIncreaseWait()": "452",
				"delegateToFactory(bytes)": "infinite",
				"deposit(uint256,address)": "infinite",
				"depositFee()": "2628",
				"dispatchFees()": "infinite",
				"feeRecipient(address)": "infinite",
				"feeRecipientAt(uint256)": "infinite",
				"feeRecipients()": "infinite",
				"forceWithdraw(address)": "infinite",
				"getRoleAdmin(bytes32)": "infinite",
				"grantRole(bytes32,address)": "infinite",
				"hasRole(bytes32,address)": "3287",
				"initialize((address,string,string,bool,address,bytes32,uint256,uint256,address,address,address,address,address,address,uint48,uint8,uint256),((address,uint256,uint256)[],address,uint8,address,uint256,uint256,address,address))": "infinite",
				"maxDeposit(address)": "infinite",
				"maxMint(address)": "infinite",
				"maxRedeem(address)": "infinite",
				"maxWithdraw(address)": "infinite",
				"mint(uint256,address)": "infinite",
				"name()": "infinite",
				"owner()": "2693",
				"pauseDeposit()": "27089",
				"pendingDefaultAdmin()": "4987",
				"pendingDefaultAdminDelay()": "infinite",
				"pendingDepositFee()": "infinite",
				"pendingRewardFee()": "infinite",
				"previewDeposit(uint256)": "infinite",
				"previewMint(uint256)": "infinite",
				"previewRedeem(uint256)": "infinite",
				"previewWithdraw(uint256)": "infinite",
				"redeem(uint256,address,address)": "infinite",
				"renounceRole(bytes32,address)": "infinite",
				"revokeRole(bytes32,address)": "infinite",
				"rewardFee()": "2541",
				"rollbackDefaultAdminDelay()": "80366",
				"setAdditionalRewardsStrategy(uint8)": "28700",
				"setBlockList(address)": "infinite",
				"setDepositFee(uint256)": "infinite",
				"setFeeRecipients((address,uint256,uint256)[])": "infinite",
				"setRewardFee(uint256)": "infinite",
				"supportsInterface(bytes4)": "897",
				"symbol()": "infinite",
				"totalAssets()": "infinite",
				"totalSupply()": "2598",
				"transfer(address,uint256)": "infinite",
				"transferFrom(address,address,uint256)": "infinite",
				"transferable()": "2648",
				"unpauseDeposit()": "27177",
				"upgrade(((address,uint256,uint256)[],address,uint8,address,uint256,uint256,address,address))": "infinite",
				"vaultFactory()": "infinite",
				"withdraw(uint256,address,address)": "infinite"
			},
			"internal": {
				"__Vault_init(struct Vault.InitializationParams calldata)": "infinite",
				"__Vault_upgrade(struct Vault.UpgradeParams calldata)": "infinite",
				"_accrueRewardFee()": "infinite",
				"_accruedRewardFeeShares()": "infinite",
				"_checkPartialShares(uint256)": "infinite",
				"_checkTransferability(address)": "infinite",
				"_convertToAssets(uint256,enum Math.Rounding,uint256,uint256)": "infinite",
				"_convertToShares(uint256,enum Math.Rounding,uint256,uint256)": "infinite",
				"_decimalsOffset()": "2248",
				"_deposit(address,address,uint256,uint256,uint256)": "infinite",
				"_getConnector()": "infinite",
				"_getVaultStorage()": "22",
				"_initialize(struct Vault.InitializationParams calldata)": "infinite",
				"_maxDeposit()": "infinite",
				"_maxMint(uint256,uint256)": "infinite",
				"_maxRedeem(address,uint256,uint256)": "infinite",
				"_maxWithdraw(address)": "infinite",
				"_notBlocked(address)": "infinite",
				"_onlyFactory()": "infinite",
				"_previewDeposit(uint256,uint256,uint256)": "infinite",
				"_previewMint(uint256,uint256,uint256)": "infinite",
				"_roundDownPartialShares(uint256)": "infinite",
				"_setAdditionalRewardsStrategy(enum Vault.AdditionalRewardsStrategy)": "infinite",
				"_setBlockList(contract BlockList)": "infinite",
				"_setConnectorName(bytes32)": "infinite",
				"_setConnectorRegistry(contract IConnectorRegistry)": "infinite",
				"_setDepositFee(uint256)": "infinite",
				"_setFeeDispatcher(address)": "infinite",
				"_setMinTotalSupply(uint256)": "infinite",
				"_setOffset(uint8)": "infinite",
				"_setRewardFee(uint256)": "infinite",
				"_setTransferable(bool)": "infinite",
				"_underlyingDecimals()": "infinite",
				"_upgrade(struct Vault.UpgradeParams calldata)": "infinite",
				"_whenDepositNotPaused()": "infinite",
				"_withdraw(address,address,address,uint256,uint256)": "infinite"
			}
		},
		"methodIdentifiers": {
			"CLAIM_MANAGER_ROLE()": "c9581137",
			"DEFAULT_ADMIN_ROLE()": "a217fddf",
			"FEE_COLLECTOR_ROLE()": "62a2a47c",
			"FEE_MANAGER_ROLE()": "05db2f41",
			"PAUSER_ROLE()": "e63ab1e9",
			"SANCTIONS_MANAGER_ROLE()": "d1fcb506",
			"SPENDER_ROLE()": "72c16a24",
			"UNPAUSER_ROLE()": "fb1bb9de",
			"acceptDefaultAdminTransfer()": "cefc1429",
			"additionalRewardsStrategy()": "aa9ff5d8",
			"allowance(address,address)": "dd62ed3e",
			"approve(address,uint256)": "095ea7b3",
			"asset()": "38d52e0f",
			"balanceOf(address)": "70a08231",
			"beginDefaultAdminTransfer(address)": "634e93da",
			"blockList()": "7d7e8d98",
			"cancelDefaultAdminTransfer()": "d602b9fd",
			"changeDefaultAdminDelay(uint48)": "649a5ec7",
			"claimAdditionalRewards(address,bytes)": "c37952cb",
			"collectRewardFees()": "a50b3451",
			"collectableRewardFees()": "a87a50dc",
			"connectorName()": "607985fc",
			"connectorRegistry()": "b53c86d2",
			"convertToAssets(uint256)": "07a2d13a",
			"convertToShares(uint256)": "c6e6f592",
			"decimals()": "313ce567",
			"defaultAdmin()": "84ef8ffc",
			"defaultAdminDelay()": "cc8463c8",
			"defaultAdminDelayIncreaseWait()": "022d63fb",
			"delegateToFactory(bytes)": "f8892d96",
			"deposit(uint256,address)": "6e553f65",
			"depositFee()": "67a52793",
			"dispatchFees()": "04fa1db2",
			"feeRecipient(address)": "d78162e9",
			"feeRecipientAt(uint256)": "a7b09122",
			"feeRecipients()": "0adfdcb9",
			"forceWithdraw(address)": "882f3e16",
			"getRoleAdmin(bytes32)": "248a9ca3",
			"grantRole(bytes32,address)": "2f2ff15d",
			"hasRole(bytes32,address)": "91d14854",
			"initialize((address,string,string,bool,address,bytes32,uint256,uint256,address,address,address,address,address,address,uint48,uint8,uint256),((address,uint256,uint256)[],address,uint8,address,uint256,uint256,address,address))": "71569914",
			"maxDeposit(address)": "402d267d",
			"maxMint(address)": "c63d75b6",
			"maxRedeem(address)": "d905777e",
			"maxWithdraw(address)": "ce96cb77",
			"mint(uint256,address)": "94bf804d",
			"name()": "06fdde03",
			"owner()": "8da5cb5b",
			"pauseDeposit()": "69026e88",
			"pendingDefaultAdmin()": "cf6eefb7",
			"pendingDefaultAdminDelay()": "a1eda53c",
			"pendingDepositFee()": "2c15e0f7",
			"pendingRewardFee()": "7c10c835",
			"previewDeposit(uint256)": "ef8b30f7",
			"previewMint(uint256)": "b3d7f6b9",
			"previewRedeem(uint256)": "4cdad506",
			"previewWithdraw(uint256)": "0a28a477",
			"redeem(uint256,address,address)": "ba087652",
			"renounceRole(bytes32,address)": "36568abe",
			"revokeRole(bytes32,address)": "d547741f",
			"rewardFee()": "8b424267",
			"rollbackDefaultAdminDelay()": "0aa6220b",
			"setAdditionalRewardsStrategy(uint8)": "fa7c4568",
			"setBlockList(address)": "c76b5f5f",
			"setDepositFee(uint256)": "490ae210",
			"setFeeRecipients((address,uint256,uint256)[])": "71c99619",
			"setRewardFee(uint256)": "41a2ac70",
			"supportsInterface(bytes4)": "01ffc9a7",
			"symbol()": "95d89b41",
			"totalAssets()": "01e1d114",
			"totalSupply()": "18160ddd",
			"transfer(address,uint256)": "a9059cbb",
			"transferFrom(address,address,uint256)": "23b872dd",
			"transferable()": "92ff0d31",
			"unpauseDeposit()": "5157ced5",
			"upgrade(((address,uint256,uint256)[],address,uint8,address,uint256,uint256,address,address))": "95336f8d",
			"vaultFactory()": "d8a06f73",
			"withdraw(uint256,address,address)": "b460af94"
		}
	},
	"abi": [
		{
			"inputs": [
				{
					"internalType": "address",
					"name": "externalAccessControl_",
					"type": "address"
				},
				{
					"internalType": "address",
					"name": "vaultFactory_",
					"type": "address"
				}
			],
			"stateMutability": "nonpayable",
			"type": "constructor"
		},
		{
			"inputs": [],
			"name": "AccessControlBadConfirmation",
			"type": "error"
		},
		{
			"inputs": [
				{
					"internalType": "uint48",
					"name": "schedule",
					"type": "uint48"
				}
			],
			"name": "AccessControlEnforcedDefaultAdminDelay",
			"type": "error"
		},
		{
			"inputs": [],
			"name": "AccessControlEnforcedDefaultAdminRules",
			"type": "error"
		},
		{
			"inputs": [
				{
					"internalType": "address",
					"name": "defaultAdmin",
					"type": "address"
				}
			],
			"name": "AccessControlInvalidDefaultAdmin",
			"type": "error"
		},
		{
			"inputs": [
				{
					"internalType": "address",
					"name": "account",
					"type": "address"
				},
				{
					"internalType": "bytes32",
					"name": "neededRole",
					"type": "bytes32"
				}
			],
			"name": "AccessControlUnauthorizedAccount",
			"type": "error"
		},
		{
			"inputs": [
				{
					"internalType": "address",
					"name": "addr",
					"type": "address"
				}
			],
			"name": "AddressBlocked",
			"type": "error"
		},
		{
			"inputs": [
				{
					"internalType": "address",
					"name": "target",
					"type": "address"
				}
			],
			"name": "AddressEmptyCode",
			"type": "error"
		},
		{
			"inputs": [
				{
					"internalType": "address",
					"name": "addr",
					"type": "address"
				}
			],
			"name": "AddressNotContract",
			"type": "error"
		},
		{
			"inputs": [
				{
					"internalType": "address",
					"name": "addr",
					"type": "address"
				}
			],
			"name": "AddressNotInternallySanctionedOnly",
			"type": "error"
		},
		{
			"inputs": [],
			"name": "AmountZero",
			"type": "error"
		},
		{
			"inputs": [],
			"name": "DepositPaused",
			"type": "error"
		},
		{
			"inputs": [
				{
					"internalType": "address",
					"name": "spender",
					"type": "address"
				},
				{
					"internalType": "uint256",
					"name": "allowance",
					"type": "uint256"
				},
				{
					"internalType": "uint256",
					"name": "needed",
					"type": "uint256"
				}
			],
			"name": "ERC20InsufficientAllowance",
			"type": "error"
		},
		{
			"inputs": [
				{
					"internalType": "address",
					"name": "sender",
					"type": "address"
				},
				{
					"internalType": "uint256",
					"name": "balance",
					"type": "uint256"
				},
				{
					"internalType": "uint256",
					"name": "needed",
					"type": "uint256"
				}
			],
			"name": "ERC20InsufficientBalance",
			"type": "error"
		},
		{
			"inputs": [
				{
					"internalType": "address",
					"name": "approver",
					"type": "address"
				}
			],
			"name": "ERC20InvalidApprover",
			"type": "error"
		},
		{
			"inputs": [
				{
					"internalType": "address",
					"name": "receiver",
					"type": "address"
				}
			],
			"name": "ERC20InvalidReceiver",
			"type": "error"
		},
		{
			"inputs": [
				{
					"internalType": "address",
					"name": "sender",
					"type": "address"
				}
			],
			"name": "ERC20InvalidSender",
			"type": "error"
		},
		{
			"inputs": [
				{
					"internalType": "address",
					"name": "spender",
					"type": "address"
				}
			],
			"name": "ERC20InvalidSpender",
			"type": "error"
		},
		{
			"inputs": [
				{
					"internalType": "address",
					"name": "receiver",
					"type": "address"
				},
				{
					"internalType": "uint256",
					"name": "assets",
					"type": "uint256"
				},
				{
					"internalType": "uint256",
					"name": "max",
					"type": "uint256"
				}
			],
			"name": "ERC4626ExceededMaxDeposit",
			"type": "error"
		},
		{
			"inputs": [
				{
					"internalType": "address",
					"name": "receiver",
					"type": "address"
				},
				{
					"internalType": "uint256",
					"name": "shares",
					"type": "uint256"
				},
				{
					"internalType": "uint256",
					"name": "max",
					"type": "uint256"
				}
			],
			"name": "ERC4626ExceededMaxMint",
			"type": "error"
		},
		{
			"inputs": [
				{
					"internalType": "address",
					"name": "owner",
					"type": "address"
				},
				{
					"internalType": "uint256",
					"name": "shares",
					"type": "uint256"
				},
				{
					"internalType": "uint256",
					"name": "max",
					"type": "uint256"
				}
			],
			"name": "ERC4626ExceededMaxRedeem",
			"type": "error"
		},
		{
			"inputs": [
				{
					"internalType": "address",
					"name": "owner",
					"type": "address"
				},
				{
					"internalType": "uint256",
					"name": "assets",
					"type": "uint256"
				},
				{
					"internalType": "uint256",
					"name": "max",
					"type": "uint256"
				}
			],
			"name": "ERC4626ExceededMaxWithdraw",
			"type": "error"
		},
		{
			"inputs": [],
			"name": "FailedCall",
			"type": "error"
		},
		{
			"inputs": [],
			"name": "InsufficientLiquidity",
			"type": "error"
		},
		{
			"inputs": [
				{
					"internalType": "bytes32",
					"name": "name",
					"type": "bytes32"
				}
			],
			"name": "InvalidConnectorName",
			"type": "error"
		},
		{
			"inputs": [],
			"name": "InvalidInitialization",
			"type": "error"
		},
		{
			"inputs": [],
			"name": "MinimumTotalSupplyNotReached",
			"type": "error"
		},
		{
			"inputs": [],
			"name": "NoAdditionalRewardsClaimed",
			"type": "error"
		},
		{
			"inputs": [],
			"name": "NoAdditionalRewardsStrategy",
			"type": "error"
		},
		{
			"inputs": [
				{
					"internalType": "address",
					"name": "addr",
					"type": "address"
				}
			],
			"name": "NotConfiguredFactory",
			"type": "error"
		},
		{
			"inputs": [],
			"name": "NotInitializing",
			"type": "error"
		},
		{
			"inputs": [],
			"name": "NotTransferable",
			"type": "error"
		},
		{
			"inputs": [],
			"name": "NothingToCollect",
			"type": "error"
		},
		{
			"inputs": [
				{
					"internalType": "uint8",
					"name": "offset",
					"type": "uint8"
				}
			],
			"name": "OffsetTooHigh",
			"type": "error"
		},
		{
			"inputs": [],
			"name": "PreviewZero",
			"type": "error"
		},
		{
			"inputs": [],
			"name": "ReentrancyGuardReentrantCall",
			"type": "error"
		},
		{
			"inputs": [
				{
					"internalType": "uint256",
					"name": "shares",
					"type": "uint256"
				}
			],
			"name": "RemainderNotZero",
			"type": "error"
		},
		{
			"inputs": [
				{
					"internalType": "uint8",
					"name": "bits",
					"type": "uint8"
				},
				{
					"internalType": "uint256",
					"name": "value",
					"type": "uint256"
				}
			],
			"name": "SafeCastOverflowedUintDowncast",
			"type": "error"
		},
		{
			"inputs": [
				{
					"internalType": "address",
					"name": "token",
					"type": "address"
				}
			],
			"name": "SafeERC20FailedOperation",
			"type": "error"
		},
		{
			"inputs": [
				{
					"internalType": "uint256",
					"name": "totalAssets",
					"type": "uint256"
				},
				{
					"internalType": "uint256",
					"name": "newTotalAssets",
					"type": "uint256"
				}
			],
			"name": "TotalAssetsDecreased",
			"type": "error"
		},
		{
			"inputs": [
				{
					"internalType": "uint256",
					"name": "depositFee",
					"type": "uint256"
				}
			],
			"name": "WrongDepositFee",
			"type": "error"
		},
		{
			"inputs": [
				{
					"internalType": "uint256",
					"name": "rewardFee",
					"type": "uint256"
				}
			],
			"name": "WrongRewardFee",
			"type": "error"
		},
		{
			"anonymous": false,
			"inputs": [
				{
					"indexed": false,
					"internalType": "enum Vault.AdditionalRewardsStrategy",
					"name": "newAdditionalRewardsStrategy",
					"type": "uint8"
				}
			],
			"name": "AdditionalRewardsStrategyUpdated",
			"type": "event"
		},
		{
			"anonymous": false,
			"inputs": [
				{
					"indexed": true,
					"internalType": "address",
					"name": "owner",
					"type": "address"
				},
				{
					"indexed": true,
					"internalType": "address",
					"name": "spender",
					"type": "address"
				},
				{
					"indexed": false,
					"internalType": "uint256",
					"name": "value",
					"type": "uint256"
				}
			],
			"name": "Approval",
			"type": "event"
		},
		{
			"anonymous": false,
			"inputs": [
				{
					"indexed": false,
					"internalType": "contract IERC20",
					"name": "asset",
					"type": "address"
				}
			],
			"name": "AssetInitialized",
			"type": "event"
		},
		{
			"anonymous": false,
			"inputs": [
				{
					"indexed": false,
					"internalType": "contract BlockList",
					"name": "newBlockList",
					"type": "address"
				}
			],
			"name": "BlockListUpdated",
			"type": "event"
		},
		{
			"anonymous": false,
			"inputs": [
				{
					"indexed": false,
					"internalType": "bytes32",
					"name": "newConnectorName",
					"type": "bytes32"
				}
			],
			"name": "ConnectorNameUpdated",
			"type": "event"
		},
		{
			"anonymous": false,
			"inputs": [
				{
					"indexed": false,
					"internalType": "contract IConnectorRegistry",
					"name": "newConnectorRegistry",
					"type": "address"
				}
			],
			"name": "ConnectorRegistryUpdated",
			"type": "event"
		},
		{
			"anonymous": false,
			"inputs": [],
			"name": "DefaultAdminDelayChangeCanceled",
			"type": "event"
		},
		{
			"anonymous": false,
			"inputs": [
				{
					"indexed": false,
					"internalType": "uint48",
					"name": "newDelay",
					"type": "uint48"
				},
				{
					"indexed": false,
					"internalType": "uint48",
					"name": "effectSchedule",
					"type": "uint48"
				}
			],
			"name": "DefaultAdminDelayChangeScheduled",
			"type": "event"
		},
		{
			"anonymous": false,
			"inputs": [],
			"name": "DefaultAdminTransferCanceled",
			"type": "event"
		},
		{
			"anonymous": false,
			"inputs": [
				{
					"indexed": true,
					"internalType": "address",
					"name": "newAdmin",
					"type": "address"
				},
				{
					"indexed": false,
					"internalType": "uint48",
					"name": "acceptSchedule",
					"type": "uint48"
				}
			],
			"name": "DefaultAdminTransferScheduled",
			"type": "event"
		},
		{
			"anonymous": false,
			"inputs": [
				{
					"indexed": true,
					"internalType": "address",
					"name": "sender",
					"type": "address"
				},
				{
					"indexed": true,
					"internalType": "address",
					"name": "owner",
					"type": "address"
				},
				{
					"indexed": false,
					"internalType": "uint256",
					"name": "assets",
					"type": "uint256"
				},
				{
					"indexed": false,
					"internalType": "uint256",
					"name": "shares",
					"type": "uint256"
				}
			],
			"name": "Deposit",
			"type": "event"
		},
		{
			"anonymous": false,
			"inputs": [
				{
					"indexed": false,
					"internalType": "uint256",
					"name": "newDepositFee",
					"type": "uint256"
				}
			],
			"name": "DepositFeeUpdated",
			"type": "event"
		},
		{
			"anonymous": false,
			"inputs": [
				{
					"indexed": false,
					"internalType": "address",
					"name": "feeDispatcher",
					"type": "address"
				}
			],
			"name": "FeeDispatcherInitialized",
			"type": "event"
		},
		{
			"anonymous": false,
			"inputs": [
				{
					"indexed": false,
					"internalType": "uint64",
					"name": "version",
					"type": "uint64"
				}
			],
			"name": "Initialized",
			"type": "event"
		},
		{
			"anonymous": false,
			"inputs": [
				{
					"indexed": false,
					"internalType": "uint256",
					"name": "newMinTotalSupply",
					"type": "uint256"
				}
			],
			"name": "MinTotalSupplyInitialized",
			"type": "event"
		},
		{
			"anonymous": false,
			"inputs": [
				{
					"indexed": false,
					"internalType": "string",
					"name": "name",
					"type": "string"
				}
			],
			"name": "NameInitialized",
			"type": "event"
		},
		{
			"anonymous": false,
			"inputs": [
				{
					"indexed": false,
					"internalType": "uint8",
					"name": "offset",
					"type": "uint8"
				}
			],
			"name": "OffsetInitialized",
			"type": "event"
		},
		{
			"anonymous": false,
			"inputs": [
				{
					"indexed": false,
					"internalType": "uint256",
					"name": "newRewardFee",
					"type": "uint256"
				}
			],
			"name": "RewardFeeUpdated",
			"type": "event"
		},
		{
			"anonymous": false,
			"inputs": [
				{
					"indexed": true,
					"internalType": "address",
					"name": "rewardsAsset",
					"type": "address"
				},
				{
					"indexed": false,
					"internalType": "uint256",
					"name": "amount",
					"type": "uint256"
				}
			],
			"name": "RewardsClaimed",
			"type": "event"
		},
		{
			"anonymous": false,
			"inputs": [
				{
					"indexed": true,
					"internalType": "bytes32",
					"name": "role",
					"type": "bytes32"
				},
				{
					"indexed": true,
					"internalType": "bytes32",
					"name": "previousAdminRole",
					"type": "bytes32"
				},
				{
					"indexed": true,
					"internalType": "bytes32",
					"name": "newAdminRole",
					"type": "bytes32"
				}
			],
			"name": "RoleAdminChanged",
			"type": "event"
		},
		{
			"anonymous": false,
			"inputs": [
				{
					"indexed": true,
					"internalType": "bytes32",
					"name": "role",
					"type": "bytes32"
				},
				{
					"indexed": true,
					"internalType": "address",
					"name": "account",
					"type": "address"
				},
				{
					"indexed": true,
					"internalType": "address",
					"name": "sender",
					"type": "address"
				}
			],
			"name": "RoleGranted",
			"type": "event"
		},
		{
			"anonymous": false,
			"inputs": [
				{
					"indexed": true,
					"internalType": "bytes32",
					"name": "role",
					"type": "bytes32"
				},
				{
					"indexed": true,
					"internalType": "address",
					"name": "account",
					"type": "address"
				},
				{
					"indexed": true,
					"internalType": "address",
					"name": "sender",
					"type": "address"
				}
			],
			"name": "RoleRevoked",
			"type": "event"
		},
		{
			"anonymous": false,
			"inputs": [
				{
					"indexed": false,
					"internalType": "string",
					"name": "symbol",
					"type": "string"
				}
			],
			"name": "SymbolInitialized",
			"type": "event"
		},
		{
			"anonymous": false,
			"inputs": [
				{
					"indexed": true,
					"internalType": "address",
					"name": "from",
					"type": "address"
				},
				{
					"indexed": true,
					"internalType": "address",
					"name": "to",
					"type": "address"
				},
				{
					"indexed": false,
					"internalType": "uint256",
					"name": "value",
					"type": "uint256"
				}
			],
			"name": "Transfer",
			"type": "event"
		},
		{
			"anonymous": false,
			"inputs": [
				{
					"indexed": false,
					"internalType": "bool",
					"name": "newTransferableFlag",
					"type": "bool"
				}
			],
			"name": "TransferableUpdated",
			"type": "event"
		},
		{
			"anonymous": false,
			"inputs": [
				{
					"indexed": true,
					"internalType": "address",
					"name": "sender",
					"type": "address"
				},
				{
					"indexed": true,
					"internalType": "address",
					"name": "receiver",
					"type": "address"
				},
				{
					"indexed": true,
					"internalType": "address",
					"name": "owner",
					"type": "address"
				},
				{
					"indexed": false,
					"internalType": "uint256",
					"name": "assets",
					"type": "uint256"
				},
				{
					"indexed": false,
					"internalType": "uint256",
					"name": "shares",
					"type": "uint256"
				}
			],
			"name": "Withdraw",
			"type": "event"
		},
		{
			"inputs": [],
			"name": "CLAIM_MANAGER_ROLE",
			"outputs": [
				{
					"internalType": "bytes32",
					"name": "",
					"type": "bytes32"
				}
			],
			"stateMutability": "view",
			"type": "function"
		},
		{
			"inputs": [],
			"name": "DEFAULT_ADMIN_ROLE",
			"outputs": [
				{
					"internalType": "bytes32",
					"name": "",
					"type": "bytes32"
				}
			],
			"stateMutability": "view",
			"type": "function"
		},
		{
			"inputs": [],
			"name": "FEE_COLLECTOR_ROLE",
			"outputs": [
				{
					"internalType": "bytes32",
					"name": "",
					"type": "bytes32"
				}
			],
			"stateMutability": "view",
			"type": "function"
		},
		{
			"inputs": [],
			"name": "FEE_MANAGER_ROLE",
			"outputs": [
				{
					"internalType": "bytes32",
					"name": "",
					"type": "bytes32"
				}
			],
			"stateMutability": "view",
			"type": "function"
		},
		{
			"inputs": [],
			"name": "PAUSER_ROLE",
			"outputs": [
				{
					"internalType": "bytes32",
					"name": "",
					"type": "bytes32"
				}
			],
			"stateMutability": "view",
			"type": "function"
		},
		{
			"inputs": [],
			"name": "SANCTIONS_MANAGER_ROLE",
			"outputs": [
				{
					"internalType": "bytes32",
					"name": "",
					"type": "bytes32"
				}
			],
			"stateMutability": "view",
			"type": "function"
		},
		{
			"inputs": [],
			"name": "SPENDER_ROLE",
			"outputs": [
				{
					"internalType": "bytes32",
					"name": "",
					"type": "bytes32"
				}
			],
			"stateMutability": "view",
			"type": "function"
		},
		{
			"inputs": [],
			"name": "UNPAUSER_ROLE",
			"outputs": [
				{
					"internalType": "bytes32",
					"name": "",
					"type": "bytes32"
				}
			],
			"stateMutability": "view",
			"type": "function"
		},
		{
			"inputs": [],
			"name": "acceptDefaultAdminTransfer",
			"outputs": [],
			"stateMutability": "nonpayable",
			"type": "function"
		},
		{
			"inputs": [],
			"name": "additionalRewardsStrategy",
			"outputs": [
				{
					"internalType": "enum Vault.AdditionalRewardsStrategy",
					"name": "",
					"type": "uint8"
				}
			],
			"stateMutability": "view",
			"type": "function"
		},
		{
			"inputs": [
				{
					"internalType": "address",
					"name": "owner",
					"type": "address"
				},
				{
					"internalType": "address",
					"name": "spender",
					"type": "address"
				}
			],
			"name": "allowance",
			"outputs": [
				{
					"internalType": "uint256",
					"name": "",
					"type": "uint256"
				}
			],
			"stateMutability": "view",
			"type": "function"
		},
		{
			"inputs": [
				{
					"internalType": "address",
					"name": "spender",
					"type": "address"
				},
				{
					"internalType": "uint256",
					"name": "value",
					"type": "uint256"
				}
			],
			"name": "approve",
			"outputs": [
				{
					"internalType": "bool",
					"name": "",
					"type": "bool"
				}
			],
			"stateMutability": "nonpayable",
			"type": "function"
		},
		{
			"inputs": [],
			"name": "asset",
			"outputs": [
				{
					"internalType": "address",
					"name": "",
					"type": "address"
				}
			],
			"stateMutability": "view",
			"type": "function"
		},
		{
			"inputs": [
				{
					"internalType": "address",
					"name": "account",
					"type": "address"
				}
			],
			"name": "balanceOf",
			"outputs": [
				{
					"internalType": "uint256",
					"name": "",
					"type": "uint256"
				}
			],
			"stateMutability": "view",
			"type": "function"
		},
		{
			"inputs": [
				{
					"internalType": "address",
					"name": "newAdmin",
					"type": "address"
				}
			],
			"name": "beginDefaultAdminTransfer",
			"outputs": [],
			"stateMutability": "nonpayable",
			"type": "function"
		},
		{
			"inputs": [],
			"name": "blockList",
			"outputs": [
				{
					"internalType": "contract BlockList",
					"name": "",
					"type": "address"
				}
			],
			"stateMutability": "view",
			"type": "function"
		},
		{
			"inputs": [],
			"name": "cancelDefaultAdminTransfer",
			"outputs": [],
			"stateMutability": "nonpayable",
			"type": "function"
		},
		{
			"inputs": [
				{
					"internalType": "uint48",
					"name": "newDelay",
					"type": "uint48"
				}
			],
			"name": "changeDefaultAdminDelay",
			"outputs": [],
			"stateMutability": "nonpayable",
			"type": "function"
		},
		{
			"inputs": [
				{
					"internalType": "address",
					"name": "rewardsAsset",
					"type": "address"
				},
				{
					"internalType": "bytes",
					"name": "payload",
					"type": "bytes"
				}
			],
			"name": "claimAdditionalRewards",
			"outputs": [],
			"stateMutability": "nonpayable",
			"type": "function"
		},
		{
			"inputs": [],
			"name": "collectRewardFees",
			"outputs": [],
			"stateMutability": "nonpayable",
			"type": "function"
		},
		{
			"inputs": [],
			"name": "collectableRewardFees",
			"outputs": [
				{
					"internalType": "uint256",
					"name": "",
					"type": "uint256"
				}
			],
			"stateMutability": "view",
			"type": "function"
		},
		{
			"inputs": [],
			"name": "connectorName",
			"outputs": [
				{
					"internalType": "bytes32",
					"name": "",
					"type": "bytes32"
				}
			],
			"stateMutability": "view",
			"type": "function"
		},
		{
			"inputs": [],
			"name": "connectorRegistry",
			"outputs": [
				{
					"internalType": "contract IConnectorRegistry",
					"name": "",
					"type": "address"
				}
			],
			"stateMutability": "view",
			"type": "function"
		},
		{
			"inputs": [
				{
					"internalType": "uint256",
					"name": "shares",
					"type": "uint256"
				}
			],
			"name": "convertToAssets",
			"outputs": [
				{
					"internalType": "uint256",
					"name": "",
					"type": "uint256"
				}
			],
			"stateMutability": "view",
			"type": "function"
		},
		{
			"inputs": [
				{
					"internalType": "uint256",
					"name": "assets",
					"type": "uint256"
				}
			],
			"name": "convertToShares",
			"outputs": [
				{
					"internalType": "uint256",
					"name": "",
					"type": "uint256"
				}
			],
			"stateMutability": "view",
			"type": "function"
		},
		{
			"inputs": [],
			"name": "decimals",
			"outputs": [
				{
					"internalType": "uint8",
					"name": "",
					"type": "uint8"
				}
			],
			"stateMutability": "view",
			"type": "function"
		},
		{
			"inputs": [],
			"name": "defaultAdmin",
			"outputs": [
				{
					"internalType": "address",
					"name": "",
					"type": "address"
				}
			],
			"stateMutability": "view",
			"type": "function"
		},
		{
			"inputs": [],
			"name": "defaultAdminDelay",
			"outputs": [
				{
					"internalType": "uint48",
					"name": "",
					"type": "uint48"
				}
			],
			"stateMutability": "view",
			"type": "function"
		},
		{
			"inputs": [],
			"name": "defaultAdminDelayIncreaseWait",
			"outputs": [
				{
					"internalType": "uint48",
					"name": "",
					"type": "uint48"
				}
			],
			"stateMutability": "view",
			"type": "function"
		},
		{
			"inputs": [
				{
					"internalType": "bytes",
					"name": "data",
					"type": "bytes"
				}
			],
			"name": "delegateToFactory",
			"outputs": [
				{
					"internalType": "bytes",
					"name": "",
					"type": "bytes"
				}
			],
			"stateMutability": "nonpayable",
			"type": "function"
		},
		{
			"inputs": [
				{
					"internalType": "uint256",
					"name": "assets",
					"type": "uint256"
				},
				{
					"internalType": "address",
					"name": "receiver",
					"type": "address"
				}
			],
			"name": "deposit",
			"outputs": [
				{
					"internalType": "uint256",
					"name": "",
					"type": "uint256"
				}
			],
			"stateMutability": "nonpayable",
			"type": "function"
		},
		{
			"inputs": [],
			"name": "depositFee",
			"outputs": [
				{
					"internalType": "uint256",
					"name": "",
					"type": "uint256"
				}
			],
			"stateMutability": "view",
			"type": "function"
		},
		{
			"inputs": [],
			"name": "dispatchFees",
			"outputs": [],
			"stateMutability": "nonpayable",
			"type": "function"
		},
		{
			"inputs": [
				{
					"internalType": "address",
					"name": "recipient",
					"type": "address"
				}
			],
			"name": "feeRecipient",
			"outputs": [
				{
					"components": [
						{
							"internalType": "address",
							"name": "recipient",
							"type": "address"
						},
						{
							"internalType": "uint256",
							"name": "depositFeeSplit",
							"type": "uint256"
						},
						{
							"internalType": "uint256",
							"name": "rewardFeeSplit",
							"type": "uint256"
						}
					],
					"internalType": "struct IFeeDispatcher.FeeRecipient",
					"name": "",
					"type": "tuple"
				}
			],
			"stateMutability": "view",
			"type": "function"
		},
		{
			"inputs": [
				{
					"internalType": "uint256",
					"name": "index",
					"type": "uint256"
				}
			],
			"name": "feeRecipientAt",
			"outputs": [
				{
					"components": [
						{
							"internalType": "address",
							"name": "recipient",
							"type": "address"
						},
						{
							"internalType": "uint256",
							"name": "depositFeeSplit",
							"type": "uint256"
						},
						{
							"internalType": "uint256",
							"name": "rewardFeeSplit",
							"type": "uint256"
						}
					],
					"internalType": "struct IFeeDispatcher.FeeRecipient",
					"name": "",
					"type": "tuple"
				}
			],
			"stateMutability": "view",
			"type": "function"
		},
		{
			"inputs": [],
			"name": "feeRecipients",
			"outputs": [
				{
					"components": [
						{
							"internalType": "address",
							"name": "recipient",
							"type": "address"
						},
						{
							"internalType": "uint256",
							"name": "depositFeeSplit",
							"type": "uint256"
						},
						{
							"internalType": "uint256",
							"name": "rewardFeeSplit",
							"type": "uint256"
						}
					],
					"internalType": "struct IFeeDispatcher.FeeRecipient[]",
					"name": "",
					"type": "tuple[]"
				}
			],
			"stateMutability": "view",
			"type": "function"
		},
		{
			"inputs": [
				{
					"internalType": "address",
					"name": "blockedUser",
					"type": "address"
				}
			],
			"name": "forceWithdraw",
			"outputs": [
				{
					"internalType": "uint256",
					"name": "",
					"type": "uint256"
				}
			],
			"stateMutability": "nonpayable",
			"type": "function"
		},
		{
			"inputs": [
				{
					"internalType": "bytes32",
					"name": "role",
					"type": "bytes32"
				}
			],
			"name": "getRoleAdmin",
			"outputs": [
				{
					"internalType": "bytes32",
					"name": "",
					"type": "bytes32"
				}
			],
			"stateMutability": "view",
			"type": "function"
		},
		{
			"inputs": [
				{
					"internalType": "bytes32",
					"name": "role",
					"type": "bytes32"
				},
				{
					"internalType": "address",
					"name": "account",
					"type": "address"
				}
			],
			"name": "grantRole",
			"outputs": [],
			"stateMutability": "nonpayable",
			"type": "function"
		},
		{
			"inputs": [
				{
					"internalType": "bytes32",
					"name": "role",
					"type": "bytes32"
				},
				{
					"internalType": "address",
					"name": "account",
					"type": "address"
				}
			],
			"name": "hasRole",
			"outputs": [
				{
					"internalType": "bool",
					"name": "",
					"type": "bool"
				}
			],
			"stateMutability": "view",
			"type": "function"
		},
		{
			"inputs": [
				{
					"components": [
						{
							"internalType": "contract IERC20",
							"name": "asset_",
							"type": "address"
						},
						{
							"internalType": "string",
							"name": "name_",
							"type": "string"
						},
						{
							"internalType": "string",
							"name": "symbol_",
							"type": "string"
						},
						{
							"internalType": "bool",
							"name": "transferable_",
							"type": "bool"
						},
						{
							"internalType": "contract IConnectorRegistry",
							"name": "connectorRegistry_",
							"type": "address"
						},
						{
							"internalType": "bytes32",
							"name": "connectorName_",
							"type": "bytes32"
						},
						{
							"internalType": "uint256",
							"name": "depositFee_",
							"type": "uint256"
						},
						{
							"internalType": "uint256",
							"name": "rewardFee_",
							"type": "uint256"
						},
						{
							"internalType": "address",
							"name": "initialDefaultAdmin_",
							"type": "address"
						},
						{
							"internalType": "address",
							"name": "initialFeeManager_",
							"type": "address"
						},
						{
							"internalType": "address",
							"name": "initialSanctionsManager_",
							"type": "address"
						},
						{
							"internalType": "address",
							"name": "initialClaimManager_",
							"type": "address"
						},
						{
							"internalType": "address",
							"name": "initialPauser_",
							"type": "address"
						},
						{
							"internalType": "address",
							"name": "initialUnpauser_",
							"type": "address"
						},
						{
							"internalType": "uint48",
							"name": "initialDelay_",
							"type": "uint48"
						},
						{
							"internalType": "uint8",
							"name": "offset_",
							"type": "uint8"
						},
						{
							"internalType": "uint256",
							"name": "minTotalSupply_",
							"type": "uint256"
						}
					],
					"internalType": "struct Vault.InitializationParams",
					"name": "initializationParams",
					"type": "tuple"
				},
				{
					"components": [
						{
							"components": [
								{
									"internalType": "address",
									"name": "recipient",
									"type": "address"
								},
								{
									"internalType": "uint256",
									"name": "depositFeeSplit",
									"type": "uint256"
								},
								{
									"internalType": "uint256",
									"name": "rewardFeeSplit",
									"type": "uint256"
								}
							],
							"internalType": "struct IFeeDispatcher.FeeRecipient[]",
							"name": "recipients_",
							"type": "tuple[]"
						},
						{
							"internalType": "address",
							"name": "feeDispatcher_",
							"type": "address"
						},
						{
							"internalType": "enum Vault.AdditionalRewardsStrategy",
							"name": "additionalRewardsStrategy_",
							"type": "uint8"
						},
						{
							"internalType": "contract BlockList",
							"name": "blockList_",
							"type": "address"
						},
						{
							"internalType": "uint256",
							"name": "pendingDepositFee_",
							"type": "uint256"
						},
						{
							"internalType": "uint256",
							"name": "pendingRewardFee_",
							"type": "uint256"
						},
						{
							"internalType": "contract IConnectorRegistry",
							"name": "connectorRegistry_",
							"type": "address"
						},
						{
							"internalType": "address",
							"name": "initialFeeCollector_",
							"type": "address"
						}
					],
					"internalType": "struct Vault.UpgradeParams",
					"name": "upgradeParams",
					"type": "tuple"
				}
			],
			"name": "initialize",
			"outputs": [],
			"stateMutability": "nonpayable",
			"type": "function"
		},
		{
			"inputs": [
				{
					"internalType": "address",
					"name": "",
					"type": "address"
				}
			],
			"name": "maxDeposit",
			"outputs": [
				{
					"internalType": "uint256",
					"name": "",
					"type": "uint256"
				}
			],
			"stateMutability": "view",
			"type": "function"
		},
		{
			"inputs": [
				{
					"internalType": "address",
					"name": "",
					"type": "address"
				}
			],
			"name": "maxMint",
			"outputs": [
				{
					"internalType": "uint256",
					"name": "",
					"type": "uint256"
				}
			],
			"stateMutability": "view",
			"type": "function"
		},
		{
			"inputs": [
				{
					"internalType": "address",
					"name": "owner",
					"type": "address"
				}
			],
			"name": "maxRedeem",
			"outputs": [
				{
					"internalType": "uint256",
					"name": "",
					"type": "uint256"
				}
			],
			"stateMutability": "view",
			"type": "function"
		},
		{
			"inputs": [
				{
					"internalType": "address",
					"name": "owner",
					"type": "address"
				}
			],
			"name": "maxWithdraw",
			"outputs": [
				{
					"internalType": "uint256",
					"name": "",
					"type": "uint256"
				}
			],
			"stateMutability": "view",
			"type": "function"
		},
		{
			"inputs": [
				{
					"internalType": "uint256",
					"name": "shares",
					"type": "uint256"
				},
				{
					"internalType": "address",
					"name": "receiver",
					"type": "address"
				}
			],
			"name": "mint",
			"outputs": [
				{
					"internalType": "uint256",
					"name": "",
					"type": "uint256"
				}
			],
			"stateMutability": "nonpayable",
			"type": "function"
		},
		{
			"inputs": [],
			"name": "name",
			"outputs": [
				{
					"internalType": "string",
					"name": "",
					"type": "string"
				}
			],
			"stateMutability": "view",
			"type": "function"
		},
		{
			"inputs": [],
			"name": "owner",
			"outputs": [
				{
					"internalType": "address",
					"name": "",
					"type": "address"
				}
			],
			"stateMutability": "view",
			"type": "function"
		},
		{
			"inputs": [],
			"name": "pauseDeposit",
			"outputs": [],
			"stateMutability": "nonpayable",
			"type": "function"
		},
		{
			"inputs": [],
			"name": "pendingDefaultAdmin",
			"outputs": [
				{
					"internalType": "address",
					"name": "newAdmin",
					"type": "address"
				},
				{
					"internalType": "uint48",
					"name": "schedule",
					"type": "uint48"
				}
			],
			"stateMutability": "view",
			"type": "function"
		},
		{
			"inputs": [],
			"name": "pendingDefaultAdminDelay",
			"outputs": [
				{
					"internalType": "uint48",
					"name": "newDelay",
					"type": "uint48"
				},
				{
					"internalType": "uint48",
					"name": "schedule",
					"type": "uint48"
				}
			],
			"stateMutability": "view",
			"type": "function"
		},
		{
			"inputs": [],
			"name": "pendingDepositFee",
			"outputs": [
				{
					"internalType": "uint256",
					"name": "",
					"type": "uint256"
				}
			],
			"stateMutability": "view",
			"type": "function"
		},
		{
			"inputs": [],
			"name": "pendingRewardFee",
			"outputs": [
				{
					"internalType": "uint256",
					"name": "",
					"type": "uint256"
				}
			],
			"stateMutability": "view",
			"type": "function"
		},
		{
			"inputs": [
				{
					"internalType": "uint256",
					"name": "assets",
					"type": "uint256"
				}
			],
			"name": "previewDeposit",
			"outputs": [
				{
					"internalType": "uint256",
					"name": "",
					"type": "uint256"
				}
			],
			"stateMutability": "view",
			"type": "function"
		},
		{
			"inputs": [
				{
					"internalType": "uint256",
					"name": "shares",
					"type": "uint256"
				}
			],
			"name": "previewMint",
			"outputs": [
				{
					"internalType": "uint256",
					"name": "",
					"type": "uint256"
				}
			],
			"stateMutability": "view",
			"type": "function"
		},
		{
			"inputs": [
				{
					"internalType": "uint256",
					"name": "shares",
					"type": "uint256"
				}
			],
			"name": "previewRedeem",
			"outputs": [
				{
					"internalType": "uint256",
					"name": "",
					"type": "uint256"
				}
			],
			"stateMutability": "view",
			"type": "function"
		},
		{
			"inputs": [
				{
					"internalType": "uint256",
					"name": "assets",
					"type": "uint256"
				}
			],
			"name": "previewWithdraw",
			"outputs": [
				{
					"internalType": "uint256",
					"name": "",
					"type": "uint256"
				}
			],
			"stateMutability": "view",
			"type": "function"
		},
		{
			"inputs": [
				{
					"internalType": "uint256",
					"name": "shares",
					"type": "uint256"
				},
				{
					"internalType": "address",
					"name": "receiver",
					"type": "address"
				},
				{
					"internalType": "address",
					"name": "owner",
					"type": "address"
				}
			],
			"name": "redeem",
			"outputs": [
				{
					"internalType": "uint256",
					"name": "",
					"type": "uint256"
				}
			],
			"stateMutability": "nonpayable",
			"type": "function"
		},
		{
			"inputs": [
				{
					"internalType": "bytes32",
					"name": "role",
					"type": "bytes32"
				},
				{
					"internalType": "address",
					"name": "account",
					"type": "address"
				}
			],
			"name": "renounceRole",
			"outputs": [],
			"stateMutability": "nonpayable",
			"type": "function"
		},
		{
			"inputs": [
				{
					"internalType": "bytes32",
					"name": "role",
					"type": "bytes32"
				},
				{
					"internalType": "address",
					"name": "account",
					"type": "address"
				}
			],
			"name": "revokeRole",
			"outputs": [],
			"stateMutability": "nonpayable",
			"type": "function"
		},
		{
			"inputs": [],
			"name": "rewardFee",
			"outputs": [
				{
					"internalType": "uint256",
					"name": "",
					"type": "uint256"
				}
			],
			"stateMutability": "view",
			"type": "function"
		},
		{
			"inputs": [],
			"name": "rollbackDefaultAdminDelay",
			"outputs": [],
			"stateMutability": "nonpayable",
			"type": "function"
		},
		{
			"inputs": [
				{
					"internalType": "enum Vault.AdditionalRewardsStrategy",
					"name": "strategy",
					"type": "uint8"
				}
			],
			"name": "setAdditionalRewardsStrategy",
			"outputs": [],
			"stateMutability": "nonpayable",
			"type": "function"
		},
		{
			"inputs": [
				{
					"internalType": "contract BlockList",
					"name": "newBlockList",
					"type": "address"
				}
			],
			"name": "setBlockList",
			"outputs": [],
			"stateMutability": "nonpayable",
			"type": "function"
		},
		{
			"inputs": [
				{
					"internalType": "uint256",
					"name": "newDepositFee",
					"type": "uint256"
				}
			],
			"name": "setDepositFee",
			"outputs": [],
			"stateMutability": "nonpayable",
			"type": "function"
		},
		{
			"inputs": [
				{
					"components": [
						{
							"internalType": "address",
							"name": "recipient",
							"type": "address"
						},
						{
							"internalType": "uint256",
							"name": "depositFeeSplit",
							"type": "uint256"
						},
						{
							"internalType": "uint256",
							"name": "rewardFeeSplit",
							"type": "uint256"
						}
					],
					"internalType": "struct IFeeDispatcher.FeeRecipient[]",
					"name": "recipients",
					"type": "tuple[]"
				}
			],
			"name": "setFeeRecipients",
			"outputs": [],
			"stateMutability": "nonpayable",
			"type": "function"
		},
		{
			"inputs": [
				{
					"internalType": "uint256",
					"name": "newRewardFee",
					"type": "uint256"
				}
			],
			"name": "setRewardFee",
			"outputs": [],
			"stateMutability": "nonpayable",
			"type": "function"
		},
		{
			"inputs": [
				{
					"internalType": "bytes4",
					"name": "interfaceId",
					"type": "bytes4"
				}
			],
			"name": "supportsInterface",
			"outputs": [
				{
					"internalType": "bool",
					"name": "",
					"type": "bool"
				}
			],
			"stateMutability": "view",
			"type": "function"
		},
		{
			"inputs": [],
			"name": "symbol",
			"outputs": [
				{
					"internalType": "string",
					"name": "",
					"type": "string"
				}
			],
			"stateMutability": "view",
			"type": "function"
		},
		{
			"inputs": [],
			"name": "totalAssets",
			"outputs": [
				{
					"internalType": "uint256",
					"name": "",
					"type": "uint256"
				}
			],
			"stateMutability": "view",
			"type": "function"
		},
		{
			"inputs": [],
			"name": "totalSupply",
			"outputs": [
				{
					"internalType": "uint256",
					"name": "",
					"type": "uint256"
				}
			],
			"stateMutability": "view",
			"type": "function"
		},
		{
			"inputs": [
				{
					"internalType": "address",
					"name": "to",
					"type": "address"
				},
				{
					"internalType": "uint256",
					"name": "value",
					"type": "uint256"
				}
			],
			"name": "transfer",
			"outputs": [
				{
					"internalType": "bool",
					"name": "",
					"type": "bool"
				}
			],
			"stateMutability": "nonpayable",
			"type": "function"
		},
		{
			"inputs": [
				{
					"internalType": "address",
					"name": "from",
					"type": "address"
				},
				{
					"internalType": "address",
					"name": "to",
					"type": "address"
				},
				{
					"internalType": "uint256",
					"name": "value",
					"type": "uint256"
				}
			],
			"name": "transferFrom",
			"outputs": [
				{
					"internalType": "bool",
					"name": "",
					"type": "bool"
				}
			],
			"stateMutability": "nonpayable",
			"type": "function"
		},
		{
			"inputs": [],
			"name": "transferable",
			"outputs": [
				{
					"internalType": "bool",
					"name": "",
					"type": "bool"
				}
			],
			"stateMutability": "view",
			"type": "function"
		},
		{
			"inputs": [],
			"name": "unpauseDeposit",
			"outputs": [],
			"stateMutability": "nonpayable",
			"type": "function"
		},
		{
			"inputs": [
				{
					"components": [
						{
							"components": [
								{
									"internalType": "address",
									"name": "recipient",
									"type": "address"
								},
								{
									"internalType": "uint256",
									"name": "depositFeeSplit",
									"type": "uint256"
								},
								{
									"internalType": "uint256",
									"name": "rewardFeeSplit",
									"type": "uint256"
								}
							],
							"internalType": "struct IFeeDispatcher.FeeRecipient[]",
							"name": "recipients_",
							"type": "tuple[]"
						},
						{
							"internalType": "address",
							"name": "feeDispatcher_",
							"type": "address"
						},
						{
							"internalType": "enum Vault.AdditionalRewardsStrategy",
							"name": "additionalRewardsStrategy_",
							"type": "uint8"
						},
						{
							"internalType": "contract BlockList",
							"name": "blockList_",
							"type": "address"
						},
						{
							"internalType": "uint256",
							"name": "pendingDepositFee_",
							"type": "uint256"
						},
						{
							"internalType": "uint256",
							"name": "pendingRewardFee_",
							"type": "uint256"
						},
						{
							"internalType": "contract IConnectorRegistry",
							"name": "connectorRegistry_",
							"type": "address"
						},
						{
							"internalType": "address",
							"name": "initialFeeCollector_",
							"type": "address"
						}
					],
					"internalType": "struct Vault.UpgradeParams",
					"name": "upgradeParams",
					"type": "tuple"
				}
			],
			"name": "upgrade",
			"outputs": [],
			"stateMutability": "nonpayable",
			"type": "function"
		},
		{
			"inputs": [],
			"name": "vaultFactory",
			"outputs": [
				{
					"internalType": "address",
					"name": "",
					"type": "address"
				}
			],
			"stateMutability": "view",
			"type": "function"
		},
		{
			"inputs": [
				{
					"internalType": "uint256",
					"name": "assets",
					"type": "uint256"
				},
				{
					"internalType": "address",
					"name": "receiver",
					"type": "address"
				},
				{
					"internalType": "address",
					"name": "owner",
					"type": "address"
				}
			],
			"name": "withdraw",
			"outputs": [
				{
					"internalType": "uint256",
					"name": "",
					"type": "uint256"
				}
			],
			"stateMutability": "nonpayable",
			"type": "function"
		}
	]
}